{
	"contracts/ico/PaymeTokenVesting.sol": {
		"PaymeTokenVesting": {
			"abi": [
				{
					"inputs": [
						{
							"internalType": "contract IERC20",
							"name": "iToken",
							"type": "address"
						},
						{
							"internalType": "uint256",
							"name": "iTGEPercent",
							"type": "uint256"
						},
						{
							"internalType": "uint256",
							"name": "iTGEOpeningTime",
							"type": "uint256"
						}
					],
					"stateMutability": "nonpayable",
					"type": "constructor"
				},
				{
					"anonymous": false,
					"inputs": [
						{
							"indexed": true,
							"internalType": "address",
							"name": "previousOwner",
							"type": "address"
						},
						{
							"indexed": true,
							"internalType": "address",
							"name": "newOwner",
							"type": "address"
						}
					],
					"name": "OwnershipTransferred",
					"type": "event"
				},
				{
					"anonymous": false,
					"inputs": [
						{
							"indexed": false,
							"internalType": "uint256",
							"name": "amount",
							"type": "uint256"
						}
					],
					"name": "Released",
					"type": "event"
				},
				{
					"anonymous": false,
					"inputs": [],
					"name": "Revoked",
					"type": "event"
				},
				{
					"anonymous": false,
					"inputs": [
						{
							"indexed": false,
							"internalType": "address",
							"name": "beneficiary",
							"type": "address"
						},
						{
							"indexed": false,
							"internalType": "uint256",
							"name": "amount",
							"type": "uint256"
						}
					],
					"name": "TokenReleasedAtTGE",
					"type": "event"
				},
				{
					"anonymous": false,
					"inputs": [
						{
							"indexed": false,
							"internalType": "bytes32",
							"name": "",
							"type": "bytes32"
						}
					],
					"name": "VestingScheduleCreated",
					"type": "event"
				},
				{
					"inputs": [
						{
							"internalType": "address",
							"name": "holder",
							"type": "address"
						}
					],
					"name": "computeNextVestingScheduleIdForHolder",
					"outputs": [
						{
							"internalType": "bytes32",
							"name": "",
							"type": "bytes32"
						}
					],
					"stateMutability": "view",
					"type": "function"
				},
				{
					"inputs": [
						{
							"internalType": "bytes32",
							"name": "vestingScheduleId",
							"type": "bytes32"
						}
					],
					"name": "computeReleasableAmount",
					"outputs": [
						{
							"internalType": "uint256",
							"name": "",
							"type": "uint256"
						}
					],
					"stateMutability": "view",
					"type": "function"
				},
				{
					"inputs": [
						{
							"internalType": "address",
							"name": "holder",
							"type": "address"
						},
						{
							"internalType": "uint256",
							"name": "index",
							"type": "uint256"
						}
					],
					"name": "computeVestingScheduleIdForAddressAndIndex",
					"outputs": [
						{
							"internalType": "bytes32",
							"name": "",
							"type": "bytes32"
						}
					],
					"stateMutability": "pure",
					"type": "function"
				},
				{
					"inputs": [
						{
							"internalType": "address",
							"name": "iBeneficiary",
							"type": "address"
						},
						{
							"internalType": "uint256",
							"name": "iStart",
							"type": "uint256"
						},
						{
							"internalType": "uint256",
							"name": "iCliff",
							"type": "uint256"
						},
						{
							"internalType": "uint256",
							"name": "iDuration",
							"type": "uint256"
						},
						{
							"internalType": "uint256",
							"name": "iSlicePeriodSeconds",
							"type": "uint256"
						},
						{
							"internalType": "bool",
							"name": "iRevocable",
							"type": "bool"
						},
						{
							"internalType": "uint256",
							"name": "iAmount",
							"type": "uint256"
						},
						{
							"internalType": "bool",
							"name": "iReleaseAtTGE",
							"type": "bool"
						}
					],
					"name": "createVestingSchedule",
					"outputs": [],
					"stateMutability": "nonpayable",
					"type": "function"
				},
				{
					"inputs": [],
					"name": "crowdsalesAddress",
					"outputs": [
						{
							"internalType": "address",
							"name": "",
							"type": "address"
						}
					],
					"stateMutability": "view",
					"type": "function"
				},
				{
					"inputs": [],
					"name": "getCurrentTime",
					"outputs": [
						{
							"internalType": "uint256",
							"name": "",
							"type": "uint256"
						}
					],
					"stateMutability": "view",
					"type": "function"
				},
				{
					"inputs": [
						{
							"internalType": "address",
							"name": "holder",
							"type": "address"
						}
					],
					"name": "getLastVestingScheduleForHolder",
					"outputs": [
						{
							"components": [
								{
									"internalType": "bool",
									"name": "initialized",
									"type": "bool"
								},
								{
									"internalType": "address",
									"name": "beneficiary",
									"type": "address"
								},
								{
									"internalType": "uint256",
									"name": "cliff",
									"type": "uint256"
								},
								{
									"internalType": "uint256",
									"name": "start",
									"type": "uint256"
								},
								{
									"internalType": "uint256",
									"name": "duration",
									"type": "uint256"
								},
								{
									"internalType": "uint256",
									"name": "slicePeriodSeconds",
									"type": "uint256"
								},
								{
									"internalType": "bool",
									"name": "revocable",
									"type": "bool"
								},
								{
									"internalType": "uint256",
									"name": "amountTotal",
									"type": "uint256"
								},
								{
									"internalType": "uint256",
									"name": "released",
									"type": "uint256"
								},
								{
									"internalType": "bool",
									"name": "revoked",
									"type": "bool"
								},
								{
									"internalType": "bool",
									"name": "releaseAtTGE",
									"type": "bool"
								}
							],
							"internalType": "struct PaymeTokenVesting.VestingSchedule",
							"name": "",
							"type": "tuple"
						}
					],
					"stateMutability": "view",
					"type": "function"
				},
				{
					"inputs": [],
					"name": "getTGEOpeningTime",
					"outputs": [
						{
							"internalType": "uint256",
							"name": "",
							"type": "uint256"
						}
					],
					"stateMutability": "view",
					"type": "function"
				},
				{
					"inputs": [],
					"name": "getTgeTotalAmount",
					"outputs": [
						{
							"internalType": "uint256",
							"name": "",
							"type": "uint256"
						}
					],
					"stateMutability": "view",
					"type": "function"
				},
				{
					"inputs": [],
					"name": "getToken",
					"outputs": [
						{
							"internalType": "address",
							"name": "",
							"type": "address"
						}
					],
					"stateMutability": "view",
					"type": "function"
				},
				{
					"inputs": [],
					"name": "getTotalInvestmentAmountBalance",
					"outputs": [
						{
							"internalType": "uint256",
							"name": "",
							"type": "uint256"
						}
					],
					"stateMutability": "view",
					"type": "function"
				},
				{
					"inputs": [
						{
							"internalType": "uint256",
							"name": "index",
							"type": "uint256"
						}
					],
					"name": "getVestingIdAtIndex",
					"outputs": [
						{
							"internalType": "bytes32",
							"name": "",
							"type": "bytes32"
						}
					],
					"stateMutability": "view",
					"type": "function"
				},
				{
					"inputs": [
						{
							"internalType": "bytes32",
							"name": "vestingScheduleId",
							"type": "bytes32"
						}
					],
					"name": "getVestingSchedule",
					"outputs": [
						{
							"components": [
								{
									"internalType": "bool",
									"name": "initialized",
									"type": "bool"
								},
								{
									"internalType": "address",
									"name": "beneficiary",
									"type": "address"
								},
								{
									"internalType": "uint256",
									"name": "cliff",
									"type": "uint256"
								},
								{
									"internalType": "uint256",
									"name": "start",
									"type": "uint256"
								},
								{
									"internalType": "uint256",
									"name": "duration",
									"type": "uint256"
								},
								{
									"internalType": "uint256",
									"name": "slicePeriodSeconds",
									"type": "uint256"
								},
								{
									"internalType": "bool",
									"name": "revocable",
									"type": "bool"
								},
								{
									"internalType": "uint256",
									"name": "amountTotal",
									"type": "uint256"
								},
								{
									"internalType": "uint256",
									"name": "released",
									"type": "uint256"
								},
								{
									"internalType": "bool",
									"name": "revoked",
									"type": "bool"
								},
								{
									"internalType": "bool",
									"name": "releaseAtTGE",
									"type": "bool"
								}
							],
							"internalType": "struct PaymeTokenVesting.VestingSchedule",
							"name": "",
							"type": "tuple"
						}
					],
					"stateMutability": "view",
					"type": "function"
				},
				{
					"inputs": [
						{
							"internalType": "address",
							"name": "holder",
							"type": "address"
						},
						{
							"internalType": "uint256",
							"name": "index",
							"type": "uint256"
						}
					],
					"name": "getVestingScheduleByAddressAndIndex",
					"outputs": [
						{
							"components": [
								{
									"internalType": "bool",
									"name": "initialized",
									"type": "bool"
								},
								{
									"internalType": "address",
									"name": "beneficiary",
									"type": "address"
								},
								{
									"internalType": "uint256",
									"name": "cliff",
									"type": "uint256"
								},
								{
									"internalType": "uint256",
									"name": "start",
									"type": "uint256"
								},
								{
									"internalType": "uint256",
									"name": "duration",
									"type": "uint256"
								},
								{
									"internalType": "uint256",
									"name": "slicePeriodSeconds",
									"type": "uint256"
								},
								{
									"internalType": "bool",
									"name": "revocable",
									"type": "bool"
								},
								{
									"internalType": "uint256",
									"name": "amountTotal",
									"type": "uint256"
								},
								{
									"internalType": "uint256",
									"name": "released",
									"type": "uint256"
								},
								{
									"internalType": "bool",
									"name": "revoked",
									"type": "bool"
								},
								{
									"internalType": "bool",
									"name": "releaseAtTGE",
									"type": "bool"
								}
							],
							"internalType": "struct PaymeTokenVesting.VestingSchedule",
							"name": "",
							"type": "tuple"
						}
					],
					"stateMutability": "view",
					"type": "function"
				},
				{
					"inputs": [],
					"name": "getVestingSchedulesCount",
					"outputs": [
						{
							"internalType": "uint256",
							"name": "",
							"type": "uint256"
						}
					],
					"stateMutability": "view",
					"type": "function"
				},
				{
					"inputs": [
						{
							"internalType": "address",
							"name": "iBeneficiary",
							"type": "address"
						}
					],
					"name": "getVestingSchedulesCountByBeneficiary",
					"outputs": [
						{
							"internalType": "uint256",
							"name": "",
							"type": "uint256"
						}
					],
					"stateMutability": "view",
					"type": "function"
				},
				{
					"inputs": [],
					"name": "getVestingSchedulesTotalAmount",
					"outputs": [
						{
							"internalType": "uint256",
							"name": "",
							"type": "uint256"
						}
					],
					"stateMutability": "view",
					"type": "function"
				},
				{
					"inputs": [],
					"name": "getWithdrawableAmount",
					"outputs": [
						{
							"internalType": "uint256",
							"name": "",
							"type": "uint256"
						}
					],
					"stateMutability": "view",
					"type": "function"
				},
				{
					"inputs": [],
					"name": "owner",
					"outputs": [
						{
							"internalType": "address",
							"name": "",
							"type": "address"
						}
					],
					"stateMutability": "view",
					"type": "function"
				},
				{
					"inputs": [
						{
							"internalType": "bytes32",
							"name": "vestingScheduleId",
							"type": "bytes32"
						},
						{
							"internalType": "uint256",
							"name": "amount",
							"type": "uint256"
						}
					],
					"name": "release",
					"outputs": [],
					"stateMutability": "nonpayable",
					"type": "function"
				},
				{
					"inputs": [
						{
							"internalType": "bytes32",
							"name": "vestingScheduleId",
							"type": "bytes32"
						}
					],
					"name": "releaseForTGE",
					"outputs": [],
					"stateMutability": "nonpayable",
					"type": "function"
				},
				{
					"inputs": [],
					"name": "renounceOwnership",
					"outputs": [],
					"stateMutability": "nonpayable",
					"type": "function"
				},
				{
					"inputs": [
						{
							"internalType": "bytes32",
							"name": "vestingScheduleId",
							"type": "bytes32"
						}
					],
					"name": "revoke",
					"outputs": [],
					"stateMutability": "nonpayable",
					"type": "function"
				},
				{
					"inputs": [
						{
							"internalType": "address",
							"name": "icrowdsalesAddress",
							"type": "address"
						}
					],
					"name": "setCrowdsaleAddress",
					"outputs": [],
					"stateMutability": "nonpayable",
					"type": "function"
				},
				{
					"inputs": [],
					"name": "tgeOpeningTime",
					"outputs": [
						{
							"internalType": "uint256",
							"name": "",
							"type": "uint256"
						}
					],
					"stateMutability": "view",
					"type": "function"
				},
				{
					"inputs": [],
					"name": "tgePercent",
					"outputs": [
						{
							"internalType": "uint256",
							"name": "",
							"type": "uint256"
						}
					],
					"stateMutability": "view",
					"type": "function"
				},
				{
					"inputs": [
						{
							"internalType": "bytes32",
							"name": "",
							"type": "bytes32"
						}
					],
					"name": "tgeTokenParticipants",
					"outputs": [
						{
							"internalType": "uint256",
							"name": "",
							"type": "uint256"
						}
					],
					"stateMutability": "view",
					"type": "function"
				},
				{
					"inputs": [
						{
							"internalType": "address",
							"name": "newOwner",
							"type": "address"
						}
					],
					"name": "transferOwnership",
					"outputs": [],
					"stateMutability": "nonpayable",
					"type": "function"
				},
				{
					"inputs": [
						{
							"internalType": "uint256",
							"name": "amount",
							"type": "uint256"
						}
					],
					"name": "withdraw",
					"outputs": [],
					"stateMutability": "nonpayable",
					"type": "function"
				}
			],
			"devdoc": {
				"kind": "dev",
				"methods": {
					"computeNextVestingScheduleIdForHolder(address)": {
						"details": "Computes the next vesting schedule identifier for a given holder address."
					},
					"computeReleasableAmount(bytes32)": {
						"returns": {
							"_0": "the vested amount"
						}
					},
					"computeVestingScheduleIdForAddressAndIndex(address,uint256)": {
						"details": "Computes the vesting schedule identifier for an address and an index."
					},
					"constructor": {
						"details": "Creates a vesting contract.",
						"params": {
							"iTGEOpeningTime": "time when investor will be elible to claim their token",
							"iTGEPercent": "quota to be released to investors",
							"iToken": "address of the ERC20 token contract"
						}
					},
					"createVestingSchedule(address,uint256,uint256,uint256,uint256,bool,uint256,bool)": {
						"params": {
							"iAmount": "total amount of tokens to be released at the end of the vesting",
							"iBeneficiary": "address of the beneficiary to whom vested tokens are transferred",
							"iCliff": "duration in seconds of the cliff in which tokens will begin to vest",
							"iDuration": "duration in seconds of the period in which the tokens will vest",
							"iRevocable": "whether the vesting is revocable or not",
							"iSlicePeriodSeconds": "duration of a slice period for the vesting in seconds",
							"iStart": "start time of the vesting period"
						}
					},
					"getLastVestingScheduleForHolder(address)": {
						"details": "Returns the last vesting schedule for a given holder address."
					},
					"getTgeTotalAmount()": {
						"returns": {
							"_0": "the total amount of TGE"
						}
					},
					"getToken()": {
						"details": "Returns the address of the ERC20 token managed by the vesting contract."
					},
					"getVestingIdAtIndex(uint256)": {
						"details": "Returns the vesting schedule id at the given index.",
						"returns": {
							"_0": "the vesting id"
						}
					},
					"getVestingSchedule(bytes32)": {
						"returns": {
							"_0": "the vesting schedule structure information"
						}
					},
					"getVestingScheduleByAddressAndIndex(address,uint256)": {
						"returns": {
							"_0": "the vesting schedule structure information"
						}
					},
					"getVestingSchedulesCount()": {
						"details": "Returns the number of vesting schedules managed by this contract.",
						"returns": {
							"_0": "the number of vesting schedules"
						}
					},
					"getVestingSchedulesCountByBeneficiary(address)": {
						"details": "Returns the number of vesting schedules associated to a beneficiary.",
						"returns": {
							"_0": "the number of vesting schedules"
						}
					},
					"getVestingSchedulesTotalAmount()": {
						"returns": {
							"_0": "the total amount of vesting schedules"
						}
					},
					"getWithdrawableAmount()": {
						"details": "Returns the amount of tokens that can be withdrawn by the owner.",
						"returns": {
							"_0": "the amount of tokens"
						}
					},
					"owner()": {
						"details": "Returns the address of the current owner."
					},
					"release(bytes32,uint256)": {
						"params": {
							"amount": "the amount to release",
							"vestingScheduleId": "the vesting schedule identifier"
						}
					},
					"renounceOwnership()": {
						"details": "Leaves the contract without owner. It will not be possible to call `onlyOwner` functions anymore. Can only be called by the current owner. NOTE: Renouncing ownership will leave the contract without an owner, thereby removing any functionality that is only available to the owner."
					},
					"revoke(bytes32)": {
						"params": {
							"vestingScheduleId": "the vesting schedule identifier"
						}
					},
					"transferOwnership(address)": {
						"details": "Transfers ownership of the contract to a new account (`newOwner`). Can only be called by the current owner."
					},
					"withdraw(uint256)": {
						"params": {
							"amount": "the amount to withdraw"
						}
					}
				},
				"version": 1
			},
			"evm": {
				"assembly": "    /* \"contracts/ico/PaymeTokenVesting.sol\":624:16235  contract PaymeTokenVesting is Ownable, ReentrancyGuard{... */\n  mstore(0x40, 0x80)\n    /* \"contracts/ico/PaymeTokenVesting.sol\":3207:3678  constructor(IERC20 iToken,uint256 iTGEPercent,uint256 iTGEOpeningTime) {... */\n  callvalue\n  dup1\n  iszero\n  tag_1\n  jumpi\n  0x00\n  dup1\n  revert\ntag_1:\n  pop\n  mload(0x40)\n  sub(codesize, bytecodeSize)\n  dup1\n  bytecodeSize\n  dup4\n  codecopy\n  dup2\n  dup2\n  add\n  0x40\n  mstore\n  dup2\n  add\n  swap1\n  tag_2\n  swap2\n  swap1\n  tag_3\n  jump\t// in\ntag_2:\n    /* \"@openzeppelin/contracts/access/Ownable.sol\":936:968  _transferOwnership(_msgSender()) */\n  tag_8\n    /* \"@openzeppelin/contracts/access/Ownable.sol\":955:967  _msgSender() */\n  tag_9\n    /* \"@openzeppelin/contracts/access/Ownable.sol\":955:965  _msgSender */\n  shl(0x20, tag_10)\n    /* \"@openzeppelin/contracts/access/Ownable.sol\":955:967  _msgSender() */\n  0x20\n  shr\n  jump\t// in\ntag_9:\n    /* \"@openzeppelin/contracts/access/Ownable.sol\":936:954  _transferOwnership */\n  shl(0x20, tag_11)\n    /* \"@openzeppelin/contracts/access/Ownable.sol\":936:968  _transferOwnership(_msgSender()) */\n  0x20\n  shr\n  jump\t// in\ntag_8:\n    /* \"@openzeppelin/contracts/security/ReentrancyGuard.sol\":1701:1702  1 */\n  0x01\n    /* \"@openzeppelin/contracts/security/ReentrancyGuard.sol\":1806:1813  _status */\n  dup1\n    /* \"@openzeppelin/contracts/security/ReentrancyGuard.sol\":1806:1828  _status = _NOT_ENTERED */\n  dup2\n  swap1\n  sstore\n  pop\n    /* \"contracts/ico/PaymeTokenVesting.sol\":3323:3324  0 */\n  0x00\n    /* \"contracts/ico/PaymeTokenVesting.sol\":3296:3325  address(iToken) != address(0) */\n  0xffffffffffffffffffffffffffffffffffffffff\n  and\n    /* \"contracts/ico/PaymeTokenVesting.sol\":3304:3310  iToken */\n  dup4\n    /* \"contracts/ico/PaymeTokenVesting.sol\":3296:3325  address(iToken) != address(0) */\n  0xffffffffffffffffffffffffffffffffffffffff\n  and\n  eq\n  iszero\n    /* \"contracts/ico/PaymeTokenVesting.sol\":3288:3326  require(address(iToken) != address(0)) */\n  tag_14\n  jumpi\n  0x00\n  dup1\n  revert\ntag_14:\n    /* \"contracts/ico/PaymeTokenVesting.sol\":3358:3359  0 */\n  0x00\n    /* \"contracts/ico/PaymeTokenVesting.sol\":3344:3355  iTGEPercent */\n  dup3\n    /* \"contracts/ico/PaymeTokenVesting.sol\":3344:3359  iTGEPercent > 0 */\n  gt\n    /* \"contracts/ico/PaymeTokenVesting.sol\":3344:3380  iTGEPercent > 0 && iTGEPercent < 100 */\n  dup1\n  iszero\n  tag_15\n  jumpi\n  pop\n    /* \"contracts/ico/PaymeTokenVesting.sol\":3377:3380  100 */\n  0x64\n    /* \"contracts/ico/PaymeTokenVesting.sol\":3363:3374  iTGEPercent */\n  dup3\n    /* \"contracts/ico/PaymeTokenVesting.sol\":3363:3380  iTGEPercent < 100 */\n  lt\n    /* \"contracts/ico/PaymeTokenVesting.sol\":3344:3380  iTGEPercent > 0 && iTGEPercent < 100 */\ntag_15:\n    /* \"contracts/ico/PaymeTokenVesting.sol\":3336:3437  require(iTGEPercent > 0 && iTGEPercent < 100, \"TGE Percent must be greater than 0 and Less than 100\") */\n  tag_16\n  jumpi\n  mload(0x40)\n  0x08c379a000000000000000000000000000000000000000000000000000000000\n  dup2\n  mstore\n  0x04\n  add\n  tag_17\n  swap1\n  tag_18\n  jump\t// in\ntag_17:\n  mload(0x40)\n  dup1\n  swap2\n  sub\n  swap1\n  revert\ntag_16:\n    /* \"contracts/ico/PaymeTokenVesting.sol\":3588:3594  iToken */\n  dup3\n    /* \"contracts/ico/PaymeTokenVesting.sol\":3579:3585  _token */\n  0x02\n  0x00\n    /* \"contracts/ico/PaymeTokenVesting.sol\":3579:3594  _token = iToken */\n  0x0100\n  exp\n  dup2\n  sload\n  dup2\n  0xffffffffffffffffffffffffffffffffffffffff\n  mul\n  not\n  and\n  swap1\n  dup4\n  0xffffffffffffffffffffffffffffffffffffffff\n  and\n  mul\n  or\n  swap1\n  sstore\n  pop\n    /* \"contracts/ico/PaymeTokenVesting.sol\":3622:3637  iTGEOpeningTime */\n  dup1\n    /* \"contracts/ico/PaymeTokenVesting.sol\":3605:3619  tgeOpeningTime */\n  0x04\n    /* \"contracts/ico/PaymeTokenVesting.sol\":3605:3637  tgeOpeningTime = iTGEOpeningTime */\n  dup2\n  swap1\n  sstore\n  pop\n    /* \"contracts/ico/PaymeTokenVesting.sol\":3660:3671  iTGEPercent */\n  dup2\n    /* \"contracts/ico/PaymeTokenVesting.sol\":3647:3657  tgePercent */\n  0x03\n    /* \"contracts/ico/PaymeTokenVesting.sol\":3647:3671  tgePercent = iTGEPercent */\n  dup2\n  swap1\n  sstore\n  pop\n    /* \"contracts/ico/PaymeTokenVesting.sol\":3207:3678  constructor(IERC20 iToken,uint256 iTGEPercent,uint256 iTGEOpeningTime) {... */\n  pop\n  pop\n  pop\n    /* \"contracts/ico/PaymeTokenVesting.sol\":624:16235  contract PaymeTokenVesting is Ownable, ReentrancyGuard{... */\n  jump(tag_19)\n    /* \"@openzeppelin/contracts/utils/Context.sol\":640:736  function _msgSender() internal view virtual returns (address) {... */\ntag_10:\n    /* \"@openzeppelin/contracts/utils/Context.sol\":693:700  address */\n  0x00\n    /* \"@openzeppelin/contracts/utils/Context.sol\":719:729  msg.sender */\n  caller\n    /* \"@openzeppelin/contracts/utils/Context.sol\":712:729  return msg.sender */\n  swap1\n  pop\n    /* \"@openzeppelin/contracts/utils/Context.sol\":640:736  function _msgSender() internal view virtual returns (address) {... */\n  swap1\n  jump\t// out\n    /* \"@openzeppelin/contracts/access/Ownable.sol\":2433:2620  function _transferOwnership(address newOwner) internal virtual {... */\ntag_11:\n    /* \"@openzeppelin/contracts/access/Ownable.sol\":2506:2522  address oldOwner */\n  0x00\n    /* \"@openzeppelin/contracts/access/Ownable.sol\":2525:2531  _owner */\n  dup1\n  0x00\n  swap1\n  sload\n  swap1\n  0x0100\n  exp\n  swap1\n  div\n  0xffffffffffffffffffffffffffffffffffffffff\n  and\n    /* \"@openzeppelin/contracts/access/Ownable.sol\":2506:2531  address oldOwner = _owner */\n  swap1\n  pop\n    /* \"@openzeppelin/contracts/access/Ownable.sol\":2550:2558  newOwner */\n  dup2\n    /* \"@openzeppelin/contracts/access/Ownable.sol\":2541:2547  _owner */\n  0x00\n  dup1\n    /* \"@openzeppelin/contracts/access/Ownable.sol\":2541:2558  _owner = newOwner */\n  0x0100\n  exp\n  dup2\n  sload\n  dup2\n  0xffffffffffffffffffffffffffffffffffffffff\n  mul\n  not\n  and\n  swap1\n  dup4\n  0xffffffffffffffffffffffffffffffffffffffff\n  and\n  mul\n  or\n  swap1\n  sstore\n  pop\n    /* \"@openzeppelin/contracts/access/Ownable.sol\":2604:2612  newOwner */\n  dup2\n    /* \"@openzeppelin/contracts/access/Ownable.sol\":2573:2613  OwnershipTransferred(oldOwner, newOwner) */\n  0xffffffffffffffffffffffffffffffffffffffff\n  and\n    /* \"@openzeppelin/contracts/access/Ownable.sol\":2594:2602  oldOwner */\n  dup2\n    /* \"@openzeppelin/contracts/access/Ownable.sol\":2573:2613  OwnershipTransferred(oldOwner, newOwner) */\n  0xffffffffffffffffffffffffffffffffffffffff\n  and\n  0x8be0079c531659141344cd1fd0a4f28419497f9722a3daafe3b4186f6b6457e0\n  mload(0x40)\n  mload(0x40)\n  dup1\n  swap2\n  sub\n  swap1\n  log3\n    /* \"@openzeppelin/contracts/access/Ownable.sol\":2496:2620  {... */\n  pop\n    /* \"@openzeppelin/contracts/access/Ownable.sol\":2433:2620  function _transferOwnership(address newOwner) internal virtual {... */\n  pop\n  jump\t// out\n    /* \"#utility.yul\":88:205   */\ntag_23:\n    /* \"#utility.yul\":197:198   */\n  0x00\n    /* \"#utility.yul\":194:195   */\n  dup1\n    /* \"#utility.yul\":187:199   */\n  revert\n    /* \"#utility.yul\":334:460   */\ntag_25:\n    /* \"#utility.yul\":371:378   */\n  0x00\n    /* \"#utility.yul\":411:453   */\n  0xffffffffffffffffffffffffffffffffffffffff\n    /* \"#utility.yul\":404:409   */\n  dup3\n    /* \"#utility.yul\":400:454   */\n  and\n    /* \"#utility.yul\":389:454   */\n  swap1\n  pop\n    /* \"#utility.yul\":334:460   */\n  swap2\n  swap1\n  pop\n  jump\t// out\n    /* \"#utility.yul\":466:562   */\ntag_26:\n    /* \"#utility.yul\":503:510   */\n  0x00\n    /* \"#utility.yul\":532:556   */\n  tag_42\n    /* \"#utility.yul\":550:555   */\n  dup3\n    /* \"#utility.yul\":532:556   */\n  tag_25\n  jump\t// in\ntag_42:\n    /* \"#utility.yul\":521:556   */\n  swap1\n  pop\n    /* \"#utility.yul\":466:562   */\n  swap2\n  swap1\n  pop\n  jump\t// out\n    /* \"#utility.yul\":568:678   */\ntag_27:\n    /* \"#utility.yul\":619:626   */\n  0x00\n    /* \"#utility.yul\":648:672   */\n  tag_44\n    /* \"#utility.yul\":666:671   */\n  dup3\n    /* \"#utility.yul\":648:672   */\n  tag_26\n  jump\t// in\ntag_44:\n    /* \"#utility.yul\":637:672   */\n  swap1\n  pop\n    /* \"#utility.yul\":568:678   */\n  swap2\n  swap1\n  pop\n  jump\t// out\n    /* \"#utility.yul\":684:834   */\ntag_28:\n    /* \"#utility.yul\":771:809   */\n  tag_46\n    /* \"#utility.yul\":803:808   */\n  dup2\n    /* \"#utility.yul\":771:809   */\n  tag_27\n  jump\t// in\ntag_46:\n    /* \"#utility.yul\":764:769   */\n  dup2\n    /* \"#utility.yul\":761:810   */\n  eq\n    /* \"#utility.yul\":751:828   */\n  tag_47\n  jumpi\n    /* \"#utility.yul\":824:825   */\n  0x00\n    /* \"#utility.yul\":821:822   */\n  dup1\n    /* \"#utility.yul\":814:826   */\n  revert\n    /* \"#utility.yul\":751:828   */\ntag_47:\n    /* \"#utility.yul\":684:834   */\n  pop\n  jump\t// out\n    /* \"#utility.yul\":840:1011   */\ntag_29:\n    /* \"#utility.yul\":911:916   */\n  0x00\n    /* \"#utility.yul\":942:948   */\n  dup2\n    /* \"#utility.yul\":936:949   */\n  mload\n    /* \"#utility.yul\":927:949   */\n  swap1\n  pop\n    /* \"#utility.yul\":958:1005   */\n  tag_49\n    /* \"#utility.yul\":999:1004   */\n  dup2\n    /* \"#utility.yul\":958:1005   */\n  tag_28\n  jump\t// in\ntag_49:\n    /* \"#utility.yul\":840:1011   */\n  swap3\n  swap2\n  pop\n  pop\n  jump\t// out\n    /* \"#utility.yul\":1017:1094   */\ntag_30:\n    /* \"#utility.yul\":1054:1061   */\n  0x00\n    /* \"#utility.yul\":1083:1088   */\n  dup2\n    /* \"#utility.yul\":1072:1088   */\n  swap1\n  pop\n    /* \"#utility.yul\":1017:1094   */\n  swap2\n  swap1\n  pop\n  jump\t// out\n    /* \"#utility.yul\":1100:1222   */\ntag_31:\n    /* \"#utility.yul\":1173:1197   */\n  tag_52\n    /* \"#utility.yul\":1191:1196   */\n  dup2\n    /* \"#utility.yul\":1173:1197   */\n  tag_30\n  jump\t// in\ntag_52:\n    /* \"#utility.yul\":1166:1171   */\n  dup2\n    /* \"#utility.yul\":1163:1198   */\n  eq\n    /* \"#utility.yul\":1153:1216   */\n  tag_53\n  jumpi\n    /* \"#utility.yul\":1212:1213   */\n  0x00\n    /* \"#utility.yul\":1209:1210   */\n  dup1\n    /* \"#utility.yul\":1202:1214   */\n  revert\n    /* \"#utility.yul\":1153:1216   */\ntag_53:\n    /* \"#utility.yul\":1100:1222   */\n  pop\n  jump\t// out\n    /* \"#utility.yul\":1228:1371   */\ntag_32:\n    /* \"#utility.yul\":1285:1290   */\n  0x00\n    /* \"#utility.yul\":1316:1322   */\n  dup2\n    /* \"#utility.yul\":1310:1323   */\n  mload\n    /* \"#utility.yul\":1301:1323   */\n  swap1\n  pop\n    /* \"#utility.yul\":1332:1365   */\n  tag_55\n    /* \"#utility.yul\":1359:1364   */\n  dup2\n    /* \"#utility.yul\":1332:1365   */\n  tag_31\n  jump\t// in\ntag_55:\n    /* \"#utility.yul\":1228:1371   */\n  swap3\n  swap2\n  pop\n  pop\n  jump\t// out\n    /* \"#utility.yul\":1377:2068   */\ntag_3:\n    /* \"#utility.yul\":1479:1485   */\n  0x00\n    /* \"#utility.yul\":1487:1493   */\n  dup1\n    /* \"#utility.yul\":1495:1501   */\n  0x00\n    /* \"#utility.yul\":1544:1546   */\n  0x60\n    /* \"#utility.yul\":1532:1541   */\n  dup5\n    /* \"#utility.yul\":1523:1530   */\n  dup7\n    /* \"#utility.yul\":1519:1542   */\n  sub\n    /* \"#utility.yul\":1515:1547   */\n  slt\n    /* \"#utility.yul\":1512:1631   */\n  iszero\n  tag_57\n  jumpi\n    /* \"#utility.yul\":1550:1629   */\n  tag_58\n  tag_23\n  jump\t// in\ntag_58:\n    /* \"#utility.yul\":1512:1631   */\ntag_57:\n    /* \"#utility.yul\":1670:1671   */\n  0x00\n    /* \"#utility.yul\":1695:1773   */\n  tag_59\n    /* \"#utility.yul\":1765:1772   */\n  dup7\n    /* \"#utility.yul\":1756:1762   */\n  dup3\n    /* \"#utility.yul\":1745:1754   */\n  dup8\n    /* \"#utility.yul\":1741:1763   */\n  add\n    /* \"#utility.yul\":1695:1773   */\n  tag_29\n  jump\t// in\ntag_59:\n    /* \"#utility.yul\":1685:1773   */\n  swap4\n  pop\n    /* \"#utility.yul\":1641:1783   */\n  pop\n    /* \"#utility.yul\":1822:1824   */\n  0x20\n    /* \"#utility.yul\":1848:1912   */\n  tag_60\n    /* \"#utility.yul\":1904:1911   */\n  dup7\n    /* \"#utility.yul\":1895:1901   */\n  dup3\n    /* \"#utility.yul\":1884:1893   */\n  dup8\n    /* \"#utility.yul\":1880:1902   */\n  add\n    /* \"#utility.yul\":1848:1912   */\n  tag_32\n  jump\t// in\ntag_60:\n    /* \"#utility.yul\":1838:1912   */\n  swap3\n  pop\n    /* \"#utility.yul\":1793:1922   */\n  pop\n    /* \"#utility.yul\":1961:1963   */\n  0x40\n    /* \"#utility.yul\":1987:2051   */\n  tag_61\n    /* \"#utility.yul\":2043:2050   */\n  dup7\n    /* \"#utility.yul\":2034:2040   */\n  dup3\n    /* \"#utility.yul\":2023:2032   */\n  dup8\n    /* \"#utility.yul\":2019:2041   */\n  add\n    /* \"#utility.yul\":1987:2051   */\n  tag_32\n  jump\t// in\ntag_61:\n    /* \"#utility.yul\":1977:2051   */\n  swap2\n  pop\n    /* \"#utility.yul\":1932:2061   */\n  pop\n    /* \"#utility.yul\":1377:2068   */\n  swap3\n  pop\n  swap3\n  pop\n  swap3\n  jump\t// out\n    /* \"#utility.yul\":2074:2243   */\ntag_33:\n    /* \"#utility.yul\":2158:2169   */\n  0x00\n    /* \"#utility.yul\":2192:2198   */\n  dup3\n    /* \"#utility.yul\":2187:2190   */\n  dup3\n    /* \"#utility.yul\":2180:2199   */\n  mstore\n    /* \"#utility.yul\":2232:2236   */\n  0x20\n    /* \"#utility.yul\":2227:2230   */\n  dup3\n    /* \"#utility.yul\":2223:2237   */\n  add\n    /* \"#utility.yul\":2208:2237   */\n  swap1\n  pop\n    /* \"#utility.yul\":2074:2243   */\n  swap3\n  swap2\n  pop\n  pop\n  jump\t// out\n    /* \"#utility.yul\":2249:2488   */\ntag_34:\n    /* \"#utility.yul\":2389:2423   */\n  0x5447452050657263656e74206d7573742062652067726561746572207468616e\n    /* \"#utility.yul\":2385:2386   */\n  0x00\n    /* \"#utility.yul\":2377:2383   */\n  dup3\n    /* \"#utility.yul\":2373:2387   */\n  add\n    /* \"#utility.yul\":2366:2424   */\n  mstore\n    /* \"#utility.yul\":2458:2480   */\n  0x203020616e64204c657373207468616e20313030000000000000000000000000\n    /* \"#utility.yul\":2453:2455   */\n  0x20\n    /* \"#utility.yul\":2445:2451   */\n  dup3\n    /* \"#utility.yul\":2441:2456   */\n  add\n    /* \"#utility.yul\":2434:2481   */\n  mstore\n    /* \"#utility.yul\":2249:2488   */\n  pop\n  jump\t// out\n    /* \"#utility.yul\":2494:2860   */\ntag_35:\n    /* \"#utility.yul\":2636:2639   */\n  0x00\n    /* \"#utility.yul\":2657:2724   */\n  tag_65\n    /* \"#utility.yul\":2721:2723   */\n  0x34\n    /* \"#utility.yul\":2716:2719   */\n  dup4\n    /* \"#utility.yul\":2657:2724   */\n  tag_33\n  jump\t// in\ntag_65:\n    /* \"#utility.yul\":2650:2724   */\n  swap2\n  pop\n    /* \"#utility.yul\":2733:2826   */\n  tag_66\n    /* \"#utility.yul\":2822:2825   */\n  dup3\n    /* \"#utility.yul\":2733:2826   */\n  tag_34\n  jump\t// in\ntag_66:\n    /* \"#utility.yul\":2851:2853   */\n  0x40\n    /* \"#utility.yul\":2846:2849   */\n  dup3\n    /* \"#utility.yul\":2842:2854   */\n  add\n    /* \"#utility.yul\":2835:2854   */\n  swap1\n  pop\n    /* \"#utility.yul\":2494:2860   */\n  swap2\n  swap1\n  pop\n  jump\t// out\n    /* \"#utility.yul\":2866:3285   */\ntag_18:\n    /* \"#utility.yul\":3032:3036   */\n  0x00\n    /* \"#utility.yul\":3070:3072   */\n  0x20\n    /* \"#utility.yul\":3059:3068   */\n  dup3\n    /* \"#utility.yul\":3055:3073   */\n  add\n    /* \"#utility.yul\":3047:3073   */\n  swap1\n  pop\n    /* \"#utility.yul\":3119:3128   */\n  dup2\n    /* \"#utility.yul\":3113:3117   */\n  dup2\n    /* \"#utility.yul\":3109:3129   */\n  sub\n    /* \"#utility.yul\":3105:3106   */\n  0x00\n    /* \"#utility.yul\":3094:3103   */\n  dup4\n    /* \"#utility.yul\":3090:3107   */\n  add\n    /* \"#utility.yul\":3083:3130   */\n  mstore\n    /* \"#utility.yul\":3147:3278   */\n  tag_68\n    /* \"#utility.yul\":3273:3277   */\n  dup2\n    /* \"#utility.yul\":3147:3278   */\n  tag_35\n  jump\t// in\ntag_68:\n    /* \"#utility.yul\":3139:3278   */\n  swap1\n  pop\n    /* \"#utility.yul\":2866:3285   */\n  swap2\n  swap1\n  pop\n  jump\t// out\n    /* \"contracts/ico/PaymeTokenVesting.sol\":624:16235  contract PaymeTokenVesting is Ownable, ReentrancyGuard{... */\ntag_19:\n  dataSize(sub_0)\n  dup1\n  dataOffset(sub_0)\n  0x00\n  codecopy\n  0x00\n  return\nstop\n\nsub_0: assembly {\n        /* \"contracts/ico/PaymeTokenVesting.sol\":624:16235  contract PaymeTokenVesting is Ownable, ReentrancyGuard{... */\n      mstore(0x40, 0x80)\n      callvalue\n      dup1\n      iszero\n      tag_1\n      jumpi\n      0x00\n      dup1\n      revert\n    tag_1:\n      pop\n      jumpi(tag_2, lt(calldatasize, 0x04))\n      shr(0xe0, calldataload(0x00))\n      dup1\n      0x8c81a7d7\n      gt\n      tag_32\n      jumpi\n      dup1\n      0xc8ac75d2\n      gt\n      tag_33\n      jumpi\n      dup1\n      0xf2fde38b\n      gt\n      tag_34\n      jumpi\n      dup1\n      0xf2fde38b\n      eq\n      tag_28\n      jumpi\n      dup1\n      0xf51321d7\n      eq\n      tag_29\n      jumpi\n      dup1\n      0xf7c469f0\n      eq\n      tag_30\n      jumpi\n      dup1\n      0xf9079b37\n      eq\n      tag_31\n      jumpi\n      jump(tag_2)\n    tag_34:\n      dup1\n      0xc8ac75d2\n      eq\n      tag_24\n      jumpi\n      dup1\n      0xc990c2f7\n      eq\n      tag_25\n      jumpi\n      dup1\n      0xe2f0f42d\n      eq\n      tag_26\n      jumpi\n      dup1\n      0xea1bb3d5\n      eq\n      tag_27\n      jumpi\n      jump(tag_2)\n    tag_33:\n      dup1\n      0x94a3fada\n      gt\n      tag_35\n      jumpi\n      dup1\n      0x94a3fada\n      eq\n      tag_20\n      jumpi\n      dup1\n      0x9ef346b4\n      eq\n      tag_21\n      jumpi\n      dup1\n      0xb75c7dc6\n      eq\n      tag_22\n      jumpi\n      dup1\n      0xc07aa656\n      eq\n      tag_23\n      jumpi\n      jump(tag_2)\n    tag_35:\n      dup1\n      0x8c81a7d7\n      eq\n      tag_17\n      jumpi\n      dup1\n      0x8da5cb5b\n      eq\n      tag_18\n      jumpi\n      dup1\n      0x90be10cc\n      eq\n      tag_19\n      jumpi\n      jump(tag_2)\n    tag_32:\n      dup1\n      0x48deb471\n      gt\n      tag_36\n      jumpi\n      dup1\n      0x715018a6\n      gt\n      tag_37\n      jumpi\n      dup1\n      0x715018a6\n      eq\n      tag_13\n      jumpi\n      dup1\n      0x7df8df92\n      eq\n      tag_14\n      jumpi\n      dup1\n      0x7e913dc6\n      eq\n      tag_15\n      jumpi\n      dup1\n      0x8af104da\n      eq\n      tag_16\n      jumpi\n      jump(tag_2)\n    tag_37:\n      dup1\n      0x48deb471\n      eq\n      tag_10\n      jumpi\n      dup1\n      0x5a7bb69a\n      eq\n      tag_11\n      jumpi\n      dup1\n      0x66afd8ef\n      eq\n      tag_12\n      jumpi\n      jump(tag_2)\n    tag_36:\n      dup1\n      0x260a51e5\n      gt\n      tag_38\n      jumpi\n      dup1\n      0x260a51e5\n      eq\n      tag_6\n      jumpi\n      dup1\n      0x29cb924d\n      eq\n      tag_7\n      jumpi\n      dup1\n      0x2e1a7d4d\n      eq\n      tag_8\n      jumpi\n      dup1\n      0x40a9627f\n      eq\n      tag_9\n      jumpi\n      jump(tag_2)\n    tag_38:\n      dup1\n      0x13083617\n      eq\n      tag_3\n      jumpi\n      dup1\n      0x1f35bc40\n      eq\n      tag_4\n      jumpi\n      dup1\n      0x21df0da7\n      eq\n      tag_5\n      jumpi\n    tag_2:\n      0x00\n      dup1\n      revert\n        /* \"contracts/ico/PaymeTokenVesting.sol\":12310:12448  function getVestingSchedulesCount()... */\n    tag_3:\n      tag_39\n      tag_40\n      jump\t// in\n    tag_39:\n      mload(0x40)\n      tag_41\n      swap2\n      swap1\n      tag_42\n      jump\t// in\n    tag_41:\n      mload(0x40)\n      dup1\n      swap2\n      sub\n      swap1\n      return\n        /* \"contracts/ico/PaymeTokenVesting.sol\":5588:5815  function setCrowdsaleAddress(address icrowdsalesAddress) external{... */\n    tag_4:\n      tag_43\n      0x04\n      dup1\n      calldatasize\n      sub\n      dup2\n      add\n      swap1\n      tag_44\n      swap2\n      swap1\n      tag_45\n      jump\t// in\n    tag_44:\n      tag_46\n      jump\t// in\n    tag_43:\n      stop\n        /* \"contracts/ico/PaymeTokenVesting.sol\":5924:6025  function getToken()... */\n    tag_5:\n      tag_47\n      tag_48\n      jump\t// in\n    tag_47:\n      mload(0x40)\n      tag_49\n      swap2\n      swap1\n      tag_50\n      jump\t// in\n    tag_49:\n      mload(0x40)\n      dup1\n      swap2\n      sub\n      swap1\n      return\n        /* \"contracts/ico/PaymeTokenVesting.sol\":2006:2038  address public crowdsalesAddress */\n    tag_6:\n      tag_51\n      tag_52\n      jump\t// in\n    tag_51:\n      mload(0x40)\n      tag_53\n      swap2\n      swap1\n      tag_50\n      jump\t// in\n    tag_53:\n      mload(0x40)\n      dup1\n      swap2\n      sub\n      swap1\n      return\n        /* \"contracts/ico/PaymeTokenVesting.sol\":16099:16232  function getCurrentTime()... */\n    tag_7:\n      tag_54\n      tag_55\n      jump\t// in\n    tag_54:\n      mload(0x40)\n      tag_56\n      swap2\n      swap1\n      tag_42\n      jump\t// in\n    tag_56:\n      mload(0x40)\n      dup1\n      swap2\n      sub\n      swap1\n      return\n        /* \"contracts/ico/PaymeTokenVesting.sol\":9390:9634  function withdraw(uint256 amount)... */\n    tag_8:\n      tag_57\n      0x04\n      dup1\n      calldatasize\n      sub\n      dup2\n      add\n      swap1\n      tag_58\n      swap2\n      swap1\n      tag_59\n      jump\t// in\n    tag_58:\n      tag_60\n      jump\t// in\n    tag_57:\n      stop\n        /* \"contracts/ico/PaymeTokenVesting.sol\":1653:1682  uint256 public tgeOpeningTime */\n    tag_9:\n      tag_61\n      tag_62\n      jump\t// in\n    tag_61:\n      mload(0x40)\n      tag_63\n      swap2\n      swap1\n      tag_42\n      jump\t// in\n    tag_63:\n      mload(0x40)\n      dup1\n      swap2\n      sub\n      swap1\n      return\n        /* \"contracts/ico/PaymeTokenVesting.sol\":5060:5195  function getVestingSchedulesTotalAmount()... */\n    tag_10:\n      tag_64\n      tag_65\n      jump\t// in\n    tag_64:\n      mload(0x40)\n      tag_66\n      swap2\n      swap1\n      tag_42\n      jump\t// in\n    tag_66:\n      mload(0x40)\n      dup1\n      swap2\n      sub\n      swap1\n      return\n        /* \"contracts/ico/PaymeTokenVesting.sol\":4022:4190  function getVestingSchedulesCountByBeneficiary(address iBeneficiary)... */\n    tag_11:\n      tag_67\n      0x04\n      dup1\n      calldatasize\n      sub\n      dup2\n      add\n      swap1\n      tag_68\n      swap2\n      swap1\n      tag_45\n      jump\t// in\n    tag_68:\n      tag_69\n      jump\t// in\n    tag_67:\n      mload(0x40)\n      tag_70\n      swap2\n      swap1\n      tag_42\n      jump\t// in\n    tag_70:\n      mload(0x40)\n      dup1\n      swap2\n      sub\n      swap1\n      return\n        /* \"contracts/ico/PaymeTokenVesting.sol\":11086:12166  function release(... */\n    tag_12:\n      tag_71\n      0x04\n      dup1\n      calldatasize\n      sub\n      dup2\n      add\n      swap1\n      tag_72\n      swap2\n      swap1\n      tag_73\n      jump\t// in\n    tag_72:\n      tag_74\n      jump\t// in\n    tag_71:\n      stop\n        /* \"@openzeppelin/contracts/access/Ownable.sol\":1831:1932  function renounceOwnership() public virtual onlyOwner {... */\n    tag_13:\n      tag_75\n      tag_76\n      jump\t// in\n    tag_75:\n      stop\n        /* \"contracts/ico/PaymeTokenVesting.sol\":6665:8427  function createVestingSchedule(... */\n    tag_14:\n      tag_77\n      0x04\n      dup1\n      calldatasize\n      sub\n      dup2\n      add\n      swap1\n      tag_78\n      swap2\n      swap1\n      tag_79\n      jump\t// in\n    tag_78:\n      tag_80\n      jump\t// in\n    tag_77:\n      stop\n        /* \"contracts/ico/PaymeTokenVesting.sol\":13979:14228  function getLastVestingScheduleForHolder(address holder)... */\n    tag_15:\n      tag_81\n      0x04\n      dup1\n      calldatasize\n      sub\n      dup2\n      add\n      swap1\n      tag_82\n      swap2\n      swap1\n      tag_45\n      jump\t// in\n    tag_82:\n      tag_83\n      jump\t// in\n    tag_81:\n      mload(0x40)\n      tag_84\n      swap2\n      swap1\n      tag_85\n      jump\t// in\n    tag_84:\n      mload(0x40)\n      dup1\n      swap2\n      sub\n      swap1\n      return\n        /* \"contracts/ico/PaymeTokenVesting.sol\":14330:14531  function computeVestingScheduleIdForAddressAndIndex(address holder, uint256 index)... */\n    tag_16:\n      tag_86\n      0x04\n      dup1\n      calldatasize\n      sub\n      dup2\n      add\n      swap1\n      tag_87\n      swap2\n      swap1\n      tag_88\n      jump\t// in\n    tag_87:\n      tag_89\n      jump\t// in\n    tag_86:\n      mload(0x40)\n      tag_90\n      swap2\n      swap1\n      tag_91\n      jump\t// in\n    tag_90:\n      mload(0x40)\n      dup1\n      swap2\n      sub\n      swap1\n      return\n        /* \"contracts/ico/PaymeTokenVesting.sol\":9640:10911  function releaseForTGE(bytes32 vestingScheduleId)... */\n    tag_17:\n      tag_92\n      0x04\n      dup1\n      calldatasize\n      sub\n      dup2\n      add\n      swap1\n      tag_93\n      swap2\n      swap1\n      tag_94\n      jump\t// in\n    tag_93:\n      tag_95\n      jump\t// in\n    tag_92:\n      stop\n        /* \"@openzeppelin/contracts/access/Ownable.sol\":1201:1286  function owner() public view virtual returns (address) {... */\n    tag_18:\n      tag_96\n      tag_97\n      jump\t// in\n    tag_96:\n      mload(0x40)\n      tag_98\n      swap2\n      swap1\n      tag_50\n      jump\t// in\n    tag_98:\n      mload(0x40)\n      dup1\n      swap2\n      sub\n      swap1\n      return\n        /* \"contracts/ico/PaymeTokenVesting.sol\":13388:13561  function getWithdrawableAmount()... */\n    tag_19:\n      tag_99\n      tag_100\n      jump\t// in\n    tag_99:\n      mload(0x40)\n      tag_101\n      swap2\n      swap1\n      tag_42\n      jump\t// in\n    tag_101:\n      mload(0x40)\n      dup1\n      swap2\n      sub\n      swap1\n      return\n        /* \"contracts/ico/PaymeTokenVesting.sol\":3763:3875  function getTGEOpeningTime()... */\n    tag_20:\n      tag_102\n      tag_103\n      jump\t// in\n    tag_102:\n      mload(0x40)\n      tag_104\n      swap2\n      swap1\n      tag_42\n      jump\t// in\n    tag_104:\n      mload(0x40)\n      dup1\n      swap2\n      sub\n      swap1\n      return\n        /* \"contracts/ico/PaymeTokenVesting.sol\":13075:13256  function getVestingSchedule(bytes32 vestingScheduleId)... */\n    tag_21:\n      tag_105\n      0x04\n      dup1\n      calldatasize\n      sub\n      dup2\n      add\n      swap1\n      tag_106\n      swap2\n      swap1\n      tag_94\n      jump\t// in\n    tag_106:\n      tag_107\n      jump\t// in\n    tag_105:\n      mload(0x40)\n      tag_108\n      swap2\n      swap1\n      tag_85\n      jump\t// in\n    tag_108:\n      mload(0x40)\n      dup1\n      swap2\n      sub\n      swap1\n      return\n        /* \"contracts/ico/PaymeTokenVesting.sol\":8576:9269  function revoke(bytes32 vestingScheduleId)... */\n    tag_22:\n      tag_109\n      0x04\n      dup1\n      calldatasize\n      sub\n      dup2\n      add\n      swap1\n      tag_110\n      swap2\n      swap1\n      tag_94\n      jump\t// in\n    tag_110:\n      tag_111\n      jump\t// in\n    tag_109:\n      stop\n        /* \"contracts/ico/PaymeTokenVesting.sol\":5428:5582  function getTotalInvestmentAmountBalance()... */\n    tag_23:\n      tag_112\n      tag_113\n      jump\t// in\n    tag_112:\n      mload(0x40)\n      tag_114\n      swap2\n      swap1\n      tag_42\n      jump\t// in\n    tag_114:\n      mload(0x40)\n      dup1\n      swap2\n      sub\n      swap1\n      return\n        /* \"contracts/ico/PaymeTokenVesting.sol\":1944:1999  mapping(bytes32 => uint256) public tgeTokenParticipants */\n    tag_24:\n      tag_115\n      0x04\n      dup1\n      calldatasize\n      sub\n      dup2\n      add\n      swap1\n      tag_116\n      swap2\n      swap1\n      tag_94\n      jump\t// in\n    tag_116:\n      tag_117\n      jump\t// in\n    tag_115:\n      mload(0x40)\n      tag_118\n      swap2\n      swap1\n      tag_42\n      jump\t// in\n    tag_118:\n      mload(0x40)\n      dup1\n      swap2\n      sub\n      swap1\n      return\n        /* \"contracts/ico/PaymeTokenVesting.sol\":5312:5422  function getTgeTotalAmount()... */\n    tag_25:\n      tag_119\n      tag_120\n      jump\t// in\n    tag_119:\n      mload(0x40)\n      tag_121\n      swap2\n      swap1\n      tag_42\n      jump\t// in\n    tag_121:\n      mload(0x40)\n      dup1\n      swap2\n      sub\n      swap1\n      return\n        /* \"contracts/ico/PaymeTokenVesting.sol\":1622:1647  uint256 public tgePercent */\n    tag_26:\n      tag_122\n      tag_123\n      jump\t// in\n    tag_122:\n      mload(0x40)\n      tag_124\n      swap2\n      swap1\n      tag_42\n      jump\t// in\n    tag_124:\n      mload(0x40)\n      dup1\n      swap2\n      sub\n      swap1\n      return\n        /* \"contracts/ico/PaymeTokenVesting.sol\":12595:12918  function computeReleasableAmount(bytes32 vestingScheduleId)... */\n    tag_27:\n      tag_125\n      0x04\n      dup1\n      calldatasize\n      sub\n      dup2\n      add\n      swap1\n      tag_126\n      swap2\n      swap1\n      tag_94\n      jump\t// in\n    tag_126:\n      tag_127\n      jump\t// in\n    tag_125:\n      mload(0x40)\n      tag_128\n      swap2\n      swap1\n      tag_42\n      jump\t// in\n    tag_128:\n      mload(0x40)\n      dup1\n      swap2\n      sub\n      swap1\n      return\n        /* \"@openzeppelin/contracts/access/Ownable.sol\":2081:2279  function transferOwnership(address newOwner) public virtual onlyOwner {... */\n    tag_28:\n      tag_129\n      0x04\n      dup1\n      calldatasize\n      sub\n      dup2\n      add\n      swap1\n      tag_130\n      swap2\n      swap1\n      tag_45\n      jump\t// in\n    tag_130:\n      tag_131\n      jump\t// in\n    tag_129:\n      stop\n        /* \"contracts/ico/PaymeTokenVesting.sol\":4692:4926  function getVestingScheduleByAddressAndIndex(address holder, uint256 index)... */\n    tag_29:\n      tag_132\n      0x04\n      dup1\n      calldatasize\n      sub\n      dup2\n      add\n      swap1\n      tag_133\n      swap2\n      swap1\n      tag_88\n      jump\t// in\n    tag_133:\n      tag_134\n      jump\t// in\n    tag_132:\n      mload(0x40)\n      tag_135\n      swap2\n      swap1\n      tag_85\n      jump\t// in\n    tag_135:\n      mload(0x40)\n      dup1\n      swap2\n      sub\n      swap1\n      return\n        /* \"contracts/ico/PaymeTokenVesting.sol\":13667:13885  function computeNextVestingScheduleIdForHolder(address holder)... */\n    tag_30:\n      tag_136\n      0x04\n      dup1\n      calldatasize\n      sub\n      dup2\n      add\n      swap1\n      tag_137\n      swap2\n      swap1\n      tag_45\n      jump\t// in\n    tag_137:\n      tag_138\n      jump\t// in\n    tag_136:\n      mload(0x40)\n      tag_139\n      swap2\n      swap1\n      tag_91\n      jump\t// in\n    tag_139:\n      mload(0x40)\n      dup1\n      swap2\n      sub\n      swap1\n      return\n        /* \"contracts/ico/PaymeTokenVesting.sol\":4303:4529  function getVestingIdAtIndex(uint256 index)... */\n    tag_31:\n      tag_140\n      0x04\n      dup1\n      calldatasize\n      sub\n      dup2\n      add\n      swap1\n      tag_141\n      swap2\n      swap1\n      tag_59\n      jump\t// in\n    tag_141:\n      tag_142\n      jump\t// in\n    tag_140:\n      mload(0x40)\n      tag_143\n      swap2\n      swap1\n      tag_91\n      jump\t// in\n    tag_143:\n      mload(0x40)\n      dup1\n      swap2\n      sub\n      swap1\n      return\n        /* \"contracts/ico/PaymeTokenVesting.sol\":12310:12448  function getVestingSchedulesCount()... */\n    tag_40:\n        /* \"contracts/ico/PaymeTokenVesting.sol\":12390:12397  uint256 */\n      0x00\n        /* \"contracts/ico/PaymeTokenVesting.sol\":12415:12434  vestingSchedulesIds */\n      0x05\n        /* \"contracts/ico/PaymeTokenVesting.sol\":12415:12441  vestingSchedulesIds.length */\n      dup1\n      sload\n      swap1\n      pop\n        /* \"contracts/ico/PaymeTokenVesting.sol\":12408:12441  return vestingSchedulesIds.length */\n      swap1\n      pop\n        /* \"contracts/ico/PaymeTokenVesting.sol\":12310:12448  function getVestingSchedulesCount()... */\n      swap1\n      jump\t// out\n        /* \"contracts/ico/PaymeTokenVesting.sol\":5588:5815  function setCrowdsaleAddress(address icrowdsalesAddress) external{... */\n    tag_46:\n        /* \"contracts/ico/PaymeTokenVesting.sol\":5701:5704  0x0 */\n      0x00\n        /* \"contracts/ico/PaymeTokenVesting.sol\":5671:5705  icrowdsalesAddress != address(0x0) */\n      0xffffffffffffffffffffffffffffffffffffffff\n      and\n        /* \"contracts/ico/PaymeTokenVesting.sol\":5671:5689  icrowdsalesAddress */\n      dup2\n        /* \"contracts/ico/PaymeTokenVesting.sol\":5671:5705  icrowdsalesAddress != address(0x0) */\n      0xffffffffffffffffffffffffffffffffffffffff\n      and\n      eq\n      iszero\n        /* \"contracts/ico/PaymeTokenVesting.sol\":5663:5759  require(icrowdsalesAddress != address(0x0),\"CrowdsaleAddress: Crowdsale Address cannot be null\") */\n      tag_146\n      jumpi\n      mload(0x40)\n      0x08c379a000000000000000000000000000000000000000000000000000000000\n      dup2\n      mstore\n      0x04\n      add\n      tag_147\n      swap1\n      tag_148\n      jump\t// in\n    tag_147:\n      mload(0x40)\n      dup1\n      swap2\n      sub\n      swap1\n      revert\n    tag_146:\n        /* \"contracts/ico/PaymeTokenVesting.sol\":5790:5808  icrowdsalesAddress */\n      dup1\n        /* \"contracts/ico/PaymeTokenVesting.sol\":5770:5787  crowdsalesAddress */\n      0x0b\n      0x00\n        /* \"contracts/ico/PaymeTokenVesting.sol\":5770:5808  crowdsalesAddress = icrowdsalesAddress */\n      0x0100\n      exp\n      dup2\n      sload\n      dup2\n      0xffffffffffffffffffffffffffffffffffffffff\n      mul\n      not\n      and\n      swap1\n      dup4\n      0xffffffffffffffffffffffffffffffffffffffff\n      and\n      mul\n      or\n      swap1\n      sstore\n      pop\n        /* \"contracts/ico/PaymeTokenVesting.sol\":5588:5815  function setCrowdsaleAddress(address icrowdsalesAddress) external{... */\n      pop\n      jump\t// out\n        /* \"contracts/ico/PaymeTokenVesting.sol\":5924:6025  function getToken()... */\n    tag_48:\n        /* \"contracts/ico/PaymeTokenVesting.sol\":5978:5985  address */\n      0x00\n        /* \"contracts/ico/PaymeTokenVesting.sol\":6011:6017  _token */\n      0x02\n      0x00\n      swap1\n      sload\n      swap1\n      0x0100\n      exp\n      swap1\n      div\n      0xffffffffffffffffffffffffffffffffffffffff\n      and\n        /* \"contracts/ico/PaymeTokenVesting.sol\":5996:6018  return address(_token) */\n      swap1\n      pop\n        /* \"contracts/ico/PaymeTokenVesting.sol\":5924:6025  function getToken()... */\n      swap1\n      jump\t// out\n        /* \"contracts/ico/PaymeTokenVesting.sol\":2006:2038  address public crowdsalesAddress */\n    tag_52:\n      0x0b\n      0x00\n      swap1\n      sload\n      swap1\n      0x0100\n      exp\n      swap1\n      div\n      0xffffffffffffffffffffffffffffffffffffffff\n      and\n      dup2\n      jump\t// out\n        /* \"contracts/ico/PaymeTokenVesting.sol\":16099:16232  function getCurrentTime()... */\n    tag_55:\n        /* \"contracts/ico/PaymeTokenVesting.sol\":16185:16192  uint256 */\n      0x00\n        /* \"contracts/ico/PaymeTokenVesting.sol\":16210:16225  block.timestamp */\n      timestamp\n        /* \"contracts/ico/PaymeTokenVesting.sol\":16203:16225  return block.timestamp */\n      swap1\n      pop\n        /* \"contracts/ico/PaymeTokenVesting.sol\":16099:16232  function getCurrentTime()... */\n      swap1\n      jump\t// out\n        /* \"contracts/ico/PaymeTokenVesting.sol\":9390:9634  function withdraw(uint256 amount)... */\n    tag_60:\n        /* \"@openzeppelin/contracts/security/ReentrancyGuard.sol\":1744:1745  2 */\n      0x02\n        /* \"@openzeppelin/contracts/security/ReentrancyGuard.sol\":2325:2332  _status */\n      sload(0x01)\n        /* \"@openzeppelin/contracts/security/ReentrancyGuard.sol\":2325:2344  _status != _ENTERED */\n      eq\n      iszero\n        /* \"@openzeppelin/contracts/security/ReentrancyGuard.sol\":2317:2380  require(_status != _ENTERED, \"ReentrancyGuard: reentrant call\") */\n      tag_152\n      jumpi\n      mload(0x40)\n      0x08c379a000000000000000000000000000000000000000000000000000000000\n      dup2\n      mstore\n      0x04\n      add\n      tag_153\n      swap1\n      tag_154\n      jump\t// in\n    tag_153:\n      mload(0x40)\n      dup1\n      swap2\n      sub\n      swap1\n      revert\n    tag_152:\n        /* \"@openzeppelin/contracts/security/ReentrancyGuard.sol\":1744:1745  2 */\n      0x02\n        /* \"@openzeppelin/contracts/security/ReentrancyGuard.sol\":2455:2462  _status */\n      0x01\n        /* \"@openzeppelin/contracts/security/ReentrancyGuard.sol\":2455:2473  _status = _ENTERED */\n      dup2\n      swap1\n      sstore\n      pop\n        /* \"@openzeppelin/contracts/access/Ownable.sol\":1094:1107  _checkOwner() */\n      tag_156\n        /* \"@openzeppelin/contracts/access/Ownable.sol\":1094:1105  _checkOwner */\n      tag_157\n        /* \"@openzeppelin/contracts/access/Ownable.sol\":1094:1107  _checkOwner() */\n      jump\t// in\n    tag_156:\n        /* \"contracts/ico/PaymeTokenVesting.sol\":9527:9533  amount */\n      dup1\n        /* \"contracts/ico/PaymeTokenVesting.sol\":9495:9499  this */\n      address\n        /* \"contracts/ico/PaymeTokenVesting.sol\":9495:9521  this.getWithdrawableAmount */\n      0xffffffffffffffffffffffffffffffffffffffff\n      and\n      0x90be10cc\n        /* \"contracts/ico/PaymeTokenVesting.sol\":9495:9523  this.getWithdrawableAmount() */\n      mload(0x40)\n      dup2\n      0xffffffff\n      and\n      0xe0\n      shl\n      dup2\n      mstore\n      0x04\n      add\n      0x20\n      mload(0x40)\n      dup1\n      dup4\n      sub\n      dup2\n      dup7\n      dup1\n      extcodesize\n      iszero\n      dup1\n      iszero\n      tag_159\n      jumpi\n      0x00\n      dup1\n      revert\n    tag_159:\n      pop\n      gas\n      staticcall\n      iszero\n      dup1\n      iszero\n      tag_161\n      jumpi\n      returndatasize\n      0x00\n      dup1\n      returndatacopy\n      revert(0x00, returndatasize)\n    tag_161:\n      pop\n      pop\n      pop\n      pop\n      mload(0x40)\n      returndatasize\n      not(0x1f)\n      0x1f\n      dup3\n      add\n      and\n      dup3\n      add\n      dup1\n      0x40\n      mstore\n      pop\n      dup2\n      add\n      swap1\n      tag_162\n      swap2\n      swap1\n      tag_163\n      jump\t// in\n    tag_162:\n        /* \"contracts/ico/PaymeTokenVesting.sol\":9495:9533  this.getWithdrawableAmount() >= amount */\n      lt\n      iszero\n        /* \"contracts/ico/PaymeTokenVesting.sol\":9487:9581  require(this.getWithdrawableAmount() >= amount, \"TokenVesting: not enough withdrawable funds\") */\n      tag_164\n      jumpi\n      mload(0x40)\n      0x08c379a000000000000000000000000000000000000000000000000000000000\n      dup2\n      mstore\n      0x04\n      add\n      tag_165\n      swap1\n      tag_166\n      jump\t// in\n    tag_165:\n      mload(0x40)\n      dup1\n      swap2\n      sub\n      swap1\n      revert\n    tag_164:\n        /* \"contracts/ico/PaymeTokenVesting.sol\":9591:9627  _token.safeTransfer(owner(), amount) */\n      tag_167\n        /* \"contracts/ico/PaymeTokenVesting.sol\":9611:9618  owner() */\n      tag_168\n        /* \"contracts/ico/PaymeTokenVesting.sol\":9611:9616  owner */\n      tag_97\n        /* \"contracts/ico/PaymeTokenVesting.sol\":9611:9618  owner() */\n      jump\t// in\n    tag_168:\n        /* \"contracts/ico/PaymeTokenVesting.sol\":9620:9626  amount */\n      dup3\n        /* \"contracts/ico/PaymeTokenVesting.sol\":9591:9597  _token */\n      0x02\n      0x00\n      swap1\n      sload\n      swap1\n      0x0100\n      exp\n      swap1\n      div\n      0xffffffffffffffffffffffffffffffffffffffff\n      and\n        /* \"contracts/ico/PaymeTokenVesting.sol\":9591:9610  _token.safeTransfer */\n      0xffffffffffffffffffffffffffffffffffffffff\n      and\n      tag_169\n      swap1\n        /* \"contracts/ico/PaymeTokenVesting.sol\":9591:9627  _token.safeTransfer(owner(), amount) */\n      swap3\n      swap2\n      swap1\n      0xffffffff\n      and\n      jump\t// in\n    tag_167:\n        /* \"@openzeppelin/contracts/security/ReentrancyGuard.sol\":1701:1702  1 */\n      0x01\n        /* \"@openzeppelin/contracts/security/ReentrancyGuard.sol\":2628:2635  _status */\n      dup1\n        /* \"@openzeppelin/contracts/security/ReentrancyGuard.sol\":2628:2650  _status = _NOT_ENTERED */\n      dup2\n      swap1\n      sstore\n      pop\n        /* \"contracts/ico/PaymeTokenVesting.sol\":9390:9634  function withdraw(uint256 amount)... */\n      pop\n      jump\t// out\n        /* \"contracts/ico/PaymeTokenVesting.sol\":1653:1682  uint256 public tgeOpeningTime */\n    tag_62:\n      sload(0x04)\n      dup2\n      jump\t// out\n        /* \"contracts/ico/PaymeTokenVesting.sol\":5060:5195  function getVestingSchedulesTotalAmount()... */\n    tag_65:\n        /* \"contracts/ico/PaymeTokenVesting.sol\":5136:5143  uint256 */\n      0x00\n        /* \"contracts/ico/PaymeTokenVesting.sol\":5161:5188  vestingSchedulesTotalAmount */\n      sload(0x07)\n        /* \"contracts/ico/PaymeTokenVesting.sol\":5154:5188  return vestingSchedulesTotalAmount */\n      swap1\n      pop\n        /* \"contracts/ico/PaymeTokenVesting.sol\":5060:5195  function getVestingSchedulesTotalAmount()... */\n      swap1\n      jump\t// out\n        /* \"contracts/ico/PaymeTokenVesting.sol\":4022:4190  function getVestingSchedulesCountByBeneficiary(address iBeneficiary)... */\n    tag_69:\n        /* \"contracts/ico/PaymeTokenVesting.sol\":4125:4132  uint256 */\n      0x00\n        /* \"contracts/ico/PaymeTokenVesting.sol\":4150:4169  holdersVestingCount */\n      0x09\n        /* \"contracts/ico/PaymeTokenVesting.sol\":4150:4183  holdersVestingCount[iBeneficiary] */\n      0x00\n        /* \"contracts/ico/PaymeTokenVesting.sol\":4170:4182  iBeneficiary */\n      dup4\n        /* \"contracts/ico/PaymeTokenVesting.sol\":4150:4183  holdersVestingCount[iBeneficiary] */\n      0xffffffffffffffffffffffffffffffffffffffff\n      and\n      0xffffffffffffffffffffffffffffffffffffffff\n      and\n      dup2\n      mstore\n      0x20\n      add\n      swap1\n      dup2\n      mstore\n      0x20\n      add\n      0x00\n      keccak256\n      sload\n        /* \"contracts/ico/PaymeTokenVesting.sol\":4143:4183  return holdersVestingCount[iBeneficiary] */\n      swap1\n      pop\n        /* \"contracts/ico/PaymeTokenVesting.sol\":4022:4190  function getVestingSchedulesCountByBeneficiary(address iBeneficiary)... */\n      swap2\n      swap1\n      pop\n      jump\t// out\n        /* \"contracts/ico/PaymeTokenVesting.sol\":11086:12166  function release(... */\n    tag_74:\n        /* \"@openzeppelin/contracts/security/ReentrancyGuard.sol\":1744:1745  2 */\n      0x02\n        /* \"@openzeppelin/contracts/security/ReentrancyGuard.sol\":2325:2332  _status */\n      sload(0x01)\n        /* \"@openzeppelin/contracts/security/ReentrancyGuard.sol\":2325:2344  _status != _ENTERED */\n      eq\n      iszero\n        /* \"@openzeppelin/contracts/security/ReentrancyGuard.sol\":2317:2380  require(_status != _ENTERED, \"ReentrancyGuard: reentrant call\") */\n      tag_173\n      jumpi\n      mload(0x40)\n      0x08c379a000000000000000000000000000000000000000000000000000000000\n      dup2\n      mstore\n      0x04\n      add\n      tag_174\n      swap1\n      tag_154\n      jump\t// in\n    tag_174:\n      mload(0x40)\n      dup1\n      swap2\n      sub\n      swap1\n      revert\n    tag_173:\n        /* \"@openzeppelin/contracts/security/ReentrancyGuard.sol\":1744:1745  2 */\n      0x02\n        /* \"@openzeppelin/contracts/security/ReentrancyGuard.sol\":2455:2462  _status */\n      0x01\n        /* \"@openzeppelin/contracts/security/ReentrancyGuard.sol\":2455:2473  _status = _ENTERED */\n      dup2\n      swap1\n      sstore\n      pop\n        /* \"contracts/ico/PaymeTokenVesting.sol\":11244:11261  vestingScheduleId */\n      dup2\n        /* \"contracts/ico/PaymeTokenVesting.sol\":2635:2651  vestingSchedules */\n      0x06\n        /* \"contracts/ico/PaymeTokenVesting.sol\":2635:2670  vestingSchedules[vestingScheduleId] */\n      0x00\n        /* \"contracts/ico/PaymeTokenVesting.sol\":2652:2669  vestingScheduleId */\n      dup3\n        /* \"contracts/ico/PaymeTokenVesting.sol\":2635:2670  vestingSchedules[vestingScheduleId] */\n      dup2\n      mstore\n      0x20\n      add\n      swap1\n      dup2\n      mstore\n      0x20\n      add\n      0x00\n      keccak256\n        /* \"contracts/ico/PaymeTokenVesting.sol\":2635:2682  vestingSchedules[vestingScheduleId].initialized */\n      0x00\n      add\n      0x00\n      swap1\n      sload\n      swap1\n      0x0100\n      exp\n      swap1\n      div\n      0xff\n      and\n        /* \"contracts/ico/PaymeTokenVesting.sol\":2627:2683  require(vestingSchedules[vestingScheduleId].initialized) */\n      tag_176\n      jumpi\n      0x00\n      dup1\n      revert\n    tag_176:\n        /* \"contracts/ico/PaymeTokenVesting.sol\":2702:2718  vestingSchedules */\n      0x06\n        /* \"contracts/ico/PaymeTokenVesting.sol\":2702:2737  vestingSchedules[vestingScheduleId] */\n      0x00\n        /* \"contracts/ico/PaymeTokenVesting.sol\":2719:2736  vestingScheduleId */\n      dup3\n        /* \"contracts/ico/PaymeTokenVesting.sol\":2702:2737  vestingSchedules[vestingScheduleId] */\n      dup2\n      mstore\n      0x20\n      add\n      swap1\n      dup2\n      mstore\n      0x20\n      add\n      0x00\n      keccak256\n        /* \"contracts/ico/PaymeTokenVesting.sol\":2702:2745  vestingSchedules[vestingScheduleId].revoked */\n      0x08\n      add\n      0x00\n      swap1\n      sload\n      swap1\n      0x0100\n      exp\n      swap1\n      div\n      0xff\n      and\n        /* \"contracts/ico/PaymeTokenVesting.sol\":2701:2745  !vestingSchedules[vestingScheduleId].revoked */\n      iszero\n        /* \"contracts/ico/PaymeTokenVesting.sol\":2693:2746  require(!vestingSchedules[vestingScheduleId].revoked) */\n      tag_177\n      jumpi\n      0x00\n      dup1\n      revert\n    tag_177:\n        /* \"contracts/ico/PaymeTokenVesting.sol\":11272:11311  VestingSchedule storage vestingSchedule */\n      0x00\n        /* \"contracts/ico/PaymeTokenVesting.sol\":11314:11330  vestingSchedules */\n      0x06\n        /* \"contracts/ico/PaymeTokenVesting.sol\":11314:11349  vestingSchedules[vestingScheduleId] */\n      0x00\n        /* \"contracts/ico/PaymeTokenVesting.sol\":11331:11348  vestingScheduleId */\n      dup6\n        /* \"contracts/ico/PaymeTokenVesting.sol\":11314:11349  vestingSchedules[vestingScheduleId] */\n      dup2\n      mstore\n      0x20\n      add\n      swap1\n      dup2\n      mstore\n      0x20\n      add\n      0x00\n      keccak256\n        /* \"contracts/ico/PaymeTokenVesting.sol\":11272:11349  VestingSchedule storage vestingSchedule = vestingSchedules[vestingScheduleId] */\n      swap1\n      pop\n        /* \"contracts/ico/PaymeTokenVesting.sol\":11359:11377  bool isBeneficiary */\n      0x00\n        /* \"contracts/ico/PaymeTokenVesting.sol\":11394:11409  vestingSchedule */\n      dup2\n        /* \"contracts/ico/PaymeTokenVesting.sol\":11394:11421  vestingSchedule.beneficiary */\n      0x00\n      add\n      0x01\n      swap1\n      sload\n      swap1\n      0x0100\n      exp\n      swap1\n      div\n      0xffffffffffffffffffffffffffffffffffffffff\n      and\n        /* \"contracts/ico/PaymeTokenVesting.sol\":11380:11421  msg.sender == vestingSchedule.beneficiary */\n      0xffffffffffffffffffffffffffffffffffffffff\n      and\n        /* \"contracts/ico/PaymeTokenVesting.sol\":11380:11390  msg.sender */\n      caller\n        /* \"contracts/ico/PaymeTokenVesting.sol\":11380:11421  msg.sender == vestingSchedule.beneficiary */\n      0xffffffffffffffffffffffffffffffffffffffff\n      and\n      eq\n        /* \"contracts/ico/PaymeTokenVesting.sol\":11359:11421  bool isBeneficiary = msg.sender == vestingSchedule.beneficiary */\n      swap1\n      pop\n        /* \"contracts/ico/PaymeTokenVesting.sol\":11431:11443  bool isOwner */\n      0x00\n        /* \"contracts/ico/PaymeTokenVesting.sol\":11460:11467  owner() */\n      tag_179\n        /* \"contracts/ico/PaymeTokenVesting.sol\":11460:11465  owner */\n      tag_97\n        /* \"contracts/ico/PaymeTokenVesting.sol\":11460:11467  owner() */\n      jump\t// in\n    tag_179:\n        /* \"contracts/ico/PaymeTokenVesting.sol\":11446:11467  msg.sender == owner() */\n      0xffffffffffffffffffffffffffffffffffffffff\n      and\n        /* \"contracts/ico/PaymeTokenVesting.sol\":11446:11456  msg.sender */\n      caller\n        /* \"contracts/ico/PaymeTokenVesting.sol\":11446:11467  msg.sender == owner() */\n      0xffffffffffffffffffffffffffffffffffffffff\n      and\n      eq\n        /* \"contracts/ico/PaymeTokenVesting.sol\":11431:11467  bool isOwner = msg.sender == owner() */\n      swap1\n      pop\n        /* \"contracts/ico/PaymeTokenVesting.sol\":11498:11511  isBeneficiary */\n      dup2\n        /* \"contracts/ico/PaymeTokenVesting.sol\":11498:11522  isBeneficiary || isOwner */\n      dup1\n      tag_180\n      jumpi\n      pop\n        /* \"contracts/ico/PaymeTokenVesting.sol\":11515:11522  isOwner */\n      dup1\n        /* \"contracts/ico/PaymeTokenVesting.sol\":11498:11522  isBeneficiary || isOwner */\n    tag_180:\n        /* \"contracts/ico/PaymeTokenVesting.sol\":11477:11614  require(... */\n      tag_181\n      jumpi\n      mload(0x40)\n      0x08c379a000000000000000000000000000000000000000000000000000000000\n      dup2\n      mstore\n      0x04\n      add\n      tag_182\n      swap1\n      tag_183\n      jump\t// in\n    tag_182:\n      mload(0x40)\n      dup1\n      swap2\n      sub\n      swap1\n      revert\n    tag_181:\n        /* \"contracts/ico/PaymeTokenVesting.sol\":11627:11647  uint256 vestedAmount */\n      0x00\n        /* \"contracts/ico/PaymeTokenVesting.sol\":11650:11691  _computeReleasableAmount(vestingSchedule) */\n      tag_184\n        /* \"contracts/ico/PaymeTokenVesting.sol\":11675:11690  vestingSchedule */\n      dup5\n        /* \"contracts/ico/PaymeTokenVesting.sol\":11650:11691  _computeReleasableAmount(vestingSchedule) */\n      mload(0x40)\n      dup1\n      0x0160\n      add\n      0x40\n      mstore\n      swap1\n      dup2\n      0x00\n      dup3\n      add\n      0x00\n      swap1\n      sload\n      swap1\n      0x0100\n      exp\n      swap1\n      div\n      0xff\n      and\n      iszero\n      iszero\n      iszero\n      iszero\n      dup2\n      mstore\n      0x20\n      add\n      0x00\n      dup3\n      add\n      0x01\n      swap1\n      sload\n      swap1\n      0x0100\n      exp\n      swap1\n      div\n      0xffffffffffffffffffffffffffffffffffffffff\n      and\n      0xffffffffffffffffffffffffffffffffffffffff\n      and\n      0xffffffffffffffffffffffffffffffffffffffff\n      and\n      dup2\n      mstore\n      0x20\n      add\n      0x01\n      dup3\n      add\n      sload\n      dup2\n      mstore\n      0x20\n      add\n      0x02\n      dup3\n      add\n      sload\n      dup2\n      mstore\n      0x20\n      add\n      0x03\n      dup3\n      add\n      sload\n      dup2\n      mstore\n      0x20\n      add\n      0x04\n      dup3\n      add\n      sload\n      dup2\n      mstore\n      0x20\n      add\n      0x05\n      dup3\n      add\n      0x00\n      swap1\n      sload\n      swap1\n      0x0100\n      exp\n      swap1\n      div\n      0xff\n      and\n      iszero\n      iszero\n      iszero\n      iszero\n      dup2\n      mstore\n      0x20\n      add\n      0x06\n      dup3\n      add\n      sload\n      dup2\n      mstore\n      0x20\n      add\n      0x07\n      dup3\n      add\n      sload\n      dup2\n      mstore\n      0x20\n      add\n      0x08\n      dup3\n      add\n      0x00\n      swap1\n      sload\n      swap1\n      0x0100\n      exp\n      swap1\n      div\n      0xff\n      and\n      iszero\n      iszero\n      iszero\n      iszero\n      dup2\n      mstore\n      0x20\n      add\n      0x08\n      dup3\n      add\n      0x01\n      swap1\n      sload\n      swap1\n      0x0100\n      exp\n      swap1\n      div\n      0xff\n      and\n      iszero\n      iszero\n      iszero\n      iszero\n      dup2\n      mstore\n      pop\n      pop\n        /* \"contracts/ico/PaymeTokenVesting.sol\":11650:11674  _computeReleasableAmount */\n      tag_185\n        /* \"contracts/ico/PaymeTokenVesting.sol\":11650:11691  _computeReleasableAmount(vestingSchedule) */\n      jump\t// in\n    tag_184:\n        /* \"contracts/ico/PaymeTokenVesting.sol\":11627:11691  uint256 vestedAmount = _computeReleasableAmount(vestingSchedule) */\n      swap1\n      pop\n        /* \"contracts/ico/PaymeTokenVesting.sol\":11714:11715  0 */\n      0x00\n        /* \"contracts/ico/PaymeTokenVesting.sol\":11704:11710  amount */\n      dup7\n        /* \"contracts/ico/PaymeTokenVesting.sol\":11704:11715  amount == 0 */\n      eq\n        /* \"contracts/ico/PaymeTokenVesting.sol\":11701:11762  if(amount == 0){... */\n      iszero\n      tag_186\n      jumpi\n        /* \"contracts/ico/PaymeTokenVesting.sol\":11739:11751  vestedAmount */\n      dup1\n        /* \"contracts/ico/PaymeTokenVesting.sol\":11730:11751  amount = vestedAmount */\n      swap6\n      pop\n        /* \"contracts/ico/PaymeTokenVesting.sol\":11701:11762  if(amount == 0){... */\n    tag_186:\n        /* \"contracts/ico/PaymeTokenVesting.sol\":11795:11801  amount */\n      dup6\n        /* \"contracts/ico/PaymeTokenVesting.sol\":11779:11791  vestedAmount */\n      dup2\n        /* \"contracts/ico/PaymeTokenVesting.sol\":11779:11801  vestedAmount >= amount */\n      lt\n      iszero\n        /* \"contracts/ico/PaymeTokenVesting.sol\":11771:11867  require(vestedAmount >= amount, \"TokenVesting: cannot release tokens, not enough vested tokens\") */\n      tag_187\n      jumpi\n      mload(0x40)\n      0x08c379a000000000000000000000000000000000000000000000000000000000\n      dup2\n      mstore\n      0x04\n      add\n      tag_188\n      swap1\n      tag_189\n      jump\t// in\n    tag_188:\n      mload(0x40)\n      dup1\n      swap2\n      sub\n      swap1\n      revert\n    tag_187:\n        /* \"contracts/ico/PaymeTokenVesting.sol\":11904:11940  vestingSchedule.released.add(amount) */\n      tag_190\n        /* \"contracts/ico/PaymeTokenVesting.sol\":11933:11939  amount */\n      dup7\n        /* \"contracts/ico/PaymeTokenVesting.sol\":11904:11919  vestingSchedule */\n      dup6\n        /* \"contracts/ico/PaymeTokenVesting.sol\":11904:11928  vestingSchedule.released */\n      0x07\n      add\n      sload\n        /* \"contracts/ico/PaymeTokenVesting.sol\":11904:11932  vestingSchedule.released.add */\n      tag_191\n      swap1\n        /* \"contracts/ico/PaymeTokenVesting.sol\":11904:11940  vestingSchedule.released.add(amount) */\n      swap2\n      swap1\n      0xffffffff\n      and\n      jump\t// in\n    tag_190:\n        /* \"contracts/ico/PaymeTokenVesting.sol\":11877:11892  vestingSchedule */\n      dup5\n        /* \"contracts/ico/PaymeTokenVesting.sol\":11877:11901  vestingSchedule.released */\n      0x07\n      add\n        /* \"contracts/ico/PaymeTokenVesting.sol\":11877:11940  vestingSchedule.released = vestingSchedule.released.add(amount) */\n      dup2\n      swap1\n      sstore\n      pop\n        /* \"contracts/ico/PaymeTokenVesting.sol\":11950:11984  address payable beneficiaryPayable */\n      0x00\n        /* \"contracts/ico/PaymeTokenVesting.sol\":11995:12010  vestingSchedule */\n      dup5\n        /* \"contracts/ico/PaymeTokenVesting.sol\":11995:12022  vestingSchedule.beneficiary */\n      0x00\n      add\n      0x01\n      swap1\n      sload\n      swap1\n      0x0100\n      exp\n      swap1\n      div\n      0xffffffffffffffffffffffffffffffffffffffff\n      and\n        /* \"contracts/ico/PaymeTokenVesting.sol\":11950:12023  address payable beneficiaryPayable = payable(vestingSchedule.beneficiary) */\n      swap1\n      pop\n        /* \"contracts/ico/PaymeTokenVesting.sol\":12063:12102  vestingSchedulesTotalAmount.sub(amount) */\n      tag_192\n        /* \"contracts/ico/PaymeTokenVesting.sol\":12095:12101  amount */\n      dup8\n        /* \"contracts/ico/PaymeTokenVesting.sol\":12063:12090  vestingSchedulesTotalAmount */\n      sload(0x07)\n        /* \"contracts/ico/PaymeTokenVesting.sol\":12063:12094  vestingSchedulesTotalAmount.sub */\n      tag_193\n      swap1\n        /* \"contracts/ico/PaymeTokenVesting.sol\":12063:12102  vestingSchedulesTotalAmount.sub(amount) */\n      swap2\n      swap1\n      0xffffffff\n      and\n      jump\t// in\n    tag_192:\n        /* \"contracts/ico/PaymeTokenVesting.sol\":12033:12060  vestingSchedulesTotalAmount */\n      0x07\n        /* \"contracts/ico/PaymeTokenVesting.sol\":12033:12102  vestingSchedulesTotalAmount = vestingSchedulesTotalAmount.sub(amount) */\n      dup2\n      swap1\n      sstore\n      pop\n        /* \"contracts/ico/PaymeTokenVesting.sol\":12112:12159  _token.safeTransfer(beneficiaryPayable, amount) */\n      tag_194\n        /* \"contracts/ico/PaymeTokenVesting.sol\":12132:12150  beneficiaryPayable */\n      dup2\n        /* \"contracts/ico/PaymeTokenVesting.sol\":12152:12158  amount */\n      dup9\n        /* \"contracts/ico/PaymeTokenVesting.sol\":12112:12118  _token */\n      0x02\n      0x00\n      swap1\n      sload\n      swap1\n      0x0100\n      exp\n      swap1\n      div\n      0xffffffffffffffffffffffffffffffffffffffff\n      and\n        /* \"contracts/ico/PaymeTokenVesting.sol\":12112:12131  _token.safeTransfer */\n      0xffffffffffffffffffffffffffffffffffffffff\n      and\n      tag_169\n      swap1\n        /* \"contracts/ico/PaymeTokenVesting.sol\":12112:12159  _token.safeTransfer(beneficiaryPayable, amount) */\n      swap3\n      swap2\n      swap1\n      0xffffffff\n      and\n      jump\t// in\n    tag_194:\n        /* \"contracts/ico/PaymeTokenVesting.sol\":11262:12166  {... */\n      pop\n      pop\n      pop\n      pop\n      pop\n        /* \"@openzeppelin/contracts/security/ReentrancyGuard.sol\":2484:2485  _ */\n      pop\n        /* \"@openzeppelin/contracts/security/ReentrancyGuard.sol\":1701:1702  1 */\n      0x01\n        /* \"@openzeppelin/contracts/security/ReentrancyGuard.sol\":2628:2635  _status */\n      dup1\n        /* \"@openzeppelin/contracts/security/ReentrancyGuard.sol\":2628:2650  _status = _NOT_ENTERED */\n      dup2\n      swap1\n      sstore\n      pop\n        /* \"contracts/ico/PaymeTokenVesting.sol\":11086:12166  function release(... */\n      pop\n      pop\n      jump\t// out\n        /* \"@openzeppelin/contracts/access/Ownable.sol\":1831:1932  function renounceOwnership() public virtual onlyOwner {... */\n    tag_76:\n        /* \"@openzeppelin/contracts/access/Ownable.sol\":1094:1107  _checkOwner() */\n      tag_196\n        /* \"@openzeppelin/contracts/access/Ownable.sol\":1094:1105  _checkOwner */\n      tag_157\n        /* \"@openzeppelin/contracts/access/Ownable.sol\":1094:1107  _checkOwner() */\n      jump\t// in\n    tag_196:\n        /* \"@openzeppelin/contracts/access/Ownable.sol\":1895:1925  _transferOwnership(address(0)) */\n      tag_198\n        /* \"@openzeppelin/contracts/access/Ownable.sol\":1922:1923  0 */\n      0x00\n        /* \"@openzeppelin/contracts/access/Ownable.sol\":1895:1913  _transferOwnership */\n      tag_199\n        /* \"@openzeppelin/contracts/access/Ownable.sol\":1895:1925  _transferOwnership(address(0)) */\n      jump\t// in\n    tag_198:\n        /* \"@openzeppelin/contracts/access/Ownable.sol\":1831:1932  function renounceOwnership() public virtual onlyOwner {... */\n      jump\t// out\n        /* \"contracts/ico/PaymeTokenVesting.sol\":6665:8427  function createVestingSchedule(... */\n    tag_80:\n        /* \"contracts/ico/PaymeTokenVesting.sol\":2846:2863  crowdsalesAddress */\n      0x0b\n      0x00\n      swap1\n      sload\n      swap1\n      0x0100\n      exp\n      swap1\n      div\n      0xffffffffffffffffffffffffffffffffffffffff\n      and\n        /* \"contracts/ico/PaymeTokenVesting.sol\":2832:2863  msg.sender == crowdsalesAddress */\n      0xffffffffffffffffffffffffffffffffffffffff\n      and\n        /* \"contracts/ico/PaymeTokenVesting.sol\":2832:2842  msg.sender */\n      caller\n        /* \"contracts/ico/PaymeTokenVesting.sol\":2832:2863  msg.sender == crowdsalesAddress */\n      0xffffffffffffffffffffffffffffffffffffffff\n      and\n      eq\n        /* \"contracts/ico/PaymeTokenVesting.sol\":2832:2900  msg.sender == crowdsalesAddress ||... */\n      dup1\n      tag_201\n      jumpi\n      pop\n        /* \"contracts/ico/PaymeTokenVesting.sol\":2893:2900  owner() */\n      tag_202\n        /* \"contracts/ico/PaymeTokenVesting.sol\":2893:2898  owner */\n      tag_97\n        /* \"contracts/ico/PaymeTokenVesting.sol\":2893:2900  owner() */\n      jump\t// in\n    tag_202:\n        /* \"contracts/ico/PaymeTokenVesting.sol\":2879:2900  msg.sender == owner() */\n      0xffffffffffffffffffffffffffffffffffffffff\n      and\n        /* \"contracts/ico/PaymeTokenVesting.sol\":2879:2889  msg.sender */\n      caller\n        /* \"contracts/ico/PaymeTokenVesting.sol\":2879:2900  msg.sender == owner() */\n      0xffffffffffffffffffffffffffffffffffffffff\n      and\n      eq\n        /* \"contracts/ico/PaymeTokenVesting.sol\":2832:2900  msg.sender == crowdsalesAddress ||... */\n    tag_201:\n        /* \"contracts/ico/PaymeTokenVesting.sol\":2811:2913  require(... */\n      tag_203\n      jumpi\n      mload(0x40)\n      0x08c379a000000000000000000000000000000000000000000000000000000000\n      dup2\n      mstore\n      0x04\n      add\n      tag_204\n      swap1\n      tag_205\n      jump\t// in\n    tag_204:\n      mload(0x40)\n      dup1\n      swap2\n      sub\n      swap1\n      revert\n    tag_203:\n        /* \"contracts/ico/PaymeTokenVesting.sol\":7016:7023  iAmount */\n      dup2\n        /* \"contracts/ico/PaymeTokenVesting.sol\":6984:6988  this */\n      address\n        /* \"contracts/ico/PaymeTokenVesting.sol\":6984:7010  this.getWithdrawableAmount */\n      0xffffffffffffffffffffffffffffffffffffffff\n      and\n      0x90be10cc\n        /* \"contracts/ico/PaymeTokenVesting.sol\":6984:7012  this.getWithdrawableAmount() */\n      mload(0x40)\n      dup2\n      0xffffffff\n      and\n      0xe0\n      shl\n      dup2\n      mstore\n      0x04\n      add\n      0x20\n      mload(0x40)\n      dup1\n      dup4\n      sub\n      dup2\n      dup7\n      dup1\n      extcodesize\n      iszero\n      dup1\n      iszero\n      tag_207\n      jumpi\n      0x00\n      dup1\n      revert\n    tag_207:\n      pop\n      gas\n      staticcall\n      iszero\n      dup1\n      iszero\n      tag_209\n      jumpi\n      returndatasize\n      0x00\n      dup1\n      returndatacopy\n      revert(0x00, returndatasize)\n    tag_209:\n      pop\n      pop\n      pop\n      pop\n      mload(0x40)\n      returndatasize\n      not(0x1f)\n      0x1f\n      dup3\n      add\n      and\n      dup3\n      add\n      dup1\n      0x40\n      mstore\n      pop\n      dup2\n      add\n      swap1\n      tag_210\n      swap2\n      swap1\n      tag_163\n      jump\t// in\n    tag_210:\n        /* \"contracts/ico/PaymeTokenVesting.sol\":6984:7023  this.getWithdrawableAmount() >= iAmount */\n      lt\n      iszero\n        /* \"contracts/ico/PaymeTokenVesting.sol\":6963:7123  require(... */\n      tag_211\n      jumpi\n      mload(0x40)\n      0x08c379a000000000000000000000000000000000000000000000000000000000\n      dup2\n      mstore\n      0x04\n      add\n      tag_212\n      swap1\n      tag_213\n      jump\t// in\n    tag_212:\n      mload(0x40)\n      dup1\n      swap2\n      sub\n      swap1\n      revert\n    tag_211:\n        /* \"contracts/ico/PaymeTokenVesting.sol\":7153:7154  0 */\n      0x00\n        /* \"contracts/ico/PaymeTokenVesting.sol\":7141:7150  iDuration */\n      dup6\n        /* \"contracts/ico/PaymeTokenVesting.sol\":7141:7154  iDuration > 0 */\n      gt\n        /* \"contracts/ico/PaymeTokenVesting.sol\":7133:7193  require(iDuration > 0, \"TokenVesting: duration must be > 0\") */\n      tag_214\n      jumpi\n      mload(0x40)\n      0x08c379a000000000000000000000000000000000000000000000000000000000\n      dup2\n      mstore\n      0x04\n      add\n      tag_215\n      swap1\n      tag_216\n      jump\t// in\n    tag_215:\n      mload(0x40)\n      dup1\n      swap2\n      sub\n      swap1\n      revert\n    tag_214:\n        /* \"contracts/ico/PaymeTokenVesting.sol\":7221:7222  0 */\n      0x00\n        /* \"contracts/ico/PaymeTokenVesting.sol\":7211:7218  iAmount */\n      dup3\n        /* \"contracts/ico/PaymeTokenVesting.sol\":7211:7222  iAmount > 0 */\n      gt\n        /* \"contracts/ico/PaymeTokenVesting.sol\":7203:7259  require(iAmount > 0, \"TokenVesting: amount must be > 0\") */\n      tag_217\n      jumpi\n      mload(0x40)\n      0x08c379a000000000000000000000000000000000000000000000000000000000\n      dup2\n      mstore\n      0x04\n      add\n      tag_218\n      swap1\n      tag_219\n      jump\t// in\n    tag_218:\n      mload(0x40)\n      dup1\n      swap2\n      sub\n      swap1\n      revert\n    tag_217:\n        /* \"contracts/ico/PaymeTokenVesting.sol\":7300:7301  1 */\n      0x01\n        /* \"contracts/ico/PaymeTokenVesting.sol\":7277:7296  iSlicePeriodSeconds */\n      dup5\n        /* \"contracts/ico/PaymeTokenVesting.sol\":7277:7301  iSlicePeriodSeconds >= 1 */\n      lt\n      iszero\n        /* \"contracts/ico/PaymeTokenVesting.sol\":7269:7351  require(iSlicePeriodSeconds >= 1, \"TokenVesting: slicePeriodSeconds must be >= 1\") */\n      tag_220\n      jumpi\n      mload(0x40)\n      0x08c379a000000000000000000000000000000000000000000000000000000000\n      dup2\n      mstore\n      0x04\n      add\n      tag_221\n      swap1\n      tag_222\n      jump\t// in\n    tag_221:\n      mload(0x40)\n      dup1\n      swap2\n      sub\n      swap1\n      revert\n    tag_220:\n        /* \"contracts/ico/PaymeTokenVesting.sol\":7361:7386  bytes32 vestingScheduleId */\n      0x00\n        /* \"contracts/ico/PaymeTokenVesting.sol\":7389:7393  this */\n      address\n        /* \"contracts/ico/PaymeTokenVesting.sol\":7389:7431  this.computeNextVestingScheduleIdForHolder */\n      0xffffffffffffffffffffffffffffffffffffffff\n      and\n      0xf7c469f0\n        /* \"contracts/ico/PaymeTokenVesting.sol\":7432:7444  iBeneficiary */\n      dup11\n        /* \"contracts/ico/PaymeTokenVesting.sol\":7389:7445  this.computeNextVestingScheduleIdForHolder(iBeneficiary) */\n      mload(0x40)\n      dup3\n      0xffffffff\n      and\n      0xe0\n      shl\n      dup2\n      mstore\n      0x04\n      add\n      tag_223\n      swap2\n      swap1\n      tag_50\n      jump\t// in\n    tag_223:\n      0x20\n      mload(0x40)\n      dup1\n      dup4\n      sub\n      dup2\n      dup7\n      dup1\n      extcodesize\n      iszero\n      dup1\n      iszero\n      tag_224\n      jumpi\n      0x00\n      dup1\n      revert\n    tag_224:\n      pop\n      gas\n      staticcall\n      iszero\n      dup1\n      iszero\n      tag_226\n      jumpi\n      returndatasize\n      0x00\n      dup1\n      returndatacopy\n      revert(0x00, returndatasize)\n    tag_226:\n      pop\n      pop\n      pop\n      pop\n      mload(0x40)\n      returndatasize\n      not(0x1f)\n      0x1f\n      dup3\n      add\n      and\n      dup3\n      add\n      dup1\n      0x40\n      mstore\n      pop\n      dup2\n      add\n      swap1\n      tag_227\n      swap2\n      swap1\n      tag_228\n      jump\t// in\n    tag_227:\n        /* \"contracts/ico/PaymeTokenVesting.sol\":7361:7445  bytes32 vestingScheduleId = this.computeNextVestingScheduleIdForHolder(iBeneficiary) */\n      swap1\n      pop\n        /* \"contracts/ico/PaymeTokenVesting.sol\":7455:7468  uint256 cliff */\n      0x00\n        /* \"contracts/ico/PaymeTokenVesting.sol\":7471:7489  iStart.add(iCliff) */\n      tag_229\n        /* \"contracts/ico/PaymeTokenVesting.sol\":7482:7488  iCliff */\n      dup9\n        /* \"contracts/ico/PaymeTokenVesting.sol\":7471:7477  iStart */\n      dup11\n        /* \"contracts/ico/PaymeTokenVesting.sol\":7471:7481  iStart.add */\n      tag_191\n      swap1\n        /* \"contracts/ico/PaymeTokenVesting.sol\":7471:7489  iStart.add(iCliff) */\n      swap2\n      swap1\n      0xffffffff\n      and\n      jump\t// in\n    tag_229:\n        /* \"contracts/ico/PaymeTokenVesting.sol\":7455:7489  uint256 cliff = iStart.add(iCliff) */\n      swap1\n      pop\n        /* \"contracts/ico/PaymeTokenVesting.sol\":7538:7808  VestingSchedule(... */\n      mload(0x40)\n      dup1\n      0x0160\n      add\n      0x40\n      mstore\n      dup1\n        /* \"contracts/ico/PaymeTokenVesting.sol\":7567:7571  true */\n      0x01\n        /* \"contracts/ico/PaymeTokenVesting.sol\":7538:7808  VestingSchedule(... */\n      iszero\n      iszero\n      dup2\n      mstore\n      0x20\n      add\n        /* \"contracts/ico/PaymeTokenVesting.sol\":7585:7597  iBeneficiary */\n      dup12\n        /* \"contracts/ico/PaymeTokenVesting.sol\":7538:7808  VestingSchedule(... */\n      0xffffffffffffffffffffffffffffffffffffffff\n      and\n      dup2\n      mstore\n      0x20\n      add\n        /* \"contracts/ico/PaymeTokenVesting.sol\":7611:7616  cliff */\n      dup3\n        /* \"contracts/ico/PaymeTokenVesting.sol\":7538:7808  VestingSchedule(... */\n      dup2\n      mstore\n      0x20\n      add\n        /* \"contracts/ico/PaymeTokenVesting.sol\":7630:7636  iStart */\n      dup11\n        /* \"contracts/ico/PaymeTokenVesting.sol\":7538:7808  VestingSchedule(... */\n      dup2\n      mstore\n      0x20\n      add\n        /* \"contracts/ico/PaymeTokenVesting.sol\":7650:7659  iDuration */\n      dup9\n        /* \"contracts/ico/PaymeTokenVesting.sol\":7538:7808  VestingSchedule(... */\n      dup2\n      mstore\n      0x20\n      add\n        /* \"contracts/ico/PaymeTokenVesting.sol\":7673:7692  iSlicePeriodSeconds */\n      dup8\n        /* \"contracts/ico/PaymeTokenVesting.sol\":7538:7808  VestingSchedule(... */\n      dup2\n      mstore\n      0x20\n      add\n        /* \"contracts/ico/PaymeTokenVesting.sol\":7706:7716  iRevocable */\n      dup7\n        /* \"contracts/ico/PaymeTokenVesting.sol\":7538:7808  VestingSchedule(... */\n      iszero\n      iszero\n      dup2\n      mstore\n      0x20\n      add\n        /* \"contracts/ico/PaymeTokenVesting.sol\":7730:7737  iAmount */\n      dup6\n        /* \"contracts/ico/PaymeTokenVesting.sol\":7538:7808  VestingSchedule(... */\n      dup2\n      mstore\n      0x20\n      add\n        /* \"contracts/ico/PaymeTokenVesting.sol\":7751:7752  0 */\n      0x00\n        /* \"contracts/ico/PaymeTokenVesting.sol\":7538:7808  VestingSchedule(... */\n      dup2\n      mstore\n      0x20\n      add\n        /* \"contracts/ico/PaymeTokenVesting.sol\":7766:7771  false */\n      0x00\n        /* \"contracts/ico/PaymeTokenVesting.sol\":7538:7808  VestingSchedule(... */\n      iszero\n      iszero\n      dup2\n      mstore\n      0x20\n      add\n        /* \"contracts/ico/PaymeTokenVesting.sol\":7785:7798  iReleaseAtTGE */\n      dup5\n        /* \"contracts/ico/PaymeTokenVesting.sol\":7538:7808  VestingSchedule(... */\n      iszero\n      iszero\n      dup2\n      mstore\n      pop\n        /* \"contracts/ico/PaymeTokenVesting.sol\":7500:7516  vestingSchedules */\n      0x06\n        /* \"contracts/ico/PaymeTokenVesting.sol\":7500:7535  vestingSchedules[vestingScheduleId] */\n      0x00\n        /* \"contracts/ico/PaymeTokenVesting.sol\":7517:7534  vestingScheduleId */\n      dup5\n        /* \"contracts/ico/PaymeTokenVesting.sol\":7500:7535  vestingSchedules[vestingScheduleId] */\n      dup2\n      mstore\n      0x20\n      add\n      swap1\n      dup2\n      mstore\n      0x20\n      add\n      0x00\n      keccak256\n        /* \"contracts/ico/PaymeTokenVesting.sol\":7500:7808  vestingSchedules[vestingScheduleId] = VestingSchedule(... */\n      0x00\n      dup3\n      add\n      mload\n      dup2\n      0x00\n      add\n      exp(0x0100, 0x00)\n      dup2\n      sload\n      dup2\n      0xff\n      mul\n      not\n      and\n      swap1\n      dup4\n      iszero\n      iszero\n      mul\n      or\n      swap1\n      sstore\n      pop\n      0x20\n      dup3\n      add\n      mload\n      dup2\n      0x00\n      add\n      exp(0x0100, 0x01)\n      dup2\n      sload\n      dup2\n      0xffffffffffffffffffffffffffffffffffffffff\n      mul\n      not\n      and\n      swap1\n      dup4\n      0xffffffffffffffffffffffffffffffffffffffff\n      and\n      mul\n      or\n      swap1\n      sstore\n      pop\n      0x40\n      dup3\n      add\n      mload\n      dup2\n      0x01\n      add\n      sstore\n      0x60\n      dup3\n      add\n      mload\n      dup2\n      0x02\n      add\n      sstore\n      0x80\n      dup3\n      add\n      mload\n      dup2\n      0x03\n      add\n      sstore\n      0xa0\n      dup3\n      add\n      mload\n      dup2\n      0x04\n      add\n      sstore\n      0xc0\n      dup3\n      add\n      mload\n      dup2\n      0x05\n      add\n      exp(0x0100, 0x00)\n      dup2\n      sload\n      dup2\n      0xff\n      mul\n      not\n      and\n      swap1\n      dup4\n      iszero\n      iszero\n      mul\n      or\n      swap1\n      sstore\n      pop\n      0xe0\n      dup3\n      add\n      mload\n      dup2\n      0x06\n      add\n      sstore\n      0x0100\n      dup3\n      add\n      mload\n      dup2\n      0x07\n      add\n      sstore\n      0x0120\n      dup3\n      add\n      mload\n      dup2\n      0x08\n      add\n      exp(0x0100, 0x00)\n      dup2\n      sload\n      dup2\n      0xff\n      mul\n      not\n      and\n      swap1\n      dup4\n      iszero\n      iszero\n      mul\n      or\n      swap1\n      sstore\n      pop\n      0x0140\n      dup3\n      add\n      mload\n      dup2\n      0x08\n      add\n      exp(0x0100, 0x01)\n      dup2\n      sload\n      dup2\n      0xff\n      mul\n      not\n      and\n      swap1\n      dup4\n      iszero\n      iszero\n      mul\n      or\n      swap1\n      sstore\n      pop\n      swap1\n      pop\n      pop\n        /* \"contracts/ico/PaymeTokenVesting.sol\":7819:7836  uint256 tgeAmount */\n      0x00\n        /* \"contracts/ico/PaymeTokenVesting.sol\":7853:7866  iReleaseAtTGE */\n      dup4\n        /* \"contracts/ico/PaymeTokenVesting.sol\":7850:8019  if(iReleaseAtTGE){... */\n      iszero\n      tag_230\n      jumpi\n        /* \"contracts/ico/PaymeTokenVesting.sol\":7916:7948  iAmount.mul(tgePercent).div(100) */\n      tag_231\n        /* \"contracts/ico/PaymeTokenVesting.sol\":7944:7947  100 */\n      0x64\n        /* \"contracts/ico/PaymeTokenVesting.sol\":7916:7939  iAmount.mul(tgePercent) */\n      tag_232\n        /* \"contracts/ico/PaymeTokenVesting.sol\":7928:7938  tgePercent */\n      sload(0x03)\n        /* \"contracts/ico/PaymeTokenVesting.sol\":7916:7923  iAmount */\n      dup9\n        /* \"contracts/ico/PaymeTokenVesting.sol\":7916:7927  iAmount.mul */\n      tag_233\n      swap1\n        /* \"contracts/ico/PaymeTokenVesting.sol\":7916:7939  iAmount.mul(tgePercent) */\n      swap2\n      swap1\n      0xffffffff\n      and\n      jump\t// in\n    tag_232:\n        /* \"contracts/ico/PaymeTokenVesting.sol\":7916:7943  iAmount.mul(tgePercent).div */\n      tag_234\n      swap1\n        /* \"contracts/ico/PaymeTokenVesting.sol\":7916:7948  iAmount.mul(tgePercent).div(100) */\n      swap2\n      swap1\n      0xffffffff\n      and\n      jump\t// in\n    tag_231:\n        /* \"contracts/ico/PaymeTokenVesting.sol\":7904:7948  tgeAmount = iAmount.mul(tgePercent).div(100) */\n      swap1\n      pop\n        /* \"contracts/ico/PaymeTokenVesting.sol\":7979:8008  tgeTotalAmount.add(tgeAmount) */\n      tag_235\n        /* \"contracts/ico/PaymeTokenVesting.sol\":7998:8007  tgeAmount */\n      dup2\n        /* \"contracts/ico/PaymeTokenVesting.sol\":7979:7993  tgeTotalAmount */\n      sload(0x08)\n        /* \"contracts/ico/PaymeTokenVesting.sol\":7979:7997  tgeTotalAmount.add */\n      tag_191\n      swap1\n        /* \"contracts/ico/PaymeTokenVesting.sol\":7979:8008  tgeTotalAmount.add(tgeAmount) */\n      swap2\n      swap1\n      0xffffffff\n      and\n      jump\t// in\n    tag_235:\n        /* \"contracts/ico/PaymeTokenVesting.sol\":7962:7976  tgeTotalAmount */\n      0x08\n        /* \"contracts/ico/PaymeTokenVesting.sol\":7962:8008  tgeTotalAmount = tgeTotalAmount.add(tgeAmount) */\n      dup2\n      swap1\n      sstore\n      pop\n        /* \"contracts/ico/PaymeTokenVesting.sol\":7850:8019  if(iReleaseAtTGE){... */\n    tag_230:\n        /* \"contracts/ico/PaymeTokenVesting.sol\":8059:8109  vestingSchedulesTotalAmount.add(iAmount-tgeAmount) */\n      tag_236\n        /* \"contracts/ico/PaymeTokenVesting.sol\":8099:8108  tgeAmount */\n      dup2\n        /* \"contracts/ico/PaymeTokenVesting.sol\":8091:8098  iAmount */\n      dup7\n        /* \"contracts/ico/PaymeTokenVesting.sol\":8091:8108  iAmount-tgeAmount */\n      tag_237\n      swap2\n      swap1\n      tag_238\n      jump\t// in\n    tag_237:\n        /* \"contracts/ico/PaymeTokenVesting.sol\":8059:8086  vestingSchedulesTotalAmount */\n      sload(0x07)\n        /* \"contracts/ico/PaymeTokenVesting.sol\":8059:8090  vestingSchedulesTotalAmount.add */\n      tag_191\n      swap1\n        /* \"contracts/ico/PaymeTokenVesting.sol\":8059:8109  vestingSchedulesTotalAmount.add(iAmount-tgeAmount) */\n      swap2\n      swap1\n      0xffffffff\n      and\n      jump\t// in\n    tag_236:\n        /* \"contracts/ico/PaymeTokenVesting.sol\":8029:8056  vestingSchedulesTotalAmount */\n      0x07\n        /* \"contracts/ico/PaymeTokenVesting.sol\":8029:8109  vestingSchedulesTotalAmount = vestingSchedulesTotalAmount.add(iAmount-tgeAmount) */\n      dup2\n      swap1\n      sstore\n      pop\n        /* \"contracts/ico/PaymeTokenVesting.sol\":8123:8142  vestingSchedulesIds */\n      0x05\n        /* \"contracts/ico/PaymeTokenVesting.sol\":8148:8165  vestingScheduleId */\n      dup4\n        /* \"contracts/ico/PaymeTokenVesting.sol\":8123:8166  vestingSchedulesIds.push(vestingScheduleId) */\n      swap1\n      dup1\n      0x01\n      dup2\n      sload\n      add\n      dup1\n      dup3\n      sstore\n      dup1\n      swap2\n      pop\n      pop\n      0x01\n      swap1\n      sub\n      swap1\n      0x00\n      mstore\n      keccak256(0x00, 0x20)\n      add\n      0x00\n      swap1\n      swap2\n      swap1\n      swap2\n      swap1\n      swap2\n      pop\n      sstore\n        /* \"contracts/ico/PaymeTokenVesting.sol\":8176:8203  uint256 currentVestingCount */\n      0x00\n        /* \"contracts/ico/PaymeTokenVesting.sol\":8206:8225  holdersVestingCount */\n      0x09\n        /* \"contracts/ico/PaymeTokenVesting.sol\":8206:8239  holdersVestingCount[iBeneficiary] */\n      0x00\n        /* \"contracts/ico/PaymeTokenVesting.sol\":8226:8238  iBeneficiary */\n      dup14\n        /* \"contracts/ico/PaymeTokenVesting.sol\":8206:8239  holdersVestingCount[iBeneficiary] */\n      0xffffffffffffffffffffffffffffffffffffffff\n      and\n      0xffffffffffffffffffffffffffffffffffffffff\n      and\n      dup2\n      mstore\n      0x20\n      add\n      swap1\n      dup2\n      mstore\n      0x20\n      add\n      0x00\n      keccak256\n      sload\n        /* \"contracts/ico/PaymeTokenVesting.sol\":8176:8239  uint256 currentVestingCount = holdersVestingCount[iBeneficiary] */\n      swap1\n      pop\n        /* \"contracts/ico/PaymeTokenVesting.sol\":8285:8311  currentVestingCount.add(1) */\n      tag_240\n        /* \"contracts/ico/PaymeTokenVesting.sol\":8309:8310  1 */\n      0x01\n        /* \"contracts/ico/PaymeTokenVesting.sol\":8285:8304  currentVestingCount */\n      dup3\n        /* \"contracts/ico/PaymeTokenVesting.sol\":8285:8308  currentVestingCount.add */\n      tag_191\n      swap1\n        /* \"contracts/ico/PaymeTokenVesting.sol\":8285:8311  currentVestingCount.add(1) */\n      swap2\n      swap1\n      0xffffffff\n      and\n      jump\t// in\n    tag_240:\n        /* \"contracts/ico/PaymeTokenVesting.sol\":8249:8268  holdersVestingCount */\n      0x09\n        /* \"contracts/ico/PaymeTokenVesting.sol\":8249:8282  holdersVestingCount[iBeneficiary] */\n      0x00\n        /* \"contracts/ico/PaymeTokenVesting.sol\":8269:8281  iBeneficiary */\n      dup15\n        /* \"contracts/ico/PaymeTokenVesting.sol\":8249:8282  holdersVestingCount[iBeneficiary] */\n      0xffffffffffffffffffffffffffffffffffffffff\n      and\n      0xffffffffffffffffffffffffffffffffffffffff\n      and\n      dup2\n      mstore\n      0x20\n      add\n      swap1\n      dup2\n      mstore\n      0x20\n      add\n      0x00\n      keccak256\n        /* \"contracts/ico/PaymeTokenVesting.sol\":8249:8311  holdersVestingCount[iBeneficiary] = currentVestingCount.add(1) */\n      dup2\n      swap1\n      sstore\n      pop\n        /* \"contracts/ico/PaymeTokenVesting.sol\":8363:8364  0 */\n      0x00\n        /* \"contracts/ico/PaymeTokenVesting.sol\":8321:8341  tgeTokenParticipants */\n      0x0a\n        /* \"contracts/ico/PaymeTokenVesting.sol\":8321:8360  tgeTokenParticipants[vestingScheduleId] */\n      0x00\n        /* \"contracts/ico/PaymeTokenVesting.sol\":8342:8359  vestingScheduleId */\n      dup7\n        /* \"contracts/ico/PaymeTokenVesting.sol\":8321:8360  tgeTokenParticipants[vestingScheduleId] */\n      dup2\n      mstore\n      0x20\n      add\n      swap1\n      dup2\n      mstore\n      0x20\n      add\n      0x00\n      keccak256\n        /* \"contracts/ico/PaymeTokenVesting.sol\":8321:8364  tgeTokenParticipants[vestingScheduleId] = 0 */\n      dup2\n      swap1\n      sstore\n      pop\n        /* \"contracts/ico/PaymeTokenVesting.sol\":8379:8420  VestingScheduleCreated(vestingScheduleId) */\n      0x7deecc243dec36156ece079ae8e71cb3f5b8a86d4ee141e3733216e23614e0c3\n        /* \"contracts/ico/PaymeTokenVesting.sol\":8402:8419  vestingScheduleId */\n      dup5\n        /* \"contracts/ico/PaymeTokenVesting.sol\":8379:8420  VestingScheduleCreated(vestingScheduleId) */\n      mload(0x40)\n      tag_241\n      swap2\n      swap1\n      tag_91\n      jump\t// in\n    tag_241:\n      mload(0x40)\n      dup1\n      swap2\n      sub\n      swap1\n      log1\n        /* \"contracts/ico/PaymeTokenVesting.sol\":6953:8427  {... */\n      pop\n      pop\n      pop\n      pop\n        /* \"contracts/ico/PaymeTokenVesting.sol\":6665:8427  function createVestingSchedule(... */\n      pop\n      pop\n      pop\n      pop\n      pop\n      pop\n      pop\n      pop\n      jump\t// out\n        /* \"contracts/ico/PaymeTokenVesting.sol\":13979:14228  function getLastVestingScheduleForHolder(address holder)... */\n    tag_83:\n        /* \"contracts/ico/PaymeTokenVesting.sol\":14080:14102  VestingSchedule memory */\n      tag_242\n      tag_243\n      jump\t// in\n    tag_242:\n        /* \"contracts/ico/PaymeTokenVesting.sol\":14120:14136  vestingSchedules */\n      0x06\n        /* \"contracts/ico/PaymeTokenVesting.sol\":14120:14221  vestingSchedules[computeVestingScheduleIdForAddressAndIndex(holder, holdersVestingCount[holder] - 1)] */\n      0x00\n        /* \"contracts/ico/PaymeTokenVesting.sol\":14137:14220  computeVestingScheduleIdForAddressAndIndex(holder, holdersVestingCount[holder] - 1) */\n      tag_245\n        /* \"contracts/ico/PaymeTokenVesting.sol\":14180:14186  holder */\n      dup5\n        /* \"contracts/ico/PaymeTokenVesting.sol\":14218:14219  1 */\n      0x01\n        /* \"contracts/ico/PaymeTokenVesting.sol\":14188:14207  holdersVestingCount */\n      0x09\n        /* \"contracts/ico/PaymeTokenVesting.sol\":14188:14215  holdersVestingCount[holder] */\n      0x00\n        /* \"contracts/ico/PaymeTokenVesting.sol\":14208:14214  holder */\n      dup9\n        /* \"contracts/ico/PaymeTokenVesting.sol\":14188:14215  holdersVestingCount[holder] */\n      0xffffffffffffffffffffffffffffffffffffffff\n      and\n      0xffffffffffffffffffffffffffffffffffffffff\n      and\n      dup2\n      mstore\n      0x20\n      add\n      swap1\n      dup2\n      mstore\n      0x20\n      add\n      0x00\n      keccak256\n      sload\n        /* \"contracts/ico/PaymeTokenVesting.sol\":14188:14219  holdersVestingCount[holder] - 1 */\n      tag_246\n      swap2\n      swap1\n      tag_238\n      jump\t// in\n    tag_246:\n        /* \"contracts/ico/PaymeTokenVesting.sol\":14137:14179  computeVestingScheduleIdForAddressAndIndex */\n      tag_89\n        /* \"contracts/ico/PaymeTokenVesting.sol\":14137:14220  computeVestingScheduleIdForAddressAndIndex(holder, holdersVestingCount[holder] - 1) */\n      jump\t// in\n    tag_245:\n        /* \"contracts/ico/PaymeTokenVesting.sol\":14120:14221  vestingSchedules[computeVestingScheduleIdForAddressAndIndex(holder, holdersVestingCount[holder] - 1)] */\n      dup2\n      mstore\n      0x20\n      add\n      swap1\n      dup2\n      mstore\n      0x20\n      add\n      0x00\n      keccak256\n        /* \"contracts/ico/PaymeTokenVesting.sol\":14113:14221  return vestingSchedules[computeVestingScheduleIdForAddressAndIndex(holder, holdersVestingCount[holder] - 1)] */\n      mload(0x40)\n      dup1\n      0x0160\n      add\n      0x40\n      mstore\n      swap1\n      dup2\n      0x00\n      dup3\n      add\n      0x00\n      swap1\n      sload\n      swap1\n      0x0100\n      exp\n      swap1\n      div\n      0xff\n      and\n      iszero\n      iszero\n      iszero\n      iszero\n      dup2\n      mstore\n      0x20\n      add\n      0x00\n      dup3\n      add\n      0x01\n      swap1\n      sload\n      swap1\n      0x0100\n      exp\n      swap1\n      div\n      0xffffffffffffffffffffffffffffffffffffffff\n      and\n      0xffffffffffffffffffffffffffffffffffffffff\n      and\n      0xffffffffffffffffffffffffffffffffffffffff\n      and\n      dup2\n      mstore\n      0x20\n      add\n      0x01\n      dup3\n      add\n      sload\n      dup2\n      mstore\n      0x20\n      add\n      0x02\n      dup3\n      add\n      sload\n      dup2\n      mstore\n      0x20\n      add\n      0x03\n      dup3\n      add\n      sload\n      dup2\n      mstore\n      0x20\n      add\n      0x04\n      dup3\n      add\n      sload\n      dup2\n      mstore\n      0x20\n      add\n      0x05\n      dup3\n      add\n      0x00\n      swap1\n      sload\n      swap1\n      0x0100\n      exp\n      swap1\n      div\n      0xff\n      and\n      iszero\n      iszero\n      iszero\n      iszero\n      dup2\n      mstore\n      0x20\n      add\n      0x06\n      dup3\n      add\n      sload\n      dup2\n      mstore\n      0x20\n      add\n      0x07\n      dup3\n      add\n      sload\n      dup2\n      mstore\n      0x20\n      add\n      0x08\n      dup3\n      add\n      0x00\n      swap1\n      sload\n      swap1\n      0x0100\n      exp\n      swap1\n      div\n      0xff\n      and\n      iszero\n      iszero\n      iszero\n      iszero\n      dup2\n      mstore\n      0x20\n      add\n      0x08\n      dup3\n      add\n      0x01\n      swap1\n      sload\n      swap1\n      0x0100\n      exp\n      swap1\n      div\n      0xff\n      and\n      iszero\n      iszero\n      iszero\n      iszero\n      dup2\n      mstore\n      pop\n      pop\n      swap1\n      pop\n        /* \"contracts/ico/PaymeTokenVesting.sol\":13979:14228  function getLastVestingScheduleForHolder(address holder)... */\n      swap2\n      swap1\n      pop\n      jump\t// out\n        /* \"contracts/ico/PaymeTokenVesting.sol\":14330:14531  function computeVestingScheduleIdForAddressAndIndex(address holder, uint256 index)... */\n    tag_89:\n        /* \"contracts/ico/PaymeTokenVesting.sol\":14457:14464  bytes32 */\n      0x00\n        /* \"contracts/ico/PaymeTokenVesting.sol\":14509:14515  holder */\n      dup3\n        /* \"contracts/ico/PaymeTokenVesting.sol\":14517:14522  index */\n      dup3\n        /* \"contracts/ico/PaymeTokenVesting.sol\":14492:14523  abi.encodePacked(holder, index) */\n      add(0x20, mload(0x40))\n      tag_248\n      swap3\n      swap2\n      swap1\n      tag_249\n      jump\t// in\n    tag_248:\n      mload(0x40)\n      0x20\n      dup2\n      dup4\n      sub\n      sub\n      dup2\n      mstore\n      swap1\n      0x40\n      mstore\n        /* \"contracts/ico/PaymeTokenVesting.sol\":14482:14524  keccak256(abi.encodePacked(holder, index)) */\n      dup1\n      mload\n      swap1\n      0x20\n      add\n      keccak256\n        /* \"contracts/ico/PaymeTokenVesting.sol\":14475:14524  return keccak256(abi.encodePacked(holder, index)) */\n      swap1\n      pop\n        /* \"contracts/ico/PaymeTokenVesting.sol\":14330:14531  function computeVestingScheduleIdForAddressAndIndex(address holder, uint256 index)... */\n      swap3\n      swap2\n      pop\n      pop\n      jump\t// out\n        /* \"contracts/ico/PaymeTokenVesting.sol\":9640:10911  function releaseForTGE(bytes32 vestingScheduleId)... */\n    tag_95:\n        /* \"@openzeppelin/contracts/security/ReentrancyGuard.sol\":1744:1745  2 */\n      0x02\n        /* \"@openzeppelin/contracts/security/ReentrancyGuard.sol\":2325:2332  _status */\n      sload(0x01)\n        /* \"@openzeppelin/contracts/security/ReentrancyGuard.sol\":2325:2344  _status != _ENTERED */\n      eq\n      iszero\n        /* \"@openzeppelin/contracts/security/ReentrancyGuard.sol\":2317:2380  require(_status != _ENTERED, \"ReentrancyGuard: reentrant call\") */\n      tag_251\n      jumpi\n      mload(0x40)\n      0x08c379a000000000000000000000000000000000000000000000000000000000\n      dup2\n      mstore\n      0x04\n      add\n      tag_252\n      swap1\n      tag_154\n      jump\t// in\n    tag_252:\n      mload(0x40)\n      dup1\n      swap2\n      sub\n      swap1\n      revert\n    tag_251:\n        /* \"@openzeppelin/contracts/security/ReentrancyGuard.sol\":1744:1745  2 */\n      0x02\n        /* \"@openzeppelin/contracts/security/ReentrancyGuard.sol\":2455:2462  _status */\n      0x01\n        /* \"@openzeppelin/contracts/security/ReentrancyGuard.sol\":2455:2473  _status = _ENTERED */\n      dup2\n      swap1\n      sstore\n      pop\n        /* \"contracts/ico/PaymeTokenVesting.sol\":9733:9772  VestingSchedule storage vestingSchedule */\n      0x00\n        /* \"contracts/ico/PaymeTokenVesting.sol\":9775:9791  vestingSchedules */\n      0x06\n        /* \"contracts/ico/PaymeTokenVesting.sol\":9775:9810  vestingSchedules[vestingScheduleId] */\n      0x00\n        /* \"contracts/ico/PaymeTokenVesting.sol\":9792:9809  vestingScheduleId */\n      dup4\n        /* \"contracts/ico/PaymeTokenVesting.sol\":9775:9810  vestingSchedules[vestingScheduleId] */\n      dup2\n      mstore\n      0x20\n      add\n      swap1\n      dup2\n      mstore\n      0x20\n      add\n      0x00\n      keccak256\n        /* \"contracts/ico/PaymeTokenVesting.sol\":9733:9810  VestingSchedule storage vestingSchedule = vestingSchedules[vestingScheduleId] */\n      swap1\n      pop\n        /* \"contracts/ico/PaymeTokenVesting.sol\":9820:9838  bool isBeneficiary */\n      0x00\n        /* \"contracts/ico/PaymeTokenVesting.sol\":9855:9870  vestingSchedule */\n      dup2\n        /* \"contracts/ico/PaymeTokenVesting.sol\":9855:9882  vestingSchedule.beneficiary */\n      0x00\n      add\n      0x01\n      swap1\n      sload\n      swap1\n      0x0100\n      exp\n      swap1\n      div\n      0xffffffffffffffffffffffffffffffffffffffff\n      and\n        /* \"contracts/ico/PaymeTokenVesting.sol\":9841:9882  msg.sender == vestingSchedule.beneficiary */\n      0xffffffffffffffffffffffffffffffffffffffff\n      and\n        /* \"contracts/ico/PaymeTokenVesting.sol\":9841:9851  msg.sender */\n      caller\n        /* \"contracts/ico/PaymeTokenVesting.sol\":9841:9882  msg.sender == vestingSchedule.beneficiary */\n      0xffffffffffffffffffffffffffffffffffffffff\n      and\n      eq\n        /* \"contracts/ico/PaymeTokenVesting.sol\":9820:9882  bool isBeneficiary = msg.sender == vestingSchedule.beneficiary */\n      swap1\n      pop\n        /* \"contracts/ico/PaymeTokenVesting.sol\":9892:9904  bool isOwner */\n      0x00\n        /* \"contracts/ico/PaymeTokenVesting.sol\":9921:9928  owner() */\n      tag_254\n        /* \"contracts/ico/PaymeTokenVesting.sol\":9921:9926  owner */\n      tag_97\n        /* \"contracts/ico/PaymeTokenVesting.sol\":9921:9928  owner() */\n      jump\t// in\n    tag_254:\n        /* \"contracts/ico/PaymeTokenVesting.sol\":9907:9928  msg.sender == owner() */\n      0xffffffffffffffffffffffffffffffffffffffff\n      and\n        /* \"contracts/ico/PaymeTokenVesting.sol\":9907:9917  msg.sender */\n      caller\n        /* \"contracts/ico/PaymeTokenVesting.sol\":9907:9928  msg.sender == owner() */\n      0xffffffffffffffffffffffffffffffffffffffff\n      and\n      eq\n        /* \"contracts/ico/PaymeTokenVesting.sol\":9892:9928  bool isOwner = msg.sender == owner() */\n      swap1\n      pop\n        /* \"contracts/ico/PaymeTokenVesting.sol\":9959:9972  isBeneficiary */\n      dup2\n        /* \"contracts/ico/PaymeTokenVesting.sol\":9959:9983  isBeneficiary || isOwner */\n      dup1\n      tag_255\n      jumpi\n      pop\n        /* \"contracts/ico/PaymeTokenVesting.sol\":9976:9983  isOwner */\n      dup1\n        /* \"contracts/ico/PaymeTokenVesting.sol\":9959:9983  isBeneficiary || isOwner */\n    tag_255:\n        /* \"contracts/ico/PaymeTokenVesting.sol\":9938:10075  require(... */\n      tag_256\n      jumpi\n      mload(0x40)\n      0x08c379a000000000000000000000000000000000000000000000000000000000\n      dup2\n      mstore\n      0x04\n      add\n      tag_257\n      swap1\n      tag_183\n      jump\t// in\n    tag_257:\n      mload(0x40)\n      dup1\n      swap2\n      sub\n      swap1\n      revert\n    tag_256:\n        /* \"contracts/ico/PaymeTokenVesting.sol\":10107:10122  vestingSchedule */\n      dup3\n        /* \"contracts/ico/PaymeTokenVesting.sol\":10107:10135  vestingSchedule.releaseAtTGE */\n      0x08\n      add\n      0x01\n      swap1\n      sload\n      swap1\n      0x0100\n      exp\n      swap1\n      div\n      0xff\n      and\n        /* \"contracts/ico/PaymeTokenVesting.sol\":10086:10217  require(... */\n      tag_258\n      jumpi\n      mload(0x40)\n      0x08c379a000000000000000000000000000000000000000000000000000000000\n      dup2\n      mstore\n      0x04\n      add\n      tag_259\n      swap1\n      tag_260\n      jump\t// in\n    tag_259:\n      mload(0x40)\n      dup1\n      swap2\n      sub\n      swap1\n      revert\n    tag_258:\n        /* \"contracts/ico/PaymeTokenVesting.sol\":10236:10255  uint256 currentTime */\n      0x00\n        /* \"contracts/ico/PaymeTokenVesting.sol\":10258:10274  getCurrentTime() */\n      tag_261\n        /* \"contracts/ico/PaymeTokenVesting.sol\":10258:10272  getCurrentTime */\n      tag_55\n        /* \"contracts/ico/PaymeTokenVesting.sol\":10258:10274  getCurrentTime() */\n      jump\t// in\n    tag_261:\n        /* \"contracts/ico/PaymeTokenVesting.sol\":10236:10274  uint256 currentTime = getCurrentTime() */\n      swap1\n      pop\n        /* \"contracts/ico/PaymeTokenVesting.sol\":10308:10322  tgeOpeningTime */\n      sload(0x04)\n        /* \"contracts/ico/PaymeTokenVesting.sol\":10293:10304  currentTime */\n      dup2\n        /* \"contracts/ico/PaymeTokenVesting.sol\":10293:10322  currentTime >= tgeOpeningTime */\n      lt\n      iszero\n        /* \"contracts/ico/PaymeTokenVesting.sol\":10285:10349  require(currentTime >= tgeOpeningTime, \"TGE: time not reached!\") */\n      tag_262\n      jumpi\n      mload(0x40)\n      0x08c379a000000000000000000000000000000000000000000000000000000000\n      dup2\n      mstore\n      0x04\n      add\n      tag_263\n      swap1\n      tag_264\n      jump\t// in\n    tag_263:\n      mload(0x40)\n      dup1\n      swap2\n      sub\n      swap1\n      revert\n    tag_262:\n        /* \"contracts/ico/PaymeTokenVesting.sol\":10410:10411  0 */\n      0x00\n        /* \"contracts/ico/PaymeTokenVesting.sol\":10367:10387  tgeTokenParticipants */\n      0x0a\n        /* \"contracts/ico/PaymeTokenVesting.sol\":10367:10406  tgeTokenParticipants[vestingScheduleId] */\n      0x00\n        /* \"contracts/ico/PaymeTokenVesting.sol\":10388:10405  vestingScheduleId */\n      dup8\n        /* \"contracts/ico/PaymeTokenVesting.sol\":10367:10406  tgeTokenParticipants[vestingScheduleId] */\n      dup2\n      mstore\n      0x20\n      add\n      swap1\n      dup2\n      mstore\n      0x20\n      add\n      0x00\n      keccak256\n      sload\n        /* \"contracts/ico/PaymeTokenVesting.sol\":10367:10411  tgeTokenParticipants[vestingScheduleId] == 0 */\n      eq\n        /* \"contracts/ico/PaymeTokenVesting.sol\":10359:10442  require(tgeTokenParticipants[vestingScheduleId] == 0, \"TGE: Token Already claimed\") */\n      tag_265\n      jumpi\n      mload(0x40)\n      0x08c379a000000000000000000000000000000000000000000000000000000000\n      dup2\n      mstore\n      0x04\n      add\n      tag_266\n      swap1\n      tag_267\n      jump\t// in\n    tag_266:\n      mload(0x40)\n      dup1\n      swap2\n      sub\n      swap1\n      revert\n    tag_265:\n        /* \"contracts/ico/PaymeTokenVesting.sol\":10461:10485  uint256 TGEReleaseAmount */\n      0x00\n        /* \"contracts/ico/PaymeTokenVesting.sol\":10488:10540  vestingSchedule.amountTotal.mul(tgePercent).div(100) */\n      tag_268\n        /* \"contracts/ico/PaymeTokenVesting.sol\":10536:10539  100 */\n      0x64\n        /* \"contracts/ico/PaymeTokenVesting.sol\":10488:10531  vestingSchedule.amountTotal.mul(tgePercent) */\n      tag_269\n        /* \"contracts/ico/PaymeTokenVesting.sol\":10520:10530  tgePercent */\n      sload(0x03)\n        /* \"contracts/ico/PaymeTokenVesting.sol\":10488:10503  vestingSchedule */\n      dup9\n        /* \"contracts/ico/PaymeTokenVesting.sol\":10488:10515  vestingSchedule.amountTotal */\n      0x06\n      add\n      sload\n        /* \"contracts/ico/PaymeTokenVesting.sol\":10488:10519  vestingSchedule.amountTotal.mul */\n      tag_233\n      swap1\n        /* \"contracts/ico/PaymeTokenVesting.sol\":10488:10531  vestingSchedule.amountTotal.mul(tgePercent) */\n      swap2\n      swap1\n      0xffffffff\n      and\n      jump\t// in\n    tag_269:\n        /* \"contracts/ico/PaymeTokenVesting.sol\":10488:10535  vestingSchedule.amountTotal.mul(tgePercent).div */\n      tag_234\n      swap1\n        /* \"contracts/ico/PaymeTokenVesting.sol\":10488:10540  vestingSchedule.amountTotal.mul(tgePercent).div(100) */\n      swap2\n      swap1\n      0xffffffff\n      and\n      jump\t// in\n    tag_268:\n        /* \"contracts/ico/PaymeTokenVesting.sol\":10461:10540  uint256 TGEReleaseAmount = vestingSchedule.amountTotal.mul(tgePercent).div(100) */\n      swap1\n      pop\n        /* \"contracts/ico/PaymeTokenVesting.sol\":10593:10609  TGEReleaseAmount */\n      dup1\n        /* \"contracts/ico/PaymeTokenVesting.sol\":10551:10571  tgeTokenParticipants */\n      0x0a\n        /* \"contracts/ico/PaymeTokenVesting.sol\":10551:10590  tgeTokenParticipants[vestingScheduleId] */\n      0x00\n        /* \"contracts/ico/PaymeTokenVesting.sol\":10572:10589  vestingScheduleId */\n      dup9\n        /* \"contracts/ico/PaymeTokenVesting.sol\":10551:10590  tgeTokenParticipants[vestingScheduleId] */\n      dup2\n      mstore\n      0x20\n      add\n      swap1\n      dup2\n      mstore\n      0x20\n      add\n      0x00\n      keccak256\n        /* \"contracts/ico/PaymeTokenVesting.sol\":10551:10609  tgeTokenParticipants[vestingScheduleId] = TGEReleaseAmount */\n      dup2\n      swap1\n      sstore\n      pop\n        /* \"contracts/ico/PaymeTokenVesting.sol\":10620:10654  address payable beneficiaryPayable */\n      0x00\n        /* \"contracts/ico/PaymeTokenVesting.sol\":10665:10680  vestingSchedule */\n      dup6\n        /* \"contracts/ico/PaymeTokenVesting.sol\":10665:10692  vestingSchedule.beneficiary */\n      0x00\n      add\n      0x01\n      swap1\n      sload\n      swap1\n      0x0100\n      exp\n      swap1\n      div\n      0xffffffffffffffffffffffffffffffffffffffff\n      and\n        /* \"contracts/ico/PaymeTokenVesting.sol\":10620:10693  address payable beneficiaryPayable = payable(vestingSchedule.beneficiary) */\n      swap1\n      pop\n        /* \"contracts/ico/PaymeTokenVesting.sol\":10729:10765  tgeTotalAmount.sub(TGEReleaseAmount) */\n      tag_270\n        /* \"contracts/ico/PaymeTokenVesting.sol\":10748:10764  TGEReleaseAmount */\n      dup3\n        /* \"contracts/ico/PaymeTokenVesting.sol\":10729:10743  tgeTotalAmount */\n      sload(0x08)\n        /* \"contracts/ico/PaymeTokenVesting.sol\":10729:10747  tgeTotalAmount.sub */\n      tag_193\n      swap1\n        /* \"contracts/ico/PaymeTokenVesting.sol\":10729:10765  tgeTotalAmount.sub(TGEReleaseAmount) */\n      swap2\n      swap1\n      0xffffffff\n      and\n      jump\t// in\n    tag_270:\n        /* \"contracts/ico/PaymeTokenVesting.sol\":10712:10726  tgeTotalAmount */\n      0x08\n        /* \"contracts/ico/PaymeTokenVesting.sol\":10712:10765  tgeTotalAmount = tgeTotalAmount.sub(TGEReleaseAmount) */\n      dup2\n      swap1\n      sstore\n      pop\n        /* \"contracts/ico/PaymeTokenVesting.sol\":10776:10833  _token.safeTransfer(beneficiaryPayable, TGEReleaseAmount) */\n      tag_271\n        /* \"contracts/ico/PaymeTokenVesting.sol\":10796:10814  beneficiaryPayable */\n      dup2\n        /* \"contracts/ico/PaymeTokenVesting.sol\":10816:10832  TGEReleaseAmount */\n      dup4\n        /* \"contracts/ico/PaymeTokenVesting.sol\":10776:10782  _token */\n      0x02\n      0x00\n      swap1\n      sload\n      swap1\n      0x0100\n      exp\n      swap1\n      div\n      0xffffffffffffffffffffffffffffffffffffffff\n      and\n        /* \"contracts/ico/PaymeTokenVesting.sol\":10776:10795  _token.safeTransfer */\n      0xffffffffffffffffffffffffffffffffffffffff\n      and\n      tag_169\n      swap1\n        /* \"contracts/ico/PaymeTokenVesting.sol\":10776:10833  _token.safeTransfer(beneficiaryPayable, TGEReleaseAmount) */\n      swap3\n      swap2\n      swap1\n      0xffffffff\n      and\n      jump\t// in\n    tag_271:\n        /* \"contracts/ico/PaymeTokenVesting.sol\":10849:10904  TokenReleasedAtTGE(beneficiaryPayable,TGEReleaseAmount) */\n      0xd9215c0345f0d530c5101edea49413960423257c62dd4dcc18b5e6c0b63a0227\n        /* \"contracts/ico/PaymeTokenVesting.sol\":10868:10886  beneficiaryPayable */\n      dup2\n        /* \"contracts/ico/PaymeTokenVesting.sol\":10887:10903  TGEReleaseAmount */\n      dup4\n        /* \"contracts/ico/PaymeTokenVesting.sol\":10849:10904  TokenReleasedAtTGE(beneficiaryPayable,TGEReleaseAmount) */\n      mload(0x40)\n      tag_272\n      swap3\n      swap2\n      swap1\n      tag_273\n      jump\t// in\n    tag_272:\n      mload(0x40)\n      dup1\n      swap2\n      sub\n      swap1\n      log1\n        /* \"contracts/ico/PaymeTokenVesting.sol\":9722:10911  {... */\n      pop\n      pop\n      pop\n      pop\n      pop\n      pop\n        /* \"@openzeppelin/contracts/security/ReentrancyGuard.sol\":1701:1702  1 */\n      0x01\n        /* \"@openzeppelin/contracts/security/ReentrancyGuard.sol\":2628:2635  _status */\n      dup1\n        /* \"@openzeppelin/contracts/security/ReentrancyGuard.sol\":2628:2650  _status = _NOT_ENTERED */\n      dup2\n      swap1\n      sstore\n      pop\n        /* \"contracts/ico/PaymeTokenVesting.sol\":9640:10911  function releaseForTGE(bytes32 vestingScheduleId)... */\n      pop\n      jump\t// out\n        /* \"@openzeppelin/contracts/access/Ownable.sol\":1201:1286  function owner() public view virtual returns (address) {... */\n    tag_97:\n        /* \"@openzeppelin/contracts/access/Ownable.sol\":1247:1254  address */\n      0x00\n        /* \"@openzeppelin/contracts/access/Ownable.sol\":1273:1279  _owner */\n      dup1\n      0x00\n      swap1\n      sload\n      swap1\n      0x0100\n      exp\n      swap1\n      div\n      0xffffffffffffffffffffffffffffffffffffffff\n      and\n        /* \"@openzeppelin/contracts/access/Ownable.sol\":1266:1279  return _owner */\n      swap1\n      pop\n        /* \"@openzeppelin/contracts/access/Ownable.sol\":1201:1286  function owner() public view virtual returns (address) {... */\n      swap1\n      jump\t// out\n        /* \"contracts/ico/PaymeTokenVesting.sol\":13388:13561  function getWithdrawableAmount()... */\n    tag_100:\n        /* \"contracts/ico/PaymeTokenVesting.sol\":13465:13472  uint256 */\n      0x00\n        /* \"contracts/ico/PaymeTokenVesting.sol\":13490:13554  _token.balanceOf(address(this)).sub(vestingSchedulesTotalAmount) */\n      tag_276\n        /* \"contracts/ico/PaymeTokenVesting.sol\":13526:13553  vestingSchedulesTotalAmount */\n      sload(0x07)\n        /* \"contracts/ico/PaymeTokenVesting.sol\":13490:13496  _token */\n      0x02\n      0x00\n      swap1\n      sload\n      swap1\n      0x0100\n      exp\n      swap1\n      div\n      0xffffffffffffffffffffffffffffffffffffffff\n      and\n        /* \"contracts/ico/PaymeTokenVesting.sol\":13490:13506  _token.balanceOf */\n      0xffffffffffffffffffffffffffffffffffffffff\n      and\n      0x70a08231\n        /* \"contracts/ico/PaymeTokenVesting.sol\":13515:13519  this */\n      address\n        /* \"contracts/ico/PaymeTokenVesting.sol\":13490:13521  _token.balanceOf(address(this)) */\n      mload(0x40)\n      dup3\n      0xffffffff\n      and\n      0xe0\n      shl\n      dup2\n      mstore\n      0x04\n      add\n      tag_277\n      swap2\n      swap1\n      tag_50\n      jump\t// in\n    tag_277:\n      0x20\n      mload(0x40)\n      dup1\n      dup4\n      sub\n      dup2\n      dup7\n      dup1\n      extcodesize\n      iszero\n      dup1\n      iszero\n      tag_278\n      jumpi\n      0x00\n      dup1\n      revert\n    tag_278:\n      pop\n      gas\n      staticcall\n      iszero\n      dup1\n      iszero\n      tag_280\n      jumpi\n      returndatasize\n      0x00\n      dup1\n      returndatacopy\n      revert(0x00, returndatasize)\n    tag_280:\n      pop\n      pop\n      pop\n      pop\n      mload(0x40)\n      returndatasize\n      not(0x1f)\n      0x1f\n      dup3\n      add\n      and\n      dup3\n      add\n      dup1\n      0x40\n      mstore\n      pop\n      dup2\n      add\n      swap1\n      tag_281\n      swap2\n      swap1\n      tag_163\n      jump\t// in\n    tag_281:\n        /* \"contracts/ico/PaymeTokenVesting.sol\":13490:13525  _token.balanceOf(address(this)).sub */\n      tag_193\n      swap1\n        /* \"contracts/ico/PaymeTokenVesting.sol\":13490:13554  _token.balanceOf(address(this)).sub(vestingSchedulesTotalAmount) */\n      swap2\n      swap1\n      0xffffffff\n      and\n      jump\t// in\n    tag_276:\n        /* \"contracts/ico/PaymeTokenVesting.sol\":13483:13554  return _token.balanceOf(address(this)).sub(vestingSchedulesTotalAmount) */\n      swap1\n      pop\n        /* \"contracts/ico/PaymeTokenVesting.sol\":13388:13561  function getWithdrawableAmount()... */\n      swap1\n      jump\t// out\n        /* \"contracts/ico/PaymeTokenVesting.sol\":3763:3875  function getTGEOpeningTime()... */\n    tag_103:\n        /* \"contracts/ico/PaymeTokenVesting.sol\":3828:3835  uint256 */\n      0x00\n        /* \"contracts/ico/PaymeTokenVesting.sol\":3854:3868  tgeOpeningTime */\n      sload(0x04)\n        /* \"contracts/ico/PaymeTokenVesting.sol\":3847:3868  return tgeOpeningTime */\n      swap1\n      pop\n        /* \"contracts/ico/PaymeTokenVesting.sol\":3763:3875  function getTGEOpeningTime()... */\n      swap1\n      jump\t// out\n        /* \"contracts/ico/PaymeTokenVesting.sol\":13075:13256  function getVestingSchedule(bytes32 vestingScheduleId)... */\n    tag_107:\n        /* \"contracts/ico/PaymeTokenVesting.sol\":13174:13196  VestingSchedule memory */\n      tag_283\n      tag_243\n      jump\t// in\n    tag_283:\n        /* \"contracts/ico/PaymeTokenVesting.sol\":13214:13230  vestingSchedules */\n      0x06\n        /* \"contracts/ico/PaymeTokenVesting.sol\":13214:13249  vestingSchedules[vestingScheduleId] */\n      0x00\n        /* \"contracts/ico/PaymeTokenVesting.sol\":13231:13248  vestingScheduleId */\n      dup4\n        /* \"contracts/ico/PaymeTokenVesting.sol\":13214:13249  vestingSchedules[vestingScheduleId] */\n      dup2\n      mstore\n      0x20\n      add\n      swap1\n      dup2\n      mstore\n      0x20\n      add\n      0x00\n      keccak256\n        /* \"contracts/ico/PaymeTokenVesting.sol\":13207:13249  return vestingSchedules[vestingScheduleId] */\n      mload(0x40)\n      dup1\n      0x0160\n      add\n      0x40\n      mstore\n      swap1\n      dup2\n      0x00\n      dup3\n      add\n      0x00\n      swap1\n      sload\n      swap1\n      0x0100\n      exp\n      swap1\n      div\n      0xff\n      and\n      iszero\n      iszero\n      iszero\n      iszero\n      dup2\n      mstore\n      0x20\n      add\n      0x00\n      dup3\n      add\n      0x01\n      swap1\n      sload\n      swap1\n      0x0100\n      exp\n      swap1\n      div\n      0xffffffffffffffffffffffffffffffffffffffff\n      and\n      0xffffffffffffffffffffffffffffffffffffffff\n      and\n      0xffffffffffffffffffffffffffffffffffffffff\n      and\n      dup2\n      mstore\n      0x20\n      add\n      0x01\n      dup3\n      add\n      sload\n      dup2\n      mstore\n      0x20\n      add\n      0x02\n      dup3\n      add\n      sload\n      dup2\n      mstore\n      0x20\n      add\n      0x03\n      dup3\n      add\n      sload\n      dup2\n      mstore\n      0x20\n      add\n      0x04\n      dup3\n      add\n      sload\n      dup2\n      mstore\n      0x20\n      add\n      0x05\n      dup3\n      add\n      0x00\n      swap1\n      sload\n      swap1\n      0x0100\n      exp\n      swap1\n      div\n      0xff\n      and\n      iszero\n      iszero\n      iszero\n      iszero\n      dup2\n      mstore\n      0x20\n      add\n      0x06\n      dup3\n      add\n      sload\n      dup2\n      mstore\n      0x20\n      add\n      0x07\n      dup3\n      add\n      sload\n      dup2\n      mstore\n      0x20\n      add\n      0x08\n      dup3\n      add\n      0x00\n      swap1\n      sload\n      swap1\n      0x0100\n      exp\n      swap1\n      div\n      0xff\n      and\n      iszero\n      iszero\n      iszero\n      iszero\n      dup2\n      mstore\n      0x20\n      add\n      0x08\n      dup3\n      add\n      0x01\n      swap1\n      sload\n      swap1\n      0x0100\n      exp\n      swap1\n      div\n      0xff\n      and\n      iszero\n      iszero\n      iszero\n      iszero\n      dup2\n      mstore\n      pop\n      pop\n      swap1\n      pop\n        /* \"contracts/ico/PaymeTokenVesting.sol\":13075:13256  function getVestingSchedule(bytes32 vestingScheduleId)... */\n      swap2\n      swap1\n      pop\n      jump\t// out\n        /* \"contracts/ico/PaymeTokenVesting.sol\":8576:9269  function revoke(bytes32 vestingScheduleId)... */\n    tag_111:\n        /* \"@openzeppelin/contracts/access/Ownable.sol\":1094:1107  _checkOwner() */\n      tag_286\n        /* \"@openzeppelin/contracts/access/Ownable.sol\":1094:1105  _checkOwner */\n      tag_157\n        /* \"@openzeppelin/contracts/access/Ownable.sol\":1094:1107  _checkOwner() */\n      jump\t// in\n    tag_286:\n        /* \"contracts/ico/PaymeTokenVesting.sol\":8692:8709  vestingScheduleId */\n      dup1\n        /* \"contracts/ico/PaymeTokenVesting.sol\":2635:2651  vestingSchedules */\n      0x06\n        /* \"contracts/ico/PaymeTokenVesting.sol\":2635:2670  vestingSchedules[vestingScheduleId] */\n      0x00\n        /* \"contracts/ico/PaymeTokenVesting.sol\":2652:2669  vestingScheduleId */\n      dup3\n        /* \"contracts/ico/PaymeTokenVesting.sol\":2635:2670  vestingSchedules[vestingScheduleId] */\n      dup2\n      mstore\n      0x20\n      add\n      swap1\n      dup2\n      mstore\n      0x20\n      add\n      0x00\n      keccak256\n        /* \"contracts/ico/PaymeTokenVesting.sol\":2635:2682  vestingSchedules[vestingScheduleId].initialized */\n      0x00\n      add\n      0x00\n      swap1\n      sload\n      swap1\n      0x0100\n      exp\n      swap1\n      div\n      0xff\n      and\n        /* \"contracts/ico/PaymeTokenVesting.sol\":2627:2683  require(vestingSchedules[vestingScheduleId].initialized) */\n      tag_288\n      jumpi\n      0x00\n      dup1\n      revert\n    tag_288:\n        /* \"contracts/ico/PaymeTokenVesting.sol\":2702:2718  vestingSchedules */\n      0x06\n        /* \"contracts/ico/PaymeTokenVesting.sol\":2702:2737  vestingSchedules[vestingScheduleId] */\n      0x00\n        /* \"contracts/ico/PaymeTokenVesting.sol\":2719:2736  vestingScheduleId */\n      dup3\n        /* \"contracts/ico/PaymeTokenVesting.sol\":2702:2737  vestingSchedules[vestingScheduleId] */\n      dup2\n      mstore\n      0x20\n      add\n      swap1\n      dup2\n      mstore\n      0x20\n      add\n      0x00\n      keccak256\n        /* \"contracts/ico/PaymeTokenVesting.sol\":2702:2745  vestingSchedules[vestingScheduleId].revoked */\n      0x08\n      add\n      0x00\n      swap1\n      sload\n      swap1\n      0x0100\n      exp\n      swap1\n      div\n      0xff\n      and\n        /* \"contracts/ico/PaymeTokenVesting.sol\":2701:2745  !vestingSchedules[vestingScheduleId].revoked */\n      iszero\n        /* \"contracts/ico/PaymeTokenVesting.sol\":2693:2746  require(!vestingSchedules[vestingScheduleId].revoked) */\n      tag_289\n      jumpi\n      0x00\n      dup1\n      revert\n    tag_289:\n        /* \"contracts/ico/PaymeTokenVesting.sol\":8720:8759  VestingSchedule storage vestingSchedule */\n      0x00\n        /* \"contracts/ico/PaymeTokenVesting.sol\":8762:8778  vestingSchedules */\n      0x06\n        /* \"contracts/ico/PaymeTokenVesting.sol\":8762:8797  vestingSchedules[vestingScheduleId] */\n      0x00\n        /* \"contracts/ico/PaymeTokenVesting.sol\":8779:8796  vestingScheduleId */\n      dup5\n        /* \"contracts/ico/PaymeTokenVesting.sol\":8762:8797  vestingSchedules[vestingScheduleId] */\n      dup2\n      mstore\n      0x20\n      add\n      swap1\n      dup2\n      mstore\n      0x20\n      add\n      0x00\n      keccak256\n        /* \"contracts/ico/PaymeTokenVesting.sol\":8720:8797  VestingSchedule storage vestingSchedule = vestingSchedules[vestingScheduleId] */\n      swap1\n      pop\n        /* \"contracts/ico/PaymeTokenVesting.sol\":8815:8830  vestingSchedule */\n      dup1\n        /* \"contracts/ico/PaymeTokenVesting.sol\":8815:8840  vestingSchedule.revocable */\n      0x05\n      add\n      0x00\n      swap1\n      sload\n      swap1\n      0x0100\n      exp\n      swap1\n      div\n      0xff\n      and\n        /* \"contracts/ico/PaymeTokenVesting.sol\":8807:8883  require(vestingSchedule.revocable, \"TokenVesting: vesting is not revocable\") */\n      tag_291\n      jumpi\n      mload(0x40)\n      0x08c379a000000000000000000000000000000000000000000000000000000000\n      dup2\n      mstore\n      0x04\n      add\n      tag_292\n      swap1\n      tag_293\n      jump\t// in\n    tag_292:\n      mload(0x40)\n      dup1\n      swap2\n      sub\n      swap1\n      revert\n    tag_291:\n        /* \"contracts/ico/PaymeTokenVesting.sol\":8893:8913  uint256 vestedAmount */\n      0x00\n        /* \"contracts/ico/PaymeTokenVesting.sol\":8916:8957  _computeReleasableAmount(vestingSchedule) */\n      tag_294\n        /* \"contracts/ico/PaymeTokenVesting.sol\":8941:8956  vestingSchedule */\n      dup3\n        /* \"contracts/ico/PaymeTokenVesting.sol\":8916:8957  _computeReleasableAmount(vestingSchedule) */\n      mload(0x40)\n      dup1\n      0x0160\n      add\n      0x40\n      mstore\n      swap1\n      dup2\n      0x00\n      dup3\n      add\n      0x00\n      swap1\n      sload\n      swap1\n      0x0100\n      exp\n      swap1\n      div\n      0xff\n      and\n      iszero\n      iszero\n      iszero\n      iszero\n      dup2\n      mstore\n      0x20\n      add\n      0x00\n      dup3\n      add\n      0x01\n      swap1\n      sload\n      swap1\n      0x0100\n      exp\n      swap1\n      div\n      0xffffffffffffffffffffffffffffffffffffffff\n      and\n      0xffffffffffffffffffffffffffffffffffffffff\n      and\n      0xffffffffffffffffffffffffffffffffffffffff\n      and\n      dup2\n      mstore\n      0x20\n      add\n      0x01\n      dup3\n      add\n      sload\n      dup2\n      mstore\n      0x20\n      add\n      0x02\n      dup3\n      add\n      sload\n      dup2\n      mstore\n      0x20\n      add\n      0x03\n      dup3\n      add\n      sload\n      dup2\n      mstore\n      0x20\n      add\n      0x04\n      dup3\n      add\n      sload\n      dup2\n      mstore\n      0x20\n      add\n      0x05\n      dup3\n      add\n      0x00\n      swap1\n      sload\n      swap1\n      0x0100\n      exp\n      swap1\n      div\n      0xff\n      and\n      iszero\n      iszero\n      iszero\n      iszero\n      dup2\n      mstore\n      0x20\n      add\n      0x06\n      dup3\n      add\n      sload\n      dup2\n      mstore\n      0x20\n      add\n      0x07\n      dup3\n      add\n      sload\n      dup2\n      mstore\n      0x20\n      add\n      0x08\n      dup3\n      add\n      0x00\n      swap1\n      sload\n      swap1\n      0x0100\n      exp\n      swap1\n      div\n      0xff\n      and\n      iszero\n      iszero\n      iszero\n      iszero\n      dup2\n      mstore\n      0x20\n      add\n      0x08\n      dup3\n      add\n      0x01\n      swap1\n      sload\n      swap1\n      0x0100\n      exp\n      swap1\n      div\n      0xff\n      and\n      iszero\n      iszero\n      iszero\n      iszero\n      dup2\n      mstore\n      pop\n      pop\n        /* \"contracts/ico/PaymeTokenVesting.sol\":8916:8940  _computeReleasableAmount */\n      tag_185\n        /* \"contracts/ico/PaymeTokenVesting.sol\":8916:8957  _computeReleasableAmount(vestingSchedule) */\n      jump\t// in\n    tag_294:\n        /* \"contracts/ico/PaymeTokenVesting.sol\":8893:8957  uint256 vestedAmount = _computeReleasableAmount(vestingSchedule) */\n      swap1\n      pop\n        /* \"contracts/ico/PaymeTokenVesting.sol\":8985:8986  0 */\n      0x00\n        /* \"contracts/ico/PaymeTokenVesting.sol\":8970:8982  vestedAmount */\n      dup2\n        /* \"contracts/ico/PaymeTokenVesting.sol\":8970:8986  vestedAmount > 0 */\n      gt\n        /* \"contracts/ico/PaymeTokenVesting.sol\":8967:9052  if(vestedAmount > 0){... */\n      iszero\n      tag_295\n      jumpi\n        /* \"contracts/ico/PaymeTokenVesting.sol\":9001:9041  release(vestingScheduleId, vestedAmount) */\n      tag_296\n        /* \"contracts/ico/PaymeTokenVesting.sol\":9009:9026  vestingScheduleId */\n      dup5\n        /* \"contracts/ico/PaymeTokenVesting.sol\":9028:9040  vestedAmount */\n      dup3\n        /* \"contracts/ico/PaymeTokenVesting.sol\":9001:9008  release */\n      tag_74\n        /* \"contracts/ico/PaymeTokenVesting.sol\":9001:9041  release(vestingScheduleId, vestedAmount) */\n      jump\t// in\n    tag_296:\n        /* \"contracts/ico/PaymeTokenVesting.sol\":8967:9052  if(vestedAmount > 0){... */\n    tag_295:\n        /* \"contracts/ico/PaymeTokenVesting.sol\":9061:9079  uint256 unreleased */\n      0x00\n        /* \"contracts/ico/PaymeTokenVesting.sol\":9082:9139  vestingSchedule.amountTotal.sub(vestingSchedule.released) */\n      tag_297\n        /* \"contracts/ico/PaymeTokenVesting.sol\":9114:9129  vestingSchedule */\n      dup4\n        /* \"contracts/ico/PaymeTokenVesting.sol\":9114:9138  vestingSchedule.released */\n      0x07\n      add\n      sload\n        /* \"contracts/ico/PaymeTokenVesting.sol\":9082:9097  vestingSchedule */\n      dup5\n        /* \"contracts/ico/PaymeTokenVesting.sol\":9082:9109  vestingSchedule.amountTotal */\n      0x06\n      add\n      sload\n        /* \"contracts/ico/PaymeTokenVesting.sol\":9082:9113  vestingSchedule.amountTotal.sub */\n      tag_193\n      swap1\n        /* \"contracts/ico/PaymeTokenVesting.sol\":9082:9139  vestingSchedule.amountTotal.sub(vestingSchedule.released) */\n      swap2\n      swap1\n      0xffffffff\n      and\n      jump\t// in\n    tag_297:\n        /* \"contracts/ico/PaymeTokenVesting.sol\":9061:9139  uint256 unreleased = vestingSchedule.amountTotal.sub(vestingSchedule.released) */\n      swap1\n      pop\n        /* \"contracts/ico/PaymeTokenVesting.sol\":9179:9222  vestingSchedulesTotalAmount.sub(unreleased) */\n      tag_298\n        /* \"contracts/ico/PaymeTokenVesting.sol\":9211:9221  unreleased */\n      dup2\n        /* \"contracts/ico/PaymeTokenVesting.sol\":9179:9206  vestingSchedulesTotalAmount */\n      sload(0x07)\n        /* \"contracts/ico/PaymeTokenVesting.sol\":9179:9210  vestingSchedulesTotalAmount.sub */\n      tag_193\n      swap1\n        /* \"contracts/ico/PaymeTokenVesting.sol\":9179:9222  vestingSchedulesTotalAmount.sub(unreleased) */\n      swap2\n      swap1\n      0xffffffff\n      and\n      jump\t// in\n    tag_298:\n        /* \"contracts/ico/PaymeTokenVesting.sol\":9149:9176  vestingSchedulesTotalAmount */\n      0x07\n        /* \"contracts/ico/PaymeTokenVesting.sol\":9149:9222  vestingSchedulesTotalAmount = vestingSchedulesTotalAmount.sub(unreleased) */\n      dup2\n      swap1\n      sstore\n      pop\n        /* \"contracts/ico/PaymeTokenVesting.sol\":9258:9262  true */\n      0x01\n        /* \"contracts/ico/PaymeTokenVesting.sol\":9232:9247  vestingSchedule */\n      dup4\n        /* \"contracts/ico/PaymeTokenVesting.sol\":9232:9255  vestingSchedule.revoked */\n      0x08\n      add\n      0x00\n        /* \"contracts/ico/PaymeTokenVesting.sol\":9232:9262  vestingSchedule.revoked = true */\n      0x0100\n      exp\n      dup2\n      sload\n      dup2\n      0xff\n      mul\n      not\n      and\n      swap1\n      dup4\n      iszero\n      iszero\n      mul\n      or\n      swap1\n      sstore\n      pop\n        /* \"contracts/ico/PaymeTokenVesting.sol\":8710:9269  {... */\n      pop\n      pop\n      pop\n        /* \"@openzeppelin/contracts/access/Ownable.sol\":1117:1118  _ */\n      pop\n        /* \"contracts/ico/PaymeTokenVesting.sol\":8576:9269  function revoke(bytes32 vestingScheduleId)... */\n      pop\n      jump\t// out\n        /* \"contracts/ico/PaymeTokenVesting.sol\":5428:5582  function getTotalInvestmentAmountBalance()... */\n    tag_113:\n        /* \"contracts/ico/PaymeTokenVesting.sol\":5506:5513  uint256 */\n      0x00\n        /* \"contracts/ico/PaymeTokenVesting.sol\":5548:5575  vestingSchedulesTotalAmount */\n      sload(0x07)\n        /* \"contracts/ico/PaymeTokenVesting.sol\":5531:5545  tgeTotalAmount */\n      sload(0x08)\n        /* \"contracts/ico/PaymeTokenVesting.sol\":5531:5575  tgeTotalAmount + vestingSchedulesTotalAmount */\n      tag_300\n      swap2\n      swap1\n      tag_301\n      jump\t// in\n    tag_300:\n        /* \"contracts/ico/PaymeTokenVesting.sol\":5524:5575  return tgeTotalAmount + vestingSchedulesTotalAmount */\n      swap1\n      pop\n        /* \"contracts/ico/PaymeTokenVesting.sol\":5428:5582  function getTotalInvestmentAmountBalance()... */\n      swap1\n      jump\t// out\n        /* \"contracts/ico/PaymeTokenVesting.sol\":1944:1999  mapping(bytes32 => uint256) public tgeTokenParticipants */\n    tag_117:\n      mstore(0x20, 0x0a)\n      dup1\n      0x00\n      mstore\n      keccak256(0x00, 0x40)\n      0x00\n      swap2\n      pop\n      swap1\n      pop\n      sload\n      dup2\n      jump\t// out\n        /* \"contracts/ico/PaymeTokenVesting.sol\":5312:5422  function getTgeTotalAmount()... */\n    tag_120:\n        /* \"contracts/ico/PaymeTokenVesting.sol\":5376:5383  uint256 */\n      0x00\n        /* \"contracts/ico/PaymeTokenVesting.sol\":5401:5415  tgeTotalAmount */\n      sload(0x08)\n        /* \"contracts/ico/PaymeTokenVesting.sol\":5394:5415  return tgeTotalAmount */\n      swap1\n      pop\n        /* \"contracts/ico/PaymeTokenVesting.sol\":5312:5422  function getTgeTotalAmount()... */\n      swap1\n      jump\t// out\n        /* \"contracts/ico/PaymeTokenVesting.sol\":1622:1647  uint256 public tgePercent */\n    tag_123:\n      sload(0x03)\n      dup2\n      jump\t// out\n        /* \"contracts/ico/PaymeTokenVesting.sol\":12595:12918  function computeReleasableAmount(bytes32 vestingScheduleId)... */\n    tag_127:\n        /* \"contracts/ico/PaymeTokenVesting.sol\":12758:12765  uint256 */\n      0x00\n        /* \"contracts/ico/PaymeTokenVesting.sol\":12710:12727  vestingScheduleId */\n      dup2\n        /* \"contracts/ico/PaymeTokenVesting.sol\":2635:2651  vestingSchedules */\n      0x06\n        /* \"contracts/ico/PaymeTokenVesting.sol\":2635:2670  vestingSchedules[vestingScheduleId] */\n      0x00\n        /* \"contracts/ico/PaymeTokenVesting.sol\":2652:2669  vestingScheduleId */\n      dup3\n        /* \"contracts/ico/PaymeTokenVesting.sol\":2635:2670  vestingSchedules[vestingScheduleId] */\n      dup2\n      mstore\n      0x20\n      add\n      swap1\n      dup2\n      mstore\n      0x20\n      add\n      0x00\n      keccak256\n        /* \"contracts/ico/PaymeTokenVesting.sol\":2635:2682  vestingSchedules[vestingScheduleId].initialized */\n      0x00\n      add\n      0x00\n      swap1\n      sload\n      swap1\n      0x0100\n      exp\n      swap1\n      div\n      0xff\n      and\n        /* \"contracts/ico/PaymeTokenVesting.sol\":2627:2683  require(vestingSchedules[vestingScheduleId].initialized) */\n      tag_304\n      jumpi\n      0x00\n      dup1\n      revert\n    tag_304:\n        /* \"contracts/ico/PaymeTokenVesting.sol\":2702:2718  vestingSchedules */\n      0x06\n        /* \"contracts/ico/PaymeTokenVesting.sol\":2702:2737  vestingSchedules[vestingScheduleId] */\n      0x00\n        /* \"contracts/ico/PaymeTokenVesting.sol\":2719:2736  vestingScheduleId */\n      dup3\n        /* \"contracts/ico/PaymeTokenVesting.sol\":2702:2737  vestingSchedules[vestingScheduleId] */\n      dup2\n      mstore\n      0x20\n      add\n      swap1\n      dup2\n      mstore\n      0x20\n      add\n      0x00\n      keccak256\n        /* \"contracts/ico/PaymeTokenVesting.sol\":2702:2745  vestingSchedules[vestingScheduleId].revoked */\n      0x08\n      add\n      0x00\n      swap1\n      sload\n      swap1\n      0x0100\n      exp\n      swap1\n      div\n      0xff\n      and\n        /* \"contracts/ico/PaymeTokenVesting.sol\":2701:2745  !vestingSchedules[vestingScheduleId].revoked */\n      iszero\n        /* \"contracts/ico/PaymeTokenVesting.sol\":2693:2746  require(!vestingSchedules[vestingScheduleId].revoked) */\n      tag_305\n      jumpi\n      0x00\n      dup1\n      revert\n    tag_305:\n        /* \"contracts/ico/PaymeTokenVesting.sol\":12776:12815  VestingSchedule storage vestingSchedule */\n      0x00\n        /* \"contracts/ico/PaymeTokenVesting.sol\":12818:12834  vestingSchedules */\n      0x06\n        /* \"contracts/ico/PaymeTokenVesting.sol\":12818:12853  vestingSchedules[vestingScheduleId] */\n      0x00\n        /* \"contracts/ico/PaymeTokenVesting.sol\":12835:12852  vestingScheduleId */\n      dup6\n        /* \"contracts/ico/PaymeTokenVesting.sol\":12818:12853  vestingSchedules[vestingScheduleId] */\n      dup2\n      mstore\n      0x20\n      add\n      swap1\n      dup2\n      mstore\n      0x20\n      add\n      0x00\n      keccak256\n        /* \"contracts/ico/PaymeTokenVesting.sol\":12776:12853  VestingSchedule storage vestingSchedule = vestingSchedules[vestingScheduleId] */\n      swap1\n      pop\n        /* \"contracts/ico/PaymeTokenVesting.sol\":12870:12911  _computeReleasableAmount(vestingSchedule) */\n      tag_307\n        /* \"contracts/ico/PaymeTokenVesting.sol\":12895:12910  vestingSchedule */\n      dup2\n        /* \"contracts/ico/PaymeTokenVesting.sol\":12870:12911  _computeReleasableAmount(vestingSchedule) */\n      mload(0x40)\n      dup1\n      0x0160\n      add\n      0x40\n      mstore\n      swap1\n      dup2\n      0x00\n      dup3\n      add\n      0x00\n      swap1\n      sload\n      swap1\n      0x0100\n      exp\n      swap1\n      div\n      0xff\n      and\n      iszero\n      iszero\n      iszero\n      iszero\n      dup2\n      mstore\n      0x20\n      add\n      0x00\n      dup3\n      add\n      0x01\n      swap1\n      sload\n      swap1\n      0x0100\n      exp\n      swap1\n      div\n      0xffffffffffffffffffffffffffffffffffffffff\n      and\n      0xffffffffffffffffffffffffffffffffffffffff\n      and\n      0xffffffffffffffffffffffffffffffffffffffff\n      and\n      dup2\n      mstore\n      0x20\n      add\n      0x01\n      dup3\n      add\n      sload\n      dup2\n      mstore\n      0x20\n      add\n      0x02\n      dup3\n      add\n      sload\n      dup2\n      mstore\n      0x20\n      add\n      0x03\n      dup3\n      add\n      sload\n      dup2\n      mstore\n      0x20\n      add\n      0x04\n      dup3\n      add\n      sload\n      dup2\n      mstore\n      0x20\n      add\n      0x05\n      dup3\n      add\n      0x00\n      swap1\n      sload\n      swap1\n      0x0100\n      exp\n      swap1\n      div\n      0xff\n      and\n      iszero\n      iszero\n      iszero\n      iszero\n      dup2\n      mstore\n      0x20\n      add\n      0x06\n      dup3\n      add\n      sload\n      dup2\n      mstore\n      0x20\n      add\n      0x07\n      dup3\n      add\n      sload\n      dup2\n      mstore\n      0x20\n      add\n      0x08\n      dup3\n      add\n      0x00\n      swap1\n      sload\n      swap1\n      0x0100\n      exp\n      swap1\n      div\n      0xff\n      and\n      iszero\n      iszero\n      iszero\n      iszero\n      dup2\n      mstore\n      0x20\n      add\n      0x08\n      dup3\n      add\n      0x01\n      swap1\n      sload\n      swap1\n      0x0100\n      exp\n      swap1\n      div\n      0xff\n      and\n      iszero\n      iszero\n      iszero\n      iszero\n      dup2\n      mstore\n      pop\n      pop\n        /* \"contracts/ico/PaymeTokenVesting.sol\":12870:12894  _computeReleasableAmount */\n      tag_185\n        /* \"contracts/ico/PaymeTokenVesting.sol\":12870:12911  _computeReleasableAmount(vestingSchedule) */\n      jump\t// in\n    tag_307:\n        /* \"contracts/ico/PaymeTokenVesting.sol\":12863:12911  return _computeReleasableAmount(vestingSchedule) */\n      swap3\n      pop\n      pop\n        /* \"contracts/ico/PaymeTokenVesting.sol\":12595:12918  function computeReleasableAmount(bytes32 vestingScheduleId)... */\n      pop\n      swap2\n      swap1\n      pop\n      jump\t// out\n        /* \"@openzeppelin/contracts/access/Ownable.sol\":2081:2279  function transferOwnership(address newOwner) public virtual onlyOwner {... */\n    tag_131:\n        /* \"@openzeppelin/contracts/access/Ownable.sol\":1094:1107  _checkOwner() */\n      tag_309\n        /* \"@openzeppelin/contracts/access/Ownable.sol\":1094:1105  _checkOwner */\n      tag_157\n        /* \"@openzeppelin/contracts/access/Ownable.sol\":1094:1107  _checkOwner() */\n      jump\t// in\n    tag_309:\n        /* \"@openzeppelin/contracts/access/Ownable.sol\":2189:2190  0 */\n      0x00\n        /* \"@openzeppelin/contracts/access/Ownable.sol\":2169:2191  newOwner != address(0) */\n      0xffffffffffffffffffffffffffffffffffffffff\n      and\n        /* \"@openzeppelin/contracts/access/Ownable.sol\":2169:2177  newOwner */\n      dup2\n        /* \"@openzeppelin/contracts/access/Ownable.sol\":2169:2191  newOwner != address(0) */\n      0xffffffffffffffffffffffffffffffffffffffff\n      and\n      eq\n      iszero\n        /* \"@openzeppelin/contracts/access/Ownable.sol\":2161:2234  require(newOwner != address(0), \"Ownable: new owner is the zero address\") */\n      tag_311\n      jumpi\n      mload(0x40)\n      0x08c379a000000000000000000000000000000000000000000000000000000000\n      dup2\n      mstore\n      0x04\n      add\n      tag_312\n      swap1\n      tag_313\n      jump\t// in\n    tag_312:\n      mload(0x40)\n      dup1\n      swap2\n      sub\n      swap1\n      revert\n    tag_311:\n        /* \"@openzeppelin/contracts/access/Ownable.sol\":2244:2272  _transferOwnership(newOwner) */\n      tag_314\n        /* \"@openzeppelin/contracts/access/Ownable.sol\":2263:2271  newOwner */\n      dup2\n        /* \"@openzeppelin/contracts/access/Ownable.sol\":2244:2262  _transferOwnership */\n      tag_199\n        /* \"@openzeppelin/contracts/access/Ownable.sol\":2244:2272  _transferOwnership(newOwner) */\n      jump\t// in\n    tag_314:\n        /* \"@openzeppelin/contracts/access/Ownable.sol\":2081:2279  function transferOwnership(address newOwner) public virtual onlyOwner {... */\n      pop\n      jump\t// out\n        /* \"contracts/ico/PaymeTokenVesting.sol\":4692:4926  function getVestingScheduleByAddressAndIndex(address holder, uint256 index)... */\n    tag_134:\n        /* \"contracts/ico/PaymeTokenVesting.sol\":4802:4824  VestingSchedule memory */\n      tag_315\n      tag_243\n      jump\t// in\n    tag_315:\n        /* \"contracts/ico/PaymeTokenVesting.sol\":4842:4919  getVestingSchedule(computeVestingScheduleIdForAddressAndIndex(holder, index)) */\n      tag_317\n        /* \"contracts/ico/PaymeTokenVesting.sol\":4861:4918  computeVestingScheduleIdForAddressAndIndex(holder, index) */\n      tag_318\n        /* \"contracts/ico/PaymeTokenVesting.sol\":4904:4910  holder */\n      dup5\n        /* \"contracts/ico/PaymeTokenVesting.sol\":4912:4917  index */\n      dup5\n        /* \"contracts/ico/PaymeTokenVesting.sol\":4861:4903  computeVestingScheduleIdForAddressAndIndex */\n      tag_89\n        /* \"contracts/ico/PaymeTokenVesting.sol\":4861:4918  computeVestingScheduleIdForAddressAndIndex(holder, index) */\n      jump\t// in\n    tag_318:\n        /* \"contracts/ico/PaymeTokenVesting.sol\":4842:4860  getVestingSchedule */\n      tag_107\n        /* \"contracts/ico/PaymeTokenVesting.sol\":4842:4919  getVestingSchedule(computeVestingScheduleIdForAddressAndIndex(holder, index)) */\n      jump\t// in\n    tag_317:\n        /* \"contracts/ico/PaymeTokenVesting.sol\":4835:4919  return getVestingSchedule(computeVestingScheduleIdForAddressAndIndex(holder, index)) */\n      swap1\n      pop\n        /* \"contracts/ico/PaymeTokenVesting.sol\":4692:4926  function getVestingScheduleByAddressAndIndex(address holder, uint256 index)... */\n      swap3\n      swap2\n      pop\n      pop\n      jump\t// out\n        /* \"contracts/ico/PaymeTokenVesting.sol\":13667:13885  function computeNextVestingScheduleIdForHolder(address holder)... */\n    tag_138:\n        /* \"contracts/ico/PaymeTokenVesting.sol\":13774:13781  bytes32 */\n      0x00\n        /* \"contracts/ico/PaymeTokenVesting.sol\":13799:13878  computeVestingScheduleIdForAddressAndIndex(holder, holdersVestingCount[holder]) */\n      tag_320\n        /* \"contracts/ico/PaymeTokenVesting.sol\":13842:13848  holder */\n      dup3\n        /* \"contracts/ico/PaymeTokenVesting.sol\":13850:13869  holdersVestingCount */\n      0x09\n        /* \"contracts/ico/PaymeTokenVesting.sol\":13850:13877  holdersVestingCount[holder] */\n      0x00\n        /* \"contracts/ico/PaymeTokenVesting.sol\":13870:13876  holder */\n      dup6\n        /* \"contracts/ico/PaymeTokenVesting.sol\":13850:13877  holdersVestingCount[holder] */\n      0xffffffffffffffffffffffffffffffffffffffff\n      and\n      0xffffffffffffffffffffffffffffffffffffffff\n      and\n      dup2\n      mstore\n      0x20\n      add\n      swap1\n      dup2\n      mstore\n      0x20\n      add\n      0x00\n      keccak256\n      sload\n        /* \"contracts/ico/PaymeTokenVesting.sol\":13799:13841  computeVestingScheduleIdForAddressAndIndex */\n      tag_89\n        /* \"contracts/ico/PaymeTokenVesting.sol\":13799:13878  computeVestingScheduleIdForAddressAndIndex(holder, holdersVestingCount[holder]) */\n      jump\t// in\n    tag_320:\n        /* \"contracts/ico/PaymeTokenVesting.sol\":13792:13878  return computeVestingScheduleIdForAddressAndIndex(holder, holdersVestingCount[holder]) */\n      swap1\n      pop\n        /* \"contracts/ico/PaymeTokenVesting.sol\":13667:13885  function computeNextVestingScheduleIdForHolder(address holder)... */\n      swap2\n      swap1\n      pop\n      jump\t// out\n        /* \"contracts/ico/PaymeTokenVesting.sol\":4303:4529  function getVestingIdAtIndex(uint256 index)... */\n    tag_142:\n        /* \"contracts/ico/PaymeTokenVesting.sol\":4381:4388  bytes32 */\n      0x00\n        /* \"contracts/ico/PaymeTokenVesting.sol\":4415:4441  getVestingSchedulesCount() */\n      tag_322\n        /* \"contracts/ico/PaymeTokenVesting.sol\":4415:4439  getVestingSchedulesCount */\n      tag_40\n        /* \"contracts/ico/PaymeTokenVesting.sol\":4415:4441  getVestingSchedulesCount() */\n      jump\t// in\n    tag_322:\n        /* \"contracts/ico/PaymeTokenVesting.sol\":4407:4412  index */\n      dup3\n        /* \"contracts/ico/PaymeTokenVesting.sol\":4407:4441  index < getVestingSchedulesCount() */\n      lt\n        /* \"contracts/ico/PaymeTokenVesting.sol\":4399:4479  require(index < getVestingSchedulesCount(), \"TokenVesting: index out of bounds\") */\n      tag_323\n      jumpi\n      mload(0x40)\n      0x08c379a000000000000000000000000000000000000000000000000000000000\n      dup2\n      mstore\n      0x04\n      add\n      tag_324\n      swap1\n      tag_325\n      jump\t// in\n    tag_324:\n      mload(0x40)\n      dup1\n      swap2\n      sub\n      swap1\n      revert\n    tag_323:\n        /* \"contracts/ico/PaymeTokenVesting.sol\":4496:4515  vestingSchedulesIds */\n      0x05\n        /* \"contracts/ico/PaymeTokenVesting.sol\":4516:4521  index */\n      dup3\n        /* \"contracts/ico/PaymeTokenVesting.sol\":4496:4522  vestingSchedulesIds[index] */\n      dup2\n      sload\n      dup2\n      lt\n      tag_326\n      jumpi\n      tag_327\n      tag_328\n      jump\t// in\n    tag_327:\n    tag_326:\n      swap1\n      0x00\n      mstore\n      keccak256(0x00, 0x20)\n      add\n      sload\n        /* \"contracts/ico/PaymeTokenVesting.sol\":4489:4522  return vestingSchedulesIds[index] */\n      swap1\n      pop\n        /* \"contracts/ico/PaymeTokenVesting.sol\":4303:4529  function getVestingIdAtIndex(uint256 index)... */\n      swap2\n      swap1\n      pop\n      jump\t// out\n        /* \"@openzeppelin/contracts/access/Ownable.sol\":1359:1489  function _checkOwner() internal view virtual {... */\n    tag_157:\n        /* \"@openzeppelin/contracts/access/Ownable.sol\":1433:1445  _msgSender() */\n      tag_331\n        /* \"@openzeppelin/contracts/access/Ownable.sol\":1433:1443  _msgSender */\n      tag_332\n        /* \"@openzeppelin/contracts/access/Ownable.sol\":1433:1445  _msgSender() */\n      jump\t// in\n    tag_331:\n        /* \"@openzeppelin/contracts/access/Ownable.sol\":1422:1445  owner() == _msgSender() */\n      0xffffffffffffffffffffffffffffffffffffffff\n      and\n        /* \"@openzeppelin/contracts/access/Ownable.sol\":1422:1429  owner() */\n      tag_333\n        /* \"@openzeppelin/contracts/access/Ownable.sol\":1422:1427  owner */\n      tag_97\n        /* \"@openzeppelin/contracts/access/Ownable.sol\":1422:1429  owner() */\n      jump\t// in\n    tag_333:\n        /* \"@openzeppelin/contracts/access/Ownable.sol\":1422:1445  owner() == _msgSender() */\n      0xffffffffffffffffffffffffffffffffffffffff\n      and\n      eq\n        /* \"@openzeppelin/contracts/access/Ownable.sol\":1414:1482  require(owner() == _msgSender(), \"Ownable: caller is not the owner\") */\n      tag_334\n      jumpi\n      mload(0x40)\n      0x08c379a000000000000000000000000000000000000000000000000000000000\n      dup2\n      mstore\n      0x04\n      add\n      tag_335\n      swap1\n      tag_336\n      jump\t// in\n    tag_335:\n      mload(0x40)\n      dup1\n      swap2\n      sub\n      swap1\n      revert\n    tag_334:\n        /* \"@openzeppelin/contracts/access/Ownable.sol\":1359:1489  function _checkOwner() internal view virtual {... */\n      jump\t// out\n        /* \"@openzeppelin/contracts/token/ERC20/utils/SafeERC20.sol\":763:968  function safeTransfer(... */\n    tag_169:\n        /* \"@openzeppelin/contracts/token/ERC20/utils/SafeERC20.sol\":875:961  _callOptionalReturn(token, abi.encodeWithSelector(token.transfer.selector, to, value)) */\n      tag_338\n        /* \"@openzeppelin/contracts/token/ERC20/utils/SafeERC20.sol\":895:900  token */\n      dup4\n        /* \"@openzeppelin/contracts/token/ERC20/utils/SafeERC20.sol\":925:948  token.transfer.selector */\n      shl(0xe0, 0xa9059cbb)\n        /* \"@openzeppelin/contracts/token/ERC20/utils/SafeERC20.sol\":950:952  to */\n      dup5\n        /* \"@openzeppelin/contracts/token/ERC20/utils/SafeERC20.sol\":954:959  value */\n      dup5\n        /* \"@openzeppelin/contracts/token/ERC20/utils/SafeERC20.sol\":902:960  abi.encodeWithSelector(token.transfer.selector, to, value) */\n      add(0x24, mload(0x40))\n      tag_339\n      swap3\n      swap2\n      swap1\n      tag_340\n      jump\t// in\n    tag_339:\n      mload(0x40)\n      0x20\n      dup2\n      dup4\n      sub\n      sub\n      dup2\n      mstore\n      swap1\n      0x40\n      mstore\n      swap1\n      not(0xffffffffffffffffffffffffffffffffffffffffffffffffffffffff)\n      and\n      0x20\n      dup3\n      add\n      dup1\n      mload\n      0xffffffffffffffffffffffffffffffffffffffffffffffffffffffff\n      dup4\n      dup2\n      dup4\n      and\n      or\n      dup4\n      mstore\n      pop\n      pop\n      pop\n      pop\n        /* \"@openzeppelin/contracts/token/ERC20/utils/SafeERC20.sol\":875:894  _callOptionalReturn */\n      tag_341\n        /* \"@openzeppelin/contracts/token/ERC20/utils/SafeERC20.sol\":875:961  _callOptionalReturn(token, abi.encodeWithSelector(token.transfer.selector, to, value)) */\n      jump\t// in\n    tag_338:\n        /* \"@openzeppelin/contracts/token/ERC20/utils/SafeERC20.sol\":763:968  function safeTransfer(... */\n      pop\n      pop\n      pop\n      jump\t// out\n        /* \"contracts/ico/PaymeTokenVesting.sol\":14721:16093  function _computeReleasableAmount(VestingSchedule memory vestingSchedule)... */\n    tag_185:\n        /* \"contracts/ico/PaymeTokenVesting.sol\":14829:14836  uint256 */\n      0x00\n        /* \"contracts/ico/PaymeTokenVesting.sol\":14851:14870  uint256 currentTime */\n      dup1\n        /* \"contracts/ico/PaymeTokenVesting.sol\":14873:14889  getCurrentTime() */\n      tag_343\n        /* \"contracts/ico/PaymeTokenVesting.sol\":14873:14887  getCurrentTime */\n      tag_55\n        /* \"contracts/ico/PaymeTokenVesting.sol\":14873:14889  getCurrentTime() */\n      jump\t// in\n    tag_343:\n        /* \"contracts/ico/PaymeTokenVesting.sol\":14851:14889  uint256 currentTime = getCurrentTime() */\n      swap1\n      pop\n        /* \"contracts/ico/PaymeTokenVesting.sol\":14904:14925  uint256 vestingAmount */\n      0x00\n        /* \"contracts/ico/PaymeTokenVesting.sol\":14928:14943  vestingSchedule */\n      dup4\n        /* \"contracts/ico/PaymeTokenVesting.sol\":14928:14955  vestingSchedule.amountTotal */\n      0xe0\n      add\n      mload\n        /* \"contracts/ico/PaymeTokenVesting.sol\":14904:14955  uint256 vestingAmount = vestingSchedule.amountTotal */\n      swap1\n      pop\n        /* \"contracts/ico/PaymeTokenVesting.sol\":15053:15068  vestingSchedule */\n      dup4\n        /* \"contracts/ico/PaymeTokenVesting.sol\":15053:15081  vestingSchedule.releaseAtTGE */\n      0x0140\n      add\n      mload\n        /* \"contracts/ico/PaymeTokenVesting.sol\":15050:15287  if(vestingSchedule.releaseAtTGE){... */\n      iszero\n      tag_344\n      jumpi\n        /* \"contracts/ico/PaymeTokenVesting.sol\":15125:15142  uint256 tgeAmount */\n      0x00\n        /* \"contracts/ico/PaymeTokenVesting.sol\":15145:15197  vestingSchedule.amountTotal.mul(tgePercent).div(100) */\n      tag_345\n        /* \"contracts/ico/PaymeTokenVesting.sol\":15193:15196  100 */\n      0x64\n        /* \"contracts/ico/PaymeTokenVesting.sol\":15145:15188  vestingSchedule.amountTotal.mul(tgePercent) */\n      tag_346\n        /* \"contracts/ico/PaymeTokenVesting.sol\":15177:15187  tgePercent */\n      sload(0x03)\n        /* \"contracts/ico/PaymeTokenVesting.sol\":15145:15160  vestingSchedule */\n      dup9\n        /* \"contracts/ico/PaymeTokenVesting.sol\":15145:15172  vestingSchedule.amountTotal */\n      0xe0\n      add\n      mload\n        /* \"contracts/ico/PaymeTokenVesting.sol\":15145:15176  vestingSchedule.amountTotal.mul */\n      tag_233\n      swap1\n        /* \"contracts/ico/PaymeTokenVesting.sol\":15145:15188  vestingSchedule.amountTotal.mul(tgePercent) */\n      swap2\n      swap1\n      0xffffffff\n      and\n      jump\t// in\n    tag_346:\n        /* \"contracts/ico/PaymeTokenVesting.sol\":15145:15192  vestingSchedule.amountTotal.mul(tgePercent).div */\n      tag_234\n      swap1\n        /* \"contracts/ico/PaymeTokenVesting.sol\":15145:15197  vestingSchedule.amountTotal.mul(tgePercent).div(100) */\n      swap2\n      swap1\n      0xffffffff\n      and\n      jump\t// in\n    tag_345:\n        /* \"contracts/ico/PaymeTokenVesting.sol\":15125:15197  uint256 tgeAmount = vestingSchedule.amountTotal.mul(tgePercent).div(100) */\n      swap1\n      pop\n        /* \"contracts/ico/PaymeTokenVesting.sol\":15230:15272  vestingSchedule.amountTotal.sub(tgeAmount) */\n      tag_347\n        /* \"contracts/ico/PaymeTokenVesting.sol\":15262:15271  tgeAmount */\n      dup2\n        /* \"contracts/ico/PaymeTokenVesting.sol\":15230:15245  vestingSchedule */\n      dup7\n        /* \"contracts/ico/PaymeTokenVesting.sol\":15230:15257  vestingSchedule.amountTotal */\n      0xe0\n      add\n      mload\n        /* \"contracts/ico/PaymeTokenVesting.sol\":15230:15261  vestingSchedule.amountTotal.sub */\n      tag_193\n      swap1\n        /* \"contracts/ico/PaymeTokenVesting.sol\":15230:15272  vestingSchedule.amountTotal.sub(tgeAmount) */\n      swap2\n      swap1\n      0xffffffff\n      and\n      jump\t// in\n    tag_347:\n        /* \"contracts/ico/PaymeTokenVesting.sol\":15214:15272  vestingAmount = vestingSchedule.amountTotal.sub(tgeAmount) */\n      swap2\n      pop\n        /* \"contracts/ico/PaymeTokenVesting.sol\":15082:15287  {... */\n      pop\n        /* \"contracts/ico/PaymeTokenVesting.sol\":15050:15287  if(vestingSchedule.releaseAtTGE){... */\n    tag_344:\n        /* \"contracts/ico/PaymeTokenVesting.sol\":15320:15335  vestingSchedule */\n      dup4\n        /* \"contracts/ico/PaymeTokenVesting.sol\":15320:15341  vestingSchedule.cliff */\n      0x40\n      add\n      mload\n        /* \"contracts/ico/PaymeTokenVesting.sol\":15306:15317  currentTime */\n      dup3\n        /* \"contracts/ico/PaymeTokenVesting.sol\":15306:15341  currentTime < vestingSchedule.cliff */\n      lt\n        /* \"contracts/ico/PaymeTokenVesting.sol\":15305:15369  (currentTime < vestingSchedule.cliff) || vestingSchedule.revoked */\n      dup1\n      tag_348\n      jumpi\n      pop\n        /* \"contracts/ico/PaymeTokenVesting.sol\":15346:15361  vestingSchedule */\n      dup4\n        /* \"contracts/ico/PaymeTokenVesting.sol\":15346:15369  vestingSchedule.revoked */\n      0x0120\n      add\n      mload\n        /* \"contracts/ico/PaymeTokenVesting.sol\":15305:15369  (currentTime < vestingSchedule.cliff) || vestingSchedule.revoked */\n    tag_348:\n        /* \"contracts/ico/PaymeTokenVesting.sol\":15301:16083  if ((currentTime < vestingSchedule.cliff) || vestingSchedule.revoked) {... */\n      iszero\n      tag_349\n      jumpi\n        /* \"contracts/ico/PaymeTokenVesting.sol\":15394:15395  0 */\n      0x00\n        /* \"contracts/ico/PaymeTokenVesting.sol\":15387:15395  return 0 */\n      swap3\n      pop\n      pop\n      pop\n      jump(tag_342)\n        /* \"contracts/ico/PaymeTokenVesting.sol\":15301:16083  if ((currentTime < vestingSchedule.cliff) || vestingSchedule.revoked) {... */\n    tag_349:\n        /* \"contracts/ico/PaymeTokenVesting.sol\":15434:15485  vestingSchedule.start.add(vestingSchedule.duration) */\n      tag_351\n        /* \"contracts/ico/PaymeTokenVesting.sol\":15460:15475  vestingSchedule */\n      dup5\n        /* \"contracts/ico/PaymeTokenVesting.sol\":15460:15484  vestingSchedule.duration */\n      0x80\n      add\n      mload\n        /* \"contracts/ico/PaymeTokenVesting.sol\":15434:15449  vestingSchedule */\n      dup6\n        /* \"contracts/ico/PaymeTokenVesting.sol\":15434:15455  vestingSchedule.start */\n      0x60\n      add\n      mload\n        /* \"contracts/ico/PaymeTokenVesting.sol\":15434:15459  vestingSchedule.start.add */\n      tag_191\n      swap1\n        /* \"contracts/ico/PaymeTokenVesting.sol\":15434:15485  vestingSchedule.start.add(vestingSchedule.duration) */\n      swap2\n      swap1\n      0xffffffff\n      and\n      jump\t// in\n    tag_351:\n        /* \"contracts/ico/PaymeTokenVesting.sol\":15419:15430  currentTime */\n      dup3\n        /* \"contracts/ico/PaymeTokenVesting.sol\":15419:15485  currentTime >= vestingSchedule.start.add(vestingSchedule.duration) */\n      lt\n        /* \"contracts/ico/PaymeTokenVesting.sol\":15415:16083  if (currentTime >= vestingSchedule.start.add(vestingSchedule.duration)) { ... */\n      tag_352\n      jumpi\n        /* \"contracts/ico/PaymeTokenVesting.sol\":15562:15605  vestingAmount.sub(vestingSchedule.released) */\n      tag_353\n        /* \"contracts/ico/PaymeTokenVesting.sol\":15580:15595  vestingSchedule */\n      dup5\n        /* \"contracts/ico/PaymeTokenVesting.sol\":15580:15604  vestingSchedule.released */\n      0x0100\n      add\n      mload\n        /* \"contracts/ico/PaymeTokenVesting.sol\":15562:15575  vestingAmount */\n      dup3\n        /* \"contracts/ico/PaymeTokenVesting.sol\":15562:15579  vestingAmount.sub */\n      tag_193\n      swap1\n        /* \"contracts/ico/PaymeTokenVesting.sol\":15562:15605  vestingAmount.sub(vestingSchedule.released) */\n      swap2\n      swap1\n      0xffffffff\n      and\n      jump\t// in\n    tag_353:\n        /* \"contracts/ico/PaymeTokenVesting.sol\":15555:15605  return vestingAmount.sub(vestingSchedule.released) */\n      swap3\n      pop\n      pop\n      pop\n      jump(tag_342)\n        /* \"contracts/ico/PaymeTokenVesting.sol\":15415:16083  if (currentTime >= vestingSchedule.start.add(vestingSchedule.duration)) { ... */\n    tag_352:\n        /* \"contracts/ico/PaymeTokenVesting.sol\":15774:15795  uint256 timeFromStart */\n      0x00\n        /* \"contracts/ico/PaymeTokenVesting.sol\":15798:15836  currentTime.sub(vestingSchedule.start) */\n      tag_355\n        /* \"contracts/ico/PaymeTokenVesting.sol\":15814:15829  vestingSchedule */\n      dup6\n        /* \"contracts/ico/PaymeTokenVesting.sol\":15814:15835  vestingSchedule.start */\n      0x60\n      add\n      mload\n        /* \"contracts/ico/PaymeTokenVesting.sol\":15798:15809  currentTime */\n      dup5\n        /* \"contracts/ico/PaymeTokenVesting.sol\":15798:15813  currentTime.sub */\n      tag_193\n      swap1\n        /* \"contracts/ico/PaymeTokenVesting.sol\":15798:15836  currentTime.sub(vestingSchedule.start) */\n      swap2\n      swap1\n      0xffffffff\n      and\n      jump\t// in\n    tag_355:\n        /* \"contracts/ico/PaymeTokenVesting.sol\":15774:15836  uint256 timeFromStart = currentTime.sub(vestingSchedule.start) */\n      swap1\n      pop\n        /* \"contracts/ico/PaymeTokenVesting.sol\":15854:15874  uint256 vestedAmount */\n      0x00\n        /* \"contracts/ico/PaymeTokenVesting.sol\":15877:15939  vestingAmount.mul(timeFromStart).div(vestingSchedule.duration) */\n      tag_356\n        /* \"contracts/ico/PaymeTokenVesting.sol\":15914:15929  vestingSchedule */\n      dup7\n        /* \"contracts/ico/PaymeTokenVesting.sol\":15914:15938  vestingSchedule.duration */\n      0x80\n      add\n      mload\n        /* \"contracts/ico/PaymeTokenVesting.sol\":15877:15909  vestingAmount.mul(timeFromStart) */\n      tag_357\n        /* \"contracts/ico/PaymeTokenVesting.sol\":15895:15908  timeFromStart */\n      dup5\n        /* \"contracts/ico/PaymeTokenVesting.sol\":15877:15890  vestingAmount */\n      dup7\n        /* \"contracts/ico/PaymeTokenVesting.sol\":15877:15894  vestingAmount.mul */\n      tag_233\n      swap1\n        /* \"contracts/ico/PaymeTokenVesting.sol\":15877:15909  vestingAmount.mul(timeFromStart) */\n      swap2\n      swap1\n      0xffffffff\n      and\n      jump\t// in\n    tag_357:\n        /* \"contracts/ico/PaymeTokenVesting.sol\":15877:15913  vestingAmount.mul(timeFromStart).div */\n      tag_234\n      swap1\n        /* \"contracts/ico/PaymeTokenVesting.sol\":15877:15939  vestingAmount.mul(timeFromStart).div(vestingSchedule.duration) */\n      swap2\n      swap1\n      0xffffffff\n      and\n      jump\t// in\n    tag_356:\n        /* \"contracts/ico/PaymeTokenVesting.sol\":15854:15939  uint256 vestedAmount = vestingAmount.mul(timeFromStart).div(vestingSchedule.duration) */\n      swap1\n      pop\n        /* \"contracts/ico/PaymeTokenVesting.sol\":15972:16014  vestedAmount.sub(vestingSchedule.released) */\n      tag_358\n        /* \"contracts/ico/PaymeTokenVesting.sol\":15989:16004  vestingSchedule */\n      dup7\n        /* \"contracts/ico/PaymeTokenVesting.sol\":15989:16013  vestingSchedule.released */\n      0x0100\n      add\n      mload\n        /* \"contracts/ico/PaymeTokenVesting.sol\":15972:15984  vestedAmount */\n      dup3\n        /* \"contracts/ico/PaymeTokenVesting.sol\":15972:15988  vestedAmount.sub */\n      tag_193\n      swap1\n        /* \"contracts/ico/PaymeTokenVesting.sol\":15972:16014  vestedAmount.sub(vestingSchedule.released) */\n      swap2\n      swap1\n      0xffffffff\n      and\n      jump\t// in\n    tag_358:\n        /* \"contracts/ico/PaymeTokenVesting.sol\":15957:16014  vestedAmount = vestedAmount.sub(vestingSchedule.released) */\n      swap1\n      pop\n        /* \"contracts/ico/PaymeTokenVesting.sol\":16056:16068  vestedAmount */\n      dup1\n        /* \"contracts/ico/PaymeTokenVesting.sol\":16049:16068  return vestedAmount */\n      swap5\n      pop\n      pop\n      pop\n      pop\n      pop\n        /* \"contracts/ico/PaymeTokenVesting.sol\":14721:16093  function _computeReleasableAmount(VestingSchedule memory vestingSchedule)... */\n    tag_342:\n      swap2\n      swap1\n      pop\n      jump\t// out\n        /* \"@openzeppelin/contracts/utils/math/SafeMath.sol\":2755:2851  function add(uint256 a, uint256 b) internal pure returns (uint256) {... */\n    tag_191:\n        /* \"@openzeppelin/contracts/utils/math/SafeMath.sol\":2813:2820  uint256 */\n      0x00\n        /* \"@openzeppelin/contracts/utils/math/SafeMath.sol\":2843:2844  b */\n      dup2\n        /* \"@openzeppelin/contracts/utils/math/SafeMath.sol\":2839:2840  a */\n      dup4\n        /* \"@openzeppelin/contracts/utils/math/SafeMath.sol\":2839:2844  a + b */\n      tag_360\n      swap2\n      swap1\n      tag_301\n      jump\t// in\n    tag_360:\n        /* \"@openzeppelin/contracts/utils/math/SafeMath.sol\":2832:2844  return a + b */\n      swap1\n      pop\n        /* \"@openzeppelin/contracts/utils/math/SafeMath.sol\":2755:2851  function add(uint256 a, uint256 b) internal pure returns (uint256) {... */\n      swap3\n      swap2\n      pop\n      pop\n      jump\t// out\n        /* \"@openzeppelin/contracts/utils/math/SafeMath.sol\":3122:3218  function sub(uint256 a, uint256 b) internal pure returns (uint256) {... */\n    tag_193:\n        /* \"@openzeppelin/contracts/utils/math/SafeMath.sol\":3180:3187  uint256 */\n      0x00\n        /* \"@openzeppelin/contracts/utils/math/SafeMath.sol\":3210:3211  b */\n      dup2\n        /* \"@openzeppelin/contracts/utils/math/SafeMath.sol\":3206:3207  a */\n      dup4\n        /* \"@openzeppelin/contracts/utils/math/SafeMath.sol\":3206:3211  a - b */\n      tag_362\n      swap2\n      swap1\n      tag_238\n      jump\t// in\n    tag_362:\n        /* \"@openzeppelin/contracts/utils/math/SafeMath.sol\":3199:3211  return a - b */\n      swap1\n      pop\n        /* \"@openzeppelin/contracts/utils/math/SafeMath.sol\":3122:3218  function sub(uint256 a, uint256 b) internal pure returns (uint256) {... */\n      swap3\n      swap2\n      pop\n      pop\n      jump\t// out\n        /* \"@openzeppelin/contracts/access/Ownable.sol\":2433:2620  function _transferOwnership(address newOwner) internal virtual {... */\n    tag_199:\n        /* \"@openzeppelin/contracts/access/Ownable.sol\":2506:2522  address oldOwner */\n      0x00\n        /* \"@openzeppelin/contracts/access/Ownable.sol\":2525:2531  _owner */\n      dup1\n      0x00\n      swap1\n      sload\n      swap1\n      0x0100\n      exp\n      swap1\n      div\n      0xffffffffffffffffffffffffffffffffffffffff\n      and\n        /* \"@openzeppelin/contracts/access/Ownable.sol\":2506:2531  address oldOwner = _owner */\n      swap1\n      pop\n        /* \"@openzeppelin/contracts/access/Ownable.sol\":2550:2558  newOwner */\n      dup2\n        /* \"@openzeppelin/contracts/access/Ownable.sol\":2541:2547  _owner */\n      0x00\n      dup1\n        /* \"@openzeppelin/contracts/access/Ownable.sol\":2541:2558  _owner = newOwner */\n      0x0100\n      exp\n      dup2\n      sload\n      dup2\n      0xffffffffffffffffffffffffffffffffffffffff\n      mul\n      not\n      and\n      swap1\n      dup4\n      0xffffffffffffffffffffffffffffffffffffffff\n      and\n      mul\n      or\n      swap1\n      sstore\n      pop\n        /* \"@openzeppelin/contracts/access/Ownable.sol\":2604:2612  newOwner */\n      dup2\n        /* \"@openzeppelin/contracts/access/Ownable.sol\":2573:2613  OwnershipTransferred(oldOwner, newOwner) */\n      0xffffffffffffffffffffffffffffffffffffffff\n      and\n        /* \"@openzeppelin/contracts/access/Ownable.sol\":2594:2602  oldOwner */\n      dup2\n        /* \"@openzeppelin/contracts/access/Ownable.sol\":2573:2613  OwnershipTransferred(oldOwner, newOwner) */\n      0xffffffffffffffffffffffffffffffffffffffff\n      and\n      0x8be0079c531659141344cd1fd0a4f28419497f9722a3daafe3b4186f6b6457e0\n      mload(0x40)\n      mload(0x40)\n      dup1\n      swap2\n      sub\n      swap1\n      log3\n        /* \"@openzeppelin/contracts/access/Ownable.sol\":2496:2620  {... */\n      pop\n        /* \"@openzeppelin/contracts/access/Ownable.sol\":2433:2620  function _transferOwnership(address newOwner) internal virtual {... */\n      pop\n      jump\t// out\n        /* \"@openzeppelin/contracts/utils/math/SafeMath.sol\":3465:3561  function mul(uint256 a, uint256 b) internal pure returns (uint256) {... */\n    tag_233:\n        /* \"@openzeppelin/contracts/utils/math/SafeMath.sol\":3523:3530  uint256 */\n      0x00\n        /* \"@openzeppelin/contracts/utils/math/SafeMath.sol\":3553:3554  b */\n      dup2\n        /* \"@openzeppelin/contracts/utils/math/SafeMath.sol\":3549:3550  a */\n      dup4\n        /* \"@openzeppelin/contracts/utils/math/SafeMath.sol\":3549:3554  a * b */\n      tag_365\n      swap2\n      swap1\n      tag_366\n      jump\t// in\n    tag_365:\n        /* \"@openzeppelin/contracts/utils/math/SafeMath.sol\":3542:3554  return a * b */\n      swap1\n      pop\n        /* \"@openzeppelin/contracts/utils/math/SafeMath.sol\":3465:3561  function mul(uint256 a, uint256 b) internal pure returns (uint256) {... */\n      swap3\n      swap2\n      pop\n      pop\n      jump\t// out\n        /* \"@openzeppelin/contracts/utils/math/SafeMath.sol\":3850:3946  function div(uint256 a, uint256 b) internal pure returns (uint256) {... */\n    tag_234:\n        /* \"@openzeppelin/contracts/utils/math/SafeMath.sol\":3908:3915  uint256 */\n      0x00\n        /* \"@openzeppelin/contracts/utils/math/SafeMath.sol\":3938:3939  b */\n      dup2\n        /* \"@openzeppelin/contracts/utils/math/SafeMath.sol\":3934:3935  a */\n      dup4\n        /* \"@openzeppelin/contracts/utils/math/SafeMath.sol\":3934:3939  a / b */\n      tag_368\n      swap2\n      swap1\n      tag_369\n      jump\t// in\n    tag_368:\n        /* \"@openzeppelin/contracts/utils/math/SafeMath.sol\":3927:3939  return a / b */\n      swap1\n      pop\n        /* \"@openzeppelin/contracts/utils/math/SafeMath.sol\":3850:3946  function div(uint256 a, uint256 b) internal pure returns (uint256) {... */\n      swap3\n      swap2\n      pop\n      pop\n      jump\t// out\n        /* \"@openzeppelin/contracts/utils/Context.sol\":640:736  function _msgSender() internal view virtual returns (address) {... */\n    tag_332:\n        /* \"@openzeppelin/contracts/utils/Context.sol\":693:700  address */\n      0x00\n        /* \"@openzeppelin/contracts/utils/Context.sol\":719:729  msg.sender */\n      caller\n        /* \"@openzeppelin/contracts/utils/Context.sol\":712:729  return msg.sender */\n      swap1\n      pop\n        /* \"@openzeppelin/contracts/utils/Context.sol\":640:736  function _msgSender() internal view virtual returns (address) {... */\n      swap1\n      jump\t// out\n        /* \"@openzeppelin/contracts/token/ERC20/utils/SafeERC20.sol\":3747:4453  function _callOptionalReturn(IERC20 token, bytes memory data) private {... */\n    tag_341:\n        /* \"@openzeppelin/contracts/token/ERC20/utils/SafeERC20.sol\":4166:4189  bytes memory returndata */\n      0x00\n        /* \"@openzeppelin/contracts/token/ERC20/utils/SafeERC20.sol\":4192:4261  address(token).functionCall(data, \"SafeERC20: low-level call failed\") */\n      tag_372\n        /* \"@openzeppelin/contracts/token/ERC20/utils/SafeERC20.sol\":4220:4224  data */\n      dup3\n        /* \"@openzeppelin/contracts/token/ERC20/utils/SafeERC20.sol\":4192:4261  address(token).functionCall(data, \"SafeERC20: low-level call failed\") */\n      mload(0x40)\n      dup1\n      0x40\n      add\n      0x40\n      mstore\n      dup1\n      0x20\n      dup2\n      mstore\n      0x20\n      add\n      0x5361666545524332303a206c6f772d6c6576656c2063616c6c206661696c6564\n      dup2\n      mstore\n      pop\n        /* \"@openzeppelin/contracts/token/ERC20/utils/SafeERC20.sol\":4200:4205  token */\n      dup6\n        /* \"@openzeppelin/contracts/token/ERC20/utils/SafeERC20.sol\":4192:4219  address(token).functionCall */\n      0xffffffffffffffffffffffffffffffffffffffff\n      and\n      tag_373\n      swap1\n        /* \"@openzeppelin/contracts/token/ERC20/utils/SafeERC20.sol\":4192:4261  address(token).functionCall(data, \"SafeERC20: low-level call failed\") */\n      swap3\n      swap2\n      swap1\n      0xffffffff\n      and\n      jump\t// in\n    tag_372:\n        /* \"@openzeppelin/contracts/token/ERC20/utils/SafeERC20.sol\":4166:4261  bytes memory returndata = address(token).functionCall(data, \"SafeERC20: low-level call failed\") */\n      swap1\n      pop\n        /* \"@openzeppelin/contracts/token/ERC20/utils/SafeERC20.sol\":4295:4296  0 */\n      0x00\n        /* \"@openzeppelin/contracts/token/ERC20/utils/SafeERC20.sol\":4275:4285  returndata */\n      dup2\n        /* \"@openzeppelin/contracts/token/ERC20/utils/SafeERC20.sol\":4275:4292  returndata.length */\n      mload\n        /* \"@openzeppelin/contracts/token/ERC20/utils/SafeERC20.sol\":4275:4296  returndata.length > 0 */\n      gt\n        /* \"@openzeppelin/contracts/token/ERC20/utils/SafeERC20.sol\":4271:4447  if (returndata.length > 0) {... */\n      iszero\n      tag_374\n      jumpi\n        /* \"@openzeppelin/contracts/token/ERC20/utils/SafeERC20.sol\":4370:4380  returndata */\n      dup1\n        /* \"@openzeppelin/contracts/token/ERC20/utils/SafeERC20.sol\":4359:4389  abi.decode(returndata, (bool)) */\n      dup1\n      0x20\n      add\n      swap1\n      mload\n      dup2\n      add\n      swap1\n      tag_375\n      swap2\n      swap1\n      tag_376\n      jump\t// in\n    tag_375:\n        /* \"@openzeppelin/contracts/token/ERC20/utils/SafeERC20.sol\":4351:4436  require(abi.decode(returndata, (bool)), \"SafeERC20: ERC20 operation did not succeed\") */\n      tag_377\n      jumpi\n      mload(0x40)\n      0x08c379a000000000000000000000000000000000000000000000000000000000\n      dup2\n      mstore\n      0x04\n      add\n      tag_378\n      swap1\n      tag_379\n      jump\t// in\n    tag_378:\n      mload(0x40)\n      dup1\n      swap2\n      sub\n      swap1\n      revert\n    tag_377:\n        /* \"@openzeppelin/contracts/token/ERC20/utils/SafeERC20.sol\":4271:4447  if (returndata.length > 0) {... */\n    tag_374:\n        /* \"@openzeppelin/contracts/token/ERC20/utils/SafeERC20.sol\":3817:4453  {... */\n      pop\n        /* \"@openzeppelin/contracts/token/ERC20/utils/SafeERC20.sol\":3747:4453  function _callOptionalReturn(IERC20 token, bytes memory data) private {... */\n      pop\n      pop\n      jump\t// out\n        /* \"@openzeppelin/contracts/utils/Address.sol\":3861:4084  function functionCall(... */\n    tag_373:\n        /* \"@openzeppelin/contracts/utils/Address.sol\":3994:4006  bytes memory */\n      0x60\n        /* \"@openzeppelin/contracts/utils/Address.sol\":4025:4077  functionCallWithValue(target, data, 0, errorMessage) */\n      tag_381\n        /* \"@openzeppelin/contracts/utils/Address.sol\":4047:4053  target */\n      dup5\n        /* \"@openzeppelin/contracts/utils/Address.sol\":4055:4059  data */\n      dup5\n        /* \"@openzeppelin/contracts/utils/Address.sol\":4061:4062  0 */\n      0x00\n        /* \"@openzeppelin/contracts/utils/Address.sol\":4064:4076  errorMessage */\n      dup6\n        /* \"@openzeppelin/contracts/utils/Address.sol\":4025:4046  functionCallWithValue */\n      tag_382\n        /* \"@openzeppelin/contracts/utils/Address.sol\":4025:4077  functionCallWithValue(target, data, 0, errorMessage) */\n      jump\t// in\n    tag_381:\n        /* \"@openzeppelin/contracts/utils/Address.sol\":4018:4077  return functionCallWithValue(target, data, 0, errorMessage) */\n      swap1\n      pop\n        /* \"@openzeppelin/contracts/utils/Address.sol\":3861:4084  function functionCall(... */\n      swap4\n      swap3\n      pop\n      pop\n      pop\n      jump\t// out\n        /* \"@openzeppelin/contracts/utils/Address.sol\":4948:5447  function functionCallWithValue(... */\n    tag_382:\n        /* \"@openzeppelin/contracts/utils/Address.sol\":5113:5125  bytes memory */\n      0x60\n        /* \"@openzeppelin/contracts/utils/Address.sol\":5170:5175  value */\n      dup3\n        /* \"@openzeppelin/contracts/utils/Address.sol\":5145:5166  address(this).balance */\n      selfbalance\n        /* \"@openzeppelin/contracts/utils/Address.sol\":5145:5175  address(this).balance >= value */\n      lt\n      iszero\n        /* \"@openzeppelin/contracts/utils/Address.sol\":5137:5218  require(address(this).balance >= value, \"Address: insufficient balance for call\") */\n      tag_384\n      jumpi\n      mload(0x40)\n      0x08c379a000000000000000000000000000000000000000000000000000000000\n      dup2\n      mstore\n      0x04\n      add\n      tag_385\n      swap1\n      tag_386\n      jump\t// in\n    tag_385:\n      mload(0x40)\n      dup1\n      swap2\n      sub\n      swap1\n      revert\n    tag_384:\n        /* \"@openzeppelin/contracts/utils/Address.sol\":5236:5254  isContract(target) */\n      tag_387\n        /* \"@openzeppelin/contracts/utils/Address.sol\":5247:5253  target */\n      dup6\n        /* \"@openzeppelin/contracts/utils/Address.sol\":5236:5246  isContract */\n      tag_388\n        /* \"@openzeppelin/contracts/utils/Address.sol\":5236:5254  isContract(target) */\n      jump\t// in\n    tag_387:\n        /* \"@openzeppelin/contracts/utils/Address.sol\":5228:5288  require(isContract(target), \"Address: call to non-contract\") */\n      tag_389\n      jumpi\n      mload(0x40)\n      0x08c379a000000000000000000000000000000000000000000000000000000000\n      dup2\n      mstore\n      0x04\n      add\n      tag_390\n      swap1\n      tag_391\n      jump\t// in\n    tag_390:\n      mload(0x40)\n      dup1\n      swap2\n      sub\n      swap1\n      revert\n    tag_389:\n        /* \"@openzeppelin/contracts/utils/Address.sol\":5300:5312  bool success */\n      0x00\n        /* \"@openzeppelin/contracts/utils/Address.sol\":5314:5337  bytes memory returndata */\n      dup1\n        /* \"@openzeppelin/contracts/utils/Address.sol\":5341:5347  target */\n      dup7\n        /* \"@openzeppelin/contracts/utils/Address.sol\":5341:5352  target.call */\n      0xffffffffffffffffffffffffffffffffffffffff\n      and\n        /* \"@openzeppelin/contracts/utils/Address.sol\":5360:5365  value */\n      dup6\n        /* \"@openzeppelin/contracts/utils/Address.sol\":5367:5371  data */\n      dup8\n        /* \"@openzeppelin/contracts/utils/Address.sol\":5341:5372  target.call{value: value}(data) */\n      mload(0x40)\n      tag_392\n      swap2\n      swap1\n      tag_393\n      jump\t// in\n    tag_392:\n      0x00\n      mload(0x40)\n      dup1\n      dup4\n      sub\n      dup2\n      dup6\n      dup8\n      gas\n      call\n      swap3\n      pop\n      pop\n      pop\n      returndatasize\n      dup1\n      0x00\n      dup2\n      eq\n      tag_396\n      jumpi\n      mload(0x40)\n      swap2\n      pop\n      and(add(returndatasize, 0x3f), not(0x1f))\n      dup3\n      add\n      0x40\n      mstore\n      returndatasize\n      dup3\n      mstore\n      returndatasize\n      0x00\n      0x20\n      dup5\n      add\n      returndatacopy\n      jump(tag_395)\n    tag_396:\n      0x60\n      swap2\n      pop\n    tag_395:\n      pop\n        /* \"@openzeppelin/contracts/utils/Address.sol\":5299:5372  (bool success, bytes memory returndata) = target.call{value: value}(data) */\n      swap2\n      pop\n      swap2\n      pop\n        /* \"@openzeppelin/contracts/utils/Address.sol\":5389:5440  verifyCallResult(success, returndata, errorMessage) */\n      tag_397\n        /* \"@openzeppelin/contracts/utils/Address.sol\":5406:5413  success */\n      dup3\n        /* \"@openzeppelin/contracts/utils/Address.sol\":5415:5425  returndata */\n      dup3\n        /* \"@openzeppelin/contracts/utils/Address.sol\":5427:5439  errorMessage */\n      dup7\n        /* \"@openzeppelin/contracts/utils/Address.sol\":5389:5405  verifyCallResult */\n      tag_398\n        /* \"@openzeppelin/contracts/utils/Address.sol\":5389:5440  verifyCallResult(success, returndata, errorMessage) */\n      jump\t// in\n    tag_397:\n        /* \"@openzeppelin/contracts/utils/Address.sol\":5382:5440  return verifyCallResult(success, returndata, errorMessage) */\n      swap3\n      pop\n      pop\n      pop\n        /* \"@openzeppelin/contracts/utils/Address.sol\":4948:5447  function functionCallWithValue(... */\n      swap5\n      swap4\n      pop\n      pop\n      pop\n      pop\n      jump\t// out\n        /* \"@openzeppelin/contracts/utils/Address.sol\":1175:1495  function isContract(address account) internal view returns (bool) {... */\n    tag_388:\n        /* \"@openzeppelin/contracts/utils/Address.sol\":1235:1239  bool */\n      0x00\n        /* \"@openzeppelin/contracts/utils/Address.sol\":1487:1488  0 */\n      dup1\n        /* \"@openzeppelin/contracts/utils/Address.sol\":1465:1472  account */\n      dup3\n        /* \"@openzeppelin/contracts/utils/Address.sol\":1465:1484  account.code.length */\n      0xffffffffffffffffffffffffffffffffffffffff\n      and\n      extcodesize\n        /* \"@openzeppelin/contracts/utils/Address.sol\":1465:1488  account.code.length > 0 */\n      gt\n        /* \"@openzeppelin/contracts/utils/Address.sol\":1458:1488  return account.code.length > 0 */\n      swap1\n      pop\n        /* \"@openzeppelin/contracts/utils/Address.sol\":1175:1495  function isContract(address account) internal view returns (bool) {... */\n      swap2\n      swap1\n      pop\n      jump\t// out\n        /* \"@openzeppelin/contracts/utils/Address.sol\":7561:8303  function verifyCallResult(... */\n    tag_398:\n        /* \"@openzeppelin/contracts/utils/Address.sol\":7707:7719  bytes memory */\n      0x60\n        /* \"@openzeppelin/contracts/utils/Address.sol\":7735:7742  success */\n      dup4\n        /* \"@openzeppelin/contracts/utils/Address.sol\":7731:8297  if (success) {... */\n      iszero\n      tag_401\n      jumpi\n        /* \"@openzeppelin/contracts/utils/Address.sol\":7765:7775  returndata */\n      dup3\n        /* \"@openzeppelin/contracts/utils/Address.sol\":7758:7775  return returndata */\n      swap1\n      pop\n      jump(tag_400)\n        /* \"@openzeppelin/contracts/utils/Address.sol\":7731:8297  if (success) {... */\n    tag_401:\n        /* \"@openzeppelin/contracts/utils/Address.sol\":7896:7897  0 */\n      0x00\n        /* \"@openzeppelin/contracts/utils/Address.sol\":7876:7886  returndata */\n      dup4\n        /* \"@openzeppelin/contracts/utils/Address.sol\":7876:7893  returndata.length */\n      mload\n        /* \"@openzeppelin/contracts/utils/Address.sol\":7876:7897  returndata.length > 0 */\n      gt\n        /* \"@openzeppelin/contracts/utils/Address.sol\":7872:8287  if (returndata.length > 0) {... */\n      iszero\n      tag_403\n      jumpi\n        /* \"@openzeppelin/contracts/utils/Address.sol\":8120:8130  returndata */\n      dup3\n        /* \"@openzeppelin/contracts/utils/Address.sol\":8114:8131  mload(returndata) */\n      mload\n        /* \"@openzeppelin/contracts/utils/Address.sol\":8180:8195  returndata_size */\n      dup1\n        /* \"@openzeppelin/contracts/utils/Address.sol\":8167:8177  returndata */\n      dup5\n        /* \"@openzeppelin/contracts/utils/Address.sol\":8163:8165  32 */\n      0x20\n        /* \"@openzeppelin/contracts/utils/Address.sol\":8159:8178  add(32, returndata) */\n      add\n        /* \"@openzeppelin/contracts/utils/Address.sol\":8152:8196  revert(add(32, returndata), returndata_size) */\n      revert\n        /* \"@openzeppelin/contracts/utils/Address.sol\":7872:8287  if (returndata.length > 0) {... */\n    tag_403:\n        /* \"@openzeppelin/contracts/utils/Address.sol\":8259:8271  errorMessage */\n      dup2\n        /* \"@openzeppelin/contracts/utils/Address.sol\":8252:8272  revert(errorMessage) */\n      mload(0x40)\n      0x08c379a000000000000000000000000000000000000000000000000000000000\n      dup2\n      mstore\n      0x04\n      add\n      tag_405\n      swap2\n      swap1\n      tag_406\n      jump\t// in\n    tag_405:\n      mload(0x40)\n      dup1\n      swap2\n      sub\n      swap1\n      revert\n        /* \"@openzeppelin/contracts/utils/Address.sol\":7561:8303  function verifyCallResult(... */\n    tag_400:\n      swap4\n      swap3\n      pop\n      pop\n      pop\n      jump\t// out\n    tag_243:\n      mload(0x40)\n      dup1\n      0x0160\n      add\n      0x40\n      mstore\n      dup1\n      iszero(iszero(0x00))\n      dup2\n      mstore\n      0x20\n      add\n      and(0xffffffffffffffffffffffffffffffffffffffff, 0x00)\n      dup2\n      mstore\n      0x20\n      add\n      0x00\n      dup2\n      mstore\n      0x20\n      add\n      0x00\n      dup2\n      mstore\n      0x20\n      add\n      0x00\n      dup2\n      mstore\n      0x20\n      add\n      0x00\n      dup2\n      mstore\n      0x20\n      add\n      iszero(iszero(0x00))\n      dup2\n      mstore\n      0x20\n      add\n      0x00\n      dup2\n      mstore\n      0x20\n      add\n      0x00\n      dup2\n      mstore\n      0x20\n      add\n      iszero(iszero(0x00))\n      dup2\n      mstore\n      0x20\n      add\n      iszero(iszero(0x00))\n      dup2\n      mstore\n      pop\n      swap1\n      jump\t// out\n        /* \"#utility.yul\":7:84   */\n    tag_407:\n        /* \"#utility.yul\":44:51   */\n      0x00\n        /* \"#utility.yul\":73:78   */\n      dup2\n        /* \"#utility.yul\":62:78   */\n      swap1\n      pop\n        /* \"#utility.yul\":7:84   */\n      swap2\n      swap1\n      pop\n      jump\t// out\n        /* \"#utility.yul\":90:208   */\n    tag_408:\n        /* \"#utility.yul\":177:201   */\n      tag_497\n        /* \"#utility.yul\":195:200   */\n      dup2\n        /* \"#utility.yul\":177:201   */\n      tag_407\n      jump\t// in\n    tag_497:\n        /* \"#utility.yul\":172:175   */\n      dup3\n        /* \"#utility.yul\":165:202   */\n      mstore\n        /* \"#utility.yul\":90:208   */\n      pop\n      pop\n      jump\t// out\n        /* \"#utility.yul\":214:436   */\n    tag_42:\n        /* \"#utility.yul\":307:311   */\n      0x00\n        /* \"#utility.yul\":345:347   */\n      0x20\n        /* \"#utility.yul\":334:343   */\n      dup3\n        /* \"#utility.yul\":330:348   */\n      add\n        /* \"#utility.yul\":322:348   */\n      swap1\n      pop\n        /* \"#utility.yul\":358:429   */\n      tag_499\n        /* \"#utility.yul\":426:427   */\n      0x00\n        /* \"#utility.yul\":415:424   */\n      dup4\n        /* \"#utility.yul\":411:428   */\n      add\n        /* \"#utility.yul\":402:408   */\n      dup5\n        /* \"#utility.yul\":358:429   */\n      tag_408\n      jump\t// in\n    tag_499:\n        /* \"#utility.yul\":214:436   */\n      swap3\n      swap2\n      pop\n      pop\n      jump\t// out\n        /* \"#utility.yul\":523:640   */\n    tag_410:\n        /* \"#utility.yul\":632:633   */\n      0x00\n        /* \"#utility.yul\":629:630   */\n      dup1\n        /* \"#utility.yul\":622:634   */\n      revert\n        /* \"#utility.yul\":769:895   */\n    tag_412:\n        /* \"#utility.yul\":806:813   */\n      0x00\n        /* \"#utility.yul\":846:888   */\n      0xffffffffffffffffffffffffffffffffffffffff\n        /* \"#utility.yul\":839:844   */\n      dup3\n        /* \"#utility.yul\":835:889   */\n      and\n        /* \"#utility.yul\":824:889   */\n      swap1\n      pop\n        /* \"#utility.yul\":769:895   */\n      swap2\n      swap1\n      pop\n      jump\t// out\n        /* \"#utility.yul\":901:997   */\n    tag_413:\n        /* \"#utility.yul\":938:945   */\n      0x00\n        /* \"#utility.yul\":967:991   */\n      tag_505\n        /* \"#utility.yul\":985:990   */\n      dup3\n        /* \"#utility.yul\":967:991   */\n      tag_412\n      jump\t// in\n    tag_505:\n        /* \"#utility.yul\":956:991   */\n      swap1\n      pop\n        /* \"#utility.yul\":901:997   */\n      swap2\n      swap1\n      pop\n      jump\t// out\n        /* \"#utility.yul\":1003:1125   */\n    tag_414:\n        /* \"#utility.yul\":1076:1100   */\n      tag_507\n        /* \"#utility.yul\":1094:1099   */\n      dup2\n        /* \"#utility.yul\":1076:1100   */\n      tag_413\n      jump\t// in\n    tag_507:\n        /* \"#utility.yul\":1069:1074   */\n      dup2\n        /* \"#utility.yul\":1066:1101   */\n      eq\n        /* \"#utility.yul\":1056:1119   */\n      tag_508\n      jumpi\n        /* \"#utility.yul\":1115:1116   */\n      0x00\n        /* \"#utility.yul\":1112:1113   */\n      dup1\n        /* \"#utility.yul\":1105:1117   */\n      revert\n        /* \"#utility.yul\":1056:1119   */\n    tag_508:\n        /* \"#utility.yul\":1003:1125   */\n      pop\n      jump\t// out\n        /* \"#utility.yul\":1131:1270   */\n    tag_415:\n        /* \"#utility.yul\":1177:1182   */\n      0x00\n        /* \"#utility.yul\":1215:1221   */\n      dup2\n        /* \"#utility.yul\":1202:1222   */\n      calldataload\n        /* \"#utility.yul\":1193:1222   */\n      swap1\n      pop\n        /* \"#utility.yul\":1231:1264   */\n      tag_510\n        /* \"#utility.yul\":1258:1263   */\n      dup2\n        /* \"#utility.yul\":1231:1264   */\n      tag_414\n      jump\t// in\n    tag_510:\n        /* \"#utility.yul\":1131:1270   */\n      swap3\n      swap2\n      pop\n      pop\n      jump\t// out\n        /* \"#utility.yul\":1276:1605   */\n    tag_45:\n        /* \"#utility.yul\":1335:1341   */\n      0x00\n        /* \"#utility.yul\":1384:1386   */\n      0x20\n        /* \"#utility.yul\":1372:1381   */\n      dup3\n        /* \"#utility.yul\":1363:1370   */\n      dup5\n        /* \"#utility.yul\":1359:1382   */\n      sub\n        /* \"#utility.yul\":1355:1387   */\n      slt\n        /* \"#utility.yul\":1352:1471   */\n      iszero\n      tag_512\n      jumpi\n        /* \"#utility.yul\":1390:1469   */\n      tag_513\n      tag_410\n      jump\t// in\n    tag_513:\n        /* \"#utility.yul\":1352:1471   */\n    tag_512:\n        /* \"#utility.yul\":1510:1511   */\n      0x00\n        /* \"#utility.yul\":1535:1588   */\n      tag_514\n        /* \"#utility.yul\":1580:1587   */\n      dup5\n        /* \"#utility.yul\":1571:1577   */\n      dup3\n        /* \"#utility.yul\":1560:1569   */\n      dup6\n        /* \"#utility.yul\":1556:1578   */\n      add\n        /* \"#utility.yul\":1535:1588   */\n      tag_415\n      jump\t// in\n    tag_514:\n        /* \"#utility.yul\":1525:1588   */\n      swap2\n      pop\n        /* \"#utility.yul\":1481:1598   */\n      pop\n        /* \"#utility.yul\":1276:1605   */\n      swap3\n      swap2\n      pop\n      pop\n      jump\t// out\n        /* \"#utility.yul\":1611:1729   */\n    tag_416:\n        /* \"#utility.yul\":1698:1722   */\n      tag_516\n        /* \"#utility.yul\":1716:1721   */\n      dup2\n        /* \"#utility.yul\":1698:1722   */\n      tag_413\n      jump\t// in\n    tag_516:\n        /* \"#utility.yul\":1693:1696   */\n      dup3\n        /* \"#utility.yul\":1686:1723   */\n      mstore\n        /* \"#utility.yul\":1611:1729   */\n      pop\n      pop\n      jump\t// out\n        /* \"#utility.yul\":1735:1957   */\n    tag_50:\n        /* \"#utility.yul\":1828:1832   */\n      0x00\n        /* \"#utility.yul\":1866:1868   */\n      0x20\n        /* \"#utility.yul\":1855:1864   */\n      dup3\n        /* \"#utility.yul\":1851:1869   */\n      add\n        /* \"#utility.yul\":1843:1869   */\n      swap1\n      pop\n        /* \"#utility.yul\":1879:1950   */\n      tag_518\n        /* \"#utility.yul\":1947:1948   */\n      0x00\n        /* \"#utility.yul\":1936:1945   */\n      dup4\n        /* \"#utility.yul\":1932:1949   */\n      add\n        /* \"#utility.yul\":1923:1929   */\n      dup5\n        /* \"#utility.yul\":1879:1950   */\n      tag_416\n      jump\t// in\n    tag_518:\n        /* \"#utility.yul\":1735:1957   */\n      swap3\n      swap2\n      pop\n      pop\n      jump\t// out\n        /* \"#utility.yul\":1963:2085   */\n    tag_417:\n        /* \"#utility.yul\":2036:2060   */\n      tag_520\n        /* \"#utility.yul\":2054:2059   */\n      dup2\n        /* \"#utility.yul\":2036:2060   */\n      tag_407\n      jump\t// in\n    tag_520:\n        /* \"#utility.yul\":2029:2034   */\n      dup2\n        /* \"#utility.yul\":2026:2061   */\n      eq\n        /* \"#utility.yul\":2016:2079   */\n      tag_521\n      jumpi\n        /* \"#utility.yul\":2075:2076   */\n      0x00\n        /* \"#utility.yul\":2072:2073   */\n      dup1\n        /* \"#utility.yul\":2065:2077   */\n      revert\n        /* \"#utility.yul\":2016:2079   */\n    tag_521:\n        /* \"#utility.yul\":1963:2085   */\n      pop\n      jump\t// out\n        /* \"#utility.yul\":2091:2230   */\n    tag_418:\n        /* \"#utility.yul\":2137:2142   */\n      0x00\n        /* \"#utility.yul\":2175:2181   */\n      dup2\n        /* \"#utility.yul\":2162:2182   */\n      calldataload\n        /* \"#utility.yul\":2153:2182   */\n      swap1\n      pop\n        /* \"#utility.yul\":2191:2224   */\n      tag_523\n        /* \"#utility.yul\":2218:2223   */\n      dup2\n        /* \"#utility.yul\":2191:2224   */\n      tag_417\n      jump\t// in\n    tag_523:\n        /* \"#utility.yul\":2091:2230   */\n      swap3\n      swap2\n      pop\n      pop\n      jump\t// out\n        /* \"#utility.yul\":2236:2565   */\n    tag_59:\n        /* \"#utility.yul\":2295:2301   */\n      0x00\n        /* \"#utility.yul\":2344:2346   */\n      0x20\n        /* \"#utility.yul\":2332:2341   */\n      dup3\n        /* \"#utility.yul\":2323:2330   */\n      dup5\n        /* \"#utility.yul\":2319:2342   */\n      sub\n        /* \"#utility.yul\":2315:2347   */\n      slt\n        /* \"#utility.yul\":2312:2431   */\n      iszero\n      tag_525\n      jumpi\n        /* \"#utility.yul\":2350:2429   */\n      tag_526\n      tag_410\n      jump\t// in\n    tag_526:\n        /* \"#utility.yul\":2312:2431   */\n    tag_525:\n        /* \"#utility.yul\":2470:2471   */\n      0x00\n        /* \"#utility.yul\":2495:2548   */\n      tag_527\n        /* \"#utility.yul\":2540:2547   */\n      dup5\n        /* \"#utility.yul\":2531:2537   */\n      dup3\n        /* \"#utility.yul\":2520:2529   */\n      dup6\n        /* \"#utility.yul\":2516:2538   */\n      add\n        /* \"#utility.yul\":2495:2548   */\n      tag_418\n      jump\t// in\n    tag_527:\n        /* \"#utility.yul\":2485:2548   */\n      swap2\n      pop\n        /* \"#utility.yul\":2441:2558   */\n      pop\n        /* \"#utility.yul\":2236:2565   */\n      swap3\n      swap2\n      pop\n      pop\n      jump\t// out\n        /* \"#utility.yul\":2571:2648   */\n    tag_419:\n        /* \"#utility.yul\":2608:2615   */\n      0x00\n        /* \"#utility.yul\":2637:2642   */\n      dup2\n        /* \"#utility.yul\":2626:2642   */\n      swap1\n      pop\n        /* \"#utility.yul\":2571:2648   */\n      swap2\n      swap1\n      pop\n      jump\t// out\n        /* \"#utility.yul\":2654:2776   */\n    tag_420:\n        /* \"#utility.yul\":2727:2751   */\n      tag_530\n        /* \"#utility.yul\":2745:2750   */\n      dup2\n        /* \"#utility.yul\":2727:2751   */\n      tag_419\n      jump\t// in\n    tag_530:\n        /* \"#utility.yul\":2720:2725   */\n      dup2\n        /* \"#utility.yul\":2717:2752   */\n      eq\n        /* \"#utility.yul\":2707:2770   */\n      tag_531\n      jumpi\n        /* \"#utility.yul\":2766:2767   */\n      0x00\n        /* \"#utility.yul\":2763:2764   */\n      dup1\n        /* \"#utility.yul\":2756:2768   */\n      revert\n        /* \"#utility.yul\":2707:2770   */\n    tag_531:\n        /* \"#utility.yul\":2654:2776   */\n      pop\n      jump\t// out\n        /* \"#utility.yul\":2782:2921   */\n    tag_421:\n        /* \"#utility.yul\":2828:2833   */\n      0x00\n        /* \"#utility.yul\":2866:2872   */\n      dup2\n        /* \"#utility.yul\":2853:2873   */\n      calldataload\n        /* \"#utility.yul\":2844:2873   */\n      swap1\n      pop\n        /* \"#utility.yul\":2882:2915   */\n      tag_533\n        /* \"#utility.yul\":2909:2914   */\n      dup2\n        /* \"#utility.yul\":2882:2915   */\n      tag_420\n      jump\t// in\n    tag_533:\n        /* \"#utility.yul\":2782:2921   */\n      swap3\n      swap2\n      pop\n      pop\n      jump\t// out\n        /* \"#utility.yul\":2927:3401   */\n    tag_73:\n        /* \"#utility.yul\":2995:3001   */\n      0x00\n        /* \"#utility.yul\":3003:3009   */\n      dup1\n        /* \"#utility.yul\":3052:3054   */\n      0x40\n        /* \"#utility.yul\":3040:3049   */\n      dup4\n        /* \"#utility.yul\":3031:3038   */\n      dup6\n        /* \"#utility.yul\":3027:3050   */\n      sub\n        /* \"#utility.yul\":3023:3055   */\n      slt\n        /* \"#utility.yul\":3020:3139   */\n      iszero\n      tag_535\n      jumpi\n        /* \"#utility.yul\":3058:3137   */\n      tag_536\n      tag_410\n      jump\t// in\n    tag_536:\n        /* \"#utility.yul\":3020:3139   */\n    tag_535:\n        /* \"#utility.yul\":3178:3179   */\n      0x00\n        /* \"#utility.yul\":3203:3256   */\n      tag_537\n        /* \"#utility.yul\":3248:3255   */\n      dup6\n        /* \"#utility.yul\":3239:3245   */\n      dup3\n        /* \"#utility.yul\":3228:3237   */\n      dup7\n        /* \"#utility.yul\":3224:3246   */\n      add\n        /* \"#utility.yul\":3203:3256   */\n      tag_421\n      jump\t// in\n    tag_537:\n        /* \"#utility.yul\":3193:3256   */\n      swap3\n      pop\n        /* \"#utility.yul\":3149:3266   */\n      pop\n        /* \"#utility.yul\":3305:3307   */\n      0x20\n        /* \"#utility.yul\":3331:3384   */\n      tag_538\n        /* \"#utility.yul\":3376:3383   */\n      dup6\n        /* \"#utility.yul\":3367:3373   */\n      dup3\n        /* \"#utility.yul\":3356:3365   */\n      dup7\n        /* \"#utility.yul\":3352:3374   */\n      add\n        /* \"#utility.yul\":3331:3384   */\n      tag_418\n      jump\t// in\n    tag_538:\n        /* \"#utility.yul\":3321:3384   */\n      swap2\n      pop\n        /* \"#utility.yul\":3276:3394   */\n      pop\n        /* \"#utility.yul\":2927:3401   */\n      swap3\n      pop\n      swap3\n      swap1\n      pop\n      jump\t// out\n        /* \"#utility.yul\":3407:3497   */\n    tag_422:\n        /* \"#utility.yul\":3441:3448   */\n      0x00\n        /* \"#utility.yul\":3484:3489   */\n      dup2\n        /* \"#utility.yul\":3477:3490   */\n      iszero\n        /* \"#utility.yul\":3470:3491   */\n      iszero\n        /* \"#utility.yul\":3459:3491   */\n      swap1\n      pop\n        /* \"#utility.yul\":3407:3497   */\n      swap2\n      swap1\n      pop\n      jump\t// out\n        /* \"#utility.yul\":3503:3619   */\n    tag_423:\n        /* \"#utility.yul\":3573:3594   */\n      tag_541\n        /* \"#utility.yul\":3588:3593   */\n      dup2\n        /* \"#utility.yul\":3573:3594   */\n      tag_422\n      jump\t// in\n    tag_541:\n        /* \"#utility.yul\":3566:3571   */\n      dup2\n        /* \"#utility.yul\":3563:3595   */\n      eq\n        /* \"#utility.yul\":3553:3613   */\n      tag_542\n      jumpi\n        /* \"#utility.yul\":3609:3610   */\n      0x00\n        /* \"#utility.yul\":3606:3607   */\n      dup1\n        /* \"#utility.yul\":3599:3611   */\n      revert\n        /* \"#utility.yul\":3553:3613   */\n    tag_542:\n        /* \"#utility.yul\":3503:3619   */\n      pop\n      jump\t// out\n        /* \"#utility.yul\":3625:3758   */\n    tag_424:\n        /* \"#utility.yul\":3668:3673   */\n      0x00\n        /* \"#utility.yul\":3706:3712   */\n      dup2\n        /* \"#utility.yul\":3693:3713   */\n      calldataload\n        /* \"#utility.yul\":3684:3713   */\n      swap1\n      pop\n        /* \"#utility.yul\":3722:3752   */\n      tag_544\n        /* \"#utility.yul\":3746:3751   */\n      dup2\n        /* \"#utility.yul\":3722:3752   */\n      tag_423\n      jump\t// in\n    tag_544:\n        /* \"#utility.yul\":3625:3758   */\n      swap3\n      swap2\n      pop\n      pop\n      jump\t// out\n        /* \"#utility.yul\":3764:5101   */\n    tag_79:\n        /* \"#utility.yul\":3880:3886   */\n      0x00\n        /* \"#utility.yul\":3888:3894   */\n      dup1\n        /* \"#utility.yul\":3896:3902   */\n      0x00\n        /* \"#utility.yul\":3904:3910   */\n      dup1\n        /* \"#utility.yul\":3912:3918   */\n      0x00\n        /* \"#utility.yul\":3920:3926   */\n      dup1\n        /* \"#utility.yul\":3928:3934   */\n      0x00\n        /* \"#utility.yul\":3936:3942   */\n      dup1\n        /* \"#utility.yul\":3985:3988   */\n      0x0100\n        /* \"#utility.yul\":3973:3982   */\n      dup10\n        /* \"#utility.yul\":3964:3971   */\n      dup12\n        /* \"#utility.yul\":3960:3983   */\n      sub\n        /* \"#utility.yul\":3956:3989   */\n      slt\n        /* \"#utility.yul\":3953:4073   */\n      iszero\n      tag_546\n      jumpi\n        /* \"#utility.yul\":3992:4071   */\n      tag_547\n      tag_410\n      jump\t// in\n    tag_547:\n        /* \"#utility.yul\":3953:4073   */\n    tag_546:\n        /* \"#utility.yul\":4112:4113   */\n      0x00\n        /* \"#utility.yul\":4137:4190   */\n      tag_548\n        /* \"#utility.yul\":4182:4189   */\n      dup12\n        /* \"#utility.yul\":4173:4179   */\n      dup3\n        /* \"#utility.yul\":4162:4171   */\n      dup13\n        /* \"#utility.yul\":4158:4180   */\n      add\n        /* \"#utility.yul\":4137:4190   */\n      tag_415\n      jump\t// in\n    tag_548:\n        /* \"#utility.yul\":4127:4190   */\n      swap9\n      pop\n        /* \"#utility.yul\":4083:4200   */\n      pop\n        /* \"#utility.yul\":4239:4241   */\n      0x20\n        /* \"#utility.yul\":4265:4318   */\n      tag_549\n        /* \"#utility.yul\":4310:4317   */\n      dup12\n        /* \"#utility.yul\":4301:4307   */\n      dup3\n        /* \"#utility.yul\":4290:4299   */\n      dup13\n        /* \"#utility.yul\":4286:4308   */\n      add\n        /* \"#utility.yul\":4265:4318   */\n      tag_418\n      jump\t// in\n    tag_549:\n        /* \"#utility.yul\":4255:4318   */\n      swap8\n      pop\n        /* \"#utility.yul\":4210:4328   */\n      pop\n        /* \"#utility.yul\":4367:4369   */\n      0x40\n        /* \"#utility.yul\":4393:4446   */\n      tag_550\n        /* \"#utility.yul\":4438:4445   */\n      dup12\n        /* \"#utility.yul\":4429:4435   */\n      dup3\n        /* \"#utility.yul\":4418:4427   */\n      dup13\n        /* \"#utility.yul\":4414:4436   */\n      add\n        /* \"#utility.yul\":4393:4446   */\n      tag_418\n      jump\t// in\n    tag_550:\n        /* \"#utility.yul\":4383:4446   */\n      swap7\n      pop\n        /* \"#utility.yul\":4338:4456   */\n      pop\n        /* \"#utility.yul\":4495:4497   */\n      0x60\n        /* \"#utility.yul\":4521:4574   */\n      tag_551\n        /* \"#utility.yul\":4566:4573   */\n      dup12\n        /* \"#utility.yul\":4557:4563   */\n      dup3\n        /* \"#utility.yul\":4546:4555   */\n      dup13\n        /* \"#utility.yul\":4542:4564   */\n      add\n        /* \"#utility.yul\":4521:4574   */\n      tag_418\n      jump\t// in\n    tag_551:\n        /* \"#utility.yul\":4511:4574   */\n      swap6\n      pop\n        /* \"#utility.yul\":4466:4584   */\n      pop\n        /* \"#utility.yul\":4623:4626   */\n      0x80\n        /* \"#utility.yul\":4650:4703   */\n      tag_552\n        /* \"#utility.yul\":4695:4702   */\n      dup12\n        /* \"#utility.yul\":4686:4692   */\n      dup3\n        /* \"#utility.yul\":4675:4684   */\n      dup13\n        /* \"#utility.yul\":4671:4693   */\n      add\n        /* \"#utility.yul\":4650:4703   */\n      tag_418\n      jump\t// in\n    tag_552:\n        /* \"#utility.yul\":4640:4703   */\n      swap5\n      pop\n        /* \"#utility.yul\":4594:4713   */\n      pop\n        /* \"#utility.yul\":4752:4755   */\n      0xa0\n        /* \"#utility.yul\":4779:4829   */\n      tag_553\n        /* \"#utility.yul\":4821:4828   */\n      dup12\n        /* \"#utility.yul\":4812:4818   */\n      dup3\n        /* \"#utility.yul\":4801:4810   */\n      dup13\n        /* \"#utility.yul\":4797:4819   */\n      add\n        /* \"#utility.yul\":4779:4829   */\n      tag_424\n      jump\t// in\n    tag_553:\n        /* \"#utility.yul\":4769:4829   */\n      swap4\n      pop\n        /* \"#utility.yul\":4723:4839   */\n      pop\n        /* \"#utility.yul\":4878:4881   */\n      0xc0\n        /* \"#utility.yul\":4905:4958   */\n      tag_554\n        /* \"#utility.yul\":4950:4957   */\n      dup12\n        /* \"#utility.yul\":4941:4947   */\n      dup3\n        /* \"#utility.yul\":4930:4939   */\n      dup13\n        /* \"#utility.yul\":4926:4948   */\n      add\n        /* \"#utility.yul\":4905:4958   */\n      tag_418\n      jump\t// in\n    tag_554:\n        /* \"#utility.yul\":4895:4958   */\n      swap3\n      pop\n        /* \"#utility.yul\":4849:4968   */\n      pop\n        /* \"#utility.yul\":5007:5010   */\n      0xe0\n        /* \"#utility.yul\":5034:5084   */\n      tag_555\n        /* \"#utility.yul\":5076:5083   */\n      dup12\n        /* \"#utility.yul\":5067:5073   */\n      dup3\n        /* \"#utility.yul\":5056:5065   */\n      dup13\n        /* \"#utility.yul\":5052:5074   */\n      add\n        /* \"#utility.yul\":5034:5084   */\n      tag_424\n      jump\t// in\n    tag_555:\n        /* \"#utility.yul\":5024:5084   */\n      swap2\n      pop\n        /* \"#utility.yul\":4978:5094   */\n      pop\n        /* \"#utility.yul\":3764:5101   */\n      swap3\n      swap6\n      swap9\n      pop\n      swap3\n      swap6\n      swap9\n      swap1\n      swap4\n      swap7\n      pop\n      jump\t// out\n        /* \"#utility.yul\":5107:5206   */\n    tag_425:\n        /* \"#utility.yul\":5178:5199   */\n      tag_557\n        /* \"#utility.yul\":5193:5198   */\n      dup2\n        /* \"#utility.yul\":5178:5199   */\n      tag_422\n      jump\t// in\n    tag_557:\n        /* \"#utility.yul\":5173:5176   */\n      dup3\n        /* \"#utility.yul\":5166:5200   */\n      mstore\n        /* \"#utility.yul\":5107:5206   */\n      pop\n      pop\n      jump\t// out\n        /* \"#utility.yul\":5212:5320   */\n    tag_426:\n        /* \"#utility.yul\":5289:5313   */\n      tag_559\n        /* \"#utility.yul\":5307:5312   */\n      dup2\n        /* \"#utility.yul\":5289:5313   */\n      tag_413\n      jump\t// in\n    tag_559:\n        /* \"#utility.yul\":5284:5287   */\n      dup3\n        /* \"#utility.yul\":5277:5314   */\n      mstore\n        /* \"#utility.yul\":5212:5320   */\n      pop\n      pop\n      jump\t// out\n        /* \"#utility.yul\":5326:5434   */\n    tag_427:\n        /* \"#utility.yul\":5403:5427   */\n      tag_561\n        /* \"#utility.yul\":5421:5426   */\n      dup2\n        /* \"#utility.yul\":5403:5427   */\n      tag_407\n      jump\t// in\n    tag_561:\n        /* \"#utility.yul\":5398:5401   */\n      dup3\n        /* \"#utility.yul\":5391:5428   */\n      mstore\n        /* \"#utility.yul\":5326:5434   */\n      pop\n      pop\n      jump\t// out\n        /* \"#utility.yul\":5532:7672   */\n    tag_428:\n        /* \"#utility.yul\":5695:5701   */\n      0x0160\n        /* \"#utility.yul\":5690:5693   */\n      dup3\n        /* \"#utility.yul\":5686:5702   */\n      add\n        /* \"#utility.yul\":5791:5795   */\n      0x00\n        /* \"#utility.yul\":5784:5789   */\n      dup3\n        /* \"#utility.yul\":5780:5796   */\n      add\n        /* \"#utility.yul\":5774:5797   */\n      mload\n        /* \"#utility.yul\":5810:5867   */\n      tag_563\n        /* \"#utility.yul\":5861:5865   */\n      0x00\n        /* \"#utility.yul\":5856:5859   */\n      dup6\n        /* \"#utility.yul\":5852:5866   */\n      add\n        /* \"#utility.yul\":5838:5850   */\n      dup3\n        /* \"#utility.yul\":5810:5867   */\n      tag_425\n      jump\t// in\n    tag_563:\n        /* \"#utility.yul\":5712:5877   */\n      pop\n        /* \"#utility.yul\":5966:5970   */\n      0x20\n        /* \"#utility.yul\":5959:5964   */\n      dup3\n        /* \"#utility.yul\":5955:5971   */\n      add\n        /* \"#utility.yul\":5949:5972   */\n      mload\n        /* \"#utility.yul\":5985:6048   */\n      tag_564\n        /* \"#utility.yul\":6042:6046   */\n      0x20\n        /* \"#utility.yul\":6037:6040   */\n      dup6\n        /* \"#utility.yul\":6033:6047   */\n      add\n        /* \"#utility.yul\":6019:6031   */\n      dup3\n        /* \"#utility.yul\":5985:6048   */\n      tag_426\n      jump\t// in\n    tag_564:\n        /* \"#utility.yul\":5887:6058   */\n      pop\n        /* \"#utility.yul\":6141:6145   */\n      0x40\n        /* \"#utility.yul\":6134:6139   */\n      dup3\n        /* \"#utility.yul\":6130:6146   */\n      add\n        /* \"#utility.yul\":6124:6147   */\n      mload\n        /* \"#utility.yul\":6160:6223   */\n      tag_565\n        /* \"#utility.yul\":6217:6221   */\n      0x40\n        /* \"#utility.yul\":6212:6215   */\n      dup6\n        /* \"#utility.yul\":6208:6222   */\n      add\n        /* \"#utility.yul\":6194:6206   */\n      dup3\n        /* \"#utility.yul\":6160:6223   */\n      tag_427\n      jump\t// in\n    tag_565:\n        /* \"#utility.yul\":6068:6233   */\n      pop\n        /* \"#utility.yul\":6316:6320   */\n      0x60\n        /* \"#utility.yul\":6309:6314   */\n      dup3\n        /* \"#utility.yul\":6305:6321   */\n      add\n        /* \"#utility.yul\":6299:6322   */\n      mload\n        /* \"#utility.yul\":6335:6398   */\n      tag_566\n        /* \"#utility.yul\":6392:6396   */\n      0x60\n        /* \"#utility.yul\":6387:6390   */\n      dup6\n        /* \"#utility.yul\":6383:6397   */\n      add\n        /* \"#utility.yul\":6369:6381   */\n      dup3\n        /* \"#utility.yul\":6335:6398   */\n      tag_427\n      jump\t// in\n    tag_566:\n        /* \"#utility.yul\":6243:6408   */\n      pop\n        /* \"#utility.yul\":6494:6498   */\n      0x80\n        /* \"#utility.yul\":6487:6492   */\n      dup3\n        /* \"#utility.yul\":6483:6499   */\n      add\n        /* \"#utility.yul\":6477:6500   */\n      mload\n        /* \"#utility.yul\":6513:6576   */\n      tag_567\n        /* \"#utility.yul\":6570:6574   */\n      0x80\n        /* \"#utility.yul\":6565:6568   */\n      dup6\n        /* \"#utility.yul\":6561:6575   */\n      add\n        /* \"#utility.yul\":6547:6559   */\n      dup3\n        /* \"#utility.yul\":6513:6576   */\n      tag_427\n      jump\t// in\n    tag_567:\n        /* \"#utility.yul\":6418:6586   */\n      pop\n        /* \"#utility.yul\":6682:6686   */\n      0xa0\n        /* \"#utility.yul\":6675:6680   */\n      dup3\n        /* \"#utility.yul\":6671:6687   */\n      add\n        /* \"#utility.yul\":6665:6688   */\n      mload\n        /* \"#utility.yul\":6701:6764   */\n      tag_568\n        /* \"#utility.yul\":6758:6762   */\n      0xa0\n        /* \"#utility.yul\":6753:6756   */\n      dup6\n        /* \"#utility.yul\":6749:6763   */\n      add\n        /* \"#utility.yul\":6735:6747   */\n      dup3\n        /* \"#utility.yul\":6701:6764   */\n      tag_427\n      jump\t// in\n    tag_568:\n        /* \"#utility.yul\":6596:6774   */\n      pop\n        /* \"#utility.yul\":6861:6865   */\n      0xc0\n        /* \"#utility.yul\":6854:6859   */\n      dup3\n        /* \"#utility.yul\":6850:6866   */\n      add\n        /* \"#utility.yul\":6844:6867   */\n      mload\n        /* \"#utility.yul\":6880:6937   */\n      tag_569\n        /* \"#utility.yul\":6931:6935   */\n      0xc0\n        /* \"#utility.yul\":6926:6929   */\n      dup6\n        /* \"#utility.yul\":6922:6936   */\n      add\n        /* \"#utility.yul\":6908:6920   */\n      dup3\n        /* \"#utility.yul\":6880:6937   */\n      tag_425\n      jump\t// in\n    tag_569:\n        /* \"#utility.yul\":6784:6947   */\n      pop\n        /* \"#utility.yul\":7036:7040   */\n      0xe0\n        /* \"#utility.yul\":7029:7034   */\n      dup3\n        /* \"#utility.yul\":7025:7041   */\n      add\n        /* \"#utility.yul\":7019:7042   */\n      mload\n        /* \"#utility.yul\":7055:7118   */\n      tag_570\n        /* \"#utility.yul\":7112:7116   */\n      0xe0\n        /* \"#utility.yul\":7107:7110   */\n      dup6\n        /* \"#utility.yul\":7103:7117   */\n      add\n        /* \"#utility.yul\":7089:7101   */\n      dup3\n        /* \"#utility.yul\":7055:7118   */\n      tag_427\n      jump\t// in\n    tag_570:\n        /* \"#utility.yul\":6957:7128   */\n      pop\n        /* \"#utility.yul\":7214:7220   */\n      0x0100\n        /* \"#utility.yul\":7207:7212   */\n      dup3\n        /* \"#utility.yul\":7203:7221   */\n      add\n        /* \"#utility.yul\":7197:7222   */\n      mload\n        /* \"#utility.yul\":7235:7300   */\n      tag_571\n        /* \"#utility.yul\":7292:7298   */\n      0x0100\n        /* \"#utility.yul\":7287:7290   */\n      dup6\n        /* \"#utility.yul\":7283:7299   */\n      add\n        /* \"#utility.yul\":7269:7281   */\n      dup3\n        /* \"#utility.yul\":7235:7300   */\n      tag_427\n      jump\t// in\n    tag_571:\n        /* \"#utility.yul\":7138:7310   */\n      pop\n        /* \"#utility.yul\":7395:7401   */\n      0x0120\n        /* \"#utility.yul\":7388:7393   */\n      dup3\n        /* \"#utility.yul\":7384:7402   */\n      add\n        /* \"#utility.yul\":7378:7403   */\n      mload\n        /* \"#utility.yul\":7416:7475   */\n      tag_572\n        /* \"#utility.yul\":7467:7473   */\n      0x0120\n        /* \"#utility.yul\":7462:7465   */\n      dup6\n        /* \"#utility.yul\":7458:7474   */\n      add\n        /* \"#utility.yul\":7444:7456   */\n      dup3\n        /* \"#utility.yul\":7416:7475   */\n      tag_425\n      jump\t// in\n    tag_572:\n        /* \"#utility.yul\":7320:7485   */\n      pop\n        /* \"#utility.yul\":7575:7581   */\n      0x0140\n        /* \"#utility.yul\":7568:7573   */\n      dup3\n        /* \"#utility.yul\":7564:7582   */\n      add\n        /* \"#utility.yul\":7558:7583   */\n      mload\n        /* \"#utility.yul\":7596:7655   */\n      tag_573\n        /* \"#utility.yul\":7647:7653   */\n      0x0140\n        /* \"#utility.yul\":7642:7645   */\n      dup6\n        /* \"#utility.yul\":7638:7654   */\n      add\n        /* \"#utility.yul\":7624:7636   */\n      dup3\n        /* \"#utility.yul\":7596:7655   */\n      tag_425\n      jump\t// in\n    tag_573:\n        /* \"#utility.yul\":7495:7665   */\n      pop\n        /* \"#utility.yul\":5664:7672   */\n      pop\n        /* \"#utility.yul\":5532:7672   */\n      pop\n      pop\n      jump\t// out\n        /* \"#utility.yul\":7678:8033   */\n    tag_85:\n        /* \"#utility.yul\":7837:7841   */\n      0x00\n        /* \"#utility.yul\":7875:7878   */\n      0x0160\n        /* \"#utility.yul\":7864:7873   */\n      dup3\n        /* \"#utility.yul\":7860:7879   */\n      add\n        /* \"#utility.yul\":7852:7879   */\n      swap1\n      pop\n        /* \"#utility.yul\":7889:8026   */\n      tag_575\n        /* \"#utility.yul\":8023:8024   */\n      0x00\n        /* \"#utility.yul\":8012:8021   */\n      dup4\n        /* \"#utility.yul\":8008:8025   */\n      add\n        /* \"#utility.yul\":7999:8005   */\n      dup5\n        /* \"#utility.yul\":7889:8026   */\n      tag_428\n      jump\t// in\n    tag_575:\n        /* \"#utility.yul\":7678:8033   */\n      swap3\n      swap2\n      pop\n      pop\n      jump\t// out\n        /* \"#utility.yul\":8039:8513   */\n    tag_88:\n        /* \"#utility.yul\":8107:8113   */\n      0x00\n        /* \"#utility.yul\":8115:8121   */\n      dup1\n        /* \"#utility.yul\":8164:8166   */\n      0x40\n        /* \"#utility.yul\":8152:8161   */\n      dup4\n        /* \"#utility.yul\":8143:8150   */\n      dup6\n        /* \"#utility.yul\":8139:8162   */\n      sub\n        /* \"#utility.yul\":8135:8167   */\n      slt\n        /* \"#utility.yul\":8132:8251   */\n      iszero\n      tag_577\n      jumpi\n        /* \"#utility.yul\":8170:8249   */\n      tag_578\n      tag_410\n      jump\t// in\n    tag_578:\n        /* \"#utility.yul\":8132:8251   */\n    tag_577:\n        /* \"#utility.yul\":8290:8291   */\n      0x00\n        /* \"#utility.yul\":8315:8368   */\n      tag_579\n        /* \"#utility.yul\":8360:8367   */\n      dup6\n        /* \"#utility.yul\":8351:8357   */\n      dup3\n        /* \"#utility.yul\":8340:8349   */\n      dup7\n        /* \"#utility.yul\":8336:8358   */\n      add\n        /* \"#utility.yul\":8315:8368   */\n      tag_415\n      jump\t// in\n    tag_579:\n        /* \"#utility.yul\":8305:8368   */\n      swap3\n      pop\n        /* \"#utility.yul\":8261:8378   */\n      pop\n        /* \"#utility.yul\":8417:8419   */\n      0x20\n        /* \"#utility.yul\":8443:8496   */\n      tag_580\n        /* \"#utility.yul\":8488:8495   */\n      dup6\n        /* \"#utility.yul\":8479:8485   */\n      dup3\n        /* \"#utility.yul\":8468:8477   */\n      dup7\n        /* \"#utility.yul\":8464:8486   */\n      add\n        /* \"#utility.yul\":8443:8496   */\n      tag_418\n      jump\t// in\n    tag_580:\n        /* \"#utility.yul\":8433:8496   */\n      swap2\n      pop\n        /* \"#utility.yul\":8388:8506   */\n      pop\n        /* \"#utility.yul\":8039:8513   */\n      swap3\n      pop\n      swap3\n      swap1\n      pop\n      jump\t// out\n        /* \"#utility.yul\":8519:8637   */\n    tag_429:\n        /* \"#utility.yul\":8606:8630   */\n      tag_582\n        /* \"#utility.yul\":8624:8629   */\n      dup2\n        /* \"#utility.yul\":8606:8630   */\n      tag_419\n      jump\t// in\n    tag_582:\n        /* \"#utility.yul\":8601:8604   */\n      dup3\n        /* \"#utility.yul\":8594:8631   */\n      mstore\n        /* \"#utility.yul\":8519:8637   */\n      pop\n      pop\n      jump\t// out\n        /* \"#utility.yul\":8643:8865   */\n    tag_91:\n        /* \"#utility.yul\":8736:8740   */\n      0x00\n        /* \"#utility.yul\":8774:8776   */\n      0x20\n        /* \"#utility.yul\":8763:8772   */\n      dup3\n        /* \"#utility.yul\":8759:8777   */\n      add\n        /* \"#utility.yul\":8751:8777   */\n      swap1\n      pop\n        /* \"#utility.yul\":8787:8858   */\n      tag_584\n        /* \"#utility.yul\":8855:8856   */\n      0x00\n        /* \"#utility.yul\":8844:8853   */\n      dup4\n        /* \"#utility.yul\":8840:8857   */\n      add\n        /* \"#utility.yul\":8831:8837   */\n      dup5\n        /* \"#utility.yul\":8787:8858   */\n      tag_429\n      jump\t// in\n    tag_584:\n        /* \"#utility.yul\":8643:8865   */\n      swap3\n      swap2\n      pop\n      pop\n      jump\t// out\n        /* \"#utility.yul\":8871:9200   */\n    tag_94:\n        /* \"#utility.yul\":8930:8936   */\n      0x00\n        /* \"#utility.yul\":8979:8981   */\n      0x20\n        /* \"#utility.yul\":8967:8976   */\n      dup3\n        /* \"#utility.yul\":8958:8965   */\n      dup5\n        /* \"#utility.yul\":8954:8977   */\n      sub\n        /* \"#utility.yul\":8950:8982   */\n      slt\n        /* \"#utility.yul\":8947:9066   */\n      iszero\n      tag_586\n      jumpi\n        /* \"#utility.yul\":8985:9064   */\n      tag_587\n      tag_410\n      jump\t// in\n    tag_587:\n        /* \"#utility.yul\":8947:9066   */\n    tag_586:\n        /* \"#utility.yul\":9105:9106   */\n      0x00\n        /* \"#utility.yul\":9130:9183   */\n      tag_588\n        /* \"#utility.yul\":9175:9182   */\n      dup5\n        /* \"#utility.yul\":9166:9172   */\n      dup3\n        /* \"#utility.yul\":9155:9164   */\n      dup6\n        /* \"#utility.yul\":9151:9173   */\n      add\n        /* \"#utility.yul\":9130:9183   */\n      tag_421\n      jump\t// in\n    tag_588:\n        /* \"#utility.yul\":9120:9183   */\n      swap2\n      pop\n        /* \"#utility.yul\":9076:9193   */\n      pop\n        /* \"#utility.yul\":8871:9200   */\n      swap3\n      swap2\n      pop\n      pop\n      jump\t// out\n        /* \"#utility.yul\":9206:9375   */\n    tag_430:\n        /* \"#utility.yul\":9290:9301   */\n      0x00\n        /* \"#utility.yul\":9324:9330   */\n      dup3\n        /* \"#utility.yul\":9319:9322   */\n      dup3\n        /* \"#utility.yul\":9312:9331   */\n      mstore\n        /* \"#utility.yul\":9364:9368   */\n      0x20\n        /* \"#utility.yul\":9359:9362   */\n      dup3\n        /* \"#utility.yul\":9355:9369   */\n      add\n        /* \"#utility.yul\":9340:9369   */\n      swap1\n      pop\n        /* \"#utility.yul\":9206:9375   */\n      swap3\n      swap2\n      pop\n      pop\n      jump\t// out\n        /* \"#utility.yul\":9381:9618   */\n    tag_431:\n        /* \"#utility.yul\":9521:9555   */\n      0x43726f776473616c65416464726573733a2043726f776473616c652041646472\n        /* \"#utility.yul\":9517:9518   */\n      0x00\n        /* \"#utility.yul\":9509:9515   */\n      dup3\n        /* \"#utility.yul\":9505:9519   */\n      add\n        /* \"#utility.yul\":9498:9556   */\n      mstore\n        /* \"#utility.yul\":9590:9610   */\n      0x6573732063616e6e6f74206265206e756c6c0000000000000000000000000000\n        /* \"#utility.yul\":9585:9587   */\n      0x20\n        /* \"#utility.yul\":9577:9583   */\n      dup3\n        /* \"#utility.yul\":9573:9588   */\n      add\n        /* \"#utility.yul\":9566:9611   */\n      mstore\n        /* \"#utility.yul\":9381:9618   */\n      pop\n      jump\t// out\n        /* \"#utility.yul\":9624:9990   */\n    tag_432:\n        /* \"#utility.yul\":9766:9769   */\n      0x00\n        /* \"#utility.yul\":9787:9854   */\n      tag_592\n        /* \"#utility.yul\":9851:9853   */\n      0x32\n        /* \"#utility.yul\":9846:9849   */\n      dup4\n        /* \"#utility.yul\":9787:9854   */\n      tag_430\n      jump\t// in\n    tag_592:\n        /* \"#utility.yul\":9780:9854   */\n      swap2\n      pop\n        /* \"#utility.yul\":9863:9956   */\n      tag_593\n        /* \"#utility.yul\":9952:9955   */\n      dup3\n        /* \"#utility.yul\":9863:9956   */\n      tag_431\n      jump\t// in\n    tag_593:\n        /* \"#utility.yul\":9981:9983   */\n      0x40\n        /* \"#utility.yul\":9976:9979   */\n      dup3\n        /* \"#utility.yul\":9972:9984   */\n      add\n        /* \"#utility.yul\":9965:9984   */\n      swap1\n      pop\n        /* \"#utility.yul\":9624:9990   */\n      swap2\n      swap1\n      pop\n      jump\t// out\n        /* \"#utility.yul\":9996:10415   */\n    tag_148:\n        /* \"#utility.yul\":10162:10166   */\n      0x00\n        /* \"#utility.yul\":10200:10202   */\n      0x20\n        /* \"#utility.yul\":10189:10198   */\n      dup3\n        /* \"#utility.yul\":10185:10203   */\n      add\n        /* \"#utility.yul\":10177:10203   */\n      swap1\n      pop\n        /* \"#utility.yul\":10249:10258   */\n      dup2\n        /* \"#utility.yul\":10243:10247   */\n      dup2\n        /* \"#utility.yul\":10239:10259   */\n      sub\n        /* \"#utility.yul\":10235:10236   */\n      0x00\n        /* \"#utility.yul\":10224:10233   */\n      dup4\n        /* \"#utility.yul\":10220:10237   */\n      add\n        /* \"#utility.yul\":10213:10260   */\n      mstore\n        /* \"#utility.yul\":10277:10408   */\n      tag_595\n        /* \"#utility.yul\":10403:10407   */\n      dup2\n        /* \"#utility.yul\":10277:10408   */\n      tag_432\n      jump\t// in\n    tag_595:\n        /* \"#utility.yul\":10269:10408   */\n      swap1\n      pop\n        /* \"#utility.yul\":9996:10415   */\n      swap2\n      swap1\n      pop\n      jump\t// out\n        /* \"#utility.yul\":10421:10602   */\n    tag_433:\n        /* \"#utility.yul\":10561:10594   */\n      0x5265656e7472616e637947756172643a207265656e7472616e742063616c6c00\n        /* \"#utility.yul\":10557:10558   */\n      0x00\n        /* \"#utility.yul\":10549:10555   */\n      dup3\n        /* \"#utility.yul\":10545:10559   */\n      add\n        /* \"#utility.yul\":10538:10595   */\n      mstore\n        /* \"#utility.yul\":10421:10602   */\n      pop\n      jump\t// out\n        /* \"#utility.yul\":10608:10974   */\n    tag_434:\n        /* \"#utility.yul\":10750:10753   */\n      0x00\n        /* \"#utility.yul\":10771:10838   */\n      tag_598\n        /* \"#utility.yul\":10835:10837   */\n      0x1f\n        /* \"#utility.yul\":10830:10833   */\n      dup4\n        /* \"#utility.yul\":10771:10838   */\n      tag_430\n      jump\t// in\n    tag_598:\n        /* \"#utility.yul\":10764:10838   */\n      swap2\n      pop\n        /* \"#utility.yul\":10847:10940   */\n      tag_599\n        /* \"#utility.yul\":10936:10939   */\n      dup3\n        /* \"#utility.yul\":10847:10940   */\n      tag_433\n      jump\t// in\n    tag_599:\n        /* \"#utility.yul\":10965:10967   */\n      0x20\n        /* \"#utility.yul\":10960:10963   */\n      dup3\n        /* \"#utility.yul\":10956:10968   */\n      add\n        /* \"#utility.yul\":10949:10968   */\n      swap1\n      pop\n        /* \"#utility.yul\":10608:10974   */\n      swap2\n      swap1\n      pop\n      jump\t// out\n        /* \"#utility.yul\":10980:11399   */\n    tag_154:\n        /* \"#utility.yul\":11146:11150   */\n      0x00\n        /* \"#utility.yul\":11184:11186   */\n      0x20\n        /* \"#utility.yul\":11173:11182   */\n      dup3\n        /* \"#utility.yul\":11169:11187   */\n      add\n        /* \"#utility.yul\":11161:11187   */\n      swap1\n      pop\n        /* \"#utility.yul\":11233:11242   */\n      dup2\n        /* \"#utility.yul\":11227:11231   */\n      dup2\n        /* \"#utility.yul\":11223:11243   */\n      sub\n        /* \"#utility.yul\":11219:11220   */\n      0x00\n        /* \"#utility.yul\":11208:11217   */\n      dup4\n        /* \"#utility.yul\":11204:11221   */\n      add\n        /* \"#utility.yul\":11197:11244   */\n      mstore\n        /* \"#utility.yul\":11261:11392   */\n      tag_601\n        /* \"#utility.yul\":11387:11391   */\n      dup2\n        /* \"#utility.yul\":11261:11392   */\n      tag_434\n      jump\t// in\n    tag_601:\n        /* \"#utility.yul\":11253:11392   */\n      swap1\n      pop\n        /* \"#utility.yul\":10980:11399   */\n      swap2\n      swap1\n      pop\n      jump\t// out\n        /* \"#utility.yul\":11405:11548   */\n    tag_435:\n        /* \"#utility.yul\":11462:11467   */\n      0x00\n        /* \"#utility.yul\":11493:11499   */\n      dup2\n        /* \"#utility.yul\":11487:11500   */\n      mload\n        /* \"#utility.yul\":11478:11500   */\n      swap1\n      pop\n        /* \"#utility.yul\":11509:11542   */\n      tag_603\n        /* \"#utility.yul\":11536:11541   */\n      dup2\n        /* \"#utility.yul\":11509:11542   */\n      tag_417\n      jump\t// in\n    tag_603:\n        /* \"#utility.yul\":11405:11548   */\n      swap3\n      swap2\n      pop\n      pop\n      jump\t// out\n        /* \"#utility.yul\":11554:11905   */\n    tag_163:\n        /* \"#utility.yul\":11624:11630   */\n      0x00\n        /* \"#utility.yul\":11673:11675   */\n      0x20\n        /* \"#utility.yul\":11661:11670   */\n      dup3\n        /* \"#utility.yul\":11652:11659   */\n      dup5\n        /* \"#utility.yul\":11648:11671   */\n      sub\n        /* \"#utility.yul\":11644:11676   */\n      slt\n        /* \"#utility.yul\":11641:11760   */\n      iszero\n      tag_605\n      jumpi\n        /* \"#utility.yul\":11679:11758   */\n      tag_606\n      tag_410\n      jump\t// in\n    tag_606:\n        /* \"#utility.yul\":11641:11760   */\n    tag_605:\n        /* \"#utility.yul\":11799:11800   */\n      0x00\n        /* \"#utility.yul\":11824:11888   */\n      tag_607\n        /* \"#utility.yul\":11880:11887   */\n      dup5\n        /* \"#utility.yul\":11871:11877   */\n      dup3\n        /* \"#utility.yul\":11860:11869   */\n      dup6\n        /* \"#utility.yul\":11856:11878   */\n      add\n        /* \"#utility.yul\":11824:11888   */\n      tag_435\n      jump\t// in\n    tag_607:\n        /* \"#utility.yul\":11814:11888   */\n      swap2\n      pop\n        /* \"#utility.yul\":11770:11898   */\n      pop\n        /* \"#utility.yul\":11554:11905   */\n      swap3\n      swap2\n      pop\n      pop\n      jump\t// out\n        /* \"#utility.yul\":11911:12141   */\n    tag_436:\n        /* \"#utility.yul\":12051:12085   */\n      0x546f6b656e56657374696e673a206e6f7420656e6f7567682077697468647261\n        /* \"#utility.yul\":12047:12048   */\n      0x00\n        /* \"#utility.yul\":12039:12045   */\n      dup3\n        /* \"#utility.yul\":12035:12049   */\n      add\n        /* \"#utility.yul\":12028:12086   */\n      mstore\n        /* \"#utility.yul\":12120:12133   */\n      0x7761626c652066756e6473000000000000000000000000000000000000000000\n        /* \"#utility.yul\":12115:12117   */\n      0x20\n        /* \"#utility.yul\":12107:12113   */\n      dup3\n        /* \"#utility.yul\":12103:12118   */\n      add\n        /* \"#utility.yul\":12096:12134   */\n      mstore\n        /* \"#utility.yul\":11911:12141   */\n      pop\n      jump\t// out\n        /* \"#utility.yul\":12147:12513   */\n    tag_437:\n        /* \"#utility.yul\":12289:12292   */\n      0x00\n        /* \"#utility.yul\":12310:12377   */\n      tag_610\n        /* \"#utility.yul\":12374:12376   */\n      0x2b\n        /* \"#utility.yul\":12369:12372   */\n      dup4\n        /* \"#utility.yul\":12310:12377   */\n      tag_430\n      jump\t// in\n    tag_610:\n        /* \"#utility.yul\":12303:12377   */\n      swap2\n      pop\n        /* \"#utility.yul\":12386:12479   */\n      tag_611\n        /* \"#utility.yul\":12475:12478   */\n      dup3\n        /* \"#utility.yul\":12386:12479   */\n      tag_436\n      jump\t// in\n    tag_611:\n        /* \"#utility.yul\":12504:12506   */\n      0x40\n        /* \"#utility.yul\":12499:12502   */\n      dup3\n        /* \"#utility.yul\":12495:12507   */\n      add\n        /* \"#utility.yul\":12488:12507   */\n      swap1\n      pop\n        /* \"#utility.yul\":12147:12513   */\n      swap2\n      swap1\n      pop\n      jump\t// out\n        /* \"#utility.yul\":12519:12938   */\n    tag_166:\n        /* \"#utility.yul\":12685:12689   */\n      0x00\n        /* \"#utility.yul\":12723:12725   */\n      0x20\n        /* \"#utility.yul\":12712:12721   */\n      dup3\n        /* \"#utility.yul\":12708:12726   */\n      add\n        /* \"#utility.yul\":12700:12726   */\n      swap1\n      pop\n        /* \"#utility.yul\":12772:12781   */\n      dup2\n        /* \"#utility.yul\":12766:12770   */\n      dup2\n        /* \"#utility.yul\":12762:12782   */\n      sub\n        /* \"#utility.yul\":12758:12759   */\n      0x00\n        /* \"#utility.yul\":12747:12756   */\n      dup4\n        /* \"#utility.yul\":12743:12760   */\n      add\n        /* \"#utility.yul\":12736:12783   */\n      mstore\n        /* \"#utility.yul\":12800:12931   */\n      tag_613\n        /* \"#utility.yul\":12926:12930   */\n      dup2\n        /* \"#utility.yul\":12800:12931   */\n      tag_437\n      jump\t// in\n    tag_613:\n        /* \"#utility.yul\":12792:12931   */\n      swap1\n      pop\n        /* \"#utility.yul\":12519:12938   */\n      swap2\n      swap1\n      pop\n      jump\t// out\n        /* \"#utility.yul\":12944:13234   */\n    tag_438:\n        /* \"#utility.yul\":13084:13118   */\n      0x546f6b656e56657374696e673a206f6e6c792062656e65666963696172792061\n        /* \"#utility.yul\":13080:13081   */\n      0x00\n        /* \"#utility.yul\":13072:13078   */\n      dup3\n        /* \"#utility.yul\":13068:13082   */\n      add\n        /* \"#utility.yul\":13061:13119   */\n      mstore\n        /* \"#utility.yul\":13153:13187   */\n      0x6e64206f776e65722063616e2072656c656173652076657374656420746f6b65\n        /* \"#utility.yul\":13148:13150   */\n      0x20\n        /* \"#utility.yul\":13140:13146   */\n      dup3\n        /* \"#utility.yul\":13136:13151   */\n      add\n        /* \"#utility.yul\":13129:13188   */\n      mstore\n        /* \"#utility.yul\":13222:13226   */\n      0x6e73000000000000000000000000000000000000000000000000000000000000\n        /* \"#utility.yul\":13217:13219   */\n      0x40\n        /* \"#utility.yul\":13209:13215   */\n      dup3\n        /* \"#utility.yul\":13205:13220   */\n      add\n        /* \"#utility.yul\":13198:13227   */\n      mstore\n        /* \"#utility.yul\":12944:13234   */\n      pop\n      jump\t// out\n        /* \"#utility.yul\":13240:13606   */\n    tag_439:\n        /* \"#utility.yul\":13382:13385   */\n      0x00\n        /* \"#utility.yul\":13403:13470   */\n      tag_616\n        /* \"#utility.yul\":13467:13469   */\n      0x42\n        /* \"#utility.yul\":13462:13465   */\n      dup4\n        /* \"#utility.yul\":13403:13470   */\n      tag_430\n      jump\t// in\n    tag_616:\n        /* \"#utility.yul\":13396:13470   */\n      swap2\n      pop\n        /* \"#utility.yul\":13479:13572   */\n      tag_617\n        /* \"#utility.yul\":13568:13571   */\n      dup3\n        /* \"#utility.yul\":13479:13572   */\n      tag_438\n      jump\t// in\n    tag_617:\n        /* \"#utility.yul\":13597:13599   */\n      0x60\n        /* \"#utility.yul\":13592:13595   */\n      dup3\n        /* \"#utility.yul\":13588:13600   */\n      add\n        /* \"#utility.yul\":13581:13600   */\n      swap1\n      pop\n        /* \"#utility.yul\":13240:13606   */\n      swap2\n      swap1\n      pop\n      jump\t// out\n        /* \"#utility.yul\":13612:14031   */\n    tag_183:\n        /* \"#utility.yul\":13778:13782   */\n      0x00\n        /* \"#utility.yul\":13816:13818   */\n      0x20\n        /* \"#utility.yul\":13805:13814   */\n      dup3\n        /* \"#utility.yul\":13801:13819   */\n      add\n        /* \"#utility.yul\":13793:13819   */\n      swap1\n      pop\n        /* \"#utility.yul\":13865:13874   */\n      dup2\n        /* \"#utility.yul\":13859:13863   */\n      dup2\n        /* \"#utility.yul\":13855:13875   */\n      sub\n        /* \"#utility.yul\":13851:13852   */\n      0x00\n        /* \"#utility.yul\":13840:13849   */\n      dup4\n        /* \"#utility.yul\":13836:13853   */\n      add\n        /* \"#utility.yul\":13829:13876   */\n      mstore\n        /* \"#utility.yul\":13893:14024   */\n      tag_619\n        /* \"#utility.yul\":14019:14023   */\n      dup2\n        /* \"#utility.yul\":13893:14024   */\n      tag_439\n      jump\t// in\n    tag_619:\n        /* \"#utility.yul\":13885:14024   */\n      swap1\n      pop\n        /* \"#utility.yul\":13612:14031   */\n      swap2\n      swap1\n      pop\n      jump\t// out\n        /* \"#utility.yul\":14037:14285   */\n    tag_440:\n        /* \"#utility.yul\":14177:14211   */\n      0x546f6b656e56657374696e673a2063616e6e6f742072656c6561736520746f6b\n        /* \"#utility.yul\":14173:14174   */\n      0x00\n        /* \"#utility.yul\":14165:14171   */\n      dup3\n        /* \"#utility.yul\":14161:14175   */\n      add\n        /* \"#utility.yul\":14154:14212   */\n      mstore\n        /* \"#utility.yul\":14246:14277   */\n      0x656e732c206e6f7420656e6f7567682076657374656420746f6b656e73000000\n        /* \"#utility.yul\":14241:14243   */\n      0x20\n        /* \"#utility.yul\":14233:14239   */\n      dup3\n        /* \"#utility.yul\":14229:14244   */\n      add\n        /* \"#utility.yul\":14222:14278   */\n      mstore\n        /* \"#utility.yul\":14037:14285   */\n      pop\n      jump\t// out\n        /* \"#utility.yul\":14291:14657   */\n    tag_441:\n        /* \"#utility.yul\":14433:14436   */\n      0x00\n        /* \"#utility.yul\":14454:14521   */\n      tag_622\n        /* \"#utility.yul\":14518:14520   */\n      0x3d\n        /* \"#utility.yul\":14513:14516   */\n      dup4\n        /* \"#utility.yul\":14454:14521   */\n      tag_430\n      jump\t// in\n    tag_622:\n        /* \"#utility.yul\":14447:14521   */\n      swap2\n      pop\n        /* \"#utility.yul\":14530:14623   */\n      tag_623\n        /* \"#utility.yul\":14619:14622   */\n      dup3\n        /* \"#utility.yul\":14530:14623   */\n      tag_440\n      jump\t// in\n    tag_623:\n        /* \"#utility.yul\":14648:14650   */\n      0x40\n        /* \"#utility.yul\":14643:14646   */\n      dup3\n        /* \"#utility.yul\":14639:14651   */\n      add\n        /* \"#utility.yul\":14632:14651   */\n      swap1\n      pop\n        /* \"#utility.yul\":14291:14657   */\n      swap2\n      swap1\n      pop\n      jump\t// out\n        /* \"#utility.yul\":14663:15082   */\n    tag_189:\n        /* \"#utility.yul\":14829:14833   */\n      0x00\n        /* \"#utility.yul\":14867:14869   */\n      0x20\n        /* \"#utility.yul\":14856:14865   */\n      dup3\n        /* \"#utility.yul\":14852:14870   */\n      add\n        /* \"#utility.yul\":14844:14870   */\n      swap1\n      pop\n        /* \"#utility.yul\":14916:14925   */\n      dup2\n        /* \"#utility.yul\":14910:14914   */\n      dup2\n        /* \"#utility.yul\":14906:14926   */\n      sub\n        /* \"#utility.yul\":14902:14903   */\n      0x00\n        /* \"#utility.yul\":14891:14900   */\n      dup4\n        /* \"#utility.yul\":14887:14904   */\n      add\n        /* \"#utility.yul\":14880:14927   */\n      mstore\n        /* \"#utility.yul\":14944:15075   */\n      tag_625\n        /* \"#utility.yul\":15070:15074   */\n      dup2\n        /* \"#utility.yul\":14944:15075   */\n      tag_441\n      jump\t// in\n    tag_625:\n        /* \"#utility.yul\":14936:15075   */\n      swap1\n      pop\n        /* \"#utility.yul\":14663:15082   */\n      swap2\n      swap1\n      pop\n      jump\t// out\n        /* \"#utility.yul\":15088:15247   */\n    tag_442:\n        /* \"#utility.yul\":15228:15239   */\n      0x4e6f204163636573730000000000000000000000000000000000000000000000\n        /* \"#utility.yul\":15224:15225   */\n      0x00\n        /* \"#utility.yul\":15216:15222   */\n      dup3\n        /* \"#utility.yul\":15212:15226   */\n      add\n        /* \"#utility.yul\":15205:15240   */\n      mstore\n        /* \"#utility.yul\":15088:15247   */\n      pop\n      jump\t// out\n        /* \"#utility.yul\":15253:15618   */\n    tag_443:\n        /* \"#utility.yul\":15395:15398   */\n      0x00\n        /* \"#utility.yul\":15416:15482   */\n      tag_628\n        /* \"#utility.yul\":15480:15481   */\n      0x09\n        /* \"#utility.yul\":15475:15478   */\n      dup4\n        /* \"#utility.yul\":15416:15482   */\n      tag_430\n      jump\t// in\n    tag_628:\n        /* \"#utility.yul\":15409:15482   */\n      swap2\n      pop\n        /* \"#utility.yul\":15491:15584   */\n      tag_629\n        /* \"#utility.yul\":15580:15583   */\n      dup3\n        /* \"#utility.yul\":15491:15584   */\n      tag_442\n      jump\t// in\n    tag_629:\n        /* \"#utility.yul\":15609:15611   */\n      0x20\n        /* \"#utility.yul\":15604:15607   */\n      dup3\n        /* \"#utility.yul\":15600:15612   */\n      add\n        /* \"#utility.yul\":15593:15612   */\n      swap1\n      pop\n        /* \"#utility.yul\":15253:15618   */\n      swap2\n      swap1\n      pop\n      jump\t// out\n        /* \"#utility.yul\":15624:16043   */\n    tag_205:\n        /* \"#utility.yul\":15790:15794   */\n      0x00\n        /* \"#utility.yul\":15828:15830   */\n      0x20\n        /* \"#utility.yul\":15817:15826   */\n      dup3\n        /* \"#utility.yul\":15813:15831   */\n      add\n        /* \"#utility.yul\":15805:15831   */\n      swap1\n      pop\n        /* \"#utility.yul\":15877:15886   */\n      dup2\n        /* \"#utility.yul\":15871:15875   */\n      dup2\n        /* \"#utility.yul\":15867:15887   */\n      sub\n        /* \"#utility.yul\":15863:15864   */\n      0x00\n        /* \"#utility.yul\":15852:15861   */\n      dup4\n        /* \"#utility.yul\":15848:15865   */\n      add\n        /* \"#utility.yul\":15841:15888   */\n      mstore\n        /* \"#utility.yul\":15905:16036   */\n      tag_631\n        /* \"#utility.yul\":16031:16035   */\n      dup2\n        /* \"#utility.yul\":15905:16036   */\n      tag_443\n      jump\t// in\n    tag_631:\n        /* \"#utility.yul\":15897:16036   */\n      swap1\n      pop\n        /* \"#utility.yul\":15624:16043   */\n      swap2\n      swap1\n      pop\n      jump\t// out\n        /* \"#utility.yul\":16049:16347   */\n    tag_444:\n        /* \"#utility.yul\":16189:16223   */\n      0x546f6b656e56657374696e673a2063616e6e6f74206372656174652076657374\n        /* \"#utility.yul\":16185:16186   */\n      0x00\n        /* \"#utility.yul\":16177:16183   */\n      dup3\n        /* \"#utility.yul\":16173:16187   */\n      add\n        /* \"#utility.yul\":16166:16224   */\n      mstore\n        /* \"#utility.yul\":16258:16292   */\n      0x696e67207363686564756c652062656361757365206e6f742073756666696369\n        /* \"#utility.yul\":16253:16255   */\n      0x20\n        /* \"#utility.yul\":16245:16251   */\n      dup3\n        /* \"#utility.yul\":16241:16256   */\n      add\n        /* \"#utility.yul\":16234:16293   */\n      mstore\n        /* \"#utility.yul\":16327:16339   */\n      0x656e7420746f6b656e7300000000000000000000000000000000000000000000\n        /* \"#utility.yul\":16322:16324   */\n      0x40\n        /* \"#utility.yul\":16314:16320   */\n      dup3\n        /* \"#utility.yul\":16310:16325   */\n      add\n        /* \"#utility.yul\":16303:16340   */\n      mstore\n        /* \"#utility.yul\":16049:16347   */\n      pop\n      jump\t// out\n        /* \"#utility.yul\":16353:16719   */\n    tag_445:\n        /* \"#utility.yul\":16495:16498   */\n      0x00\n        /* \"#utility.yul\":16516:16583   */\n      tag_634\n        /* \"#utility.yul\":16580:16582   */\n      0x4a\n        /* \"#utility.yul\":16575:16578   */\n      dup4\n        /* \"#utility.yul\":16516:16583   */\n      tag_430\n      jump\t// in\n    tag_634:\n        /* \"#utility.yul\":16509:16583   */\n      swap2\n      pop\n        /* \"#utility.yul\":16592:16685   */\n      tag_635\n        /* \"#utility.yul\":16681:16684   */\n      dup3\n        /* \"#utility.yul\":16592:16685   */\n      tag_444\n      jump\t// in\n    tag_635:\n        /* \"#utility.yul\":16710:16712   */\n      0x60\n        /* \"#utility.yul\":16705:16708   */\n      dup3\n        /* \"#utility.yul\":16701:16713   */\n      add\n        /* \"#utility.yul\":16694:16713   */\n      swap1\n      pop\n        /* \"#utility.yul\":16353:16719   */\n      swap2\n      swap1\n      pop\n      jump\t// out\n        /* \"#utility.yul\":16725:17144   */\n    tag_213:\n        /* \"#utility.yul\":16891:16895   */\n      0x00\n        /* \"#utility.yul\":16929:16931   */\n      0x20\n        /* \"#utility.yul\":16918:16927   */\n      dup3\n        /* \"#utility.yul\":16914:16932   */\n      add\n        /* \"#utility.yul\":16906:16932   */\n      swap1\n      pop\n        /* \"#utility.yul\":16978:16987   */\n      dup2\n        /* \"#utility.yul\":16972:16976   */\n      dup2\n        /* \"#utility.yul\":16968:16988   */\n      sub\n        /* \"#utility.yul\":16964:16965   */\n      0x00\n        /* \"#utility.yul\":16953:16962   */\n      dup4\n        /* \"#utility.yul\":16949:16966   */\n      add\n        /* \"#utility.yul\":16942:16989   */\n      mstore\n        /* \"#utility.yul\":17006:17137   */\n      tag_637\n        /* \"#utility.yul\":17132:17136   */\n      dup2\n        /* \"#utility.yul\":17006:17137   */\n      tag_445\n      jump\t// in\n    tag_637:\n        /* \"#utility.yul\":16998:17137   */\n      swap1\n      pop\n        /* \"#utility.yul\":16725:17144   */\n      swap2\n      swap1\n      pop\n      jump\t// out\n        /* \"#utility.yul\":17150:17371   */\n    tag_446:\n        /* \"#utility.yul\":17290:17324   */\n      0x546f6b656e56657374696e673a206475726174696f6e206d757374206265203e\n        /* \"#utility.yul\":17286:17287   */\n      0x00\n        /* \"#utility.yul\":17278:17284   */\n      dup3\n        /* \"#utility.yul\":17274:17288   */\n      add\n        /* \"#utility.yul\":17267:17325   */\n      mstore\n        /* \"#utility.yul\":17359:17363   */\n      0x2030000000000000000000000000000000000000000000000000000000000000\n        /* \"#utility.yul\":17354:17356   */\n      0x20\n        /* \"#utility.yul\":17346:17352   */\n      dup3\n        /* \"#utility.yul\":17342:17357   */\n      add\n        /* \"#utility.yul\":17335:17364   */\n      mstore\n        /* \"#utility.yul\":17150:17371   */\n      pop\n      jump\t// out\n        /* \"#utility.yul\":17377:17743   */\n    tag_447:\n        /* \"#utility.yul\":17519:17522   */\n      0x00\n        /* \"#utility.yul\":17540:17607   */\n      tag_640\n        /* \"#utility.yul\":17604:17606   */\n      0x22\n        /* \"#utility.yul\":17599:17602   */\n      dup4\n        /* \"#utility.yul\":17540:17607   */\n      tag_430\n      jump\t// in\n    tag_640:\n        /* \"#utility.yul\":17533:17607   */\n      swap2\n      pop\n        /* \"#utility.yul\":17616:17709   */\n      tag_641\n        /* \"#utility.yul\":17705:17708   */\n      dup3\n        /* \"#utility.yul\":17616:17709   */\n      tag_446\n      jump\t// in\n    tag_641:\n        /* \"#utility.yul\":17734:17736   */\n      0x40\n        /* \"#utility.yul\":17729:17732   */\n      dup3\n        /* \"#utility.yul\":17725:17737   */\n      add\n        /* \"#utility.yul\":17718:17737   */\n      swap1\n      pop\n        /* \"#utility.yul\":17377:17743   */\n      swap2\n      swap1\n      pop\n      jump\t// out\n        /* \"#utility.yul\":17749:18168   */\n    tag_216:\n        /* \"#utility.yul\":17915:17919   */\n      0x00\n        /* \"#utility.yul\":17953:17955   */\n      0x20\n        /* \"#utility.yul\":17942:17951   */\n      dup3\n        /* \"#utility.yul\":17938:17956   */\n      add\n        /* \"#utility.yul\":17930:17956   */\n      swap1\n      pop\n        /* \"#utility.yul\":18002:18011   */\n      dup2\n        /* \"#utility.yul\":17996:18000   */\n      dup2\n        /* \"#utility.yul\":17992:18012   */\n      sub\n        /* \"#utility.yul\":17988:17989   */\n      0x00\n        /* \"#utility.yul\":17977:17986   */\n      dup4\n        /* \"#utility.yul\":17973:17990   */\n      add\n        /* \"#utility.yul\":17966:18013   */\n      mstore\n        /* \"#utility.yul\":18030:18161   */\n      tag_643\n        /* \"#utility.yul\":18156:18160   */\n      dup2\n        /* \"#utility.yul\":18030:18161   */\n      tag_447\n      jump\t// in\n    tag_643:\n        /* \"#utility.yul\":18022:18161   */\n      swap1\n      pop\n        /* \"#utility.yul\":17749:18168   */\n      swap2\n      swap1\n      pop\n      jump\t// out\n        /* \"#utility.yul\":18174:18356   */\n    tag_448:\n        /* \"#utility.yul\":18314:18348   */\n      0x546f6b656e56657374696e673a20616d6f756e74206d757374206265203e2030\n        /* \"#utility.yul\":18310:18311   */\n      0x00\n        /* \"#utility.yul\":18302:18308   */\n      dup3\n        /* \"#utility.yul\":18298:18312   */\n      add\n        /* \"#utility.yul\":18291:18349   */\n      mstore\n        /* \"#utility.yul\":18174:18356   */\n      pop\n      jump\t// out\n        /* \"#utility.yul\":18362:18728   */\n    tag_449:\n        /* \"#utility.yul\":18504:18507   */\n      0x00\n        /* \"#utility.yul\":18525:18592   */\n      tag_646\n        /* \"#utility.yul\":18589:18591   */\n      0x20\n        /* \"#utility.yul\":18584:18587   */\n      dup4\n        /* \"#utility.yul\":18525:18592   */\n      tag_430\n      jump\t// in\n    tag_646:\n        /* \"#utility.yul\":18518:18592   */\n      swap2\n      pop\n        /* \"#utility.yul\":18601:18694   */\n      tag_647\n        /* \"#utility.yul\":18690:18693   */\n      dup3\n        /* \"#utility.yul\":18601:18694   */\n      tag_448\n      jump\t// in\n    tag_647:\n        /* \"#utility.yul\":18719:18721   */\n      0x20\n        /* \"#utility.yul\":18714:18717   */\n      dup3\n        /* \"#utility.yul\":18710:18722   */\n      add\n        /* \"#utility.yul\":18703:18722   */\n      swap1\n      pop\n        /* \"#utility.yul\":18362:18728   */\n      swap2\n      swap1\n      pop\n      jump\t// out\n        /* \"#utility.yul\":18734:19153   */\n    tag_219:\n        /* \"#utility.yul\":18900:18904   */\n      0x00\n        /* \"#utility.yul\":18938:18940   */\n      0x20\n        /* \"#utility.yul\":18927:18936   */\n      dup3\n        /* \"#utility.yul\":18923:18941   */\n      add\n        /* \"#utility.yul\":18915:18941   */\n      swap1\n      pop\n        /* \"#utility.yul\":18987:18996   */\n      dup2\n        /* \"#utility.yul\":18981:18985   */\n      dup2\n        /* \"#utility.yul\":18977:18997   */\n      sub\n        /* \"#utility.yul\":18973:18974   */\n      0x00\n        /* \"#utility.yul\":18962:18971   */\n      dup4\n        /* \"#utility.yul\":18958:18975   */\n      add\n        /* \"#utility.yul\":18951:18998   */\n      mstore\n        /* \"#utility.yul\":19015:19146   */\n      tag_649\n        /* \"#utility.yul\":19141:19145   */\n      dup2\n        /* \"#utility.yul\":19015:19146   */\n      tag_449\n      jump\t// in\n    tag_649:\n        /* \"#utility.yul\":19007:19146   */\n      swap1\n      pop\n        /* \"#utility.yul\":18734:19153   */\n      swap2\n      swap1\n      pop\n      jump\t// out\n        /* \"#utility.yul\":19159:19391   */\n    tag_450:\n        /* \"#utility.yul\":19299:19333   */\n      0x546f6b656e56657374696e673a20736c696365506572696f645365636f6e6473\n        /* \"#utility.yul\":19295:19296   */\n      0x00\n        /* \"#utility.yul\":19287:19293   */\n      dup3\n        /* \"#utility.yul\":19283:19297   */\n      add\n        /* \"#utility.yul\":19276:19334   */\n      mstore\n        /* \"#utility.yul\":19368:19383   */\n      0x206d757374206265203e3d203100000000000000000000000000000000000000\n        /* \"#utility.yul\":19363:19365   */\n      0x20\n        /* \"#utility.yul\":19355:19361   */\n      dup3\n        /* \"#utility.yul\":19351:19366   */\n      add\n        /* \"#utility.yul\":19344:19384   */\n      mstore\n        /* \"#utility.yul\":19159:19391   */\n      pop\n      jump\t// out\n        /* \"#utility.yul\":19397:19763   */\n    tag_451:\n        /* \"#utility.yul\":19539:19542   */\n      0x00\n        /* \"#utility.yul\":19560:19627   */\n      tag_652\n        /* \"#utility.yul\":19624:19626   */\n      0x2d\n        /* \"#utility.yul\":19619:19622   */\n      dup4\n        /* \"#utility.yul\":19560:19627   */\n      tag_430\n      jump\t// in\n    tag_652:\n        /* \"#utility.yul\":19553:19627   */\n      swap2\n      pop\n        /* \"#utility.yul\":19636:19729   */\n      tag_653\n        /* \"#utility.yul\":19725:19728   */\n      dup3\n        /* \"#utility.yul\":19636:19729   */\n      tag_450\n      jump\t// in\n    tag_653:\n        /* \"#utility.yul\":19754:19756   */\n      0x40\n        /* \"#utility.yul\":19749:19752   */\n      dup3\n        /* \"#utility.yul\":19745:19757   */\n      add\n        /* \"#utility.yul\":19738:19757   */\n      swap1\n      pop\n        /* \"#utility.yul\":19397:19763   */\n      swap2\n      swap1\n      pop\n      jump\t// out\n        /* \"#utility.yul\":19769:20188   */\n    tag_222:\n        /* \"#utility.yul\":19935:19939   */\n      0x00\n        /* \"#utility.yul\":19973:19975   */\n      0x20\n        /* \"#utility.yul\":19962:19971   */\n      dup3\n        /* \"#utility.yul\":19958:19976   */\n      add\n        /* \"#utility.yul\":19950:19976   */\n      swap1\n      pop\n        /* \"#utility.yul\":20022:20031   */\n      dup2\n        /* \"#utility.yul\":20016:20020   */\n      dup2\n        /* \"#utility.yul\":20012:20032   */\n      sub\n        /* \"#utility.yul\":20008:20009   */\n      0x00\n        /* \"#utility.yul\":19997:20006   */\n      dup4\n        /* \"#utility.yul\":19993:20010   */\n      add\n        /* \"#utility.yul\":19986:20033   */\n      mstore\n        /* \"#utility.yul\":20050:20181   */\n      tag_655\n        /* \"#utility.yul\":20176:20180   */\n      dup2\n        /* \"#utility.yul\":20050:20181   */\n      tag_451\n      jump\t// in\n    tag_655:\n        /* \"#utility.yul\":20042:20181   */\n      swap1\n      pop\n        /* \"#utility.yul\":19769:20188   */\n      swap2\n      swap1\n      pop\n      jump\t// out\n        /* \"#utility.yul\":20194:20337   */\n    tag_452:\n        /* \"#utility.yul\":20251:20256   */\n      0x00\n        /* \"#utility.yul\":20282:20288   */\n      dup2\n        /* \"#utility.yul\":20276:20289   */\n      mload\n        /* \"#utility.yul\":20267:20289   */\n      swap1\n      pop\n        /* \"#utility.yul\":20298:20331   */\n      tag_657\n        /* \"#utility.yul\":20325:20330   */\n      dup2\n        /* \"#utility.yul\":20298:20331   */\n      tag_420\n      jump\t// in\n    tag_657:\n        /* \"#utility.yul\":20194:20337   */\n      swap3\n      swap2\n      pop\n      pop\n      jump\t// out\n        /* \"#utility.yul\":20343:20694   */\n    tag_228:\n        /* \"#utility.yul\":20413:20419   */\n      0x00\n        /* \"#utility.yul\":20462:20464   */\n      0x20\n        /* \"#utility.yul\":20450:20459   */\n      dup3\n        /* \"#utility.yul\":20441:20448   */\n      dup5\n        /* \"#utility.yul\":20437:20460   */\n      sub\n        /* \"#utility.yul\":20433:20465   */\n      slt\n        /* \"#utility.yul\":20430:20549   */\n      iszero\n      tag_659\n      jumpi\n        /* \"#utility.yul\":20468:20547   */\n      tag_660\n      tag_410\n      jump\t// in\n    tag_660:\n        /* \"#utility.yul\":20430:20549   */\n    tag_659:\n        /* \"#utility.yul\":20588:20589   */\n      0x00\n        /* \"#utility.yul\":20613:20677   */\n      tag_661\n        /* \"#utility.yul\":20669:20676   */\n      dup5\n        /* \"#utility.yul\":20660:20666   */\n      dup3\n        /* \"#utility.yul\":20649:20658   */\n      dup6\n        /* \"#utility.yul\":20645:20667   */\n      add\n        /* \"#utility.yul\":20613:20677   */\n      tag_452\n      jump\t// in\n    tag_661:\n        /* \"#utility.yul\":20603:20677   */\n      swap2\n      pop\n        /* \"#utility.yul\":20559:20687   */\n      pop\n        /* \"#utility.yul\":20343:20694   */\n      swap3\n      swap2\n      pop\n      pop\n      jump\t// out\n        /* \"#utility.yul\":20700:20880   */\n    tag_453:\n        /* \"#utility.yul\":20748:20825   */\n      0x4e487b7100000000000000000000000000000000000000000000000000000000\n        /* \"#utility.yul\":20745:20746   */\n      0x00\n        /* \"#utility.yul\":20738:20826   */\n      mstore\n        /* \"#utility.yul\":20845:20849   */\n      0x11\n        /* \"#utility.yul\":20842:20843   */\n      0x04\n        /* \"#utility.yul\":20835:20850   */\n      mstore\n        /* \"#utility.yul\":20869:20873   */\n      0x24\n        /* \"#utility.yul\":20866:20867   */\n      0x00\n        /* \"#utility.yul\":20859:20874   */\n      revert\n        /* \"#utility.yul\":20886:21077   */\n    tag_238:\n        /* \"#utility.yul\":20926:20930   */\n      0x00\n        /* \"#utility.yul\":20946:20966   */\n      tag_664\n        /* \"#utility.yul\":20964:20965   */\n      dup3\n        /* \"#utility.yul\":20946:20966   */\n      tag_407\n      jump\t// in\n    tag_664:\n        /* \"#utility.yul\":20941:20966   */\n      swap2\n      pop\n        /* \"#utility.yul\":20980:21000   */\n      tag_665\n        /* \"#utility.yul\":20998:20999   */\n      dup4\n        /* \"#utility.yul\":20980:21000   */\n      tag_407\n      jump\t// in\n    tag_665:\n        /* \"#utility.yul\":20975:21000   */\n      swap3\n      pop\n        /* \"#utility.yul\":21019:21020   */\n      dup3\n        /* \"#utility.yul\":21016:21017   */\n      dup3\n        /* \"#utility.yul\":21013:21021   */\n      lt\n        /* \"#utility.yul\":21010:21044   */\n      iszero\n      tag_666\n      jumpi\n        /* \"#utility.yul\":21024:21042   */\n      tag_667\n      tag_453\n      jump\t// in\n    tag_667:\n        /* \"#utility.yul\":21010:21044   */\n    tag_666:\n        /* \"#utility.yul\":21069:21070   */\n      dup3\n        /* \"#utility.yul\":21066:21067   */\n      dup3\n        /* \"#utility.yul\":21062:21071   */\n      sub\n        /* \"#utility.yul\":21054:21071   */\n      swap1\n      pop\n        /* \"#utility.yul\":20886:21077   */\n      swap3\n      swap2\n      pop\n      pop\n      jump\t// out\n        /* \"#utility.yul\":21083:21177   */\n    tag_454:\n        /* \"#utility.yul\":21116:21124   */\n      0x00\n        /* \"#utility.yul\":21164:21169   */\n      dup2\n        /* \"#utility.yul\":21160:21162   */\n      0x60\n        /* \"#utility.yul\":21156:21170   */\n      shl\n        /* \"#utility.yul\":21135:21170   */\n      swap1\n      pop\n        /* \"#utility.yul\":21083:21177   */\n      swap2\n      swap1\n      pop\n      jump\t// out\n        /* \"#utility.yul\":21183:21277   */\n    tag_455:\n        /* \"#utility.yul\":21222:21229   */\n      0x00\n        /* \"#utility.yul\":21251:21271   */\n      tag_670\n        /* \"#utility.yul\":21265:21270   */\n      dup3\n        /* \"#utility.yul\":21251:21271   */\n      tag_454\n      jump\t// in\n    tag_670:\n        /* \"#utility.yul\":21240:21271   */\n      swap1\n      pop\n        /* \"#utility.yul\":21183:21277   */\n      swap2\n      swap1\n      pop\n      jump\t// out\n        /* \"#utility.yul\":21283:21383   */\n    tag_456:\n        /* \"#utility.yul\":21322:21329   */\n      0x00\n        /* \"#utility.yul\":21351:21377   */\n      tag_672\n        /* \"#utility.yul\":21371:21376   */\n      dup3\n        /* \"#utility.yul\":21351:21377   */\n      tag_455\n      jump\t// in\n    tag_672:\n        /* \"#utility.yul\":21340:21377   */\n      swap1\n      pop\n        /* \"#utility.yul\":21283:21383   */\n      swap2\n      swap1\n      pop\n      jump\t// out\n        /* \"#utility.yul\":21389:21546   */\n    tag_457:\n        /* \"#utility.yul\":21494:21539   */\n      tag_674\n        /* \"#utility.yul\":21514:21538   */\n      tag_675\n        /* \"#utility.yul\":21532:21537   */\n      dup3\n        /* \"#utility.yul\":21514:21538   */\n      tag_413\n      jump\t// in\n    tag_675:\n        /* \"#utility.yul\":21494:21539   */\n      tag_456\n      jump\t// in\n    tag_674:\n        /* \"#utility.yul\":21489:21492   */\n      dup3\n        /* \"#utility.yul\":21482:21540   */\n      mstore\n        /* \"#utility.yul\":21389:21546   */\n      pop\n      pop\n      jump\t// out\n        /* \"#utility.yul\":21552:21631   */\n    tag_458:\n        /* \"#utility.yul\":21591:21598   */\n      0x00\n        /* \"#utility.yul\":21620:21625   */\n      dup2\n        /* \"#utility.yul\":21609:21625   */\n      swap1\n      pop\n        /* \"#utility.yul\":21552:21631   */\n      swap2\n      swap1\n      pop\n      jump\t// out\n        /* \"#utility.yul\":21637:21794   */\n    tag_459:\n        /* \"#utility.yul\":21742:21787   */\n      tag_678\n        /* \"#utility.yul\":21762:21786   */\n      tag_679\n        /* \"#utility.yul\":21780:21785   */\n      dup3\n        /* \"#utility.yul\":21762:21786   */\n      tag_407\n      jump\t// in\n    tag_679:\n        /* \"#utility.yul\":21742:21787   */\n      tag_458\n      jump\t// in\n    tag_678:\n        /* \"#utility.yul\":21737:21740   */\n      dup3\n        /* \"#utility.yul\":21730:21788   */\n      mstore\n        /* \"#utility.yul\":21637:21794   */\n      pop\n      pop\n      jump\t// out\n        /* \"#utility.yul\":21800:22197   */\n    tag_249:\n        /* \"#utility.yul\":21940:21943   */\n      0x00\n        /* \"#utility.yul\":21955:22030   */\n      tag_681\n        /* \"#utility.yul\":22026:22029   */\n      dup3\n        /* \"#utility.yul\":22017:22023   */\n      dup6\n        /* \"#utility.yul\":21955:22030   */\n      tag_457\n      jump\t// in\n    tag_681:\n        /* \"#utility.yul\":22055:22057   */\n      0x14\n        /* \"#utility.yul\":22050:22053   */\n      dup3\n        /* \"#utility.yul\":22046:22058   */\n      add\n        /* \"#utility.yul\":22039:22058   */\n      swap2\n      pop\n        /* \"#utility.yul\":22068:22143   */\n      tag_682\n        /* \"#utility.yul\":22139:22142   */\n      dup3\n        /* \"#utility.yul\":22130:22136   */\n      dup5\n        /* \"#utility.yul\":22068:22143   */\n      tag_459\n      jump\t// in\n    tag_682:\n        /* \"#utility.yul\":22168:22170   */\n      0x20\n        /* \"#utility.yul\":22163:22166   */\n      dup3\n        /* \"#utility.yul\":22159:22171   */\n      add\n        /* \"#utility.yul\":22152:22171   */\n      swap2\n      pop\n        /* \"#utility.yul\":22188:22191   */\n      dup2\n        /* \"#utility.yul\":22181:22191   */\n      swap1\n      pop\n        /* \"#utility.yul\":21800:22197   */\n      swap4\n      swap3\n      pop\n      pop\n      pop\n      jump\t// out\n        /* \"#utility.yul\":22203:22446   */\n    tag_460:\n        /* \"#utility.yul\":22343:22377   */\n      0x52656c65617365546f6b656e41745447453a206f6e6c7920696e766573746f72\n        /* \"#utility.yul\":22339:22340   */\n      0x00\n        /* \"#utility.yul\":22331:22337   */\n      dup3\n        /* \"#utility.yul\":22327:22341   */\n      add\n        /* \"#utility.yul\":22320:22378   */\n      mstore\n        /* \"#utility.yul\":22412:22438   */\n      0x732063616e20636c61696d20746f6b656e206174205447450000000000000000\n        /* \"#utility.yul\":22407:22409   */\n      0x20\n        /* \"#utility.yul\":22399:22405   */\n      dup3\n        /* \"#utility.yul\":22395:22410   */\n      add\n        /* \"#utility.yul\":22388:22439   */\n      mstore\n        /* \"#utility.yul\":22203:22446   */\n      pop\n      jump\t// out\n        /* \"#utility.yul\":22452:22818   */\n    tag_461:\n        /* \"#utility.yul\":22594:22597   */\n      0x00\n        /* \"#utility.yul\":22615:22682   */\n      tag_685\n        /* \"#utility.yul\":22679:22681   */\n      0x38\n        /* \"#utility.yul\":22674:22677   */\n      dup4\n        /* \"#utility.yul\":22615:22682   */\n      tag_430\n      jump\t// in\n    tag_685:\n        /* \"#utility.yul\":22608:22682   */\n      swap2\n      pop\n        /* \"#utility.yul\":22691:22784   */\n      tag_686\n        /* \"#utility.yul\":22780:22783   */\n      dup3\n        /* \"#utility.yul\":22691:22784   */\n      tag_460\n      jump\t// in\n    tag_686:\n        /* \"#utility.yul\":22809:22811   */\n      0x40\n        /* \"#utility.yul\":22804:22807   */\n      dup3\n        /* \"#utility.yul\":22800:22812   */\n      add\n        /* \"#utility.yul\":22793:22812   */\n      swap1\n      pop\n        /* \"#utility.yul\":22452:22818   */\n      swap2\n      swap1\n      pop\n      jump\t// out\n        /* \"#utility.yul\":22824:23243   */\n    tag_260:\n        /* \"#utility.yul\":22990:22994   */\n      0x00\n        /* \"#utility.yul\":23028:23030   */\n      0x20\n        /* \"#utility.yul\":23017:23026   */\n      dup3\n        /* \"#utility.yul\":23013:23031   */\n      add\n        /* \"#utility.yul\":23005:23031   */\n      swap1\n      pop\n        /* \"#utility.yul\":23077:23086   */\n      dup2\n        /* \"#utility.yul\":23071:23075   */\n      dup2\n        /* \"#utility.yul\":23067:23087   */\n      sub\n        /* \"#utility.yul\":23063:23064   */\n      0x00\n        /* \"#utility.yul\":23052:23061   */\n      dup4\n        /* \"#utility.yul\":23048:23065   */\n      add\n        /* \"#utility.yul\":23041:23088   */\n      mstore\n        /* \"#utility.yul\":23105:23236   */\n      tag_688\n        /* \"#utility.yul\":23231:23235   */\n      dup2\n        /* \"#utility.yul\":23105:23236   */\n      tag_461\n      jump\t// in\n    tag_688:\n        /* \"#utility.yul\":23097:23236   */\n      swap1\n      pop\n        /* \"#utility.yul\":22824:23243   */\n      swap2\n      swap1\n      pop\n      jump\t// out\n        /* \"#utility.yul\":23249:23421   */\n    tag_462:\n        /* \"#utility.yul\":23389:23413   */\n      0x5447453a2074696d65206e6f7420726561636865642100000000000000000000\n        /* \"#utility.yul\":23385:23386   */\n      0x00\n        /* \"#utility.yul\":23377:23383   */\n      dup3\n        /* \"#utility.yul\":23373:23387   */\n      add\n        /* \"#utility.yul\":23366:23414   */\n      mstore\n        /* \"#utility.yul\":23249:23421   */\n      pop\n      jump\t// out\n        /* \"#utility.yul\":23427:23793   */\n    tag_463:\n        /* \"#utility.yul\":23569:23572   */\n      0x00\n        /* \"#utility.yul\":23590:23657   */\n      tag_691\n        /* \"#utility.yul\":23654:23656   */\n      0x16\n        /* \"#utility.yul\":23649:23652   */\n      dup4\n        /* \"#utility.yul\":23590:23657   */\n      tag_430\n      jump\t// in\n    tag_691:\n        /* \"#utility.yul\":23583:23657   */\n      swap2\n      pop\n        /* \"#utility.yul\":23666:23759   */\n      tag_692\n        /* \"#utility.yul\":23755:23758   */\n      dup3\n        /* \"#utility.yul\":23666:23759   */\n      tag_462\n      jump\t// in\n    tag_692:\n        /* \"#utility.yul\":23784:23786   */\n      0x20\n        /* \"#utility.yul\":23779:23782   */\n      dup3\n        /* \"#utility.yul\":23775:23787   */\n      add\n        /* \"#utility.yul\":23768:23787   */\n      swap1\n      pop\n        /* \"#utility.yul\":23427:23793   */\n      swap2\n      swap1\n      pop\n      jump\t// out\n        /* \"#utility.yul\":23799:24218   */\n    tag_264:\n        /* \"#utility.yul\":23965:23969   */\n      0x00\n        /* \"#utility.yul\":24003:24005   */\n      0x20\n        /* \"#utility.yul\":23992:24001   */\n      dup3\n        /* \"#utility.yul\":23988:24006   */\n      add\n        /* \"#utility.yul\":23980:24006   */\n      swap1\n      pop\n        /* \"#utility.yul\":24052:24061   */\n      dup2\n        /* \"#utility.yul\":24046:24050   */\n      dup2\n        /* \"#utility.yul\":24042:24062   */\n      sub\n        /* \"#utility.yul\":24038:24039   */\n      0x00\n        /* \"#utility.yul\":24027:24036   */\n      dup4\n        /* \"#utility.yul\":24023:24040   */\n      add\n        /* \"#utility.yul\":24016:24063   */\n      mstore\n        /* \"#utility.yul\":24080:24211   */\n      tag_694\n        /* \"#utility.yul\":24206:24210   */\n      dup2\n        /* \"#utility.yul\":24080:24211   */\n      tag_463\n      jump\t// in\n    tag_694:\n        /* \"#utility.yul\":24072:24211   */\n      swap1\n      pop\n        /* \"#utility.yul\":23799:24218   */\n      swap2\n      swap1\n      pop\n      jump\t// out\n        /* \"#utility.yul\":24224:24400   */\n    tag_464:\n        /* \"#utility.yul\":24364:24392   */\n      0x5447453a20546f6b656e20416c726561647920636c61696d6564000000000000\n        /* \"#utility.yul\":24360:24361   */\n      0x00\n        /* \"#utility.yul\":24352:24358   */\n      dup3\n        /* \"#utility.yul\":24348:24362   */\n      add\n        /* \"#utility.yul\":24341:24393   */\n      mstore\n        /* \"#utility.yul\":24224:24400   */\n      pop\n      jump\t// out\n        /* \"#utility.yul\":24406:24772   */\n    tag_465:\n        /* \"#utility.yul\":24548:24551   */\n      0x00\n        /* \"#utility.yul\":24569:24636   */\n      tag_697\n        /* \"#utility.yul\":24633:24635   */\n      0x1a\n        /* \"#utility.yul\":24628:24631   */\n      dup4\n        /* \"#utility.yul\":24569:24636   */\n      tag_430\n      jump\t// in\n    tag_697:\n        /* \"#utility.yul\":24562:24636   */\n      swap2\n      pop\n        /* \"#utility.yul\":24645:24738   */\n      tag_698\n        /* \"#utility.yul\":24734:24737   */\n      dup3\n        /* \"#utility.yul\":24645:24738   */\n      tag_464\n      jump\t// in\n    tag_698:\n        /* \"#utility.yul\":24763:24765   */\n      0x20\n        /* \"#utility.yul\":24758:24761   */\n      dup3\n        /* \"#utility.yul\":24754:24766   */\n      add\n        /* \"#utility.yul\":24747:24766   */\n      swap1\n      pop\n        /* \"#utility.yul\":24406:24772   */\n      swap2\n      swap1\n      pop\n      jump\t// out\n        /* \"#utility.yul\":24778:25197   */\n    tag_267:\n        /* \"#utility.yul\":24944:24948   */\n      0x00\n        /* \"#utility.yul\":24982:24984   */\n      0x20\n        /* \"#utility.yul\":24971:24980   */\n      dup3\n        /* \"#utility.yul\":24967:24985   */\n      add\n        /* \"#utility.yul\":24959:24985   */\n      swap1\n      pop\n        /* \"#utility.yul\":25031:25040   */\n      dup2\n        /* \"#utility.yul\":25025:25029   */\n      dup2\n        /* \"#utility.yul\":25021:25041   */\n      sub\n        /* \"#utility.yul\":25017:25018   */\n      0x00\n        /* \"#utility.yul\":25006:25015   */\n      dup4\n        /* \"#utility.yul\":25002:25019   */\n      add\n        /* \"#utility.yul\":24995:25042   */\n      mstore\n        /* \"#utility.yul\":25059:25190   */\n      tag_700\n        /* \"#utility.yul\":25185:25189   */\n      dup2\n        /* \"#utility.yul\":25059:25190   */\n      tag_465\n      jump\t// in\n    tag_700:\n        /* \"#utility.yul\":25051:25190   */\n      swap1\n      pop\n        /* \"#utility.yul\":24778:25197   */\n      swap2\n      swap1\n      pop\n      jump\t// out\n        /* \"#utility.yul\":25203:25263   */\n    tag_466:\n        /* \"#utility.yul\":25231:25234   */\n      0x00\n        /* \"#utility.yul\":25252:25257   */\n      dup2\n        /* \"#utility.yul\":25245:25257   */\n      swap1\n      pop\n        /* \"#utility.yul\":25203:25263   */\n      swap2\n      swap1\n      pop\n      jump\t// out\n        /* \"#utility.yul\":25269:25411   */\n    tag_467:\n        /* \"#utility.yul\":25319:25328   */\n      0x00\n        /* \"#utility.yul\":25352:25405   */\n      tag_703\n        /* \"#utility.yul\":25370:25404   */\n      tag_704\n        /* \"#utility.yul\":25379:25403   */\n      tag_705\n        /* \"#utility.yul\":25397:25402   */\n      dup5\n        /* \"#utility.yul\":25379:25403   */\n      tag_412\n      jump\t// in\n    tag_705:\n        /* \"#utility.yul\":25370:25404   */\n      tag_466\n      jump\t// in\n    tag_704:\n        /* \"#utility.yul\":25352:25405   */\n      tag_412\n      jump\t// in\n    tag_703:\n        /* \"#utility.yul\":25339:25405   */\n      swap1\n      pop\n        /* \"#utility.yul\":25269:25411   */\n      swap2\n      swap1\n      pop\n      jump\t// out\n        /* \"#utility.yul\":25417:25543   */\n    tag_468:\n        /* \"#utility.yul\":25467:25476   */\n      0x00\n        /* \"#utility.yul\":25500:25537   */\n      tag_707\n        /* \"#utility.yul\":25531:25536   */\n      dup3\n        /* \"#utility.yul\":25500:25537   */\n      tag_467\n      jump\t// in\n    tag_707:\n        /* \"#utility.yul\":25487:25537   */\n      swap1\n      pop\n        /* \"#utility.yul\":25417:25543   */\n      swap2\n      swap1\n      pop\n      jump\t// out\n        /* \"#utility.yul\":25549:25683   */\n    tag_469:\n        /* \"#utility.yul\":25607:25616   */\n      0x00\n        /* \"#utility.yul\":25640:25677   */\n      tag_709\n        /* \"#utility.yul\":25671:25676   */\n      dup3\n        /* \"#utility.yul\":25640:25677   */\n      tag_468\n      jump\t// in\n    tag_709:\n        /* \"#utility.yul\":25627:25677   */\n      swap1\n      pop\n        /* \"#utility.yul\":25549:25683   */\n      swap2\n      swap1\n      pop\n      jump\t// out\n        /* \"#utility.yul\":25689:25836   */\n    tag_470:\n        /* \"#utility.yul\":25784:25829   */\n      tag_711\n        /* \"#utility.yul\":25823:25828   */\n      dup2\n        /* \"#utility.yul\":25784:25829   */\n      tag_469\n      jump\t// in\n    tag_711:\n        /* \"#utility.yul\":25779:25782   */\n      dup3\n        /* \"#utility.yul\":25772:25830   */\n      mstore\n        /* \"#utility.yul\":25689:25836   */\n      pop\n      pop\n      jump\t// out\n        /* \"#utility.yul\":25842:26190   */\n    tag_273:\n        /* \"#utility.yul\":25971:25975   */\n      0x00\n        /* \"#utility.yul\":26009:26011   */\n      0x40\n        /* \"#utility.yul\":25998:26007   */\n      dup3\n        /* \"#utility.yul\":25994:26012   */\n      add\n        /* \"#utility.yul\":25986:26012   */\n      swap1\n      pop\n        /* \"#utility.yul\":26022:26101   */\n      tag_713\n        /* \"#utility.yul\":26098:26099   */\n      0x00\n        /* \"#utility.yul\":26087:26096   */\n      dup4\n        /* \"#utility.yul\":26083:26100   */\n      add\n        /* \"#utility.yul\":26074:26080   */\n      dup6\n        /* \"#utility.yul\":26022:26101   */\n      tag_470\n      jump\t// in\n    tag_713:\n        /* \"#utility.yul\":26111:26183   */\n      tag_714\n        /* \"#utility.yul\":26179:26181   */\n      0x20\n        /* \"#utility.yul\":26168:26177   */\n      dup4\n        /* \"#utility.yul\":26164:26182   */\n      add\n        /* \"#utility.yul\":26155:26161   */\n      dup5\n        /* \"#utility.yul\":26111:26183   */\n      tag_408\n      jump\t// in\n    tag_714:\n        /* \"#utility.yul\":25842:26190   */\n      swap4\n      swap3\n      pop\n      pop\n      pop\n      jump\t// out\n        /* \"#utility.yul\":26196:26421   */\n    tag_471:\n        /* \"#utility.yul\":26336:26370   */\n      0x546f6b656e56657374696e673a2076657374696e67206973206e6f7420726576\n        /* \"#utility.yul\":26332:26333   */\n      0x00\n        /* \"#utility.yul\":26324:26330   */\n      dup3\n        /* \"#utility.yul\":26320:26334   */\n      add\n        /* \"#utility.yul\":26313:26371   */\n      mstore\n        /* \"#utility.yul\":26405:26413   */\n      0x6f6361626c650000000000000000000000000000000000000000000000000000\n        /* \"#utility.yul\":26400:26402   */\n      0x20\n        /* \"#utility.yul\":26392:26398   */\n      dup3\n        /* \"#utility.yul\":26388:26403   */\n      add\n        /* \"#utility.yul\":26381:26414   */\n      mstore\n        /* \"#utility.yul\":26196:26421   */\n      pop\n      jump\t// out\n        /* \"#utility.yul\":26427:26793   */\n    tag_472:\n        /* \"#utility.yul\":26569:26572   */\n      0x00\n        /* \"#utility.yul\":26590:26657   */\n      tag_717\n        /* \"#utility.yul\":26654:26656   */\n      0x26\n        /* \"#utility.yul\":26649:26652   */\n      dup4\n        /* \"#utility.yul\":26590:26657   */\n      tag_430\n      jump\t// in\n    tag_717:\n        /* \"#utility.yul\":26583:26657   */\n      swap2\n      pop\n        /* \"#utility.yul\":26666:26759   */\n      tag_718\n        /* \"#utility.yul\":26755:26758   */\n      dup3\n        /* \"#utility.yul\":26666:26759   */\n      tag_471\n      jump\t// in\n    tag_718:\n        /* \"#utility.yul\":26784:26786   */\n      0x40\n        /* \"#utility.yul\":26779:26782   */\n      dup3\n        /* \"#utility.yul\":26775:26787   */\n      add\n        /* \"#utility.yul\":26768:26787   */\n      swap1\n      pop\n        /* \"#utility.yul\":26427:26793   */\n      swap2\n      swap1\n      pop\n      jump\t// out\n        /* \"#utility.yul\":26799:27218   */\n    tag_293:\n        /* \"#utility.yul\":26965:26969   */\n      0x00\n        /* \"#utility.yul\":27003:27005   */\n      0x20\n        /* \"#utility.yul\":26992:27001   */\n      dup3\n        /* \"#utility.yul\":26988:27006   */\n      add\n        /* \"#utility.yul\":26980:27006   */\n      swap1\n      pop\n        /* \"#utility.yul\":27052:27061   */\n      dup2\n        /* \"#utility.yul\":27046:27050   */\n      dup2\n        /* \"#utility.yul\":27042:27062   */\n      sub\n        /* \"#utility.yul\":27038:27039   */\n      0x00\n        /* \"#utility.yul\":27027:27036   */\n      dup4\n        /* \"#utility.yul\":27023:27040   */\n      add\n        /* \"#utility.yul\":27016:27063   */\n      mstore\n        /* \"#utility.yul\":27080:27211   */\n      tag_720\n        /* \"#utility.yul\":27206:27210   */\n      dup2\n        /* \"#utility.yul\":27080:27211   */\n      tag_472\n      jump\t// in\n    tag_720:\n        /* \"#utility.yul\":27072:27211   */\n      swap1\n      pop\n        /* \"#utility.yul\":26799:27218   */\n      swap2\n      swap1\n      pop\n      jump\t// out\n        /* \"#utility.yul\":27224:27529   */\n    tag_301:\n        /* \"#utility.yul\":27264:27267   */\n      0x00\n        /* \"#utility.yul\":27283:27303   */\n      tag_722\n        /* \"#utility.yul\":27301:27302   */\n      dup3\n        /* \"#utility.yul\":27283:27303   */\n      tag_407\n      jump\t// in\n    tag_722:\n        /* \"#utility.yul\":27278:27303   */\n      swap2\n      pop\n        /* \"#utility.yul\":27317:27337   */\n      tag_723\n        /* \"#utility.yul\":27335:27336   */\n      dup4\n        /* \"#utility.yul\":27317:27337   */\n      tag_407\n      jump\t// in\n    tag_723:\n        /* \"#utility.yul\":27312:27337   */\n      swap3\n      pop\n        /* \"#utility.yul\":27471:27472   */\n      dup3\n        /* \"#utility.yul\":27403:27469   */\n      0xffffffffffffffffffffffffffffffffffffffffffffffffffffffffffffffff\n        /* \"#utility.yul\":27399:27473   */\n      sub\n        /* \"#utility.yul\":27396:27397   */\n      dup3\n        /* \"#utility.yul\":27393:27474   */\n      gt\n        /* \"#utility.yul\":27390:27497   */\n      iszero\n      tag_724\n      jumpi\n        /* \"#utility.yul\":27477:27495   */\n      tag_725\n      tag_453\n      jump\t// in\n    tag_725:\n        /* \"#utility.yul\":27390:27497   */\n    tag_724:\n        /* \"#utility.yul\":27521:27522   */\n      dup3\n        /* \"#utility.yul\":27518:27519   */\n      dup3\n        /* \"#utility.yul\":27514:27523   */\n      add\n        /* \"#utility.yul\":27507:27523   */\n      swap1\n      pop\n        /* \"#utility.yul\":27224:27529   */\n      swap3\n      swap2\n      pop\n      pop\n      jump\t// out\n        /* \"#utility.yul\":27535:27760   */\n    tag_473:\n        /* \"#utility.yul\":27675:27709   */\n      0x4f776e61626c653a206e6577206f776e657220697320746865207a65726f2061\n        /* \"#utility.yul\":27671:27672   */\n      0x00\n        /* \"#utility.yul\":27663:27669   */\n      dup3\n        /* \"#utility.yul\":27659:27673   */\n      add\n        /* \"#utility.yul\":27652:27710   */\n      mstore\n        /* \"#utility.yul\":27744:27752   */\n      0x6464726573730000000000000000000000000000000000000000000000000000\n        /* \"#utility.yul\":27739:27741   */\n      0x20\n        /* \"#utility.yul\":27731:27737   */\n      dup3\n        /* \"#utility.yul\":27727:27742   */\n      add\n        /* \"#utility.yul\":27720:27753   */\n      mstore\n        /* \"#utility.yul\":27535:27760   */\n      pop\n      jump\t// out\n        /* \"#utility.yul\":27766:28132   */\n    tag_474:\n        /* \"#utility.yul\":27908:27911   */\n      0x00\n        /* \"#utility.yul\":27929:27996   */\n      tag_728\n        /* \"#utility.yul\":27993:27995   */\n      0x26\n        /* \"#utility.yul\":27988:27991   */\n      dup4\n        /* \"#utility.yul\":27929:27996   */\n      tag_430\n      jump\t// in\n    tag_728:\n        /* \"#utility.yul\":27922:27996   */\n      swap2\n      pop\n        /* \"#utility.yul\":28005:28098   */\n      tag_729\n        /* \"#utility.yul\":28094:28097   */\n      dup3\n        /* \"#utility.yul\":28005:28098   */\n      tag_473\n      jump\t// in\n    tag_729:\n        /* \"#utility.yul\":28123:28125   */\n      0x40\n        /* \"#utility.yul\":28118:28121   */\n      dup3\n        /* \"#utility.yul\":28114:28126   */\n      add\n        /* \"#utility.yul\":28107:28126   */\n      swap1\n      pop\n        /* \"#utility.yul\":27766:28132   */\n      swap2\n      swap1\n      pop\n      jump\t// out\n        /* \"#utility.yul\":28138:28557   */\n    tag_313:\n        /* \"#utility.yul\":28304:28308   */\n      0x00\n        /* \"#utility.yul\":28342:28344   */\n      0x20\n        /* \"#utility.yul\":28331:28340   */\n      dup3\n        /* \"#utility.yul\":28327:28345   */\n      add\n        /* \"#utility.yul\":28319:28345   */\n      swap1\n      pop\n        /* \"#utility.yul\":28391:28400   */\n      dup2\n        /* \"#utility.yul\":28385:28389   */\n      dup2\n        /* \"#utility.yul\":28381:28401   */\n      sub\n        /* \"#utility.yul\":28377:28378   */\n      0x00\n        /* \"#utility.yul\":28366:28375   */\n      dup4\n        /* \"#utility.yul\":28362:28379   */\n      add\n        /* \"#utility.yul\":28355:28402   */\n      mstore\n        /* \"#utility.yul\":28419:28550   */\n      tag_731\n        /* \"#utility.yul\":28545:28549   */\n      dup2\n        /* \"#utility.yul\":28419:28550   */\n      tag_474\n      jump\t// in\n    tag_731:\n        /* \"#utility.yul\":28411:28550   */\n      swap1\n      pop\n        /* \"#utility.yul\":28138:28557   */\n      swap2\n      swap1\n      pop\n      jump\t// out\n        /* \"#utility.yul\":28563:28783   */\n    tag_475:\n        /* \"#utility.yul\":28703:28737   */\n      0x546f6b656e56657374696e673a20696e646578206f7574206f6620626f756e64\n        /* \"#utility.yul\":28699:28700   */\n      0x00\n        /* \"#utility.yul\":28691:28697   */\n      dup3\n        /* \"#utility.yul\":28687:28701   */\n      add\n        /* \"#utility.yul\":28680:28738   */\n      mstore\n        /* \"#utility.yul\":28772:28775   */\n      0x7300000000000000000000000000000000000000000000000000000000000000\n        /* \"#utility.yul\":28767:28769   */\n      0x20\n        /* \"#utility.yul\":28759:28765   */\n      dup3\n        /* \"#utility.yul\":28755:28770   */\n      add\n        /* \"#utility.yul\":28748:28776   */\n      mstore\n        /* \"#utility.yul\":28563:28783   */\n      pop\n      jump\t// out\n        /* \"#utility.yul\":28789:29155   */\n    tag_476:\n        /* \"#utility.yul\":28931:28934   */\n      0x00\n        /* \"#utility.yul\":28952:29019   */\n      tag_734\n        /* \"#utility.yul\":29016:29018   */\n      0x21\n        /* \"#utility.yul\":29011:29014   */\n      dup4\n        /* \"#utility.yul\":28952:29019   */\n      tag_430\n      jump\t// in\n    tag_734:\n        /* \"#utility.yul\":28945:29019   */\n      swap2\n      pop\n        /* \"#utility.yul\":29028:29121   */\n      tag_735\n        /* \"#utility.yul\":29117:29120   */\n      dup3\n        /* \"#utility.yul\":29028:29121   */\n      tag_475\n      jump\t// in\n    tag_735:\n        /* \"#utility.yul\":29146:29148   */\n      0x40\n        /* \"#utility.yul\":29141:29144   */\n      dup3\n        /* \"#utility.yul\":29137:29149   */\n      add\n        /* \"#utility.yul\":29130:29149   */\n      swap1\n      pop\n        /* \"#utility.yul\":28789:29155   */\n      swap2\n      swap1\n      pop\n      jump\t// out\n        /* \"#utility.yul\":29161:29580   */\n    tag_325:\n        /* \"#utility.yul\":29327:29331   */\n      0x00\n        /* \"#utility.yul\":29365:29367   */\n      0x20\n        /* \"#utility.yul\":29354:29363   */\n      dup3\n        /* \"#utility.yul\":29350:29368   */\n      add\n        /* \"#utility.yul\":29342:29368   */\n      swap1\n      pop\n        /* \"#utility.yul\":29414:29423   */\n      dup2\n        /* \"#utility.yul\":29408:29412   */\n      dup2\n        /* \"#utility.yul\":29404:29424   */\n      sub\n        /* \"#utility.yul\":29400:29401   */\n      0x00\n        /* \"#utility.yul\":29389:29398   */\n      dup4\n        /* \"#utility.yul\":29385:29402   */\n      add\n        /* \"#utility.yul\":29378:29425   */\n      mstore\n        /* \"#utility.yul\":29442:29573   */\n      tag_737\n        /* \"#utility.yul\":29568:29572   */\n      dup2\n        /* \"#utility.yul\":29442:29573   */\n      tag_476\n      jump\t// in\n    tag_737:\n        /* \"#utility.yul\":29434:29573   */\n      swap1\n      pop\n        /* \"#utility.yul\":29161:29580   */\n      swap2\n      swap1\n      pop\n      jump\t// out\n        /* \"#utility.yul\":29586:29766   */\n    tag_328:\n        /* \"#utility.yul\":29634:29711   */\n      0x4e487b7100000000000000000000000000000000000000000000000000000000\n        /* \"#utility.yul\":29631:29632   */\n      0x00\n        /* \"#utility.yul\":29624:29712   */\n      mstore\n        /* \"#utility.yul\":29731:29735   */\n      0x32\n        /* \"#utility.yul\":29728:29729   */\n      0x04\n        /* \"#utility.yul\":29721:29736   */\n      mstore\n        /* \"#utility.yul\":29755:29759   */\n      0x24\n        /* \"#utility.yul\":29752:29753   */\n      0x00\n        /* \"#utility.yul\":29745:29760   */\n      revert\n        /* \"#utility.yul\":29772:29954   */\n    tag_477:\n        /* \"#utility.yul\":29912:29946   */\n      0x4f776e61626c653a2063616c6c6572206973206e6f7420746865206f776e6572\n        /* \"#utility.yul\":29908:29909   */\n      0x00\n        /* \"#utility.yul\":29900:29906   */\n      dup3\n        /* \"#utility.yul\":29896:29910   */\n      add\n        /* \"#utility.yul\":29889:29947   */\n      mstore\n        /* \"#utility.yul\":29772:29954   */\n      pop\n      jump\t// out\n        /* \"#utility.yul\":29960:30326   */\n    tag_478:\n        /* \"#utility.yul\":30102:30105   */\n      0x00\n        /* \"#utility.yul\":30123:30190   */\n      tag_741\n        /* \"#utility.yul\":30187:30189   */\n      0x20\n        /* \"#utility.yul\":30182:30185   */\n      dup4\n        /* \"#utility.yul\":30123:30190   */\n      tag_430\n      jump\t// in\n    tag_741:\n        /* \"#utility.yul\":30116:30190   */\n      swap2\n      pop\n        /* \"#utility.yul\":30199:30292   */\n      tag_742\n        /* \"#utility.yul\":30288:30291   */\n      dup3\n        /* \"#utility.yul\":30199:30292   */\n      tag_477\n      jump\t// in\n    tag_742:\n        /* \"#utility.yul\":30317:30319   */\n      0x20\n        /* \"#utility.yul\":30312:30315   */\n      dup3\n        /* \"#utility.yul\":30308:30320   */\n      add\n        /* \"#utility.yul\":30301:30320   */\n      swap1\n      pop\n        /* \"#utility.yul\":29960:30326   */\n      swap2\n      swap1\n      pop\n      jump\t// out\n        /* \"#utility.yul\":30332:30751   */\n    tag_336:\n        /* \"#utility.yul\":30498:30502   */\n      0x00\n        /* \"#utility.yul\":30536:30538   */\n      0x20\n        /* \"#utility.yul\":30525:30534   */\n      dup3\n        /* \"#utility.yul\":30521:30539   */\n      add\n        /* \"#utility.yul\":30513:30539   */\n      swap1\n      pop\n        /* \"#utility.yul\":30585:30594   */\n      dup2\n        /* \"#utility.yul\":30579:30583   */\n      dup2\n        /* \"#utility.yul\":30575:30595   */\n      sub\n        /* \"#utility.yul\":30571:30572   */\n      0x00\n        /* \"#utility.yul\":30560:30569   */\n      dup4\n        /* \"#utility.yul\":30556:30573   */\n      add\n        /* \"#utility.yul\":30549:30596   */\n      mstore\n        /* \"#utility.yul\":30613:30744   */\n      tag_744\n        /* \"#utility.yul\":30739:30743   */\n      dup2\n        /* \"#utility.yul\":30613:30744   */\n      tag_478\n      jump\t// in\n    tag_744:\n        /* \"#utility.yul\":30605:30744   */\n      swap1\n      pop\n        /* \"#utility.yul\":30332:30751   */\n      swap2\n      swap1\n      pop\n      jump\t// out\n        /* \"#utility.yul\":30757:31089   */\n    tag_340:\n        /* \"#utility.yul\":30878:30882   */\n      0x00\n        /* \"#utility.yul\":30916:30918   */\n      0x40\n        /* \"#utility.yul\":30905:30914   */\n      dup3\n        /* \"#utility.yul\":30901:30919   */\n      add\n        /* \"#utility.yul\":30893:30919   */\n      swap1\n      pop\n        /* \"#utility.yul\":30929:31000   */\n      tag_746\n        /* \"#utility.yul\":30997:30998   */\n      0x00\n        /* \"#utility.yul\":30986:30995   */\n      dup4\n        /* \"#utility.yul\":30982:30999   */\n      add\n        /* \"#utility.yul\":30973:30979   */\n      dup6\n        /* \"#utility.yul\":30929:31000   */\n      tag_416\n      jump\t// in\n    tag_746:\n        /* \"#utility.yul\":31010:31082   */\n      tag_747\n        /* \"#utility.yul\":31078:31080   */\n      0x20\n        /* \"#utility.yul\":31067:31076   */\n      dup4\n        /* \"#utility.yul\":31063:31081   */\n      add\n        /* \"#utility.yul\":31054:31060   */\n      dup5\n        /* \"#utility.yul\":31010:31082   */\n      tag_408\n      jump\t// in\n    tag_747:\n        /* \"#utility.yul\":30757:31089   */\n      swap4\n      swap3\n      pop\n      pop\n      pop\n      jump\t// out\n        /* \"#utility.yul\":31095:31443   */\n    tag_366:\n        /* \"#utility.yul\":31135:31142   */\n      0x00\n        /* \"#utility.yul\":31158:31178   */\n      tag_749\n        /* \"#utility.yul\":31176:31177   */\n      dup3\n        /* \"#utility.yul\":31158:31178   */\n      tag_407\n      jump\t// in\n    tag_749:\n        /* \"#utility.yul\":31153:31178   */\n      swap2\n      pop\n        /* \"#utility.yul\":31192:31212   */\n      tag_750\n        /* \"#utility.yul\":31210:31211   */\n      dup4\n        /* \"#utility.yul\":31192:31212   */\n      tag_407\n      jump\t// in\n    tag_750:\n        /* \"#utility.yul\":31187:31212   */\n      swap3\n      pop\n        /* \"#utility.yul\":31380:31381   */\n      dup2\n        /* \"#utility.yul\":31312:31378   */\n      0xffffffffffffffffffffffffffffffffffffffffffffffffffffffffffffffff\n        /* \"#utility.yul\":31308:31382   */\n      div\n        /* \"#utility.yul\":31305:31306   */\n      dup4\n        /* \"#utility.yul\":31302:31383   */\n      gt\n        /* \"#utility.yul\":31297:31298   */\n      dup3\n        /* \"#utility.yul\":31290:31299   */\n      iszero\n        /* \"#utility.yul\":31283:31300   */\n      iszero\n        /* \"#utility.yul\":31279:31384   */\n      and\n        /* \"#utility.yul\":31276:31407   */\n      iszero\n      tag_751\n      jumpi\n        /* \"#utility.yul\":31387:31405   */\n      tag_752\n      tag_453\n      jump\t// in\n    tag_752:\n        /* \"#utility.yul\":31276:31407   */\n    tag_751:\n        /* \"#utility.yul\":31435:31436   */\n      dup3\n        /* \"#utility.yul\":31432:31433   */\n      dup3\n        /* \"#utility.yul\":31428:31437   */\n      mul\n        /* \"#utility.yul\":31417:31437   */\n      swap1\n      pop\n        /* \"#utility.yul\":31095:31443   */\n      swap3\n      swap2\n      pop\n      pop\n      jump\t// out\n        /* \"#utility.yul\":31449:31629   */\n    tag_479:\n        /* \"#utility.yul\":31497:31574   */\n      0x4e487b7100000000000000000000000000000000000000000000000000000000\n        /* \"#utility.yul\":31494:31495   */\n      0x00\n        /* \"#utility.yul\":31487:31575   */\n      mstore\n        /* \"#utility.yul\":31594:31598   */\n      0x12\n        /* \"#utility.yul\":31591:31592   */\n      0x04\n        /* \"#utility.yul\":31584:31599   */\n      mstore\n        /* \"#utility.yul\":31618:31622   */\n      0x24\n        /* \"#utility.yul\":31615:31616   */\n      0x00\n        /* \"#utility.yul\":31608:31623   */\n      revert\n        /* \"#utility.yul\":31635:31820   */\n    tag_369:\n        /* \"#utility.yul\":31675:31676   */\n      0x00\n        /* \"#utility.yul\":31692:31712   */\n      tag_755\n        /* \"#utility.yul\":31710:31711   */\n      dup3\n        /* \"#utility.yul\":31692:31712   */\n      tag_407\n      jump\t// in\n    tag_755:\n        /* \"#utility.yul\":31687:31712   */\n      swap2\n      pop\n        /* \"#utility.yul\":31726:31746   */\n      tag_756\n        /* \"#utility.yul\":31744:31745   */\n      dup4\n        /* \"#utility.yul\":31726:31746   */\n      tag_407\n      jump\t// in\n    tag_756:\n        /* \"#utility.yul\":31721:31746   */\n      swap3\n      pop\n        /* \"#utility.yul\":31765:31766   */\n      dup3\n        /* \"#utility.yul\":31755:31790   */\n      tag_757\n      jumpi\n        /* \"#utility.yul\":31770:31788   */\n      tag_758\n      tag_479\n      jump\t// in\n    tag_758:\n        /* \"#utility.yul\":31755:31790   */\n    tag_757:\n        /* \"#utility.yul\":31812:31813   */\n      dup3\n        /* \"#utility.yul\":31809:31810   */\n      dup3\n        /* \"#utility.yul\":31805:31814   */\n      div\n        /* \"#utility.yul\":31800:31814   */\n      swap1\n      pop\n        /* \"#utility.yul\":31635:31820   */\n      swap3\n      swap2\n      pop\n      pop\n      jump\t// out\n        /* \"#utility.yul\":31826:31963   */\n    tag_480:\n        /* \"#utility.yul\":31880:31885   */\n      0x00\n        /* \"#utility.yul\":31911:31917   */\n      dup2\n        /* \"#utility.yul\":31905:31918   */\n      mload\n        /* \"#utility.yul\":31896:31918   */\n      swap1\n      pop\n        /* \"#utility.yul\":31927:31957   */\n      tag_760\n        /* \"#utility.yul\":31951:31956   */\n      dup2\n        /* \"#utility.yul\":31927:31957   */\n      tag_423\n      jump\t// in\n    tag_760:\n        /* \"#utility.yul\":31826:31963   */\n      swap3\n      swap2\n      pop\n      pop\n      jump\t// out\n        /* \"#utility.yul\":31969:32314   */\n    tag_376:\n        /* \"#utility.yul\":32036:32042   */\n      0x00\n        /* \"#utility.yul\":32085:32087   */\n      0x20\n        /* \"#utility.yul\":32073:32082   */\n      dup3\n        /* \"#utility.yul\":32064:32071   */\n      dup5\n        /* \"#utility.yul\":32060:32083   */\n      sub\n        /* \"#utility.yul\":32056:32088   */\n      slt\n        /* \"#utility.yul\":32053:32172   */\n      iszero\n      tag_762\n      jumpi\n        /* \"#utility.yul\":32091:32170   */\n      tag_763\n      tag_410\n      jump\t// in\n    tag_763:\n        /* \"#utility.yul\":32053:32172   */\n    tag_762:\n        /* \"#utility.yul\":32211:32212   */\n      0x00\n        /* \"#utility.yul\":32236:32297   */\n      tag_764\n        /* \"#utility.yul\":32289:32296   */\n      dup5\n        /* \"#utility.yul\":32280:32286   */\n      dup3\n        /* \"#utility.yul\":32269:32278   */\n      dup6\n        /* \"#utility.yul\":32265:32287   */\n      add\n        /* \"#utility.yul\":32236:32297   */\n      tag_480\n      jump\t// in\n    tag_764:\n        /* \"#utility.yul\":32226:32297   */\n      swap2\n      pop\n        /* \"#utility.yul\":32182:32307   */\n      pop\n        /* \"#utility.yul\":31969:32314   */\n      swap3\n      swap2\n      pop\n      pop\n      jump\t// out\n        /* \"#utility.yul\":32320:32549   */\n    tag_481:\n        /* \"#utility.yul\":32460:32494   */\n      0x5361666545524332303a204552433230206f7065726174696f6e20646964206e\n        /* \"#utility.yul\":32456:32457   */\n      0x00\n        /* \"#utility.yul\":32448:32454   */\n      dup3\n        /* \"#utility.yul\":32444:32458   */\n      add\n        /* \"#utility.yul\":32437:32495   */\n      mstore\n        /* \"#utility.yul\":32529:32541   */\n      0x6f74207375636365656400000000000000000000000000000000000000000000\n        /* \"#utility.yul\":32524:32526   */\n      0x20\n        /* \"#utility.yul\":32516:32522   */\n      dup3\n        /* \"#utility.yul\":32512:32527   */\n      add\n        /* \"#utility.yul\":32505:32542   */\n      mstore\n        /* \"#utility.yul\":32320:32549   */\n      pop\n      jump\t// out\n        /* \"#utility.yul\":32555:32921   */\n    tag_482:\n        /* \"#utility.yul\":32697:32700   */\n      0x00\n        /* \"#utility.yul\":32718:32785   */\n      tag_767\n        /* \"#utility.yul\":32782:32784   */\n      0x2a\n        /* \"#utility.yul\":32777:32780   */\n      dup4\n        /* \"#utility.yul\":32718:32785   */\n      tag_430\n      jump\t// in\n    tag_767:\n        /* \"#utility.yul\":32711:32785   */\n      swap2\n      pop\n        /* \"#utility.yul\":32794:32887   */\n      tag_768\n        /* \"#utility.yul\":32883:32886   */\n      dup3\n        /* \"#utility.yul\":32794:32887   */\n      tag_481\n      jump\t// in\n    tag_768:\n        /* \"#utility.yul\":32912:32914   */\n      0x40\n        /* \"#utility.yul\":32907:32910   */\n      dup3\n        /* \"#utility.yul\":32903:32915   */\n      add\n        /* \"#utility.yul\":32896:32915   */\n      swap1\n      pop\n        /* \"#utility.yul\":32555:32921   */\n      swap2\n      swap1\n      pop\n      jump\t// out\n        /* \"#utility.yul\":32927:33346   */\n    tag_379:\n        /* \"#utility.yul\":33093:33097   */\n      0x00\n        /* \"#utility.yul\":33131:33133   */\n      0x20\n        /* \"#utility.yul\":33120:33129   */\n      dup3\n        /* \"#utility.yul\":33116:33134   */\n      add\n        /* \"#utility.yul\":33108:33134   */\n      swap1\n      pop\n        /* \"#utility.yul\":33180:33189   */\n      dup2\n        /* \"#utility.yul\":33174:33178   */\n      dup2\n        /* \"#utility.yul\":33170:33190   */\n      sub\n        /* \"#utility.yul\":33166:33167   */\n      0x00\n        /* \"#utility.yul\":33155:33164   */\n      dup4\n        /* \"#utility.yul\":33151:33168   */\n      add\n        /* \"#utility.yul\":33144:33191   */\n      mstore\n        /* \"#utility.yul\":33208:33339   */\n      tag_770\n        /* \"#utility.yul\":33334:33338   */\n      dup2\n        /* \"#utility.yul\":33208:33339   */\n      tag_482\n      jump\t// in\n    tag_770:\n        /* \"#utility.yul\":33200:33339   */\n      swap1\n      pop\n        /* \"#utility.yul\":32927:33346   */\n      swap2\n      swap1\n      pop\n      jump\t// out\n        /* \"#utility.yul\":33352:33577   */\n    tag_483:\n        /* \"#utility.yul\":33492:33526   */\n      0x416464726573733a20696e73756666696369656e742062616c616e636520666f\n        /* \"#utility.yul\":33488:33489   */\n      0x00\n        /* \"#utility.yul\":33480:33486   */\n      dup3\n        /* \"#utility.yul\":33476:33490   */\n      add\n        /* \"#utility.yul\":33469:33527   */\n      mstore\n        /* \"#utility.yul\":33561:33569   */\n      0x722063616c6c0000000000000000000000000000000000000000000000000000\n        /* \"#utility.yul\":33556:33558   */\n      0x20\n        /* \"#utility.yul\":33548:33554   */\n      dup3\n        /* \"#utility.yul\":33544:33559   */\n      add\n        /* \"#utility.yul\":33537:33570   */\n      mstore\n        /* \"#utility.yul\":33352:33577   */\n      pop\n      jump\t// out\n        /* \"#utility.yul\":33583:33949   */\n    tag_484:\n        /* \"#utility.yul\":33725:33728   */\n      0x00\n        /* \"#utility.yul\":33746:33813   */\n      tag_773\n        /* \"#utility.yul\":33810:33812   */\n      0x26\n        /* \"#utility.yul\":33805:33808   */\n      dup4\n        /* \"#utility.yul\":33746:33813   */\n      tag_430\n      jump\t// in\n    tag_773:\n        /* \"#utility.yul\":33739:33813   */\n      swap2\n      pop\n        /* \"#utility.yul\":33822:33915   */\n      tag_774\n        /* \"#utility.yul\":33911:33914   */\n      dup3\n        /* \"#utility.yul\":33822:33915   */\n      tag_483\n      jump\t// in\n    tag_774:\n        /* \"#utility.yul\":33940:33942   */\n      0x40\n        /* \"#utility.yul\":33935:33938   */\n      dup3\n        /* \"#utility.yul\":33931:33943   */\n      add\n        /* \"#utility.yul\":33924:33943   */\n      swap1\n      pop\n        /* \"#utility.yul\":33583:33949   */\n      swap2\n      swap1\n      pop\n      jump\t// out\n        /* \"#utility.yul\":33955:34374   */\n    tag_386:\n        /* \"#utility.yul\":34121:34125   */\n      0x00\n        /* \"#utility.yul\":34159:34161   */\n      0x20\n        /* \"#utility.yul\":34148:34157   */\n      dup3\n        /* \"#utility.yul\":34144:34162   */\n      add\n        /* \"#utility.yul\":34136:34162   */\n      swap1\n      pop\n        /* \"#utility.yul\":34208:34217   */\n      dup2\n        /* \"#utility.yul\":34202:34206   */\n      dup2\n        /* \"#utility.yul\":34198:34218   */\n      sub\n        /* \"#utility.yul\":34194:34195   */\n      0x00\n        /* \"#utility.yul\":34183:34192   */\n      dup4\n        /* \"#utility.yul\":34179:34196   */\n      add\n        /* \"#utility.yul\":34172:34219   */\n      mstore\n        /* \"#utility.yul\":34236:34367   */\n      tag_776\n        /* \"#utility.yul\":34362:34366   */\n      dup2\n        /* \"#utility.yul\":34236:34367   */\n      tag_484\n      jump\t// in\n    tag_776:\n        /* \"#utility.yul\":34228:34367   */\n      swap1\n      pop\n        /* \"#utility.yul\":33955:34374   */\n      swap2\n      swap1\n      pop\n      jump\t// out\n        /* \"#utility.yul\":34380:34559   */\n    tag_485:\n        /* \"#utility.yul\":34520:34551   */\n      0x416464726573733a2063616c6c20746f206e6f6e2d636f6e7472616374000000\n        /* \"#utility.yul\":34516:34517   */\n      0x00\n        /* \"#utility.yul\":34508:34514   */\n      dup3\n        /* \"#utility.yul\":34504:34518   */\n      add\n        /* \"#utility.yul\":34497:34552   */\n      mstore\n        /* \"#utility.yul\":34380:34559   */\n      pop\n      jump\t// out\n        /* \"#utility.yul\":34565:34931   */\n    tag_486:\n        /* \"#utility.yul\":34707:34710   */\n      0x00\n        /* \"#utility.yul\":34728:34795   */\n      tag_779\n        /* \"#utility.yul\":34792:34794   */\n      0x1d\n        /* \"#utility.yul\":34787:34790   */\n      dup4\n        /* \"#utility.yul\":34728:34795   */\n      tag_430\n      jump\t// in\n    tag_779:\n        /* \"#utility.yul\":34721:34795   */\n      swap2\n      pop\n        /* \"#utility.yul\":34804:34897   */\n      tag_780\n        /* \"#utility.yul\":34893:34896   */\n      dup3\n        /* \"#utility.yul\":34804:34897   */\n      tag_485\n      jump\t// in\n    tag_780:\n        /* \"#utility.yul\":34922:34924   */\n      0x20\n        /* \"#utility.yul\":34917:34920   */\n      dup3\n        /* \"#utility.yul\":34913:34925   */\n      add\n        /* \"#utility.yul\":34906:34925   */\n      swap1\n      pop\n        /* \"#utility.yul\":34565:34931   */\n      swap2\n      swap1\n      pop\n      jump\t// out\n        /* \"#utility.yul\":34937:35356   */\n    tag_391:\n        /* \"#utility.yul\":35103:35107   */\n      0x00\n        /* \"#utility.yul\":35141:35143   */\n      0x20\n        /* \"#utility.yul\":35130:35139   */\n      dup3\n        /* \"#utility.yul\":35126:35144   */\n      add\n        /* \"#utility.yul\":35118:35144   */\n      swap1\n      pop\n        /* \"#utility.yul\":35190:35199   */\n      dup2\n        /* \"#utility.yul\":35184:35188   */\n      dup2\n        /* \"#utility.yul\":35180:35200   */\n      sub\n        /* \"#utility.yul\":35176:35177   */\n      0x00\n        /* \"#utility.yul\":35165:35174   */\n      dup4\n        /* \"#utility.yul\":35161:35178   */\n      add\n        /* \"#utility.yul\":35154:35201   */\n      mstore\n        /* \"#utility.yul\":35218:35349   */\n      tag_782\n        /* \"#utility.yul\":35344:35348   */\n      dup2\n        /* \"#utility.yul\":35218:35349   */\n      tag_486\n      jump\t// in\n    tag_782:\n        /* \"#utility.yul\":35210:35349   */\n      swap1\n      pop\n        /* \"#utility.yul\":34937:35356   */\n      swap2\n      swap1\n      pop\n      jump\t// out\n        /* \"#utility.yul\":35362:35460   */\n    tag_487:\n        /* \"#utility.yul\":35413:35419   */\n      0x00\n        /* \"#utility.yul\":35447:35452   */\n      dup2\n        /* \"#utility.yul\":35441:35453   */\n      mload\n        /* \"#utility.yul\":35431:35453   */\n      swap1\n      pop\n        /* \"#utility.yul\":35362:35460   */\n      swap2\n      swap1\n      pop\n      jump\t// out\n        /* \"#utility.yul\":35466:35613   */\n    tag_488:\n        /* \"#utility.yul\":35567:35578   */\n      0x00\n        /* \"#utility.yul\":35604:35607   */\n      dup2\n        /* \"#utility.yul\":35589:35607   */\n      swap1\n      pop\n        /* \"#utility.yul\":35466:35613   */\n      swap3\n      swap2\n      pop\n      pop\n      jump\t// out\n        /* \"#utility.yul\":35619:35926   */\n    tag_489:\n        /* \"#utility.yul\":35687:35688   */\n      0x00\n        /* \"#utility.yul\":35697:35810   */\n    tag_786:\n        /* \"#utility.yul\":35711:35717   */\n      dup4\n        /* \"#utility.yul\":35708:35709   */\n      dup2\n        /* \"#utility.yul\":35705:35718   */\n      lt\n        /* \"#utility.yul\":35697:35810   */\n      iszero\n      tag_788\n      jumpi\n        /* \"#utility.yul\":35796:35797   */\n      dup1\n        /* \"#utility.yul\":35791:35794   */\n      dup3\n        /* \"#utility.yul\":35787:35798   */\n      add\n        /* \"#utility.yul\":35781:35799   */\n      mload\n        /* \"#utility.yul\":35777:35778   */\n      dup2\n        /* \"#utility.yul\":35772:35775   */\n      dup5\n        /* \"#utility.yul\":35768:35779   */\n      add\n        /* \"#utility.yul\":35761:35800   */\n      mstore\n        /* \"#utility.yul\":35733:35735   */\n      0x20\n        /* \"#utility.yul\":35730:35731   */\n      dup2\n        /* \"#utility.yul\":35726:35736   */\n      add\n        /* \"#utility.yul\":35721:35736   */\n      swap1\n      pop\n        /* \"#utility.yul\":35697:35810   */\n      jump(tag_786)\n    tag_788:\n        /* \"#utility.yul\":35828:35834   */\n      dup4\n        /* \"#utility.yul\":35825:35826   */\n      dup2\n        /* \"#utility.yul\":35822:35835   */\n      gt\n        /* \"#utility.yul\":35819:35920   */\n      iszero\n      tag_789\n      jumpi\n        /* \"#utility.yul\":35908:35909   */\n      0x00\n        /* \"#utility.yul\":35899:35905   */\n      dup5\n        /* \"#utility.yul\":35894:35897   */\n      dup5\n        /* \"#utility.yul\":35890:35906   */\n      add\n        /* \"#utility.yul\":35883:35910   */\n      mstore\n        /* \"#utility.yul\":35819:35920   */\n    tag_789:\n        /* \"#utility.yul\":35668:35926   */\n      pop\n        /* \"#utility.yul\":35619:35926   */\n      pop\n      pop\n      pop\n      jump\t// out\n        /* \"#utility.yul\":35932:36305   */\n    tag_490:\n        /* \"#utility.yul\":36036:36039   */\n      0x00\n        /* \"#utility.yul\":36064:36102   */\n      tag_791\n        /* \"#utility.yul\":36096:36101   */\n      dup3\n        /* \"#utility.yul\":36064:36102   */\n      tag_487\n      jump\t// in\n    tag_791:\n        /* \"#utility.yul\":36118:36206   */\n      tag_792\n        /* \"#utility.yul\":36199:36205   */\n      dup2\n        /* \"#utility.yul\":36194:36197   */\n      dup6\n        /* \"#utility.yul\":36118:36206   */\n      tag_488\n      jump\t// in\n    tag_792:\n        /* \"#utility.yul\":36111:36206   */\n      swap4\n      pop\n        /* \"#utility.yul\":36215:36267   */\n      tag_793\n        /* \"#utility.yul\":36260:36266   */\n      dup2\n        /* \"#utility.yul\":36255:36258   */\n      dup6\n        /* \"#utility.yul\":36248:36252   */\n      0x20\n        /* \"#utility.yul\":36241:36246   */\n      dup7\n        /* \"#utility.yul\":36237:36253   */\n      add\n        /* \"#utility.yul\":36215:36267   */\n      tag_489\n      jump\t// in\n    tag_793:\n        /* \"#utility.yul\":36292:36298   */\n      dup1\n        /* \"#utility.yul\":36287:36290   */\n      dup5\n        /* \"#utility.yul\":36283:36299   */\n      add\n        /* \"#utility.yul\":36276:36299   */\n      swap2\n      pop\n        /* \"#utility.yul\":36040:36305   */\n      pop\n        /* \"#utility.yul\":35932:36305   */\n      swap3\n      swap2\n      pop\n      pop\n      jump\t// out\n        /* \"#utility.yul\":36311:36582   */\n    tag_393:\n        /* \"#utility.yul\":36441:36444   */\n      0x00\n        /* \"#utility.yul\":36463:36556   */\n      tag_795\n        /* \"#utility.yul\":36552:36555   */\n      dup3\n        /* \"#utility.yul\":36543:36549   */\n      dup5\n        /* \"#utility.yul\":36463:36556   */\n      tag_490\n      jump\t// in\n    tag_795:\n        /* \"#utility.yul\":36456:36556   */\n      swap2\n      pop\n        /* \"#utility.yul\":36573:36576   */\n      dup2\n        /* \"#utility.yul\":36566:36576   */\n      swap1\n      pop\n        /* \"#utility.yul\":36311:36582   */\n      swap3\n      swap2\n      pop\n      pop\n      jump\t// out\n        /* \"#utility.yul\":36588:36687   */\n    tag_491:\n        /* \"#utility.yul\":36640:36646   */\n      0x00\n        /* \"#utility.yul\":36674:36679   */\n      dup2\n        /* \"#utility.yul\":36668:36680   */\n      mload\n        /* \"#utility.yul\":36658:36680   */\n      swap1\n      pop\n        /* \"#utility.yul\":36588:36687   */\n      swap2\n      swap1\n      pop\n      jump\t// out\n        /* \"#utility.yul\":36693:36795   */\n    tag_492:\n        /* \"#utility.yul\":36734:36740   */\n      0x00\n        /* \"#utility.yul\":36785:36787   */\n      0x1f\n        /* \"#utility.yul\":36781:36788   */\n      not\n        /* \"#utility.yul\":36776:36778   */\n      0x1f\n        /* \"#utility.yul\":36769:36774   */\n      dup4\n        /* \"#utility.yul\":36765:36779   */\n      add\n        /* \"#utility.yul\":36761:36789   */\n      and\n        /* \"#utility.yul\":36751:36789   */\n      swap1\n      pop\n        /* \"#utility.yul\":36693:36795   */\n      swap2\n      swap1\n      pop\n      jump\t// out\n        /* \"#utility.yul\":36801:37165   */\n    tag_493:\n        /* \"#utility.yul\":36889:36892   */\n      0x00\n        /* \"#utility.yul\":36917:36956   */\n      tag_799\n        /* \"#utility.yul\":36950:36955   */\n      dup3\n        /* \"#utility.yul\":36917:36956   */\n      tag_491\n      jump\t// in\n    tag_799:\n        /* \"#utility.yul\":36972:37043   */\n      tag_800\n        /* \"#utility.yul\":37036:37042   */\n      dup2\n        /* \"#utility.yul\":37031:37034   */\n      dup6\n        /* \"#utility.yul\":36972:37043   */\n      tag_430\n      jump\t// in\n    tag_800:\n        /* \"#utility.yul\":36965:37043   */\n      swap4\n      pop\n        /* \"#utility.yul\":37052:37104   */\n      tag_801\n        /* \"#utility.yul\":37097:37103   */\n      dup2\n        /* \"#utility.yul\":37092:37095   */\n      dup6\n        /* \"#utility.yul\":37085:37089   */\n      0x20\n        /* \"#utility.yul\":37078:37083   */\n      dup7\n        /* \"#utility.yul\":37074:37090   */\n      add\n        /* \"#utility.yul\":37052:37104   */\n      tag_489\n      jump\t// in\n    tag_801:\n        /* \"#utility.yul\":37129:37158   */\n      tag_802\n        /* \"#utility.yul\":37151:37157   */\n      dup2\n        /* \"#utility.yul\":37129:37158   */\n      tag_492\n      jump\t// in\n    tag_802:\n        /* \"#utility.yul\":37124:37127   */\n      dup5\n        /* \"#utility.yul\":37120:37159   */\n      add\n        /* \"#utility.yul\":37113:37159   */\n      swap2\n      pop\n        /* \"#utility.yul\":36893:37165   */\n      pop\n        /* \"#utility.yul\":36801:37165   */\n      swap3\n      swap2\n      pop\n      pop\n      jump\t// out\n        /* \"#utility.yul\":37171:37484   */\n    tag_406:\n        /* \"#utility.yul\":37284:37288   */\n      0x00\n        /* \"#utility.yul\":37322:37324   */\n      0x20\n        /* \"#utility.yul\":37311:37320   */\n      dup3\n        /* \"#utility.yul\":37307:37325   */\n      add\n        /* \"#utility.yul\":37299:37325   */\n      swap1\n      pop\n        /* \"#utility.yul\":37371:37380   */\n      dup2\n        /* \"#utility.yul\":37365:37369   */\n      dup2\n        /* \"#utility.yul\":37361:37381   */\n      sub\n        /* \"#utility.yul\":37357:37358   */\n      0x00\n        /* \"#utility.yul\":37346:37355   */\n      dup4\n        /* \"#utility.yul\":37342:37359   */\n      add\n        /* \"#utility.yul\":37335:37382   */\n      mstore\n        /* \"#utility.yul\":37399:37477   */\n      tag_804\n        /* \"#utility.yul\":37472:37476   */\n      dup2\n        /* \"#utility.yul\":37463:37469   */\n      dup5\n        /* \"#utility.yul\":37399:37477   */\n      tag_493\n      jump\t// in\n    tag_804:\n        /* \"#utility.yul\":37391:37477   */\n      swap1\n      pop\n        /* \"#utility.yul\":37171:37484   */\n      swap3\n      swap2\n      pop\n      pop\n      jump\t// out\n\n    auxdata: 0xa26469706673582212209ddf1b11e85876388506b19ec8ee3380cefda6591bf4aff5f954874b7f66081064736f6c63430008090033\n}\n",
				"bytecode": {
					"linkReferences": {},
					"object": "60806040523480156200001157600080fd5b5060405162003d9d38038062003d9d8339818101604052810190620000379190620002c9565b620000576200004b6200014460201b60201c565b6200014c60201b60201c565b60018081905550600073ffffffffffffffffffffffffffffffffffffffff168373ffffffffffffffffffffffffffffffffffffffff1614156200009957600080fd5b600082118015620000aa5750606482105b620000ec576040517f08c379a0000000000000000000000000000000000000000000000000000000008152600401620000e390620003ac565b60405180910390fd5b82600260006101000a81548173ffffffffffffffffffffffffffffffffffffffff021916908373ffffffffffffffffffffffffffffffffffffffff1602179055508060048190555081600381905550505050620003ce565b600033905090565b60008060009054906101000a900473ffffffffffffffffffffffffffffffffffffffff169050816000806101000a81548173ffffffffffffffffffffffffffffffffffffffff021916908373ffffffffffffffffffffffffffffffffffffffff1602179055508173ffffffffffffffffffffffffffffffffffffffff168173ffffffffffffffffffffffffffffffffffffffff167f8be0079c531659141344cd1fd0a4f28419497f9722a3daafe3b4186f6b6457e060405160405180910390a35050565b600080fd5b600073ffffffffffffffffffffffffffffffffffffffff82169050919050565b6000620002428262000215565b9050919050565b6000620002568262000235565b9050919050565b620002688162000249565b81146200027457600080fd5b50565b60008151905062000288816200025d565b92915050565b6000819050919050565b620002a3816200028e565b8114620002af57600080fd5b50565b600081519050620002c38162000298565b92915050565b600080600060608486031215620002e557620002e462000210565b5b6000620002f58682870162000277565b93505060206200030886828701620002b2565b92505060406200031b86828701620002b2565b9150509250925092565b600082825260208201905092915050565b7f5447452050657263656e74206d7573742062652067726561746572207468616e60008201527f203020616e64204c657373207468616e20313030000000000000000000000000602082015250565b60006200039460348362000325565b9150620003a18262000336565b604082019050919050565b60006020820190508181036000830152620003c78162000385565b9050919050565b6139bf80620003de6000396000f3fe608060405234801561001057600080fd5b50600436106101cf5760003560e01c80638c81a7d711610104578063c8ac75d2116100a2578063f2fde38b11610071578063f2fde38b1461050e578063f51321d71461052a578063f7c469f01461055a578063f9079b371461058a576101cf565b8063c8ac75d214610472578063c990c2f7146104a2578063e2f0f42d146104c0578063ea1bb3d5146104de576101cf565b806394a3fada116100de57806394a3fada146103ea5780639ef346b414610408578063b75c7dc614610438578063c07aa65614610454576101cf565b80638c81a7d7146103925780638da5cb5b146103ae57806390be10cc146103cc576101cf565b806348deb47111610171578063715018a61161014b578063715018a61461030c5780637df8df92146103165780637e913dc6146103325780638af104da14610362576101cf565b806348deb471146102a25780635a7bb69a146102c057806366afd8ef146102f0576101cf565b8063260a51e5116101ad578063260a51e51461022c57806329cb924d1461024a5780632e1a7d4d1461026857806340a9627f14610284576101cf565b806313083617146101d45780631f35bc40146101f257806321df0da71461020e575b600080fd5b6101dc6105ba565b6040516101e991906125c5565b60405180910390f35b61020c60048036038101906102079190612643565b6105c7565b005b61021661067b565b604051610223919061267f565b60405180910390f35b6102346106a5565b604051610241919061267f565b60405180910390f35b6102526106cb565b60405161025f91906125c5565b60405180910390f35b610282600480360381019061027d91906126c6565b6106d3565b005b61028c610847565b60405161029991906125c5565b60405180910390f35b6102aa61084d565b6040516102b791906125c5565b60405180910390f35b6102da60048036038101906102d59190612643565b610857565b6040516102e791906125c5565b60405180910390f35b61030a60048036038101906103059190612729565b6108a0565b005b610314610c62565b005b610330600480360381019061032b91906127a1565b610c76565b005b61034c60048036038101906103479190612643565b611290565b6040516103599190612965565b60405180910390f35b61037c60048036038101906103779190612981565b611410565b60405161038991906129d0565b60405180910390f35b6103ac60048036038101906103a791906129eb565b611443565b005b6103b661179b565b6040516103c3919061267f565b60405180910390f35b6103d46117c4565b6040516103e191906125c5565b60405180910390f35b6103f261188a565b6040516103ff91906125c5565b60405180910390f35b610422600480360381019061041d91906129eb565b611894565b60405161042f9190612965565b60405180910390f35b610452600480360381019061044d91906129eb565b6119c0565b005b61045c611c15565b60405161046991906125c5565b60405180910390f35b61048c600480360381019061048791906129eb565b611c2c565b60405161049991906125c5565b60405180910390f35b6104aa611c44565b6040516104b791906125c5565b60405180910390f35b6104c8611c4e565b6040516104d591906125c5565b60405180910390f35b6104f860048036038101906104f391906129eb565b611c54565b60405161050591906125c5565b60405180910390f35b61052860048036038101906105239190612643565b611de5565b005b610544600480360381019061053f9190612981565b611e69565b6040516105519190612965565b60405180910390f35b610574600480360381019061056f9190612643565b611e8b565b60405161058191906129d0565b60405180910390f35b6105a4600480360381019061059f91906126c6565b611edd565b6040516105b191906129d0565b60405180910390f35b6000600580549050905090565b600073ffffffffffffffffffffffffffffffffffffffff168173ffffffffffffffffffffffffffffffffffffffff161415610637576040517f08c379a000000000000000000000000000000000000000000000000000000000815260040161062e90612a9b565b60405180910390fd5b80600b60006101000a81548173ffffffffffffffffffffffffffffffffffffffff021916908373ffffffffffffffffffffffffffffffffffffffff16021790555050565b6000600260009054906101000a900473ffffffffffffffffffffffffffffffffffffffff16905090565b600b60009054906101000a900473ffffffffffffffffffffffffffffffffffffffff1681565b600042905090565b60026001541415610719576040517f08c379a000000000000000000000000000000000000000000000000000000000815260040161071090612b07565b60405180910390fd5b6002600181905550610729611f4e565b803073ffffffffffffffffffffffffffffffffffffffff166390be10cc6040518163ffffffff1660e01b815260040160206040518083038186803b15801561077057600080fd5b505afa158015610784573d6000803e3d6000fd5b505050506040513d601f19601f820116820180604052508101906107a89190612b3c565b10156107e9576040517f08c379a00000000000000000000000000000000000000000000000000000000081526004016107e090612bdb565b60405180910390fd5b61083d6107f461179b565b82600260009054906101000a900473ffffffffffffffffffffffffffffffffffffffff1673ffffffffffffffffffffffffffffffffffffffff16611fcc9092919063ffffffff16565b6001808190555050565b60045481565b6000600754905090565b6000600960008373ffffffffffffffffffffffffffffffffffffffff1673ffffffffffffffffffffffffffffffffffffffff168152602001908152602001600020549050919050565b600260015414156108e6576040517f08c379a00000000000000000000000000000000000000000000000000000000081526004016108dd90612b07565b60405180910390fd5b6002600181905550816006600082815260200190815260200160002060000160009054906101000a900460ff1661091c57600080fd5b6006600082815260200190815260200160002060080160009054906101000a900460ff161561094a57600080fd5b600060066000858152602001908152602001600020905060008160000160019054906101000a900473ffffffffffffffffffffffffffffffffffffffff1673ffffffffffffffffffffffffffffffffffffffff163373ffffffffffffffffffffffffffffffffffffffff1614905060006109c261179b565b73ffffffffffffffffffffffffffffffffffffffff163373ffffffffffffffffffffffffffffffffffffffff1614905081806109fb5750805b610a3a576040517f08c379a0000000000000000000000000000000000000000000000000000000008152600401610a3190612c93565b60405180910390fd5b6000610b4f84604051806101600160405290816000820160009054906101000a900460ff161515151581526020016000820160019054906101000a900473ffffffffffffffffffffffffffffffffffffffff1673ffffffffffffffffffffffffffffffffffffffff1673ffffffffffffffffffffffffffffffffffffffff168152602001600182015481526020016002820154815260200160038201548152602001600482015481526020016005820160009054906101000a900460ff1615151515815260200160068201548152602001600782015481526020016008820160009054906101000a900460ff161515151581526020016008820160019054906101000a900460ff161515151581525050612052565b90506000861415610b5e578095505b85811015610ba1576040517f08c379a0000000000000000000000000000000000000000000000000000000008152600401610b9890612d25565b60405180910390fd5b610bb886856007015461219390919063ffffffff16565b846007018190555060008460000160019054906101000a900473ffffffffffffffffffffffffffffffffffffffff169050610bfe876007546121a990919063ffffffff16565b600781905550610c518188600260009054906101000a900473ffffffffffffffffffffffffffffffffffffffff1673ffffffffffffffffffffffffffffffffffffffff16611fcc9092919063ffffffff16565b505050505050600180819055505050565b610c6a611f4e565b610c7460006121bf565b565b600b60009054906101000a900473ffffffffffffffffffffffffffffffffffffffff1673ffffffffffffffffffffffffffffffffffffffff163373ffffffffffffffffffffffffffffffffffffffff161480610d045750610cd561179b565b73ffffffffffffffffffffffffffffffffffffffff163373ffffffffffffffffffffffffffffffffffffffff16145b610d43576040517f08c379a0000000000000000000000000000000000000000000000000000000008152600401610d3a90612d91565b60405180910390fd5b813073ffffffffffffffffffffffffffffffffffffffff166390be10cc6040518163ffffffff1660e01b815260040160206040518083038186803b158015610d8a57600080fd5b505afa158015610d9e573d6000803e3d6000fd5b505050506040513d601f19601f82011682018060405250810190610dc29190612b3c565b1015610e03576040517f08c379a0000000000000000000000000000000000000000000000000000000008152600401610dfa90612e49565b60405180910390fd5b60008511610e46576040517f08c379a0000000000000000000000000000000000000000000000000000000008152600401610e3d90612edb565b60405180910390fd5b60008211610e89576040517f08c379a0000000000000000000000000000000000000000000000000000000008152600401610e8090612f47565b60405180910390fd5b6001841015610ecd576040517f08c379a0000000000000000000000000000000000000000000000000000000008152600401610ec490612fd9565b60405180910390fd5b60003073ffffffffffffffffffffffffffffffffffffffff1663f7c469f08a6040518263ffffffff1660e01b8152600401610f08919061267f565b60206040518083038186803b158015610f2057600080fd5b505afa158015610f34573d6000803e3d6000fd5b505050506040513d601f19601f82011682018060405250810190610f58919061300e565b90506000610f6f888a61219390919063ffffffff16565b90506040518061016001604052806001151581526020018b73ffffffffffffffffffffffffffffffffffffffff1681526020018281526020018a81526020018881526020018781526020018615158152602001858152602001600081526020016000151581526020018415158152506006600084815260200190815260200160002060008201518160000160006101000a81548160ff02191690831515021790555060208201518160000160016101000a81548173ffffffffffffffffffffffffffffffffffffffff021916908373ffffffffffffffffffffffffffffffffffffffff16021790555060408201518160010155606082015181600201556080820151816003015560a0820151816004015560c08201518160050160006101000a81548160ff02191690831515021790555060e0820151816006015561010082015181600701556101208201518160080160006101000a81548160ff0219169083151502179055506101408201518160080160016101000a81548160ff021916908315150217905550905050600083156111485761112a606461111c6003548861228390919063ffffffff16565b61229990919063ffffffff16565b90506111418160085461219390919063ffffffff16565b6008819055505b6111688186611157919061306a565b60075461219390919063ffffffff16565b60078190555060058390806001815401808255809150506001900390600052602060002001600090919091909150556000600960008d73ffffffffffffffffffffffffffffffffffffffff1673ffffffffffffffffffffffffffffffffffffffff1681526020019081526020016000205490506111ef60018261219390919063ffffffff16565b600960008e73ffffffffffffffffffffffffffffffffffffffff1673ffffffffffffffffffffffffffffffffffffffff168152602001908152602001600020819055506000600a6000868152602001908152602001600020819055507f7deecc243dec36156ece079ae8e71cb3f5b8a86d4ee141e3733216e23614e0c38460405161127a91906129d0565b60405180910390a1505050505050505050505050565b611298612534565b600660006112f1846001600960008873ffffffffffffffffffffffffffffffffffffffff1673ffffffffffffffffffffffffffffffffffffffff168152602001908152602001600020546112ec919061306a565b611410565b8152602001908152602001600020604051806101600160405290816000820160009054906101000a900460ff161515151581526020016000820160019054906101000a900473ffffffffffffffffffffffffffffffffffffffff1673ffffffffffffffffffffffffffffffffffffffff1673ffffffffffffffffffffffffffffffffffffffff168152602001600182015481526020016002820154815260200160038201548152602001600482015481526020016005820160009054906101000a900460ff1615151515815260200160068201548152602001600782015481526020016008820160009054906101000a900460ff161515151581526020016008820160019054906101000a900460ff1615151515815250509050919050565b60008282604051602001611425929190613107565b60405160208183030381529060405280519060200120905092915050565b60026001541415611489576040517f08c379a000000000000000000000000000000000000000000000000000000000815260040161148090612b07565b60405180910390fd5b6002600181905550600060066000838152602001908152602001600020905060008160000160019054906101000a900473ffffffffffffffffffffffffffffffffffffffff1673ffffffffffffffffffffffffffffffffffffffff163373ffffffffffffffffffffffffffffffffffffffff16149050600061150961179b565b73ffffffffffffffffffffffffffffffffffffffff163373ffffffffffffffffffffffffffffffffffffffff1614905081806115425750805b611581576040517f08c379a000000000000000000000000000000000000000000000000000000000815260040161157890612c93565b60405180910390fd5b8260080160019054906101000a900460ff166115d2576040517f08c379a00000000000000000000000000000000000000000000000000000000081526004016115c9906131a5565b60405180910390fd5b60006115dc6106cb565b9050600454811015611623576040517f08c379a000000000000000000000000000000000000000000000000000000000815260040161161a90613211565b60405180910390fd5b6000600a60008781526020019081526020016000205414611679576040517f08c379a00000000000000000000000000000000000000000000000000000000081526004016116709061327d565b60405180910390fd5b60006116a76064611699600354886006015461228390919063ffffffff16565b61229990919063ffffffff16565b905080600a60008881526020019081526020016000208190555060008560000160019054906101000a900473ffffffffffffffffffffffffffffffffffffffff1690506116ff826008546121a990919063ffffffff16565b6008819055506117528183600260009054906101000a900473ffffffffffffffffffffffffffffffffffffffff1673ffffffffffffffffffffffffffffffffffffffff16611fcc9092919063ffffffff16565b7fd9215c0345f0d530c5101edea49413960423257c62dd4dcc18b5e6c0b63a022781836040516117839291906132fc565b60405180910390a15050505050506001808190555050565b60008060009054906101000a900473ffffffffffffffffffffffffffffffffffffffff16905090565b6000611885600754600260009054906101000a900473ffffffffffffffffffffffffffffffffffffffff1673ffffffffffffffffffffffffffffffffffffffff166370a08231306040518263ffffffff1660e01b8152600401611827919061267f565b60206040518083038186803b15801561183f57600080fd5b505afa158015611853573d6000803e3d6000fd5b505050506040513d601f19601f820116820180604052508101906118779190612b3c565b6121a990919063ffffffff16565b905090565b6000600454905090565b61189c612534565b60066000838152602001908152602001600020604051806101600160405290816000820160009054906101000a900460ff161515151581526020016000820160019054906101000a900473ffffffffffffffffffffffffffffffffffffffff1673ffffffffffffffffffffffffffffffffffffffff1673ffffffffffffffffffffffffffffffffffffffff168152602001600182015481526020016002820154815260200160038201548152602001600482015481526020016005820160009054906101000a900460ff1615151515815260200160068201548152602001600782015481526020016008820160009054906101000a900460ff161515151581526020016008820160019054906101000a900460ff1615151515815250509050919050565b6119c8611f4e565b806006600082815260200190815260200160002060000160009054906101000a900460ff166119f657600080fd5b6006600082815260200190815260200160002060080160009054906101000a900460ff1615611a2457600080fd5b60006006600084815260200190815260200160002090508060050160009054906101000a900460ff16611a8c576040517f08c379a0000000000000000000000000000000000000000000000000000000008152600401611a8390613397565b60405180910390fd5b6000611ba182604051806101600160405290816000820160009054906101000a900460ff161515151581526020016000820160019054906101000a900473ffffffffffffffffffffffffffffffffffffffff1673ffffffffffffffffffffffffffffffffffffffff1673ffffffffffffffffffffffffffffffffffffffff168152602001600182015481526020016002820154815260200160038201548152602001600482015481526020016005820160009054906101000a900460ff1615151515815260200160068201548152602001600782015481526020016008820160009054906101000a900460ff161515151581526020016008820160019054906101000a900460ff161515151581525050612052565b90506000811115611bb757611bb684826108a0565b5b6000611bd4836007015484600601546121a990919063ffffffff16565b9050611beb816007546121a990919063ffffffff16565b60078190555060018360080160006101000a81548160ff0219169083151502179055505050505050565b6000600754600854611c2791906133b7565b905090565b600a6020528060005260406000206000915090505481565b6000600854905090565b60035481565b6000816006600082815260200190815260200160002060000160009054906101000a900460ff16611c8457600080fd5b6006600082815260200190815260200160002060080160009054906101000a900460ff1615611cb257600080fd5b6000600660008581526020019081526020016000209050611ddc81604051806101600160405290816000820160009054906101000a900460ff161515151581526020016000820160019054906101000a900473ffffffffffffffffffffffffffffffffffffffff1673ffffffffffffffffffffffffffffffffffffffff1673ffffffffffffffffffffffffffffffffffffffff168152602001600182015481526020016002820154815260200160038201548152602001600482015481526020016005820160009054906101000a900460ff1615151515815260200160068201548152602001600782015481526020016008820160009054906101000a900460ff161515151581526020016008820160019054906101000a900460ff161515151581525050612052565b92505050919050565b611ded611f4e565b600073ffffffffffffffffffffffffffffffffffffffff168173ffffffffffffffffffffffffffffffffffffffff161415611e5d576040517f08c379a0000000000000000000000000000000000000000000000000000000008152600401611e549061347f565b60405180910390fd5b611e66816121bf565b50565b611e71612534565b611e83611e7e8484611410565b611894565b905092915050565b6000611ed682600960008573ffffffffffffffffffffffffffffffffffffffff1673ffffffffffffffffffffffffffffffffffffffff16815260200190815260200160002054611410565b9050919050565b6000611ee76105ba565b8210611f28576040517f08c379a0000000000000000000000000000000000000000000000000000000008152600401611f1f90613511565b60405180910390fd5b60058281548110611f3c57611f3b613531565b5b90600052602060002001549050919050565b611f566122af565b73ffffffffffffffffffffffffffffffffffffffff16611f7461179b565b73ffffffffffffffffffffffffffffffffffffffff1614611fca576040517f08c379a0000000000000000000000000000000000000000000000000000000008152600401611fc1906135ac565b60405180910390fd5b565b61204d8363a9059cbb60e01b8484604051602401611feb9291906135cc565b604051602081830303815290604052907bffffffffffffffffffffffffffffffffffffffffffffffffffffffff19166020820180517bffffffffffffffffffffffffffffffffffffffffffffffffffffffff83818316178352505050506122b7565b505050565b60008061205d6106cb565b905060008360e001519050836101400151156120be5760006120a160646120936003548860e0015161228390919063ffffffff16565b61229990919063ffffffff16565b90506120ba818660e001516121a990919063ffffffff16565b9150505b83604001518210806120d257508361012001515b156120e25760009250505061218e565b6120fd8460800151856060015161219390919063ffffffff16565b82106121245761211b846101000151826121a990919063ffffffff16565b9250505061218e565b600061213d8560600151846121a990919063ffffffff16565b9050600061216a866080015161215c848661228390919063ffffffff16565b61229990919063ffffffff16565b9050612184866101000151826121a990919063ffffffff16565b9050809450505050505b919050565b600081836121a191906133b7565b905092915050565b600081836121b7919061306a565b905092915050565b60008060009054906101000a900473ffffffffffffffffffffffffffffffffffffffff169050816000806101000a81548173ffffffffffffffffffffffffffffffffffffffff021916908373ffffffffffffffffffffffffffffffffffffffff1602179055508173ffffffffffffffffffffffffffffffffffffffff168173ffffffffffffffffffffffffffffffffffffffff167f8be0079c531659141344cd1fd0a4f28419497f9722a3daafe3b4186f6b6457e060405160405180910390a35050565b6000818361229191906135f5565b905092915050565b600081836122a7919061367e565b905092915050565b600033905090565b6000612319826040518060400160405280602081526020017f5361666545524332303a206c6f772d6c6576656c2063616c6c206661696c65648152508573ffffffffffffffffffffffffffffffffffffffff1661237e9092919063ffffffff16565b9050600081511115612379578080602001905181019061233991906136c4565b612378576040517f08c379a000000000000000000000000000000000000000000000000000000000815260040161236f90613763565b60405180910390fd5b5b505050565b606061238d8484600085612396565b90509392505050565b6060824710156123db576040517f08c379a00000000000000000000000000000000000000000000000000000000081526004016123d2906137f5565b60405180910390fd5b6123e4856124aa565b612423576040517f08c379a000000000000000000000000000000000000000000000000000000000815260040161241a90613861565b60405180910390fd5b6000808673ffffffffffffffffffffffffffffffffffffffff16858760405161244c91906138fb565b60006040518083038185875af1925050503d8060008114612489576040519150601f19603f3d011682016040523d82523d6000602084013e61248e565b606091505b509150915061249e8282866124cd565b92505050949350505050565b6000808273ffffffffffffffffffffffffffffffffffffffff163b119050919050565b606083156124dd5782905061252d565b6000835111156124f05782518084602001fd5b816040517f08c379a00000000000000000000000000000000000000000000000000000000081526004016125249190613967565b60405180910390fd5b9392505050565b604051806101600160405280600015158152602001600073ffffffffffffffffffffffffffffffffffffffff1681526020016000815260200160008152602001600081526020016000815260200160001515815260200160008152602001600081526020016000151581526020016000151581525090565b6000819050919050565b6125bf816125ac565b82525050565b60006020820190506125da60008301846125b6565b92915050565b600080fd5b600073ffffffffffffffffffffffffffffffffffffffff82169050919050565b6000612610826125e5565b9050919050565b61262081612605565b811461262b57600080fd5b50565b60008135905061263d81612617565b92915050565b600060208284031215612659576126586125e0565b5b60006126678482850161262e565b91505092915050565b61267981612605565b82525050565b60006020820190506126946000830184612670565b92915050565b6126a3816125ac565b81146126ae57600080fd5b50565b6000813590506126c08161269a565b92915050565b6000602082840312156126dc576126db6125e0565b5b60006126ea848285016126b1565b91505092915050565b6000819050919050565b612706816126f3565b811461271157600080fd5b50565b600081359050612723816126fd565b92915050565b600080604083850312156127405761273f6125e0565b5b600061274e85828601612714565b925050602061275f858286016126b1565b9150509250929050565b60008115159050919050565b61277e81612769565b811461278957600080fd5b50565b60008135905061279b81612775565b92915050565b600080600080600080600080610100898b0312156127c2576127c16125e0565b5b60006127d08b828c0161262e565b98505060206127e18b828c016126b1565b97505060406127f28b828c016126b1565b96505060606128038b828c016126b1565b95505060806128148b828c016126b1565b94505060a06128258b828c0161278c565b93505060c06128368b828c016126b1565b92505060e06128478b828c0161278c565b9150509295985092959890939650565b61286081612769565b82525050565b61286f81612605565b82525050565b61287e816125ac565b82525050565b6101608201600082015161289b6000850182612857565b5060208201516128ae6020850182612866565b5060408201516128c16040850182612875565b5060608201516128d46060850182612875565b5060808201516128e76080850182612875565b5060a08201516128fa60a0850182612875565b5060c082015161290d60c0850182612857565b5060e082015161292060e0850182612875565b50610100820151612935610100850182612875565b5061012082015161294a610120850182612857565b5061014082015161295f610140850182612857565b50505050565b60006101608201905061297b6000830184612884565b92915050565b60008060408385031215612998576129976125e0565b5b60006129a68582860161262e565b92505060206129b7858286016126b1565b9150509250929050565b6129ca816126f3565b82525050565b60006020820190506129e560008301846129c1565b92915050565b600060208284031215612a0157612a006125e0565b5b6000612a0f84828501612714565b91505092915050565b600082825260208201905092915050565b7f43726f776473616c65416464726573733a2043726f776473616c65204164647260008201527f6573732063616e6e6f74206265206e756c6c0000000000000000000000000000602082015250565b6000612a85603283612a18565b9150612a9082612a29565b604082019050919050565b60006020820190508181036000830152612ab481612a78565b9050919050565b7f5265656e7472616e637947756172643a207265656e7472616e742063616c6c00600082015250565b6000612af1601f83612a18565b9150612afc82612abb565b602082019050919050565b60006020820190508181036000830152612b2081612ae4565b9050919050565b600081519050612b368161269a565b92915050565b600060208284031215612b5257612b516125e0565b5b6000612b6084828501612b27565b91505092915050565b7f546f6b656e56657374696e673a206e6f7420656e6f756768207769746864726160008201527f7761626c652066756e6473000000000000000000000000000000000000000000602082015250565b6000612bc5602b83612a18565b9150612bd082612b69565b604082019050919050565b60006020820190508181036000830152612bf481612bb8565b9050919050565b7f546f6b656e56657374696e673a206f6e6c792062656e6566696369617279206160008201527f6e64206f776e65722063616e2072656c656173652076657374656420746f6b6560208201527f6e73000000000000000000000000000000000000000000000000000000000000604082015250565b6000612c7d604283612a18565b9150612c8882612bfb565b606082019050919050565b60006020820190508181036000830152612cac81612c70565b9050919050565b7f546f6b656e56657374696e673a2063616e6e6f742072656c6561736520746f6b60008201527f656e732c206e6f7420656e6f7567682076657374656420746f6b656e73000000602082015250565b6000612d0f603d83612a18565b9150612d1a82612cb3565b604082019050919050565b60006020820190508181036000830152612d3e81612d02565b9050919050565b7f4e6f204163636573730000000000000000000000000000000000000000000000600082015250565b6000612d7b600983612a18565b9150612d8682612d45565b602082019050919050565b60006020820190508181036000830152612daa81612d6e565b9050919050565b7f546f6b656e56657374696e673a2063616e6e6f7420637265617465207665737460008201527f696e67207363686564756c652062656361757365206e6f74207375666669636960208201527f656e7420746f6b656e7300000000000000000000000000000000000000000000604082015250565b6000612e33604a83612a18565b9150612e3e82612db1565b606082019050919050565b60006020820190508181036000830152612e6281612e26565b9050919050565b7f546f6b656e56657374696e673a206475726174696f6e206d757374206265203e60008201527f2030000000000000000000000000000000000000000000000000000000000000602082015250565b6000612ec5602283612a18565b9150612ed082612e69565b604082019050919050565b60006020820190508181036000830152612ef481612eb8565b9050919050565b7f546f6b656e56657374696e673a20616d6f756e74206d757374206265203e2030600082015250565b6000612f31602083612a18565b9150612f3c82612efb565b602082019050919050565b60006020820190508181036000830152612f6081612f24565b9050919050565b7f546f6b656e56657374696e673a20736c696365506572696f645365636f6e647360008201527f206d757374206265203e3d203100000000000000000000000000000000000000602082015250565b6000612fc3602d83612a18565b9150612fce82612f67565b604082019050919050565b60006020820190508181036000830152612ff281612fb6565b9050919050565b600081519050613008816126fd565b92915050565b600060208284031215613024576130236125e0565b5b600061303284828501612ff9565b91505092915050565b7f4e487b7100000000000000000000000000000000000000000000000000000000600052601160045260246000fd5b6000613075826125ac565b9150613080836125ac565b9250828210156130935761309261303b565b5b828203905092915050565b60008160601b9050919050565b60006130b68261309e565b9050919050565b60006130c8826130ab565b9050919050565b6130e06130db82612605565b6130bd565b82525050565b6000819050919050565b6131016130fc826125ac565b6130e6565b82525050565b600061311382856130cf565b60148201915061312382846130f0565b6020820191508190509392505050565b7f52656c65617365546f6b656e41745447453a206f6e6c7920696e766573746f7260008201527f732063616e20636c61696d20746f6b656e206174205447450000000000000000602082015250565b600061318f603883612a18565b915061319a82613133565b604082019050919050565b600060208201905081810360008301526131be81613182565b9050919050565b7f5447453a2074696d65206e6f7420726561636865642100000000000000000000600082015250565b60006131fb601683612a18565b9150613206826131c5565b602082019050919050565b6000602082019050818103600083015261322a816131ee565b9050919050565b7f5447453a20546f6b656e20416c726561647920636c61696d6564000000000000600082015250565b6000613267601a83612a18565b915061327282613231565b602082019050919050565b600060208201905081810360008301526132968161325a565b9050919050565b6000819050919050565b60006132c26132bd6132b8846125e5565b61329d565b6125e5565b9050919050565b60006132d4826132a7565b9050919050565b60006132e6826132c9565b9050919050565b6132f6816132db565b82525050565b600060408201905061331160008301856132ed565b61331e60208301846125b6565b9392505050565b7f546f6b656e56657374696e673a2076657374696e67206973206e6f742072657660008201527f6f6361626c650000000000000000000000000000000000000000000000000000602082015250565b6000613381602683612a18565b915061338c82613325565b604082019050919050565b600060208201905081810360008301526133b081613374565b9050919050565b60006133c2826125ac565b91506133cd836125ac565b9250827fffffffffffffffffffffffffffffffffffffffffffffffffffffffffffffffff038211156134025761340161303b565b5b828201905092915050565b7f4f776e61626c653a206e6577206f776e657220697320746865207a65726f206160008201527f6464726573730000000000000000000000000000000000000000000000000000602082015250565b6000613469602683612a18565b91506134748261340d565b604082019050919050565b600060208201905081810360008301526134988161345c565b9050919050565b7f546f6b656e56657374696e673a20696e646578206f7574206f6620626f756e6460008201527f7300000000000000000000000000000000000000000000000000000000000000602082015250565b60006134fb602183612a18565b91506135068261349f565b604082019050919050565b6000602082019050818103600083015261352a816134ee565b9050919050565b7f4e487b7100000000000000000000000000000000000000000000000000000000600052603260045260246000fd5b7f4f776e61626c653a2063616c6c6572206973206e6f7420746865206f776e6572600082015250565b6000613596602083612a18565b91506135a182613560565b602082019050919050565b600060208201905081810360008301526135c581613589565b9050919050565b60006040820190506135e16000830185612670565b6135ee60208301846125b6565b9392505050565b6000613600826125ac565b915061360b836125ac565b9250817fffffffffffffffffffffffffffffffffffffffffffffffffffffffffffffffff04831182151516156136445761364361303b565b5b828202905092915050565b7f4e487b7100000000000000000000000000000000000000000000000000000000600052601260045260246000fd5b6000613689826125ac565b9150613694836125ac565b9250826136a4576136a361364f565b5b828204905092915050565b6000815190506136be81612775565b92915050565b6000602082840312156136da576136d96125e0565b5b60006136e8848285016136af565b91505092915050565b7f5361666545524332303a204552433230206f7065726174696f6e20646964206e60008201527f6f74207375636365656400000000000000000000000000000000000000000000602082015250565b600061374d602a83612a18565b9150613758826136f1565b604082019050919050565b6000602082019050818103600083015261377c81613740565b9050919050565b7f416464726573733a20696e73756666696369656e742062616c616e636520666f60008201527f722063616c6c0000000000000000000000000000000000000000000000000000602082015250565b60006137df602683612a18565b91506137ea82613783565b604082019050919050565b6000602082019050818103600083015261380e816137d2565b9050919050565b7f416464726573733a2063616c6c20746f206e6f6e2d636f6e7472616374000000600082015250565b600061384b601d83612a18565b915061385682613815565b602082019050919050565b6000602082019050818103600083015261387a8161383e565b9050919050565b600081519050919050565b600081905092915050565b60005b838110156138b557808201518184015260208101905061389a565b838111156138c4576000848401525b50505050565b60006138d582613881565b6138df818561388c565b93506138ef818560208601613897565b80840191505092915050565b600061390782846138ca565b915081905092915050565b600081519050919050565b6000601f19601f8301169050919050565b600061393982613912565b6139438185612a18565b9350613953818560208601613897565b61395c8161391d565b840191505092915050565b60006020820190508181036000830152613981818461392e565b90509291505056fea26469706673582212209ddf1b11e85876388506b19ec8ee3380cefda6591bf4aff5f954874b7f66081064736f6c63430008090033",
					"opcodes": "PUSH1 0x80 PUSH1 0x40 MSTORE CALLVALUE DUP1 ISZERO PUSH3 0x11 JUMPI PUSH1 0x0 DUP1 REVERT JUMPDEST POP PUSH1 0x40 MLOAD PUSH3 0x3D9D CODESIZE SUB DUP1 PUSH3 0x3D9D DUP4 CODECOPY DUP2 DUP2 ADD PUSH1 0x40 MSTORE DUP2 ADD SWAP1 PUSH3 0x37 SWAP2 SWAP1 PUSH3 0x2C9 JUMP JUMPDEST PUSH3 0x57 PUSH3 0x4B PUSH3 0x144 PUSH1 0x20 SHL PUSH1 0x20 SHR JUMP JUMPDEST PUSH3 0x14C PUSH1 0x20 SHL PUSH1 0x20 SHR JUMP JUMPDEST PUSH1 0x1 DUP1 DUP2 SWAP1 SSTORE POP PUSH1 0x0 PUSH20 0xFFFFFFFFFFFFFFFFFFFFFFFFFFFFFFFFFFFFFFFF AND DUP4 PUSH20 0xFFFFFFFFFFFFFFFFFFFFFFFFFFFFFFFFFFFFFFFF AND EQ ISZERO PUSH3 0x99 JUMPI PUSH1 0x0 DUP1 REVERT JUMPDEST PUSH1 0x0 DUP3 GT DUP1 ISZERO PUSH3 0xAA JUMPI POP PUSH1 0x64 DUP3 LT JUMPDEST PUSH3 0xEC JUMPI PUSH1 0x40 MLOAD PUSH32 0x8C379A000000000000000000000000000000000000000000000000000000000 DUP2 MSTORE PUSH1 0x4 ADD PUSH3 0xE3 SWAP1 PUSH3 0x3AC JUMP JUMPDEST PUSH1 0x40 MLOAD DUP1 SWAP2 SUB SWAP1 REVERT JUMPDEST DUP3 PUSH1 0x2 PUSH1 0x0 PUSH2 0x100 EXP DUP2 SLOAD DUP2 PUSH20 0xFFFFFFFFFFFFFFFFFFFFFFFFFFFFFFFFFFFFFFFF MUL NOT AND SWAP1 DUP4 PUSH20 0xFFFFFFFFFFFFFFFFFFFFFFFFFFFFFFFFFFFFFFFF AND MUL OR SWAP1 SSTORE POP DUP1 PUSH1 0x4 DUP2 SWAP1 SSTORE POP DUP2 PUSH1 0x3 DUP2 SWAP1 SSTORE POP POP POP POP PUSH3 0x3CE JUMP JUMPDEST PUSH1 0x0 CALLER SWAP1 POP SWAP1 JUMP JUMPDEST PUSH1 0x0 DUP1 PUSH1 0x0 SWAP1 SLOAD SWAP1 PUSH2 0x100 EXP SWAP1 DIV PUSH20 0xFFFFFFFFFFFFFFFFFFFFFFFFFFFFFFFFFFFFFFFF AND SWAP1 POP DUP2 PUSH1 0x0 DUP1 PUSH2 0x100 EXP DUP2 SLOAD DUP2 PUSH20 0xFFFFFFFFFFFFFFFFFFFFFFFFFFFFFFFFFFFFFFFF MUL NOT AND SWAP1 DUP4 PUSH20 0xFFFFFFFFFFFFFFFFFFFFFFFFFFFFFFFFFFFFFFFF AND MUL OR SWAP1 SSTORE POP DUP2 PUSH20 0xFFFFFFFFFFFFFFFFFFFFFFFFFFFFFFFFFFFFFFFF AND DUP2 PUSH20 0xFFFFFFFFFFFFFFFFFFFFFFFFFFFFFFFFFFFFFFFF AND PUSH32 0x8BE0079C531659141344CD1FD0A4F28419497F9722A3DAAFE3B4186F6B6457E0 PUSH1 0x40 MLOAD PUSH1 0x40 MLOAD DUP1 SWAP2 SUB SWAP1 LOG3 POP POP JUMP JUMPDEST PUSH1 0x0 DUP1 REVERT JUMPDEST PUSH1 0x0 PUSH20 0xFFFFFFFFFFFFFFFFFFFFFFFFFFFFFFFFFFFFFFFF DUP3 AND SWAP1 POP SWAP2 SWAP1 POP JUMP JUMPDEST PUSH1 0x0 PUSH3 0x242 DUP3 PUSH3 0x215 JUMP JUMPDEST SWAP1 POP SWAP2 SWAP1 POP JUMP JUMPDEST PUSH1 0x0 PUSH3 0x256 DUP3 PUSH3 0x235 JUMP JUMPDEST SWAP1 POP SWAP2 SWAP1 POP JUMP JUMPDEST PUSH3 0x268 DUP2 PUSH3 0x249 JUMP JUMPDEST DUP2 EQ PUSH3 0x274 JUMPI PUSH1 0x0 DUP1 REVERT JUMPDEST POP JUMP JUMPDEST PUSH1 0x0 DUP2 MLOAD SWAP1 POP PUSH3 0x288 DUP2 PUSH3 0x25D JUMP JUMPDEST SWAP3 SWAP2 POP POP JUMP JUMPDEST PUSH1 0x0 DUP2 SWAP1 POP SWAP2 SWAP1 POP JUMP JUMPDEST PUSH3 0x2A3 DUP2 PUSH3 0x28E JUMP JUMPDEST DUP2 EQ PUSH3 0x2AF JUMPI PUSH1 0x0 DUP1 REVERT JUMPDEST POP JUMP JUMPDEST PUSH1 0x0 DUP2 MLOAD SWAP1 POP PUSH3 0x2C3 DUP2 PUSH3 0x298 JUMP JUMPDEST SWAP3 SWAP2 POP POP JUMP JUMPDEST PUSH1 0x0 DUP1 PUSH1 0x0 PUSH1 0x60 DUP5 DUP7 SUB SLT ISZERO PUSH3 0x2E5 JUMPI PUSH3 0x2E4 PUSH3 0x210 JUMP JUMPDEST JUMPDEST PUSH1 0x0 PUSH3 0x2F5 DUP7 DUP3 DUP8 ADD PUSH3 0x277 JUMP JUMPDEST SWAP4 POP POP PUSH1 0x20 PUSH3 0x308 DUP7 DUP3 DUP8 ADD PUSH3 0x2B2 JUMP JUMPDEST SWAP3 POP POP PUSH1 0x40 PUSH3 0x31B DUP7 DUP3 DUP8 ADD PUSH3 0x2B2 JUMP JUMPDEST SWAP2 POP POP SWAP3 POP SWAP3 POP SWAP3 JUMP JUMPDEST PUSH1 0x0 DUP3 DUP3 MSTORE PUSH1 0x20 DUP3 ADD SWAP1 POP SWAP3 SWAP2 POP POP JUMP JUMPDEST PUSH32 0x5447452050657263656E74206D7573742062652067726561746572207468616E PUSH1 0x0 DUP3 ADD MSTORE PUSH32 0x203020616E64204C657373207468616E20313030000000000000000000000000 PUSH1 0x20 DUP3 ADD MSTORE POP JUMP JUMPDEST PUSH1 0x0 PUSH3 0x394 PUSH1 0x34 DUP4 PUSH3 0x325 JUMP JUMPDEST SWAP2 POP PUSH3 0x3A1 DUP3 PUSH3 0x336 JUMP JUMPDEST PUSH1 0x40 DUP3 ADD SWAP1 POP SWAP2 SWAP1 POP JUMP JUMPDEST PUSH1 0x0 PUSH1 0x20 DUP3 ADD SWAP1 POP DUP2 DUP2 SUB PUSH1 0x0 DUP4 ADD MSTORE PUSH3 0x3C7 DUP2 PUSH3 0x385 JUMP JUMPDEST SWAP1 POP SWAP2 SWAP1 POP JUMP JUMPDEST PUSH2 0x39BF DUP1 PUSH3 0x3DE PUSH1 0x0 CODECOPY PUSH1 0x0 RETURN INVALID PUSH1 0x80 PUSH1 0x40 MSTORE CALLVALUE DUP1 ISZERO PUSH2 0x10 JUMPI PUSH1 0x0 DUP1 REVERT JUMPDEST POP PUSH1 0x4 CALLDATASIZE LT PUSH2 0x1CF JUMPI PUSH1 0x0 CALLDATALOAD PUSH1 0xE0 SHR DUP1 PUSH4 0x8C81A7D7 GT PUSH2 0x104 JUMPI DUP1 PUSH4 0xC8AC75D2 GT PUSH2 0xA2 JUMPI DUP1 PUSH4 0xF2FDE38B GT PUSH2 0x71 JUMPI DUP1 PUSH4 0xF2FDE38B EQ PUSH2 0x50E JUMPI DUP1 PUSH4 0xF51321D7 EQ PUSH2 0x52A JUMPI DUP1 PUSH4 0xF7C469F0 EQ PUSH2 0x55A JUMPI DUP1 PUSH4 0xF9079B37 EQ PUSH2 0x58A JUMPI PUSH2 0x1CF JUMP JUMPDEST DUP1 PUSH4 0xC8AC75D2 EQ PUSH2 0x472 JUMPI DUP1 PUSH4 0xC990C2F7 EQ PUSH2 0x4A2 JUMPI DUP1 PUSH4 0xE2F0F42D EQ PUSH2 0x4C0 JUMPI DUP1 PUSH4 0xEA1BB3D5 EQ PUSH2 0x4DE JUMPI PUSH2 0x1CF JUMP JUMPDEST DUP1 PUSH4 0x94A3FADA GT PUSH2 0xDE JUMPI DUP1 PUSH4 0x94A3FADA EQ PUSH2 0x3EA JUMPI DUP1 PUSH4 0x9EF346B4 EQ PUSH2 0x408 JUMPI DUP1 PUSH4 0xB75C7DC6 EQ PUSH2 0x438 JUMPI DUP1 PUSH4 0xC07AA656 EQ PUSH2 0x454 JUMPI PUSH2 0x1CF JUMP JUMPDEST DUP1 PUSH4 0x8C81A7D7 EQ PUSH2 0x392 JUMPI DUP1 PUSH4 0x8DA5CB5B EQ PUSH2 0x3AE JUMPI DUP1 PUSH4 0x90BE10CC EQ PUSH2 0x3CC JUMPI PUSH2 0x1CF JUMP JUMPDEST DUP1 PUSH4 0x48DEB471 GT PUSH2 0x171 JUMPI DUP1 PUSH4 0x715018A6 GT PUSH2 0x14B JUMPI DUP1 PUSH4 0x715018A6 EQ PUSH2 0x30C JUMPI DUP1 PUSH4 0x7DF8DF92 EQ PUSH2 0x316 JUMPI DUP1 PUSH4 0x7E913DC6 EQ PUSH2 0x332 JUMPI DUP1 PUSH4 0x8AF104DA EQ PUSH2 0x362 JUMPI PUSH2 0x1CF JUMP JUMPDEST DUP1 PUSH4 0x48DEB471 EQ PUSH2 0x2A2 JUMPI DUP1 PUSH4 0x5A7BB69A EQ PUSH2 0x2C0 JUMPI DUP1 PUSH4 0x66AFD8EF EQ PUSH2 0x2F0 JUMPI PUSH2 0x1CF JUMP JUMPDEST DUP1 PUSH4 0x260A51E5 GT PUSH2 0x1AD JUMPI DUP1 PUSH4 0x260A51E5 EQ PUSH2 0x22C JUMPI DUP1 PUSH4 0x29CB924D EQ PUSH2 0x24A JUMPI DUP1 PUSH4 0x2E1A7D4D EQ PUSH2 0x268 JUMPI DUP1 PUSH4 0x40A9627F EQ PUSH2 0x284 JUMPI PUSH2 0x1CF JUMP JUMPDEST DUP1 PUSH4 0x13083617 EQ PUSH2 0x1D4 JUMPI DUP1 PUSH4 0x1F35BC40 EQ PUSH2 0x1F2 JUMPI DUP1 PUSH4 0x21DF0DA7 EQ PUSH2 0x20E JUMPI JUMPDEST PUSH1 0x0 DUP1 REVERT JUMPDEST PUSH2 0x1DC PUSH2 0x5BA JUMP JUMPDEST PUSH1 0x40 MLOAD PUSH2 0x1E9 SWAP2 SWAP1 PUSH2 0x25C5 JUMP JUMPDEST PUSH1 0x40 MLOAD DUP1 SWAP2 SUB SWAP1 RETURN JUMPDEST PUSH2 0x20C PUSH1 0x4 DUP1 CALLDATASIZE SUB DUP2 ADD SWAP1 PUSH2 0x207 SWAP2 SWAP1 PUSH2 0x2643 JUMP JUMPDEST PUSH2 0x5C7 JUMP JUMPDEST STOP JUMPDEST PUSH2 0x216 PUSH2 0x67B JUMP JUMPDEST PUSH1 0x40 MLOAD PUSH2 0x223 SWAP2 SWAP1 PUSH2 0x267F JUMP JUMPDEST PUSH1 0x40 MLOAD DUP1 SWAP2 SUB SWAP1 RETURN JUMPDEST PUSH2 0x234 PUSH2 0x6A5 JUMP JUMPDEST PUSH1 0x40 MLOAD PUSH2 0x241 SWAP2 SWAP1 PUSH2 0x267F JUMP JUMPDEST PUSH1 0x40 MLOAD DUP1 SWAP2 SUB SWAP1 RETURN JUMPDEST PUSH2 0x252 PUSH2 0x6CB JUMP JUMPDEST PUSH1 0x40 MLOAD PUSH2 0x25F SWAP2 SWAP1 PUSH2 0x25C5 JUMP JUMPDEST PUSH1 0x40 MLOAD DUP1 SWAP2 SUB SWAP1 RETURN JUMPDEST PUSH2 0x282 PUSH1 0x4 DUP1 CALLDATASIZE SUB DUP2 ADD SWAP1 PUSH2 0x27D SWAP2 SWAP1 PUSH2 0x26C6 JUMP JUMPDEST PUSH2 0x6D3 JUMP JUMPDEST STOP JUMPDEST PUSH2 0x28C PUSH2 0x847 JUMP JUMPDEST PUSH1 0x40 MLOAD PUSH2 0x299 SWAP2 SWAP1 PUSH2 0x25C5 JUMP JUMPDEST PUSH1 0x40 MLOAD DUP1 SWAP2 SUB SWAP1 RETURN JUMPDEST PUSH2 0x2AA PUSH2 0x84D JUMP JUMPDEST PUSH1 0x40 MLOAD PUSH2 0x2B7 SWAP2 SWAP1 PUSH2 0x25C5 JUMP JUMPDEST PUSH1 0x40 MLOAD DUP1 SWAP2 SUB SWAP1 RETURN JUMPDEST PUSH2 0x2DA PUSH1 0x4 DUP1 CALLDATASIZE SUB DUP2 ADD SWAP1 PUSH2 0x2D5 SWAP2 SWAP1 PUSH2 0x2643 JUMP JUMPDEST PUSH2 0x857 JUMP JUMPDEST PUSH1 0x40 MLOAD PUSH2 0x2E7 SWAP2 SWAP1 PUSH2 0x25C5 JUMP JUMPDEST PUSH1 0x40 MLOAD DUP1 SWAP2 SUB SWAP1 RETURN JUMPDEST PUSH2 0x30A PUSH1 0x4 DUP1 CALLDATASIZE SUB DUP2 ADD SWAP1 PUSH2 0x305 SWAP2 SWAP1 PUSH2 0x2729 JUMP JUMPDEST PUSH2 0x8A0 JUMP JUMPDEST STOP JUMPDEST PUSH2 0x314 PUSH2 0xC62 JUMP JUMPDEST STOP JUMPDEST PUSH2 0x330 PUSH1 0x4 DUP1 CALLDATASIZE SUB DUP2 ADD SWAP1 PUSH2 0x32B SWAP2 SWAP1 PUSH2 0x27A1 JUMP JUMPDEST PUSH2 0xC76 JUMP JUMPDEST STOP JUMPDEST PUSH2 0x34C PUSH1 0x4 DUP1 CALLDATASIZE SUB DUP2 ADD SWAP1 PUSH2 0x347 SWAP2 SWAP1 PUSH2 0x2643 JUMP JUMPDEST PUSH2 0x1290 JUMP JUMPDEST PUSH1 0x40 MLOAD PUSH2 0x359 SWAP2 SWAP1 PUSH2 0x2965 JUMP JUMPDEST PUSH1 0x40 MLOAD DUP1 SWAP2 SUB SWAP1 RETURN JUMPDEST PUSH2 0x37C PUSH1 0x4 DUP1 CALLDATASIZE SUB DUP2 ADD SWAP1 PUSH2 0x377 SWAP2 SWAP1 PUSH2 0x2981 JUMP JUMPDEST PUSH2 0x1410 JUMP JUMPDEST PUSH1 0x40 MLOAD PUSH2 0x389 SWAP2 SWAP1 PUSH2 0x29D0 JUMP JUMPDEST PUSH1 0x40 MLOAD DUP1 SWAP2 SUB SWAP1 RETURN JUMPDEST PUSH2 0x3AC PUSH1 0x4 DUP1 CALLDATASIZE SUB DUP2 ADD SWAP1 PUSH2 0x3A7 SWAP2 SWAP1 PUSH2 0x29EB JUMP JUMPDEST PUSH2 0x1443 JUMP JUMPDEST STOP JUMPDEST PUSH2 0x3B6 PUSH2 0x179B JUMP JUMPDEST PUSH1 0x40 MLOAD PUSH2 0x3C3 SWAP2 SWAP1 PUSH2 0x267F JUMP JUMPDEST PUSH1 0x40 MLOAD DUP1 SWAP2 SUB SWAP1 RETURN JUMPDEST PUSH2 0x3D4 PUSH2 0x17C4 JUMP JUMPDEST PUSH1 0x40 MLOAD PUSH2 0x3E1 SWAP2 SWAP1 PUSH2 0x25C5 JUMP JUMPDEST PUSH1 0x40 MLOAD DUP1 SWAP2 SUB SWAP1 RETURN JUMPDEST PUSH2 0x3F2 PUSH2 0x188A JUMP JUMPDEST PUSH1 0x40 MLOAD PUSH2 0x3FF SWAP2 SWAP1 PUSH2 0x25C5 JUMP JUMPDEST PUSH1 0x40 MLOAD DUP1 SWAP2 SUB SWAP1 RETURN JUMPDEST PUSH2 0x422 PUSH1 0x4 DUP1 CALLDATASIZE SUB DUP2 ADD SWAP1 PUSH2 0x41D SWAP2 SWAP1 PUSH2 0x29EB JUMP JUMPDEST PUSH2 0x1894 JUMP JUMPDEST PUSH1 0x40 MLOAD PUSH2 0x42F SWAP2 SWAP1 PUSH2 0x2965 JUMP JUMPDEST PUSH1 0x40 MLOAD DUP1 SWAP2 SUB SWAP1 RETURN JUMPDEST PUSH2 0x452 PUSH1 0x4 DUP1 CALLDATASIZE SUB DUP2 ADD SWAP1 PUSH2 0x44D SWAP2 SWAP1 PUSH2 0x29EB JUMP JUMPDEST PUSH2 0x19C0 JUMP JUMPDEST STOP JUMPDEST PUSH2 0x45C PUSH2 0x1C15 JUMP JUMPDEST PUSH1 0x40 MLOAD PUSH2 0x469 SWAP2 SWAP1 PUSH2 0x25C5 JUMP JUMPDEST PUSH1 0x40 MLOAD DUP1 SWAP2 SUB SWAP1 RETURN JUMPDEST PUSH2 0x48C PUSH1 0x4 DUP1 CALLDATASIZE SUB DUP2 ADD SWAP1 PUSH2 0x487 SWAP2 SWAP1 PUSH2 0x29EB JUMP JUMPDEST PUSH2 0x1C2C JUMP JUMPDEST PUSH1 0x40 MLOAD PUSH2 0x499 SWAP2 SWAP1 PUSH2 0x25C5 JUMP JUMPDEST PUSH1 0x40 MLOAD DUP1 SWAP2 SUB SWAP1 RETURN JUMPDEST PUSH2 0x4AA PUSH2 0x1C44 JUMP JUMPDEST PUSH1 0x40 MLOAD PUSH2 0x4B7 SWAP2 SWAP1 PUSH2 0x25C5 JUMP JUMPDEST PUSH1 0x40 MLOAD DUP1 SWAP2 SUB SWAP1 RETURN JUMPDEST PUSH2 0x4C8 PUSH2 0x1C4E JUMP JUMPDEST PUSH1 0x40 MLOAD PUSH2 0x4D5 SWAP2 SWAP1 PUSH2 0x25C5 JUMP JUMPDEST PUSH1 0x40 MLOAD DUP1 SWAP2 SUB SWAP1 RETURN JUMPDEST PUSH2 0x4F8 PUSH1 0x4 DUP1 CALLDATASIZE SUB DUP2 ADD SWAP1 PUSH2 0x4F3 SWAP2 SWAP1 PUSH2 0x29EB JUMP JUMPDEST PUSH2 0x1C54 JUMP JUMPDEST PUSH1 0x40 MLOAD PUSH2 0x505 SWAP2 SWAP1 PUSH2 0x25C5 JUMP JUMPDEST PUSH1 0x40 MLOAD DUP1 SWAP2 SUB SWAP1 RETURN JUMPDEST PUSH2 0x528 PUSH1 0x4 DUP1 CALLDATASIZE SUB DUP2 ADD SWAP1 PUSH2 0x523 SWAP2 SWAP1 PUSH2 0x2643 JUMP JUMPDEST PUSH2 0x1DE5 JUMP JUMPDEST STOP JUMPDEST PUSH2 0x544 PUSH1 0x4 DUP1 CALLDATASIZE SUB DUP2 ADD SWAP1 PUSH2 0x53F SWAP2 SWAP1 PUSH2 0x2981 JUMP JUMPDEST PUSH2 0x1E69 JUMP JUMPDEST PUSH1 0x40 MLOAD PUSH2 0x551 SWAP2 SWAP1 PUSH2 0x2965 JUMP JUMPDEST PUSH1 0x40 MLOAD DUP1 SWAP2 SUB SWAP1 RETURN JUMPDEST PUSH2 0x574 PUSH1 0x4 DUP1 CALLDATASIZE SUB DUP2 ADD SWAP1 PUSH2 0x56F SWAP2 SWAP1 PUSH2 0x2643 JUMP JUMPDEST PUSH2 0x1E8B JUMP JUMPDEST PUSH1 0x40 MLOAD PUSH2 0x581 SWAP2 SWAP1 PUSH2 0x29D0 JUMP JUMPDEST PUSH1 0x40 MLOAD DUP1 SWAP2 SUB SWAP1 RETURN JUMPDEST PUSH2 0x5A4 PUSH1 0x4 DUP1 CALLDATASIZE SUB DUP2 ADD SWAP1 PUSH2 0x59F SWAP2 SWAP1 PUSH2 0x26C6 JUMP JUMPDEST PUSH2 0x1EDD JUMP JUMPDEST PUSH1 0x40 MLOAD PUSH2 0x5B1 SWAP2 SWAP1 PUSH2 0x29D0 JUMP JUMPDEST PUSH1 0x40 MLOAD DUP1 SWAP2 SUB SWAP1 RETURN JUMPDEST PUSH1 0x0 PUSH1 0x5 DUP1 SLOAD SWAP1 POP SWAP1 POP SWAP1 JUMP JUMPDEST PUSH1 0x0 PUSH20 0xFFFFFFFFFFFFFFFFFFFFFFFFFFFFFFFFFFFFFFFF AND DUP2 PUSH20 0xFFFFFFFFFFFFFFFFFFFFFFFFFFFFFFFFFFFFFFFF AND EQ ISZERO PUSH2 0x637 JUMPI PUSH1 0x40 MLOAD PUSH32 0x8C379A000000000000000000000000000000000000000000000000000000000 DUP2 MSTORE PUSH1 0x4 ADD PUSH2 0x62E SWAP1 PUSH2 0x2A9B JUMP JUMPDEST PUSH1 0x40 MLOAD DUP1 SWAP2 SUB SWAP1 REVERT JUMPDEST DUP1 PUSH1 0xB PUSH1 0x0 PUSH2 0x100 EXP DUP2 SLOAD DUP2 PUSH20 0xFFFFFFFFFFFFFFFFFFFFFFFFFFFFFFFFFFFFFFFF MUL NOT AND SWAP1 DUP4 PUSH20 0xFFFFFFFFFFFFFFFFFFFFFFFFFFFFFFFFFFFFFFFF AND MUL OR SWAP1 SSTORE POP POP JUMP JUMPDEST PUSH1 0x0 PUSH1 0x2 PUSH1 0x0 SWAP1 SLOAD SWAP1 PUSH2 0x100 EXP SWAP1 DIV PUSH20 0xFFFFFFFFFFFFFFFFFFFFFFFFFFFFFFFFFFFFFFFF AND SWAP1 POP SWAP1 JUMP JUMPDEST PUSH1 0xB PUSH1 0x0 SWAP1 SLOAD SWAP1 PUSH2 0x100 EXP SWAP1 DIV PUSH20 0xFFFFFFFFFFFFFFFFFFFFFFFFFFFFFFFFFFFFFFFF AND DUP2 JUMP JUMPDEST PUSH1 0x0 TIMESTAMP SWAP1 POP SWAP1 JUMP JUMPDEST PUSH1 0x2 PUSH1 0x1 SLOAD EQ ISZERO PUSH2 0x719 JUMPI PUSH1 0x40 MLOAD PUSH32 0x8C379A000000000000000000000000000000000000000000000000000000000 DUP2 MSTORE PUSH1 0x4 ADD PUSH2 0x710 SWAP1 PUSH2 0x2B07 JUMP JUMPDEST PUSH1 0x40 MLOAD DUP1 SWAP2 SUB SWAP1 REVERT JUMPDEST PUSH1 0x2 PUSH1 0x1 DUP2 SWAP1 SSTORE POP PUSH2 0x729 PUSH2 0x1F4E JUMP JUMPDEST DUP1 ADDRESS PUSH20 0xFFFFFFFFFFFFFFFFFFFFFFFFFFFFFFFFFFFFFFFF AND PUSH4 0x90BE10CC PUSH1 0x40 MLOAD DUP2 PUSH4 0xFFFFFFFF AND PUSH1 0xE0 SHL DUP2 MSTORE PUSH1 0x4 ADD PUSH1 0x20 PUSH1 0x40 MLOAD DUP1 DUP4 SUB DUP2 DUP7 DUP1 EXTCODESIZE ISZERO DUP1 ISZERO PUSH2 0x770 JUMPI PUSH1 0x0 DUP1 REVERT JUMPDEST POP GAS STATICCALL ISZERO DUP1 ISZERO PUSH2 0x784 JUMPI RETURNDATASIZE PUSH1 0x0 DUP1 RETURNDATACOPY RETURNDATASIZE PUSH1 0x0 REVERT JUMPDEST POP POP POP POP PUSH1 0x40 MLOAD RETURNDATASIZE PUSH1 0x1F NOT PUSH1 0x1F DUP3 ADD AND DUP3 ADD DUP1 PUSH1 0x40 MSTORE POP DUP2 ADD SWAP1 PUSH2 0x7A8 SWAP2 SWAP1 PUSH2 0x2B3C JUMP JUMPDEST LT ISZERO PUSH2 0x7E9 JUMPI PUSH1 0x40 MLOAD PUSH32 0x8C379A000000000000000000000000000000000000000000000000000000000 DUP2 MSTORE PUSH1 0x4 ADD PUSH2 0x7E0 SWAP1 PUSH2 0x2BDB JUMP JUMPDEST PUSH1 0x40 MLOAD DUP1 SWAP2 SUB SWAP1 REVERT JUMPDEST PUSH2 0x83D PUSH2 0x7F4 PUSH2 0x179B JUMP JUMPDEST DUP3 PUSH1 0x2 PUSH1 0x0 SWAP1 SLOAD SWAP1 PUSH2 0x100 EXP SWAP1 DIV PUSH20 0xFFFFFFFFFFFFFFFFFFFFFFFFFFFFFFFFFFFFFFFF AND PUSH20 0xFFFFFFFFFFFFFFFFFFFFFFFFFFFFFFFFFFFFFFFF AND PUSH2 0x1FCC SWAP1 SWAP3 SWAP2 SWAP1 PUSH4 0xFFFFFFFF AND JUMP JUMPDEST PUSH1 0x1 DUP1 DUP2 SWAP1 SSTORE POP POP JUMP JUMPDEST PUSH1 0x4 SLOAD DUP2 JUMP JUMPDEST PUSH1 0x0 PUSH1 0x7 SLOAD SWAP1 POP SWAP1 JUMP JUMPDEST PUSH1 0x0 PUSH1 0x9 PUSH1 0x0 DUP4 PUSH20 0xFFFFFFFFFFFFFFFFFFFFFFFFFFFFFFFFFFFFFFFF AND PUSH20 0xFFFFFFFFFFFFFFFFFFFFFFFFFFFFFFFFFFFFFFFF AND DUP2 MSTORE PUSH1 0x20 ADD SWAP1 DUP2 MSTORE PUSH1 0x20 ADD PUSH1 0x0 KECCAK256 SLOAD SWAP1 POP SWAP2 SWAP1 POP JUMP JUMPDEST PUSH1 0x2 PUSH1 0x1 SLOAD EQ ISZERO PUSH2 0x8E6 JUMPI PUSH1 0x40 MLOAD PUSH32 0x8C379A000000000000000000000000000000000000000000000000000000000 DUP2 MSTORE PUSH1 0x4 ADD PUSH2 0x8DD SWAP1 PUSH2 0x2B07 JUMP JUMPDEST PUSH1 0x40 MLOAD DUP1 SWAP2 SUB SWAP1 REVERT JUMPDEST PUSH1 0x2 PUSH1 0x1 DUP2 SWAP1 SSTORE POP DUP2 PUSH1 0x6 PUSH1 0x0 DUP3 DUP2 MSTORE PUSH1 0x20 ADD SWAP1 DUP2 MSTORE PUSH1 0x20 ADD PUSH1 0x0 KECCAK256 PUSH1 0x0 ADD PUSH1 0x0 SWAP1 SLOAD SWAP1 PUSH2 0x100 EXP SWAP1 DIV PUSH1 0xFF AND PUSH2 0x91C JUMPI PUSH1 0x0 DUP1 REVERT JUMPDEST PUSH1 0x6 PUSH1 0x0 DUP3 DUP2 MSTORE PUSH1 0x20 ADD SWAP1 DUP2 MSTORE PUSH1 0x20 ADD PUSH1 0x0 KECCAK256 PUSH1 0x8 ADD PUSH1 0x0 SWAP1 SLOAD SWAP1 PUSH2 0x100 EXP SWAP1 DIV PUSH1 0xFF AND ISZERO PUSH2 0x94A JUMPI PUSH1 0x0 DUP1 REVERT JUMPDEST PUSH1 0x0 PUSH1 0x6 PUSH1 0x0 DUP6 DUP2 MSTORE PUSH1 0x20 ADD SWAP1 DUP2 MSTORE PUSH1 0x20 ADD PUSH1 0x0 KECCAK256 SWAP1 POP PUSH1 0x0 DUP2 PUSH1 0x0 ADD PUSH1 0x1 SWAP1 SLOAD SWAP1 PUSH2 0x100 EXP SWAP1 DIV PUSH20 0xFFFFFFFFFFFFFFFFFFFFFFFFFFFFFFFFFFFFFFFF AND PUSH20 0xFFFFFFFFFFFFFFFFFFFFFFFFFFFFFFFFFFFFFFFF AND CALLER PUSH20 0xFFFFFFFFFFFFFFFFFFFFFFFFFFFFFFFFFFFFFFFF AND EQ SWAP1 POP PUSH1 0x0 PUSH2 0x9C2 PUSH2 0x179B JUMP JUMPDEST PUSH20 0xFFFFFFFFFFFFFFFFFFFFFFFFFFFFFFFFFFFFFFFF AND CALLER PUSH20 0xFFFFFFFFFFFFFFFFFFFFFFFFFFFFFFFFFFFFFFFF AND EQ SWAP1 POP DUP2 DUP1 PUSH2 0x9FB JUMPI POP DUP1 JUMPDEST PUSH2 0xA3A JUMPI PUSH1 0x40 MLOAD PUSH32 0x8C379A000000000000000000000000000000000000000000000000000000000 DUP2 MSTORE PUSH1 0x4 ADD PUSH2 0xA31 SWAP1 PUSH2 0x2C93 JUMP JUMPDEST PUSH1 0x40 MLOAD DUP1 SWAP2 SUB SWAP1 REVERT JUMPDEST PUSH1 0x0 PUSH2 0xB4F DUP5 PUSH1 0x40 MLOAD DUP1 PUSH2 0x160 ADD PUSH1 0x40 MSTORE SWAP1 DUP2 PUSH1 0x0 DUP3 ADD PUSH1 0x0 SWAP1 SLOAD SWAP1 PUSH2 0x100 EXP SWAP1 DIV PUSH1 0xFF AND ISZERO ISZERO ISZERO ISZERO DUP2 MSTORE PUSH1 0x20 ADD PUSH1 0x0 DUP3 ADD PUSH1 0x1 SWAP1 SLOAD SWAP1 PUSH2 0x100 EXP SWAP1 DIV PUSH20 0xFFFFFFFFFFFFFFFFFFFFFFFFFFFFFFFFFFFFFFFF AND PUSH20 0xFFFFFFFFFFFFFFFFFFFFFFFFFFFFFFFFFFFFFFFF AND PUSH20 0xFFFFFFFFFFFFFFFFFFFFFFFFFFFFFFFFFFFFFFFF AND DUP2 MSTORE PUSH1 0x20 ADD PUSH1 0x1 DUP3 ADD SLOAD DUP2 MSTORE PUSH1 0x20 ADD PUSH1 0x2 DUP3 ADD SLOAD DUP2 MSTORE PUSH1 0x20 ADD PUSH1 0x3 DUP3 ADD SLOAD DUP2 MSTORE PUSH1 0x20 ADD PUSH1 0x4 DUP3 ADD SLOAD DUP2 MSTORE PUSH1 0x20 ADD PUSH1 0x5 DUP3 ADD PUSH1 0x0 SWAP1 SLOAD SWAP1 PUSH2 0x100 EXP SWAP1 DIV PUSH1 0xFF AND ISZERO ISZERO ISZERO ISZERO DUP2 MSTORE PUSH1 0x20 ADD PUSH1 0x6 DUP3 ADD SLOAD DUP2 MSTORE PUSH1 0x20 ADD PUSH1 0x7 DUP3 ADD SLOAD DUP2 MSTORE PUSH1 0x20 ADD PUSH1 0x8 DUP3 ADD PUSH1 0x0 SWAP1 SLOAD SWAP1 PUSH2 0x100 EXP SWAP1 DIV PUSH1 0xFF AND ISZERO ISZERO ISZERO ISZERO DUP2 MSTORE PUSH1 0x20 ADD PUSH1 0x8 DUP3 ADD PUSH1 0x1 SWAP1 SLOAD SWAP1 PUSH2 0x100 EXP SWAP1 DIV PUSH1 0xFF AND ISZERO ISZERO ISZERO ISZERO DUP2 MSTORE POP POP PUSH2 0x2052 JUMP JUMPDEST SWAP1 POP PUSH1 0x0 DUP7 EQ ISZERO PUSH2 0xB5E JUMPI DUP1 SWAP6 POP JUMPDEST DUP6 DUP2 LT ISZERO PUSH2 0xBA1 JUMPI PUSH1 0x40 MLOAD PUSH32 0x8C379A000000000000000000000000000000000000000000000000000000000 DUP2 MSTORE PUSH1 0x4 ADD PUSH2 0xB98 SWAP1 PUSH2 0x2D25 JUMP JUMPDEST PUSH1 0x40 MLOAD DUP1 SWAP2 SUB SWAP1 REVERT JUMPDEST PUSH2 0xBB8 DUP7 DUP6 PUSH1 0x7 ADD SLOAD PUSH2 0x2193 SWAP1 SWAP2 SWAP1 PUSH4 0xFFFFFFFF AND JUMP JUMPDEST DUP5 PUSH1 0x7 ADD DUP2 SWAP1 SSTORE POP PUSH1 0x0 DUP5 PUSH1 0x0 ADD PUSH1 0x1 SWAP1 SLOAD SWAP1 PUSH2 0x100 EXP SWAP1 DIV PUSH20 0xFFFFFFFFFFFFFFFFFFFFFFFFFFFFFFFFFFFFFFFF AND SWAP1 POP PUSH2 0xBFE DUP8 PUSH1 0x7 SLOAD PUSH2 0x21A9 SWAP1 SWAP2 SWAP1 PUSH4 0xFFFFFFFF AND JUMP JUMPDEST PUSH1 0x7 DUP2 SWAP1 SSTORE POP PUSH2 0xC51 DUP2 DUP9 PUSH1 0x2 PUSH1 0x0 SWAP1 SLOAD SWAP1 PUSH2 0x100 EXP SWAP1 DIV PUSH20 0xFFFFFFFFFFFFFFFFFFFFFFFFFFFFFFFFFFFFFFFF AND PUSH20 0xFFFFFFFFFFFFFFFFFFFFFFFFFFFFFFFFFFFFFFFF AND PUSH2 0x1FCC SWAP1 SWAP3 SWAP2 SWAP1 PUSH4 0xFFFFFFFF AND JUMP JUMPDEST POP POP POP POP POP POP PUSH1 0x1 DUP1 DUP2 SWAP1 SSTORE POP POP POP JUMP JUMPDEST PUSH2 0xC6A PUSH2 0x1F4E JUMP JUMPDEST PUSH2 0xC74 PUSH1 0x0 PUSH2 0x21BF JUMP JUMPDEST JUMP JUMPDEST PUSH1 0xB PUSH1 0x0 SWAP1 SLOAD SWAP1 PUSH2 0x100 EXP SWAP1 DIV PUSH20 0xFFFFFFFFFFFFFFFFFFFFFFFFFFFFFFFFFFFFFFFF AND PUSH20 0xFFFFFFFFFFFFFFFFFFFFFFFFFFFFFFFFFFFFFFFF AND CALLER PUSH20 0xFFFFFFFFFFFFFFFFFFFFFFFFFFFFFFFFFFFFFFFF AND EQ DUP1 PUSH2 0xD04 JUMPI POP PUSH2 0xCD5 PUSH2 0x179B JUMP JUMPDEST PUSH20 0xFFFFFFFFFFFFFFFFFFFFFFFFFFFFFFFFFFFFFFFF AND CALLER PUSH20 0xFFFFFFFFFFFFFFFFFFFFFFFFFFFFFFFFFFFFFFFF AND EQ JUMPDEST PUSH2 0xD43 JUMPI PUSH1 0x40 MLOAD PUSH32 0x8C379A000000000000000000000000000000000000000000000000000000000 DUP2 MSTORE PUSH1 0x4 ADD PUSH2 0xD3A SWAP1 PUSH2 0x2D91 JUMP JUMPDEST PUSH1 0x40 MLOAD DUP1 SWAP2 SUB SWAP1 REVERT JUMPDEST DUP2 ADDRESS PUSH20 0xFFFFFFFFFFFFFFFFFFFFFFFFFFFFFFFFFFFFFFFF AND PUSH4 0x90BE10CC PUSH1 0x40 MLOAD DUP2 PUSH4 0xFFFFFFFF AND PUSH1 0xE0 SHL DUP2 MSTORE PUSH1 0x4 ADD PUSH1 0x20 PUSH1 0x40 MLOAD DUP1 DUP4 SUB DUP2 DUP7 DUP1 EXTCODESIZE ISZERO DUP1 ISZERO PUSH2 0xD8A JUMPI PUSH1 0x0 DUP1 REVERT JUMPDEST POP GAS STATICCALL ISZERO DUP1 ISZERO PUSH2 0xD9E JUMPI RETURNDATASIZE PUSH1 0x0 DUP1 RETURNDATACOPY RETURNDATASIZE PUSH1 0x0 REVERT JUMPDEST POP POP POP POP PUSH1 0x40 MLOAD RETURNDATASIZE PUSH1 0x1F NOT PUSH1 0x1F DUP3 ADD AND DUP3 ADD DUP1 PUSH1 0x40 MSTORE POP DUP2 ADD SWAP1 PUSH2 0xDC2 SWAP2 SWAP1 PUSH2 0x2B3C JUMP JUMPDEST LT ISZERO PUSH2 0xE03 JUMPI PUSH1 0x40 MLOAD PUSH32 0x8C379A000000000000000000000000000000000000000000000000000000000 DUP2 MSTORE PUSH1 0x4 ADD PUSH2 0xDFA SWAP1 PUSH2 0x2E49 JUMP JUMPDEST PUSH1 0x40 MLOAD DUP1 SWAP2 SUB SWAP1 REVERT JUMPDEST PUSH1 0x0 DUP6 GT PUSH2 0xE46 JUMPI PUSH1 0x40 MLOAD PUSH32 0x8C379A000000000000000000000000000000000000000000000000000000000 DUP2 MSTORE PUSH1 0x4 ADD PUSH2 0xE3D SWAP1 PUSH2 0x2EDB JUMP JUMPDEST PUSH1 0x40 MLOAD DUP1 SWAP2 SUB SWAP1 REVERT JUMPDEST PUSH1 0x0 DUP3 GT PUSH2 0xE89 JUMPI PUSH1 0x40 MLOAD PUSH32 0x8C379A000000000000000000000000000000000000000000000000000000000 DUP2 MSTORE PUSH1 0x4 ADD PUSH2 0xE80 SWAP1 PUSH2 0x2F47 JUMP JUMPDEST PUSH1 0x40 MLOAD DUP1 SWAP2 SUB SWAP1 REVERT JUMPDEST PUSH1 0x1 DUP5 LT ISZERO PUSH2 0xECD JUMPI PUSH1 0x40 MLOAD PUSH32 0x8C379A000000000000000000000000000000000000000000000000000000000 DUP2 MSTORE PUSH1 0x4 ADD PUSH2 0xEC4 SWAP1 PUSH2 0x2FD9 JUMP JUMPDEST PUSH1 0x40 MLOAD DUP1 SWAP2 SUB SWAP1 REVERT JUMPDEST PUSH1 0x0 ADDRESS PUSH20 0xFFFFFFFFFFFFFFFFFFFFFFFFFFFFFFFFFFFFFFFF AND PUSH4 0xF7C469F0 DUP11 PUSH1 0x40 MLOAD DUP3 PUSH4 0xFFFFFFFF AND PUSH1 0xE0 SHL DUP2 MSTORE PUSH1 0x4 ADD PUSH2 0xF08 SWAP2 SWAP1 PUSH2 0x267F JUMP JUMPDEST PUSH1 0x20 PUSH1 0x40 MLOAD DUP1 DUP4 SUB DUP2 DUP7 DUP1 EXTCODESIZE ISZERO DUP1 ISZERO PUSH2 0xF20 JUMPI PUSH1 0x0 DUP1 REVERT JUMPDEST POP GAS STATICCALL ISZERO DUP1 ISZERO PUSH2 0xF34 JUMPI RETURNDATASIZE PUSH1 0x0 DUP1 RETURNDATACOPY RETURNDATASIZE PUSH1 0x0 REVERT JUMPDEST POP POP POP POP PUSH1 0x40 MLOAD RETURNDATASIZE PUSH1 0x1F NOT PUSH1 0x1F DUP3 ADD AND DUP3 ADD DUP1 PUSH1 0x40 MSTORE POP DUP2 ADD SWAP1 PUSH2 0xF58 SWAP2 SWAP1 PUSH2 0x300E JUMP JUMPDEST SWAP1 POP PUSH1 0x0 PUSH2 0xF6F DUP9 DUP11 PUSH2 0x2193 SWAP1 SWAP2 SWAP1 PUSH4 0xFFFFFFFF AND JUMP JUMPDEST SWAP1 POP PUSH1 0x40 MLOAD DUP1 PUSH2 0x160 ADD PUSH1 0x40 MSTORE DUP1 PUSH1 0x1 ISZERO ISZERO DUP2 MSTORE PUSH1 0x20 ADD DUP12 PUSH20 0xFFFFFFFFFFFFFFFFFFFFFFFFFFFFFFFFFFFFFFFF AND DUP2 MSTORE PUSH1 0x20 ADD DUP3 DUP2 MSTORE PUSH1 0x20 ADD DUP11 DUP2 MSTORE PUSH1 0x20 ADD DUP9 DUP2 MSTORE PUSH1 0x20 ADD DUP8 DUP2 MSTORE PUSH1 0x20 ADD DUP7 ISZERO ISZERO DUP2 MSTORE PUSH1 0x20 ADD DUP6 DUP2 MSTORE PUSH1 0x20 ADD PUSH1 0x0 DUP2 MSTORE PUSH1 0x20 ADD PUSH1 0x0 ISZERO ISZERO DUP2 MSTORE PUSH1 0x20 ADD DUP5 ISZERO ISZERO DUP2 MSTORE POP PUSH1 0x6 PUSH1 0x0 DUP5 DUP2 MSTORE PUSH1 0x20 ADD SWAP1 DUP2 MSTORE PUSH1 0x20 ADD PUSH1 0x0 KECCAK256 PUSH1 0x0 DUP3 ADD MLOAD DUP2 PUSH1 0x0 ADD PUSH1 0x0 PUSH2 0x100 EXP DUP2 SLOAD DUP2 PUSH1 0xFF MUL NOT AND SWAP1 DUP4 ISZERO ISZERO MUL OR SWAP1 SSTORE POP PUSH1 0x20 DUP3 ADD MLOAD DUP2 PUSH1 0x0 ADD PUSH1 0x1 PUSH2 0x100 EXP DUP2 SLOAD DUP2 PUSH20 0xFFFFFFFFFFFFFFFFFFFFFFFFFFFFFFFFFFFFFFFF MUL NOT AND SWAP1 DUP4 PUSH20 0xFFFFFFFFFFFFFFFFFFFFFFFFFFFFFFFFFFFFFFFF AND MUL OR SWAP1 SSTORE POP PUSH1 0x40 DUP3 ADD MLOAD DUP2 PUSH1 0x1 ADD SSTORE PUSH1 0x60 DUP3 ADD MLOAD DUP2 PUSH1 0x2 ADD SSTORE PUSH1 0x80 DUP3 ADD MLOAD DUP2 PUSH1 0x3 ADD SSTORE PUSH1 0xA0 DUP3 ADD MLOAD DUP2 PUSH1 0x4 ADD SSTORE PUSH1 0xC0 DUP3 ADD MLOAD DUP2 PUSH1 0x5 ADD PUSH1 0x0 PUSH2 0x100 EXP DUP2 SLOAD DUP2 PUSH1 0xFF MUL NOT AND SWAP1 DUP4 ISZERO ISZERO MUL OR SWAP1 SSTORE POP PUSH1 0xE0 DUP3 ADD MLOAD DUP2 PUSH1 0x6 ADD SSTORE PUSH2 0x100 DUP3 ADD MLOAD DUP2 PUSH1 0x7 ADD SSTORE PUSH2 0x120 DUP3 ADD MLOAD DUP2 PUSH1 0x8 ADD PUSH1 0x0 PUSH2 0x100 EXP DUP2 SLOAD DUP2 PUSH1 0xFF MUL NOT AND SWAP1 DUP4 ISZERO ISZERO MUL OR SWAP1 SSTORE POP PUSH2 0x140 DUP3 ADD MLOAD DUP2 PUSH1 0x8 ADD PUSH1 0x1 PUSH2 0x100 EXP DUP2 SLOAD DUP2 PUSH1 0xFF MUL NOT AND SWAP1 DUP4 ISZERO ISZERO MUL OR SWAP1 SSTORE POP SWAP1 POP POP PUSH1 0x0 DUP4 ISZERO PUSH2 0x1148 JUMPI PUSH2 0x112A PUSH1 0x64 PUSH2 0x111C PUSH1 0x3 SLOAD DUP9 PUSH2 0x2283 SWAP1 SWAP2 SWAP1 PUSH4 0xFFFFFFFF AND JUMP JUMPDEST PUSH2 0x2299 SWAP1 SWAP2 SWAP1 PUSH4 0xFFFFFFFF AND JUMP JUMPDEST SWAP1 POP PUSH2 0x1141 DUP2 PUSH1 0x8 SLOAD PUSH2 0x2193 SWAP1 SWAP2 SWAP1 PUSH4 0xFFFFFFFF AND JUMP JUMPDEST PUSH1 0x8 DUP2 SWAP1 SSTORE POP JUMPDEST PUSH2 0x1168 DUP2 DUP7 PUSH2 0x1157 SWAP2 SWAP1 PUSH2 0x306A JUMP JUMPDEST PUSH1 0x7 SLOAD PUSH2 0x2193 SWAP1 SWAP2 SWAP1 PUSH4 0xFFFFFFFF AND JUMP JUMPDEST PUSH1 0x7 DUP2 SWAP1 SSTORE POP PUSH1 0x5 DUP4 SWAP1 DUP1 PUSH1 0x1 DUP2 SLOAD ADD DUP1 DUP3 SSTORE DUP1 SWAP2 POP POP PUSH1 0x1 SWAP1 SUB SWAP1 PUSH1 0x0 MSTORE PUSH1 0x20 PUSH1 0x0 KECCAK256 ADD PUSH1 0x0 SWAP1 SWAP2 SWAP1 SWAP2 SWAP1 SWAP2 POP SSTORE PUSH1 0x0 PUSH1 0x9 PUSH1 0x0 DUP14 PUSH20 0xFFFFFFFFFFFFFFFFFFFFFFFFFFFFFFFFFFFFFFFF AND PUSH20 0xFFFFFFFFFFFFFFFFFFFFFFFFFFFFFFFFFFFFFFFF AND DUP2 MSTORE PUSH1 0x20 ADD SWAP1 DUP2 MSTORE PUSH1 0x20 ADD PUSH1 0x0 KECCAK256 SLOAD SWAP1 POP PUSH2 0x11EF PUSH1 0x1 DUP3 PUSH2 0x2193 SWAP1 SWAP2 SWAP1 PUSH4 0xFFFFFFFF AND JUMP JUMPDEST PUSH1 0x9 PUSH1 0x0 DUP15 PUSH20 0xFFFFFFFFFFFFFFFFFFFFFFFFFFFFFFFFFFFFFFFF AND PUSH20 0xFFFFFFFFFFFFFFFFFFFFFFFFFFFFFFFFFFFFFFFF AND DUP2 MSTORE PUSH1 0x20 ADD SWAP1 DUP2 MSTORE PUSH1 0x20 ADD PUSH1 0x0 KECCAK256 DUP2 SWAP1 SSTORE POP PUSH1 0x0 PUSH1 0xA PUSH1 0x0 DUP7 DUP2 MSTORE PUSH1 0x20 ADD SWAP1 DUP2 MSTORE PUSH1 0x20 ADD PUSH1 0x0 KECCAK256 DUP2 SWAP1 SSTORE POP PUSH32 0x7DEECC243DEC36156ECE079AE8E71CB3F5B8A86D4EE141E3733216E23614E0C3 DUP5 PUSH1 0x40 MLOAD PUSH2 0x127A SWAP2 SWAP1 PUSH2 0x29D0 JUMP JUMPDEST PUSH1 0x40 MLOAD DUP1 SWAP2 SUB SWAP1 LOG1 POP POP POP POP POP POP POP POP POP POP POP POP JUMP JUMPDEST PUSH2 0x1298 PUSH2 0x2534 JUMP JUMPDEST PUSH1 0x6 PUSH1 0x0 PUSH2 0x12F1 DUP5 PUSH1 0x1 PUSH1 0x9 PUSH1 0x0 DUP9 PUSH20 0xFFFFFFFFFFFFFFFFFFFFFFFFFFFFFFFFFFFFFFFF AND PUSH20 0xFFFFFFFFFFFFFFFFFFFFFFFFFFFFFFFFFFFFFFFF AND DUP2 MSTORE PUSH1 0x20 ADD SWAP1 DUP2 MSTORE PUSH1 0x20 ADD PUSH1 0x0 KECCAK256 SLOAD PUSH2 0x12EC SWAP2 SWAP1 PUSH2 0x306A JUMP JUMPDEST PUSH2 0x1410 JUMP JUMPDEST DUP2 MSTORE PUSH1 0x20 ADD SWAP1 DUP2 MSTORE PUSH1 0x20 ADD PUSH1 0x0 KECCAK256 PUSH1 0x40 MLOAD DUP1 PUSH2 0x160 ADD PUSH1 0x40 MSTORE SWAP1 DUP2 PUSH1 0x0 DUP3 ADD PUSH1 0x0 SWAP1 SLOAD SWAP1 PUSH2 0x100 EXP SWAP1 DIV PUSH1 0xFF AND ISZERO ISZERO ISZERO ISZERO DUP2 MSTORE PUSH1 0x20 ADD PUSH1 0x0 DUP3 ADD PUSH1 0x1 SWAP1 SLOAD SWAP1 PUSH2 0x100 EXP SWAP1 DIV PUSH20 0xFFFFFFFFFFFFFFFFFFFFFFFFFFFFFFFFFFFFFFFF AND PUSH20 0xFFFFFFFFFFFFFFFFFFFFFFFFFFFFFFFFFFFFFFFF AND PUSH20 0xFFFFFFFFFFFFFFFFFFFFFFFFFFFFFFFFFFFFFFFF AND DUP2 MSTORE PUSH1 0x20 ADD PUSH1 0x1 DUP3 ADD SLOAD DUP2 MSTORE PUSH1 0x20 ADD PUSH1 0x2 DUP3 ADD SLOAD DUP2 MSTORE PUSH1 0x20 ADD PUSH1 0x3 DUP3 ADD SLOAD DUP2 MSTORE PUSH1 0x20 ADD PUSH1 0x4 DUP3 ADD SLOAD DUP2 MSTORE PUSH1 0x20 ADD PUSH1 0x5 DUP3 ADD PUSH1 0x0 SWAP1 SLOAD SWAP1 PUSH2 0x100 EXP SWAP1 DIV PUSH1 0xFF AND ISZERO ISZERO ISZERO ISZERO DUP2 MSTORE PUSH1 0x20 ADD PUSH1 0x6 DUP3 ADD SLOAD DUP2 MSTORE PUSH1 0x20 ADD PUSH1 0x7 DUP3 ADD SLOAD DUP2 MSTORE PUSH1 0x20 ADD PUSH1 0x8 DUP3 ADD PUSH1 0x0 SWAP1 SLOAD SWAP1 PUSH2 0x100 EXP SWAP1 DIV PUSH1 0xFF AND ISZERO ISZERO ISZERO ISZERO DUP2 MSTORE PUSH1 0x20 ADD PUSH1 0x8 DUP3 ADD PUSH1 0x1 SWAP1 SLOAD SWAP1 PUSH2 0x100 EXP SWAP1 DIV PUSH1 0xFF AND ISZERO ISZERO ISZERO ISZERO DUP2 MSTORE POP POP SWAP1 POP SWAP2 SWAP1 POP JUMP JUMPDEST PUSH1 0x0 DUP3 DUP3 PUSH1 0x40 MLOAD PUSH1 0x20 ADD PUSH2 0x1425 SWAP3 SWAP2 SWAP1 PUSH2 0x3107 JUMP JUMPDEST PUSH1 0x40 MLOAD PUSH1 0x20 DUP2 DUP4 SUB SUB DUP2 MSTORE SWAP1 PUSH1 0x40 MSTORE DUP1 MLOAD SWAP1 PUSH1 0x20 ADD KECCAK256 SWAP1 POP SWAP3 SWAP2 POP POP JUMP JUMPDEST PUSH1 0x2 PUSH1 0x1 SLOAD EQ ISZERO PUSH2 0x1489 JUMPI PUSH1 0x40 MLOAD PUSH32 0x8C379A000000000000000000000000000000000000000000000000000000000 DUP2 MSTORE PUSH1 0x4 ADD PUSH2 0x1480 SWAP1 PUSH2 0x2B07 JUMP JUMPDEST PUSH1 0x40 MLOAD DUP1 SWAP2 SUB SWAP1 REVERT JUMPDEST PUSH1 0x2 PUSH1 0x1 DUP2 SWAP1 SSTORE POP PUSH1 0x0 PUSH1 0x6 PUSH1 0x0 DUP4 DUP2 MSTORE PUSH1 0x20 ADD SWAP1 DUP2 MSTORE PUSH1 0x20 ADD PUSH1 0x0 KECCAK256 SWAP1 POP PUSH1 0x0 DUP2 PUSH1 0x0 ADD PUSH1 0x1 SWAP1 SLOAD SWAP1 PUSH2 0x100 EXP SWAP1 DIV PUSH20 0xFFFFFFFFFFFFFFFFFFFFFFFFFFFFFFFFFFFFFFFF AND PUSH20 0xFFFFFFFFFFFFFFFFFFFFFFFFFFFFFFFFFFFFFFFF AND CALLER PUSH20 0xFFFFFFFFFFFFFFFFFFFFFFFFFFFFFFFFFFFFFFFF AND EQ SWAP1 POP PUSH1 0x0 PUSH2 0x1509 PUSH2 0x179B JUMP JUMPDEST PUSH20 0xFFFFFFFFFFFFFFFFFFFFFFFFFFFFFFFFFFFFFFFF AND CALLER PUSH20 0xFFFFFFFFFFFFFFFFFFFFFFFFFFFFFFFFFFFFFFFF AND EQ SWAP1 POP DUP2 DUP1 PUSH2 0x1542 JUMPI POP DUP1 JUMPDEST PUSH2 0x1581 JUMPI PUSH1 0x40 MLOAD PUSH32 0x8C379A000000000000000000000000000000000000000000000000000000000 DUP2 MSTORE PUSH1 0x4 ADD PUSH2 0x1578 SWAP1 PUSH2 0x2C93 JUMP JUMPDEST PUSH1 0x40 MLOAD DUP1 SWAP2 SUB SWAP1 REVERT JUMPDEST DUP3 PUSH1 0x8 ADD PUSH1 0x1 SWAP1 SLOAD SWAP1 PUSH2 0x100 EXP SWAP1 DIV PUSH1 0xFF AND PUSH2 0x15D2 JUMPI PUSH1 0x40 MLOAD PUSH32 0x8C379A000000000000000000000000000000000000000000000000000000000 DUP2 MSTORE PUSH1 0x4 ADD PUSH2 0x15C9 SWAP1 PUSH2 0x31A5 JUMP JUMPDEST PUSH1 0x40 MLOAD DUP1 SWAP2 SUB SWAP1 REVERT JUMPDEST PUSH1 0x0 PUSH2 0x15DC PUSH2 0x6CB JUMP JUMPDEST SWAP1 POP PUSH1 0x4 SLOAD DUP2 LT ISZERO PUSH2 0x1623 JUMPI PUSH1 0x40 MLOAD PUSH32 0x8C379A000000000000000000000000000000000000000000000000000000000 DUP2 MSTORE PUSH1 0x4 ADD PUSH2 0x161A SWAP1 PUSH2 0x3211 JUMP JUMPDEST PUSH1 0x40 MLOAD DUP1 SWAP2 SUB SWAP1 REVERT JUMPDEST PUSH1 0x0 PUSH1 0xA PUSH1 0x0 DUP8 DUP2 MSTORE PUSH1 0x20 ADD SWAP1 DUP2 MSTORE PUSH1 0x20 ADD PUSH1 0x0 KECCAK256 SLOAD EQ PUSH2 0x1679 JUMPI PUSH1 0x40 MLOAD PUSH32 0x8C379A000000000000000000000000000000000000000000000000000000000 DUP2 MSTORE PUSH1 0x4 ADD PUSH2 0x1670 SWAP1 PUSH2 0x327D JUMP JUMPDEST PUSH1 0x40 MLOAD DUP1 SWAP2 SUB SWAP1 REVERT JUMPDEST PUSH1 0x0 PUSH2 0x16A7 PUSH1 0x64 PUSH2 0x1699 PUSH1 0x3 SLOAD DUP9 PUSH1 0x6 ADD SLOAD PUSH2 0x2283 SWAP1 SWAP2 SWAP1 PUSH4 0xFFFFFFFF AND JUMP JUMPDEST PUSH2 0x2299 SWAP1 SWAP2 SWAP1 PUSH4 0xFFFFFFFF AND JUMP JUMPDEST SWAP1 POP DUP1 PUSH1 0xA PUSH1 0x0 DUP9 DUP2 MSTORE PUSH1 0x20 ADD SWAP1 DUP2 MSTORE PUSH1 0x20 ADD PUSH1 0x0 KECCAK256 DUP2 SWAP1 SSTORE POP PUSH1 0x0 DUP6 PUSH1 0x0 ADD PUSH1 0x1 SWAP1 SLOAD SWAP1 PUSH2 0x100 EXP SWAP1 DIV PUSH20 0xFFFFFFFFFFFFFFFFFFFFFFFFFFFFFFFFFFFFFFFF AND SWAP1 POP PUSH2 0x16FF DUP3 PUSH1 0x8 SLOAD PUSH2 0x21A9 SWAP1 SWAP2 SWAP1 PUSH4 0xFFFFFFFF AND JUMP JUMPDEST PUSH1 0x8 DUP2 SWAP1 SSTORE POP PUSH2 0x1752 DUP2 DUP4 PUSH1 0x2 PUSH1 0x0 SWAP1 SLOAD SWAP1 PUSH2 0x100 EXP SWAP1 DIV PUSH20 0xFFFFFFFFFFFFFFFFFFFFFFFFFFFFFFFFFFFFFFFF AND PUSH20 0xFFFFFFFFFFFFFFFFFFFFFFFFFFFFFFFFFFFFFFFF AND PUSH2 0x1FCC SWAP1 SWAP3 SWAP2 SWAP1 PUSH4 0xFFFFFFFF AND JUMP JUMPDEST PUSH32 0xD9215C0345F0D530C5101EDEA49413960423257C62DD4DCC18B5E6C0B63A0227 DUP2 DUP4 PUSH1 0x40 MLOAD PUSH2 0x1783 SWAP3 SWAP2 SWAP1 PUSH2 0x32FC JUMP JUMPDEST PUSH1 0x40 MLOAD DUP1 SWAP2 SUB SWAP1 LOG1 POP POP POP POP POP POP PUSH1 0x1 DUP1 DUP2 SWAP1 SSTORE POP POP JUMP JUMPDEST PUSH1 0x0 DUP1 PUSH1 0x0 SWAP1 SLOAD SWAP1 PUSH2 0x100 EXP SWAP1 DIV PUSH20 0xFFFFFFFFFFFFFFFFFFFFFFFFFFFFFFFFFFFFFFFF AND SWAP1 POP SWAP1 JUMP JUMPDEST PUSH1 0x0 PUSH2 0x1885 PUSH1 0x7 SLOAD PUSH1 0x2 PUSH1 0x0 SWAP1 SLOAD SWAP1 PUSH2 0x100 EXP SWAP1 DIV PUSH20 0xFFFFFFFFFFFFFFFFFFFFFFFFFFFFFFFFFFFFFFFF AND PUSH20 0xFFFFFFFFFFFFFFFFFFFFFFFFFFFFFFFFFFFFFFFF AND PUSH4 0x70A08231 ADDRESS PUSH1 0x40 MLOAD DUP3 PUSH4 0xFFFFFFFF AND PUSH1 0xE0 SHL DUP2 MSTORE PUSH1 0x4 ADD PUSH2 0x1827 SWAP2 SWAP1 PUSH2 0x267F JUMP JUMPDEST PUSH1 0x20 PUSH1 0x40 MLOAD DUP1 DUP4 SUB DUP2 DUP7 DUP1 EXTCODESIZE ISZERO DUP1 ISZERO PUSH2 0x183F JUMPI PUSH1 0x0 DUP1 REVERT JUMPDEST POP GAS STATICCALL ISZERO DUP1 ISZERO PUSH2 0x1853 JUMPI RETURNDATASIZE PUSH1 0x0 DUP1 RETURNDATACOPY RETURNDATASIZE PUSH1 0x0 REVERT JUMPDEST POP POP POP POP PUSH1 0x40 MLOAD RETURNDATASIZE PUSH1 0x1F NOT PUSH1 0x1F DUP3 ADD AND DUP3 ADD DUP1 PUSH1 0x40 MSTORE POP DUP2 ADD SWAP1 PUSH2 0x1877 SWAP2 SWAP1 PUSH2 0x2B3C JUMP JUMPDEST PUSH2 0x21A9 SWAP1 SWAP2 SWAP1 PUSH4 0xFFFFFFFF AND JUMP JUMPDEST SWAP1 POP SWAP1 JUMP JUMPDEST PUSH1 0x0 PUSH1 0x4 SLOAD SWAP1 POP SWAP1 JUMP JUMPDEST PUSH2 0x189C PUSH2 0x2534 JUMP JUMPDEST PUSH1 0x6 PUSH1 0x0 DUP4 DUP2 MSTORE PUSH1 0x20 ADD SWAP1 DUP2 MSTORE PUSH1 0x20 ADD PUSH1 0x0 KECCAK256 PUSH1 0x40 MLOAD DUP1 PUSH2 0x160 ADD PUSH1 0x40 MSTORE SWAP1 DUP2 PUSH1 0x0 DUP3 ADD PUSH1 0x0 SWAP1 SLOAD SWAP1 PUSH2 0x100 EXP SWAP1 DIV PUSH1 0xFF AND ISZERO ISZERO ISZERO ISZERO DUP2 MSTORE PUSH1 0x20 ADD PUSH1 0x0 DUP3 ADD PUSH1 0x1 SWAP1 SLOAD SWAP1 PUSH2 0x100 EXP SWAP1 DIV PUSH20 0xFFFFFFFFFFFFFFFFFFFFFFFFFFFFFFFFFFFFFFFF AND PUSH20 0xFFFFFFFFFFFFFFFFFFFFFFFFFFFFFFFFFFFFFFFF AND PUSH20 0xFFFFFFFFFFFFFFFFFFFFFFFFFFFFFFFFFFFFFFFF AND DUP2 MSTORE PUSH1 0x20 ADD PUSH1 0x1 DUP3 ADD SLOAD DUP2 MSTORE PUSH1 0x20 ADD PUSH1 0x2 DUP3 ADD SLOAD DUP2 MSTORE PUSH1 0x20 ADD PUSH1 0x3 DUP3 ADD SLOAD DUP2 MSTORE PUSH1 0x20 ADD PUSH1 0x4 DUP3 ADD SLOAD DUP2 MSTORE PUSH1 0x20 ADD PUSH1 0x5 DUP3 ADD PUSH1 0x0 SWAP1 SLOAD SWAP1 PUSH2 0x100 EXP SWAP1 DIV PUSH1 0xFF AND ISZERO ISZERO ISZERO ISZERO DUP2 MSTORE PUSH1 0x20 ADD PUSH1 0x6 DUP3 ADD SLOAD DUP2 MSTORE PUSH1 0x20 ADD PUSH1 0x7 DUP3 ADD SLOAD DUP2 MSTORE PUSH1 0x20 ADD PUSH1 0x8 DUP3 ADD PUSH1 0x0 SWAP1 SLOAD SWAP1 PUSH2 0x100 EXP SWAP1 DIV PUSH1 0xFF AND ISZERO ISZERO ISZERO ISZERO DUP2 MSTORE PUSH1 0x20 ADD PUSH1 0x8 DUP3 ADD PUSH1 0x1 SWAP1 SLOAD SWAP1 PUSH2 0x100 EXP SWAP1 DIV PUSH1 0xFF AND ISZERO ISZERO ISZERO ISZERO DUP2 MSTORE POP POP SWAP1 POP SWAP2 SWAP1 POP JUMP JUMPDEST PUSH2 0x19C8 PUSH2 0x1F4E JUMP JUMPDEST DUP1 PUSH1 0x6 PUSH1 0x0 DUP3 DUP2 MSTORE PUSH1 0x20 ADD SWAP1 DUP2 MSTORE PUSH1 0x20 ADD PUSH1 0x0 KECCAK256 PUSH1 0x0 ADD PUSH1 0x0 SWAP1 SLOAD SWAP1 PUSH2 0x100 EXP SWAP1 DIV PUSH1 0xFF AND PUSH2 0x19F6 JUMPI PUSH1 0x0 DUP1 REVERT JUMPDEST PUSH1 0x6 PUSH1 0x0 DUP3 DUP2 MSTORE PUSH1 0x20 ADD SWAP1 DUP2 MSTORE PUSH1 0x20 ADD PUSH1 0x0 KECCAK256 PUSH1 0x8 ADD PUSH1 0x0 SWAP1 SLOAD SWAP1 PUSH2 0x100 EXP SWAP1 DIV PUSH1 0xFF AND ISZERO PUSH2 0x1A24 JUMPI PUSH1 0x0 DUP1 REVERT JUMPDEST PUSH1 0x0 PUSH1 0x6 PUSH1 0x0 DUP5 DUP2 MSTORE PUSH1 0x20 ADD SWAP1 DUP2 MSTORE PUSH1 0x20 ADD PUSH1 0x0 KECCAK256 SWAP1 POP DUP1 PUSH1 0x5 ADD PUSH1 0x0 SWAP1 SLOAD SWAP1 PUSH2 0x100 EXP SWAP1 DIV PUSH1 0xFF AND PUSH2 0x1A8C JUMPI PUSH1 0x40 MLOAD PUSH32 0x8C379A000000000000000000000000000000000000000000000000000000000 DUP2 MSTORE PUSH1 0x4 ADD PUSH2 0x1A83 SWAP1 PUSH2 0x3397 JUMP JUMPDEST PUSH1 0x40 MLOAD DUP1 SWAP2 SUB SWAP1 REVERT JUMPDEST PUSH1 0x0 PUSH2 0x1BA1 DUP3 PUSH1 0x40 MLOAD DUP1 PUSH2 0x160 ADD PUSH1 0x40 MSTORE SWAP1 DUP2 PUSH1 0x0 DUP3 ADD PUSH1 0x0 SWAP1 SLOAD SWAP1 PUSH2 0x100 EXP SWAP1 DIV PUSH1 0xFF AND ISZERO ISZERO ISZERO ISZERO DUP2 MSTORE PUSH1 0x20 ADD PUSH1 0x0 DUP3 ADD PUSH1 0x1 SWAP1 SLOAD SWAP1 PUSH2 0x100 EXP SWAP1 DIV PUSH20 0xFFFFFFFFFFFFFFFFFFFFFFFFFFFFFFFFFFFFFFFF AND PUSH20 0xFFFFFFFFFFFFFFFFFFFFFFFFFFFFFFFFFFFFFFFF AND PUSH20 0xFFFFFFFFFFFFFFFFFFFFFFFFFFFFFFFFFFFFFFFF AND DUP2 MSTORE PUSH1 0x20 ADD PUSH1 0x1 DUP3 ADD SLOAD DUP2 MSTORE PUSH1 0x20 ADD PUSH1 0x2 DUP3 ADD SLOAD DUP2 MSTORE PUSH1 0x20 ADD PUSH1 0x3 DUP3 ADD SLOAD DUP2 MSTORE PUSH1 0x20 ADD PUSH1 0x4 DUP3 ADD SLOAD DUP2 MSTORE PUSH1 0x20 ADD PUSH1 0x5 DUP3 ADD PUSH1 0x0 SWAP1 SLOAD SWAP1 PUSH2 0x100 EXP SWAP1 DIV PUSH1 0xFF AND ISZERO ISZERO ISZERO ISZERO DUP2 MSTORE PUSH1 0x20 ADD PUSH1 0x6 DUP3 ADD SLOAD DUP2 MSTORE PUSH1 0x20 ADD PUSH1 0x7 DUP3 ADD SLOAD DUP2 MSTORE PUSH1 0x20 ADD PUSH1 0x8 DUP3 ADD PUSH1 0x0 SWAP1 SLOAD SWAP1 PUSH2 0x100 EXP SWAP1 DIV PUSH1 0xFF AND ISZERO ISZERO ISZERO ISZERO DUP2 MSTORE PUSH1 0x20 ADD PUSH1 0x8 DUP3 ADD PUSH1 0x1 SWAP1 SLOAD SWAP1 PUSH2 0x100 EXP SWAP1 DIV PUSH1 0xFF AND ISZERO ISZERO ISZERO ISZERO DUP2 MSTORE POP POP PUSH2 0x2052 JUMP JUMPDEST SWAP1 POP PUSH1 0x0 DUP2 GT ISZERO PUSH2 0x1BB7 JUMPI PUSH2 0x1BB6 DUP5 DUP3 PUSH2 0x8A0 JUMP JUMPDEST JUMPDEST PUSH1 0x0 PUSH2 0x1BD4 DUP4 PUSH1 0x7 ADD SLOAD DUP5 PUSH1 0x6 ADD SLOAD PUSH2 0x21A9 SWAP1 SWAP2 SWAP1 PUSH4 0xFFFFFFFF AND JUMP JUMPDEST SWAP1 POP PUSH2 0x1BEB DUP2 PUSH1 0x7 SLOAD PUSH2 0x21A9 SWAP1 SWAP2 SWAP1 PUSH4 0xFFFFFFFF AND JUMP JUMPDEST PUSH1 0x7 DUP2 SWAP1 SSTORE POP PUSH1 0x1 DUP4 PUSH1 0x8 ADD PUSH1 0x0 PUSH2 0x100 EXP DUP2 SLOAD DUP2 PUSH1 0xFF MUL NOT AND SWAP1 DUP4 ISZERO ISZERO MUL OR SWAP1 SSTORE POP POP POP POP POP POP JUMP JUMPDEST PUSH1 0x0 PUSH1 0x7 SLOAD PUSH1 0x8 SLOAD PUSH2 0x1C27 SWAP2 SWAP1 PUSH2 0x33B7 JUMP JUMPDEST SWAP1 POP SWAP1 JUMP JUMPDEST PUSH1 0xA PUSH1 0x20 MSTORE DUP1 PUSH1 0x0 MSTORE PUSH1 0x40 PUSH1 0x0 KECCAK256 PUSH1 0x0 SWAP2 POP SWAP1 POP SLOAD DUP2 JUMP JUMPDEST PUSH1 0x0 PUSH1 0x8 SLOAD SWAP1 POP SWAP1 JUMP JUMPDEST PUSH1 0x3 SLOAD DUP2 JUMP JUMPDEST PUSH1 0x0 DUP2 PUSH1 0x6 PUSH1 0x0 DUP3 DUP2 MSTORE PUSH1 0x20 ADD SWAP1 DUP2 MSTORE PUSH1 0x20 ADD PUSH1 0x0 KECCAK256 PUSH1 0x0 ADD PUSH1 0x0 SWAP1 SLOAD SWAP1 PUSH2 0x100 EXP SWAP1 DIV PUSH1 0xFF AND PUSH2 0x1C84 JUMPI PUSH1 0x0 DUP1 REVERT JUMPDEST PUSH1 0x6 PUSH1 0x0 DUP3 DUP2 MSTORE PUSH1 0x20 ADD SWAP1 DUP2 MSTORE PUSH1 0x20 ADD PUSH1 0x0 KECCAK256 PUSH1 0x8 ADD PUSH1 0x0 SWAP1 SLOAD SWAP1 PUSH2 0x100 EXP SWAP1 DIV PUSH1 0xFF AND ISZERO PUSH2 0x1CB2 JUMPI PUSH1 0x0 DUP1 REVERT JUMPDEST PUSH1 0x0 PUSH1 0x6 PUSH1 0x0 DUP6 DUP2 MSTORE PUSH1 0x20 ADD SWAP1 DUP2 MSTORE PUSH1 0x20 ADD PUSH1 0x0 KECCAK256 SWAP1 POP PUSH2 0x1DDC DUP2 PUSH1 0x40 MLOAD DUP1 PUSH2 0x160 ADD PUSH1 0x40 MSTORE SWAP1 DUP2 PUSH1 0x0 DUP3 ADD PUSH1 0x0 SWAP1 SLOAD SWAP1 PUSH2 0x100 EXP SWAP1 DIV PUSH1 0xFF AND ISZERO ISZERO ISZERO ISZERO DUP2 MSTORE PUSH1 0x20 ADD PUSH1 0x0 DUP3 ADD PUSH1 0x1 SWAP1 SLOAD SWAP1 PUSH2 0x100 EXP SWAP1 DIV PUSH20 0xFFFFFFFFFFFFFFFFFFFFFFFFFFFFFFFFFFFFFFFF AND PUSH20 0xFFFFFFFFFFFFFFFFFFFFFFFFFFFFFFFFFFFFFFFF AND PUSH20 0xFFFFFFFFFFFFFFFFFFFFFFFFFFFFFFFFFFFFFFFF AND DUP2 MSTORE PUSH1 0x20 ADD PUSH1 0x1 DUP3 ADD SLOAD DUP2 MSTORE PUSH1 0x20 ADD PUSH1 0x2 DUP3 ADD SLOAD DUP2 MSTORE PUSH1 0x20 ADD PUSH1 0x3 DUP3 ADD SLOAD DUP2 MSTORE PUSH1 0x20 ADD PUSH1 0x4 DUP3 ADD SLOAD DUP2 MSTORE PUSH1 0x20 ADD PUSH1 0x5 DUP3 ADD PUSH1 0x0 SWAP1 SLOAD SWAP1 PUSH2 0x100 EXP SWAP1 DIV PUSH1 0xFF AND ISZERO ISZERO ISZERO ISZERO DUP2 MSTORE PUSH1 0x20 ADD PUSH1 0x6 DUP3 ADD SLOAD DUP2 MSTORE PUSH1 0x20 ADD PUSH1 0x7 DUP3 ADD SLOAD DUP2 MSTORE PUSH1 0x20 ADD PUSH1 0x8 DUP3 ADD PUSH1 0x0 SWAP1 SLOAD SWAP1 PUSH2 0x100 EXP SWAP1 DIV PUSH1 0xFF AND ISZERO ISZERO ISZERO ISZERO DUP2 MSTORE PUSH1 0x20 ADD PUSH1 0x8 DUP3 ADD PUSH1 0x1 SWAP1 SLOAD SWAP1 PUSH2 0x100 EXP SWAP1 DIV PUSH1 0xFF AND ISZERO ISZERO ISZERO ISZERO DUP2 MSTORE POP POP PUSH2 0x2052 JUMP JUMPDEST SWAP3 POP POP POP SWAP2 SWAP1 POP JUMP JUMPDEST PUSH2 0x1DED PUSH2 0x1F4E JUMP JUMPDEST PUSH1 0x0 PUSH20 0xFFFFFFFFFFFFFFFFFFFFFFFFFFFFFFFFFFFFFFFF AND DUP2 PUSH20 0xFFFFFFFFFFFFFFFFFFFFFFFFFFFFFFFFFFFFFFFF AND EQ ISZERO PUSH2 0x1E5D JUMPI PUSH1 0x40 MLOAD PUSH32 0x8C379A000000000000000000000000000000000000000000000000000000000 DUP2 MSTORE PUSH1 0x4 ADD PUSH2 0x1E54 SWAP1 PUSH2 0x347F JUMP JUMPDEST PUSH1 0x40 MLOAD DUP1 SWAP2 SUB SWAP1 REVERT JUMPDEST PUSH2 0x1E66 DUP2 PUSH2 0x21BF JUMP JUMPDEST POP JUMP JUMPDEST PUSH2 0x1E71 PUSH2 0x2534 JUMP JUMPDEST PUSH2 0x1E83 PUSH2 0x1E7E DUP5 DUP5 PUSH2 0x1410 JUMP JUMPDEST PUSH2 0x1894 JUMP JUMPDEST SWAP1 POP SWAP3 SWAP2 POP POP JUMP JUMPDEST PUSH1 0x0 PUSH2 0x1ED6 DUP3 PUSH1 0x9 PUSH1 0x0 DUP6 PUSH20 0xFFFFFFFFFFFFFFFFFFFFFFFFFFFFFFFFFFFFFFFF AND PUSH20 0xFFFFFFFFFFFFFFFFFFFFFFFFFFFFFFFFFFFFFFFF AND DUP2 MSTORE PUSH1 0x20 ADD SWAP1 DUP2 MSTORE PUSH1 0x20 ADD PUSH1 0x0 KECCAK256 SLOAD PUSH2 0x1410 JUMP JUMPDEST SWAP1 POP SWAP2 SWAP1 POP JUMP JUMPDEST PUSH1 0x0 PUSH2 0x1EE7 PUSH2 0x5BA JUMP JUMPDEST DUP3 LT PUSH2 0x1F28 JUMPI PUSH1 0x40 MLOAD PUSH32 0x8C379A000000000000000000000000000000000000000000000000000000000 DUP2 MSTORE PUSH1 0x4 ADD PUSH2 0x1F1F SWAP1 PUSH2 0x3511 JUMP JUMPDEST PUSH1 0x40 MLOAD DUP1 SWAP2 SUB SWAP1 REVERT JUMPDEST PUSH1 0x5 DUP3 DUP2 SLOAD DUP2 LT PUSH2 0x1F3C JUMPI PUSH2 0x1F3B PUSH2 0x3531 JUMP JUMPDEST JUMPDEST SWAP1 PUSH1 0x0 MSTORE PUSH1 0x20 PUSH1 0x0 KECCAK256 ADD SLOAD SWAP1 POP SWAP2 SWAP1 POP JUMP JUMPDEST PUSH2 0x1F56 PUSH2 0x22AF JUMP JUMPDEST PUSH20 0xFFFFFFFFFFFFFFFFFFFFFFFFFFFFFFFFFFFFFFFF AND PUSH2 0x1F74 PUSH2 0x179B JUMP JUMPDEST PUSH20 0xFFFFFFFFFFFFFFFFFFFFFFFFFFFFFFFFFFFFFFFF AND EQ PUSH2 0x1FCA JUMPI PUSH1 0x40 MLOAD PUSH32 0x8C379A000000000000000000000000000000000000000000000000000000000 DUP2 MSTORE PUSH1 0x4 ADD PUSH2 0x1FC1 SWAP1 PUSH2 0x35AC JUMP JUMPDEST PUSH1 0x40 MLOAD DUP1 SWAP2 SUB SWAP1 REVERT JUMPDEST JUMP JUMPDEST PUSH2 0x204D DUP4 PUSH4 0xA9059CBB PUSH1 0xE0 SHL DUP5 DUP5 PUSH1 0x40 MLOAD PUSH1 0x24 ADD PUSH2 0x1FEB SWAP3 SWAP2 SWAP1 PUSH2 0x35CC JUMP JUMPDEST PUSH1 0x40 MLOAD PUSH1 0x20 DUP2 DUP4 SUB SUB DUP2 MSTORE SWAP1 PUSH1 0x40 MSTORE SWAP1 PUSH28 0xFFFFFFFFFFFFFFFFFFFFFFFFFFFFFFFFFFFFFFFFFFFFFFFFFFFFFFFF NOT AND PUSH1 0x20 DUP3 ADD DUP1 MLOAD PUSH28 0xFFFFFFFFFFFFFFFFFFFFFFFFFFFFFFFFFFFFFFFFFFFFFFFFFFFFFFFF DUP4 DUP2 DUP4 AND OR DUP4 MSTORE POP POP POP POP PUSH2 0x22B7 JUMP JUMPDEST POP POP POP JUMP JUMPDEST PUSH1 0x0 DUP1 PUSH2 0x205D PUSH2 0x6CB JUMP JUMPDEST SWAP1 POP PUSH1 0x0 DUP4 PUSH1 0xE0 ADD MLOAD SWAP1 POP DUP4 PUSH2 0x140 ADD MLOAD ISZERO PUSH2 0x20BE JUMPI PUSH1 0x0 PUSH2 0x20A1 PUSH1 0x64 PUSH2 0x2093 PUSH1 0x3 SLOAD DUP9 PUSH1 0xE0 ADD MLOAD PUSH2 0x2283 SWAP1 SWAP2 SWAP1 PUSH4 0xFFFFFFFF AND JUMP JUMPDEST PUSH2 0x2299 SWAP1 SWAP2 SWAP1 PUSH4 0xFFFFFFFF AND JUMP JUMPDEST SWAP1 POP PUSH2 0x20BA DUP2 DUP7 PUSH1 0xE0 ADD MLOAD PUSH2 0x21A9 SWAP1 SWAP2 SWAP1 PUSH4 0xFFFFFFFF AND JUMP JUMPDEST SWAP2 POP POP JUMPDEST DUP4 PUSH1 0x40 ADD MLOAD DUP3 LT DUP1 PUSH2 0x20D2 JUMPI POP DUP4 PUSH2 0x120 ADD MLOAD JUMPDEST ISZERO PUSH2 0x20E2 JUMPI PUSH1 0x0 SWAP3 POP POP POP PUSH2 0x218E JUMP JUMPDEST PUSH2 0x20FD DUP5 PUSH1 0x80 ADD MLOAD DUP6 PUSH1 0x60 ADD MLOAD PUSH2 0x2193 SWAP1 SWAP2 SWAP1 PUSH4 0xFFFFFFFF AND JUMP JUMPDEST DUP3 LT PUSH2 0x2124 JUMPI PUSH2 0x211B DUP5 PUSH2 0x100 ADD MLOAD DUP3 PUSH2 0x21A9 SWAP1 SWAP2 SWAP1 PUSH4 0xFFFFFFFF AND JUMP JUMPDEST SWAP3 POP POP POP PUSH2 0x218E JUMP JUMPDEST PUSH1 0x0 PUSH2 0x213D DUP6 PUSH1 0x60 ADD MLOAD DUP5 PUSH2 0x21A9 SWAP1 SWAP2 SWAP1 PUSH4 0xFFFFFFFF AND JUMP JUMPDEST SWAP1 POP PUSH1 0x0 PUSH2 0x216A DUP7 PUSH1 0x80 ADD MLOAD PUSH2 0x215C DUP5 DUP7 PUSH2 0x2283 SWAP1 SWAP2 SWAP1 PUSH4 0xFFFFFFFF AND JUMP JUMPDEST PUSH2 0x2299 SWAP1 SWAP2 SWAP1 PUSH4 0xFFFFFFFF AND JUMP JUMPDEST SWAP1 POP PUSH2 0x2184 DUP7 PUSH2 0x100 ADD MLOAD DUP3 PUSH2 0x21A9 SWAP1 SWAP2 SWAP1 PUSH4 0xFFFFFFFF AND JUMP JUMPDEST SWAP1 POP DUP1 SWAP5 POP POP POP POP POP JUMPDEST SWAP2 SWAP1 POP JUMP JUMPDEST PUSH1 0x0 DUP2 DUP4 PUSH2 0x21A1 SWAP2 SWAP1 PUSH2 0x33B7 JUMP JUMPDEST SWAP1 POP SWAP3 SWAP2 POP POP JUMP JUMPDEST PUSH1 0x0 DUP2 DUP4 PUSH2 0x21B7 SWAP2 SWAP1 PUSH2 0x306A JUMP JUMPDEST SWAP1 POP SWAP3 SWAP2 POP POP JUMP JUMPDEST PUSH1 0x0 DUP1 PUSH1 0x0 SWAP1 SLOAD SWAP1 PUSH2 0x100 EXP SWAP1 DIV PUSH20 0xFFFFFFFFFFFFFFFFFFFFFFFFFFFFFFFFFFFFFFFF AND SWAP1 POP DUP2 PUSH1 0x0 DUP1 PUSH2 0x100 EXP DUP2 SLOAD DUP2 PUSH20 0xFFFFFFFFFFFFFFFFFFFFFFFFFFFFFFFFFFFFFFFF MUL NOT AND SWAP1 DUP4 PUSH20 0xFFFFFFFFFFFFFFFFFFFFFFFFFFFFFFFFFFFFFFFF AND MUL OR SWAP1 SSTORE POP DUP2 PUSH20 0xFFFFFFFFFFFFFFFFFFFFFFFFFFFFFFFFFFFFFFFF AND DUP2 PUSH20 0xFFFFFFFFFFFFFFFFFFFFFFFFFFFFFFFFFFFFFFFF AND PUSH32 0x8BE0079C531659141344CD1FD0A4F28419497F9722A3DAAFE3B4186F6B6457E0 PUSH1 0x40 MLOAD PUSH1 0x40 MLOAD DUP1 SWAP2 SUB SWAP1 LOG3 POP POP JUMP JUMPDEST PUSH1 0x0 DUP2 DUP4 PUSH2 0x2291 SWAP2 SWAP1 PUSH2 0x35F5 JUMP JUMPDEST SWAP1 POP SWAP3 SWAP2 POP POP JUMP JUMPDEST PUSH1 0x0 DUP2 DUP4 PUSH2 0x22A7 SWAP2 SWAP1 PUSH2 0x367E JUMP JUMPDEST SWAP1 POP SWAP3 SWAP2 POP POP JUMP JUMPDEST PUSH1 0x0 CALLER SWAP1 POP SWAP1 JUMP JUMPDEST PUSH1 0x0 PUSH2 0x2319 DUP3 PUSH1 0x40 MLOAD DUP1 PUSH1 0x40 ADD PUSH1 0x40 MSTORE DUP1 PUSH1 0x20 DUP2 MSTORE PUSH1 0x20 ADD PUSH32 0x5361666545524332303A206C6F772D6C6576656C2063616C6C206661696C6564 DUP2 MSTORE POP DUP6 PUSH20 0xFFFFFFFFFFFFFFFFFFFFFFFFFFFFFFFFFFFFFFFF AND PUSH2 0x237E SWAP1 SWAP3 SWAP2 SWAP1 PUSH4 0xFFFFFFFF AND JUMP JUMPDEST SWAP1 POP PUSH1 0x0 DUP2 MLOAD GT ISZERO PUSH2 0x2379 JUMPI DUP1 DUP1 PUSH1 0x20 ADD SWAP1 MLOAD DUP2 ADD SWAP1 PUSH2 0x2339 SWAP2 SWAP1 PUSH2 0x36C4 JUMP JUMPDEST PUSH2 0x2378 JUMPI PUSH1 0x40 MLOAD PUSH32 0x8C379A000000000000000000000000000000000000000000000000000000000 DUP2 MSTORE PUSH1 0x4 ADD PUSH2 0x236F SWAP1 PUSH2 0x3763 JUMP JUMPDEST PUSH1 0x40 MLOAD DUP1 SWAP2 SUB SWAP1 REVERT JUMPDEST JUMPDEST POP POP POP JUMP JUMPDEST PUSH1 0x60 PUSH2 0x238D DUP5 DUP5 PUSH1 0x0 DUP6 PUSH2 0x2396 JUMP JUMPDEST SWAP1 POP SWAP4 SWAP3 POP POP POP JUMP JUMPDEST PUSH1 0x60 DUP3 SELFBALANCE LT ISZERO PUSH2 0x23DB JUMPI PUSH1 0x40 MLOAD PUSH32 0x8C379A000000000000000000000000000000000000000000000000000000000 DUP2 MSTORE PUSH1 0x4 ADD PUSH2 0x23D2 SWAP1 PUSH2 0x37F5 JUMP JUMPDEST PUSH1 0x40 MLOAD DUP1 SWAP2 SUB SWAP1 REVERT JUMPDEST PUSH2 0x23E4 DUP6 PUSH2 0x24AA JUMP JUMPDEST PUSH2 0x2423 JUMPI PUSH1 0x40 MLOAD PUSH32 0x8C379A000000000000000000000000000000000000000000000000000000000 DUP2 MSTORE PUSH1 0x4 ADD PUSH2 0x241A SWAP1 PUSH2 0x3861 JUMP JUMPDEST PUSH1 0x40 MLOAD DUP1 SWAP2 SUB SWAP1 REVERT JUMPDEST PUSH1 0x0 DUP1 DUP7 PUSH20 0xFFFFFFFFFFFFFFFFFFFFFFFFFFFFFFFFFFFFFFFF AND DUP6 DUP8 PUSH1 0x40 MLOAD PUSH2 0x244C SWAP2 SWAP1 PUSH2 0x38FB JUMP JUMPDEST PUSH1 0x0 PUSH1 0x40 MLOAD DUP1 DUP4 SUB DUP2 DUP6 DUP8 GAS CALL SWAP3 POP POP POP RETURNDATASIZE DUP1 PUSH1 0x0 DUP2 EQ PUSH2 0x2489 JUMPI PUSH1 0x40 MLOAD SWAP2 POP PUSH1 0x1F NOT PUSH1 0x3F RETURNDATASIZE ADD AND DUP3 ADD PUSH1 0x40 MSTORE RETURNDATASIZE DUP3 MSTORE RETURNDATASIZE PUSH1 0x0 PUSH1 0x20 DUP5 ADD RETURNDATACOPY PUSH2 0x248E JUMP JUMPDEST PUSH1 0x60 SWAP2 POP JUMPDEST POP SWAP2 POP SWAP2 POP PUSH2 0x249E DUP3 DUP3 DUP7 PUSH2 0x24CD JUMP JUMPDEST SWAP3 POP POP POP SWAP5 SWAP4 POP POP POP POP JUMP JUMPDEST PUSH1 0x0 DUP1 DUP3 PUSH20 0xFFFFFFFFFFFFFFFFFFFFFFFFFFFFFFFFFFFFFFFF AND EXTCODESIZE GT SWAP1 POP SWAP2 SWAP1 POP JUMP JUMPDEST PUSH1 0x60 DUP4 ISZERO PUSH2 0x24DD JUMPI DUP3 SWAP1 POP PUSH2 0x252D JUMP JUMPDEST PUSH1 0x0 DUP4 MLOAD GT ISZERO PUSH2 0x24F0 JUMPI DUP3 MLOAD DUP1 DUP5 PUSH1 0x20 ADD REVERT JUMPDEST DUP2 PUSH1 0x40 MLOAD PUSH32 0x8C379A000000000000000000000000000000000000000000000000000000000 DUP2 MSTORE PUSH1 0x4 ADD PUSH2 0x2524 SWAP2 SWAP1 PUSH2 0x3967 JUMP JUMPDEST PUSH1 0x40 MLOAD DUP1 SWAP2 SUB SWAP1 REVERT JUMPDEST SWAP4 SWAP3 POP POP POP JUMP JUMPDEST PUSH1 0x40 MLOAD DUP1 PUSH2 0x160 ADD PUSH1 0x40 MSTORE DUP1 PUSH1 0x0 ISZERO ISZERO DUP2 MSTORE PUSH1 0x20 ADD PUSH1 0x0 PUSH20 0xFFFFFFFFFFFFFFFFFFFFFFFFFFFFFFFFFFFFFFFF AND DUP2 MSTORE PUSH1 0x20 ADD PUSH1 0x0 DUP2 MSTORE PUSH1 0x20 ADD PUSH1 0x0 DUP2 MSTORE PUSH1 0x20 ADD PUSH1 0x0 DUP2 MSTORE PUSH1 0x20 ADD PUSH1 0x0 DUP2 MSTORE PUSH1 0x20 ADD PUSH1 0x0 ISZERO ISZERO DUP2 MSTORE PUSH1 0x20 ADD PUSH1 0x0 DUP2 MSTORE PUSH1 0x20 ADD PUSH1 0x0 DUP2 MSTORE PUSH1 0x20 ADD PUSH1 0x0 ISZERO ISZERO DUP2 MSTORE PUSH1 0x20 ADD PUSH1 0x0 ISZERO ISZERO DUP2 MSTORE POP SWAP1 JUMP JUMPDEST PUSH1 0x0 DUP2 SWAP1 POP SWAP2 SWAP1 POP JUMP JUMPDEST PUSH2 0x25BF DUP2 PUSH2 0x25AC JUMP JUMPDEST DUP3 MSTORE POP POP JUMP JUMPDEST PUSH1 0x0 PUSH1 0x20 DUP3 ADD SWAP1 POP PUSH2 0x25DA PUSH1 0x0 DUP4 ADD DUP5 PUSH2 0x25B6 JUMP JUMPDEST SWAP3 SWAP2 POP POP JUMP JUMPDEST PUSH1 0x0 DUP1 REVERT JUMPDEST PUSH1 0x0 PUSH20 0xFFFFFFFFFFFFFFFFFFFFFFFFFFFFFFFFFFFFFFFF DUP3 AND SWAP1 POP SWAP2 SWAP1 POP JUMP JUMPDEST PUSH1 0x0 PUSH2 0x2610 DUP3 PUSH2 0x25E5 JUMP JUMPDEST SWAP1 POP SWAP2 SWAP1 POP JUMP JUMPDEST PUSH2 0x2620 DUP2 PUSH2 0x2605 JUMP JUMPDEST DUP2 EQ PUSH2 0x262B JUMPI PUSH1 0x0 DUP1 REVERT JUMPDEST POP JUMP JUMPDEST PUSH1 0x0 DUP2 CALLDATALOAD SWAP1 POP PUSH2 0x263D DUP2 PUSH2 0x2617 JUMP JUMPDEST SWAP3 SWAP2 POP POP JUMP JUMPDEST PUSH1 0x0 PUSH1 0x20 DUP3 DUP5 SUB SLT ISZERO PUSH2 0x2659 JUMPI PUSH2 0x2658 PUSH2 0x25E0 JUMP JUMPDEST JUMPDEST PUSH1 0x0 PUSH2 0x2667 DUP5 DUP3 DUP6 ADD PUSH2 0x262E JUMP JUMPDEST SWAP2 POP POP SWAP3 SWAP2 POP POP JUMP JUMPDEST PUSH2 0x2679 DUP2 PUSH2 0x2605 JUMP JUMPDEST DUP3 MSTORE POP POP JUMP JUMPDEST PUSH1 0x0 PUSH1 0x20 DUP3 ADD SWAP1 POP PUSH2 0x2694 PUSH1 0x0 DUP4 ADD DUP5 PUSH2 0x2670 JUMP JUMPDEST SWAP3 SWAP2 POP POP JUMP JUMPDEST PUSH2 0x26A3 DUP2 PUSH2 0x25AC JUMP JUMPDEST DUP2 EQ PUSH2 0x26AE JUMPI PUSH1 0x0 DUP1 REVERT JUMPDEST POP JUMP JUMPDEST PUSH1 0x0 DUP2 CALLDATALOAD SWAP1 POP PUSH2 0x26C0 DUP2 PUSH2 0x269A JUMP JUMPDEST SWAP3 SWAP2 POP POP JUMP JUMPDEST PUSH1 0x0 PUSH1 0x20 DUP3 DUP5 SUB SLT ISZERO PUSH2 0x26DC JUMPI PUSH2 0x26DB PUSH2 0x25E0 JUMP JUMPDEST JUMPDEST PUSH1 0x0 PUSH2 0x26EA DUP5 DUP3 DUP6 ADD PUSH2 0x26B1 JUMP JUMPDEST SWAP2 POP POP SWAP3 SWAP2 POP POP JUMP JUMPDEST PUSH1 0x0 DUP2 SWAP1 POP SWAP2 SWAP1 POP JUMP JUMPDEST PUSH2 0x2706 DUP2 PUSH2 0x26F3 JUMP JUMPDEST DUP2 EQ PUSH2 0x2711 JUMPI PUSH1 0x0 DUP1 REVERT JUMPDEST POP JUMP JUMPDEST PUSH1 0x0 DUP2 CALLDATALOAD SWAP1 POP PUSH2 0x2723 DUP2 PUSH2 0x26FD JUMP JUMPDEST SWAP3 SWAP2 POP POP JUMP JUMPDEST PUSH1 0x0 DUP1 PUSH1 0x40 DUP4 DUP6 SUB SLT ISZERO PUSH2 0x2740 JUMPI PUSH2 0x273F PUSH2 0x25E0 JUMP JUMPDEST JUMPDEST PUSH1 0x0 PUSH2 0x274E DUP6 DUP3 DUP7 ADD PUSH2 0x2714 JUMP JUMPDEST SWAP3 POP POP PUSH1 0x20 PUSH2 0x275F DUP6 DUP3 DUP7 ADD PUSH2 0x26B1 JUMP JUMPDEST SWAP2 POP POP SWAP3 POP SWAP3 SWAP1 POP JUMP JUMPDEST PUSH1 0x0 DUP2 ISZERO ISZERO SWAP1 POP SWAP2 SWAP1 POP JUMP JUMPDEST PUSH2 0x277E DUP2 PUSH2 0x2769 JUMP JUMPDEST DUP2 EQ PUSH2 0x2789 JUMPI PUSH1 0x0 DUP1 REVERT JUMPDEST POP JUMP JUMPDEST PUSH1 0x0 DUP2 CALLDATALOAD SWAP1 POP PUSH2 0x279B DUP2 PUSH2 0x2775 JUMP JUMPDEST SWAP3 SWAP2 POP POP JUMP JUMPDEST PUSH1 0x0 DUP1 PUSH1 0x0 DUP1 PUSH1 0x0 DUP1 PUSH1 0x0 DUP1 PUSH2 0x100 DUP10 DUP12 SUB SLT ISZERO PUSH2 0x27C2 JUMPI PUSH2 0x27C1 PUSH2 0x25E0 JUMP JUMPDEST JUMPDEST PUSH1 0x0 PUSH2 0x27D0 DUP12 DUP3 DUP13 ADD PUSH2 0x262E JUMP JUMPDEST SWAP9 POP POP PUSH1 0x20 PUSH2 0x27E1 DUP12 DUP3 DUP13 ADD PUSH2 0x26B1 JUMP JUMPDEST SWAP8 POP POP PUSH1 0x40 PUSH2 0x27F2 DUP12 DUP3 DUP13 ADD PUSH2 0x26B1 JUMP JUMPDEST SWAP7 POP POP PUSH1 0x60 PUSH2 0x2803 DUP12 DUP3 DUP13 ADD PUSH2 0x26B1 JUMP JUMPDEST SWAP6 POP POP PUSH1 0x80 PUSH2 0x2814 DUP12 DUP3 DUP13 ADD PUSH2 0x26B1 JUMP JUMPDEST SWAP5 POP POP PUSH1 0xA0 PUSH2 0x2825 DUP12 DUP3 DUP13 ADD PUSH2 0x278C JUMP JUMPDEST SWAP4 POP POP PUSH1 0xC0 PUSH2 0x2836 DUP12 DUP3 DUP13 ADD PUSH2 0x26B1 JUMP JUMPDEST SWAP3 POP POP PUSH1 0xE0 PUSH2 0x2847 DUP12 DUP3 DUP13 ADD PUSH2 0x278C JUMP JUMPDEST SWAP2 POP POP SWAP3 SWAP6 SWAP9 POP SWAP3 SWAP6 SWAP9 SWAP1 SWAP4 SWAP7 POP JUMP JUMPDEST PUSH2 0x2860 DUP2 PUSH2 0x2769 JUMP JUMPDEST DUP3 MSTORE POP POP JUMP JUMPDEST PUSH2 0x286F DUP2 PUSH2 0x2605 JUMP JUMPDEST DUP3 MSTORE POP POP JUMP JUMPDEST PUSH2 0x287E DUP2 PUSH2 0x25AC JUMP JUMPDEST DUP3 MSTORE POP POP JUMP JUMPDEST PUSH2 0x160 DUP3 ADD PUSH1 0x0 DUP3 ADD MLOAD PUSH2 0x289B PUSH1 0x0 DUP6 ADD DUP3 PUSH2 0x2857 JUMP JUMPDEST POP PUSH1 0x20 DUP3 ADD MLOAD PUSH2 0x28AE PUSH1 0x20 DUP6 ADD DUP3 PUSH2 0x2866 JUMP JUMPDEST POP PUSH1 0x40 DUP3 ADD MLOAD PUSH2 0x28C1 PUSH1 0x40 DUP6 ADD DUP3 PUSH2 0x2875 JUMP JUMPDEST POP PUSH1 0x60 DUP3 ADD MLOAD PUSH2 0x28D4 PUSH1 0x60 DUP6 ADD DUP3 PUSH2 0x2875 JUMP JUMPDEST POP PUSH1 0x80 DUP3 ADD MLOAD PUSH2 0x28E7 PUSH1 0x80 DUP6 ADD DUP3 PUSH2 0x2875 JUMP JUMPDEST POP PUSH1 0xA0 DUP3 ADD MLOAD PUSH2 0x28FA PUSH1 0xA0 DUP6 ADD DUP3 PUSH2 0x2875 JUMP JUMPDEST POP PUSH1 0xC0 DUP3 ADD MLOAD PUSH2 0x290D PUSH1 0xC0 DUP6 ADD DUP3 PUSH2 0x2857 JUMP JUMPDEST POP PUSH1 0xE0 DUP3 ADD MLOAD PUSH2 0x2920 PUSH1 0xE0 DUP6 ADD DUP3 PUSH2 0x2875 JUMP JUMPDEST POP PUSH2 0x100 DUP3 ADD MLOAD PUSH2 0x2935 PUSH2 0x100 DUP6 ADD DUP3 PUSH2 0x2875 JUMP JUMPDEST POP PUSH2 0x120 DUP3 ADD MLOAD PUSH2 0x294A PUSH2 0x120 DUP6 ADD DUP3 PUSH2 0x2857 JUMP JUMPDEST POP PUSH2 0x140 DUP3 ADD MLOAD PUSH2 0x295F PUSH2 0x140 DUP6 ADD DUP3 PUSH2 0x2857 JUMP JUMPDEST POP POP POP POP JUMP JUMPDEST PUSH1 0x0 PUSH2 0x160 DUP3 ADD SWAP1 POP PUSH2 0x297B PUSH1 0x0 DUP4 ADD DUP5 PUSH2 0x2884 JUMP JUMPDEST SWAP3 SWAP2 POP POP JUMP JUMPDEST PUSH1 0x0 DUP1 PUSH1 0x40 DUP4 DUP6 SUB SLT ISZERO PUSH2 0x2998 JUMPI PUSH2 0x2997 PUSH2 0x25E0 JUMP JUMPDEST JUMPDEST PUSH1 0x0 PUSH2 0x29A6 DUP6 DUP3 DUP7 ADD PUSH2 0x262E JUMP JUMPDEST SWAP3 POP POP PUSH1 0x20 PUSH2 0x29B7 DUP6 DUP3 DUP7 ADD PUSH2 0x26B1 JUMP JUMPDEST SWAP2 POP POP SWAP3 POP SWAP3 SWAP1 POP JUMP JUMPDEST PUSH2 0x29CA DUP2 PUSH2 0x26F3 JUMP JUMPDEST DUP3 MSTORE POP POP JUMP JUMPDEST PUSH1 0x0 PUSH1 0x20 DUP3 ADD SWAP1 POP PUSH2 0x29E5 PUSH1 0x0 DUP4 ADD DUP5 PUSH2 0x29C1 JUMP JUMPDEST SWAP3 SWAP2 POP POP JUMP JUMPDEST PUSH1 0x0 PUSH1 0x20 DUP3 DUP5 SUB SLT ISZERO PUSH2 0x2A01 JUMPI PUSH2 0x2A00 PUSH2 0x25E0 JUMP JUMPDEST JUMPDEST PUSH1 0x0 PUSH2 0x2A0F DUP5 DUP3 DUP6 ADD PUSH2 0x2714 JUMP JUMPDEST SWAP2 POP POP SWAP3 SWAP2 POP POP JUMP JUMPDEST PUSH1 0x0 DUP3 DUP3 MSTORE PUSH1 0x20 DUP3 ADD SWAP1 POP SWAP3 SWAP2 POP POP JUMP JUMPDEST PUSH32 0x43726F776473616C65416464726573733A2043726F776473616C652041646472 PUSH1 0x0 DUP3 ADD MSTORE PUSH32 0x6573732063616E6E6F74206265206E756C6C0000000000000000000000000000 PUSH1 0x20 DUP3 ADD MSTORE POP JUMP JUMPDEST PUSH1 0x0 PUSH2 0x2A85 PUSH1 0x32 DUP4 PUSH2 0x2A18 JUMP JUMPDEST SWAP2 POP PUSH2 0x2A90 DUP3 PUSH2 0x2A29 JUMP JUMPDEST PUSH1 0x40 DUP3 ADD SWAP1 POP SWAP2 SWAP1 POP JUMP JUMPDEST PUSH1 0x0 PUSH1 0x20 DUP3 ADD SWAP1 POP DUP2 DUP2 SUB PUSH1 0x0 DUP4 ADD MSTORE PUSH2 0x2AB4 DUP2 PUSH2 0x2A78 JUMP JUMPDEST SWAP1 POP SWAP2 SWAP1 POP JUMP JUMPDEST PUSH32 0x5265656E7472616E637947756172643A207265656E7472616E742063616C6C00 PUSH1 0x0 DUP3 ADD MSTORE POP JUMP JUMPDEST PUSH1 0x0 PUSH2 0x2AF1 PUSH1 0x1F DUP4 PUSH2 0x2A18 JUMP JUMPDEST SWAP2 POP PUSH2 0x2AFC DUP3 PUSH2 0x2ABB JUMP JUMPDEST PUSH1 0x20 DUP3 ADD SWAP1 POP SWAP2 SWAP1 POP JUMP JUMPDEST PUSH1 0x0 PUSH1 0x20 DUP3 ADD SWAP1 POP DUP2 DUP2 SUB PUSH1 0x0 DUP4 ADD MSTORE PUSH2 0x2B20 DUP2 PUSH2 0x2AE4 JUMP JUMPDEST SWAP1 POP SWAP2 SWAP1 POP JUMP JUMPDEST PUSH1 0x0 DUP2 MLOAD SWAP1 POP PUSH2 0x2B36 DUP2 PUSH2 0x269A JUMP JUMPDEST SWAP3 SWAP2 POP POP JUMP JUMPDEST PUSH1 0x0 PUSH1 0x20 DUP3 DUP5 SUB SLT ISZERO PUSH2 0x2B52 JUMPI PUSH2 0x2B51 PUSH2 0x25E0 JUMP JUMPDEST JUMPDEST PUSH1 0x0 PUSH2 0x2B60 DUP5 DUP3 DUP6 ADD PUSH2 0x2B27 JUMP JUMPDEST SWAP2 POP POP SWAP3 SWAP2 POP POP JUMP JUMPDEST PUSH32 0x546F6B656E56657374696E673A206E6F7420656E6F7567682077697468647261 PUSH1 0x0 DUP3 ADD MSTORE PUSH32 0x7761626C652066756E6473000000000000000000000000000000000000000000 PUSH1 0x20 DUP3 ADD MSTORE POP JUMP JUMPDEST PUSH1 0x0 PUSH2 0x2BC5 PUSH1 0x2B DUP4 PUSH2 0x2A18 JUMP JUMPDEST SWAP2 POP PUSH2 0x2BD0 DUP3 PUSH2 0x2B69 JUMP JUMPDEST PUSH1 0x40 DUP3 ADD SWAP1 POP SWAP2 SWAP1 POP JUMP JUMPDEST PUSH1 0x0 PUSH1 0x20 DUP3 ADD SWAP1 POP DUP2 DUP2 SUB PUSH1 0x0 DUP4 ADD MSTORE PUSH2 0x2BF4 DUP2 PUSH2 0x2BB8 JUMP JUMPDEST SWAP1 POP SWAP2 SWAP1 POP JUMP JUMPDEST PUSH32 0x546F6B656E56657374696E673A206F6E6C792062656E65666963696172792061 PUSH1 0x0 DUP3 ADD MSTORE PUSH32 0x6E64206F776E65722063616E2072656C656173652076657374656420746F6B65 PUSH1 0x20 DUP3 ADD MSTORE PUSH32 0x6E73000000000000000000000000000000000000000000000000000000000000 PUSH1 0x40 DUP3 ADD MSTORE POP JUMP JUMPDEST PUSH1 0x0 PUSH2 0x2C7D PUSH1 0x42 DUP4 PUSH2 0x2A18 JUMP JUMPDEST SWAP2 POP PUSH2 0x2C88 DUP3 PUSH2 0x2BFB JUMP JUMPDEST PUSH1 0x60 DUP3 ADD SWAP1 POP SWAP2 SWAP1 POP JUMP JUMPDEST PUSH1 0x0 PUSH1 0x20 DUP3 ADD SWAP1 POP DUP2 DUP2 SUB PUSH1 0x0 DUP4 ADD MSTORE PUSH2 0x2CAC DUP2 PUSH2 0x2C70 JUMP JUMPDEST SWAP1 POP SWAP2 SWAP1 POP JUMP JUMPDEST PUSH32 0x546F6B656E56657374696E673A2063616E6E6F742072656C6561736520746F6B PUSH1 0x0 DUP3 ADD MSTORE PUSH32 0x656E732C206E6F7420656E6F7567682076657374656420746F6B656E73000000 PUSH1 0x20 DUP3 ADD MSTORE POP JUMP JUMPDEST PUSH1 0x0 PUSH2 0x2D0F PUSH1 0x3D DUP4 PUSH2 0x2A18 JUMP JUMPDEST SWAP2 POP PUSH2 0x2D1A DUP3 PUSH2 0x2CB3 JUMP JUMPDEST PUSH1 0x40 DUP3 ADD SWAP1 POP SWAP2 SWAP1 POP JUMP JUMPDEST PUSH1 0x0 PUSH1 0x20 DUP3 ADD SWAP1 POP DUP2 DUP2 SUB PUSH1 0x0 DUP4 ADD MSTORE PUSH2 0x2D3E DUP2 PUSH2 0x2D02 JUMP JUMPDEST SWAP1 POP SWAP2 SWAP1 POP JUMP JUMPDEST PUSH32 0x4E6F204163636573730000000000000000000000000000000000000000000000 PUSH1 0x0 DUP3 ADD MSTORE POP JUMP JUMPDEST PUSH1 0x0 PUSH2 0x2D7B PUSH1 0x9 DUP4 PUSH2 0x2A18 JUMP JUMPDEST SWAP2 POP PUSH2 0x2D86 DUP3 PUSH2 0x2D45 JUMP JUMPDEST PUSH1 0x20 DUP3 ADD SWAP1 POP SWAP2 SWAP1 POP JUMP JUMPDEST PUSH1 0x0 PUSH1 0x20 DUP3 ADD SWAP1 POP DUP2 DUP2 SUB PUSH1 0x0 DUP4 ADD MSTORE PUSH2 0x2DAA DUP2 PUSH2 0x2D6E JUMP JUMPDEST SWAP1 POP SWAP2 SWAP1 POP JUMP JUMPDEST PUSH32 0x546F6B656E56657374696E673A2063616E6E6F74206372656174652076657374 PUSH1 0x0 DUP3 ADD MSTORE PUSH32 0x696E67207363686564756C652062656361757365206E6F742073756666696369 PUSH1 0x20 DUP3 ADD MSTORE PUSH32 0x656E7420746F6B656E7300000000000000000000000000000000000000000000 PUSH1 0x40 DUP3 ADD MSTORE POP JUMP JUMPDEST PUSH1 0x0 PUSH2 0x2E33 PUSH1 0x4A DUP4 PUSH2 0x2A18 JUMP JUMPDEST SWAP2 POP PUSH2 0x2E3E DUP3 PUSH2 0x2DB1 JUMP JUMPDEST PUSH1 0x60 DUP3 ADD SWAP1 POP SWAP2 SWAP1 POP JUMP JUMPDEST PUSH1 0x0 PUSH1 0x20 DUP3 ADD SWAP1 POP DUP2 DUP2 SUB PUSH1 0x0 DUP4 ADD MSTORE PUSH2 0x2E62 DUP2 PUSH2 0x2E26 JUMP JUMPDEST SWAP1 POP SWAP2 SWAP1 POP JUMP JUMPDEST PUSH32 0x546F6B656E56657374696E673A206475726174696F6E206D757374206265203E PUSH1 0x0 DUP3 ADD MSTORE PUSH32 0x2030000000000000000000000000000000000000000000000000000000000000 PUSH1 0x20 DUP3 ADD MSTORE POP JUMP JUMPDEST PUSH1 0x0 PUSH2 0x2EC5 PUSH1 0x22 DUP4 PUSH2 0x2A18 JUMP JUMPDEST SWAP2 POP PUSH2 0x2ED0 DUP3 PUSH2 0x2E69 JUMP JUMPDEST PUSH1 0x40 DUP3 ADD SWAP1 POP SWAP2 SWAP1 POP JUMP JUMPDEST PUSH1 0x0 PUSH1 0x20 DUP3 ADD SWAP1 POP DUP2 DUP2 SUB PUSH1 0x0 DUP4 ADD MSTORE PUSH2 0x2EF4 DUP2 PUSH2 0x2EB8 JUMP JUMPDEST SWAP1 POP SWAP2 SWAP1 POP JUMP JUMPDEST PUSH32 0x546F6B656E56657374696E673A20616D6F756E74206D757374206265203E2030 PUSH1 0x0 DUP3 ADD MSTORE POP JUMP JUMPDEST PUSH1 0x0 PUSH2 0x2F31 PUSH1 0x20 DUP4 PUSH2 0x2A18 JUMP JUMPDEST SWAP2 POP PUSH2 0x2F3C DUP3 PUSH2 0x2EFB JUMP JUMPDEST PUSH1 0x20 DUP3 ADD SWAP1 POP SWAP2 SWAP1 POP JUMP JUMPDEST PUSH1 0x0 PUSH1 0x20 DUP3 ADD SWAP1 POP DUP2 DUP2 SUB PUSH1 0x0 DUP4 ADD MSTORE PUSH2 0x2F60 DUP2 PUSH2 0x2F24 JUMP JUMPDEST SWAP1 POP SWAP2 SWAP1 POP JUMP JUMPDEST PUSH32 0x546F6B656E56657374696E673A20736C696365506572696F645365636F6E6473 PUSH1 0x0 DUP3 ADD MSTORE PUSH32 0x206D757374206265203E3D203100000000000000000000000000000000000000 PUSH1 0x20 DUP3 ADD MSTORE POP JUMP JUMPDEST PUSH1 0x0 PUSH2 0x2FC3 PUSH1 0x2D DUP4 PUSH2 0x2A18 JUMP JUMPDEST SWAP2 POP PUSH2 0x2FCE DUP3 PUSH2 0x2F67 JUMP JUMPDEST PUSH1 0x40 DUP3 ADD SWAP1 POP SWAP2 SWAP1 POP JUMP JUMPDEST PUSH1 0x0 PUSH1 0x20 DUP3 ADD SWAP1 POP DUP2 DUP2 SUB PUSH1 0x0 DUP4 ADD MSTORE PUSH2 0x2FF2 DUP2 PUSH2 0x2FB6 JUMP JUMPDEST SWAP1 POP SWAP2 SWAP1 POP JUMP JUMPDEST PUSH1 0x0 DUP2 MLOAD SWAP1 POP PUSH2 0x3008 DUP2 PUSH2 0x26FD JUMP JUMPDEST SWAP3 SWAP2 POP POP JUMP JUMPDEST PUSH1 0x0 PUSH1 0x20 DUP3 DUP5 SUB SLT ISZERO PUSH2 0x3024 JUMPI PUSH2 0x3023 PUSH2 0x25E0 JUMP JUMPDEST JUMPDEST PUSH1 0x0 PUSH2 0x3032 DUP5 DUP3 DUP6 ADD PUSH2 0x2FF9 JUMP JUMPDEST SWAP2 POP POP SWAP3 SWAP2 POP POP JUMP JUMPDEST PUSH32 0x4E487B7100000000000000000000000000000000000000000000000000000000 PUSH1 0x0 MSTORE PUSH1 0x11 PUSH1 0x4 MSTORE PUSH1 0x24 PUSH1 0x0 REVERT JUMPDEST PUSH1 0x0 PUSH2 0x3075 DUP3 PUSH2 0x25AC JUMP JUMPDEST SWAP2 POP PUSH2 0x3080 DUP4 PUSH2 0x25AC JUMP JUMPDEST SWAP3 POP DUP3 DUP3 LT ISZERO PUSH2 0x3093 JUMPI PUSH2 0x3092 PUSH2 0x303B JUMP JUMPDEST JUMPDEST DUP3 DUP3 SUB SWAP1 POP SWAP3 SWAP2 POP POP JUMP JUMPDEST PUSH1 0x0 DUP2 PUSH1 0x60 SHL SWAP1 POP SWAP2 SWAP1 POP JUMP JUMPDEST PUSH1 0x0 PUSH2 0x30B6 DUP3 PUSH2 0x309E JUMP JUMPDEST SWAP1 POP SWAP2 SWAP1 POP JUMP JUMPDEST PUSH1 0x0 PUSH2 0x30C8 DUP3 PUSH2 0x30AB JUMP JUMPDEST SWAP1 POP SWAP2 SWAP1 POP JUMP JUMPDEST PUSH2 0x30E0 PUSH2 0x30DB DUP3 PUSH2 0x2605 JUMP JUMPDEST PUSH2 0x30BD JUMP JUMPDEST DUP3 MSTORE POP POP JUMP JUMPDEST PUSH1 0x0 DUP2 SWAP1 POP SWAP2 SWAP1 POP JUMP JUMPDEST PUSH2 0x3101 PUSH2 0x30FC DUP3 PUSH2 0x25AC JUMP JUMPDEST PUSH2 0x30E6 JUMP JUMPDEST DUP3 MSTORE POP POP JUMP JUMPDEST PUSH1 0x0 PUSH2 0x3113 DUP3 DUP6 PUSH2 0x30CF JUMP JUMPDEST PUSH1 0x14 DUP3 ADD SWAP2 POP PUSH2 0x3123 DUP3 DUP5 PUSH2 0x30F0 JUMP JUMPDEST PUSH1 0x20 DUP3 ADD SWAP2 POP DUP2 SWAP1 POP SWAP4 SWAP3 POP POP POP JUMP JUMPDEST PUSH32 0x52656C65617365546F6B656E41745447453A206F6E6C7920696E766573746F72 PUSH1 0x0 DUP3 ADD MSTORE PUSH32 0x732063616E20636C61696D20746F6B656E206174205447450000000000000000 PUSH1 0x20 DUP3 ADD MSTORE POP JUMP JUMPDEST PUSH1 0x0 PUSH2 0x318F PUSH1 0x38 DUP4 PUSH2 0x2A18 JUMP JUMPDEST SWAP2 POP PUSH2 0x319A DUP3 PUSH2 0x3133 JUMP JUMPDEST PUSH1 0x40 DUP3 ADD SWAP1 POP SWAP2 SWAP1 POP JUMP JUMPDEST PUSH1 0x0 PUSH1 0x20 DUP3 ADD SWAP1 POP DUP2 DUP2 SUB PUSH1 0x0 DUP4 ADD MSTORE PUSH2 0x31BE DUP2 PUSH2 0x3182 JUMP JUMPDEST SWAP1 POP SWAP2 SWAP1 POP JUMP JUMPDEST PUSH32 0x5447453A2074696D65206E6F7420726561636865642100000000000000000000 PUSH1 0x0 DUP3 ADD MSTORE POP JUMP JUMPDEST PUSH1 0x0 PUSH2 0x31FB PUSH1 0x16 DUP4 PUSH2 0x2A18 JUMP JUMPDEST SWAP2 POP PUSH2 0x3206 DUP3 PUSH2 0x31C5 JUMP JUMPDEST PUSH1 0x20 DUP3 ADD SWAP1 POP SWAP2 SWAP1 POP JUMP JUMPDEST PUSH1 0x0 PUSH1 0x20 DUP3 ADD SWAP1 POP DUP2 DUP2 SUB PUSH1 0x0 DUP4 ADD MSTORE PUSH2 0x322A DUP2 PUSH2 0x31EE JUMP JUMPDEST SWAP1 POP SWAP2 SWAP1 POP JUMP JUMPDEST PUSH32 0x5447453A20546F6B656E20416C726561647920636C61696D6564000000000000 PUSH1 0x0 DUP3 ADD MSTORE POP JUMP JUMPDEST PUSH1 0x0 PUSH2 0x3267 PUSH1 0x1A DUP4 PUSH2 0x2A18 JUMP JUMPDEST SWAP2 POP PUSH2 0x3272 DUP3 PUSH2 0x3231 JUMP JUMPDEST PUSH1 0x20 DUP3 ADD SWAP1 POP SWAP2 SWAP1 POP JUMP JUMPDEST PUSH1 0x0 PUSH1 0x20 DUP3 ADD SWAP1 POP DUP2 DUP2 SUB PUSH1 0x0 DUP4 ADD MSTORE PUSH2 0x3296 DUP2 PUSH2 0x325A JUMP JUMPDEST SWAP1 POP SWAP2 SWAP1 POP JUMP JUMPDEST PUSH1 0x0 DUP2 SWAP1 POP SWAP2 SWAP1 POP JUMP JUMPDEST PUSH1 0x0 PUSH2 0x32C2 PUSH2 0x32BD PUSH2 0x32B8 DUP5 PUSH2 0x25E5 JUMP JUMPDEST PUSH2 0x329D JUMP JUMPDEST PUSH2 0x25E5 JUMP JUMPDEST SWAP1 POP SWAP2 SWAP1 POP JUMP JUMPDEST PUSH1 0x0 PUSH2 0x32D4 DUP3 PUSH2 0x32A7 JUMP JUMPDEST SWAP1 POP SWAP2 SWAP1 POP JUMP JUMPDEST PUSH1 0x0 PUSH2 0x32E6 DUP3 PUSH2 0x32C9 JUMP JUMPDEST SWAP1 POP SWAP2 SWAP1 POP JUMP JUMPDEST PUSH2 0x32F6 DUP2 PUSH2 0x32DB JUMP JUMPDEST DUP3 MSTORE POP POP JUMP JUMPDEST PUSH1 0x0 PUSH1 0x40 DUP3 ADD SWAP1 POP PUSH2 0x3311 PUSH1 0x0 DUP4 ADD DUP6 PUSH2 0x32ED JUMP JUMPDEST PUSH2 0x331E PUSH1 0x20 DUP4 ADD DUP5 PUSH2 0x25B6 JUMP JUMPDEST SWAP4 SWAP3 POP POP POP JUMP JUMPDEST PUSH32 0x546F6B656E56657374696E673A2076657374696E67206973206E6F7420726576 PUSH1 0x0 DUP3 ADD MSTORE PUSH32 0x6F6361626C650000000000000000000000000000000000000000000000000000 PUSH1 0x20 DUP3 ADD MSTORE POP JUMP JUMPDEST PUSH1 0x0 PUSH2 0x3381 PUSH1 0x26 DUP4 PUSH2 0x2A18 JUMP JUMPDEST SWAP2 POP PUSH2 0x338C DUP3 PUSH2 0x3325 JUMP JUMPDEST PUSH1 0x40 DUP3 ADD SWAP1 POP SWAP2 SWAP1 POP JUMP JUMPDEST PUSH1 0x0 PUSH1 0x20 DUP3 ADD SWAP1 POP DUP2 DUP2 SUB PUSH1 0x0 DUP4 ADD MSTORE PUSH2 0x33B0 DUP2 PUSH2 0x3374 JUMP JUMPDEST SWAP1 POP SWAP2 SWAP1 POP JUMP JUMPDEST PUSH1 0x0 PUSH2 0x33C2 DUP3 PUSH2 0x25AC JUMP JUMPDEST SWAP2 POP PUSH2 0x33CD DUP4 PUSH2 0x25AC JUMP JUMPDEST SWAP3 POP DUP3 PUSH32 0xFFFFFFFFFFFFFFFFFFFFFFFFFFFFFFFFFFFFFFFFFFFFFFFFFFFFFFFFFFFFFFFF SUB DUP3 GT ISZERO PUSH2 0x3402 JUMPI PUSH2 0x3401 PUSH2 0x303B JUMP JUMPDEST JUMPDEST DUP3 DUP3 ADD SWAP1 POP SWAP3 SWAP2 POP POP JUMP JUMPDEST PUSH32 0x4F776E61626C653A206E6577206F776E657220697320746865207A65726F2061 PUSH1 0x0 DUP3 ADD MSTORE PUSH32 0x6464726573730000000000000000000000000000000000000000000000000000 PUSH1 0x20 DUP3 ADD MSTORE POP JUMP JUMPDEST PUSH1 0x0 PUSH2 0x3469 PUSH1 0x26 DUP4 PUSH2 0x2A18 JUMP JUMPDEST SWAP2 POP PUSH2 0x3474 DUP3 PUSH2 0x340D JUMP JUMPDEST PUSH1 0x40 DUP3 ADD SWAP1 POP SWAP2 SWAP1 POP JUMP JUMPDEST PUSH1 0x0 PUSH1 0x20 DUP3 ADD SWAP1 POP DUP2 DUP2 SUB PUSH1 0x0 DUP4 ADD MSTORE PUSH2 0x3498 DUP2 PUSH2 0x345C JUMP JUMPDEST SWAP1 POP SWAP2 SWAP1 POP JUMP JUMPDEST PUSH32 0x546F6B656E56657374696E673A20696E646578206F7574206F6620626F756E64 PUSH1 0x0 DUP3 ADD MSTORE PUSH32 0x7300000000000000000000000000000000000000000000000000000000000000 PUSH1 0x20 DUP3 ADD MSTORE POP JUMP JUMPDEST PUSH1 0x0 PUSH2 0x34FB PUSH1 0x21 DUP4 PUSH2 0x2A18 JUMP JUMPDEST SWAP2 POP PUSH2 0x3506 DUP3 PUSH2 0x349F JUMP JUMPDEST PUSH1 0x40 DUP3 ADD SWAP1 POP SWAP2 SWAP1 POP JUMP JUMPDEST PUSH1 0x0 PUSH1 0x20 DUP3 ADD SWAP1 POP DUP2 DUP2 SUB PUSH1 0x0 DUP4 ADD MSTORE PUSH2 0x352A DUP2 PUSH2 0x34EE JUMP JUMPDEST SWAP1 POP SWAP2 SWAP1 POP JUMP JUMPDEST PUSH32 0x4E487B7100000000000000000000000000000000000000000000000000000000 PUSH1 0x0 MSTORE PUSH1 0x32 PUSH1 0x4 MSTORE PUSH1 0x24 PUSH1 0x0 REVERT JUMPDEST PUSH32 0x4F776E61626C653A2063616C6C6572206973206E6F7420746865206F776E6572 PUSH1 0x0 DUP3 ADD MSTORE POP JUMP JUMPDEST PUSH1 0x0 PUSH2 0x3596 PUSH1 0x20 DUP4 PUSH2 0x2A18 JUMP JUMPDEST SWAP2 POP PUSH2 0x35A1 DUP3 PUSH2 0x3560 JUMP JUMPDEST PUSH1 0x20 DUP3 ADD SWAP1 POP SWAP2 SWAP1 POP JUMP JUMPDEST PUSH1 0x0 PUSH1 0x20 DUP3 ADD SWAP1 POP DUP2 DUP2 SUB PUSH1 0x0 DUP4 ADD MSTORE PUSH2 0x35C5 DUP2 PUSH2 0x3589 JUMP JUMPDEST SWAP1 POP SWAP2 SWAP1 POP JUMP JUMPDEST PUSH1 0x0 PUSH1 0x40 DUP3 ADD SWAP1 POP PUSH2 0x35E1 PUSH1 0x0 DUP4 ADD DUP6 PUSH2 0x2670 JUMP JUMPDEST PUSH2 0x35EE PUSH1 0x20 DUP4 ADD DUP5 PUSH2 0x25B6 JUMP JUMPDEST SWAP4 SWAP3 POP POP POP JUMP JUMPDEST PUSH1 0x0 PUSH2 0x3600 DUP3 PUSH2 0x25AC JUMP JUMPDEST SWAP2 POP PUSH2 0x360B DUP4 PUSH2 0x25AC JUMP JUMPDEST SWAP3 POP DUP2 PUSH32 0xFFFFFFFFFFFFFFFFFFFFFFFFFFFFFFFFFFFFFFFFFFFFFFFFFFFFFFFFFFFFFFFF DIV DUP4 GT DUP3 ISZERO ISZERO AND ISZERO PUSH2 0x3644 JUMPI PUSH2 0x3643 PUSH2 0x303B JUMP JUMPDEST JUMPDEST DUP3 DUP3 MUL SWAP1 POP SWAP3 SWAP2 POP POP JUMP JUMPDEST PUSH32 0x4E487B7100000000000000000000000000000000000000000000000000000000 PUSH1 0x0 MSTORE PUSH1 0x12 PUSH1 0x4 MSTORE PUSH1 0x24 PUSH1 0x0 REVERT JUMPDEST PUSH1 0x0 PUSH2 0x3689 DUP3 PUSH2 0x25AC JUMP JUMPDEST SWAP2 POP PUSH2 0x3694 DUP4 PUSH2 0x25AC JUMP JUMPDEST SWAP3 POP DUP3 PUSH2 0x36A4 JUMPI PUSH2 0x36A3 PUSH2 0x364F JUMP JUMPDEST JUMPDEST DUP3 DUP3 DIV SWAP1 POP SWAP3 SWAP2 POP POP JUMP JUMPDEST PUSH1 0x0 DUP2 MLOAD SWAP1 POP PUSH2 0x36BE DUP2 PUSH2 0x2775 JUMP JUMPDEST SWAP3 SWAP2 POP POP JUMP JUMPDEST PUSH1 0x0 PUSH1 0x20 DUP3 DUP5 SUB SLT ISZERO PUSH2 0x36DA JUMPI PUSH2 0x36D9 PUSH2 0x25E0 JUMP JUMPDEST JUMPDEST PUSH1 0x0 PUSH2 0x36E8 DUP5 DUP3 DUP6 ADD PUSH2 0x36AF JUMP JUMPDEST SWAP2 POP POP SWAP3 SWAP2 POP POP JUMP JUMPDEST PUSH32 0x5361666545524332303A204552433230206F7065726174696F6E20646964206E PUSH1 0x0 DUP3 ADD MSTORE PUSH32 0x6F74207375636365656400000000000000000000000000000000000000000000 PUSH1 0x20 DUP3 ADD MSTORE POP JUMP JUMPDEST PUSH1 0x0 PUSH2 0x374D PUSH1 0x2A DUP4 PUSH2 0x2A18 JUMP JUMPDEST SWAP2 POP PUSH2 0x3758 DUP3 PUSH2 0x36F1 JUMP JUMPDEST PUSH1 0x40 DUP3 ADD SWAP1 POP SWAP2 SWAP1 POP JUMP JUMPDEST PUSH1 0x0 PUSH1 0x20 DUP3 ADD SWAP1 POP DUP2 DUP2 SUB PUSH1 0x0 DUP4 ADD MSTORE PUSH2 0x377C DUP2 PUSH2 0x3740 JUMP JUMPDEST SWAP1 POP SWAP2 SWAP1 POP JUMP JUMPDEST PUSH32 0x416464726573733A20696E73756666696369656E742062616C616E636520666F PUSH1 0x0 DUP3 ADD MSTORE PUSH32 0x722063616C6C0000000000000000000000000000000000000000000000000000 PUSH1 0x20 DUP3 ADD MSTORE POP JUMP JUMPDEST PUSH1 0x0 PUSH2 0x37DF PUSH1 0x26 DUP4 PUSH2 0x2A18 JUMP JUMPDEST SWAP2 POP PUSH2 0x37EA DUP3 PUSH2 0x3783 JUMP JUMPDEST PUSH1 0x40 DUP3 ADD SWAP1 POP SWAP2 SWAP1 POP JUMP JUMPDEST PUSH1 0x0 PUSH1 0x20 DUP3 ADD SWAP1 POP DUP2 DUP2 SUB PUSH1 0x0 DUP4 ADD MSTORE PUSH2 0x380E DUP2 PUSH2 0x37D2 JUMP JUMPDEST SWAP1 POP SWAP2 SWAP1 POP JUMP JUMPDEST PUSH32 0x416464726573733A2063616C6C20746F206E6F6E2D636F6E7472616374000000 PUSH1 0x0 DUP3 ADD MSTORE POP JUMP JUMPDEST PUSH1 0x0 PUSH2 0x384B PUSH1 0x1D DUP4 PUSH2 0x2A18 JUMP JUMPDEST SWAP2 POP PUSH2 0x3856 DUP3 PUSH2 0x3815 JUMP JUMPDEST PUSH1 0x20 DUP3 ADD SWAP1 POP SWAP2 SWAP1 POP JUMP JUMPDEST PUSH1 0x0 PUSH1 0x20 DUP3 ADD SWAP1 POP DUP2 DUP2 SUB PUSH1 0x0 DUP4 ADD MSTORE PUSH2 0x387A DUP2 PUSH2 0x383E JUMP JUMPDEST SWAP1 POP SWAP2 SWAP1 POP JUMP JUMPDEST PUSH1 0x0 DUP2 MLOAD SWAP1 POP SWAP2 SWAP1 POP JUMP JUMPDEST PUSH1 0x0 DUP2 SWAP1 POP SWAP3 SWAP2 POP POP JUMP JUMPDEST PUSH1 0x0 JUMPDEST DUP4 DUP2 LT ISZERO PUSH2 0x38B5 JUMPI DUP1 DUP3 ADD MLOAD DUP2 DUP5 ADD MSTORE PUSH1 0x20 DUP2 ADD SWAP1 POP PUSH2 0x389A JUMP JUMPDEST DUP4 DUP2 GT ISZERO PUSH2 0x38C4 JUMPI PUSH1 0x0 DUP5 DUP5 ADD MSTORE JUMPDEST POP POP POP POP JUMP JUMPDEST PUSH1 0x0 PUSH2 0x38D5 DUP3 PUSH2 0x3881 JUMP JUMPDEST PUSH2 0x38DF DUP2 DUP6 PUSH2 0x388C JUMP JUMPDEST SWAP4 POP PUSH2 0x38EF DUP2 DUP6 PUSH1 0x20 DUP7 ADD PUSH2 0x3897 JUMP JUMPDEST DUP1 DUP5 ADD SWAP2 POP POP SWAP3 SWAP2 POP POP JUMP JUMPDEST PUSH1 0x0 PUSH2 0x3907 DUP3 DUP5 PUSH2 0x38CA JUMP JUMPDEST SWAP2 POP DUP2 SWAP1 POP SWAP3 SWAP2 POP POP JUMP JUMPDEST PUSH1 0x0 DUP2 MLOAD SWAP1 POP SWAP2 SWAP1 POP JUMP JUMPDEST PUSH1 0x0 PUSH1 0x1F NOT PUSH1 0x1F DUP4 ADD AND SWAP1 POP SWAP2 SWAP1 POP JUMP JUMPDEST PUSH1 0x0 PUSH2 0x3939 DUP3 PUSH2 0x3912 JUMP JUMPDEST PUSH2 0x3943 DUP2 DUP6 PUSH2 0x2A18 JUMP JUMPDEST SWAP4 POP PUSH2 0x3953 DUP2 DUP6 PUSH1 0x20 DUP7 ADD PUSH2 0x3897 JUMP JUMPDEST PUSH2 0x395C DUP2 PUSH2 0x391D JUMP JUMPDEST DUP5 ADD SWAP2 POP POP SWAP3 SWAP2 POP POP JUMP JUMPDEST PUSH1 0x0 PUSH1 0x20 DUP3 ADD SWAP1 POP DUP2 DUP2 SUB PUSH1 0x0 DUP4 ADD MSTORE PUSH2 0x3981 DUP2 DUP5 PUSH2 0x392E JUMP JUMPDEST SWAP1 POP SWAP3 SWAP2 POP POP JUMP INVALID LOG2 PUSH5 0x6970667358 0x22 SLT KECCAK256 SWAP14 0xDF SHL GT 0xE8 PC PUSH23 0x388506B19EC8EE3380CEFDA6591BF4AFF5F954874B7F66 ADDMOD LT PUSH5 0x736F6C6343 STOP ADDMOD MULMOD STOP CALLER "
				},
				"gasEstimates": {
					"creation": {
						"codeDepositCost": "2956600",
						"executionCost": "infinite",
						"totalCost": "infinite"
					},
					"external": {
						"computeNextVestingScheduleIdForHolder(address)": "infinite",
						"computeReleasableAmount(bytes32)": "infinite",
						"computeVestingScheduleIdForAddressAndIndex(address,uint256)": "infinite",
						"createVestingSchedule(address,uint256,uint256,uint256,uint256,bool,uint256,bool)": "infinite",
						"crowdsalesAddress()": "2560",
						"getCurrentTime()": "404",
						"getLastVestingScheduleForHolder(address)": "infinite",
						"getTGEOpeningTime()": "2482",
						"getTgeTotalAmount()": "2504",
						"getToken()": "2613",
						"getTotalInvestmentAmountBalance()": "infinite",
						"getVestingIdAtIndex(uint256)": "7158",
						"getVestingSchedule(bytes32)": "infinite",
						"getVestingScheduleByAddressAndIndex(address,uint256)": "infinite",
						"getVestingSchedulesCount()": "2492",
						"getVestingSchedulesCountByBeneficiary(address)": "2909",
						"getVestingSchedulesTotalAmount()": "2483",
						"getWithdrawableAmount()": "infinite",
						"owner()": "2590",
						"release(bytes32,uint256)": "infinite",
						"releaseForTGE(bytes32)": "infinite",
						"renounceOwnership()": "30443",
						"revoke(bytes32)": "infinite",
						"setCrowdsaleAddress(address)": "24829",
						"tgeOpeningTime()": "2541",
						"tgePercent()": "2518",
						"tgeTokenParticipants(bytes32)": "2810",
						"transferOwnership(address)": "30791",
						"withdraw(uint256)": "infinite"
					},
					"internal": {
						"_computeReleasableAmount(struct PaymeTokenVesting.VestingSchedule memory)": "infinite"
					}
				},
				"methodIdentifiers": {
					"computeNextVestingScheduleIdForHolder(address)": "f7c469f0",
					"computeReleasableAmount(bytes32)": "ea1bb3d5",
					"computeVestingScheduleIdForAddressAndIndex(address,uint256)": "8af104da",
					"createVestingSchedule(address,uint256,uint256,uint256,uint256,bool,uint256,bool)": "7df8df92",
					"crowdsalesAddress()": "260a51e5",
					"getCurrentTime()": "29cb924d",
					"getLastVestingScheduleForHolder(address)": "7e913dc6",
					"getTGEOpeningTime()": "94a3fada",
					"getTgeTotalAmount()": "c990c2f7",
					"getToken()": "21df0da7",
					"getTotalInvestmentAmountBalance()": "c07aa656",
					"getVestingIdAtIndex(uint256)": "f9079b37",
					"getVestingSchedule(bytes32)": "9ef346b4",
					"getVestingScheduleByAddressAndIndex(address,uint256)": "f51321d7",
					"getVestingSchedulesCount()": "13083617",
					"getVestingSchedulesCountByBeneficiary(address)": "5a7bb69a",
					"getVestingSchedulesTotalAmount()": "48deb471",
					"getWithdrawableAmount()": "90be10cc",
					"owner()": "8da5cb5b",
					"release(bytes32,uint256)": "66afd8ef",
					"releaseForTGE(bytes32)": "8c81a7d7",
					"renounceOwnership()": "715018a6",
					"revoke(bytes32)": "b75c7dc6",
					"setCrowdsaleAddress(address)": "1f35bc40",
					"tgeOpeningTime()": "40a9627f",
					"tgePercent()": "e2f0f42d",
					"tgeTokenParticipants(bytes32)": "c8ac75d2",
					"transferOwnership(address)": "f2fde38b",
					"withdraw(uint256)": "2e1a7d4d"
				}
			},
			"storageLayout": {
				"storage": [
					{
						"astId": 7,
						"contract": "contracts/ico/PaymeTokenVesting.sol:PaymeTokenVesting",
						"label": "_owner",
						"offset": 0,
						"slot": "0",
						"type": "t_address"
					},
					{
						"astId": 123,
						"contract": "contracts/ico/PaymeTokenVesting.sol:PaymeTokenVesting",
						"label": "_status",
						"offset": 0,
						"slot": "1",
						"type": "t_uint256"
					},
					{
						"astId": 1726,
						"contract": "contracts/ico/PaymeTokenVesting.sol:PaymeTokenVesting",
						"label": "_token",
						"offset": 0,
						"slot": "2",
						"type": "t_contract(IERC20)230"
					},
					{
						"astId": 1728,
						"contract": "contracts/ico/PaymeTokenVesting.sol:PaymeTokenVesting",
						"label": "tgePercent",
						"offset": 0,
						"slot": "3",
						"type": "t_uint256"
					},
					{
						"astId": 1730,
						"contract": "contracts/ico/PaymeTokenVesting.sol:PaymeTokenVesting",
						"label": "tgeOpeningTime",
						"offset": 0,
						"slot": "4",
						"type": "t_uint256"
					},
					{
						"astId": 1733,
						"contract": "contracts/ico/PaymeTokenVesting.sol:PaymeTokenVesting",
						"label": "vestingSchedulesIds",
						"offset": 0,
						"slot": "5",
						"type": "t_array(t_bytes32)dyn_storage"
					},
					{
						"astId": 1738,
						"contract": "contracts/ico/PaymeTokenVesting.sol:PaymeTokenVesting",
						"label": "vestingSchedules",
						"offset": 0,
						"slot": "6",
						"type": "t_mapping(t_bytes32,t_struct(VestingSchedule)1723_storage)"
					},
					{
						"astId": 1740,
						"contract": "contracts/ico/PaymeTokenVesting.sol:PaymeTokenVesting",
						"label": "vestingSchedulesTotalAmount",
						"offset": 0,
						"slot": "7",
						"type": "t_uint256"
					},
					{
						"astId": 1742,
						"contract": "contracts/ico/PaymeTokenVesting.sol:PaymeTokenVesting",
						"label": "tgeTotalAmount",
						"offset": 0,
						"slot": "8",
						"type": "t_uint256"
					},
					{
						"astId": 1746,
						"contract": "contracts/ico/PaymeTokenVesting.sol:PaymeTokenVesting",
						"label": "holdersVestingCount",
						"offset": 0,
						"slot": "9",
						"type": "t_mapping(t_address,t_uint256)"
					},
					{
						"astId": 1750,
						"contract": "contracts/ico/PaymeTokenVesting.sol:PaymeTokenVesting",
						"label": "tgeTokenParticipants",
						"offset": 0,
						"slot": "10",
						"type": "t_mapping(t_bytes32,t_uint256)"
					},
					{
						"astId": 1752,
						"contract": "contracts/ico/PaymeTokenVesting.sol:PaymeTokenVesting",
						"label": "crowdsalesAddress",
						"offset": 0,
						"slot": "11",
						"type": "t_address"
					}
				],
				"types": {
					"t_address": {
						"encoding": "inplace",
						"label": "address",
						"numberOfBytes": "20"
					},
					"t_array(t_bytes32)dyn_storage": {
						"base": "t_bytes32",
						"encoding": "dynamic_array",
						"label": "bytes32[]",
						"numberOfBytes": "32"
					},
					"t_bool": {
						"encoding": "inplace",
						"label": "bool",
						"numberOfBytes": "1"
					},
					"t_bytes32": {
						"encoding": "inplace",
						"label": "bytes32",
						"numberOfBytes": "32"
					},
					"t_contract(IERC20)230": {
						"encoding": "inplace",
						"label": "contract IERC20",
						"numberOfBytes": "20"
					},
					"t_mapping(t_address,t_uint256)": {
						"encoding": "mapping",
						"key": "t_address",
						"label": "mapping(address => uint256)",
						"numberOfBytes": "32",
						"value": "t_uint256"
					},
					"t_mapping(t_bytes32,t_struct(VestingSchedule)1723_storage)": {
						"encoding": "mapping",
						"key": "t_bytes32",
						"label": "mapping(bytes32 => struct PaymeTokenVesting.VestingSchedule)",
						"numberOfBytes": "32",
						"value": "t_struct(VestingSchedule)1723_storage"
					},
					"t_mapping(t_bytes32,t_uint256)": {
						"encoding": "mapping",
						"key": "t_bytes32",
						"label": "mapping(bytes32 => uint256)",
						"numberOfBytes": "32",
						"value": "t_uint256"
					},
					"t_struct(VestingSchedule)1723_storage": {
						"encoding": "inplace",
						"label": "struct PaymeTokenVesting.VestingSchedule",
						"members": [
							{
								"astId": 1702,
								"contract": "contracts/ico/PaymeTokenVesting.sol:PaymeTokenVesting",
								"label": "initialized",
								"offset": 0,
								"slot": "0",
								"type": "t_bool"
							},
							{
								"astId": 1704,
								"contract": "contracts/ico/PaymeTokenVesting.sol:PaymeTokenVesting",
								"label": "beneficiary",
								"offset": 1,
								"slot": "0",
								"type": "t_address"
							},
							{
								"astId": 1706,
								"contract": "contracts/ico/PaymeTokenVesting.sol:PaymeTokenVesting",
								"label": "cliff",
								"offset": 0,
								"slot": "1",
								"type": "t_uint256"
							},
							{
								"astId": 1708,
								"contract": "contracts/ico/PaymeTokenVesting.sol:PaymeTokenVesting",
								"label": "start",
								"offset": 0,
								"slot": "2",
								"type": "t_uint256"
							},
							{
								"astId": 1710,
								"contract": "contracts/ico/PaymeTokenVesting.sol:PaymeTokenVesting",
								"label": "duration",
								"offset": 0,
								"slot": "3",
								"type": "t_uint256"
							},
							{
								"astId": 1712,
								"contract": "contracts/ico/PaymeTokenVesting.sol:PaymeTokenVesting",
								"label": "slicePeriodSeconds",
								"offset": 0,
								"slot": "4",
								"type": "t_uint256"
							},
							{
								"astId": 1714,
								"contract": "contracts/ico/PaymeTokenVesting.sol:PaymeTokenVesting",
								"label": "revocable",
								"offset": 0,
								"slot": "5",
								"type": "t_bool"
							},
							{
								"astId": 1716,
								"contract": "contracts/ico/PaymeTokenVesting.sol:PaymeTokenVesting",
								"label": "amountTotal",
								"offset": 0,
								"slot": "6",
								"type": "t_uint256"
							},
							{
								"astId": 1718,
								"contract": "contracts/ico/PaymeTokenVesting.sol:PaymeTokenVesting",
								"label": "released",
								"offset": 0,
								"slot": "7",
								"type": "t_uint256"
							},
							{
								"astId": 1720,
								"contract": "contracts/ico/PaymeTokenVesting.sol:PaymeTokenVesting",
								"label": "revoked",
								"offset": 0,
								"slot": "8",
								"type": "t_bool"
							},
							{
								"astId": 1722,
								"contract": "contracts/ico/PaymeTokenVesting.sol:PaymeTokenVesting",
								"label": "releaseAtTGE",
								"offset": 1,
								"slot": "8",
								"type": "t_bool"
							}
						],
						"numberOfBytes": "288"
					},
					"t_uint256": {
						"encoding": "inplace",
						"label": "uint256",
						"numberOfBytes": "32"
					}
				}
			},
			"userdoc": {
				"kind": "user",
				"methods": {
					"computeReleasableAmount(bytes32)": {
						"notice": "Computes the vested amount of tokens for the given vesting schedule identifier."
					},
					"createVestingSchedule(address,uint256,uint256,uint256,uint256,bool,uint256,bool)": {
						"notice": "Creates a new vesting schedule for a beneficiary."
					},
					"getTgeTotalAmount()": {
						"notice": "Returns the total amount of the TGE Amount."
					},
					"getVestingSchedule(bytes32)": {
						"notice": "Returns the vesting schedule information for a given identifier."
					},
					"getVestingScheduleByAddressAndIndex(address,uint256)": {
						"notice": "Returns the vesting schedule information for a given holder and index."
					},
					"getVestingSchedulesTotalAmount()": {
						"notice": "Returns the total amount of vesting schedules."
					},
					"release(bytes32,uint256)": {
						"notice": "Release vested amount of tokens."
					},
					"revoke(bytes32)": {
						"notice": "Revokes the vesting schedule for given identifier."
					},
					"withdraw(uint256)": {
						"notice": "Withdraw the specified amount if possible."
					}
				},
				"version": 1
			}
		}
	}
}