{
	"contracts/ico/PaymeTokenVesting.sol": {
		"PaymeTokenVesting": {
			"abi": [
				{
					"anonymous": false,
					"inputs": [
						{
							"indexed": false,
							"internalType": "uint8",
							"name": "version",
							"type": "uint8"
						}
					],
					"name": "Initialized",
					"type": "event"
				},
				{
					"anonymous": false,
					"inputs": [
						{
							"indexed": true,
							"internalType": "address",
							"name": "previousOwner",
							"type": "address"
						},
						{
							"indexed": true,
							"internalType": "address",
							"name": "newOwner",
							"type": "address"
						}
					],
					"name": "OwnershipTransferred",
					"type": "event"
				},
				{
					"anonymous": false,
					"inputs": [
						{
							"indexed": false,
							"internalType": "uint256",
							"name": "amount",
							"type": "uint256"
						}
					],
					"name": "Released",
					"type": "event"
				},
				{
					"anonymous": false,
					"inputs": [],
					"name": "Revoked",
					"type": "event"
				},
				{
					"anonymous": false,
					"inputs": [
						{
							"indexed": false,
							"internalType": "address",
							"name": "beneficiary",
							"type": "address"
						},
						{
							"indexed": false,
							"internalType": "uint256",
							"name": "amount",
							"type": "uint256"
						}
					],
					"name": "TokenReleasedAtTGE",
					"type": "event"
				},
				{
					"anonymous": false,
					"inputs": [
						{
							"indexed": false,
							"internalType": "bytes32",
							"name": "",
							"type": "bytes32"
						}
					],
					"name": "VestingScheduleCreated",
					"type": "event"
				},
				{
					"inputs": [],
					"name": "TGEOpeningTime",
					"outputs": [
						{
							"internalType": "uint256",
							"name": "",
							"type": "uint256"
						}
					],
					"stateMutability": "view",
					"type": "function"
				},
				{
					"inputs": [],
					"name": "TGEPercent",
					"outputs": [
						{
							"internalType": "uint256",
							"name": "",
							"type": "uint256"
						}
					],
					"stateMutability": "view",
					"type": "function"
				},
				{
					"inputs": [
						{
							"internalType": "bytes32",
							"name": "",
							"type": "bytes32"
						}
					],
					"name": "TGETokenParticipates",
					"outputs": [
						{
							"internalType": "uint256",
							"name": "",
							"type": "uint256"
						}
					],
					"stateMutability": "view",
					"type": "function"
				},
				{
					"inputs": [
						{
							"internalType": "address",
							"name": "holder",
							"type": "address"
						}
					],
					"name": "computeNextVestingScheduleIdForHolder",
					"outputs": [
						{
							"internalType": "bytes32",
							"name": "",
							"type": "bytes32"
						}
					],
					"stateMutability": "view",
					"type": "function"
				},
				{
					"inputs": [
						{
							"internalType": "bytes32",
							"name": "vestingScheduleId",
							"type": "bytes32"
						}
					],
					"name": "computeReleasableAmount",
					"outputs": [
						{
							"internalType": "uint256",
							"name": "",
							"type": "uint256"
						}
					],
					"stateMutability": "view",
					"type": "function"
				},
				{
					"inputs": [
						{
							"internalType": "address",
							"name": "holder",
							"type": "address"
						},
						{
							"internalType": "uint256",
							"name": "index",
							"type": "uint256"
						}
					],
					"name": "computeVestingScheduleIdForAddressAndIndex",
					"outputs": [
						{
							"internalType": "bytes32",
							"name": "",
							"type": "bytes32"
						}
					],
					"stateMutability": "pure",
					"type": "function"
				},
				{
					"inputs": [
						{
							"internalType": "address",
							"name": "_beneficiary",
							"type": "address"
						},
						{
							"internalType": "uint256",
							"name": "_start",
							"type": "uint256"
						},
						{
							"internalType": "uint256",
							"name": "_cliff",
							"type": "uint256"
						},
						{
							"internalType": "uint256",
							"name": "_duration",
							"type": "uint256"
						},
						{
							"internalType": "uint256",
							"name": "_slicePeriodSeconds",
							"type": "uint256"
						},
						{
							"internalType": "bool",
							"name": "_revocable",
							"type": "bool"
						},
						{
							"internalType": "uint256",
							"name": "_amount",
							"type": "uint256"
						},
						{
							"internalType": "bool",
							"name": "_releaseAtTGE",
							"type": "bool"
						}
					],
					"name": "createVestingSchedule",
					"outputs": [],
					"stateMutability": "nonpayable",
					"type": "function"
				},
				{
					"inputs": [],
					"name": "crowdsales_address",
					"outputs": [
						{
							"internalType": "address",
							"name": "",
							"type": "address"
						}
					],
					"stateMutability": "view",
					"type": "function"
				},
				{
					"inputs": [
						{
							"internalType": "address",
							"name": "holder",
							"type": "address"
						}
					],
					"name": "getLastVestingScheduleForHolder",
					"outputs": [
						{
							"components": [
								{
									"internalType": "bool",
									"name": "initialized",
									"type": "bool"
								},
								{
									"internalType": "address",
									"name": "beneficiary",
									"type": "address"
								},
								{
									"internalType": "uint256",
									"name": "cliff",
									"type": "uint256"
								},
								{
									"internalType": "uint256",
									"name": "start",
									"type": "uint256"
								},
								{
									"internalType": "uint256",
									"name": "duration",
									"type": "uint256"
								},
								{
									"internalType": "uint256",
									"name": "slicePeriodSeconds",
									"type": "uint256"
								},
								{
									"internalType": "bool",
									"name": "revocable",
									"type": "bool"
								},
								{
									"internalType": "uint256",
									"name": "amountTotal",
									"type": "uint256"
								},
								{
									"internalType": "uint256",
									"name": "released",
									"type": "uint256"
								},
								{
									"internalType": "bool",
									"name": "revoked",
									"type": "bool"
								},
								{
									"internalType": "bool",
									"name": "releaseAtTGE",
									"type": "bool"
								}
							],
							"internalType": "struct PaymeTokenVesting.VestingSchedule",
							"name": "",
							"type": "tuple"
						}
					],
					"stateMutability": "view",
					"type": "function"
				},
				{
					"inputs": [],
					"name": "getToken",
					"outputs": [
						{
							"internalType": "address",
							"name": "",
							"type": "address"
						}
					],
					"stateMutability": "view",
					"type": "function"
				},
				{
					"inputs": [
						{
							"internalType": "uint256",
							"name": "index",
							"type": "uint256"
						}
					],
					"name": "getVestingIdAtIndex",
					"outputs": [
						{
							"internalType": "bytes32",
							"name": "",
							"type": "bytes32"
						}
					],
					"stateMutability": "view",
					"type": "function"
				},
				{
					"inputs": [
						{
							"internalType": "bytes32",
							"name": "vestingScheduleId",
							"type": "bytes32"
						}
					],
					"name": "getVestingSchedule",
					"outputs": [
						{
							"components": [
								{
									"internalType": "bool",
									"name": "initialized",
									"type": "bool"
								},
								{
									"internalType": "address",
									"name": "beneficiary",
									"type": "address"
								},
								{
									"internalType": "uint256",
									"name": "cliff",
									"type": "uint256"
								},
								{
									"internalType": "uint256",
									"name": "start",
									"type": "uint256"
								},
								{
									"internalType": "uint256",
									"name": "duration",
									"type": "uint256"
								},
								{
									"internalType": "uint256",
									"name": "slicePeriodSeconds",
									"type": "uint256"
								},
								{
									"internalType": "bool",
									"name": "revocable",
									"type": "bool"
								},
								{
									"internalType": "uint256",
									"name": "amountTotal",
									"type": "uint256"
								},
								{
									"internalType": "uint256",
									"name": "released",
									"type": "uint256"
								},
								{
									"internalType": "bool",
									"name": "revoked",
									"type": "bool"
								},
								{
									"internalType": "bool",
									"name": "releaseAtTGE",
									"type": "bool"
								}
							],
							"internalType": "struct PaymeTokenVesting.VestingSchedule",
							"name": "",
							"type": "tuple"
						}
					],
					"stateMutability": "view",
					"type": "function"
				},
				{
					"inputs": [
						{
							"internalType": "address",
							"name": "holder",
							"type": "address"
						},
						{
							"internalType": "uint256",
							"name": "index",
							"type": "uint256"
						}
					],
					"name": "getVestingScheduleByAddressAndIndex",
					"outputs": [
						{
							"components": [
								{
									"internalType": "bool",
									"name": "initialized",
									"type": "bool"
								},
								{
									"internalType": "address",
									"name": "beneficiary",
									"type": "address"
								},
								{
									"internalType": "uint256",
									"name": "cliff",
									"type": "uint256"
								},
								{
									"internalType": "uint256",
									"name": "start",
									"type": "uint256"
								},
								{
									"internalType": "uint256",
									"name": "duration",
									"type": "uint256"
								},
								{
									"internalType": "uint256",
									"name": "slicePeriodSeconds",
									"type": "uint256"
								},
								{
									"internalType": "bool",
									"name": "revocable",
									"type": "bool"
								},
								{
									"internalType": "uint256",
									"name": "amountTotal",
									"type": "uint256"
								},
								{
									"internalType": "uint256",
									"name": "released",
									"type": "uint256"
								},
								{
									"internalType": "bool",
									"name": "revoked",
									"type": "bool"
								},
								{
									"internalType": "bool",
									"name": "releaseAtTGE",
									"type": "bool"
								}
							],
							"internalType": "struct PaymeTokenVesting.VestingSchedule",
							"name": "",
							"type": "tuple"
						}
					],
					"stateMutability": "view",
					"type": "function"
				},
				{
					"inputs": [],
					"name": "getVestingSchedulesCount",
					"outputs": [
						{
							"internalType": "uint256",
							"name": "",
							"type": "uint256"
						}
					],
					"stateMutability": "view",
					"type": "function"
				},
				{
					"inputs": [
						{
							"internalType": "address",
							"name": "_beneficiary",
							"type": "address"
						}
					],
					"name": "getVestingSchedulesCountByBeneficiary",
					"outputs": [
						{
							"internalType": "uint256",
							"name": "",
							"type": "uint256"
						}
					],
					"stateMutability": "view",
					"type": "function"
				},
				{
					"inputs": [],
					"name": "getVestingSchedulesTotalAmount",
					"outputs": [
						{
							"internalType": "uint256",
							"name": "",
							"type": "uint256"
						}
					],
					"stateMutability": "view",
					"type": "function"
				},
				{
					"inputs": [],
					"name": "getWithdrawableAmount",
					"outputs": [
						{
							"internalType": "uint256",
							"name": "",
							"type": "uint256"
						}
					],
					"stateMutability": "view",
					"type": "function"
				},
				{
					"inputs": [
						{
							"internalType": "contract IERC20Upgradeable",
							"name": "token_",
							"type": "address"
						},
						{
							"internalType": "uint256",
							"name": "TGEPercent_",
							"type": "uint256"
						},
						{
							"internalType": "uint256",
							"name": "TGEOpeningTime_",
							"type": "uint256"
						}
					],
					"name": "initialize",
					"outputs": [],
					"stateMutability": "nonpayable",
					"type": "function"
				},
				{
					"inputs": [],
					"name": "owner",
					"outputs": [
						{
							"internalType": "address",
							"name": "",
							"type": "address"
						}
					],
					"stateMutability": "view",
					"type": "function"
				},
				{
					"inputs": [
						{
							"internalType": "bytes32",
							"name": "vestingScheduleId",
							"type": "bytes32"
						},
						{
							"internalType": "uint256",
							"name": "amount",
							"type": "uint256"
						}
					],
					"name": "release",
					"outputs": [],
					"stateMutability": "nonpayable",
					"type": "function"
				},
				{
					"inputs": [
						{
							"internalType": "bytes32",
							"name": "vestingScheduleId",
							"type": "bytes32"
						}
					],
					"name": "releaseTokenForTGE",
					"outputs": [],
					"stateMutability": "nonpayable",
					"type": "function"
				},
				{
					"inputs": [],
					"name": "renounceOwnership",
					"outputs": [],
					"stateMutability": "nonpayable",
					"type": "function"
				},
				{
					"inputs": [
						{
							"internalType": "bytes32",
							"name": "vestingScheduleId",
							"type": "bytes32"
						}
					],
					"name": "revoke",
					"outputs": [],
					"stateMutability": "nonpayable",
					"type": "function"
				},
				{
					"inputs": [
						{
							"internalType": "address",
							"name": "_crowdsales_address",
							"type": "address"
						}
					],
					"name": "setCrowdsaleAddress",
					"outputs": [],
					"stateMutability": "nonpayable",
					"type": "function"
				},
				{
					"inputs": [
						{
							"internalType": "address",
							"name": "newOwner",
							"type": "address"
						}
					],
					"name": "transferOwnership",
					"outputs": [],
					"stateMutability": "nonpayable",
					"type": "function"
				},
				{
					"inputs": [
						{
							"internalType": "uint256",
							"name": "amount",
							"type": "uint256"
						}
					],
					"name": "withdraw",
					"outputs": [],
					"stateMutability": "nonpayable",
					"type": "function"
				}
			],
			"devdoc": {
				"kind": "dev",
				"methods": {
					"computeNextVestingScheduleIdForHolder(address)": {
						"details": "Computes the next vesting schedule identifier for a given holder address."
					},
					"computeReleasableAmount(bytes32)": {
						"returns": {
							"_0": "the vested amount"
						}
					},
					"computeVestingScheduleIdForAddressAndIndex(address,uint256)": {
						"details": "Computes the vesting schedule identifier for an address and an index."
					},
					"createVestingSchedule(address,uint256,uint256,uint256,uint256,bool,uint256,bool)": {
						"params": {
							"_amount": "total amount of tokens to be released at the end of the vesting",
							"_beneficiary": "address of the beneficiary to whom vested tokens are transferred",
							"_cliff": "duration in seconds of the cliff in which tokens will begin to vest",
							"_duration": "duration in seconds of the period in which the tokens will vest",
							"_revocable": "whether the vesting is revocable or not",
							"_slicePeriodSeconds": "duration of a slice period for the vesting in seconds",
							"_start": "start time of the vesting period"
						}
					},
					"getLastVestingScheduleForHolder(address)": {
						"details": "Returns the last vesting schedule for a given holder address."
					},
					"getToken()": {
						"details": "Returns the address of the ERC20 token managed by the vesting contract."
					},
					"getVestingIdAtIndex(uint256)": {
						"details": "Returns the vesting schedule id at the given index.",
						"returns": {
							"_0": "the vesting id"
						}
					},
					"getVestingSchedule(bytes32)": {
						"returns": {
							"_0": "the vesting schedule structure information"
						}
					},
					"getVestingScheduleByAddressAndIndex(address,uint256)": {
						"returns": {
							"_0": "the vesting schedule structure information"
						}
					},
					"getVestingSchedulesCount()": {
						"details": "Returns the number of vesting schedules managed by this contract.",
						"returns": {
							"_0": "the number of vesting schedules"
						}
					},
					"getVestingSchedulesCountByBeneficiary(address)": {
						"details": "Returns the number of vesting schedules associated to a beneficiary.",
						"returns": {
							"_0": "the number of vesting schedules"
						}
					},
					"getVestingSchedulesTotalAmount()": {
						"returns": {
							"_0": "the total amount of vesting schedules"
						}
					},
					"getWithdrawableAmount()": {
						"details": "Returns the amount of tokens that can be withdrawn by the owner.",
						"returns": {
							"_0": "the amount of tokens"
						}
					},
					"initialize(address,uint256,uint256)": {
						"details": "Creates a vesting contract.",
						"params": {
							"token_": "address of the ERC20 token contract"
						}
					},
					"owner()": {
						"details": "Returns the address of the current owner."
					},
					"release(bytes32,uint256)": {
						"params": {
							"amount": "the amount to release",
							"vestingScheduleId": "the vesting schedule identifier"
						}
					},
					"renounceOwnership()": {
						"details": "Leaves the contract without owner. It will not be possible to call `onlyOwner` functions anymore. Can only be called by the current owner. NOTE: Renouncing ownership will leave the contract without an owner, thereby removing any functionality that is only available to the owner."
					},
					"revoke(bytes32)": {
						"params": {
							"vestingScheduleId": "the vesting schedule identifier"
						}
					},
					"transferOwnership(address)": {
						"details": "Transfers ownership of the contract to a new account (`newOwner`). Can only be called by the current owner."
					},
					"withdraw(uint256)": {
						"params": {
							"amount": "the amount to withdraw"
						}
					}
				},
				"title": "PaymeTokenVesting",
				"version": 1
			},
			"evm": {
				"assembly": "    /* \"contracts/ico/PaymeTokenVesting.sol\":784:15537  contract PaymeTokenVesting is OwnableUpgradeable, ReentrancyGuardUpgradeable{... */\n  mstore(0x40, 0x80)\n  callvalue\n  dup1\n  iszero\n  tag_1\n  jumpi\n  0x00\n  dup1\n  revert\ntag_1:\n  pop\n  dataSize(sub_0)\n  dup1\n  dataOffset(sub_0)\n  0x00\n  codecopy\n  0x00\n  return\nstop\n\nsub_0: assembly {\n        /* \"contracts/ico/PaymeTokenVesting.sol\":784:15537  contract PaymeTokenVesting is OwnableUpgradeable, ReentrancyGuardUpgradeable{... */\n      mstore(0x40, 0x80)\n      callvalue\n      dup1\n      iszero\n      tag_1\n      jumpi\n      0x00\n      dup1\n      revert\n    tag_1:\n      pop\n      jumpi(tag_2, lt(calldatasize, 0x04))\n      shr(0xe0, calldataload(0x00))\n      dup1\n      0x8af104da\n      gt\n      tag_29\n      jumpi\n      dup1\n      0xd31b0809\n      gt\n      tag_30\n      jumpi\n      dup1\n      0xf51321d7\n      gt\n      tag_31\n      jumpi\n      dup1\n      0xf51321d7\n      eq\n      tag_25\n      jumpi\n      dup1\n      0xf7c469f0\n      eq\n      tag_26\n      jumpi\n      dup1\n      0xf9079b37\n      eq\n      tag_27\n      jumpi\n      dup1\n      0xf9299dd9\n      eq\n      tag_28\n      jumpi\n      jump(tag_2)\n    tag_31:\n      dup1\n      0xd31b0809\n      eq\n      tag_22\n      jumpi\n      dup1\n      0xea1bb3d5\n      eq\n      tag_23\n      jumpi\n      dup1\n      0xf2fde38b\n      eq\n      tag_24\n      jumpi\n      jump(tag_2)\n    tag_30:\n      dup1\n      0x8af104da\n      eq\n      tag_16\n      jumpi\n      dup1\n      0x8da5cb5b\n      eq\n      tag_17\n      jumpi\n      dup1\n      0x90be10cc\n      eq\n      tag_18\n      jumpi\n      dup1\n      0x9a160a1b\n      eq\n      tag_19\n      jumpi\n      dup1\n      0x9ef346b4\n      eq\n      tag_20\n      jumpi\n      dup1\n      0xb75c7dc6\n      eq\n      tag_21\n      jumpi\n      jump(tag_2)\n    tag_29:\n      dup1\n      0x48deb471\n      gt\n      tag_32\n      jumpi\n      dup1\n      0x715018a6\n      gt\n      tag_33\n      jumpi\n      dup1\n      0x715018a6\n      eq\n      tag_12\n      jumpi\n      dup1\n      0x7a1ac61e\n      eq\n      tag_13\n      jumpi\n      dup1\n      0x7df8df92\n      eq\n      tag_14\n      jumpi\n      dup1\n      0x7e913dc6\n      eq\n      tag_15\n      jumpi\n      jump(tag_2)\n    tag_33:\n      dup1\n      0x48deb471\n      eq\n      tag_9\n      jumpi\n      dup1\n      0x5a7bb69a\n      eq\n      tag_10\n      jumpi\n      dup1\n      0x66afd8ef\n      eq\n      tag_11\n      jumpi\n      jump(tag_2)\n    tag_32:\n      dup1\n      0x13083617\n      eq\n      tag_3\n      jumpi\n      dup1\n      0x1f35bc40\n      eq\n      tag_4\n      jumpi\n      dup1\n      0x21df0da7\n      eq\n      tag_5\n      jumpi\n      dup1\n      0x2e1a7d4d\n      eq\n      tag_6\n      jumpi\n      dup1\n      0x35ef33f3\n      eq\n      tag_7\n      jumpi\n      dup1\n      0x4727d394\n      eq\n      tag_8\n      jumpi\n    tag_2:\n      0x00\n      dup1\n      revert\n        /* \"contracts/ico/PaymeTokenVesting.sol\":11658:11796  function getVestingSchedulesCount()... */\n    tag_3:\n      tag_34\n      tag_35\n      jump\t// in\n    tag_34:\n      mload(0x40)\n      tag_36\n      swap2\n      swap1\n      tag_37\n      jump\t// in\n    tag_36:\n      mload(0x40)\n      dup1\n      swap2\n      sub\n      swap1\n      return\n        /* \"contracts/ico/PaymeTokenVesting.sol\":5314:5437  function setCrowdsaleAddress(address _crowdsales_address) external{... */\n    tag_4:\n      tag_38\n      0x04\n      dup1\n      calldatasize\n      sub\n      dup2\n      add\n      swap1\n      tag_39\n      swap2\n      swap1\n      tag_40\n      jump\t// in\n    tag_39:\n      tag_41\n      jump\t// in\n    tag_38:\n      stop\n        /* \"contracts/ico/PaymeTokenVesting.sol\":5546:5647  function getToken()... */\n    tag_5:\n      tag_42\n      tag_43\n      jump\t// in\n    tag_42:\n      mload(0x40)\n      tag_44\n      swap2\n      swap1\n      tag_45\n      jump\t// in\n    tag_44:\n      mload(0x40)\n      dup1\n      swap2\n      sub\n      swap1\n      return\n        /* \"contracts/ico/PaymeTokenVesting.sol\":8795:9039  function withdraw(uint256 amount)... */\n    tag_6:\n      tag_46\n      0x04\n      dup1\n      calldatasize\n      sub\n      dup2\n      add\n      swap1\n      tag_47\n      swap2\n      swap1\n      tag_48\n      jump\t// in\n    tag_47:\n      tag_49\n      jump\t// in\n    tag_46:\n      stop\n        /* \"contracts/ico/PaymeTokenVesting.sol\":2130:2185  mapping(bytes32 => uint256) public TGETokenParticipates */\n    tag_7:\n      tag_50\n      0x04\n      dup1\n      calldatasize\n      sub\n      dup2\n      add\n      swap1\n      tag_51\n      swap2\n      swap1\n      tag_52\n      jump\t// in\n    tag_51:\n      tag_53\n      jump\t// in\n    tag_50:\n      mload(0x40)\n      tag_54\n      swap2\n      swap1\n      tag_37\n      jump\t// in\n    tag_54:\n      mload(0x40)\n      dup1\n      swap2\n      sub\n      swap1\n      return\n        /* \"contracts/ico/PaymeTokenVesting.sol\":1875:1904  uint256 public TGEOpeningTime */\n    tag_8:\n      tag_55\n      tag_56\n      jump\t// in\n    tag_55:\n      mload(0x40)\n      tag_57\n      swap2\n      swap1\n      tag_37\n      jump\t// in\n    tag_57:\n      mload(0x40)\n      dup1\n      swap2\n      sub\n      swap1\n      return\n        /* \"contracts/ico/PaymeTokenVesting.sol\":5172:5307  function getVestingSchedulesTotalAmount()... */\n    tag_9:\n      tag_58\n      tag_59\n      jump\t// in\n    tag_58:\n      mload(0x40)\n      tag_60\n      swap2\n      swap1\n      tag_37\n      jump\t// in\n    tag_60:\n      mload(0x40)\n      dup1\n      swap2\n      sub\n      swap1\n      return\n        /* \"contracts/ico/PaymeTokenVesting.sol\":4133:4301  function getVestingSchedulesCountByBeneficiary(address _beneficiary)... */\n    tag_10:\n      tag_61\n      0x04\n      dup1\n      calldatasize\n      sub\n      dup2\n      add\n      swap1\n      tag_62\n      swap2\n      swap1\n      tag_40\n      jump\t// in\n    tag_62:\n      tag_63\n      jump\t// in\n    tag_61:\n      mload(0x40)\n      tag_64\n      swap2\n      swap1\n      tag_37\n      jump\t// in\n    tag_64:\n      mload(0x40)\n      dup1\n      swap2\n      sub\n      swap1\n      return\n        /* \"contracts/ico/PaymeTokenVesting.sol\":10507:11514  function release(... */\n    tag_11:\n      tag_65\n      0x04\n      dup1\n      calldatasize\n      sub\n      dup2\n      add\n      swap1\n      tag_66\n      swap2\n      swap1\n      tag_67\n      jump\t// in\n    tag_66:\n      tag_68\n      jump\t// in\n    tag_65:\n      stop\n        /* \"@openzeppelin/contracts-upgradeable/access/OwnableUpgradeable.sol\":2071:2172  function renounceOwnership() public virtual onlyOwner {... */\n    tag_12:\n      tag_69\n      tag_70\n      jump\t// in\n    tag_69:\n      stop\n        /* \"contracts/ico/PaymeTokenVesting.sol\":3552:3907  function initialize(IERC20Upgradeable token_,uint256 TGEPercent_,uint256 TGEOpeningTime_) public initializer {... */\n    tag_13:\n      tag_71\n      0x04\n      dup1\n      calldatasize\n      sub\n      dup2\n      add\n      swap1\n      tag_72\n      swap2\n      swap1\n      tag_73\n      jump\t// in\n    tag_72:\n      tag_74\n      jump\t// in\n    tag_71:\n      stop\n        /* \"contracts/ico/PaymeTokenVesting.sol\":6287:7824  function createVestingSchedule(... */\n    tag_14:\n      tag_75\n      0x04\n      dup1\n      calldatasize\n      sub\n      dup2\n      add\n      swap1\n      tag_76\n      swap2\n      swap1\n      tag_77\n      jump\t// in\n    tag_76:\n      tag_78\n      jump\t// in\n    tag_75:\n      stop\n        /* \"contracts/ico/PaymeTokenVesting.sol\":13327:13576  function getLastVestingScheduleForHolder(address holder)... */\n    tag_15:\n      tag_79\n      0x04\n      dup1\n      calldatasize\n      sub\n      dup2\n      add\n      swap1\n      tag_80\n      swap2\n      swap1\n      tag_40\n      jump\t// in\n    tag_80:\n      tag_81\n      jump\t// in\n    tag_79:\n      mload(0x40)\n      tag_82\n      swap2\n      swap1\n      tag_83\n      jump\t// in\n    tag_82:\n      mload(0x40)\n      dup1\n      swap2\n      sub\n      swap1\n      return\n        /* \"contracts/ico/PaymeTokenVesting.sol\":13678:13879  function computeVestingScheduleIdForAddressAndIndex(address holder, uint256 index)... */\n    tag_16:\n      tag_84\n      0x04\n      dup1\n      calldatasize\n      sub\n      dup2\n      add\n      swap1\n      tag_85\n      swap2\n      swap1\n      tag_86\n      jump\t// in\n    tag_85:\n      tag_87\n      jump\t// in\n    tag_84:\n      mload(0x40)\n      tag_88\n      swap2\n      swap1\n      tag_89\n      jump\t// in\n    tag_88:\n      mload(0x40)\n      dup1\n      swap2\n      sub\n      swap1\n      return\n        /* \"@openzeppelin/contracts-upgradeable/access/OwnableUpgradeable.sol\":1441:1526  function owner() public view virtual returns (address) {... */\n    tag_17:\n      tag_90\n      tag_91\n      jump\t// in\n    tag_90:\n      mload(0x40)\n      tag_92\n      swap2\n      swap1\n      tag_45\n      jump\t// in\n    tag_92:\n      mload(0x40)\n      dup1\n      swap2\n      sub\n      swap1\n      return\n        /* \"contracts/ico/PaymeTokenVesting.sol\":12736:12909  function getWithdrawableAmount()... */\n    tag_18:\n      tag_93\n      tag_94\n      jump\t// in\n    tag_93:\n      mload(0x40)\n      tag_95\n      swap2\n      swap1\n      tag_37\n      jump\t// in\n    tag_95:\n      mload(0x40)\n      dup1\n      swap2\n      sub\n      swap1\n      return\n        /* \"contracts/ico/PaymeTokenVesting.sol\":1843:1868  uint256 public TGEPercent */\n    tag_19:\n      tag_96\n      tag_97\n      jump\t// in\n    tag_96:\n      mload(0x40)\n      tag_98\n      swap2\n      swap1\n      tag_37\n      jump\t// in\n    tag_98:\n      mload(0x40)\n      dup1\n      swap2\n      sub\n      swap1\n      return\n        /* \"contracts/ico/PaymeTokenVesting.sol\":12423:12604  function getVestingSchedule(bytes32 vestingScheduleId)... */\n    tag_20:\n      tag_99\n      0x04\n      dup1\n      calldatasize\n      sub\n      dup2\n      add\n      swap1\n      tag_100\n      swap2\n      swap1\n      tag_52\n      jump\t// in\n    tag_100:\n      tag_101\n      jump\t// in\n    tag_99:\n      mload(0x40)\n      tag_102\n      swap2\n      swap1\n      tag_83\n      jump\t// in\n    tag_102:\n      mload(0x40)\n      dup1\n      swap2\n      sub\n      swap1\n      return\n        /* \"contracts/ico/PaymeTokenVesting.sol\":7973:8674  function revoke(bytes32 vestingScheduleId)... */\n    tag_21:\n      tag_103\n      0x04\n      dup1\n      calldatasize\n      sub\n      dup2\n      add\n      swap1\n      tag_104\n      swap2\n      swap1\n      tag_52\n      jump\t// in\n    tag_104:\n      tag_105\n      jump\t// in\n    tag_103:\n      stop\n        /* \"contracts/ico/PaymeTokenVesting.sol\":2192:2225  address public crowdsales_address */\n    tag_22:\n      tag_106\n      tag_107\n      jump\t// in\n    tag_106:\n      mload(0x40)\n      tag_108\n      swap2\n      swap1\n      tag_45\n      jump\t// in\n    tag_108:\n      mload(0x40)\n      dup1\n      swap2\n      sub\n      swap1\n      return\n        /* \"contracts/ico/PaymeTokenVesting.sol\":11943:12266  function computeReleasableAmount(bytes32 vestingScheduleId)... */\n    tag_23:\n      tag_109\n      0x04\n      dup1\n      calldatasize\n      sub\n      dup2\n      add\n      swap1\n      tag_110\n      swap2\n      swap1\n      tag_52\n      jump\t// in\n    tag_110:\n      tag_111\n      jump\t// in\n    tag_109:\n      mload(0x40)\n      tag_112\n      swap2\n      swap1\n      tag_37\n      jump\t// in\n    tag_112:\n      mload(0x40)\n      dup1\n      swap2\n      sub\n      swap1\n      return\n        /* \"@openzeppelin/contracts-upgradeable/access/OwnableUpgradeable.sol\":2321:2519  function transferOwnership(address newOwner) public virtual onlyOwner {... */\n    tag_24:\n      tag_113\n      0x04\n      dup1\n      calldatasize\n      sub\n      dup2\n      add\n      swap1\n      tag_114\n      swap2\n      swap1\n      tag_40\n      jump\t// in\n    tag_114:\n      tag_115\n      jump\t// in\n    tag_113:\n      stop\n        /* \"contracts/ico/PaymeTokenVesting.sol\":4803:5037  function getVestingScheduleByAddressAndIndex(address holder, uint256 index)... */\n    tag_25:\n      tag_116\n      0x04\n      dup1\n      calldatasize\n      sub\n      dup2\n      add\n      swap1\n      tag_117\n      swap2\n      swap1\n      tag_86\n      jump\t// in\n    tag_117:\n      tag_118\n      jump\t// in\n    tag_116:\n      mload(0x40)\n      tag_119\n      swap2\n      swap1\n      tag_83\n      jump\t// in\n    tag_119:\n      mload(0x40)\n      dup1\n      swap2\n      sub\n      swap1\n      return\n        /* \"contracts/ico/PaymeTokenVesting.sol\":13015:13233  function computeNextVestingScheduleIdForHolder(address holder)... */\n    tag_26:\n      tag_120\n      0x04\n      dup1\n      calldatasize\n      sub\n      dup2\n      add\n      swap1\n      tag_121\n      swap2\n      swap1\n      tag_40\n      jump\t// in\n    tag_121:\n      tag_122\n      jump\t// in\n    tag_120:\n      mload(0x40)\n      tag_123\n      swap2\n      swap1\n      tag_89\n      jump\t// in\n    tag_123:\n      mload(0x40)\n      dup1\n      swap2\n      sub\n      swap1\n      return\n        /* \"contracts/ico/PaymeTokenVesting.sol\":4414:4640  function getVestingIdAtIndex(uint256 index)... */\n    tag_27:\n      tag_124\n      0x04\n      dup1\n      calldatasize\n      sub\n      dup2\n      add\n      swap1\n      tag_125\n      swap2\n      swap1\n      tag_48\n      jump\t// in\n    tag_125:\n      tag_126\n      jump\t// in\n    tag_124:\n      mload(0x40)\n      tag_127\n      swap2\n      swap1\n      tag_89\n      jump\t// in\n    tag_127:\n      mload(0x40)\n      dup1\n      swap2\n      sub\n      swap1\n      return\n        /* \"contracts/ico/PaymeTokenVesting.sol\":9045:10332  function releaseTokenForTGE(bytes32 vestingScheduleId)... */\n    tag_28:\n      tag_128\n      0x04\n      dup1\n      calldatasize\n      sub\n      dup2\n      add\n      swap1\n      tag_129\n      swap2\n      swap1\n      tag_52\n      jump\t// in\n    tag_129:\n      tag_130\n      jump\t// in\n    tag_128:\n      stop\n        /* \"contracts/ico/PaymeTokenVesting.sol\":11658:11796  function getVestingSchedulesCount()... */\n    tag_35:\n        /* \"contracts/ico/PaymeTokenVesting.sol\":11738:11745  uint256 */\n      0x00\n        /* \"contracts/ico/PaymeTokenVesting.sol\":11763:11782  vestingSchedulesIds */\n      0x9a\n        /* \"contracts/ico/PaymeTokenVesting.sol\":11763:11789  vestingSchedulesIds.length */\n      dup1\n      sload\n      swap1\n      pop\n        /* \"contracts/ico/PaymeTokenVesting.sol\":11756:11789  return vestingSchedulesIds.length */\n      swap1\n      pop\n        /* \"contracts/ico/PaymeTokenVesting.sol\":11658:11796  function getVestingSchedulesCount()... */\n      swap1\n      jump\t// out\n        /* \"contracts/ico/PaymeTokenVesting.sol\":5314:5437  function setCrowdsaleAddress(address _crowdsales_address) external{... */\n    tag_41:\n        /* \"contracts/ico/PaymeTokenVesting.sol\":5411:5430  _crowdsales_address */\n      dup1\n        /* \"contracts/ico/PaymeTokenVesting.sol\":5390:5408  crowdsales_address */\n      0x9f\n      0x00\n        /* \"contracts/ico/PaymeTokenVesting.sol\":5390:5430  crowdsales_address = _crowdsales_address */\n      0x0100\n      exp\n      dup2\n      sload\n      dup2\n      0xffffffffffffffffffffffffffffffffffffffff\n      mul\n      not\n      and\n      swap1\n      dup4\n      0xffffffffffffffffffffffffffffffffffffffff\n      and\n      mul\n      or\n      swap1\n      sstore\n      pop\n        /* \"contracts/ico/PaymeTokenVesting.sol\":5314:5437  function setCrowdsaleAddress(address _crowdsales_address) external{... */\n      pop\n      jump\t// out\n        /* \"contracts/ico/PaymeTokenVesting.sol\":5546:5647  function getToken()... */\n    tag_43:\n        /* \"contracts/ico/PaymeTokenVesting.sol\":5600:5607  address */\n      0x00\n        /* \"contracts/ico/PaymeTokenVesting.sol\":5633:5639  _token */\n      0x97\n      0x00\n      swap1\n      sload\n      swap1\n      0x0100\n      exp\n      swap1\n      div\n      0xffffffffffffffffffffffffffffffffffffffff\n      and\n        /* \"contracts/ico/PaymeTokenVesting.sol\":5618:5640  return address(_token) */\n      swap1\n      pop\n        /* \"contracts/ico/PaymeTokenVesting.sol\":5546:5647  function getToken()... */\n      swap1\n      jump\t// out\n        /* \"contracts/ico/PaymeTokenVesting.sol\":8795:9039  function withdraw(uint256 amount)... */\n    tag_49:\n        /* \"@openzeppelin/contracts-upgradeable/security/ReentrancyGuardUpgradeable.sol\":1815:1816  2 */\n      0x02\n        /* \"@openzeppelin/contracts-upgradeable/security/ReentrancyGuardUpgradeable.sol\":2569:2576  _status */\n      sload(0x65)\n        /* \"@openzeppelin/contracts-upgradeable/security/ReentrancyGuardUpgradeable.sol\":2569:2588  _status != _ENTERED */\n      eq\n      iszero\n        /* \"@openzeppelin/contracts-upgradeable/security/ReentrancyGuardUpgradeable.sol\":2561:2624  require(_status != _ENTERED, \"ReentrancyGuard: reentrant call\") */\n      tag_135\n      jumpi\n      mload(0x40)\n      0x08c379a000000000000000000000000000000000000000000000000000000000\n      dup2\n      mstore\n      0x04\n      add\n      tag_136\n      swap1\n      tag_137\n      jump\t// in\n    tag_136:\n      mload(0x40)\n      dup1\n      swap2\n      sub\n      swap1\n      revert\n    tag_135:\n        /* \"@openzeppelin/contracts-upgradeable/security/ReentrancyGuardUpgradeable.sol\":1815:1816  2 */\n      0x02\n        /* \"@openzeppelin/contracts-upgradeable/security/ReentrancyGuardUpgradeable.sol\":2699:2706  _status */\n      0x65\n        /* \"@openzeppelin/contracts-upgradeable/security/ReentrancyGuardUpgradeable.sol\":2699:2717  _status = _ENTERED */\n      dup2\n      swap1\n      sstore\n      pop\n        /* \"@openzeppelin/contracts-upgradeable/access/OwnableUpgradeable.sol\":1334:1347  _checkOwner() */\n      tag_139\n        /* \"@openzeppelin/contracts-upgradeable/access/OwnableUpgradeable.sol\":1334:1345  _checkOwner */\n      tag_140\n        /* \"@openzeppelin/contracts-upgradeable/access/OwnableUpgradeable.sol\":1334:1347  _checkOwner() */\n      jump\t// in\n    tag_139:\n        /* \"contracts/ico/PaymeTokenVesting.sol\":8932:8938  amount */\n      dup1\n        /* \"contracts/ico/PaymeTokenVesting.sol\":8900:8904  this */\n      address\n        /* \"contracts/ico/PaymeTokenVesting.sol\":8900:8926  this.getWithdrawableAmount */\n      0xffffffffffffffffffffffffffffffffffffffff\n      and\n      0x90be10cc\n        /* \"contracts/ico/PaymeTokenVesting.sol\":8900:8928  this.getWithdrawableAmount() */\n      mload(0x40)\n      dup2\n      0xffffffff\n      and\n      0xe0\n      shl\n      dup2\n      mstore\n      0x04\n      add\n      0x20\n      mload(0x40)\n      dup1\n      dup4\n      sub\n      dup2\n      dup7\n      dup1\n      extcodesize\n      iszero\n      dup1\n      iszero\n      tag_142\n      jumpi\n      0x00\n      dup1\n      revert\n    tag_142:\n      pop\n      gas\n      staticcall\n      iszero\n      dup1\n      iszero\n      tag_144\n      jumpi\n      returndatasize\n      0x00\n      dup1\n      returndatacopy\n      revert(0x00, returndatasize)\n    tag_144:\n      pop\n      pop\n      pop\n      pop\n      mload(0x40)\n      returndatasize\n      not(0x1f)\n      0x1f\n      dup3\n      add\n      and\n      dup3\n      add\n      dup1\n      0x40\n      mstore\n      pop\n      dup2\n      add\n      swap1\n      tag_145\n      swap2\n      swap1\n      tag_146\n      jump\t// in\n    tag_145:\n        /* \"contracts/ico/PaymeTokenVesting.sol\":8900:8938  this.getWithdrawableAmount() >= amount */\n      lt\n      iszero\n        /* \"contracts/ico/PaymeTokenVesting.sol\":8892:8986  require(this.getWithdrawableAmount() >= amount, \"TokenVesting: not enough withdrawable funds\") */\n      tag_147\n      jumpi\n      mload(0x40)\n      0x08c379a000000000000000000000000000000000000000000000000000000000\n      dup2\n      mstore\n      0x04\n      add\n      tag_148\n      swap1\n      tag_149\n      jump\t// in\n    tag_148:\n      mload(0x40)\n      dup1\n      swap2\n      sub\n      swap1\n      revert\n    tag_147:\n        /* \"contracts/ico/PaymeTokenVesting.sol\":8996:9032  _token.safeTransfer(owner(), amount) */\n      tag_150\n        /* \"contracts/ico/PaymeTokenVesting.sol\":9016:9023  owner() */\n      tag_151\n        /* \"contracts/ico/PaymeTokenVesting.sol\":9016:9021  owner */\n      tag_91\n        /* \"contracts/ico/PaymeTokenVesting.sol\":9016:9023  owner() */\n      jump\t// in\n    tag_151:\n        /* \"contracts/ico/PaymeTokenVesting.sol\":9025:9031  amount */\n      dup3\n        /* \"contracts/ico/PaymeTokenVesting.sol\":8996:9002  _token */\n      0x97\n      0x00\n      swap1\n      sload\n      swap1\n      0x0100\n      exp\n      swap1\n      div\n      0xffffffffffffffffffffffffffffffffffffffff\n      and\n        /* \"contracts/ico/PaymeTokenVesting.sol\":8996:9015  _token.safeTransfer */\n      0xffffffffffffffffffffffffffffffffffffffff\n      and\n      tag_152\n      swap1\n        /* \"contracts/ico/PaymeTokenVesting.sol\":8996:9032  _token.safeTransfer(owner(), amount) */\n      swap3\n      swap2\n      swap1\n      0xffffffff\n      and\n      jump\t// in\n    tag_150:\n        /* \"@openzeppelin/contracts-upgradeable/security/ReentrancyGuardUpgradeable.sol\":1772:1773  1 */\n      0x01\n        /* \"@openzeppelin/contracts-upgradeable/security/ReentrancyGuardUpgradeable.sol\":2872:2879  _status */\n      0x65\n        /* \"@openzeppelin/contracts-upgradeable/security/ReentrancyGuardUpgradeable.sol\":2872:2894  _status = _NOT_ENTERED */\n      dup2\n      swap1\n      sstore\n      pop\n        /* \"contracts/ico/PaymeTokenVesting.sol\":8795:9039  function withdraw(uint256 amount)... */\n      pop\n      jump\t// out\n        /* \"contracts/ico/PaymeTokenVesting.sol\":2130:2185  mapping(bytes32 => uint256) public TGETokenParticipates */\n    tag_53:\n      mstore(0x20, 0x9e)\n      dup1\n      0x00\n      mstore\n      keccak256(0x00, 0x40)\n      0x00\n      swap2\n      pop\n      swap1\n      pop\n      sload\n      dup2\n      jump\t// out\n        /* \"contracts/ico/PaymeTokenVesting.sol\":1875:1904  uint256 public TGEOpeningTime */\n    tag_56:\n      sload(0x99)\n      dup2\n      jump\t// out\n        /* \"contracts/ico/PaymeTokenVesting.sol\":5172:5307  function getVestingSchedulesTotalAmount()... */\n    tag_59:\n        /* \"contracts/ico/PaymeTokenVesting.sol\":5248:5255  uint256 */\n      0x00\n        /* \"contracts/ico/PaymeTokenVesting.sol\":5273:5300  vestingSchedulesTotalAmount */\n      sload(0x9c)\n        /* \"contracts/ico/PaymeTokenVesting.sol\":5266:5300  return vestingSchedulesTotalAmount */\n      swap1\n      pop\n        /* \"contracts/ico/PaymeTokenVesting.sol\":5172:5307  function getVestingSchedulesTotalAmount()... */\n      swap1\n      jump\t// out\n        /* \"contracts/ico/PaymeTokenVesting.sol\":4133:4301  function getVestingSchedulesCountByBeneficiary(address _beneficiary)... */\n    tag_63:\n        /* \"contracts/ico/PaymeTokenVesting.sol\":4236:4243  uint256 */\n      0x00\n        /* \"contracts/ico/PaymeTokenVesting.sol\":4261:4280  holdersVestingCount */\n      0x9d\n        /* \"contracts/ico/PaymeTokenVesting.sol\":4261:4294  holdersVestingCount[_beneficiary] */\n      0x00\n        /* \"contracts/ico/PaymeTokenVesting.sol\":4281:4293  _beneficiary */\n      dup4\n        /* \"contracts/ico/PaymeTokenVesting.sol\":4261:4294  holdersVestingCount[_beneficiary] */\n      0xffffffffffffffffffffffffffffffffffffffff\n      and\n      0xffffffffffffffffffffffffffffffffffffffff\n      and\n      dup2\n      mstore\n      0x20\n      add\n      swap1\n      dup2\n      mstore\n      0x20\n      add\n      0x00\n      keccak256\n      sload\n        /* \"contracts/ico/PaymeTokenVesting.sol\":4254:4294  return holdersVestingCount[_beneficiary] */\n      swap1\n      pop\n        /* \"contracts/ico/PaymeTokenVesting.sol\":4133:4301  function getVestingSchedulesCountByBeneficiary(address _beneficiary)... */\n      swap2\n      swap1\n      pop\n      jump\t// out\n        /* \"contracts/ico/PaymeTokenVesting.sol\":10507:11514  function release(... */\n    tag_68:\n        /* \"@openzeppelin/contracts-upgradeable/security/ReentrancyGuardUpgradeable.sol\":1815:1816  2 */\n      0x02\n        /* \"@openzeppelin/contracts-upgradeable/security/ReentrancyGuardUpgradeable.sol\":2569:2576  _status */\n      sload(0x65)\n        /* \"@openzeppelin/contracts-upgradeable/security/ReentrancyGuardUpgradeable.sol\":2569:2588  _status != _ENTERED */\n      eq\n      iszero\n        /* \"@openzeppelin/contracts-upgradeable/security/ReentrancyGuardUpgradeable.sol\":2561:2624  require(_status != _ENTERED, \"ReentrancyGuard: reentrant call\") */\n      tag_156\n      jumpi\n      mload(0x40)\n      0x08c379a000000000000000000000000000000000000000000000000000000000\n      dup2\n      mstore\n      0x04\n      add\n      tag_157\n      swap1\n      tag_137\n      jump\t// in\n    tag_157:\n      mload(0x40)\n      dup1\n      swap2\n      sub\n      swap1\n      revert\n    tag_156:\n        /* \"@openzeppelin/contracts-upgradeable/security/ReentrancyGuardUpgradeable.sol\":1815:1816  2 */\n      0x02\n        /* \"@openzeppelin/contracts-upgradeable/security/ReentrancyGuardUpgradeable.sol\":2699:2706  _status */\n      0x65\n        /* \"@openzeppelin/contracts-upgradeable/security/ReentrancyGuardUpgradeable.sol\":2699:2717  _status = _ENTERED */\n      dup2\n      swap1\n      sstore\n      pop\n        /* \"contracts/ico/PaymeTokenVesting.sol\":10665:10682  vestingScheduleId */\n      dup2\n        /* \"contracts/ico/PaymeTokenVesting.sol\":2881:2885  true */\n      0x01\n        /* \"contracts/ico/PaymeTokenVesting.sol\":2830:2885  vestingSchedules[vestingScheduleId].initialized == true */\n      iszero\n      iszero\n        /* \"contracts/ico/PaymeTokenVesting.sol\":2830:2846  vestingSchedules */\n      0x9b\n        /* \"contracts/ico/PaymeTokenVesting.sol\":2830:2865  vestingSchedules[vestingScheduleId] */\n      0x00\n        /* \"contracts/ico/PaymeTokenVesting.sol\":2847:2864  vestingScheduleId */\n      dup4\n        /* \"contracts/ico/PaymeTokenVesting.sol\":2830:2865  vestingSchedules[vestingScheduleId] */\n      dup2\n      mstore\n      0x20\n      add\n      swap1\n      dup2\n      mstore\n      0x20\n      add\n      0x00\n      keccak256\n        /* \"contracts/ico/PaymeTokenVesting.sol\":2830:2877  vestingSchedules[vestingScheduleId].initialized */\n      0x00\n      add\n      0x00\n      swap1\n      sload\n      swap1\n      0x0100\n      exp\n      swap1\n      div\n      0xff\n      and\n        /* \"contracts/ico/PaymeTokenVesting.sol\":2830:2885  vestingSchedules[vestingScheduleId].initialized == true */\n      iszero\n      iszero\n      eq\n        /* \"contracts/ico/PaymeTokenVesting.sol\":2822:2886  require(vestingSchedules[vestingScheduleId].initialized == true) */\n      tag_159\n      jumpi\n      0x00\n      dup1\n      revert\n    tag_159:\n        /* \"contracts/ico/PaymeTokenVesting.sol\":2951:2956  false */\n      0x00\n        /* \"contracts/ico/PaymeTokenVesting.sol\":2904:2956  vestingSchedules[vestingScheduleId].revoked == false */\n      iszero\n      iszero\n        /* \"contracts/ico/PaymeTokenVesting.sol\":2904:2920  vestingSchedules */\n      0x9b\n        /* \"contracts/ico/PaymeTokenVesting.sol\":2904:2939  vestingSchedules[vestingScheduleId] */\n      0x00\n        /* \"contracts/ico/PaymeTokenVesting.sol\":2921:2938  vestingScheduleId */\n      dup4\n        /* \"contracts/ico/PaymeTokenVesting.sol\":2904:2939  vestingSchedules[vestingScheduleId] */\n      dup2\n      mstore\n      0x20\n      add\n      swap1\n      dup2\n      mstore\n      0x20\n      add\n      0x00\n      keccak256\n        /* \"contracts/ico/PaymeTokenVesting.sol\":2904:2947  vestingSchedules[vestingScheduleId].revoked */\n      0x08\n      add\n      0x00\n      swap1\n      sload\n      swap1\n      0x0100\n      exp\n      swap1\n      div\n      0xff\n      and\n        /* \"contracts/ico/PaymeTokenVesting.sol\":2904:2956  vestingSchedules[vestingScheduleId].revoked == false */\n      iszero\n      iszero\n      eq\n        /* \"contracts/ico/PaymeTokenVesting.sol\":2896:2957  require(vestingSchedules[vestingScheduleId].revoked == false) */\n      tag_160\n      jumpi\n      0x00\n      dup1\n      revert\n    tag_160:\n        /* \"contracts/ico/PaymeTokenVesting.sol\":10693:10732  VestingSchedule storage vestingSchedule */\n      0x00\n        /* \"contracts/ico/PaymeTokenVesting.sol\":10735:10751  vestingSchedules */\n      0x9b\n        /* \"contracts/ico/PaymeTokenVesting.sol\":10735:10770  vestingSchedules[vestingScheduleId] */\n      0x00\n        /* \"contracts/ico/PaymeTokenVesting.sol\":10752:10769  vestingScheduleId */\n      dup6\n        /* \"contracts/ico/PaymeTokenVesting.sol\":10735:10770  vestingSchedules[vestingScheduleId] */\n      dup2\n      mstore\n      0x20\n      add\n      swap1\n      dup2\n      mstore\n      0x20\n      add\n      0x00\n      keccak256\n        /* \"contracts/ico/PaymeTokenVesting.sol\":10693:10770  VestingSchedule storage vestingSchedule = vestingSchedules[vestingScheduleId] */\n      swap1\n      pop\n        /* \"contracts/ico/PaymeTokenVesting.sol\":10780:10798  bool isBeneficiary */\n      0x00\n        /* \"contracts/ico/PaymeTokenVesting.sol\":10815:10830  vestingSchedule */\n      dup2\n        /* \"contracts/ico/PaymeTokenVesting.sol\":10815:10842  vestingSchedule.beneficiary */\n      0x00\n      add\n      0x01\n      swap1\n      sload\n      swap1\n      0x0100\n      exp\n      swap1\n      div\n      0xffffffffffffffffffffffffffffffffffffffff\n      and\n        /* \"contracts/ico/PaymeTokenVesting.sol\":10801:10842  msg.sender == vestingSchedule.beneficiary */\n      0xffffffffffffffffffffffffffffffffffffffff\n      and\n        /* \"contracts/ico/PaymeTokenVesting.sol\":10801:10811  msg.sender */\n      caller\n        /* \"contracts/ico/PaymeTokenVesting.sol\":10801:10842  msg.sender == vestingSchedule.beneficiary */\n      0xffffffffffffffffffffffffffffffffffffffff\n      and\n      eq\n        /* \"contracts/ico/PaymeTokenVesting.sol\":10780:10842  bool isBeneficiary = msg.sender == vestingSchedule.beneficiary */\n      swap1\n      pop\n        /* \"contracts/ico/PaymeTokenVesting.sol\":10852:10864  bool isOwner */\n      0x00\n        /* \"contracts/ico/PaymeTokenVesting.sol\":10881:10888  owner() */\n      tag_162\n        /* \"contracts/ico/PaymeTokenVesting.sol\":10881:10886  owner */\n      tag_91\n        /* \"contracts/ico/PaymeTokenVesting.sol\":10881:10888  owner() */\n      jump\t// in\n    tag_162:\n        /* \"contracts/ico/PaymeTokenVesting.sol\":10867:10888  msg.sender == owner() */\n      0xffffffffffffffffffffffffffffffffffffffff\n      and\n        /* \"contracts/ico/PaymeTokenVesting.sol\":10867:10877  msg.sender */\n      caller\n        /* \"contracts/ico/PaymeTokenVesting.sol\":10867:10888  msg.sender == owner() */\n      0xffffffffffffffffffffffffffffffffffffffff\n      and\n      eq\n        /* \"contracts/ico/PaymeTokenVesting.sol\":10852:10888  bool isOwner = msg.sender == owner() */\n      swap1\n      pop\n        /* \"contracts/ico/PaymeTokenVesting.sol\":10919:10932  isBeneficiary */\n      dup2\n        /* \"contracts/ico/PaymeTokenVesting.sol\":10919:10943  isBeneficiary || isOwner */\n      dup1\n      tag_163\n      jumpi\n      pop\n        /* \"contracts/ico/PaymeTokenVesting.sol\":10936:10943  isOwner */\n      dup1\n        /* \"contracts/ico/PaymeTokenVesting.sol\":10919:10943  isBeneficiary || isOwner */\n    tag_163:\n        /* \"contracts/ico/PaymeTokenVesting.sol\":10898:11035  require(... */\n      tag_164\n      jumpi\n      mload(0x40)\n      0x08c379a000000000000000000000000000000000000000000000000000000000\n      dup2\n      mstore\n      0x04\n      add\n      tag_165\n      swap1\n      tag_166\n      jump\t// in\n    tag_165:\n      mload(0x40)\n      dup1\n      swap2\n      sub\n      swap1\n      revert\n    tag_164:\n        /* \"contracts/ico/PaymeTokenVesting.sol\":11045:11065  uint256 vestedAmount */\n      0x00\n        /* \"contracts/ico/PaymeTokenVesting.sol\":11068:11109  _computeReleasableAmount(vestingSchedule) */\n      tag_167\n        /* \"contracts/ico/PaymeTokenVesting.sol\":11093:11108  vestingSchedule */\n      dup5\n        /* \"contracts/ico/PaymeTokenVesting.sol\":11068:11109  _computeReleasableAmount(vestingSchedule) */\n      mload(0x40)\n      dup1\n      0x0160\n      add\n      0x40\n      mstore\n      swap1\n      dup2\n      0x00\n      dup3\n      add\n      0x00\n      swap1\n      sload\n      swap1\n      0x0100\n      exp\n      swap1\n      div\n      0xff\n      and\n      iszero\n      iszero\n      iszero\n      iszero\n      dup2\n      mstore\n      0x20\n      add\n      0x00\n      dup3\n      add\n      0x01\n      swap1\n      sload\n      swap1\n      0x0100\n      exp\n      swap1\n      div\n      0xffffffffffffffffffffffffffffffffffffffff\n      and\n      0xffffffffffffffffffffffffffffffffffffffff\n      and\n      0xffffffffffffffffffffffffffffffffffffffff\n      and\n      dup2\n      mstore\n      0x20\n      add\n      0x01\n      dup3\n      add\n      sload\n      dup2\n      mstore\n      0x20\n      add\n      0x02\n      dup3\n      add\n      sload\n      dup2\n      mstore\n      0x20\n      add\n      0x03\n      dup3\n      add\n      sload\n      dup2\n      mstore\n      0x20\n      add\n      0x04\n      dup3\n      add\n      sload\n      dup2\n      mstore\n      0x20\n      add\n      0x05\n      dup3\n      add\n      0x00\n      swap1\n      sload\n      swap1\n      0x0100\n      exp\n      swap1\n      div\n      0xff\n      and\n      iszero\n      iszero\n      iszero\n      iszero\n      dup2\n      mstore\n      0x20\n      add\n      0x06\n      dup3\n      add\n      sload\n      dup2\n      mstore\n      0x20\n      add\n      0x07\n      dup3\n      add\n      sload\n      dup2\n      mstore\n      0x20\n      add\n      0x08\n      dup3\n      add\n      0x00\n      swap1\n      sload\n      swap1\n      0x0100\n      exp\n      swap1\n      div\n      0xff\n      and\n      iszero\n      iszero\n      iszero\n      iszero\n      dup2\n      mstore\n      0x20\n      add\n      0x08\n      dup3\n      add\n      0x01\n      swap1\n      sload\n      swap1\n      0x0100\n      exp\n      swap1\n      div\n      0xff\n      and\n      iszero\n      iszero\n      iszero\n      iszero\n      dup2\n      mstore\n      pop\n      pop\n        /* \"contracts/ico/PaymeTokenVesting.sol\":11068:11092  _computeReleasableAmount */\n      tag_168\n        /* \"contracts/ico/PaymeTokenVesting.sol\":11068:11109  _computeReleasableAmount(vestingSchedule) */\n      jump\t// in\n    tag_167:\n        /* \"contracts/ico/PaymeTokenVesting.sol\":11045:11109  uint256 vestedAmount = _computeReleasableAmount(vestingSchedule) */\n      swap1\n      pop\n        /* \"contracts/ico/PaymeTokenVesting.sol\":11143:11149  amount */\n      dup6\n        /* \"contracts/ico/PaymeTokenVesting.sol\":11127:11139  vestedAmount */\n      dup2\n        /* \"contracts/ico/PaymeTokenVesting.sol\":11127:11149  vestedAmount >= amount */\n      lt\n      iszero\n        /* \"contracts/ico/PaymeTokenVesting.sol\":11119:11215  require(vestedAmount >= amount, \"TokenVesting: cannot release tokens, not enough vested tokens\") */\n      tag_169\n      jumpi\n      mload(0x40)\n      0x08c379a000000000000000000000000000000000000000000000000000000000\n      dup2\n      mstore\n      0x04\n      add\n      tag_170\n      swap1\n      tag_171\n      jump\t// in\n    tag_170:\n      mload(0x40)\n      dup1\n      swap2\n      sub\n      swap1\n      revert\n    tag_169:\n        /* \"contracts/ico/PaymeTokenVesting.sol\":11252:11288  vestingSchedule.released.add(amount) */\n      tag_172\n        /* \"contracts/ico/PaymeTokenVesting.sol\":11281:11287  amount */\n      dup7\n        /* \"contracts/ico/PaymeTokenVesting.sol\":11252:11267  vestingSchedule */\n      dup6\n        /* \"contracts/ico/PaymeTokenVesting.sol\":11252:11276  vestingSchedule.released */\n      0x07\n      add\n      sload\n        /* \"contracts/ico/PaymeTokenVesting.sol\":11252:11280  vestingSchedule.released.add */\n      tag_173\n      swap1\n        /* \"contracts/ico/PaymeTokenVesting.sol\":11252:11288  vestingSchedule.released.add(amount) */\n      swap2\n      swap1\n      0xffffffff\n      and\n      jump\t// in\n    tag_172:\n        /* \"contracts/ico/PaymeTokenVesting.sol\":11225:11240  vestingSchedule */\n      dup5\n        /* \"contracts/ico/PaymeTokenVesting.sol\":11225:11249  vestingSchedule.released */\n      0x07\n      add\n        /* \"contracts/ico/PaymeTokenVesting.sol\":11225:11288  vestingSchedule.released = vestingSchedule.released.add(amount) */\n      dup2\n      swap1\n      sstore\n      pop\n        /* \"contracts/ico/PaymeTokenVesting.sol\":11298:11332  address payable beneficiaryPayable */\n      0x00\n        /* \"contracts/ico/PaymeTokenVesting.sol\":11343:11358  vestingSchedule */\n      dup5\n        /* \"contracts/ico/PaymeTokenVesting.sol\":11343:11370  vestingSchedule.beneficiary */\n      0x00\n      add\n      0x01\n      swap1\n      sload\n      swap1\n      0x0100\n      exp\n      swap1\n      div\n      0xffffffffffffffffffffffffffffffffffffffff\n      and\n        /* \"contracts/ico/PaymeTokenVesting.sol\":11298:11371  address payable beneficiaryPayable = payable(vestingSchedule.beneficiary) */\n      swap1\n      pop\n        /* \"contracts/ico/PaymeTokenVesting.sol\":11411:11450  vestingSchedulesTotalAmount.sub(amount) */\n      tag_174\n        /* \"contracts/ico/PaymeTokenVesting.sol\":11443:11449  amount */\n      dup8\n        /* \"contracts/ico/PaymeTokenVesting.sol\":11411:11438  vestingSchedulesTotalAmount */\n      sload(0x9c)\n        /* \"contracts/ico/PaymeTokenVesting.sol\":11411:11442  vestingSchedulesTotalAmount.sub */\n      tag_175\n      swap1\n        /* \"contracts/ico/PaymeTokenVesting.sol\":11411:11450  vestingSchedulesTotalAmount.sub(amount) */\n      swap2\n      swap1\n      0xffffffff\n      and\n      jump\t// in\n    tag_174:\n        /* \"contracts/ico/PaymeTokenVesting.sol\":11381:11408  vestingSchedulesTotalAmount */\n      0x9c\n        /* \"contracts/ico/PaymeTokenVesting.sol\":11381:11450  vestingSchedulesTotalAmount = vestingSchedulesTotalAmount.sub(amount) */\n      dup2\n      swap1\n      sstore\n      pop\n        /* \"contracts/ico/PaymeTokenVesting.sol\":11460:11507  _token.safeTransfer(beneficiaryPayable, amount) */\n      tag_176\n        /* \"contracts/ico/PaymeTokenVesting.sol\":11480:11498  beneficiaryPayable */\n      dup2\n        /* \"contracts/ico/PaymeTokenVesting.sol\":11500:11506  amount */\n      dup9\n        /* \"contracts/ico/PaymeTokenVesting.sol\":11460:11466  _token */\n      0x97\n      0x00\n      swap1\n      sload\n      swap1\n      0x0100\n      exp\n      swap1\n      div\n      0xffffffffffffffffffffffffffffffffffffffff\n      and\n        /* \"contracts/ico/PaymeTokenVesting.sol\":11460:11479  _token.safeTransfer */\n      0xffffffffffffffffffffffffffffffffffffffff\n      and\n      tag_152\n      swap1\n        /* \"contracts/ico/PaymeTokenVesting.sol\":11460:11507  _token.safeTransfer(beneficiaryPayable, amount) */\n      swap3\n      swap2\n      swap1\n      0xffffffff\n      and\n      jump\t// in\n    tag_176:\n        /* \"contracts/ico/PaymeTokenVesting.sol\":10683:11514  {... */\n      pop\n      pop\n      pop\n      pop\n      pop\n        /* \"@openzeppelin/contracts-upgradeable/security/ReentrancyGuardUpgradeable.sol\":2728:2729  _ */\n      pop\n        /* \"@openzeppelin/contracts-upgradeable/security/ReentrancyGuardUpgradeable.sol\":1772:1773  1 */\n      0x01\n        /* \"@openzeppelin/contracts-upgradeable/security/ReentrancyGuardUpgradeable.sol\":2872:2879  _status */\n      0x65\n        /* \"@openzeppelin/contracts-upgradeable/security/ReentrancyGuardUpgradeable.sol\":2872:2894  _status = _NOT_ENTERED */\n      dup2\n      swap1\n      sstore\n      pop\n        /* \"contracts/ico/PaymeTokenVesting.sol\":10507:11514  function release(... */\n      pop\n      pop\n      jump\t// out\n        /* \"@openzeppelin/contracts-upgradeable/access/OwnableUpgradeable.sol\":2071:2172  function renounceOwnership() public virtual onlyOwner {... */\n    tag_70:\n        /* \"@openzeppelin/contracts-upgradeable/access/OwnableUpgradeable.sol\":1334:1347  _checkOwner() */\n      tag_178\n        /* \"@openzeppelin/contracts-upgradeable/access/OwnableUpgradeable.sol\":1334:1345  _checkOwner */\n      tag_140\n        /* \"@openzeppelin/contracts-upgradeable/access/OwnableUpgradeable.sol\":1334:1347  _checkOwner() */\n      jump\t// in\n    tag_178:\n        /* \"@openzeppelin/contracts-upgradeable/access/OwnableUpgradeable.sol\":2135:2165  _transferOwnership(address(0)) */\n      tag_180\n        /* \"@openzeppelin/contracts-upgradeable/access/OwnableUpgradeable.sol\":2162:2163  0 */\n      0x00\n        /* \"@openzeppelin/contracts-upgradeable/access/OwnableUpgradeable.sol\":2135:2153  _transferOwnership */\n      tag_181\n        /* \"@openzeppelin/contracts-upgradeable/access/OwnableUpgradeable.sol\":2135:2165  _transferOwnership(address(0)) */\n      jump\t// in\n    tag_180:\n        /* \"@openzeppelin/contracts-upgradeable/access/OwnableUpgradeable.sol\":2071:2172  function renounceOwnership() public virtual onlyOwner {... */\n      jump\t// out\n        /* \"contracts/ico/PaymeTokenVesting.sol\":3552:3907  function initialize(IERC20Upgradeable token_,uint256 TGEPercent_,uint256 TGEOpeningTime_) public initializer {... */\n    tag_74:\n        /* \"@openzeppelin/contracts-upgradeable/proxy/utils/Initializable.sol\":3111:3130  bool isTopLevelCall */\n      0x00\n        /* \"@openzeppelin/contracts-upgradeable/proxy/utils/Initializable.sol\":3134:3147  _initializing */\n      dup1\n      0x01\n      swap1\n      sload\n      swap1\n      0x0100\n      exp\n      swap1\n      div\n      0xff\n      and\n        /* \"@openzeppelin/contracts-upgradeable/proxy/utils/Initializable.sol\":3133:3147  !_initializing */\n      iszero\n        /* \"@openzeppelin/contracts-upgradeable/proxy/utils/Initializable.sol\":3111:3147  bool isTopLevelCall = !_initializing */\n      swap1\n      pop\n        /* \"@openzeppelin/contracts-upgradeable/proxy/utils/Initializable.sol\":3179:3193  isTopLevelCall */\n      dup1\n        /* \"@openzeppelin/contracts-upgradeable/proxy/utils/Initializable.sol\":3179:3213  isTopLevelCall && _initialized < 1 */\n      dup1\n      iszero\n      tag_183\n      jumpi\n      pop\n        /* \"@openzeppelin/contracts-upgradeable/proxy/utils/Initializable.sol\":3212:3213  1 */\n      0x01\n        /* \"@openzeppelin/contracts-upgradeable/proxy/utils/Initializable.sol\":3197:3209  _initialized */\n      0x00\n      dup1\n      sload\n      swap1\n      0x0100\n      exp\n      swap1\n      div\n      0xff\n      and\n        /* \"@openzeppelin/contracts-upgradeable/proxy/utils/Initializable.sol\":3197:3213  _initialized < 1 */\n      0xff\n      and\n      lt\n        /* \"@openzeppelin/contracts-upgradeable/proxy/utils/Initializable.sol\":3179:3213  isTopLevelCall && _initialized < 1 */\n    tag_183:\n        /* \"@openzeppelin/contracts-upgradeable/proxy/utils/Initializable.sol\":3178:3286  (isTopLevelCall && _initialized < 1) || (!AddressUpgradeable.isContract(address(this)) && _initialized == 1) */\n      dup1\n      tag_184\n      jumpi\n      pop\n        /* \"@openzeppelin/contracts-upgradeable/proxy/utils/Initializable.sol\":3220:3264  AddressUpgradeable.isContract(address(this)) */\n      tag_185\n        /* \"@openzeppelin/contracts-upgradeable/proxy/utils/Initializable.sol\":3258:3262  this */\n      address\n        /* \"@openzeppelin/contracts-upgradeable/proxy/utils/Initializable.sol\":3220:3249  AddressUpgradeable.isContract */\n      tag_186\n        /* \"@openzeppelin/contracts-upgradeable/proxy/utils/Initializable.sol\":3220:3264  AddressUpgradeable.isContract(address(this)) */\n      jump\t// in\n    tag_185:\n        /* \"@openzeppelin/contracts-upgradeable/proxy/utils/Initializable.sol\":3219:3264  !AddressUpgradeable.isContract(address(this)) */\n      iszero\n        /* \"@openzeppelin/contracts-upgradeable/proxy/utils/Initializable.sol\":3219:3285  !AddressUpgradeable.isContract(address(this)) && _initialized == 1 */\n      dup1\n      iszero\n      tag_187\n      jumpi\n      pop\n        /* \"@openzeppelin/contracts-upgradeable/proxy/utils/Initializable.sol\":3284:3285  1 */\n      0x01\n        /* \"@openzeppelin/contracts-upgradeable/proxy/utils/Initializable.sol\":3268:3280  _initialized */\n      0x00\n      dup1\n      sload\n      swap1\n      0x0100\n      exp\n      swap1\n      div\n      0xff\n      and\n        /* \"@openzeppelin/contracts-upgradeable/proxy/utils/Initializable.sol\":3268:3285  _initialized == 1 */\n      0xff\n      and\n      eq\n        /* \"@openzeppelin/contracts-upgradeable/proxy/utils/Initializable.sol\":3219:3285  !AddressUpgradeable.isContract(address(this)) && _initialized == 1 */\n    tag_187:\n        /* \"@openzeppelin/contracts-upgradeable/proxy/utils/Initializable.sol\":3178:3286  (isTopLevelCall && _initialized < 1) || (!AddressUpgradeable.isContract(address(this)) && _initialized == 1) */\n    tag_184:\n        /* \"@openzeppelin/contracts-upgradeable/proxy/utils/Initializable.sol\":3157:3358  require(... */\n      tag_188\n      jumpi\n      mload(0x40)\n      0x08c379a000000000000000000000000000000000000000000000000000000000\n      dup2\n      mstore\n      0x04\n      add\n      tag_189\n      swap1\n      tag_190\n      jump\t// in\n    tag_189:\n      mload(0x40)\n      dup1\n      swap2\n      sub\n      swap1\n      revert\n    tag_188:\n        /* \"@openzeppelin/contracts-upgradeable/proxy/utils/Initializable.sol\":3383:3384  1 */\n      0x01\n        /* \"@openzeppelin/contracts-upgradeable/proxy/utils/Initializable.sol\":3368:3380  _initialized */\n      0x00\n      dup1\n        /* \"@openzeppelin/contracts-upgradeable/proxy/utils/Initializable.sol\":3368:3384  _initialized = 1 */\n      0x0100\n      exp\n      dup2\n      sload\n      dup2\n      0xff\n      mul\n      not\n      and\n      swap1\n      dup4\n      0xff\n      and\n      mul\n      or\n      swap1\n      sstore\n      pop\n        /* \"@openzeppelin/contracts-upgradeable/proxy/utils/Initializable.sol\":3398:3412  isTopLevelCall */\n      dup1\n        /* \"@openzeppelin/contracts-upgradeable/proxy/utils/Initializable.sol\":3394:3459  if (isTopLevelCall) {... */\n      iszero\n      tag_191\n      jumpi\n        /* \"@openzeppelin/contracts-upgradeable/proxy/utils/Initializable.sol\":3444:3448  true */\n      0x01\n        /* \"@openzeppelin/contracts-upgradeable/proxy/utils/Initializable.sol\":3428:3441  _initializing */\n      0x00\n      0x01\n        /* \"@openzeppelin/contracts-upgradeable/proxy/utils/Initializable.sol\":3428:3448  _initializing = true */\n      0x0100\n      exp\n      dup2\n      sload\n      dup2\n      0xff\n      mul\n      not\n      and\n      swap1\n      dup4\n      iszero\n      iszero\n      mul\n      or\n      swap1\n      sstore\n      pop\n        /* \"@openzeppelin/contracts-upgradeable/proxy/utils/Initializable.sol\":3394:3459  if (isTopLevelCall) {... */\n    tag_191:\n        /* \"contracts/ico/PaymeTokenVesting.sol\":3706:3707  0 */\n      0x00\n        /* \"contracts/ico/PaymeTokenVesting.sol\":3679:3708  address(token_) != address(0) */\n      0xffffffffffffffffffffffffffffffffffffffff\n      and\n        /* \"contracts/ico/PaymeTokenVesting.sol\":3687:3693  token_ */\n      dup5\n        /* \"contracts/ico/PaymeTokenVesting.sol\":3679:3708  address(token_) != address(0) */\n      0xffffffffffffffffffffffffffffffffffffffff\n      and\n      eq\n      iszero\n        /* \"contracts/ico/PaymeTokenVesting.sol\":3671:3709  require(address(token_) != address(0)) */\n      tag_193\n      jumpi\n      0x00\n      dup1\n      revert\n    tag_193:\n        /* \"contracts/ico/PaymeTokenVesting.sol\":3719:3745  __Ownable_init_unchained() */\n      tag_194\n        /* \"contracts/ico/PaymeTokenVesting.sol\":3719:3743  __Ownable_init_unchained */\n      tag_195\n        /* \"contracts/ico/PaymeTokenVesting.sol\":3719:3745  __Ownable_init_unchained() */\n      jump\t// in\n    tag_194:\n        /* \"contracts/ico/PaymeTokenVesting.sol\":3755:3789  __ReentrancyGuard_init_unchained() */\n      tag_196\n        /* \"contracts/ico/PaymeTokenVesting.sol\":3755:3787  __ReentrancyGuard_init_unchained */\n      tag_197\n        /* \"contracts/ico/PaymeTokenVesting.sol\":3755:3789  __ReentrancyGuard_init_unchained() */\n      jump\t// in\n    tag_196:\n        /* \"contracts/ico/PaymeTokenVesting.sol\":3817:3823  token_ */\n      dup4\n        /* \"contracts/ico/PaymeTokenVesting.sol\":3808:3814  _token */\n      0x97\n      0x00\n        /* \"contracts/ico/PaymeTokenVesting.sol\":3808:3823  _token = token_ */\n      0x0100\n      exp\n      dup2\n      sload\n      dup2\n      0xffffffffffffffffffffffffffffffffffffffff\n      mul\n      not\n      and\n      swap1\n      dup4\n      0xffffffffffffffffffffffffffffffffffffffff\n      and\n      mul\n      or\n      swap1\n      sstore\n      pop\n        /* \"contracts/ico/PaymeTokenVesting.sol\":3851:3866  TGEOpeningTime_ */\n      dup2\n        /* \"contracts/ico/PaymeTokenVesting.sol\":3834:3848  TGEOpeningTime */\n      0x99\n        /* \"contracts/ico/PaymeTokenVesting.sol\":3834:3866  TGEOpeningTime = TGEOpeningTime_ */\n      dup2\n      swap1\n      sstore\n      pop\n        /* \"contracts/ico/PaymeTokenVesting.sol\":3889:3900  TGEPercent_ */\n      dup3\n        /* \"contracts/ico/PaymeTokenVesting.sol\":3876:3886  TGEPercent */\n      0x98\n        /* \"contracts/ico/PaymeTokenVesting.sol\":3876:3900  TGEPercent = TGEPercent_ */\n      dup2\n      swap1\n      sstore\n      pop\n        /* \"@openzeppelin/contracts-upgradeable/proxy/utils/Initializable.sol\":3483:3497  isTopLevelCall */\n      dup1\n        /* \"@openzeppelin/contracts-upgradeable/proxy/utils/Initializable.sol\":3479:3578  if (isTopLevelCall) {... */\n      iszero\n      tag_198\n      jumpi\n        /* \"@openzeppelin/contracts-upgradeable/proxy/utils/Initializable.sol\":3529:3534  false */\n      0x00\n        /* \"@openzeppelin/contracts-upgradeable/proxy/utils/Initializable.sol\":3513:3526  _initializing */\n      dup1\n      0x01\n        /* \"@openzeppelin/contracts-upgradeable/proxy/utils/Initializable.sol\":3513:3534  _initializing = false */\n      0x0100\n      exp\n      dup2\n      sload\n      dup2\n      0xff\n      mul\n      not\n      and\n      swap1\n      dup4\n      iszero\n      iszero\n      mul\n      or\n      swap1\n      sstore\n      pop\n        /* \"@openzeppelin/contracts-upgradeable/proxy/utils/Initializable.sol\":3553:3567  Initialized(1) */\n      0x7f26b83ff96e1f2b6a682f133852f6798a09c465da95921460cefb3847402498\n        /* \"@openzeppelin/contracts-upgradeable/proxy/utils/Initializable.sol\":3565:3566  1 */\n      0x01\n        /* \"@openzeppelin/contracts-upgradeable/proxy/utils/Initializable.sol\":3553:3567  Initialized(1) */\n      mload(0x40)\n      tag_199\n      swap2\n      swap1\n      tag_200\n      jump\t// in\n    tag_199:\n      mload(0x40)\n      dup1\n      swap2\n      sub\n      swap1\n      log1\n        /* \"@openzeppelin/contracts-upgradeable/proxy/utils/Initializable.sol\":3479:3578  if (isTopLevelCall) {... */\n    tag_198:\n        /* \"@openzeppelin/contracts-upgradeable/proxy/utils/Initializable.sol\":3101:3584  {... */\n      pop\n        /* \"contracts/ico/PaymeTokenVesting.sol\":3552:3907  function initialize(IERC20Upgradeable token_,uint256 TGEPercent_,uint256 TGEOpeningTime_) public initializer {... */\n      pop\n      pop\n      pop\n      jump\t// out\n        /* \"contracts/ico/PaymeTokenVesting.sol\":6287:7824  function createVestingSchedule(... */\n    tag_78:\n        /* \"contracts/ico/PaymeTokenVesting.sol\":3057:3075  crowdsales_address */\n      0x9f\n      0x00\n      swap1\n      sload\n      swap1\n      0x0100\n      exp\n      swap1\n      div\n      0xffffffffffffffffffffffffffffffffffffffff\n      and\n        /* \"contracts/ico/PaymeTokenVesting.sol\":3043:3075  msg.sender == crowdsales_address */\n      0xffffffffffffffffffffffffffffffffffffffff\n      and\n        /* \"contracts/ico/PaymeTokenVesting.sol\":3043:3053  msg.sender */\n      caller\n        /* \"contracts/ico/PaymeTokenVesting.sol\":3043:3075  msg.sender == crowdsales_address */\n      0xffffffffffffffffffffffffffffffffffffffff\n      and\n      eq\n        /* \"contracts/ico/PaymeTokenVesting.sol\":3043:3112  msg.sender == crowdsales_address ||... */\n      dup1\n      tag_202\n      jumpi\n      pop\n        /* \"contracts/ico/PaymeTokenVesting.sol\":3105:3112  owner() */\n      tag_203\n        /* \"contracts/ico/PaymeTokenVesting.sol\":3105:3110  owner */\n      tag_91\n        /* \"contracts/ico/PaymeTokenVesting.sol\":3105:3112  owner() */\n      jump\t// in\n    tag_203:\n        /* \"contracts/ico/PaymeTokenVesting.sol\":3091:3112  msg.sender == owner() */\n      0xffffffffffffffffffffffffffffffffffffffff\n      and\n        /* \"contracts/ico/PaymeTokenVesting.sol\":3091:3101  msg.sender */\n      caller\n        /* \"contracts/ico/PaymeTokenVesting.sol\":3091:3112  msg.sender == owner() */\n      0xffffffffffffffffffffffffffffffffffffffff\n      and\n      eq\n        /* \"contracts/ico/PaymeTokenVesting.sol\":3043:3112  msg.sender == crowdsales_address ||... */\n    tag_202:\n        /* \"contracts/ico/PaymeTokenVesting.sol\":3022:3125  require(... */\n      tag_204\n      jumpi\n      mload(0x40)\n      0x08c379a000000000000000000000000000000000000000000000000000000000\n      dup2\n      mstore\n      0x04\n      add\n      tag_205\n      swap1\n      tag_206\n      jump\t// in\n    tag_205:\n      mload(0x40)\n      dup1\n      swap2\n      sub\n      swap1\n      revert\n    tag_204:\n        /* \"contracts/ico/PaymeTokenVesting.sol\":6638:6645  _amount */\n      dup2\n        /* \"contracts/ico/PaymeTokenVesting.sol\":6606:6610  this */\n      address\n        /* \"contracts/ico/PaymeTokenVesting.sol\":6606:6632  this.getWithdrawableAmount */\n      0xffffffffffffffffffffffffffffffffffffffff\n      and\n      0x90be10cc\n        /* \"contracts/ico/PaymeTokenVesting.sol\":6606:6634  this.getWithdrawableAmount() */\n      mload(0x40)\n      dup2\n      0xffffffff\n      and\n      0xe0\n      shl\n      dup2\n      mstore\n      0x04\n      add\n      0x20\n      mload(0x40)\n      dup1\n      dup4\n      sub\n      dup2\n      dup7\n      dup1\n      extcodesize\n      iszero\n      dup1\n      iszero\n      tag_208\n      jumpi\n      0x00\n      dup1\n      revert\n    tag_208:\n      pop\n      gas\n      staticcall\n      iszero\n      dup1\n      iszero\n      tag_210\n      jumpi\n      returndatasize\n      0x00\n      dup1\n      returndatacopy\n      revert(0x00, returndatasize)\n    tag_210:\n      pop\n      pop\n      pop\n      pop\n      mload(0x40)\n      returndatasize\n      not(0x1f)\n      0x1f\n      dup3\n      add\n      and\n      dup3\n      add\n      dup1\n      0x40\n      mstore\n      pop\n      dup2\n      add\n      swap1\n      tag_211\n      swap2\n      swap1\n      tag_146\n      jump\t// in\n    tag_211:\n        /* \"contracts/ico/PaymeTokenVesting.sol\":6606:6645  this.getWithdrawableAmount() >= _amount */\n      lt\n      iszero\n        /* \"contracts/ico/PaymeTokenVesting.sol\":6585:6745  require(... */\n      tag_212\n      jumpi\n      mload(0x40)\n      0x08c379a000000000000000000000000000000000000000000000000000000000\n      dup2\n      mstore\n      0x04\n      add\n      tag_213\n      swap1\n      tag_214\n      jump\t// in\n    tag_213:\n      mload(0x40)\n      dup1\n      swap2\n      sub\n      swap1\n      revert\n    tag_212:\n        /* \"contracts/ico/PaymeTokenVesting.sol\":6775:6776  0 */\n      0x00\n        /* \"contracts/ico/PaymeTokenVesting.sol\":6763:6772  _duration */\n      dup6\n        /* \"contracts/ico/PaymeTokenVesting.sol\":6763:6776  _duration > 0 */\n      gt\n        /* \"contracts/ico/PaymeTokenVesting.sol\":6755:6815  require(_duration > 0, \"TokenVesting: duration must be > 0\") */\n      tag_215\n      jumpi\n      mload(0x40)\n      0x08c379a000000000000000000000000000000000000000000000000000000000\n      dup2\n      mstore\n      0x04\n      add\n      tag_216\n      swap1\n      tag_217\n      jump\t// in\n    tag_216:\n      mload(0x40)\n      dup1\n      swap2\n      sub\n      swap1\n      revert\n    tag_215:\n        /* \"contracts/ico/PaymeTokenVesting.sol\":6843:6844  0 */\n      0x00\n        /* \"contracts/ico/PaymeTokenVesting.sol\":6833:6840  _amount */\n      dup3\n        /* \"contracts/ico/PaymeTokenVesting.sol\":6833:6844  _amount > 0 */\n      gt\n        /* \"contracts/ico/PaymeTokenVesting.sol\":6825:6881  require(_amount > 0, \"TokenVesting: amount must be > 0\") */\n      tag_218\n      jumpi\n      mload(0x40)\n      0x08c379a000000000000000000000000000000000000000000000000000000000\n      dup2\n      mstore\n      0x04\n      add\n      tag_219\n      swap1\n      tag_220\n      jump\t// in\n    tag_219:\n      mload(0x40)\n      dup1\n      swap2\n      sub\n      swap1\n      revert\n    tag_218:\n        /* \"contracts/ico/PaymeTokenVesting.sol\":6922:6923  1 */\n      0x01\n        /* \"contracts/ico/PaymeTokenVesting.sol\":6899:6918  _slicePeriodSeconds */\n      dup5\n        /* \"contracts/ico/PaymeTokenVesting.sol\":6899:6923  _slicePeriodSeconds >= 1 */\n      lt\n      iszero\n        /* \"contracts/ico/PaymeTokenVesting.sol\":6891:6973  require(_slicePeriodSeconds >= 1, \"TokenVesting: slicePeriodSeconds must be >= 1\") */\n      tag_221\n      jumpi\n      mload(0x40)\n      0x08c379a000000000000000000000000000000000000000000000000000000000\n      dup2\n      mstore\n      0x04\n      add\n      tag_222\n      swap1\n      tag_223\n      jump\t// in\n    tag_222:\n      mload(0x40)\n      dup1\n      swap2\n      sub\n      swap1\n      revert\n    tag_221:\n        /* \"contracts/ico/PaymeTokenVesting.sol\":6983:7008  bytes32 vestingScheduleId */\n      0x00\n        /* \"contracts/ico/PaymeTokenVesting.sol\":7011:7015  this */\n      address\n        /* \"contracts/ico/PaymeTokenVesting.sol\":7011:7053  this.computeNextVestingScheduleIdForHolder */\n      0xffffffffffffffffffffffffffffffffffffffff\n      and\n      0xf7c469f0\n        /* \"contracts/ico/PaymeTokenVesting.sol\":7054:7066  _beneficiary */\n      dup11\n        /* \"contracts/ico/PaymeTokenVesting.sol\":7011:7067  this.computeNextVestingScheduleIdForHolder(_beneficiary) */\n      mload(0x40)\n      dup3\n      0xffffffff\n      and\n      0xe0\n      shl\n      dup2\n      mstore\n      0x04\n      add\n      tag_224\n      swap2\n      swap1\n      tag_45\n      jump\t// in\n    tag_224:\n      0x20\n      mload(0x40)\n      dup1\n      dup4\n      sub\n      dup2\n      dup7\n      dup1\n      extcodesize\n      iszero\n      dup1\n      iszero\n      tag_225\n      jumpi\n      0x00\n      dup1\n      revert\n    tag_225:\n      pop\n      gas\n      staticcall\n      iszero\n      dup1\n      iszero\n      tag_227\n      jumpi\n      returndatasize\n      0x00\n      dup1\n      returndatacopy\n      revert(0x00, returndatasize)\n    tag_227:\n      pop\n      pop\n      pop\n      pop\n      mload(0x40)\n      returndatasize\n      not(0x1f)\n      0x1f\n      dup3\n      add\n      and\n      dup3\n      add\n      dup1\n      0x40\n      mstore\n      pop\n      dup2\n      add\n      swap1\n      tag_228\n      swap2\n      swap1\n      tag_229\n      jump\t// in\n    tag_228:\n        /* \"contracts/ico/PaymeTokenVesting.sol\":6983:7067  bytes32 vestingScheduleId = this.computeNextVestingScheduleIdForHolder(_beneficiary) */\n      swap1\n      pop\n        /* \"contracts/ico/PaymeTokenVesting.sol\":7077:7090  uint256 cliff */\n      0x00\n        /* \"contracts/ico/PaymeTokenVesting.sol\":7093:7111  _start.add(_cliff) */\n      tag_230\n        /* \"contracts/ico/PaymeTokenVesting.sol\":7104:7110  _cliff */\n      dup9\n        /* \"contracts/ico/PaymeTokenVesting.sol\":7093:7099  _start */\n      dup11\n        /* \"contracts/ico/PaymeTokenVesting.sol\":7093:7103  _start.add */\n      tag_173\n      swap1\n        /* \"contracts/ico/PaymeTokenVesting.sol\":7093:7111  _start.add(_cliff) */\n      swap2\n      swap1\n      0xffffffff\n      and\n      jump\t// in\n    tag_230:\n        /* \"contracts/ico/PaymeTokenVesting.sol\":7077:7111  uint256 cliff = _start.add(_cliff) */\n      swap1\n      pop\n        /* \"contracts/ico/PaymeTokenVesting.sol\":7159:7429  VestingSchedule(... */\n      mload(0x40)\n      dup1\n      0x0160\n      add\n      0x40\n      mstore\n      dup1\n        /* \"contracts/ico/PaymeTokenVesting.sol\":7188:7192  true */\n      0x01\n        /* \"contracts/ico/PaymeTokenVesting.sol\":7159:7429  VestingSchedule(... */\n      iszero\n      iszero\n      dup2\n      mstore\n      0x20\n      add\n        /* \"contracts/ico/PaymeTokenVesting.sol\":7206:7218  _beneficiary */\n      dup12\n        /* \"contracts/ico/PaymeTokenVesting.sol\":7159:7429  VestingSchedule(... */\n      0xffffffffffffffffffffffffffffffffffffffff\n      and\n      dup2\n      mstore\n      0x20\n      add\n        /* \"contracts/ico/PaymeTokenVesting.sol\":7232:7237  cliff */\n      dup3\n        /* \"contracts/ico/PaymeTokenVesting.sol\":7159:7429  VestingSchedule(... */\n      dup2\n      mstore\n      0x20\n      add\n        /* \"contracts/ico/PaymeTokenVesting.sol\":7251:7257  _start */\n      dup11\n        /* \"contracts/ico/PaymeTokenVesting.sol\":7159:7429  VestingSchedule(... */\n      dup2\n      mstore\n      0x20\n      add\n        /* \"contracts/ico/PaymeTokenVesting.sol\":7271:7280  _duration */\n      dup9\n        /* \"contracts/ico/PaymeTokenVesting.sol\":7159:7429  VestingSchedule(... */\n      dup2\n      mstore\n      0x20\n      add\n        /* \"contracts/ico/PaymeTokenVesting.sol\":7294:7313  _slicePeriodSeconds */\n      dup8\n        /* \"contracts/ico/PaymeTokenVesting.sol\":7159:7429  VestingSchedule(... */\n      dup2\n      mstore\n      0x20\n      add\n        /* \"contracts/ico/PaymeTokenVesting.sol\":7327:7337  _revocable */\n      dup7\n        /* \"contracts/ico/PaymeTokenVesting.sol\":7159:7429  VestingSchedule(... */\n      iszero\n      iszero\n      dup2\n      mstore\n      0x20\n      add\n        /* \"contracts/ico/PaymeTokenVesting.sol\":7351:7358  _amount */\n      dup6\n        /* \"contracts/ico/PaymeTokenVesting.sol\":7159:7429  VestingSchedule(... */\n      dup2\n      mstore\n      0x20\n      add\n        /* \"contracts/ico/PaymeTokenVesting.sol\":7372:7373  0 */\n      0x00\n        /* \"contracts/ico/PaymeTokenVesting.sol\":7159:7429  VestingSchedule(... */\n      dup2\n      mstore\n      0x20\n      add\n        /* \"contracts/ico/PaymeTokenVesting.sol\":7387:7392  false */\n      0x00\n        /* \"contracts/ico/PaymeTokenVesting.sol\":7159:7429  VestingSchedule(... */\n      iszero\n      iszero\n      dup2\n      mstore\n      0x20\n      add\n        /* \"contracts/ico/PaymeTokenVesting.sol\":7406:7419  _releaseAtTGE */\n      dup5\n        /* \"contracts/ico/PaymeTokenVesting.sol\":7159:7429  VestingSchedule(... */\n      iszero\n      iszero\n      dup2\n      mstore\n      pop\n        /* \"contracts/ico/PaymeTokenVesting.sol\":7121:7137  vestingSchedules */\n      0x9b\n        /* \"contracts/ico/PaymeTokenVesting.sol\":7121:7156  vestingSchedules[vestingScheduleId] */\n      0x00\n        /* \"contracts/ico/PaymeTokenVesting.sol\":7138:7155  vestingScheduleId */\n      dup5\n        /* \"contracts/ico/PaymeTokenVesting.sol\":7121:7156  vestingSchedules[vestingScheduleId] */\n      dup2\n      mstore\n      0x20\n      add\n      swap1\n      dup2\n      mstore\n      0x20\n      add\n      0x00\n      keccak256\n        /* \"contracts/ico/PaymeTokenVesting.sol\":7121:7429  vestingSchedules[vestingScheduleId] = VestingSchedule(... */\n      0x00\n      dup3\n      add\n      mload\n      dup2\n      0x00\n      add\n      exp(0x0100, 0x00)\n      dup2\n      sload\n      dup2\n      0xff\n      mul\n      not\n      and\n      swap1\n      dup4\n      iszero\n      iszero\n      mul\n      or\n      swap1\n      sstore\n      pop\n      0x20\n      dup3\n      add\n      mload\n      dup2\n      0x00\n      add\n      exp(0x0100, 0x01)\n      dup2\n      sload\n      dup2\n      0xffffffffffffffffffffffffffffffffffffffff\n      mul\n      not\n      and\n      swap1\n      dup4\n      0xffffffffffffffffffffffffffffffffffffffff\n      and\n      mul\n      or\n      swap1\n      sstore\n      pop\n      0x40\n      dup3\n      add\n      mload\n      dup2\n      0x01\n      add\n      sstore\n      0x60\n      dup3\n      add\n      mload\n      dup2\n      0x02\n      add\n      sstore\n      0x80\n      dup3\n      add\n      mload\n      dup2\n      0x03\n      add\n      sstore\n      0xa0\n      dup3\n      add\n      mload\n      dup2\n      0x04\n      add\n      sstore\n      0xc0\n      dup3\n      add\n      mload\n      dup2\n      0x05\n      add\n      exp(0x0100, 0x00)\n      dup2\n      sload\n      dup2\n      0xff\n      mul\n      not\n      and\n      swap1\n      dup4\n      iszero\n      iszero\n      mul\n      or\n      swap1\n      sstore\n      pop\n      0xe0\n      dup3\n      add\n      mload\n      dup2\n      0x06\n      add\n      sstore\n      0x0100\n      dup3\n      add\n      mload\n      dup2\n      0x07\n      add\n      sstore\n      0x0120\n      dup3\n      add\n      mload\n      dup2\n      0x08\n      add\n      exp(0x0100, 0x00)\n      dup2\n      sload\n      dup2\n      0xff\n      mul\n      not\n      and\n      swap1\n      dup4\n      iszero\n      iszero\n      mul\n      or\n      swap1\n      sstore\n      pop\n      0x0140\n      dup3\n      add\n      mload\n      dup2\n      0x08\n      add\n      exp(0x0100, 0x01)\n      dup2\n      sload\n      dup2\n      0xff\n      mul\n      not\n      and\n      swap1\n      dup4\n      iszero\n      iszero\n      mul\n      or\n      swap1\n      sstore\n      pop\n      swap1\n      pop\n      pop\n        /* \"contracts/ico/PaymeTokenVesting.sol\":7470:7510  vestingSchedulesTotalAmount.add(_amount) */\n      tag_231\n        /* \"contracts/ico/PaymeTokenVesting.sol\":7502:7509  _amount */\n      dup5\n        /* \"contracts/ico/PaymeTokenVesting.sol\":7470:7497  vestingSchedulesTotalAmount */\n      sload(0x9c)\n        /* \"contracts/ico/PaymeTokenVesting.sol\":7470:7501  vestingSchedulesTotalAmount.add */\n      tag_173\n      swap1\n        /* \"contracts/ico/PaymeTokenVesting.sol\":7470:7510  vestingSchedulesTotalAmount.add(_amount) */\n      swap2\n      swap1\n      0xffffffff\n      and\n      jump\t// in\n    tag_231:\n        /* \"contracts/ico/PaymeTokenVesting.sol\":7440:7467  vestingSchedulesTotalAmount */\n      0x9c\n        /* \"contracts/ico/PaymeTokenVesting.sol\":7440:7510  vestingSchedulesTotalAmount = vestingSchedulesTotalAmount.add(_amount) */\n      dup2\n      swap1\n      sstore\n      pop\n        /* \"contracts/ico/PaymeTokenVesting.sol\":7520:7539  vestingSchedulesIds */\n      0x9a\n        /* \"contracts/ico/PaymeTokenVesting.sol\":7545:7562  vestingScheduleId */\n      dup3\n        /* \"contracts/ico/PaymeTokenVesting.sol\":7520:7563  vestingSchedulesIds.push(vestingScheduleId) */\n      swap1\n      dup1\n      0x01\n      dup2\n      sload\n      add\n      dup1\n      dup3\n      sstore\n      dup1\n      swap2\n      pop\n      pop\n      0x01\n      swap1\n      sub\n      swap1\n      0x00\n      mstore\n      keccak256(0x00, 0x20)\n      add\n      0x00\n      swap1\n      swap2\n      swap1\n      swap2\n      swap1\n      swap2\n      pop\n      sstore\n        /* \"contracts/ico/PaymeTokenVesting.sol\":7573:7600  uint256 currentVestingCount */\n      0x00\n        /* \"contracts/ico/PaymeTokenVesting.sol\":7603:7622  holdersVestingCount */\n      0x9d\n        /* \"contracts/ico/PaymeTokenVesting.sol\":7603:7636  holdersVestingCount[_beneficiary] */\n      0x00\n        /* \"contracts/ico/PaymeTokenVesting.sol\":7623:7635  _beneficiary */\n      dup13\n        /* \"contracts/ico/PaymeTokenVesting.sol\":7603:7636  holdersVestingCount[_beneficiary] */\n      0xffffffffffffffffffffffffffffffffffffffff\n      and\n      0xffffffffffffffffffffffffffffffffffffffff\n      and\n      dup2\n      mstore\n      0x20\n      add\n      swap1\n      dup2\n      mstore\n      0x20\n      add\n      0x00\n      keccak256\n      sload\n        /* \"contracts/ico/PaymeTokenVesting.sol\":7573:7636  uint256 currentVestingCount = holdersVestingCount[_beneficiary] */\n      swap1\n      pop\n        /* \"contracts/ico/PaymeTokenVesting.sol\":7682:7708  currentVestingCount.add(1) */\n      tag_233\n        /* \"contracts/ico/PaymeTokenVesting.sol\":7706:7707  1 */\n      0x01\n        /* \"contracts/ico/PaymeTokenVesting.sol\":7682:7701  currentVestingCount */\n      dup3\n        /* \"contracts/ico/PaymeTokenVesting.sol\":7682:7705  currentVestingCount.add */\n      tag_173\n      swap1\n        /* \"contracts/ico/PaymeTokenVesting.sol\":7682:7708  currentVestingCount.add(1) */\n      swap2\n      swap1\n      0xffffffff\n      and\n      jump\t// in\n    tag_233:\n        /* \"contracts/ico/PaymeTokenVesting.sol\":7646:7665  holdersVestingCount */\n      0x9d\n        /* \"contracts/ico/PaymeTokenVesting.sol\":7646:7679  holdersVestingCount[_beneficiary] */\n      0x00\n        /* \"contracts/ico/PaymeTokenVesting.sol\":7666:7678  _beneficiary */\n      dup14\n        /* \"contracts/ico/PaymeTokenVesting.sol\":7646:7679  holdersVestingCount[_beneficiary] */\n      0xffffffffffffffffffffffffffffffffffffffff\n      and\n      0xffffffffffffffffffffffffffffffffffffffff\n      and\n      dup2\n      mstore\n      0x20\n      add\n      swap1\n      dup2\n      mstore\n      0x20\n      add\n      0x00\n      keccak256\n        /* \"contracts/ico/PaymeTokenVesting.sol\":7646:7708  holdersVestingCount[_beneficiary] = currentVestingCount.add(1) */\n      dup2\n      swap1\n      sstore\n      pop\n        /* \"contracts/ico/PaymeTokenVesting.sol\":7760:7761  0 */\n      0x00\n        /* \"contracts/ico/PaymeTokenVesting.sol\":7718:7738  TGETokenParticipates */\n      0x9e\n        /* \"contracts/ico/PaymeTokenVesting.sol\":7718:7757  TGETokenParticipates[vestingScheduleId] */\n      0x00\n        /* \"contracts/ico/PaymeTokenVesting.sol\":7739:7756  vestingScheduleId */\n      dup6\n        /* \"contracts/ico/PaymeTokenVesting.sol\":7718:7757  TGETokenParticipates[vestingScheduleId] */\n      dup2\n      mstore\n      0x20\n      add\n      swap1\n      dup2\n      mstore\n      0x20\n      add\n      0x00\n      keccak256\n        /* \"contracts/ico/PaymeTokenVesting.sol\":7718:7761  TGETokenParticipates[vestingScheduleId] = 0 */\n      dup2\n      swap1\n      sstore\n      pop\n        /* \"contracts/ico/PaymeTokenVesting.sol\":7776:7817  VestingScheduleCreated(vestingScheduleId) */\n      0x7deecc243dec36156ece079ae8e71cb3f5b8a86d4ee141e3733216e23614e0c3\n        /* \"contracts/ico/PaymeTokenVesting.sol\":7799:7816  vestingScheduleId */\n      dup4\n        /* \"contracts/ico/PaymeTokenVesting.sol\":7776:7817  VestingScheduleCreated(vestingScheduleId) */\n      mload(0x40)\n      tag_234\n      swap2\n      swap1\n      tag_89\n      jump\t// in\n    tag_234:\n      mload(0x40)\n      dup1\n      swap2\n      sub\n      swap1\n      log1\n        /* \"contracts/ico/PaymeTokenVesting.sol\":6575:7824  {... */\n      pop\n      pop\n      pop\n        /* \"contracts/ico/PaymeTokenVesting.sol\":6287:7824  function createVestingSchedule(... */\n      pop\n      pop\n      pop\n      pop\n      pop\n      pop\n      pop\n      pop\n      jump\t// out\n        /* \"contracts/ico/PaymeTokenVesting.sol\":13327:13576  function getLastVestingScheduleForHolder(address holder)... */\n    tag_81:\n        /* \"contracts/ico/PaymeTokenVesting.sol\":13428:13450  VestingSchedule memory */\n      tag_235\n      tag_236\n      jump\t// in\n    tag_235:\n        /* \"contracts/ico/PaymeTokenVesting.sol\":13468:13484  vestingSchedules */\n      0x9b\n        /* \"contracts/ico/PaymeTokenVesting.sol\":13468:13569  vestingSchedules[computeVestingScheduleIdForAddressAndIndex(holder, holdersVestingCount[holder] - 1)] */\n      0x00\n        /* \"contracts/ico/PaymeTokenVesting.sol\":13485:13568  computeVestingScheduleIdForAddressAndIndex(holder, holdersVestingCount[holder] - 1) */\n      tag_238\n        /* \"contracts/ico/PaymeTokenVesting.sol\":13528:13534  holder */\n      dup5\n        /* \"contracts/ico/PaymeTokenVesting.sol\":13566:13567  1 */\n      0x01\n        /* \"contracts/ico/PaymeTokenVesting.sol\":13536:13555  holdersVestingCount */\n      0x9d\n        /* \"contracts/ico/PaymeTokenVesting.sol\":13536:13563  holdersVestingCount[holder] */\n      0x00\n        /* \"contracts/ico/PaymeTokenVesting.sol\":13556:13562  holder */\n      dup9\n        /* \"contracts/ico/PaymeTokenVesting.sol\":13536:13563  holdersVestingCount[holder] */\n      0xffffffffffffffffffffffffffffffffffffffff\n      and\n      0xffffffffffffffffffffffffffffffffffffffff\n      and\n      dup2\n      mstore\n      0x20\n      add\n      swap1\n      dup2\n      mstore\n      0x20\n      add\n      0x00\n      keccak256\n      sload\n        /* \"contracts/ico/PaymeTokenVesting.sol\":13536:13567  holdersVestingCount[holder] - 1 */\n      tag_239\n      swap2\n      swap1\n      tag_240\n      jump\t// in\n    tag_239:\n        /* \"contracts/ico/PaymeTokenVesting.sol\":13485:13527  computeVestingScheduleIdForAddressAndIndex */\n      tag_87\n        /* \"contracts/ico/PaymeTokenVesting.sol\":13485:13568  computeVestingScheduleIdForAddressAndIndex(holder, holdersVestingCount[holder] - 1) */\n      jump\t// in\n    tag_238:\n        /* \"contracts/ico/PaymeTokenVesting.sol\":13468:13569  vestingSchedules[computeVestingScheduleIdForAddressAndIndex(holder, holdersVestingCount[holder] - 1)] */\n      dup2\n      mstore\n      0x20\n      add\n      swap1\n      dup2\n      mstore\n      0x20\n      add\n      0x00\n      keccak256\n        /* \"contracts/ico/PaymeTokenVesting.sol\":13461:13569  return vestingSchedules[computeVestingScheduleIdForAddressAndIndex(holder, holdersVestingCount[holder] - 1)] */\n      mload(0x40)\n      dup1\n      0x0160\n      add\n      0x40\n      mstore\n      swap1\n      dup2\n      0x00\n      dup3\n      add\n      0x00\n      swap1\n      sload\n      swap1\n      0x0100\n      exp\n      swap1\n      div\n      0xff\n      and\n      iszero\n      iszero\n      iszero\n      iszero\n      dup2\n      mstore\n      0x20\n      add\n      0x00\n      dup3\n      add\n      0x01\n      swap1\n      sload\n      swap1\n      0x0100\n      exp\n      swap1\n      div\n      0xffffffffffffffffffffffffffffffffffffffff\n      and\n      0xffffffffffffffffffffffffffffffffffffffff\n      and\n      0xffffffffffffffffffffffffffffffffffffffff\n      and\n      dup2\n      mstore\n      0x20\n      add\n      0x01\n      dup3\n      add\n      sload\n      dup2\n      mstore\n      0x20\n      add\n      0x02\n      dup3\n      add\n      sload\n      dup2\n      mstore\n      0x20\n      add\n      0x03\n      dup3\n      add\n      sload\n      dup2\n      mstore\n      0x20\n      add\n      0x04\n      dup3\n      add\n      sload\n      dup2\n      mstore\n      0x20\n      add\n      0x05\n      dup3\n      add\n      0x00\n      swap1\n      sload\n      swap1\n      0x0100\n      exp\n      swap1\n      div\n      0xff\n      and\n      iszero\n      iszero\n      iszero\n      iszero\n      dup2\n      mstore\n      0x20\n      add\n      0x06\n      dup3\n      add\n      sload\n      dup2\n      mstore\n      0x20\n      add\n      0x07\n      dup3\n      add\n      sload\n      dup2\n      mstore\n      0x20\n      add\n      0x08\n      dup3\n      add\n      0x00\n      swap1\n      sload\n      swap1\n      0x0100\n      exp\n      swap1\n      div\n      0xff\n      and\n      iszero\n      iszero\n      iszero\n      iszero\n      dup2\n      mstore\n      0x20\n      add\n      0x08\n      dup3\n      add\n      0x01\n      swap1\n      sload\n      swap1\n      0x0100\n      exp\n      swap1\n      div\n      0xff\n      and\n      iszero\n      iszero\n      iszero\n      iszero\n      dup2\n      mstore\n      pop\n      pop\n      swap1\n      pop\n        /* \"contracts/ico/PaymeTokenVesting.sol\":13327:13576  function getLastVestingScheduleForHolder(address holder)... */\n      swap2\n      swap1\n      pop\n      jump\t// out\n        /* \"contracts/ico/PaymeTokenVesting.sol\":13678:13879  function computeVestingScheduleIdForAddressAndIndex(address holder, uint256 index)... */\n    tag_87:\n        /* \"contracts/ico/PaymeTokenVesting.sol\":13805:13812  bytes32 */\n      0x00\n        /* \"contracts/ico/PaymeTokenVesting.sol\":13857:13863  holder */\n      dup3\n        /* \"contracts/ico/PaymeTokenVesting.sol\":13865:13870  index */\n      dup3\n        /* \"contracts/ico/PaymeTokenVesting.sol\":13840:13871  abi.encodePacked(holder, index) */\n      add(0x20, mload(0x40))\n      tag_242\n      swap3\n      swap2\n      swap1\n      tag_243\n      jump\t// in\n    tag_242:\n      mload(0x40)\n      0x20\n      dup2\n      dup4\n      sub\n      sub\n      dup2\n      mstore\n      swap1\n      0x40\n      mstore\n        /* \"contracts/ico/PaymeTokenVesting.sol\":13830:13872  keccak256(abi.encodePacked(holder, index)) */\n      dup1\n      mload\n      swap1\n      0x20\n      add\n      keccak256\n        /* \"contracts/ico/PaymeTokenVesting.sol\":13823:13872  return keccak256(abi.encodePacked(holder, index)) */\n      swap1\n      pop\n        /* \"contracts/ico/PaymeTokenVesting.sol\":13678:13879  function computeVestingScheduleIdForAddressAndIndex(address holder, uint256 index)... */\n      swap3\n      swap2\n      pop\n      pop\n      jump\t// out\n        /* \"@openzeppelin/contracts-upgradeable/access/OwnableUpgradeable.sol\":1441:1526  function owner() public view virtual returns (address) {... */\n    tag_91:\n        /* \"@openzeppelin/contracts-upgradeable/access/OwnableUpgradeable.sol\":1487:1494  address */\n      0x00\n        /* \"@openzeppelin/contracts-upgradeable/access/OwnableUpgradeable.sol\":1513:1519  _owner */\n      0x33\n      0x00\n      swap1\n      sload\n      swap1\n      0x0100\n      exp\n      swap1\n      div\n      0xffffffffffffffffffffffffffffffffffffffff\n      and\n        /* \"@openzeppelin/contracts-upgradeable/access/OwnableUpgradeable.sol\":1506:1519  return _owner */\n      swap1\n      pop\n        /* \"@openzeppelin/contracts-upgradeable/access/OwnableUpgradeable.sol\":1441:1526  function owner() public view virtual returns (address) {... */\n      swap1\n      jump\t// out\n        /* \"contracts/ico/PaymeTokenVesting.sol\":12736:12909  function getWithdrawableAmount()... */\n    tag_94:\n        /* \"contracts/ico/PaymeTokenVesting.sol\":12813:12820  uint256 */\n      0x00\n        /* \"contracts/ico/PaymeTokenVesting.sol\":12838:12902  _token.balanceOf(address(this)).sub(vestingSchedulesTotalAmount) */\n      tag_246\n        /* \"contracts/ico/PaymeTokenVesting.sol\":12874:12901  vestingSchedulesTotalAmount */\n      sload(0x9c)\n        /* \"contracts/ico/PaymeTokenVesting.sol\":12838:12844  _token */\n      0x97\n      0x00\n      swap1\n      sload\n      swap1\n      0x0100\n      exp\n      swap1\n      div\n      0xffffffffffffffffffffffffffffffffffffffff\n      and\n        /* \"contracts/ico/PaymeTokenVesting.sol\":12838:12854  _token.balanceOf */\n      0xffffffffffffffffffffffffffffffffffffffff\n      and\n      0x70a08231\n        /* \"contracts/ico/PaymeTokenVesting.sol\":12863:12867  this */\n      address\n        /* \"contracts/ico/PaymeTokenVesting.sol\":12838:12869  _token.balanceOf(address(this)) */\n      mload(0x40)\n      dup3\n      0xffffffff\n      and\n      0xe0\n      shl\n      dup2\n      mstore\n      0x04\n      add\n      tag_247\n      swap2\n      swap1\n      tag_45\n      jump\t// in\n    tag_247:\n      0x20\n      mload(0x40)\n      dup1\n      dup4\n      sub\n      dup2\n      dup7\n      dup1\n      extcodesize\n      iszero\n      dup1\n      iszero\n      tag_248\n      jumpi\n      0x00\n      dup1\n      revert\n    tag_248:\n      pop\n      gas\n      staticcall\n      iszero\n      dup1\n      iszero\n      tag_250\n      jumpi\n      returndatasize\n      0x00\n      dup1\n      returndatacopy\n      revert(0x00, returndatasize)\n    tag_250:\n      pop\n      pop\n      pop\n      pop\n      mload(0x40)\n      returndatasize\n      not(0x1f)\n      0x1f\n      dup3\n      add\n      and\n      dup3\n      add\n      dup1\n      0x40\n      mstore\n      pop\n      dup2\n      add\n      swap1\n      tag_251\n      swap2\n      swap1\n      tag_146\n      jump\t// in\n    tag_251:\n        /* \"contracts/ico/PaymeTokenVesting.sol\":12838:12873  _token.balanceOf(address(this)).sub */\n      tag_175\n      swap1\n        /* \"contracts/ico/PaymeTokenVesting.sol\":12838:12902  _token.balanceOf(address(this)).sub(vestingSchedulesTotalAmount) */\n      swap2\n      swap1\n      0xffffffff\n      and\n      jump\t// in\n    tag_246:\n        /* \"contracts/ico/PaymeTokenVesting.sol\":12831:12902  return _token.balanceOf(address(this)).sub(vestingSchedulesTotalAmount) */\n      swap1\n      pop\n        /* \"contracts/ico/PaymeTokenVesting.sol\":12736:12909  function getWithdrawableAmount()... */\n      swap1\n      jump\t// out\n        /* \"contracts/ico/PaymeTokenVesting.sol\":1843:1868  uint256 public TGEPercent */\n    tag_97:\n      sload(0x98)\n      dup2\n      jump\t// out\n        /* \"contracts/ico/PaymeTokenVesting.sol\":12423:12604  function getVestingSchedule(bytes32 vestingScheduleId)... */\n    tag_101:\n        /* \"contracts/ico/PaymeTokenVesting.sol\":12522:12544  VestingSchedule memory */\n      tag_252\n      tag_236\n      jump\t// in\n    tag_252:\n        /* \"contracts/ico/PaymeTokenVesting.sol\":12562:12578  vestingSchedules */\n      0x9b\n        /* \"contracts/ico/PaymeTokenVesting.sol\":12562:12597  vestingSchedules[vestingScheduleId] */\n      0x00\n        /* \"contracts/ico/PaymeTokenVesting.sol\":12579:12596  vestingScheduleId */\n      dup4\n        /* \"contracts/ico/PaymeTokenVesting.sol\":12562:12597  vestingSchedules[vestingScheduleId] */\n      dup2\n      mstore\n      0x20\n      add\n      swap1\n      dup2\n      mstore\n      0x20\n      add\n      0x00\n      keccak256\n        /* \"contracts/ico/PaymeTokenVesting.sol\":12555:12597  return vestingSchedules[vestingScheduleId] */\n      mload(0x40)\n      dup1\n      0x0160\n      add\n      0x40\n      mstore\n      swap1\n      dup2\n      0x00\n      dup3\n      add\n      0x00\n      swap1\n      sload\n      swap1\n      0x0100\n      exp\n      swap1\n      div\n      0xff\n      and\n      iszero\n      iszero\n      iszero\n      iszero\n      dup2\n      mstore\n      0x20\n      add\n      0x00\n      dup3\n      add\n      0x01\n      swap1\n      sload\n      swap1\n      0x0100\n      exp\n      swap1\n      div\n      0xffffffffffffffffffffffffffffffffffffffff\n      and\n      0xffffffffffffffffffffffffffffffffffffffff\n      and\n      0xffffffffffffffffffffffffffffffffffffffff\n      and\n      dup2\n      mstore\n      0x20\n      add\n      0x01\n      dup3\n      add\n      sload\n      dup2\n      mstore\n      0x20\n      add\n      0x02\n      dup3\n      add\n      sload\n      dup2\n      mstore\n      0x20\n      add\n      0x03\n      dup3\n      add\n      sload\n      dup2\n      mstore\n      0x20\n      add\n      0x04\n      dup3\n      add\n      sload\n      dup2\n      mstore\n      0x20\n      add\n      0x05\n      dup3\n      add\n      0x00\n      swap1\n      sload\n      swap1\n      0x0100\n      exp\n      swap1\n      div\n      0xff\n      and\n      iszero\n      iszero\n      iszero\n      iszero\n      dup2\n      mstore\n      0x20\n      add\n      0x06\n      dup3\n      add\n      sload\n      dup2\n      mstore\n      0x20\n      add\n      0x07\n      dup3\n      add\n      sload\n      dup2\n      mstore\n      0x20\n      add\n      0x08\n      dup3\n      add\n      0x00\n      swap1\n      sload\n      swap1\n      0x0100\n      exp\n      swap1\n      div\n      0xff\n      and\n      iszero\n      iszero\n      iszero\n      iszero\n      dup2\n      mstore\n      0x20\n      add\n      0x08\n      dup3\n      add\n      0x01\n      swap1\n      sload\n      swap1\n      0x0100\n      exp\n      swap1\n      div\n      0xff\n      and\n      iszero\n      iszero\n      iszero\n      iszero\n      dup2\n      mstore\n      pop\n      pop\n      swap1\n      pop\n        /* \"contracts/ico/PaymeTokenVesting.sol\":12423:12604  function getVestingSchedule(bytes32 vestingScheduleId)... */\n      swap2\n      swap1\n      pop\n      jump\t// out\n        /* \"contracts/ico/PaymeTokenVesting.sol\":7973:8674  function revoke(bytes32 vestingScheduleId)... */\n    tag_105:\n        /* \"@openzeppelin/contracts-upgradeable/access/OwnableUpgradeable.sol\":1334:1347  _checkOwner() */\n      tag_255\n        /* \"@openzeppelin/contracts-upgradeable/access/OwnableUpgradeable.sol\":1334:1345  _checkOwner */\n      tag_140\n        /* \"@openzeppelin/contracts-upgradeable/access/OwnableUpgradeable.sol\":1334:1347  _checkOwner() */\n      jump\t// in\n    tag_255:\n        /* \"contracts/ico/PaymeTokenVesting.sol\":8089:8106  vestingScheduleId */\n      dup1\n        /* \"contracts/ico/PaymeTokenVesting.sol\":2881:2885  true */\n      0x01\n        /* \"contracts/ico/PaymeTokenVesting.sol\":2830:2885  vestingSchedules[vestingScheduleId].initialized == true */\n      iszero\n      iszero\n        /* \"contracts/ico/PaymeTokenVesting.sol\":2830:2846  vestingSchedules */\n      0x9b\n        /* \"contracts/ico/PaymeTokenVesting.sol\":2830:2865  vestingSchedules[vestingScheduleId] */\n      0x00\n        /* \"contracts/ico/PaymeTokenVesting.sol\":2847:2864  vestingScheduleId */\n      dup4\n        /* \"contracts/ico/PaymeTokenVesting.sol\":2830:2865  vestingSchedules[vestingScheduleId] */\n      dup2\n      mstore\n      0x20\n      add\n      swap1\n      dup2\n      mstore\n      0x20\n      add\n      0x00\n      keccak256\n        /* \"contracts/ico/PaymeTokenVesting.sol\":2830:2877  vestingSchedules[vestingScheduleId].initialized */\n      0x00\n      add\n      0x00\n      swap1\n      sload\n      swap1\n      0x0100\n      exp\n      swap1\n      div\n      0xff\n      and\n        /* \"contracts/ico/PaymeTokenVesting.sol\":2830:2885  vestingSchedules[vestingScheduleId].initialized == true */\n      iszero\n      iszero\n      eq\n        /* \"contracts/ico/PaymeTokenVesting.sol\":2822:2886  require(vestingSchedules[vestingScheduleId].initialized == true) */\n      tag_257\n      jumpi\n      0x00\n      dup1\n      revert\n    tag_257:\n        /* \"contracts/ico/PaymeTokenVesting.sol\":2951:2956  false */\n      0x00\n        /* \"contracts/ico/PaymeTokenVesting.sol\":2904:2956  vestingSchedules[vestingScheduleId].revoked == false */\n      iszero\n      iszero\n        /* \"contracts/ico/PaymeTokenVesting.sol\":2904:2920  vestingSchedules */\n      0x9b\n        /* \"contracts/ico/PaymeTokenVesting.sol\":2904:2939  vestingSchedules[vestingScheduleId] */\n      0x00\n        /* \"contracts/ico/PaymeTokenVesting.sol\":2921:2938  vestingScheduleId */\n      dup4\n        /* \"contracts/ico/PaymeTokenVesting.sol\":2904:2939  vestingSchedules[vestingScheduleId] */\n      dup2\n      mstore\n      0x20\n      add\n      swap1\n      dup2\n      mstore\n      0x20\n      add\n      0x00\n      keccak256\n        /* \"contracts/ico/PaymeTokenVesting.sol\":2904:2947  vestingSchedules[vestingScheduleId].revoked */\n      0x08\n      add\n      0x00\n      swap1\n      sload\n      swap1\n      0x0100\n      exp\n      swap1\n      div\n      0xff\n      and\n        /* \"contracts/ico/PaymeTokenVesting.sol\":2904:2956  vestingSchedules[vestingScheduleId].revoked == false */\n      iszero\n      iszero\n      eq\n        /* \"contracts/ico/PaymeTokenVesting.sol\":2896:2957  require(vestingSchedules[vestingScheduleId].revoked == false) */\n      tag_258\n      jumpi\n      0x00\n      dup1\n      revert\n    tag_258:\n        /* \"contracts/ico/PaymeTokenVesting.sol\":8117:8156  VestingSchedule storage vestingSchedule */\n      0x00\n        /* \"contracts/ico/PaymeTokenVesting.sol\":8159:8175  vestingSchedules */\n      0x9b\n        /* \"contracts/ico/PaymeTokenVesting.sol\":8159:8194  vestingSchedules[vestingScheduleId] */\n      0x00\n        /* \"contracts/ico/PaymeTokenVesting.sol\":8176:8193  vestingScheduleId */\n      dup5\n        /* \"contracts/ico/PaymeTokenVesting.sol\":8159:8194  vestingSchedules[vestingScheduleId] */\n      dup2\n      mstore\n      0x20\n      add\n      swap1\n      dup2\n      mstore\n      0x20\n      add\n      0x00\n      keccak256\n        /* \"contracts/ico/PaymeTokenVesting.sol\":8117:8194  VestingSchedule storage vestingSchedule = vestingSchedules[vestingScheduleId] */\n      swap1\n      pop\n        /* \"contracts/ico/PaymeTokenVesting.sol\":8241:8245  true */\n      0x01\n        /* \"contracts/ico/PaymeTokenVesting.sol\":8212:8245  vestingSchedule.revocable == true */\n      iszero\n      iszero\n        /* \"contracts/ico/PaymeTokenVesting.sol\":8212:8227  vestingSchedule */\n      dup2\n        /* \"contracts/ico/PaymeTokenVesting.sol\":8212:8237  vestingSchedule.revocable */\n      0x05\n      add\n      0x00\n      swap1\n      sload\n      swap1\n      0x0100\n      exp\n      swap1\n      div\n      0xff\n      and\n        /* \"contracts/ico/PaymeTokenVesting.sol\":8212:8245  vestingSchedule.revocable == true */\n      iszero\n      iszero\n      eq\n        /* \"contracts/ico/PaymeTokenVesting.sol\":8204:8288  require(vestingSchedule.revocable == true, \"TokenVesting: vesting is not revocable\") */\n      tag_260\n      jumpi\n      mload(0x40)\n      0x08c379a000000000000000000000000000000000000000000000000000000000\n      dup2\n      mstore\n      0x04\n      add\n      tag_261\n      swap1\n      tag_262\n      jump\t// in\n    tag_261:\n      mload(0x40)\n      dup1\n      swap2\n      sub\n      swap1\n      revert\n    tag_260:\n        /* \"contracts/ico/PaymeTokenVesting.sol\":8298:8318  uint256 vestedAmount */\n      0x00\n        /* \"contracts/ico/PaymeTokenVesting.sol\":8321:8362  _computeReleasableAmount(vestingSchedule) */\n      tag_263\n        /* \"contracts/ico/PaymeTokenVesting.sol\":8346:8361  vestingSchedule */\n      dup3\n        /* \"contracts/ico/PaymeTokenVesting.sol\":8321:8362  _computeReleasableAmount(vestingSchedule) */\n      mload(0x40)\n      dup1\n      0x0160\n      add\n      0x40\n      mstore\n      swap1\n      dup2\n      0x00\n      dup3\n      add\n      0x00\n      swap1\n      sload\n      swap1\n      0x0100\n      exp\n      swap1\n      div\n      0xff\n      and\n      iszero\n      iszero\n      iszero\n      iszero\n      dup2\n      mstore\n      0x20\n      add\n      0x00\n      dup3\n      add\n      0x01\n      swap1\n      sload\n      swap1\n      0x0100\n      exp\n      swap1\n      div\n      0xffffffffffffffffffffffffffffffffffffffff\n      and\n      0xffffffffffffffffffffffffffffffffffffffff\n      and\n      0xffffffffffffffffffffffffffffffffffffffff\n      and\n      dup2\n      mstore\n      0x20\n      add\n      0x01\n      dup3\n      add\n      sload\n      dup2\n      mstore\n      0x20\n      add\n      0x02\n      dup3\n      add\n      sload\n      dup2\n      mstore\n      0x20\n      add\n      0x03\n      dup3\n      add\n      sload\n      dup2\n      mstore\n      0x20\n      add\n      0x04\n      dup3\n      add\n      sload\n      dup2\n      mstore\n      0x20\n      add\n      0x05\n      dup3\n      add\n      0x00\n      swap1\n      sload\n      swap1\n      0x0100\n      exp\n      swap1\n      div\n      0xff\n      and\n      iszero\n      iszero\n      iszero\n      iszero\n      dup2\n      mstore\n      0x20\n      add\n      0x06\n      dup3\n      add\n      sload\n      dup2\n      mstore\n      0x20\n      add\n      0x07\n      dup3\n      add\n      sload\n      dup2\n      mstore\n      0x20\n      add\n      0x08\n      dup3\n      add\n      0x00\n      swap1\n      sload\n      swap1\n      0x0100\n      exp\n      swap1\n      div\n      0xff\n      and\n      iszero\n      iszero\n      iszero\n      iszero\n      dup2\n      mstore\n      0x20\n      add\n      0x08\n      dup3\n      add\n      0x01\n      swap1\n      sload\n      swap1\n      0x0100\n      exp\n      swap1\n      div\n      0xff\n      and\n      iszero\n      iszero\n      iszero\n      iszero\n      dup2\n      mstore\n      pop\n      pop\n        /* \"contracts/ico/PaymeTokenVesting.sol\":8321:8345  _computeReleasableAmount */\n      tag_168\n        /* \"contracts/ico/PaymeTokenVesting.sol\":8321:8362  _computeReleasableAmount(vestingSchedule) */\n      jump\t// in\n    tag_263:\n        /* \"contracts/ico/PaymeTokenVesting.sol\":8298:8362  uint256 vestedAmount = _computeReleasableAmount(vestingSchedule) */\n      swap1\n      pop\n        /* \"contracts/ico/PaymeTokenVesting.sol\":8390:8391  0 */\n      0x00\n        /* \"contracts/ico/PaymeTokenVesting.sol\":8375:8387  vestedAmount */\n      dup2\n        /* \"contracts/ico/PaymeTokenVesting.sol\":8375:8391  vestedAmount > 0 */\n      gt\n        /* \"contracts/ico/PaymeTokenVesting.sol\":8372:8457  if(vestedAmount > 0){... */\n      iszero\n      tag_264\n      jumpi\n        /* \"contracts/ico/PaymeTokenVesting.sol\":8406:8446  release(vestingScheduleId, vestedAmount) */\n      tag_265\n        /* \"contracts/ico/PaymeTokenVesting.sol\":8414:8431  vestingScheduleId */\n      dup5\n        /* \"contracts/ico/PaymeTokenVesting.sol\":8433:8445  vestedAmount */\n      dup3\n        /* \"contracts/ico/PaymeTokenVesting.sol\":8406:8413  release */\n      tag_68\n        /* \"contracts/ico/PaymeTokenVesting.sol\":8406:8446  release(vestingScheduleId, vestedAmount) */\n      jump\t// in\n    tag_265:\n        /* \"contracts/ico/PaymeTokenVesting.sol\":8372:8457  if(vestedAmount > 0){... */\n    tag_264:\n        /* \"contracts/ico/PaymeTokenVesting.sol\":8466:8484  uint256 unreleased */\n      0x00\n        /* \"contracts/ico/PaymeTokenVesting.sol\":8487:8544  vestingSchedule.amountTotal.sub(vestingSchedule.released) */\n      tag_266\n        /* \"contracts/ico/PaymeTokenVesting.sol\":8519:8534  vestingSchedule */\n      dup4\n        /* \"contracts/ico/PaymeTokenVesting.sol\":8519:8543  vestingSchedule.released */\n      0x07\n      add\n      sload\n        /* \"contracts/ico/PaymeTokenVesting.sol\":8487:8502  vestingSchedule */\n      dup5\n        /* \"contracts/ico/PaymeTokenVesting.sol\":8487:8514  vestingSchedule.amountTotal */\n      0x06\n      add\n      sload\n        /* \"contracts/ico/PaymeTokenVesting.sol\":8487:8518  vestingSchedule.amountTotal.sub */\n      tag_175\n      swap1\n        /* \"contracts/ico/PaymeTokenVesting.sol\":8487:8544  vestingSchedule.amountTotal.sub(vestingSchedule.released) */\n      swap2\n      swap1\n      0xffffffff\n      and\n      jump\t// in\n    tag_266:\n        /* \"contracts/ico/PaymeTokenVesting.sol\":8466:8544  uint256 unreleased = vestingSchedule.amountTotal.sub(vestingSchedule.released) */\n      swap1\n      pop\n        /* \"contracts/ico/PaymeTokenVesting.sol\":8584:8627  vestingSchedulesTotalAmount.sub(unreleased) */\n      tag_267\n        /* \"contracts/ico/PaymeTokenVesting.sol\":8616:8626  unreleased */\n      dup2\n        /* \"contracts/ico/PaymeTokenVesting.sol\":8584:8611  vestingSchedulesTotalAmount */\n      sload(0x9c)\n        /* \"contracts/ico/PaymeTokenVesting.sol\":8584:8615  vestingSchedulesTotalAmount.sub */\n      tag_175\n      swap1\n        /* \"contracts/ico/PaymeTokenVesting.sol\":8584:8627  vestingSchedulesTotalAmount.sub(unreleased) */\n      swap2\n      swap1\n      0xffffffff\n      and\n      jump\t// in\n    tag_267:\n        /* \"contracts/ico/PaymeTokenVesting.sol\":8554:8581  vestingSchedulesTotalAmount */\n      0x9c\n        /* \"contracts/ico/PaymeTokenVesting.sol\":8554:8627  vestingSchedulesTotalAmount = vestingSchedulesTotalAmount.sub(unreleased) */\n      dup2\n      swap1\n      sstore\n      pop\n        /* \"contracts/ico/PaymeTokenVesting.sol\":8663:8667  true */\n      0x01\n        /* \"contracts/ico/PaymeTokenVesting.sol\":8637:8652  vestingSchedule */\n      dup4\n        /* \"contracts/ico/PaymeTokenVesting.sol\":8637:8660  vestingSchedule.revoked */\n      0x08\n      add\n      0x00\n        /* \"contracts/ico/PaymeTokenVesting.sol\":8637:8667  vestingSchedule.revoked = true */\n      0x0100\n      exp\n      dup2\n      sload\n      dup2\n      0xff\n      mul\n      not\n      and\n      swap1\n      dup4\n      iszero\n      iszero\n      mul\n      or\n      swap1\n      sstore\n      pop\n        /* \"contracts/ico/PaymeTokenVesting.sol\":8107:8674  {... */\n      pop\n      pop\n      pop\n        /* \"@openzeppelin/contracts-upgradeable/access/OwnableUpgradeable.sol\":1357:1358  _ */\n      pop\n        /* \"contracts/ico/PaymeTokenVesting.sol\":7973:8674  function revoke(bytes32 vestingScheduleId)... */\n      pop\n      jump\t// out\n        /* \"contracts/ico/PaymeTokenVesting.sol\":2192:2225  address public crowdsales_address */\n    tag_107:\n      0x9f\n      0x00\n      swap1\n      sload\n      swap1\n      0x0100\n      exp\n      swap1\n      div\n      0xffffffffffffffffffffffffffffffffffffffff\n      and\n      dup2\n      jump\t// out\n        /* \"contracts/ico/PaymeTokenVesting.sol\":11943:12266  function computeReleasableAmount(bytes32 vestingScheduleId)... */\n    tag_111:\n        /* \"contracts/ico/PaymeTokenVesting.sol\":12106:12113  uint256 */\n      0x00\n        /* \"contracts/ico/PaymeTokenVesting.sol\":12058:12075  vestingScheduleId */\n      dup2\n        /* \"contracts/ico/PaymeTokenVesting.sol\":2881:2885  true */\n      0x01\n        /* \"contracts/ico/PaymeTokenVesting.sol\":2830:2885  vestingSchedules[vestingScheduleId].initialized == true */\n      iszero\n      iszero\n        /* \"contracts/ico/PaymeTokenVesting.sol\":2830:2846  vestingSchedules */\n      0x9b\n        /* \"contracts/ico/PaymeTokenVesting.sol\":2830:2865  vestingSchedules[vestingScheduleId] */\n      0x00\n        /* \"contracts/ico/PaymeTokenVesting.sol\":2847:2864  vestingScheduleId */\n      dup4\n        /* \"contracts/ico/PaymeTokenVesting.sol\":2830:2865  vestingSchedules[vestingScheduleId] */\n      dup2\n      mstore\n      0x20\n      add\n      swap1\n      dup2\n      mstore\n      0x20\n      add\n      0x00\n      keccak256\n        /* \"contracts/ico/PaymeTokenVesting.sol\":2830:2877  vestingSchedules[vestingScheduleId].initialized */\n      0x00\n      add\n      0x00\n      swap1\n      sload\n      swap1\n      0x0100\n      exp\n      swap1\n      div\n      0xff\n      and\n        /* \"contracts/ico/PaymeTokenVesting.sol\":2830:2885  vestingSchedules[vestingScheduleId].initialized == true */\n      iszero\n      iszero\n      eq\n        /* \"contracts/ico/PaymeTokenVesting.sol\":2822:2886  require(vestingSchedules[vestingScheduleId].initialized == true) */\n      tag_269\n      jumpi\n      0x00\n      dup1\n      revert\n    tag_269:\n        /* \"contracts/ico/PaymeTokenVesting.sol\":2951:2956  false */\n      0x00\n        /* \"contracts/ico/PaymeTokenVesting.sol\":2904:2956  vestingSchedules[vestingScheduleId].revoked == false */\n      iszero\n      iszero\n        /* \"contracts/ico/PaymeTokenVesting.sol\":2904:2920  vestingSchedules */\n      0x9b\n        /* \"contracts/ico/PaymeTokenVesting.sol\":2904:2939  vestingSchedules[vestingScheduleId] */\n      0x00\n        /* \"contracts/ico/PaymeTokenVesting.sol\":2921:2938  vestingScheduleId */\n      dup4\n        /* \"contracts/ico/PaymeTokenVesting.sol\":2904:2939  vestingSchedules[vestingScheduleId] */\n      dup2\n      mstore\n      0x20\n      add\n      swap1\n      dup2\n      mstore\n      0x20\n      add\n      0x00\n      keccak256\n        /* \"contracts/ico/PaymeTokenVesting.sol\":2904:2947  vestingSchedules[vestingScheduleId].revoked */\n      0x08\n      add\n      0x00\n      swap1\n      sload\n      swap1\n      0x0100\n      exp\n      swap1\n      div\n      0xff\n      and\n        /* \"contracts/ico/PaymeTokenVesting.sol\":2904:2956  vestingSchedules[vestingScheduleId].revoked == false */\n      iszero\n      iszero\n      eq\n        /* \"contracts/ico/PaymeTokenVesting.sol\":2896:2957  require(vestingSchedules[vestingScheduleId].revoked == false) */\n      tag_270\n      jumpi\n      0x00\n      dup1\n      revert\n    tag_270:\n        /* \"contracts/ico/PaymeTokenVesting.sol\":12124:12163  VestingSchedule storage vestingSchedule */\n      0x00\n        /* \"contracts/ico/PaymeTokenVesting.sol\":12166:12182  vestingSchedules */\n      0x9b\n        /* \"contracts/ico/PaymeTokenVesting.sol\":12166:12201  vestingSchedules[vestingScheduleId] */\n      0x00\n        /* \"contracts/ico/PaymeTokenVesting.sol\":12183:12200  vestingScheduleId */\n      dup6\n        /* \"contracts/ico/PaymeTokenVesting.sol\":12166:12201  vestingSchedules[vestingScheduleId] */\n      dup2\n      mstore\n      0x20\n      add\n      swap1\n      dup2\n      mstore\n      0x20\n      add\n      0x00\n      keccak256\n        /* \"contracts/ico/PaymeTokenVesting.sol\":12124:12201  VestingSchedule storage vestingSchedule = vestingSchedules[vestingScheduleId] */\n      swap1\n      pop\n        /* \"contracts/ico/PaymeTokenVesting.sol\":12218:12259  _computeReleasableAmount(vestingSchedule) */\n      tag_272\n        /* \"contracts/ico/PaymeTokenVesting.sol\":12243:12258  vestingSchedule */\n      dup2\n        /* \"contracts/ico/PaymeTokenVesting.sol\":12218:12259  _computeReleasableAmount(vestingSchedule) */\n      mload(0x40)\n      dup1\n      0x0160\n      add\n      0x40\n      mstore\n      swap1\n      dup2\n      0x00\n      dup3\n      add\n      0x00\n      swap1\n      sload\n      swap1\n      0x0100\n      exp\n      swap1\n      div\n      0xff\n      and\n      iszero\n      iszero\n      iszero\n      iszero\n      dup2\n      mstore\n      0x20\n      add\n      0x00\n      dup3\n      add\n      0x01\n      swap1\n      sload\n      swap1\n      0x0100\n      exp\n      swap1\n      div\n      0xffffffffffffffffffffffffffffffffffffffff\n      and\n      0xffffffffffffffffffffffffffffffffffffffff\n      and\n      0xffffffffffffffffffffffffffffffffffffffff\n      and\n      dup2\n      mstore\n      0x20\n      add\n      0x01\n      dup3\n      add\n      sload\n      dup2\n      mstore\n      0x20\n      add\n      0x02\n      dup3\n      add\n      sload\n      dup2\n      mstore\n      0x20\n      add\n      0x03\n      dup3\n      add\n      sload\n      dup2\n      mstore\n      0x20\n      add\n      0x04\n      dup3\n      add\n      sload\n      dup2\n      mstore\n      0x20\n      add\n      0x05\n      dup3\n      add\n      0x00\n      swap1\n      sload\n      swap1\n      0x0100\n      exp\n      swap1\n      div\n      0xff\n      and\n      iszero\n      iszero\n      iszero\n      iszero\n      dup2\n      mstore\n      0x20\n      add\n      0x06\n      dup3\n      add\n      sload\n      dup2\n      mstore\n      0x20\n      add\n      0x07\n      dup3\n      add\n      sload\n      dup2\n      mstore\n      0x20\n      add\n      0x08\n      dup3\n      add\n      0x00\n      swap1\n      sload\n      swap1\n      0x0100\n      exp\n      swap1\n      div\n      0xff\n      and\n      iszero\n      iszero\n      iszero\n      iszero\n      dup2\n      mstore\n      0x20\n      add\n      0x08\n      dup3\n      add\n      0x01\n      swap1\n      sload\n      swap1\n      0x0100\n      exp\n      swap1\n      div\n      0xff\n      and\n      iszero\n      iszero\n      iszero\n      iszero\n      dup2\n      mstore\n      pop\n      pop\n        /* \"contracts/ico/PaymeTokenVesting.sol\":12218:12242  _computeReleasableAmount */\n      tag_168\n        /* \"contracts/ico/PaymeTokenVesting.sol\":12218:12259  _computeReleasableAmount(vestingSchedule) */\n      jump\t// in\n    tag_272:\n        /* \"contracts/ico/PaymeTokenVesting.sol\":12211:12259  return _computeReleasableAmount(vestingSchedule) */\n      swap3\n      pop\n      pop\n        /* \"contracts/ico/PaymeTokenVesting.sol\":11943:12266  function computeReleasableAmount(bytes32 vestingScheduleId)... */\n      pop\n      swap2\n      swap1\n      pop\n      jump\t// out\n        /* \"@openzeppelin/contracts-upgradeable/access/OwnableUpgradeable.sol\":2321:2519  function transferOwnership(address newOwner) public virtual onlyOwner {... */\n    tag_115:\n        /* \"@openzeppelin/contracts-upgradeable/access/OwnableUpgradeable.sol\":1334:1347  _checkOwner() */\n      tag_274\n        /* \"@openzeppelin/contracts-upgradeable/access/OwnableUpgradeable.sol\":1334:1345  _checkOwner */\n      tag_140\n        /* \"@openzeppelin/contracts-upgradeable/access/OwnableUpgradeable.sol\":1334:1347  _checkOwner() */\n      jump\t// in\n    tag_274:\n        /* \"@openzeppelin/contracts-upgradeable/access/OwnableUpgradeable.sol\":2429:2430  0 */\n      0x00\n        /* \"@openzeppelin/contracts-upgradeable/access/OwnableUpgradeable.sol\":2409:2431  newOwner != address(0) */\n      0xffffffffffffffffffffffffffffffffffffffff\n      and\n        /* \"@openzeppelin/contracts-upgradeable/access/OwnableUpgradeable.sol\":2409:2417  newOwner */\n      dup2\n        /* \"@openzeppelin/contracts-upgradeable/access/OwnableUpgradeable.sol\":2409:2431  newOwner != address(0) */\n      0xffffffffffffffffffffffffffffffffffffffff\n      and\n      eq\n      iszero\n        /* \"@openzeppelin/contracts-upgradeable/access/OwnableUpgradeable.sol\":2401:2474  require(newOwner != address(0), \"Ownable: new owner is the zero address\") */\n      tag_276\n      jumpi\n      mload(0x40)\n      0x08c379a000000000000000000000000000000000000000000000000000000000\n      dup2\n      mstore\n      0x04\n      add\n      tag_277\n      swap1\n      tag_278\n      jump\t// in\n    tag_277:\n      mload(0x40)\n      dup1\n      swap2\n      sub\n      swap1\n      revert\n    tag_276:\n        /* \"@openzeppelin/contracts-upgradeable/access/OwnableUpgradeable.sol\":2484:2512  _transferOwnership(newOwner) */\n      tag_279\n        /* \"@openzeppelin/contracts-upgradeable/access/OwnableUpgradeable.sol\":2503:2511  newOwner */\n      dup2\n        /* \"@openzeppelin/contracts-upgradeable/access/OwnableUpgradeable.sol\":2484:2502  _transferOwnership */\n      tag_181\n        /* \"@openzeppelin/contracts-upgradeable/access/OwnableUpgradeable.sol\":2484:2512  _transferOwnership(newOwner) */\n      jump\t// in\n    tag_279:\n        /* \"@openzeppelin/contracts-upgradeable/access/OwnableUpgradeable.sol\":2321:2519  function transferOwnership(address newOwner) public virtual onlyOwner {... */\n      pop\n      jump\t// out\n        /* \"contracts/ico/PaymeTokenVesting.sol\":4803:5037  function getVestingScheduleByAddressAndIndex(address holder, uint256 index)... */\n    tag_118:\n        /* \"contracts/ico/PaymeTokenVesting.sol\":4913:4935  VestingSchedule memory */\n      tag_280\n      tag_236\n      jump\t// in\n    tag_280:\n        /* \"contracts/ico/PaymeTokenVesting.sol\":4953:5030  getVestingSchedule(computeVestingScheduleIdForAddressAndIndex(holder, index)) */\n      tag_282\n        /* \"contracts/ico/PaymeTokenVesting.sol\":4972:5029  computeVestingScheduleIdForAddressAndIndex(holder, index) */\n      tag_283\n        /* \"contracts/ico/PaymeTokenVesting.sol\":5015:5021  holder */\n      dup5\n        /* \"contracts/ico/PaymeTokenVesting.sol\":5023:5028  index */\n      dup5\n        /* \"contracts/ico/PaymeTokenVesting.sol\":4972:5014  computeVestingScheduleIdForAddressAndIndex */\n      tag_87\n        /* \"contracts/ico/PaymeTokenVesting.sol\":4972:5029  computeVestingScheduleIdForAddressAndIndex(holder, index) */\n      jump\t// in\n    tag_283:\n        /* \"contracts/ico/PaymeTokenVesting.sol\":4953:4971  getVestingSchedule */\n      tag_101\n        /* \"contracts/ico/PaymeTokenVesting.sol\":4953:5030  getVestingSchedule(computeVestingScheduleIdForAddressAndIndex(holder, index)) */\n      jump\t// in\n    tag_282:\n        /* \"contracts/ico/PaymeTokenVesting.sol\":4946:5030  return getVestingSchedule(computeVestingScheduleIdForAddressAndIndex(holder, index)) */\n      swap1\n      pop\n        /* \"contracts/ico/PaymeTokenVesting.sol\":4803:5037  function getVestingScheduleByAddressAndIndex(address holder, uint256 index)... */\n      swap3\n      swap2\n      pop\n      pop\n      jump\t// out\n        /* \"contracts/ico/PaymeTokenVesting.sol\":13015:13233  function computeNextVestingScheduleIdForHolder(address holder)... */\n    tag_122:\n        /* \"contracts/ico/PaymeTokenVesting.sol\":13122:13129  bytes32 */\n      0x00\n        /* \"contracts/ico/PaymeTokenVesting.sol\":13147:13226  computeVestingScheduleIdForAddressAndIndex(holder, holdersVestingCount[holder]) */\n      tag_285\n        /* \"contracts/ico/PaymeTokenVesting.sol\":13190:13196  holder */\n      dup3\n        /* \"contracts/ico/PaymeTokenVesting.sol\":13198:13217  holdersVestingCount */\n      0x9d\n        /* \"contracts/ico/PaymeTokenVesting.sol\":13198:13225  holdersVestingCount[holder] */\n      0x00\n        /* \"contracts/ico/PaymeTokenVesting.sol\":13218:13224  holder */\n      dup6\n        /* \"contracts/ico/PaymeTokenVesting.sol\":13198:13225  holdersVestingCount[holder] */\n      0xffffffffffffffffffffffffffffffffffffffff\n      and\n      0xffffffffffffffffffffffffffffffffffffffff\n      and\n      dup2\n      mstore\n      0x20\n      add\n      swap1\n      dup2\n      mstore\n      0x20\n      add\n      0x00\n      keccak256\n      sload\n        /* \"contracts/ico/PaymeTokenVesting.sol\":13147:13189  computeVestingScheduleIdForAddressAndIndex */\n      tag_87\n        /* \"contracts/ico/PaymeTokenVesting.sol\":13147:13226  computeVestingScheduleIdForAddressAndIndex(holder, holdersVestingCount[holder]) */\n      jump\t// in\n    tag_285:\n        /* \"contracts/ico/PaymeTokenVesting.sol\":13140:13226  return computeVestingScheduleIdForAddressAndIndex(holder, holdersVestingCount[holder]) */\n      swap1\n      pop\n        /* \"contracts/ico/PaymeTokenVesting.sol\":13015:13233  function computeNextVestingScheduleIdForHolder(address holder)... */\n      swap2\n      swap1\n      pop\n      jump\t// out\n        /* \"contracts/ico/PaymeTokenVesting.sol\":4414:4640  function getVestingIdAtIndex(uint256 index)... */\n    tag_126:\n        /* \"contracts/ico/PaymeTokenVesting.sol\":4492:4499  bytes32 */\n      0x00\n        /* \"contracts/ico/PaymeTokenVesting.sol\":4526:4552  getVestingSchedulesCount() */\n      tag_287\n        /* \"contracts/ico/PaymeTokenVesting.sol\":4526:4550  getVestingSchedulesCount */\n      tag_35\n        /* \"contracts/ico/PaymeTokenVesting.sol\":4526:4552  getVestingSchedulesCount() */\n      jump\t// in\n    tag_287:\n        /* \"contracts/ico/PaymeTokenVesting.sol\":4518:4523  index */\n      dup3\n        /* \"contracts/ico/PaymeTokenVesting.sol\":4518:4552  index < getVestingSchedulesCount() */\n      lt\n        /* \"contracts/ico/PaymeTokenVesting.sol\":4510:4590  require(index < getVestingSchedulesCount(), \"TokenVesting: index out of bounds\") */\n      tag_288\n      jumpi\n      mload(0x40)\n      0x08c379a000000000000000000000000000000000000000000000000000000000\n      dup2\n      mstore\n      0x04\n      add\n      tag_289\n      swap1\n      tag_290\n      jump\t// in\n    tag_289:\n      mload(0x40)\n      dup1\n      swap2\n      sub\n      swap1\n      revert\n    tag_288:\n        /* \"contracts/ico/PaymeTokenVesting.sol\":4607:4626  vestingSchedulesIds */\n      0x9a\n        /* \"contracts/ico/PaymeTokenVesting.sol\":4627:4632  index */\n      dup3\n        /* \"contracts/ico/PaymeTokenVesting.sol\":4607:4633  vestingSchedulesIds[index] */\n      dup2\n      sload\n      dup2\n      lt\n      tag_291\n      jumpi\n      tag_292\n      tag_293\n      jump\t// in\n    tag_292:\n    tag_291:\n      swap1\n      0x00\n      mstore\n      keccak256(0x00, 0x20)\n      add\n      sload\n        /* \"contracts/ico/PaymeTokenVesting.sol\":4600:4633  return vestingSchedulesIds[index] */\n      swap1\n      pop\n        /* \"contracts/ico/PaymeTokenVesting.sol\":4414:4640  function getVestingIdAtIndex(uint256 index)... */\n      swap2\n      swap1\n      pop\n      jump\t// out\n        /* \"contracts/ico/PaymeTokenVesting.sol\":9045:10332  function releaseTokenForTGE(bytes32 vestingScheduleId)... */\n    tag_130:\n        /* \"@openzeppelin/contracts-upgradeable/security/ReentrancyGuardUpgradeable.sol\":1815:1816  2 */\n      0x02\n        /* \"@openzeppelin/contracts-upgradeable/security/ReentrancyGuardUpgradeable.sol\":2569:2576  _status */\n      sload(0x65)\n        /* \"@openzeppelin/contracts-upgradeable/security/ReentrancyGuardUpgradeable.sol\":2569:2588  _status != _ENTERED */\n      eq\n      iszero\n        /* \"@openzeppelin/contracts-upgradeable/security/ReentrancyGuardUpgradeable.sol\":2561:2624  require(_status != _ENTERED, \"ReentrancyGuard: reentrant call\") */\n      tag_296\n      jumpi\n      mload(0x40)\n      0x08c379a000000000000000000000000000000000000000000000000000000000\n      dup2\n      mstore\n      0x04\n      add\n      tag_297\n      swap1\n      tag_137\n      jump\t// in\n    tag_297:\n      mload(0x40)\n      dup1\n      swap2\n      sub\n      swap1\n      revert\n    tag_296:\n        /* \"@openzeppelin/contracts-upgradeable/security/ReentrancyGuardUpgradeable.sol\":1815:1816  2 */\n      0x02\n        /* \"@openzeppelin/contracts-upgradeable/security/ReentrancyGuardUpgradeable.sol\":2699:2706  _status */\n      0x65\n        /* \"@openzeppelin/contracts-upgradeable/security/ReentrancyGuardUpgradeable.sol\":2699:2717  _status = _ENTERED */\n      dup2\n      swap1\n      sstore\n      pop\n        /* \"contracts/ico/PaymeTokenVesting.sol\":9143:9182  VestingSchedule storage vestingSchedule */\n      0x00\n        /* \"contracts/ico/PaymeTokenVesting.sol\":9185:9201  vestingSchedules */\n      0x9b\n        /* \"contracts/ico/PaymeTokenVesting.sol\":9185:9220  vestingSchedules[vestingScheduleId] */\n      0x00\n        /* \"contracts/ico/PaymeTokenVesting.sol\":9202:9219  vestingScheduleId */\n      dup4\n        /* \"contracts/ico/PaymeTokenVesting.sol\":9185:9220  vestingSchedules[vestingScheduleId] */\n      dup2\n      mstore\n      0x20\n      add\n      swap1\n      dup2\n      mstore\n      0x20\n      add\n      0x00\n      keccak256\n        /* \"contracts/ico/PaymeTokenVesting.sol\":9143:9220  VestingSchedule storage vestingSchedule = vestingSchedules[vestingScheduleId] */\n      swap1\n      pop\n        /* \"contracts/ico/PaymeTokenVesting.sol\":9230:9248  bool isBeneficiary */\n      0x00\n        /* \"contracts/ico/PaymeTokenVesting.sol\":9265:9280  vestingSchedule */\n      dup2\n        /* \"contracts/ico/PaymeTokenVesting.sol\":9265:9292  vestingSchedule.beneficiary */\n      0x00\n      add\n      0x01\n      swap1\n      sload\n      swap1\n      0x0100\n      exp\n      swap1\n      div\n      0xffffffffffffffffffffffffffffffffffffffff\n      and\n        /* \"contracts/ico/PaymeTokenVesting.sol\":9251:9292  msg.sender == vestingSchedule.beneficiary */\n      0xffffffffffffffffffffffffffffffffffffffff\n      and\n        /* \"contracts/ico/PaymeTokenVesting.sol\":9251:9261  msg.sender */\n      caller\n        /* \"contracts/ico/PaymeTokenVesting.sol\":9251:9292  msg.sender == vestingSchedule.beneficiary */\n      0xffffffffffffffffffffffffffffffffffffffff\n      and\n      eq\n        /* \"contracts/ico/PaymeTokenVesting.sol\":9230:9292  bool isBeneficiary = msg.sender == vestingSchedule.beneficiary */\n      swap1\n      pop\n        /* \"contracts/ico/PaymeTokenVesting.sol\":9302:9314  bool isOwner */\n      0x00\n        /* \"contracts/ico/PaymeTokenVesting.sol\":9331:9338  owner() */\n      tag_299\n        /* \"contracts/ico/PaymeTokenVesting.sol\":9331:9336  owner */\n      tag_91\n        /* \"contracts/ico/PaymeTokenVesting.sol\":9331:9338  owner() */\n      jump\t// in\n    tag_299:\n        /* \"contracts/ico/PaymeTokenVesting.sol\":9317:9338  msg.sender == owner() */\n      0xffffffffffffffffffffffffffffffffffffffff\n      and\n        /* \"contracts/ico/PaymeTokenVesting.sol\":9317:9327  msg.sender */\n      caller\n        /* \"contracts/ico/PaymeTokenVesting.sol\":9317:9338  msg.sender == owner() */\n      0xffffffffffffffffffffffffffffffffffffffff\n      and\n      eq\n        /* \"contracts/ico/PaymeTokenVesting.sol\":9302:9338  bool isOwner = msg.sender == owner() */\n      swap1\n      pop\n        /* \"contracts/ico/PaymeTokenVesting.sol\":9369:9382  isBeneficiary */\n      dup2\n        /* \"contracts/ico/PaymeTokenVesting.sol\":9369:9393  isBeneficiary || isOwner */\n      dup1\n      tag_300\n      jumpi\n      pop\n        /* \"contracts/ico/PaymeTokenVesting.sol\":9386:9393  isOwner */\n      dup1\n        /* \"contracts/ico/PaymeTokenVesting.sol\":9369:9393  isBeneficiary || isOwner */\n    tag_300:\n        /* \"contracts/ico/PaymeTokenVesting.sol\":9348:9485  require(... */\n      tag_301\n      jumpi\n      mload(0x40)\n      0x08c379a000000000000000000000000000000000000000000000000000000000\n      dup2\n      mstore\n      0x04\n      add\n      tag_302\n      swap1\n      tag_166\n      jump\t// in\n    tag_302:\n      mload(0x40)\n      dup1\n      swap2\n      sub\n      swap1\n      revert\n    tag_301:\n        /* \"contracts/ico/PaymeTokenVesting.sol\":9549:9553  true */\n      0x01\n        /* \"contracts/ico/PaymeTokenVesting.sol\":9517:9553  vestingSchedule.releaseAtTGE == true */\n      iszero\n      iszero\n        /* \"contracts/ico/PaymeTokenVesting.sol\":9517:9532  vestingSchedule */\n      dup4\n        /* \"contracts/ico/PaymeTokenVesting.sol\":9517:9545  vestingSchedule.releaseAtTGE */\n      0x08\n      add\n      0x01\n      swap1\n      sload\n      swap1\n      0x0100\n      exp\n      swap1\n      div\n      0xff\n      and\n        /* \"contracts/ico/PaymeTokenVesting.sol\":9517:9553  vestingSchedule.releaseAtTGE == true */\n      iszero\n      iszero\n      eq\n        /* \"contracts/ico/PaymeTokenVesting.sol\":9496:9635  require(... */\n      tag_303\n      jumpi\n      mload(0x40)\n      0x08c379a000000000000000000000000000000000000000000000000000000000\n      dup2\n      mstore\n      0x04\n      add\n      tag_304\n      swap1\n      tag_305\n      jump\t// in\n    tag_304:\n      mload(0x40)\n      dup1\n      swap2\n      sub\n      swap1\n      revert\n    tag_303:\n        /* \"contracts/ico/PaymeTokenVesting.sol\":9646:9665  uint256 currentTime */\n      0x00\n        /* \"contracts/ico/PaymeTokenVesting.sol\":9668:9684  getCurrentTime() */\n      tag_306\n        /* \"contracts/ico/PaymeTokenVesting.sol\":9668:9682  getCurrentTime */\n      tag_307\n        /* \"contracts/ico/PaymeTokenVesting.sol\":9668:9684  getCurrentTime() */\n      jump\t// in\n    tag_306:\n        /* \"contracts/ico/PaymeTokenVesting.sol\":9646:9684  uint256 currentTime = getCurrentTime() */\n      swap1\n      pop\n        /* \"contracts/ico/PaymeTokenVesting.sol\":9719:9733  TGEOpeningTime */\n      sload(0x99)\n        /* \"contracts/ico/PaymeTokenVesting.sol\":9704:9715  currentTime */\n      dup2\n        /* \"contracts/ico/PaymeTokenVesting.sol\":9704:9733  currentTime >= TGEOpeningTime */\n      lt\n      iszero\n        /* \"contracts/ico/PaymeTokenVesting.sol\":9696:9760  require(currentTime >= TGEOpeningTime, \"TGE: time not reached!\") */\n      tag_308\n      jumpi\n      mload(0x40)\n      0x08c379a000000000000000000000000000000000000000000000000000000000\n      dup2\n      mstore\n      0x04\n      add\n      tag_309\n      swap1\n      tag_310\n      jump\t// in\n    tag_309:\n      mload(0x40)\n      dup1\n      swap2\n      sub\n      swap1\n      revert\n    tag_308:\n        /* \"contracts/ico/PaymeTokenVesting.sol\":9821:9822  0 */\n      0x00\n        /* \"contracts/ico/PaymeTokenVesting.sol\":9778:9798  TGETokenParticipates */\n      0x9e\n        /* \"contracts/ico/PaymeTokenVesting.sol\":9778:9817  TGETokenParticipates[vestingScheduleId] */\n      0x00\n        /* \"contracts/ico/PaymeTokenVesting.sol\":9799:9816  vestingScheduleId */\n      dup8\n        /* \"contracts/ico/PaymeTokenVesting.sol\":9778:9817  TGETokenParticipates[vestingScheduleId] */\n      dup2\n      mstore\n      0x20\n      add\n      swap1\n      dup2\n      mstore\n      0x20\n      add\n      0x00\n      keccak256\n      sload\n        /* \"contracts/ico/PaymeTokenVesting.sol\":9778:9822  TGETokenParticipates[vestingScheduleId] == 0 */\n      eq\n        /* \"contracts/ico/PaymeTokenVesting.sol\":9770:9853  require(TGETokenParticipates[vestingScheduleId] == 0, \"TGE: Token Already claimed\") */\n      tag_311\n      jumpi\n      mload(0x40)\n      0x08c379a000000000000000000000000000000000000000000000000000000000\n      dup2\n      mstore\n      0x04\n      add\n      tag_312\n      swap1\n      tag_313\n      jump\t// in\n    tag_312:\n      mload(0x40)\n      dup1\n      swap2\n      sub\n      swap1\n      revert\n    tag_311:\n        /* \"contracts/ico/PaymeTokenVesting.sol\":9864:9888  uint256 TGEReleaseAmount */\n      0x00\n        /* \"contracts/ico/PaymeTokenVesting.sol\":9891:9943  vestingSchedule.amountTotal.mul(TGEPercent).div(100) */\n      tag_314\n        /* \"contracts/ico/PaymeTokenVesting.sol\":9939:9942  100 */\n      0x64\n        /* \"contracts/ico/PaymeTokenVesting.sol\":9891:9934  vestingSchedule.amountTotal.mul(TGEPercent) */\n      tag_315\n        /* \"contracts/ico/PaymeTokenVesting.sol\":9923:9933  TGEPercent */\n      sload(0x98)\n        /* \"contracts/ico/PaymeTokenVesting.sol\":9891:9906  vestingSchedule */\n      dup9\n        /* \"contracts/ico/PaymeTokenVesting.sol\":9891:9918  vestingSchedule.amountTotal */\n      0x06\n      add\n      sload\n        /* \"contracts/ico/PaymeTokenVesting.sol\":9891:9922  vestingSchedule.amountTotal.mul */\n      tag_316\n      swap1\n        /* \"contracts/ico/PaymeTokenVesting.sol\":9891:9934  vestingSchedule.amountTotal.mul(TGEPercent) */\n      swap2\n      swap1\n      0xffffffff\n      and\n      jump\t// in\n    tag_315:\n        /* \"contracts/ico/PaymeTokenVesting.sol\":9891:9938  vestingSchedule.amountTotal.mul(TGEPercent).div */\n      tag_317\n      swap1\n        /* \"contracts/ico/PaymeTokenVesting.sol\":9891:9943  vestingSchedule.amountTotal.mul(TGEPercent).div(100) */\n      swap2\n      swap1\n      0xffffffff\n      and\n      jump\t// in\n    tag_314:\n        /* \"contracts/ico/PaymeTokenVesting.sol\":9864:9943  uint256 TGEReleaseAmount = vestingSchedule.amountTotal.mul(TGEPercent).div(100) */\n      swap1\n      pop\n        /* \"contracts/ico/PaymeTokenVesting.sol\":9980:10026  vestingSchedule.released.add(TGEReleaseAmount) */\n      tag_318\n        /* \"contracts/ico/PaymeTokenVesting.sol\":10009:10025  TGEReleaseAmount */\n      dup2\n        /* \"contracts/ico/PaymeTokenVesting.sol\":9980:9995  vestingSchedule */\n      dup7\n        /* \"contracts/ico/PaymeTokenVesting.sol\":9980:10004  vestingSchedule.released */\n      0x07\n      add\n      sload\n        /* \"contracts/ico/PaymeTokenVesting.sol\":9980:10008  vestingSchedule.released.add */\n      tag_173\n      swap1\n        /* \"contracts/ico/PaymeTokenVesting.sol\":9980:10026  vestingSchedule.released.add(TGEReleaseAmount) */\n      swap2\n      swap1\n      0xffffffff\n      and\n      jump\t// in\n    tag_318:\n        /* \"contracts/ico/PaymeTokenVesting.sol\":9953:9968  vestingSchedule */\n      dup6\n        /* \"contracts/ico/PaymeTokenVesting.sol\":9953:9977  vestingSchedule.released */\n      0x07\n      add\n        /* \"contracts/ico/PaymeTokenVesting.sol\":9953:10026  vestingSchedule.released = vestingSchedule.released.add(TGEReleaseAmount) */\n      dup2\n      swap1\n      sstore\n      pop\n        /* \"contracts/ico/PaymeTokenVesting.sol\":10078:10094  TGEReleaseAmount */\n      dup1\n        /* \"contracts/ico/PaymeTokenVesting.sol\":10036:10056  TGETokenParticipates */\n      0x9e\n        /* \"contracts/ico/PaymeTokenVesting.sol\":10036:10075  TGETokenParticipates[vestingScheduleId] */\n      0x00\n        /* \"contracts/ico/PaymeTokenVesting.sol\":10057:10074  vestingScheduleId */\n      dup9\n        /* \"contracts/ico/PaymeTokenVesting.sol\":10036:10075  TGETokenParticipates[vestingScheduleId] */\n      dup2\n      mstore\n      0x20\n      add\n      swap1\n      dup2\n      mstore\n      0x20\n      add\n      0x00\n      keccak256\n        /* \"contracts/ico/PaymeTokenVesting.sol\":10036:10094  TGETokenParticipates[vestingScheduleId] = TGEReleaseAmount */\n      dup2\n      swap1\n      sstore\n      pop\n        /* \"contracts/ico/PaymeTokenVesting.sol\":10105:10139  address payable beneficiaryPayable */\n      0x00\n        /* \"contracts/ico/PaymeTokenVesting.sol\":10150:10165  vestingSchedule */\n      dup6\n        /* \"contracts/ico/PaymeTokenVesting.sol\":10150:10177  vestingSchedule.beneficiary */\n      0x00\n      add\n      0x01\n      swap1\n      sload\n      swap1\n      0x0100\n      exp\n      swap1\n      div\n      0xffffffffffffffffffffffffffffffffffffffff\n      and\n        /* \"contracts/ico/PaymeTokenVesting.sol\":10105:10178  address payable beneficiaryPayable = payable(vestingSchedule.beneficiary) */\n      swap1\n      pop\n        /* \"contracts/ico/PaymeTokenVesting.sol\":10197:10254  _token.safeTransfer(beneficiaryPayable, TGEReleaseAmount) */\n      tag_319\n        /* \"contracts/ico/PaymeTokenVesting.sol\":10217:10235  beneficiaryPayable */\n      dup2\n        /* \"contracts/ico/PaymeTokenVesting.sol\":10237:10253  TGEReleaseAmount */\n      dup4\n        /* \"contracts/ico/PaymeTokenVesting.sol\":10197:10203  _token */\n      0x97\n      0x00\n      swap1\n      sload\n      swap1\n      0x0100\n      exp\n      swap1\n      div\n      0xffffffffffffffffffffffffffffffffffffffff\n      and\n        /* \"contracts/ico/PaymeTokenVesting.sol\":10197:10216  _token.safeTransfer */\n      0xffffffffffffffffffffffffffffffffffffffff\n      and\n      tag_152\n      swap1\n        /* \"contracts/ico/PaymeTokenVesting.sol\":10197:10254  _token.safeTransfer(beneficiaryPayable, TGEReleaseAmount) */\n      swap3\n      swap2\n      swap1\n      0xffffffff\n      and\n      jump\t// in\n    tag_319:\n        /* \"contracts/ico/PaymeTokenVesting.sol\":10270:10325  TokenReleasedAtTGE(beneficiaryPayable,TGEReleaseAmount) */\n      0xd9215c0345f0d530c5101edea49413960423257c62dd4dcc18b5e6c0b63a0227\n        /* \"contracts/ico/PaymeTokenVesting.sol\":10289:10307  beneficiaryPayable */\n      dup2\n        /* \"contracts/ico/PaymeTokenVesting.sol\":10308:10324  TGEReleaseAmount */\n      dup4\n        /* \"contracts/ico/PaymeTokenVesting.sol\":10270:10325  TokenReleasedAtTGE(beneficiaryPayable,TGEReleaseAmount) */\n      mload(0x40)\n      tag_320\n      swap3\n      swap2\n      swap1\n      tag_321\n      jump\t// in\n    tag_320:\n      mload(0x40)\n      dup1\n      swap2\n      sub\n      swap1\n      log1\n        /* \"contracts/ico/PaymeTokenVesting.sol\":9132:10332  {... */\n      pop\n      pop\n      pop\n      pop\n      pop\n      pop\n        /* \"@openzeppelin/contracts-upgradeable/security/ReentrancyGuardUpgradeable.sol\":1772:1773  1 */\n      0x01\n        /* \"@openzeppelin/contracts-upgradeable/security/ReentrancyGuardUpgradeable.sol\":2872:2879  _status */\n      0x65\n        /* \"@openzeppelin/contracts-upgradeable/security/ReentrancyGuardUpgradeable.sol\":2872:2894  _status = _NOT_ENTERED */\n      dup2\n      swap1\n      sstore\n      pop\n        /* \"contracts/ico/PaymeTokenVesting.sol\":9045:10332  function releaseTokenForTGE(bytes32 vestingScheduleId)... */\n      pop\n      jump\t// out\n        /* \"@openzeppelin/contracts-upgradeable/access/OwnableUpgradeable.sol\":1599:1729  function _checkOwner() internal view virtual {... */\n    tag_140:\n        /* \"@openzeppelin/contracts-upgradeable/access/OwnableUpgradeable.sol\":1673:1685  _msgSender() */\n      tag_323\n        /* \"@openzeppelin/contracts-upgradeable/access/OwnableUpgradeable.sol\":1673:1683  _msgSender */\n      tag_324\n        /* \"@openzeppelin/contracts-upgradeable/access/OwnableUpgradeable.sol\":1673:1685  _msgSender() */\n      jump\t// in\n    tag_323:\n        /* \"@openzeppelin/contracts-upgradeable/access/OwnableUpgradeable.sol\":1662:1685  owner() == _msgSender() */\n      0xffffffffffffffffffffffffffffffffffffffff\n      and\n        /* \"@openzeppelin/contracts-upgradeable/access/OwnableUpgradeable.sol\":1662:1669  owner() */\n      tag_325\n        /* \"@openzeppelin/contracts-upgradeable/access/OwnableUpgradeable.sol\":1662:1667  owner */\n      tag_91\n        /* \"@openzeppelin/contracts-upgradeable/access/OwnableUpgradeable.sol\":1662:1669  owner() */\n      jump\t// in\n    tag_325:\n        /* \"@openzeppelin/contracts-upgradeable/access/OwnableUpgradeable.sol\":1662:1685  owner() == _msgSender() */\n      0xffffffffffffffffffffffffffffffffffffffff\n      and\n      eq\n        /* \"@openzeppelin/contracts-upgradeable/access/OwnableUpgradeable.sol\":1654:1722  require(owner() == _msgSender(), \"Ownable: caller is not the owner\") */\n      tag_326\n      jumpi\n      mload(0x40)\n      0x08c379a000000000000000000000000000000000000000000000000000000000\n      dup2\n      mstore\n      0x04\n      add\n      tag_327\n      swap1\n      tag_328\n      jump\t// in\n    tag_327:\n      mload(0x40)\n      dup1\n      swap2\n      sub\n      swap1\n      revert\n    tag_326:\n        /* \"@openzeppelin/contracts-upgradeable/access/OwnableUpgradeable.sol\":1599:1729  function _checkOwner() internal view virtual {... */\n      jump\t// out\n        /* \"@openzeppelin/contracts-upgradeable/token/ERC20/utils/SafeERC20Upgradeable.sol\":818:1034  function safeTransfer(... */\n    tag_152:\n        /* \"@openzeppelin/contracts-upgradeable/token/ERC20/utils/SafeERC20Upgradeable.sol\":941:1027  _callOptionalReturn(token, abi.encodeWithSelector(token.transfer.selector, to, value)) */\n      tag_330\n        /* \"@openzeppelin/contracts-upgradeable/token/ERC20/utils/SafeERC20Upgradeable.sol\":961:966  token */\n      dup4\n        /* \"@openzeppelin/contracts-upgradeable/token/ERC20/utils/SafeERC20Upgradeable.sol\":991:1014  token.transfer.selector */\n      shl(0xe0, 0xa9059cbb)\n        /* \"@openzeppelin/contracts-upgradeable/token/ERC20/utils/SafeERC20Upgradeable.sol\":1016:1018  to */\n      dup5\n        /* \"@openzeppelin/contracts-upgradeable/token/ERC20/utils/SafeERC20Upgradeable.sol\":1020:1025  value */\n      dup5\n        /* \"@openzeppelin/contracts-upgradeable/token/ERC20/utils/SafeERC20Upgradeable.sol\":968:1026  abi.encodeWithSelector(token.transfer.selector, to, value) */\n      add(0x24, mload(0x40))\n      tag_331\n      swap3\n      swap2\n      swap1\n      tag_332\n      jump\t// in\n    tag_331:\n      mload(0x40)\n      0x20\n      dup2\n      dup4\n      sub\n      sub\n      dup2\n      mstore\n      swap1\n      0x40\n      mstore\n      swap1\n      not(0xffffffffffffffffffffffffffffffffffffffffffffffffffffffff)\n      and\n      0x20\n      dup3\n      add\n      dup1\n      mload\n      0xffffffffffffffffffffffffffffffffffffffffffffffffffffffff\n      dup4\n      dup2\n      dup4\n      and\n      or\n      dup4\n      mstore\n      pop\n      pop\n      pop\n      pop\n        /* \"@openzeppelin/contracts-upgradeable/token/ERC20/utils/SafeERC20Upgradeable.sol\":941:960  _callOptionalReturn */\n      tag_333\n        /* \"@openzeppelin/contracts-upgradeable/token/ERC20/utils/SafeERC20Upgradeable.sol\":941:1027  _callOptionalReturn(token, abi.encodeWithSelector(token.transfer.selector, to, value)) */\n      jump\t// in\n    tag_330:\n        /* \"@openzeppelin/contracts-upgradeable/token/ERC20/utils/SafeERC20Upgradeable.sol\":818:1034  function safeTransfer(... */\n      pop\n      pop\n      pop\n      jump\t// out\n        /* \"contracts/ico/PaymeTokenVesting.sol\":14022:15393  function _computeReleasableAmount(VestingSchedule memory vestingSchedule)... */\n    tag_168:\n        /* \"contracts/ico/PaymeTokenVesting.sol\":14130:14137  uint256 */\n      0x00\n        /* \"contracts/ico/PaymeTokenVesting.sol\":14148:14167  uint256 currentTime */\n      dup1\n        /* \"contracts/ico/PaymeTokenVesting.sol\":14170:14186  getCurrentTime() */\n      tag_335\n        /* \"contracts/ico/PaymeTokenVesting.sol\":14170:14184  getCurrentTime */\n      tag_307\n        /* \"contracts/ico/PaymeTokenVesting.sol\":14170:14186  getCurrentTime() */\n      jump\t// in\n    tag_335:\n        /* \"contracts/ico/PaymeTokenVesting.sol\":14148:14186  uint256 currentTime = getCurrentTime() */\n      swap1\n      pop\n        /* \"contracts/ico/PaymeTokenVesting.sol\":14514:14529  vestingSchedule */\n      dup3\n        /* \"contracts/ico/PaymeTokenVesting.sol\":14514:14535  vestingSchedule.cliff */\n      0x40\n      add\n      mload\n        /* \"contracts/ico/PaymeTokenVesting.sol\":14500:14511  currentTime */\n      dup2\n        /* \"contracts/ico/PaymeTokenVesting.sol\":14500:14535  currentTime < vestingSchedule.cliff */\n      lt\n        /* \"contracts/ico/PaymeTokenVesting.sol\":14499:14571  (currentTime < vestingSchedule.cliff) || vestingSchedule.revoked == true */\n      dup1\n      tag_336\n      jumpi\n      pop\n        /* \"contracts/ico/PaymeTokenVesting.sol\":14567:14571  true */\n      0x01\n        /* \"contracts/ico/PaymeTokenVesting.sol\":14540:14571  vestingSchedule.revoked == true */\n      iszero\n      iszero\n        /* \"contracts/ico/PaymeTokenVesting.sol\":14540:14555  vestingSchedule */\n      dup4\n        /* \"contracts/ico/PaymeTokenVesting.sol\":14540:14563  vestingSchedule.revoked */\n      0x0120\n      add\n      mload\n        /* \"contracts/ico/PaymeTokenVesting.sol\":14540:14571  vestingSchedule.revoked == true */\n      iszero\n      iszero\n      eq\n        /* \"contracts/ico/PaymeTokenVesting.sol\":14499:14571  (currentTime < vestingSchedule.cliff) || vestingSchedule.revoked == true */\n    tag_336:\n        /* \"contracts/ico/PaymeTokenVesting.sol\":14495:15387  if ((currentTime < vestingSchedule.cliff) || vestingSchedule.revoked == true) {... */\n      iszero\n      tag_337\n      jumpi\n        /* \"contracts/ico/PaymeTokenVesting.sol\":14594:14595  0 */\n      0x00\n        /* \"contracts/ico/PaymeTokenVesting.sol\":14587:14595  return 0 */\n      swap2\n      pop\n      pop\n      jump(tag_334)\n        /* \"contracts/ico/PaymeTokenVesting.sol\":14495:15387  if ((currentTime < vestingSchedule.cliff) || vestingSchedule.revoked == true) {... */\n    tag_337:\n        /* \"contracts/ico/PaymeTokenVesting.sol\":14631:14682  vestingSchedule.start.add(vestingSchedule.duration) */\n      tag_339\n        /* \"contracts/ico/PaymeTokenVesting.sol\":14657:14672  vestingSchedule */\n      dup4\n        /* \"contracts/ico/PaymeTokenVesting.sol\":14657:14681  vestingSchedule.duration */\n      0x80\n      add\n      mload\n        /* \"contracts/ico/PaymeTokenVesting.sol\":14631:14646  vestingSchedule */\n      dup5\n        /* \"contracts/ico/PaymeTokenVesting.sol\":14631:14652  vestingSchedule.start */\n      0x60\n      add\n      mload\n        /* \"contracts/ico/PaymeTokenVesting.sol\":14631:14656  vestingSchedule.start.add */\n      tag_173\n      swap1\n        /* \"contracts/ico/PaymeTokenVesting.sol\":14631:14682  vestingSchedule.start.add(vestingSchedule.duration) */\n      swap2\n      swap1\n      0xffffffff\n      and\n      jump\t// in\n    tag_339:\n        /* \"contracts/ico/PaymeTokenVesting.sol\":14616:14627  currentTime */\n      dup2\n        /* \"contracts/ico/PaymeTokenVesting.sol\":14616:14682  currentTime >= vestingSchedule.start.add(vestingSchedule.duration) */\n      lt\n        /* \"contracts/ico/PaymeTokenVesting.sol\":14612:15387  if (currentTime >= vestingSchedule.start.add(vestingSchedule.duration)) {... */\n      tag_340\n      jumpi\n        /* \"contracts/ico/PaymeTokenVesting.sol\":14705:14762  vestingSchedule.amountTotal.sub(vestingSchedule.released) */\n      tag_341\n        /* \"contracts/ico/PaymeTokenVesting.sol\":14737:14752  vestingSchedule */\n      dup4\n        /* \"contracts/ico/PaymeTokenVesting.sol\":14737:14761  vestingSchedule.released */\n      0x0100\n      add\n      mload\n        /* \"contracts/ico/PaymeTokenVesting.sol\":14705:14720  vestingSchedule */\n      dup5\n        /* \"contracts/ico/PaymeTokenVesting.sol\":14705:14732  vestingSchedule.amountTotal */\n      0xe0\n      add\n      mload\n        /* \"contracts/ico/PaymeTokenVesting.sol\":14705:14736  vestingSchedule.amountTotal.sub */\n      tag_175\n      swap1\n        /* \"contracts/ico/PaymeTokenVesting.sol\":14705:14762  vestingSchedule.amountTotal.sub(vestingSchedule.released) */\n      swap2\n      swap1\n      0xffffffff\n      and\n      jump\t// in\n    tag_341:\n        /* \"contracts/ico/PaymeTokenVesting.sol\":14698:14762  return vestingSchedule.amountTotal.sub(vestingSchedule.released) */\n      swap2\n      pop\n      pop\n      jump(tag_334)\n        /* \"contracts/ico/PaymeTokenVesting.sol\":14612:15387  if (currentTime >= vestingSchedule.start.add(vestingSchedule.duration)) {... */\n    tag_340:\n        /* \"contracts/ico/PaymeTokenVesting.sol\":14872:14893  uint256 timeFromStart */\n      0x00\n        /* \"contracts/ico/PaymeTokenVesting.sol\":14896:14934  currentTime.sub(vestingSchedule.start) */\n      tag_343\n        /* \"contracts/ico/PaymeTokenVesting.sol\":14912:14927  vestingSchedule */\n      dup5\n        /* \"contracts/ico/PaymeTokenVesting.sol\":14912:14933  vestingSchedule.start */\n      0x60\n      add\n      mload\n        /* \"contracts/ico/PaymeTokenVesting.sol\":14896:14907  currentTime */\n      dup4\n        /* \"contracts/ico/PaymeTokenVesting.sol\":14896:14911  currentTime.sub */\n      tag_175\n      swap1\n        /* \"contracts/ico/PaymeTokenVesting.sol\":14896:14934  currentTime.sub(vestingSchedule.start) */\n      swap2\n      swap1\n      0xffffffff\n      and\n      jump\t// in\n    tag_343:\n        /* \"contracts/ico/PaymeTokenVesting.sol\":14872:14934  uint256 timeFromStart = currentTime.sub(vestingSchedule.start) */\n      swap1\n      pop\n        /* \"contracts/ico/PaymeTokenVesting.sol\":14948:14968  uint secondsPerSlice */\n      0x00\n        /* \"contracts/ico/PaymeTokenVesting.sol\":14971:14986  vestingSchedule */\n      dup5\n        /* \"contracts/ico/PaymeTokenVesting.sol\":14971:15005  vestingSchedule.slicePeriodSeconds */\n      0xa0\n      add\n      mload\n        /* \"contracts/ico/PaymeTokenVesting.sol\":14948:15005  uint secondsPerSlice = vestingSchedule.slicePeriodSeconds */\n      swap1\n      pop\n        /* \"contracts/ico/PaymeTokenVesting.sol\":15019:15045  uint256 vestedSlicePeriods */\n      0x00\n        /* \"contracts/ico/PaymeTokenVesting.sol\":15048:15082  timeFromStart.div(secondsPerSlice) */\n      tag_344\n        /* \"contracts/ico/PaymeTokenVesting.sol\":15066:15081  secondsPerSlice */\n      dup3\n        /* \"contracts/ico/PaymeTokenVesting.sol\":15048:15061  timeFromStart */\n      dup5\n        /* \"contracts/ico/PaymeTokenVesting.sol\":15048:15065  timeFromStart.div */\n      tag_317\n      swap1\n        /* \"contracts/ico/PaymeTokenVesting.sol\":15048:15082  timeFromStart.div(secondsPerSlice) */\n      swap2\n      swap1\n      0xffffffff\n      and\n      jump\t// in\n    tag_344:\n        /* \"contracts/ico/PaymeTokenVesting.sol\":15019:15082  uint256 vestedSlicePeriods = timeFromStart.div(secondsPerSlice) */\n      swap1\n      pop\n        /* \"contracts/ico/PaymeTokenVesting.sol\":15096:15117  uint256 vestedSeconds */\n      0x00\n        /* \"contracts/ico/PaymeTokenVesting.sol\":15120:15159  vestedSlicePeriods.mul(secondsPerSlice) */\n      tag_345\n        /* \"contracts/ico/PaymeTokenVesting.sol\":15143:15158  secondsPerSlice */\n      dup4\n        /* \"contracts/ico/PaymeTokenVesting.sol\":15120:15138  vestedSlicePeriods */\n      dup4\n        /* \"contracts/ico/PaymeTokenVesting.sol\":15120:15142  vestedSlicePeriods.mul */\n      tag_316\n      swap1\n        /* \"contracts/ico/PaymeTokenVesting.sol\":15120:15159  vestedSlicePeriods.mul(secondsPerSlice) */\n      swap2\n      swap1\n      0xffffffff\n      and\n      jump\t// in\n    tag_345:\n        /* \"contracts/ico/PaymeTokenVesting.sol\":15096:15159  uint256 vestedSeconds = vestedSlicePeriods.mul(secondsPerSlice) */\n      swap1\n      pop\n        /* \"contracts/ico/PaymeTokenVesting.sol\":15173:15193  uint256 vestedAmount */\n      0x00\n        /* \"contracts/ico/PaymeTokenVesting.sol\":15196:15272  vestingSchedule.amountTotal.mul(vestedSeconds).div(vestingSchedule.duration) */\n      tag_346\n        /* \"contracts/ico/PaymeTokenVesting.sol\":15247:15262  vestingSchedule */\n      dup9\n        /* \"contracts/ico/PaymeTokenVesting.sol\":15247:15271  vestingSchedule.duration */\n      0x80\n      add\n      mload\n        /* \"contracts/ico/PaymeTokenVesting.sol\":15196:15242  vestingSchedule.amountTotal.mul(vestedSeconds) */\n      tag_347\n        /* \"contracts/ico/PaymeTokenVesting.sol\":15228:15241  vestedSeconds */\n      dup5\n        /* \"contracts/ico/PaymeTokenVesting.sol\":15196:15211  vestingSchedule */\n      dup12\n        /* \"contracts/ico/PaymeTokenVesting.sol\":15196:15223  vestingSchedule.amountTotal */\n      0xe0\n      add\n      mload\n        /* \"contracts/ico/PaymeTokenVesting.sol\":15196:15227  vestingSchedule.amountTotal.mul */\n      tag_316\n      swap1\n        /* \"contracts/ico/PaymeTokenVesting.sol\":15196:15242  vestingSchedule.amountTotal.mul(vestedSeconds) */\n      swap2\n      swap1\n      0xffffffff\n      and\n      jump\t// in\n    tag_347:\n        /* \"contracts/ico/PaymeTokenVesting.sol\":15196:15246  vestingSchedule.amountTotal.mul(vestedSeconds).div */\n      tag_317\n      swap1\n        /* \"contracts/ico/PaymeTokenVesting.sol\":15196:15272  vestingSchedule.amountTotal.mul(vestedSeconds).div(vestingSchedule.duration) */\n      swap2\n      swap1\n      0xffffffff\n      and\n      jump\t// in\n    tag_346:\n        /* \"contracts/ico/PaymeTokenVesting.sol\":15173:15272  uint256 vestedAmount = vestingSchedule.amountTotal.mul(vestedSeconds).div(vestingSchedule.duration) */\n      swap1\n      pop\n        /* \"contracts/ico/PaymeTokenVesting.sol\":15301:15343  vestedAmount.sub(vestingSchedule.released) */\n      tag_348\n        /* \"contracts/ico/PaymeTokenVesting.sol\":15318:15333  vestingSchedule */\n      dup9\n        /* \"contracts/ico/PaymeTokenVesting.sol\":15318:15342  vestingSchedule.released */\n      0x0100\n      add\n      mload\n        /* \"contracts/ico/PaymeTokenVesting.sol\":15301:15313  vestedAmount */\n      dup3\n        /* \"contracts/ico/PaymeTokenVesting.sol\":15301:15317  vestedAmount.sub */\n      tag_175\n      swap1\n        /* \"contracts/ico/PaymeTokenVesting.sol\":15301:15343  vestedAmount.sub(vestingSchedule.released) */\n      swap2\n      swap1\n      0xffffffff\n      and\n      jump\t// in\n    tag_348:\n        /* \"contracts/ico/PaymeTokenVesting.sol\":15286:15343  vestedAmount = vestedAmount.sub(vestingSchedule.released) */\n      swap1\n      pop\n        /* \"contracts/ico/PaymeTokenVesting.sol\":15364:15376  vestedAmount */\n      dup1\n        /* \"contracts/ico/PaymeTokenVesting.sol\":15357:15376  return vestedAmount */\n      swap7\n      pop\n      pop\n      pop\n      pop\n      pop\n      pop\n      pop\n        /* \"contracts/ico/PaymeTokenVesting.sol\":14022:15393  function _computeReleasableAmount(VestingSchedule memory vestingSchedule)... */\n    tag_334:\n      swap2\n      swap1\n      pop\n      jump\t// out\n        /* \"@openzeppelin/contracts-upgradeable/utils/math/SafeMathUpgradeable.sol\":2766:2862  function add(uint256 a, uint256 b) internal pure returns (uint256) {... */\n    tag_173:\n        /* \"@openzeppelin/contracts-upgradeable/utils/math/SafeMathUpgradeable.sol\":2824:2831  uint256 */\n      0x00\n        /* \"@openzeppelin/contracts-upgradeable/utils/math/SafeMathUpgradeable.sol\":2854:2855  b */\n      dup2\n        /* \"@openzeppelin/contracts-upgradeable/utils/math/SafeMathUpgradeable.sol\":2850:2851  a */\n      dup4\n        /* \"@openzeppelin/contracts-upgradeable/utils/math/SafeMathUpgradeable.sol\":2850:2855  a + b */\n      tag_350\n      swap2\n      swap1\n      tag_351\n      jump\t// in\n    tag_350:\n        /* \"@openzeppelin/contracts-upgradeable/utils/math/SafeMathUpgradeable.sol\":2843:2855  return a + b */\n      swap1\n      pop\n        /* \"@openzeppelin/contracts-upgradeable/utils/math/SafeMathUpgradeable.sol\":2766:2862  function add(uint256 a, uint256 b) internal pure returns (uint256) {... */\n      swap3\n      swap2\n      pop\n      pop\n      jump\t// out\n        /* \"@openzeppelin/contracts-upgradeable/utils/math/SafeMathUpgradeable.sol\":3133:3229  function sub(uint256 a, uint256 b) internal pure returns (uint256) {... */\n    tag_175:\n        /* \"@openzeppelin/contracts-upgradeable/utils/math/SafeMathUpgradeable.sol\":3191:3198  uint256 */\n      0x00\n        /* \"@openzeppelin/contracts-upgradeable/utils/math/SafeMathUpgradeable.sol\":3221:3222  b */\n      dup2\n        /* \"@openzeppelin/contracts-upgradeable/utils/math/SafeMathUpgradeable.sol\":3217:3218  a */\n      dup4\n        /* \"@openzeppelin/contracts-upgradeable/utils/math/SafeMathUpgradeable.sol\":3217:3222  a - b */\n      tag_353\n      swap2\n      swap1\n      tag_240\n      jump\t// in\n    tag_353:\n        /* \"@openzeppelin/contracts-upgradeable/utils/math/SafeMathUpgradeable.sol\":3210:3222  return a - b */\n      swap1\n      pop\n        /* \"@openzeppelin/contracts-upgradeable/utils/math/SafeMathUpgradeable.sol\":3133:3229  function sub(uint256 a, uint256 b) internal pure returns (uint256) {... */\n      swap3\n      swap2\n      pop\n      pop\n      jump\t// out\n        /* \"@openzeppelin/contracts-upgradeable/access/OwnableUpgradeable.sol\":2673:2860  function _transferOwnership(address newOwner) internal virtual {... */\n    tag_181:\n        /* \"@openzeppelin/contracts-upgradeable/access/OwnableUpgradeable.sol\":2746:2762  address oldOwner */\n      0x00\n        /* \"@openzeppelin/contracts-upgradeable/access/OwnableUpgradeable.sol\":2765:2771  _owner */\n      0x33\n      0x00\n      swap1\n      sload\n      swap1\n      0x0100\n      exp\n      swap1\n      div\n      0xffffffffffffffffffffffffffffffffffffffff\n      and\n        /* \"@openzeppelin/contracts-upgradeable/access/OwnableUpgradeable.sol\":2746:2771  address oldOwner = _owner */\n      swap1\n      pop\n        /* \"@openzeppelin/contracts-upgradeable/access/OwnableUpgradeable.sol\":2790:2798  newOwner */\n      dup2\n        /* \"@openzeppelin/contracts-upgradeable/access/OwnableUpgradeable.sol\":2781:2787  _owner */\n      0x33\n      0x00\n        /* \"@openzeppelin/contracts-upgradeable/access/OwnableUpgradeable.sol\":2781:2798  _owner = newOwner */\n      0x0100\n      exp\n      dup2\n      sload\n      dup2\n      0xffffffffffffffffffffffffffffffffffffffff\n      mul\n      not\n      and\n      swap1\n      dup4\n      0xffffffffffffffffffffffffffffffffffffffff\n      and\n      mul\n      or\n      swap1\n      sstore\n      pop\n        /* \"@openzeppelin/contracts-upgradeable/access/OwnableUpgradeable.sol\":2844:2852  newOwner */\n      dup2\n        /* \"@openzeppelin/contracts-upgradeable/access/OwnableUpgradeable.sol\":2813:2853  OwnershipTransferred(oldOwner, newOwner) */\n      0xffffffffffffffffffffffffffffffffffffffff\n      and\n        /* \"@openzeppelin/contracts-upgradeable/access/OwnableUpgradeable.sol\":2834:2842  oldOwner */\n      dup2\n        /* \"@openzeppelin/contracts-upgradeable/access/OwnableUpgradeable.sol\":2813:2853  OwnershipTransferred(oldOwner, newOwner) */\n      0xffffffffffffffffffffffffffffffffffffffff\n      and\n      0x8be0079c531659141344cd1fd0a4f28419497f9722a3daafe3b4186f6b6457e0\n      mload(0x40)\n      mload(0x40)\n      dup1\n      swap2\n      sub\n      swap1\n      log3\n        /* \"@openzeppelin/contracts-upgradeable/access/OwnableUpgradeable.sol\":2736:2860  {... */\n      pop\n        /* \"@openzeppelin/contracts-upgradeable/access/OwnableUpgradeable.sol\":2673:2860  function _transferOwnership(address newOwner) internal virtual {... */\n      pop\n      jump\t// out\n        /* \"@openzeppelin/contracts-upgradeable/utils/AddressUpgradeable.sol\":1186:1506  function isContract(address account) internal view returns (bool) {... */\n    tag_186:\n        /* \"@openzeppelin/contracts-upgradeable/utils/AddressUpgradeable.sol\":1246:1250  bool */\n      0x00\n        /* \"@openzeppelin/contracts-upgradeable/utils/AddressUpgradeable.sol\":1498:1499  0 */\n      dup1\n        /* \"@openzeppelin/contracts-upgradeable/utils/AddressUpgradeable.sol\":1476:1483  account */\n      dup3\n        /* \"@openzeppelin/contracts-upgradeable/utils/AddressUpgradeable.sol\":1476:1495  account.code.length */\n      0xffffffffffffffffffffffffffffffffffffffff\n      and\n      extcodesize\n        /* \"@openzeppelin/contracts-upgradeable/utils/AddressUpgradeable.sol\":1476:1499  account.code.length > 0 */\n      gt\n        /* \"@openzeppelin/contracts-upgradeable/utils/AddressUpgradeable.sol\":1469:1499  return account.code.length > 0 */\n      swap1\n      pop\n        /* \"@openzeppelin/contracts-upgradeable/utils/AddressUpgradeable.sol\":1186:1506  function isContract(address account) internal view returns (bool) {... */\n      swap2\n      swap1\n      pop\n      jump\t// out\n        /* \"@openzeppelin/contracts-upgradeable/access/OwnableUpgradeable.sol\":1104:1215  function __Ownable_init_unchained() internal onlyInitializing {... */\n    tag_195:\n        /* \"@openzeppelin/contracts-upgradeable/proxy/utils/Initializable.sol\":4910:4923  _initializing */\n      0x00\n      0x01\n      swap1\n      sload\n      swap1\n      0x0100\n      exp\n      swap1\n      div\n      0xff\n      and\n        /* \"@openzeppelin/contracts-upgradeable/proxy/utils/Initializable.sol\":4902:4971  require(_initializing, \"Initializable: contract is not initializing\") */\n      tag_357\n      jumpi\n      mload(0x40)\n      0x08c379a000000000000000000000000000000000000000000000000000000000\n      dup2\n      mstore\n      0x04\n      add\n      tag_358\n      swap1\n      tag_359\n      jump\t// in\n    tag_358:\n      mload(0x40)\n      dup1\n      swap2\n      sub\n      swap1\n      revert\n    tag_357:\n        /* \"@openzeppelin/contracts-upgradeable/access/OwnableUpgradeable.sol\":1176:1208  _transferOwnership(_msgSender()) */\n      tag_361\n        /* \"@openzeppelin/contracts-upgradeable/access/OwnableUpgradeable.sol\":1195:1207  _msgSender() */\n      tag_362\n        /* \"@openzeppelin/contracts-upgradeable/access/OwnableUpgradeable.sol\":1195:1205  _msgSender */\n      tag_324\n        /* \"@openzeppelin/contracts-upgradeable/access/OwnableUpgradeable.sol\":1195:1207  _msgSender() */\n      jump\t// in\n    tag_362:\n        /* \"@openzeppelin/contracts-upgradeable/access/OwnableUpgradeable.sol\":1176:1194  _transferOwnership */\n      tag_181\n        /* \"@openzeppelin/contracts-upgradeable/access/OwnableUpgradeable.sol\":1176:1208  _transferOwnership(_msgSender()) */\n      jump\t// in\n    tag_361:\n        /* \"@openzeppelin/contracts-upgradeable/access/OwnableUpgradeable.sol\":1104:1215  function __Ownable_init_unchained() internal onlyInitializing {... */\n      jump\t// out\n        /* \"@openzeppelin/contracts-upgradeable/security/ReentrancyGuardUpgradeable.sol\":1970:2079  function __ReentrancyGuard_init_unchained() internal onlyInitializing {... */\n    tag_197:\n        /* \"@openzeppelin/contracts-upgradeable/proxy/utils/Initializable.sol\":4910:4923  _initializing */\n      0x00\n      0x01\n      swap1\n      sload\n      swap1\n      0x0100\n      exp\n      swap1\n      div\n      0xff\n      and\n        /* \"@openzeppelin/contracts-upgradeable/proxy/utils/Initializable.sol\":4902:4971  require(_initializing, \"Initializable: contract is not initializing\") */\n      tag_364\n      jumpi\n      mload(0x40)\n      0x08c379a000000000000000000000000000000000000000000000000000000000\n      dup2\n      mstore\n      0x04\n      add\n      tag_365\n      swap1\n      tag_359\n      jump\t// in\n    tag_365:\n      mload(0x40)\n      dup1\n      swap2\n      sub\n      swap1\n      revert\n    tag_364:\n        /* \"@openzeppelin/contracts-upgradeable/security/ReentrancyGuardUpgradeable.sol\":1772:1773  1 */\n      0x01\n        /* \"@openzeppelin/contracts-upgradeable/security/ReentrancyGuardUpgradeable.sol\":2050:2057  _status */\n      0x65\n        /* \"@openzeppelin/contracts-upgradeable/security/ReentrancyGuardUpgradeable.sol\":2050:2072  _status = _NOT_ENTERED */\n      dup2\n      swap1\n      sstore\n      pop\n        /* \"@openzeppelin/contracts-upgradeable/security/ReentrancyGuardUpgradeable.sol\":1970:2079  function __ReentrancyGuard_init_unchained() internal onlyInitializing {... */\n      jump\t// out\n        /* \"contracts/ico/PaymeTokenVesting.sol\":15399:15534  function getCurrentTime()... */\n    tag_307:\n        /* \"contracts/ico/PaymeTokenVesting.sol\":15487:15494  uint256 */\n      0x00\n        /* \"contracts/ico/PaymeTokenVesting.sol\":15512:15527  block.timestamp */\n      timestamp\n        /* \"contracts/ico/PaymeTokenVesting.sol\":15505:15527  return block.timestamp */\n      swap1\n      pop\n        /* \"contracts/ico/PaymeTokenVesting.sol\":15399:15534  function getCurrentTime()... */\n      swap1\n      jump\t// out\n        /* \"@openzeppelin/contracts-upgradeable/utils/math/SafeMathUpgradeable.sol\":3476:3572  function mul(uint256 a, uint256 b) internal pure returns (uint256) {... */\n    tag_316:\n        /* \"@openzeppelin/contracts-upgradeable/utils/math/SafeMathUpgradeable.sol\":3534:3541  uint256 */\n      0x00\n        /* \"@openzeppelin/contracts-upgradeable/utils/math/SafeMathUpgradeable.sol\":3564:3565  b */\n      dup2\n        /* \"@openzeppelin/contracts-upgradeable/utils/math/SafeMathUpgradeable.sol\":3560:3561  a */\n      dup4\n        /* \"@openzeppelin/contracts-upgradeable/utils/math/SafeMathUpgradeable.sol\":3560:3565  a * b */\n      tag_369\n      swap2\n      swap1\n      tag_370\n      jump\t// in\n    tag_369:\n        /* \"@openzeppelin/contracts-upgradeable/utils/math/SafeMathUpgradeable.sol\":3553:3565  return a * b */\n      swap1\n      pop\n        /* \"@openzeppelin/contracts-upgradeable/utils/math/SafeMathUpgradeable.sol\":3476:3572  function mul(uint256 a, uint256 b) internal pure returns (uint256) {... */\n      swap3\n      swap2\n      pop\n      pop\n      jump\t// out\n        /* \"@openzeppelin/contracts-upgradeable/utils/math/SafeMathUpgradeable.sol\":3861:3957  function div(uint256 a, uint256 b) internal pure returns (uint256) {... */\n    tag_317:\n        /* \"@openzeppelin/contracts-upgradeable/utils/math/SafeMathUpgradeable.sol\":3919:3926  uint256 */\n      0x00\n        /* \"@openzeppelin/contracts-upgradeable/utils/math/SafeMathUpgradeable.sol\":3949:3950  b */\n      dup2\n        /* \"@openzeppelin/contracts-upgradeable/utils/math/SafeMathUpgradeable.sol\":3945:3946  a */\n      dup4\n        /* \"@openzeppelin/contracts-upgradeable/utils/math/SafeMathUpgradeable.sol\":3945:3950  a / b */\n      tag_372\n      swap2\n      swap1\n      tag_373\n      jump\t// in\n    tag_372:\n        /* \"@openzeppelin/contracts-upgradeable/utils/math/SafeMathUpgradeable.sol\":3938:3950  return a / b */\n      swap1\n      pop\n        /* \"@openzeppelin/contracts-upgradeable/utils/math/SafeMathUpgradeable.sol\":3861:3957  function div(uint256 a, uint256 b) internal pure returns (uint256) {... */\n      swap3\n      swap2\n      pop\n      pop\n      jump\t// out\n        /* \"@openzeppelin/contracts-upgradeable/utils/ContextUpgradeable.sol\":850:946  function _msgSender() internal view virtual returns (address) {... */\n    tag_324:\n        /* \"@openzeppelin/contracts-upgradeable/utils/ContextUpgradeable.sol\":903:910  address */\n      0x00\n        /* \"@openzeppelin/contracts-upgradeable/utils/ContextUpgradeable.sol\":929:939  msg.sender */\n      caller\n        /* \"@openzeppelin/contracts-upgradeable/utils/ContextUpgradeable.sol\":922:939  return msg.sender */\n      swap1\n      pop\n        /* \"@openzeppelin/contracts-upgradeable/utils/ContextUpgradeable.sol\":850:946  function _msgSender() internal view virtual returns (address) {... */\n      swap1\n      jump\t// out\n        /* \"@openzeppelin/contracts-upgradeable/token/ERC20/utils/SafeERC20Upgradeable.sol\":3868:4585  function _callOptionalReturn(IERC20Upgradeable token, bytes memory data) private {... */\n    tag_333:\n        /* \"@openzeppelin/contracts-upgradeable/token/ERC20/utils/SafeERC20Upgradeable.sol\":4298:4321  bytes memory returndata */\n      0x00\n        /* \"@openzeppelin/contracts-upgradeable/token/ERC20/utils/SafeERC20Upgradeable.sol\":4324:4393  address(token).functionCall(data, \"SafeERC20: low-level call failed\") */\n      tag_376\n        /* \"@openzeppelin/contracts-upgradeable/token/ERC20/utils/SafeERC20Upgradeable.sol\":4352:4356  data */\n      dup3\n        /* \"@openzeppelin/contracts-upgradeable/token/ERC20/utils/SafeERC20Upgradeable.sol\":4324:4393  address(token).functionCall(data, \"SafeERC20: low-level call failed\") */\n      mload(0x40)\n      dup1\n      0x40\n      add\n      0x40\n      mstore\n      dup1\n      0x20\n      dup2\n      mstore\n      0x20\n      add\n      0x5361666545524332303a206c6f772d6c6576656c2063616c6c206661696c6564\n      dup2\n      mstore\n      pop\n        /* \"@openzeppelin/contracts-upgradeable/token/ERC20/utils/SafeERC20Upgradeable.sol\":4332:4337  token */\n      dup6\n        /* \"@openzeppelin/contracts-upgradeable/token/ERC20/utils/SafeERC20Upgradeable.sol\":4324:4351  address(token).functionCall */\n      0xffffffffffffffffffffffffffffffffffffffff\n      and\n      tag_377\n      swap1\n        /* \"@openzeppelin/contracts-upgradeable/token/ERC20/utils/SafeERC20Upgradeable.sol\":4324:4393  address(token).functionCall(data, \"SafeERC20: low-level call failed\") */\n      swap3\n      swap2\n      swap1\n      0xffffffff\n      and\n      jump\t// in\n    tag_376:\n        /* \"@openzeppelin/contracts-upgradeable/token/ERC20/utils/SafeERC20Upgradeable.sol\":4298:4393  bytes memory returndata = address(token).functionCall(data, \"SafeERC20: low-level call failed\") */\n      swap1\n      pop\n        /* \"@openzeppelin/contracts-upgradeable/token/ERC20/utils/SafeERC20Upgradeable.sol\":4427:4428  0 */\n      0x00\n        /* \"@openzeppelin/contracts-upgradeable/token/ERC20/utils/SafeERC20Upgradeable.sol\":4407:4417  returndata */\n      dup2\n        /* \"@openzeppelin/contracts-upgradeable/token/ERC20/utils/SafeERC20Upgradeable.sol\":4407:4424  returndata.length */\n      mload\n        /* \"@openzeppelin/contracts-upgradeable/token/ERC20/utils/SafeERC20Upgradeable.sol\":4407:4428  returndata.length > 0 */\n      gt\n        /* \"@openzeppelin/contracts-upgradeable/token/ERC20/utils/SafeERC20Upgradeable.sol\":4403:4579  if (returndata.length > 0) {... */\n      iszero\n      tag_378\n      jumpi\n        /* \"@openzeppelin/contracts-upgradeable/token/ERC20/utils/SafeERC20Upgradeable.sol\":4502:4512  returndata */\n      dup1\n        /* \"@openzeppelin/contracts-upgradeable/token/ERC20/utils/SafeERC20Upgradeable.sol\":4491:4521  abi.decode(returndata, (bool)) */\n      dup1\n      0x20\n      add\n      swap1\n      mload\n      dup2\n      add\n      swap1\n      tag_379\n      swap2\n      swap1\n      tag_380\n      jump\t// in\n    tag_379:\n        /* \"@openzeppelin/contracts-upgradeable/token/ERC20/utils/SafeERC20Upgradeable.sol\":4483:4568  require(abi.decode(returndata, (bool)), \"SafeERC20: ERC20 operation did not succeed\") */\n      tag_381\n      jumpi\n      mload(0x40)\n      0x08c379a000000000000000000000000000000000000000000000000000000000\n      dup2\n      mstore\n      0x04\n      add\n      tag_382\n      swap1\n      tag_383\n      jump\t// in\n    tag_382:\n      mload(0x40)\n      dup1\n      swap2\n      sub\n      swap1\n      revert\n    tag_381:\n        /* \"@openzeppelin/contracts-upgradeable/token/ERC20/utils/SafeERC20Upgradeable.sol\":4403:4579  if (returndata.length > 0) {... */\n    tag_378:\n        /* \"@openzeppelin/contracts-upgradeable/token/ERC20/utils/SafeERC20Upgradeable.sol\":3949:4585  {... */\n      pop\n        /* \"@openzeppelin/contracts-upgradeable/token/ERC20/utils/SafeERC20Upgradeable.sol\":3868:4585  function _callOptionalReturn(IERC20Upgradeable token, bytes memory data) private {... */\n      pop\n      pop\n      jump\t// out\n        /* \"@openzeppelin/contracts-upgradeable/utils/AddressUpgradeable.sol\":3872:4095  function functionCall(... */\n    tag_377:\n        /* \"@openzeppelin/contracts-upgradeable/utils/AddressUpgradeable.sol\":4005:4017  bytes memory */\n      0x60\n        /* \"@openzeppelin/contracts-upgradeable/utils/AddressUpgradeable.sol\":4036:4088  functionCallWithValue(target, data, 0, errorMessage) */\n      tag_385\n        /* \"@openzeppelin/contracts-upgradeable/utils/AddressUpgradeable.sol\":4058:4064  target */\n      dup5\n        /* \"@openzeppelin/contracts-upgradeable/utils/AddressUpgradeable.sol\":4066:4070  data */\n      dup5\n        /* \"@openzeppelin/contracts-upgradeable/utils/AddressUpgradeable.sol\":4072:4073  0 */\n      0x00\n        /* \"@openzeppelin/contracts-upgradeable/utils/AddressUpgradeable.sol\":4075:4087  errorMessage */\n      dup6\n        /* \"@openzeppelin/contracts-upgradeable/utils/AddressUpgradeable.sol\":4036:4057  functionCallWithValue */\n      tag_386\n        /* \"@openzeppelin/contracts-upgradeable/utils/AddressUpgradeable.sol\":4036:4088  functionCallWithValue(target, data, 0, errorMessage) */\n      jump\t// in\n    tag_385:\n        /* \"@openzeppelin/contracts-upgradeable/utils/AddressUpgradeable.sol\":4029:4088  return functionCallWithValue(target, data, 0, errorMessage) */\n      swap1\n      pop\n        /* \"@openzeppelin/contracts-upgradeable/utils/AddressUpgradeable.sol\":3872:4095  function functionCall(... */\n      swap4\n      swap3\n      pop\n      pop\n      pop\n      jump\t// out\n        /* \"@openzeppelin/contracts-upgradeable/utils/AddressUpgradeable.sol\":4959:5458  function functionCallWithValue(... */\n    tag_386:\n        /* \"@openzeppelin/contracts-upgradeable/utils/AddressUpgradeable.sol\":5124:5136  bytes memory */\n      0x60\n        /* \"@openzeppelin/contracts-upgradeable/utils/AddressUpgradeable.sol\":5181:5186  value */\n      dup3\n        /* \"@openzeppelin/contracts-upgradeable/utils/AddressUpgradeable.sol\":5156:5177  address(this).balance */\n      selfbalance\n        /* \"@openzeppelin/contracts-upgradeable/utils/AddressUpgradeable.sol\":5156:5186  address(this).balance >= value */\n      lt\n      iszero\n        /* \"@openzeppelin/contracts-upgradeable/utils/AddressUpgradeable.sol\":5148:5229  require(address(this).balance >= value, \"Address: insufficient balance for call\") */\n      tag_388\n      jumpi\n      mload(0x40)\n      0x08c379a000000000000000000000000000000000000000000000000000000000\n      dup2\n      mstore\n      0x04\n      add\n      tag_389\n      swap1\n      tag_390\n      jump\t// in\n    tag_389:\n      mload(0x40)\n      dup1\n      swap2\n      sub\n      swap1\n      revert\n    tag_388:\n        /* \"@openzeppelin/contracts-upgradeable/utils/AddressUpgradeable.sol\":5247:5265  isContract(target) */\n      tag_391\n        /* \"@openzeppelin/contracts-upgradeable/utils/AddressUpgradeable.sol\":5258:5264  target */\n      dup6\n        /* \"@openzeppelin/contracts-upgradeable/utils/AddressUpgradeable.sol\":5247:5257  isContract */\n      tag_186\n        /* \"@openzeppelin/contracts-upgradeable/utils/AddressUpgradeable.sol\":5247:5265  isContract(target) */\n      jump\t// in\n    tag_391:\n        /* \"@openzeppelin/contracts-upgradeable/utils/AddressUpgradeable.sol\":5239:5299  require(isContract(target), \"Address: call to non-contract\") */\n      tag_392\n      jumpi\n      mload(0x40)\n      0x08c379a000000000000000000000000000000000000000000000000000000000\n      dup2\n      mstore\n      0x04\n      add\n      tag_393\n      swap1\n      tag_394\n      jump\t// in\n    tag_393:\n      mload(0x40)\n      dup1\n      swap2\n      sub\n      swap1\n      revert\n    tag_392:\n        /* \"@openzeppelin/contracts-upgradeable/utils/AddressUpgradeable.sol\":5311:5323  bool success */\n      0x00\n        /* \"@openzeppelin/contracts-upgradeable/utils/AddressUpgradeable.sol\":5325:5348  bytes memory returndata */\n      dup1\n        /* \"@openzeppelin/contracts-upgradeable/utils/AddressUpgradeable.sol\":5352:5358  target */\n      dup7\n        /* \"@openzeppelin/contracts-upgradeable/utils/AddressUpgradeable.sol\":5352:5363  target.call */\n      0xffffffffffffffffffffffffffffffffffffffff\n      and\n        /* \"@openzeppelin/contracts-upgradeable/utils/AddressUpgradeable.sol\":5371:5376  value */\n      dup6\n        /* \"@openzeppelin/contracts-upgradeable/utils/AddressUpgradeable.sol\":5378:5382  data */\n      dup8\n        /* \"@openzeppelin/contracts-upgradeable/utils/AddressUpgradeable.sol\":5352:5383  target.call{value: value}(data) */\n      mload(0x40)\n      tag_395\n      swap2\n      swap1\n      tag_396\n      jump\t// in\n    tag_395:\n      0x00\n      mload(0x40)\n      dup1\n      dup4\n      sub\n      dup2\n      dup6\n      dup8\n      gas\n      call\n      swap3\n      pop\n      pop\n      pop\n      returndatasize\n      dup1\n      0x00\n      dup2\n      eq\n      tag_399\n      jumpi\n      mload(0x40)\n      swap2\n      pop\n      and(add(returndatasize, 0x3f), not(0x1f))\n      dup3\n      add\n      0x40\n      mstore\n      returndatasize\n      dup3\n      mstore\n      returndatasize\n      0x00\n      0x20\n      dup5\n      add\n      returndatacopy\n      jump(tag_398)\n    tag_399:\n      0x60\n      swap2\n      pop\n    tag_398:\n      pop\n        /* \"@openzeppelin/contracts-upgradeable/utils/AddressUpgradeable.sol\":5310:5383  (bool success, bytes memory returndata) = target.call{value: value}(data) */\n      swap2\n      pop\n      swap2\n      pop\n        /* \"@openzeppelin/contracts-upgradeable/utils/AddressUpgradeable.sol\":5400:5451  verifyCallResult(success, returndata, errorMessage) */\n      tag_400\n        /* \"@openzeppelin/contracts-upgradeable/utils/AddressUpgradeable.sol\":5417:5424  success */\n      dup3\n        /* \"@openzeppelin/contracts-upgradeable/utils/AddressUpgradeable.sol\":5426:5436  returndata */\n      dup3\n        /* \"@openzeppelin/contracts-upgradeable/utils/AddressUpgradeable.sol\":5438:5450  errorMessage */\n      dup7\n        /* \"@openzeppelin/contracts-upgradeable/utils/AddressUpgradeable.sol\":5400:5416  verifyCallResult */\n      tag_401\n        /* \"@openzeppelin/contracts-upgradeable/utils/AddressUpgradeable.sol\":5400:5451  verifyCallResult(success, returndata, errorMessage) */\n      jump\t// in\n    tag_400:\n        /* \"@openzeppelin/contracts-upgradeable/utils/AddressUpgradeable.sol\":5393:5451  return verifyCallResult(success, returndata, errorMessage) */\n      swap3\n      pop\n      pop\n      pop\n        /* \"@openzeppelin/contracts-upgradeable/utils/AddressUpgradeable.sol\":4959:5458  function functionCallWithValue(... */\n      swap5\n      swap4\n      pop\n      pop\n      pop\n      pop\n      jump\t// out\n        /* \"@openzeppelin/contracts-upgradeable/utils/AddressUpgradeable.sol\":6622:7364  function verifyCallResult(... */\n    tag_401:\n        /* \"@openzeppelin/contracts-upgradeable/utils/AddressUpgradeable.sol\":6768:6780  bytes memory */\n      0x60\n        /* \"@openzeppelin/contracts-upgradeable/utils/AddressUpgradeable.sol\":6796:6803  success */\n      dup4\n        /* \"@openzeppelin/contracts-upgradeable/utils/AddressUpgradeable.sol\":6792:7358  if (success) {... */\n      iszero\n      tag_403\n      jumpi\n        /* \"@openzeppelin/contracts-upgradeable/utils/AddressUpgradeable.sol\":6826:6836  returndata */\n      dup3\n        /* \"@openzeppelin/contracts-upgradeable/utils/AddressUpgradeable.sol\":6819:6836  return returndata */\n      swap1\n      pop\n      jump(tag_402)\n        /* \"@openzeppelin/contracts-upgradeable/utils/AddressUpgradeable.sol\":6792:7358  if (success) {... */\n    tag_403:\n        /* \"@openzeppelin/contracts-upgradeable/utils/AddressUpgradeable.sol\":6957:6958  0 */\n      0x00\n        /* \"@openzeppelin/contracts-upgradeable/utils/AddressUpgradeable.sol\":6937:6947  returndata */\n      dup4\n        /* \"@openzeppelin/contracts-upgradeable/utils/AddressUpgradeable.sol\":6937:6954  returndata.length */\n      mload\n        /* \"@openzeppelin/contracts-upgradeable/utils/AddressUpgradeable.sol\":6937:6958  returndata.length > 0 */\n      gt\n        /* \"@openzeppelin/contracts-upgradeable/utils/AddressUpgradeable.sol\":6933:7348  if (returndata.length > 0) {... */\n      iszero\n      tag_405\n      jumpi\n        /* \"@openzeppelin/contracts-upgradeable/utils/AddressUpgradeable.sol\":7181:7191  returndata */\n      dup3\n        /* \"@openzeppelin/contracts-upgradeable/utils/AddressUpgradeable.sol\":7175:7192  mload(returndata) */\n      mload\n        /* \"@openzeppelin/contracts-upgradeable/utils/AddressUpgradeable.sol\":7241:7256  returndata_size */\n      dup1\n        /* \"@openzeppelin/contracts-upgradeable/utils/AddressUpgradeable.sol\":7228:7238  returndata */\n      dup5\n        /* \"@openzeppelin/contracts-upgradeable/utils/AddressUpgradeable.sol\":7224:7226  32 */\n      0x20\n        /* \"@openzeppelin/contracts-upgradeable/utils/AddressUpgradeable.sol\":7220:7239  add(32, returndata) */\n      add\n        /* \"@openzeppelin/contracts-upgradeable/utils/AddressUpgradeable.sol\":7213:7257  revert(add(32, returndata), returndata_size) */\n      revert\n        /* \"@openzeppelin/contracts-upgradeable/utils/AddressUpgradeable.sol\":6933:7348  if (returndata.length > 0) {... */\n    tag_405:\n        /* \"@openzeppelin/contracts-upgradeable/utils/AddressUpgradeable.sol\":7320:7332  errorMessage */\n      dup2\n        /* \"@openzeppelin/contracts-upgradeable/utils/AddressUpgradeable.sol\":7313:7333  revert(errorMessage) */\n      mload(0x40)\n      0x08c379a000000000000000000000000000000000000000000000000000000000\n      dup2\n      mstore\n      0x04\n      add\n      tag_407\n      swap2\n      swap1\n      tag_408\n      jump\t// in\n    tag_407:\n      mload(0x40)\n      dup1\n      swap2\n      sub\n      swap1\n      revert\n        /* \"@openzeppelin/contracts-upgradeable/utils/AddressUpgradeable.sol\":6622:7364  function verifyCallResult(... */\n    tag_402:\n      swap4\n      swap3\n      pop\n      pop\n      pop\n      jump\t// out\n    tag_236:\n      mload(0x40)\n      dup1\n      0x0160\n      add\n      0x40\n      mstore\n      dup1\n      iszero(iszero(0x00))\n      dup2\n      mstore\n      0x20\n      add\n      and(0xffffffffffffffffffffffffffffffffffffffff, 0x00)\n      dup2\n      mstore\n      0x20\n      add\n      0x00\n      dup2\n      mstore\n      0x20\n      add\n      0x00\n      dup2\n      mstore\n      0x20\n      add\n      0x00\n      dup2\n      mstore\n      0x20\n      add\n      0x00\n      dup2\n      mstore\n      0x20\n      add\n      iszero(iszero(0x00))\n      dup2\n      mstore\n      0x20\n      add\n      0x00\n      dup2\n      mstore\n      0x20\n      add\n      0x00\n      dup2\n      mstore\n      0x20\n      add\n      iszero(iszero(0x00))\n      dup2\n      mstore\n      0x20\n      add\n      iszero(iszero(0x00))\n      dup2\n      mstore\n      pop\n      swap1\n      jump\t// out\n        /* \"#utility.yul\":7:84   */\n    tag_409:\n        /* \"#utility.yul\":44:51   */\n      0x00\n        /* \"#utility.yul\":73:78   */\n      dup2\n        /* \"#utility.yul\":62:78   */\n      swap1\n      pop\n        /* \"#utility.yul\":7:84   */\n      swap2\n      swap1\n      pop\n      jump\t// out\n        /* \"#utility.yul\":90:208   */\n    tag_410:\n        /* \"#utility.yul\":177:201   */\n      tag_508\n        /* \"#utility.yul\":195:200   */\n      dup2\n        /* \"#utility.yul\":177:201   */\n      tag_409\n      jump\t// in\n    tag_508:\n        /* \"#utility.yul\":172:175   */\n      dup3\n        /* \"#utility.yul\":165:202   */\n      mstore\n        /* \"#utility.yul\":90:208   */\n      pop\n      pop\n      jump\t// out\n        /* \"#utility.yul\":214:436   */\n    tag_37:\n        /* \"#utility.yul\":307:311   */\n      0x00\n        /* \"#utility.yul\":345:347   */\n      0x20\n        /* \"#utility.yul\":334:343   */\n      dup3\n        /* \"#utility.yul\":330:348   */\n      add\n        /* \"#utility.yul\":322:348   */\n      swap1\n      pop\n        /* \"#utility.yul\":358:429   */\n      tag_510\n        /* \"#utility.yul\":426:427   */\n      0x00\n        /* \"#utility.yul\":415:424   */\n      dup4\n        /* \"#utility.yul\":411:428   */\n      add\n        /* \"#utility.yul\":402:408   */\n      dup5\n        /* \"#utility.yul\":358:429   */\n      tag_410\n      jump\t// in\n    tag_510:\n        /* \"#utility.yul\":214:436   */\n      swap3\n      swap2\n      pop\n      pop\n      jump\t// out\n        /* \"#utility.yul\":523:640   */\n    tag_412:\n        /* \"#utility.yul\":632:633   */\n      0x00\n        /* \"#utility.yul\":629:630   */\n      dup1\n        /* \"#utility.yul\":622:634   */\n      revert\n        /* \"#utility.yul\":769:895   */\n    tag_414:\n        /* \"#utility.yul\":806:813   */\n      0x00\n        /* \"#utility.yul\":846:888   */\n      0xffffffffffffffffffffffffffffffffffffffff\n        /* \"#utility.yul\":839:844   */\n      dup3\n        /* \"#utility.yul\":835:889   */\n      and\n        /* \"#utility.yul\":824:889   */\n      swap1\n      pop\n        /* \"#utility.yul\":769:895   */\n      swap2\n      swap1\n      pop\n      jump\t// out\n        /* \"#utility.yul\":901:997   */\n    tag_415:\n        /* \"#utility.yul\":938:945   */\n      0x00\n        /* \"#utility.yul\":967:991   */\n      tag_516\n        /* \"#utility.yul\":985:990   */\n      dup3\n        /* \"#utility.yul\":967:991   */\n      tag_414\n      jump\t// in\n    tag_516:\n        /* \"#utility.yul\":956:991   */\n      swap1\n      pop\n        /* \"#utility.yul\":901:997   */\n      swap2\n      swap1\n      pop\n      jump\t// out\n        /* \"#utility.yul\":1003:1125   */\n    tag_416:\n        /* \"#utility.yul\":1076:1100   */\n      tag_518\n        /* \"#utility.yul\":1094:1099   */\n      dup2\n        /* \"#utility.yul\":1076:1100   */\n      tag_415\n      jump\t// in\n    tag_518:\n        /* \"#utility.yul\":1069:1074   */\n      dup2\n        /* \"#utility.yul\":1066:1101   */\n      eq\n        /* \"#utility.yul\":1056:1119   */\n      tag_519\n      jumpi\n        /* \"#utility.yul\":1115:1116   */\n      0x00\n        /* \"#utility.yul\":1112:1113   */\n      dup1\n        /* \"#utility.yul\":1105:1117   */\n      revert\n        /* \"#utility.yul\":1056:1119   */\n    tag_519:\n        /* \"#utility.yul\":1003:1125   */\n      pop\n      jump\t// out\n        /* \"#utility.yul\":1131:1270   */\n    tag_417:\n        /* \"#utility.yul\":1177:1182   */\n      0x00\n        /* \"#utility.yul\":1215:1221   */\n      dup2\n        /* \"#utility.yul\":1202:1222   */\n      calldataload\n        /* \"#utility.yul\":1193:1222   */\n      swap1\n      pop\n        /* \"#utility.yul\":1231:1264   */\n      tag_521\n        /* \"#utility.yul\":1258:1263   */\n      dup2\n        /* \"#utility.yul\":1231:1264   */\n      tag_416\n      jump\t// in\n    tag_521:\n        /* \"#utility.yul\":1131:1270   */\n      swap3\n      swap2\n      pop\n      pop\n      jump\t// out\n        /* \"#utility.yul\":1276:1605   */\n    tag_40:\n        /* \"#utility.yul\":1335:1341   */\n      0x00\n        /* \"#utility.yul\":1384:1386   */\n      0x20\n        /* \"#utility.yul\":1372:1381   */\n      dup3\n        /* \"#utility.yul\":1363:1370   */\n      dup5\n        /* \"#utility.yul\":1359:1382   */\n      sub\n        /* \"#utility.yul\":1355:1387   */\n      slt\n        /* \"#utility.yul\":1352:1471   */\n      iszero\n      tag_523\n      jumpi\n        /* \"#utility.yul\":1390:1469   */\n      tag_524\n      tag_412\n      jump\t// in\n    tag_524:\n        /* \"#utility.yul\":1352:1471   */\n    tag_523:\n        /* \"#utility.yul\":1510:1511   */\n      0x00\n        /* \"#utility.yul\":1535:1588   */\n      tag_525\n        /* \"#utility.yul\":1580:1587   */\n      dup5\n        /* \"#utility.yul\":1571:1577   */\n      dup3\n        /* \"#utility.yul\":1560:1569   */\n      dup6\n        /* \"#utility.yul\":1556:1578   */\n      add\n        /* \"#utility.yul\":1535:1588   */\n      tag_417\n      jump\t// in\n    tag_525:\n        /* \"#utility.yul\":1525:1588   */\n      swap2\n      pop\n        /* \"#utility.yul\":1481:1598   */\n      pop\n        /* \"#utility.yul\":1276:1605   */\n      swap3\n      swap2\n      pop\n      pop\n      jump\t// out\n        /* \"#utility.yul\":1611:1729   */\n    tag_418:\n        /* \"#utility.yul\":1698:1722   */\n      tag_527\n        /* \"#utility.yul\":1716:1721   */\n      dup2\n        /* \"#utility.yul\":1698:1722   */\n      tag_415\n      jump\t// in\n    tag_527:\n        /* \"#utility.yul\":1693:1696   */\n      dup3\n        /* \"#utility.yul\":1686:1723   */\n      mstore\n        /* \"#utility.yul\":1611:1729   */\n      pop\n      pop\n      jump\t// out\n        /* \"#utility.yul\":1735:1957   */\n    tag_45:\n        /* \"#utility.yul\":1828:1832   */\n      0x00\n        /* \"#utility.yul\":1866:1868   */\n      0x20\n        /* \"#utility.yul\":1855:1864   */\n      dup3\n        /* \"#utility.yul\":1851:1869   */\n      add\n        /* \"#utility.yul\":1843:1869   */\n      swap1\n      pop\n        /* \"#utility.yul\":1879:1950   */\n      tag_529\n        /* \"#utility.yul\":1947:1948   */\n      0x00\n        /* \"#utility.yul\":1936:1945   */\n      dup4\n        /* \"#utility.yul\":1932:1949   */\n      add\n        /* \"#utility.yul\":1923:1929   */\n      dup5\n        /* \"#utility.yul\":1879:1950   */\n      tag_418\n      jump\t// in\n    tag_529:\n        /* \"#utility.yul\":1735:1957   */\n      swap3\n      swap2\n      pop\n      pop\n      jump\t// out\n        /* \"#utility.yul\":1963:2085   */\n    tag_419:\n        /* \"#utility.yul\":2036:2060   */\n      tag_531\n        /* \"#utility.yul\":2054:2059   */\n      dup2\n        /* \"#utility.yul\":2036:2060   */\n      tag_409\n      jump\t// in\n    tag_531:\n        /* \"#utility.yul\":2029:2034   */\n      dup2\n        /* \"#utility.yul\":2026:2061   */\n      eq\n        /* \"#utility.yul\":2016:2079   */\n      tag_532\n      jumpi\n        /* \"#utility.yul\":2075:2076   */\n      0x00\n        /* \"#utility.yul\":2072:2073   */\n      dup1\n        /* \"#utility.yul\":2065:2077   */\n      revert\n        /* \"#utility.yul\":2016:2079   */\n    tag_532:\n        /* \"#utility.yul\":1963:2085   */\n      pop\n      jump\t// out\n        /* \"#utility.yul\":2091:2230   */\n    tag_420:\n        /* \"#utility.yul\":2137:2142   */\n      0x00\n        /* \"#utility.yul\":2175:2181   */\n      dup2\n        /* \"#utility.yul\":2162:2182   */\n      calldataload\n        /* \"#utility.yul\":2153:2182   */\n      swap1\n      pop\n        /* \"#utility.yul\":2191:2224   */\n      tag_534\n        /* \"#utility.yul\":2218:2223   */\n      dup2\n        /* \"#utility.yul\":2191:2224   */\n      tag_419\n      jump\t// in\n    tag_534:\n        /* \"#utility.yul\":2091:2230   */\n      swap3\n      swap2\n      pop\n      pop\n      jump\t// out\n        /* \"#utility.yul\":2236:2565   */\n    tag_48:\n        /* \"#utility.yul\":2295:2301   */\n      0x00\n        /* \"#utility.yul\":2344:2346   */\n      0x20\n        /* \"#utility.yul\":2332:2341   */\n      dup3\n        /* \"#utility.yul\":2323:2330   */\n      dup5\n        /* \"#utility.yul\":2319:2342   */\n      sub\n        /* \"#utility.yul\":2315:2347   */\n      slt\n        /* \"#utility.yul\":2312:2431   */\n      iszero\n      tag_536\n      jumpi\n        /* \"#utility.yul\":2350:2429   */\n      tag_537\n      tag_412\n      jump\t// in\n    tag_537:\n        /* \"#utility.yul\":2312:2431   */\n    tag_536:\n        /* \"#utility.yul\":2470:2471   */\n      0x00\n        /* \"#utility.yul\":2495:2548   */\n      tag_538\n        /* \"#utility.yul\":2540:2547   */\n      dup5\n        /* \"#utility.yul\":2531:2537   */\n      dup3\n        /* \"#utility.yul\":2520:2529   */\n      dup6\n        /* \"#utility.yul\":2516:2538   */\n      add\n        /* \"#utility.yul\":2495:2548   */\n      tag_420\n      jump\t// in\n    tag_538:\n        /* \"#utility.yul\":2485:2548   */\n      swap2\n      pop\n        /* \"#utility.yul\":2441:2558   */\n      pop\n        /* \"#utility.yul\":2236:2565   */\n      swap3\n      swap2\n      pop\n      pop\n      jump\t// out\n        /* \"#utility.yul\":2571:2648   */\n    tag_421:\n        /* \"#utility.yul\":2608:2615   */\n      0x00\n        /* \"#utility.yul\":2637:2642   */\n      dup2\n        /* \"#utility.yul\":2626:2642   */\n      swap1\n      pop\n        /* \"#utility.yul\":2571:2648   */\n      swap2\n      swap1\n      pop\n      jump\t// out\n        /* \"#utility.yul\":2654:2776   */\n    tag_422:\n        /* \"#utility.yul\":2727:2751   */\n      tag_541\n        /* \"#utility.yul\":2745:2750   */\n      dup2\n        /* \"#utility.yul\":2727:2751   */\n      tag_421\n      jump\t// in\n    tag_541:\n        /* \"#utility.yul\":2720:2725   */\n      dup2\n        /* \"#utility.yul\":2717:2752   */\n      eq\n        /* \"#utility.yul\":2707:2770   */\n      tag_542\n      jumpi\n        /* \"#utility.yul\":2766:2767   */\n      0x00\n        /* \"#utility.yul\":2763:2764   */\n      dup1\n        /* \"#utility.yul\":2756:2768   */\n      revert\n        /* \"#utility.yul\":2707:2770   */\n    tag_542:\n        /* \"#utility.yul\":2654:2776   */\n      pop\n      jump\t// out\n        /* \"#utility.yul\":2782:2921   */\n    tag_423:\n        /* \"#utility.yul\":2828:2833   */\n      0x00\n        /* \"#utility.yul\":2866:2872   */\n      dup2\n        /* \"#utility.yul\":2853:2873   */\n      calldataload\n        /* \"#utility.yul\":2844:2873   */\n      swap1\n      pop\n        /* \"#utility.yul\":2882:2915   */\n      tag_544\n        /* \"#utility.yul\":2909:2914   */\n      dup2\n        /* \"#utility.yul\":2882:2915   */\n      tag_422\n      jump\t// in\n    tag_544:\n        /* \"#utility.yul\":2782:2921   */\n      swap3\n      swap2\n      pop\n      pop\n      jump\t// out\n        /* \"#utility.yul\":2927:3256   */\n    tag_52:\n        /* \"#utility.yul\":2986:2992   */\n      0x00\n        /* \"#utility.yul\":3035:3037   */\n      0x20\n        /* \"#utility.yul\":3023:3032   */\n      dup3\n        /* \"#utility.yul\":3014:3021   */\n      dup5\n        /* \"#utility.yul\":3010:3033   */\n      sub\n        /* \"#utility.yul\":3006:3038   */\n      slt\n        /* \"#utility.yul\":3003:3122   */\n      iszero\n      tag_546\n      jumpi\n        /* \"#utility.yul\":3041:3120   */\n      tag_547\n      tag_412\n      jump\t// in\n    tag_547:\n        /* \"#utility.yul\":3003:3122   */\n    tag_546:\n        /* \"#utility.yul\":3161:3162   */\n      0x00\n        /* \"#utility.yul\":3186:3239   */\n      tag_548\n        /* \"#utility.yul\":3231:3238   */\n      dup5\n        /* \"#utility.yul\":3222:3228   */\n      dup3\n        /* \"#utility.yul\":3211:3220   */\n      dup6\n        /* \"#utility.yul\":3207:3229   */\n      add\n        /* \"#utility.yul\":3186:3239   */\n      tag_423\n      jump\t// in\n    tag_548:\n        /* \"#utility.yul\":3176:3239   */\n      swap2\n      pop\n        /* \"#utility.yul\":3132:3249   */\n      pop\n        /* \"#utility.yul\":2927:3256   */\n      swap3\n      swap2\n      pop\n      pop\n      jump\t// out\n        /* \"#utility.yul\":3262:3736   */\n    tag_67:\n        /* \"#utility.yul\":3330:3336   */\n      0x00\n        /* \"#utility.yul\":3338:3344   */\n      dup1\n        /* \"#utility.yul\":3387:3389   */\n      0x40\n        /* \"#utility.yul\":3375:3384   */\n      dup4\n        /* \"#utility.yul\":3366:3373   */\n      dup6\n        /* \"#utility.yul\":3362:3385   */\n      sub\n        /* \"#utility.yul\":3358:3390   */\n      slt\n        /* \"#utility.yul\":3355:3474   */\n      iszero\n      tag_550\n      jumpi\n        /* \"#utility.yul\":3393:3472   */\n      tag_551\n      tag_412\n      jump\t// in\n    tag_551:\n        /* \"#utility.yul\":3355:3474   */\n    tag_550:\n        /* \"#utility.yul\":3513:3514   */\n      0x00\n        /* \"#utility.yul\":3538:3591   */\n      tag_552\n        /* \"#utility.yul\":3583:3590   */\n      dup6\n        /* \"#utility.yul\":3574:3580   */\n      dup3\n        /* \"#utility.yul\":3563:3572   */\n      dup7\n        /* \"#utility.yul\":3559:3581   */\n      add\n        /* \"#utility.yul\":3538:3591   */\n      tag_423\n      jump\t// in\n    tag_552:\n        /* \"#utility.yul\":3528:3591   */\n      swap3\n      pop\n        /* \"#utility.yul\":3484:3601   */\n      pop\n        /* \"#utility.yul\":3640:3642   */\n      0x20\n        /* \"#utility.yul\":3666:3719   */\n      tag_553\n        /* \"#utility.yul\":3711:3718   */\n      dup6\n        /* \"#utility.yul\":3702:3708   */\n      dup3\n        /* \"#utility.yul\":3691:3700   */\n      dup7\n        /* \"#utility.yul\":3687:3709   */\n      add\n        /* \"#utility.yul\":3666:3719   */\n      tag_420\n      jump\t// in\n    tag_553:\n        /* \"#utility.yul\":3656:3719   */\n      swap2\n      pop\n        /* \"#utility.yul\":3611:3729   */\n      pop\n        /* \"#utility.yul\":3262:3736   */\n      swap3\n      pop\n      swap3\n      swap1\n      pop\n      jump\t// out\n        /* \"#utility.yul\":3742:3863   */\n    tag_424:\n        /* \"#utility.yul\":3804:3811   */\n      0x00\n        /* \"#utility.yul\":3833:3857   */\n      tag_555\n        /* \"#utility.yul\":3851:3856   */\n      dup3\n        /* \"#utility.yul\":3833:3857   */\n      tag_415\n      jump\t// in\n    tag_555:\n        /* \"#utility.yul\":3822:3857   */\n      swap1\n      pop\n        /* \"#utility.yul\":3742:3863   */\n      swap2\n      swap1\n      pop\n      jump\t// out\n        /* \"#utility.yul\":3869:4041   */\n    tag_425:\n        /* \"#utility.yul\":3967:4016   */\n      tag_557\n        /* \"#utility.yul\":4010:4015   */\n      dup2\n        /* \"#utility.yul\":3967:4016   */\n      tag_424\n      jump\t// in\n    tag_557:\n        /* \"#utility.yul\":3960:3965   */\n      dup2\n        /* \"#utility.yul\":3957:4017   */\n      eq\n        /* \"#utility.yul\":3947:4035   */\n      tag_558\n      jumpi\n        /* \"#utility.yul\":4031:4032   */\n      0x00\n        /* \"#utility.yul\":4028:4029   */\n      dup1\n        /* \"#utility.yul\":4021:4033   */\n      revert\n        /* \"#utility.yul\":3947:4035   */\n    tag_558:\n        /* \"#utility.yul\":3869:4041   */\n      pop\n      jump\t// out\n        /* \"#utility.yul\":4047:4236   */\n    tag_426:\n        /* \"#utility.yul\":4118:4123   */\n      0x00\n        /* \"#utility.yul\":4156:4162   */\n      dup2\n        /* \"#utility.yul\":4143:4163   */\n      calldataload\n        /* \"#utility.yul\":4134:4163   */\n      swap1\n      pop\n        /* \"#utility.yul\":4172:4230   */\n      tag_560\n        /* \"#utility.yul\":4224:4229   */\n      dup2\n        /* \"#utility.yul\":4172:4230   */\n      tag_425\n      jump\t// in\n    tag_560:\n        /* \"#utility.yul\":4047:4236   */\n      swap3\n      swap2\n      pop\n      pop\n      jump\t// out\n        /* \"#utility.yul\":4242:4911   */\n    tag_73:\n        /* \"#utility.yul\":4344:4350   */\n      0x00\n        /* \"#utility.yul\":4352:4358   */\n      dup1\n        /* \"#utility.yul\":4360:4366   */\n      0x00\n        /* \"#utility.yul\":4409:4411   */\n      0x60\n        /* \"#utility.yul\":4397:4406   */\n      dup5\n        /* \"#utility.yul\":4388:4395   */\n      dup7\n        /* \"#utility.yul\":4384:4407   */\n      sub\n        /* \"#utility.yul\":4380:4412   */\n      slt\n        /* \"#utility.yul\":4377:4496   */\n      iszero\n      tag_562\n      jumpi\n        /* \"#utility.yul\":4415:4494   */\n      tag_563\n      tag_412\n      jump\t// in\n    tag_563:\n        /* \"#utility.yul\":4377:4496   */\n    tag_562:\n        /* \"#utility.yul\":4535:4536   */\n      0x00\n        /* \"#utility.yul\":4560:4638   */\n      tag_564\n        /* \"#utility.yul\":4630:4637   */\n      dup7\n        /* \"#utility.yul\":4621:4627   */\n      dup3\n        /* \"#utility.yul\":4610:4619   */\n      dup8\n        /* \"#utility.yul\":4606:4628   */\n      add\n        /* \"#utility.yul\":4560:4638   */\n      tag_426\n      jump\t// in\n    tag_564:\n        /* \"#utility.yul\":4550:4638   */\n      swap4\n      pop\n        /* \"#utility.yul\":4506:4648   */\n      pop\n        /* \"#utility.yul\":4687:4689   */\n      0x20\n        /* \"#utility.yul\":4713:4766   */\n      tag_565\n        /* \"#utility.yul\":4758:4765   */\n      dup7\n        /* \"#utility.yul\":4749:4755   */\n      dup3\n        /* \"#utility.yul\":4738:4747   */\n      dup8\n        /* \"#utility.yul\":4734:4756   */\n      add\n        /* \"#utility.yul\":4713:4766   */\n      tag_420\n      jump\t// in\n    tag_565:\n        /* \"#utility.yul\":4703:4766   */\n      swap3\n      pop\n        /* \"#utility.yul\":4658:4776   */\n      pop\n        /* \"#utility.yul\":4815:4817   */\n      0x40\n        /* \"#utility.yul\":4841:4894   */\n      tag_566\n        /* \"#utility.yul\":4886:4893   */\n      dup7\n        /* \"#utility.yul\":4877:4883   */\n      dup3\n        /* \"#utility.yul\":4866:4875   */\n      dup8\n        /* \"#utility.yul\":4862:4884   */\n      add\n        /* \"#utility.yul\":4841:4894   */\n      tag_420\n      jump\t// in\n    tag_566:\n        /* \"#utility.yul\":4831:4894   */\n      swap2\n      pop\n        /* \"#utility.yul\":4786:4904   */\n      pop\n        /* \"#utility.yul\":4242:4911   */\n      swap3\n      pop\n      swap3\n      pop\n      swap3\n      jump\t// out\n        /* \"#utility.yul\":4917:5007   */\n    tag_427:\n        /* \"#utility.yul\":4951:4958   */\n      0x00\n        /* \"#utility.yul\":4994:4999   */\n      dup2\n        /* \"#utility.yul\":4987:5000   */\n      iszero\n        /* \"#utility.yul\":4980:5001   */\n      iszero\n        /* \"#utility.yul\":4969:5001   */\n      swap1\n      pop\n        /* \"#utility.yul\":4917:5007   */\n      swap2\n      swap1\n      pop\n      jump\t// out\n        /* \"#utility.yul\":5013:5129   */\n    tag_428:\n        /* \"#utility.yul\":5083:5104   */\n      tag_569\n        /* \"#utility.yul\":5098:5103   */\n      dup2\n        /* \"#utility.yul\":5083:5104   */\n      tag_427\n      jump\t// in\n    tag_569:\n        /* \"#utility.yul\":5076:5081   */\n      dup2\n        /* \"#utility.yul\":5073:5105   */\n      eq\n        /* \"#utility.yul\":5063:5123   */\n      tag_570\n      jumpi\n        /* \"#utility.yul\":5119:5120   */\n      0x00\n        /* \"#utility.yul\":5116:5117   */\n      dup1\n        /* \"#utility.yul\":5109:5121   */\n      revert\n        /* \"#utility.yul\":5063:5123   */\n    tag_570:\n        /* \"#utility.yul\":5013:5129   */\n      pop\n      jump\t// out\n        /* \"#utility.yul\":5135:5268   */\n    tag_429:\n        /* \"#utility.yul\":5178:5183   */\n      0x00\n        /* \"#utility.yul\":5216:5222   */\n      dup2\n        /* \"#utility.yul\":5203:5223   */\n      calldataload\n        /* \"#utility.yul\":5194:5223   */\n      swap1\n      pop\n        /* \"#utility.yul\":5232:5262   */\n      tag_572\n        /* \"#utility.yul\":5256:5261   */\n      dup2\n        /* \"#utility.yul\":5232:5262   */\n      tag_428\n      jump\t// in\n    tag_572:\n        /* \"#utility.yul\":5135:5268   */\n      swap3\n      swap2\n      pop\n      pop\n      jump\t// out\n        /* \"#utility.yul\":5274:6611   */\n    tag_77:\n        /* \"#utility.yul\":5390:5396   */\n      0x00\n        /* \"#utility.yul\":5398:5404   */\n      dup1\n        /* \"#utility.yul\":5406:5412   */\n      0x00\n        /* \"#utility.yul\":5414:5420   */\n      dup1\n        /* \"#utility.yul\":5422:5428   */\n      0x00\n        /* \"#utility.yul\":5430:5436   */\n      dup1\n        /* \"#utility.yul\":5438:5444   */\n      0x00\n        /* \"#utility.yul\":5446:5452   */\n      dup1\n        /* \"#utility.yul\":5495:5498   */\n      0x0100\n        /* \"#utility.yul\":5483:5492   */\n      dup10\n        /* \"#utility.yul\":5474:5481   */\n      dup12\n        /* \"#utility.yul\":5470:5493   */\n      sub\n        /* \"#utility.yul\":5466:5499   */\n      slt\n        /* \"#utility.yul\":5463:5583   */\n      iszero\n      tag_574\n      jumpi\n        /* \"#utility.yul\":5502:5581   */\n      tag_575\n      tag_412\n      jump\t// in\n    tag_575:\n        /* \"#utility.yul\":5463:5583   */\n    tag_574:\n        /* \"#utility.yul\":5622:5623   */\n      0x00\n        /* \"#utility.yul\":5647:5700   */\n      tag_576\n        /* \"#utility.yul\":5692:5699   */\n      dup12\n        /* \"#utility.yul\":5683:5689   */\n      dup3\n        /* \"#utility.yul\":5672:5681   */\n      dup13\n        /* \"#utility.yul\":5668:5690   */\n      add\n        /* \"#utility.yul\":5647:5700   */\n      tag_417\n      jump\t// in\n    tag_576:\n        /* \"#utility.yul\":5637:5700   */\n      swap9\n      pop\n        /* \"#utility.yul\":5593:5710   */\n      pop\n        /* \"#utility.yul\":5749:5751   */\n      0x20\n        /* \"#utility.yul\":5775:5828   */\n      tag_577\n        /* \"#utility.yul\":5820:5827   */\n      dup12\n        /* \"#utility.yul\":5811:5817   */\n      dup3\n        /* \"#utility.yul\":5800:5809   */\n      dup13\n        /* \"#utility.yul\":5796:5818   */\n      add\n        /* \"#utility.yul\":5775:5828   */\n      tag_420\n      jump\t// in\n    tag_577:\n        /* \"#utility.yul\":5765:5828   */\n      swap8\n      pop\n        /* \"#utility.yul\":5720:5838   */\n      pop\n        /* \"#utility.yul\":5877:5879   */\n      0x40\n        /* \"#utility.yul\":5903:5956   */\n      tag_578\n        /* \"#utility.yul\":5948:5955   */\n      dup12\n        /* \"#utility.yul\":5939:5945   */\n      dup3\n        /* \"#utility.yul\":5928:5937   */\n      dup13\n        /* \"#utility.yul\":5924:5946   */\n      add\n        /* \"#utility.yul\":5903:5956   */\n      tag_420\n      jump\t// in\n    tag_578:\n        /* \"#utility.yul\":5893:5956   */\n      swap7\n      pop\n        /* \"#utility.yul\":5848:5966   */\n      pop\n        /* \"#utility.yul\":6005:6007   */\n      0x60\n        /* \"#utility.yul\":6031:6084   */\n      tag_579\n        /* \"#utility.yul\":6076:6083   */\n      dup12\n        /* \"#utility.yul\":6067:6073   */\n      dup3\n        /* \"#utility.yul\":6056:6065   */\n      dup13\n        /* \"#utility.yul\":6052:6074   */\n      add\n        /* \"#utility.yul\":6031:6084   */\n      tag_420\n      jump\t// in\n    tag_579:\n        /* \"#utility.yul\":6021:6084   */\n      swap6\n      pop\n        /* \"#utility.yul\":5976:6094   */\n      pop\n        /* \"#utility.yul\":6133:6136   */\n      0x80\n        /* \"#utility.yul\":6160:6213   */\n      tag_580\n        /* \"#utility.yul\":6205:6212   */\n      dup12\n        /* \"#utility.yul\":6196:6202   */\n      dup3\n        /* \"#utility.yul\":6185:6194   */\n      dup13\n        /* \"#utility.yul\":6181:6203   */\n      add\n        /* \"#utility.yul\":6160:6213   */\n      tag_420\n      jump\t// in\n    tag_580:\n        /* \"#utility.yul\":6150:6213   */\n      swap5\n      pop\n        /* \"#utility.yul\":6104:6223   */\n      pop\n        /* \"#utility.yul\":6262:6265   */\n      0xa0\n        /* \"#utility.yul\":6289:6339   */\n      tag_581\n        /* \"#utility.yul\":6331:6338   */\n      dup12\n        /* \"#utility.yul\":6322:6328   */\n      dup3\n        /* \"#utility.yul\":6311:6320   */\n      dup13\n        /* \"#utility.yul\":6307:6329   */\n      add\n        /* \"#utility.yul\":6289:6339   */\n      tag_429\n      jump\t// in\n    tag_581:\n        /* \"#utility.yul\":6279:6339   */\n      swap4\n      pop\n        /* \"#utility.yul\":6233:6349   */\n      pop\n        /* \"#utility.yul\":6388:6391   */\n      0xc0\n        /* \"#utility.yul\":6415:6468   */\n      tag_582\n        /* \"#utility.yul\":6460:6467   */\n      dup12\n        /* \"#utility.yul\":6451:6457   */\n      dup3\n        /* \"#utility.yul\":6440:6449   */\n      dup13\n        /* \"#utility.yul\":6436:6458   */\n      add\n        /* \"#utility.yul\":6415:6468   */\n      tag_420\n      jump\t// in\n    tag_582:\n        /* \"#utility.yul\":6405:6468   */\n      swap3\n      pop\n        /* \"#utility.yul\":6359:6478   */\n      pop\n        /* \"#utility.yul\":6517:6520   */\n      0xe0\n        /* \"#utility.yul\":6544:6594   */\n      tag_583\n        /* \"#utility.yul\":6586:6593   */\n      dup12\n        /* \"#utility.yul\":6577:6583   */\n      dup3\n        /* \"#utility.yul\":6566:6575   */\n      dup13\n        /* \"#utility.yul\":6562:6584   */\n      add\n        /* \"#utility.yul\":6544:6594   */\n      tag_429\n      jump\t// in\n    tag_583:\n        /* \"#utility.yul\":6534:6594   */\n      swap2\n      pop\n        /* \"#utility.yul\":6488:6604   */\n      pop\n        /* \"#utility.yul\":5274:6611   */\n      swap3\n      swap6\n      swap9\n      pop\n      swap3\n      swap6\n      swap9\n      swap1\n      swap4\n      swap7\n      pop\n      jump\t// out\n        /* \"#utility.yul\":6617:6716   */\n    tag_430:\n        /* \"#utility.yul\":6688:6709   */\n      tag_585\n        /* \"#utility.yul\":6703:6708   */\n      dup2\n        /* \"#utility.yul\":6688:6709   */\n      tag_427\n      jump\t// in\n    tag_585:\n        /* \"#utility.yul\":6683:6686   */\n      dup3\n        /* \"#utility.yul\":6676:6710   */\n      mstore\n        /* \"#utility.yul\":6617:6716   */\n      pop\n      pop\n      jump\t// out\n        /* \"#utility.yul\":6722:6830   */\n    tag_431:\n        /* \"#utility.yul\":6799:6823   */\n      tag_587\n        /* \"#utility.yul\":6817:6822   */\n      dup2\n        /* \"#utility.yul\":6799:6823   */\n      tag_415\n      jump\t// in\n    tag_587:\n        /* \"#utility.yul\":6794:6797   */\n      dup3\n        /* \"#utility.yul\":6787:6824   */\n      mstore\n        /* \"#utility.yul\":6722:6830   */\n      pop\n      pop\n      jump\t// out\n        /* \"#utility.yul\":6836:6944   */\n    tag_432:\n        /* \"#utility.yul\":6913:6937   */\n      tag_589\n        /* \"#utility.yul\":6931:6936   */\n      dup2\n        /* \"#utility.yul\":6913:6937   */\n      tag_409\n      jump\t// in\n    tag_589:\n        /* \"#utility.yul\":6908:6911   */\n      dup3\n        /* \"#utility.yul\":6901:6938   */\n      mstore\n        /* \"#utility.yul\":6836:6944   */\n      pop\n      pop\n      jump\t// out\n        /* \"#utility.yul\":7042:9182   */\n    tag_433:\n        /* \"#utility.yul\":7205:7211   */\n      0x0160\n        /* \"#utility.yul\":7200:7203   */\n      dup3\n        /* \"#utility.yul\":7196:7212   */\n      add\n        /* \"#utility.yul\":7301:7305   */\n      0x00\n        /* \"#utility.yul\":7294:7299   */\n      dup3\n        /* \"#utility.yul\":7290:7306   */\n      add\n        /* \"#utility.yul\":7284:7307   */\n      mload\n        /* \"#utility.yul\":7320:7377   */\n      tag_591\n        /* \"#utility.yul\":7371:7375   */\n      0x00\n        /* \"#utility.yul\":7366:7369   */\n      dup6\n        /* \"#utility.yul\":7362:7376   */\n      add\n        /* \"#utility.yul\":7348:7360   */\n      dup3\n        /* \"#utility.yul\":7320:7377   */\n      tag_430\n      jump\t// in\n    tag_591:\n        /* \"#utility.yul\":7222:7387   */\n      pop\n        /* \"#utility.yul\":7476:7480   */\n      0x20\n        /* \"#utility.yul\":7469:7474   */\n      dup3\n        /* \"#utility.yul\":7465:7481   */\n      add\n        /* \"#utility.yul\":7459:7482   */\n      mload\n        /* \"#utility.yul\":7495:7558   */\n      tag_592\n        /* \"#utility.yul\":7552:7556   */\n      0x20\n        /* \"#utility.yul\":7547:7550   */\n      dup6\n        /* \"#utility.yul\":7543:7557   */\n      add\n        /* \"#utility.yul\":7529:7541   */\n      dup3\n        /* \"#utility.yul\":7495:7558   */\n      tag_431\n      jump\t// in\n    tag_592:\n        /* \"#utility.yul\":7397:7568   */\n      pop\n        /* \"#utility.yul\":7651:7655   */\n      0x40\n        /* \"#utility.yul\":7644:7649   */\n      dup3\n        /* \"#utility.yul\":7640:7656   */\n      add\n        /* \"#utility.yul\":7634:7657   */\n      mload\n        /* \"#utility.yul\":7670:7733   */\n      tag_593\n        /* \"#utility.yul\":7727:7731   */\n      0x40\n        /* \"#utility.yul\":7722:7725   */\n      dup6\n        /* \"#utility.yul\":7718:7732   */\n      add\n        /* \"#utility.yul\":7704:7716   */\n      dup3\n        /* \"#utility.yul\":7670:7733   */\n      tag_432\n      jump\t// in\n    tag_593:\n        /* \"#utility.yul\":7578:7743   */\n      pop\n        /* \"#utility.yul\":7826:7830   */\n      0x60\n        /* \"#utility.yul\":7819:7824   */\n      dup3\n        /* \"#utility.yul\":7815:7831   */\n      add\n        /* \"#utility.yul\":7809:7832   */\n      mload\n        /* \"#utility.yul\":7845:7908   */\n      tag_594\n        /* \"#utility.yul\":7902:7906   */\n      0x60\n        /* \"#utility.yul\":7897:7900   */\n      dup6\n        /* \"#utility.yul\":7893:7907   */\n      add\n        /* \"#utility.yul\":7879:7891   */\n      dup3\n        /* \"#utility.yul\":7845:7908   */\n      tag_432\n      jump\t// in\n    tag_594:\n        /* \"#utility.yul\":7753:7918   */\n      pop\n        /* \"#utility.yul\":8004:8008   */\n      0x80\n        /* \"#utility.yul\":7997:8002   */\n      dup3\n        /* \"#utility.yul\":7993:8009   */\n      add\n        /* \"#utility.yul\":7987:8010   */\n      mload\n        /* \"#utility.yul\":8023:8086   */\n      tag_595\n        /* \"#utility.yul\":8080:8084   */\n      0x80\n        /* \"#utility.yul\":8075:8078   */\n      dup6\n        /* \"#utility.yul\":8071:8085   */\n      add\n        /* \"#utility.yul\":8057:8069   */\n      dup3\n        /* \"#utility.yul\":8023:8086   */\n      tag_432\n      jump\t// in\n    tag_595:\n        /* \"#utility.yul\":7928:8096   */\n      pop\n        /* \"#utility.yul\":8192:8196   */\n      0xa0\n        /* \"#utility.yul\":8185:8190   */\n      dup3\n        /* \"#utility.yul\":8181:8197   */\n      add\n        /* \"#utility.yul\":8175:8198   */\n      mload\n        /* \"#utility.yul\":8211:8274   */\n      tag_596\n        /* \"#utility.yul\":8268:8272   */\n      0xa0\n        /* \"#utility.yul\":8263:8266   */\n      dup6\n        /* \"#utility.yul\":8259:8273   */\n      add\n        /* \"#utility.yul\":8245:8257   */\n      dup3\n        /* \"#utility.yul\":8211:8274   */\n      tag_432\n      jump\t// in\n    tag_596:\n        /* \"#utility.yul\":8106:8284   */\n      pop\n        /* \"#utility.yul\":8371:8375   */\n      0xc0\n        /* \"#utility.yul\":8364:8369   */\n      dup3\n        /* \"#utility.yul\":8360:8376   */\n      add\n        /* \"#utility.yul\":8354:8377   */\n      mload\n        /* \"#utility.yul\":8390:8447   */\n      tag_597\n        /* \"#utility.yul\":8441:8445   */\n      0xc0\n        /* \"#utility.yul\":8436:8439   */\n      dup6\n        /* \"#utility.yul\":8432:8446   */\n      add\n        /* \"#utility.yul\":8418:8430   */\n      dup3\n        /* \"#utility.yul\":8390:8447   */\n      tag_430\n      jump\t// in\n    tag_597:\n        /* \"#utility.yul\":8294:8457   */\n      pop\n        /* \"#utility.yul\":8546:8550   */\n      0xe0\n        /* \"#utility.yul\":8539:8544   */\n      dup3\n        /* \"#utility.yul\":8535:8551   */\n      add\n        /* \"#utility.yul\":8529:8552   */\n      mload\n        /* \"#utility.yul\":8565:8628   */\n      tag_598\n        /* \"#utility.yul\":8622:8626   */\n      0xe0\n        /* \"#utility.yul\":8617:8620   */\n      dup6\n        /* \"#utility.yul\":8613:8627   */\n      add\n        /* \"#utility.yul\":8599:8611   */\n      dup3\n        /* \"#utility.yul\":8565:8628   */\n      tag_432\n      jump\t// in\n    tag_598:\n        /* \"#utility.yul\":8467:8638   */\n      pop\n        /* \"#utility.yul\":8724:8730   */\n      0x0100\n        /* \"#utility.yul\":8717:8722   */\n      dup3\n        /* \"#utility.yul\":8713:8731   */\n      add\n        /* \"#utility.yul\":8707:8732   */\n      mload\n        /* \"#utility.yul\":8745:8810   */\n      tag_599\n        /* \"#utility.yul\":8802:8808   */\n      0x0100\n        /* \"#utility.yul\":8797:8800   */\n      dup6\n        /* \"#utility.yul\":8793:8809   */\n      add\n        /* \"#utility.yul\":8779:8791   */\n      dup3\n        /* \"#utility.yul\":8745:8810   */\n      tag_432\n      jump\t// in\n    tag_599:\n        /* \"#utility.yul\":8648:8820   */\n      pop\n        /* \"#utility.yul\":8905:8911   */\n      0x0120\n        /* \"#utility.yul\":8898:8903   */\n      dup3\n        /* \"#utility.yul\":8894:8912   */\n      add\n        /* \"#utility.yul\":8888:8913   */\n      mload\n        /* \"#utility.yul\":8926:8985   */\n      tag_600\n        /* \"#utility.yul\":8977:8983   */\n      0x0120\n        /* \"#utility.yul\":8972:8975   */\n      dup6\n        /* \"#utility.yul\":8968:8984   */\n      add\n        /* \"#utility.yul\":8954:8966   */\n      dup3\n        /* \"#utility.yul\":8926:8985   */\n      tag_430\n      jump\t// in\n    tag_600:\n        /* \"#utility.yul\":8830:8995   */\n      pop\n        /* \"#utility.yul\":9085:9091   */\n      0x0140\n        /* \"#utility.yul\":9078:9083   */\n      dup3\n        /* \"#utility.yul\":9074:9092   */\n      add\n        /* \"#utility.yul\":9068:9093   */\n      mload\n        /* \"#utility.yul\":9106:9165   */\n      tag_601\n        /* \"#utility.yul\":9157:9163   */\n      0x0140\n        /* \"#utility.yul\":9152:9155   */\n      dup6\n        /* \"#utility.yul\":9148:9164   */\n      add\n        /* \"#utility.yul\":9134:9146   */\n      dup3\n        /* \"#utility.yul\":9106:9165   */\n      tag_430\n      jump\t// in\n    tag_601:\n        /* \"#utility.yul\":9005:9175   */\n      pop\n        /* \"#utility.yul\":7174:9182   */\n      pop\n        /* \"#utility.yul\":7042:9182   */\n      pop\n      pop\n      jump\t// out\n        /* \"#utility.yul\":9188:9543   */\n    tag_83:\n        /* \"#utility.yul\":9347:9351   */\n      0x00\n        /* \"#utility.yul\":9385:9388   */\n      0x0160\n        /* \"#utility.yul\":9374:9383   */\n      dup3\n        /* \"#utility.yul\":9370:9389   */\n      add\n        /* \"#utility.yul\":9362:9389   */\n      swap1\n      pop\n        /* \"#utility.yul\":9399:9536   */\n      tag_603\n        /* \"#utility.yul\":9533:9534   */\n      0x00\n        /* \"#utility.yul\":9522:9531   */\n      dup4\n        /* \"#utility.yul\":9518:9535   */\n      add\n        /* \"#utility.yul\":9509:9515   */\n      dup5\n        /* \"#utility.yul\":9399:9536   */\n      tag_433\n      jump\t// in\n    tag_603:\n        /* \"#utility.yul\":9188:9543   */\n      swap3\n      swap2\n      pop\n      pop\n      jump\t// out\n        /* \"#utility.yul\":9549:10023   */\n    tag_86:\n        /* \"#utility.yul\":9617:9623   */\n      0x00\n        /* \"#utility.yul\":9625:9631   */\n      dup1\n        /* \"#utility.yul\":9674:9676   */\n      0x40\n        /* \"#utility.yul\":9662:9671   */\n      dup4\n        /* \"#utility.yul\":9653:9660   */\n      dup6\n        /* \"#utility.yul\":9649:9672   */\n      sub\n        /* \"#utility.yul\":9645:9677   */\n      slt\n        /* \"#utility.yul\":9642:9761   */\n      iszero\n      tag_605\n      jumpi\n        /* \"#utility.yul\":9680:9759   */\n      tag_606\n      tag_412\n      jump\t// in\n    tag_606:\n        /* \"#utility.yul\":9642:9761   */\n    tag_605:\n        /* \"#utility.yul\":9800:9801   */\n      0x00\n        /* \"#utility.yul\":9825:9878   */\n      tag_607\n        /* \"#utility.yul\":9870:9877   */\n      dup6\n        /* \"#utility.yul\":9861:9867   */\n      dup3\n        /* \"#utility.yul\":9850:9859   */\n      dup7\n        /* \"#utility.yul\":9846:9868   */\n      add\n        /* \"#utility.yul\":9825:9878   */\n      tag_417\n      jump\t// in\n    tag_607:\n        /* \"#utility.yul\":9815:9878   */\n      swap3\n      pop\n        /* \"#utility.yul\":9771:9888   */\n      pop\n        /* \"#utility.yul\":9927:9929   */\n      0x20\n        /* \"#utility.yul\":9953:10006   */\n      tag_608\n        /* \"#utility.yul\":9998:10005   */\n      dup6\n        /* \"#utility.yul\":9989:9995   */\n      dup3\n        /* \"#utility.yul\":9978:9987   */\n      dup7\n        /* \"#utility.yul\":9974:9996   */\n      add\n        /* \"#utility.yul\":9953:10006   */\n      tag_420\n      jump\t// in\n    tag_608:\n        /* \"#utility.yul\":9943:10006   */\n      swap2\n      pop\n        /* \"#utility.yul\":9898:10016   */\n      pop\n        /* \"#utility.yul\":9549:10023   */\n      swap3\n      pop\n      swap3\n      swap1\n      pop\n      jump\t// out\n        /* \"#utility.yul\":10029:10147   */\n    tag_434:\n        /* \"#utility.yul\":10116:10140   */\n      tag_610\n        /* \"#utility.yul\":10134:10139   */\n      dup2\n        /* \"#utility.yul\":10116:10140   */\n      tag_421\n      jump\t// in\n    tag_610:\n        /* \"#utility.yul\":10111:10114   */\n      dup3\n        /* \"#utility.yul\":10104:10141   */\n      mstore\n        /* \"#utility.yul\":10029:10147   */\n      pop\n      pop\n      jump\t// out\n        /* \"#utility.yul\":10153:10375   */\n    tag_89:\n        /* \"#utility.yul\":10246:10250   */\n      0x00\n        /* \"#utility.yul\":10284:10286   */\n      0x20\n        /* \"#utility.yul\":10273:10282   */\n      dup3\n        /* \"#utility.yul\":10269:10287   */\n      add\n        /* \"#utility.yul\":10261:10287   */\n      swap1\n      pop\n        /* \"#utility.yul\":10297:10368   */\n      tag_612\n        /* \"#utility.yul\":10365:10366   */\n      0x00\n        /* \"#utility.yul\":10354:10363   */\n      dup4\n        /* \"#utility.yul\":10350:10367   */\n      add\n        /* \"#utility.yul\":10341:10347   */\n      dup5\n        /* \"#utility.yul\":10297:10368   */\n      tag_434\n      jump\t// in\n    tag_612:\n        /* \"#utility.yul\":10153:10375   */\n      swap3\n      swap2\n      pop\n      pop\n      jump\t// out\n        /* \"#utility.yul\":10381:10550   */\n    tag_435:\n        /* \"#utility.yul\":10465:10476   */\n      0x00\n        /* \"#utility.yul\":10499:10505   */\n      dup3\n        /* \"#utility.yul\":10494:10497   */\n      dup3\n        /* \"#utility.yul\":10487:10506   */\n      mstore\n        /* \"#utility.yul\":10539:10543   */\n      0x20\n        /* \"#utility.yul\":10534:10537   */\n      dup3\n        /* \"#utility.yul\":10530:10544   */\n      add\n        /* \"#utility.yul\":10515:10544   */\n      swap1\n      pop\n        /* \"#utility.yul\":10381:10550   */\n      swap3\n      swap2\n      pop\n      pop\n      jump\t// out\n        /* \"#utility.yul\":10556:10737   */\n    tag_436:\n        /* \"#utility.yul\":10696:10729   */\n      0x5265656e7472616e637947756172643a207265656e7472616e742063616c6c00\n        /* \"#utility.yul\":10692:10693   */\n      0x00\n        /* \"#utility.yul\":10684:10690   */\n      dup3\n        /* \"#utility.yul\":10680:10694   */\n      add\n        /* \"#utility.yul\":10673:10730   */\n      mstore\n        /* \"#utility.yul\":10556:10737   */\n      pop\n      jump\t// out\n        /* \"#utility.yul\":10743:11109   */\n    tag_437:\n        /* \"#utility.yul\":10885:10888   */\n      0x00\n        /* \"#utility.yul\":10906:10973   */\n      tag_616\n        /* \"#utility.yul\":10970:10972   */\n      0x1f\n        /* \"#utility.yul\":10965:10968   */\n      dup4\n        /* \"#utility.yul\":10906:10973   */\n      tag_435\n      jump\t// in\n    tag_616:\n        /* \"#utility.yul\":10899:10973   */\n      swap2\n      pop\n        /* \"#utility.yul\":10982:11075   */\n      tag_617\n        /* \"#utility.yul\":11071:11074   */\n      dup3\n        /* \"#utility.yul\":10982:11075   */\n      tag_436\n      jump\t// in\n    tag_617:\n        /* \"#utility.yul\":11100:11102   */\n      0x20\n        /* \"#utility.yul\":11095:11098   */\n      dup3\n        /* \"#utility.yul\":11091:11103   */\n      add\n        /* \"#utility.yul\":11084:11103   */\n      swap1\n      pop\n        /* \"#utility.yul\":10743:11109   */\n      swap2\n      swap1\n      pop\n      jump\t// out\n        /* \"#utility.yul\":11115:11534   */\n    tag_137:\n        /* \"#utility.yul\":11281:11285   */\n      0x00\n        /* \"#utility.yul\":11319:11321   */\n      0x20\n        /* \"#utility.yul\":11308:11317   */\n      dup3\n        /* \"#utility.yul\":11304:11322   */\n      add\n        /* \"#utility.yul\":11296:11322   */\n      swap1\n      pop\n        /* \"#utility.yul\":11368:11377   */\n      dup2\n        /* \"#utility.yul\":11362:11366   */\n      dup2\n        /* \"#utility.yul\":11358:11378   */\n      sub\n        /* \"#utility.yul\":11354:11355   */\n      0x00\n        /* \"#utility.yul\":11343:11352   */\n      dup4\n        /* \"#utility.yul\":11339:11356   */\n      add\n        /* \"#utility.yul\":11332:11379   */\n      mstore\n        /* \"#utility.yul\":11396:11527   */\n      tag_619\n        /* \"#utility.yul\":11522:11526   */\n      dup2\n        /* \"#utility.yul\":11396:11527   */\n      tag_437\n      jump\t// in\n    tag_619:\n        /* \"#utility.yul\":11388:11527   */\n      swap1\n      pop\n        /* \"#utility.yul\":11115:11534   */\n      swap2\n      swap1\n      pop\n      jump\t// out\n        /* \"#utility.yul\":11540:11683   */\n    tag_438:\n        /* \"#utility.yul\":11597:11602   */\n      0x00\n        /* \"#utility.yul\":11628:11634   */\n      dup2\n        /* \"#utility.yul\":11622:11635   */\n      mload\n        /* \"#utility.yul\":11613:11635   */\n      swap1\n      pop\n        /* \"#utility.yul\":11644:11677   */\n      tag_621\n        /* \"#utility.yul\":11671:11676   */\n      dup2\n        /* \"#utility.yul\":11644:11677   */\n      tag_419\n      jump\t// in\n    tag_621:\n        /* \"#utility.yul\":11540:11683   */\n      swap3\n      swap2\n      pop\n      pop\n      jump\t// out\n        /* \"#utility.yul\":11689:12040   */\n    tag_146:\n        /* \"#utility.yul\":11759:11765   */\n      0x00\n        /* \"#utility.yul\":11808:11810   */\n      0x20\n        /* \"#utility.yul\":11796:11805   */\n      dup3\n        /* \"#utility.yul\":11787:11794   */\n      dup5\n        /* \"#utility.yul\":11783:11806   */\n      sub\n        /* \"#utility.yul\":11779:11811   */\n      slt\n        /* \"#utility.yul\":11776:11895   */\n      iszero\n      tag_623\n      jumpi\n        /* \"#utility.yul\":11814:11893   */\n      tag_624\n      tag_412\n      jump\t// in\n    tag_624:\n        /* \"#utility.yul\":11776:11895   */\n    tag_623:\n        /* \"#utility.yul\":11934:11935   */\n      0x00\n        /* \"#utility.yul\":11959:12023   */\n      tag_625\n        /* \"#utility.yul\":12015:12022   */\n      dup5\n        /* \"#utility.yul\":12006:12012   */\n      dup3\n        /* \"#utility.yul\":11995:12004   */\n      dup6\n        /* \"#utility.yul\":11991:12013   */\n      add\n        /* \"#utility.yul\":11959:12023   */\n      tag_438\n      jump\t// in\n    tag_625:\n        /* \"#utility.yul\":11949:12023   */\n      swap2\n      pop\n        /* \"#utility.yul\":11905:12033   */\n      pop\n        /* \"#utility.yul\":11689:12040   */\n      swap3\n      swap2\n      pop\n      pop\n      jump\t// out\n        /* \"#utility.yul\":12046:12276   */\n    tag_439:\n        /* \"#utility.yul\":12186:12220   */\n      0x546f6b656e56657374696e673a206e6f7420656e6f7567682077697468647261\n        /* \"#utility.yul\":12182:12183   */\n      0x00\n        /* \"#utility.yul\":12174:12180   */\n      dup3\n        /* \"#utility.yul\":12170:12184   */\n      add\n        /* \"#utility.yul\":12163:12221   */\n      mstore\n        /* \"#utility.yul\":12255:12268   */\n      0x7761626c652066756e6473000000000000000000000000000000000000000000\n        /* \"#utility.yul\":12250:12252   */\n      0x20\n        /* \"#utility.yul\":12242:12248   */\n      dup3\n        /* \"#utility.yul\":12238:12253   */\n      add\n        /* \"#utility.yul\":12231:12269   */\n      mstore\n        /* \"#utility.yul\":12046:12276   */\n      pop\n      jump\t// out\n        /* \"#utility.yul\":12282:12648   */\n    tag_440:\n        /* \"#utility.yul\":12424:12427   */\n      0x00\n        /* \"#utility.yul\":12445:12512   */\n      tag_628\n        /* \"#utility.yul\":12509:12511   */\n      0x2b\n        /* \"#utility.yul\":12504:12507   */\n      dup4\n        /* \"#utility.yul\":12445:12512   */\n      tag_435\n      jump\t// in\n    tag_628:\n        /* \"#utility.yul\":12438:12512   */\n      swap2\n      pop\n        /* \"#utility.yul\":12521:12614   */\n      tag_629\n        /* \"#utility.yul\":12610:12613   */\n      dup3\n        /* \"#utility.yul\":12521:12614   */\n      tag_439\n      jump\t// in\n    tag_629:\n        /* \"#utility.yul\":12639:12641   */\n      0x40\n        /* \"#utility.yul\":12634:12637   */\n      dup3\n        /* \"#utility.yul\":12630:12642   */\n      add\n        /* \"#utility.yul\":12623:12642   */\n      swap1\n      pop\n        /* \"#utility.yul\":12282:12648   */\n      swap2\n      swap1\n      pop\n      jump\t// out\n        /* \"#utility.yul\":12654:13073   */\n    tag_149:\n        /* \"#utility.yul\":12820:12824   */\n      0x00\n        /* \"#utility.yul\":12858:12860   */\n      0x20\n        /* \"#utility.yul\":12847:12856   */\n      dup3\n        /* \"#utility.yul\":12843:12861   */\n      add\n        /* \"#utility.yul\":12835:12861   */\n      swap1\n      pop\n        /* \"#utility.yul\":12907:12916   */\n      dup2\n        /* \"#utility.yul\":12901:12905   */\n      dup2\n        /* \"#utility.yul\":12897:12917   */\n      sub\n        /* \"#utility.yul\":12893:12894   */\n      0x00\n        /* \"#utility.yul\":12882:12891   */\n      dup4\n        /* \"#utility.yul\":12878:12895   */\n      add\n        /* \"#utility.yul\":12871:12918   */\n      mstore\n        /* \"#utility.yul\":12935:13066   */\n      tag_631\n        /* \"#utility.yul\":13061:13065   */\n      dup2\n        /* \"#utility.yul\":12935:13066   */\n      tag_440\n      jump\t// in\n    tag_631:\n        /* \"#utility.yul\":12927:13066   */\n      swap1\n      pop\n        /* \"#utility.yul\":12654:13073   */\n      swap2\n      swap1\n      pop\n      jump\t// out\n        /* \"#utility.yul\":13079:13369   */\n    tag_441:\n        /* \"#utility.yul\":13219:13253   */\n      0x546f6b656e56657374696e673a206f6e6c792062656e65666963696172792061\n        /* \"#utility.yul\":13215:13216   */\n      0x00\n        /* \"#utility.yul\":13207:13213   */\n      dup3\n        /* \"#utility.yul\":13203:13217   */\n      add\n        /* \"#utility.yul\":13196:13254   */\n      mstore\n        /* \"#utility.yul\":13288:13322   */\n      0x6e64206f776e65722063616e2072656c656173652076657374656420746f6b65\n        /* \"#utility.yul\":13283:13285   */\n      0x20\n        /* \"#utility.yul\":13275:13281   */\n      dup3\n        /* \"#utility.yul\":13271:13286   */\n      add\n        /* \"#utility.yul\":13264:13323   */\n      mstore\n        /* \"#utility.yul\":13357:13361   */\n      0x6e73000000000000000000000000000000000000000000000000000000000000\n        /* \"#utility.yul\":13352:13354   */\n      0x40\n        /* \"#utility.yul\":13344:13350   */\n      dup3\n        /* \"#utility.yul\":13340:13355   */\n      add\n        /* \"#utility.yul\":13333:13362   */\n      mstore\n        /* \"#utility.yul\":13079:13369   */\n      pop\n      jump\t// out\n        /* \"#utility.yul\":13375:13741   */\n    tag_442:\n        /* \"#utility.yul\":13517:13520   */\n      0x00\n        /* \"#utility.yul\":13538:13605   */\n      tag_634\n        /* \"#utility.yul\":13602:13604   */\n      0x42\n        /* \"#utility.yul\":13597:13600   */\n      dup4\n        /* \"#utility.yul\":13538:13605   */\n      tag_435\n      jump\t// in\n    tag_634:\n        /* \"#utility.yul\":13531:13605   */\n      swap2\n      pop\n        /* \"#utility.yul\":13614:13707   */\n      tag_635\n        /* \"#utility.yul\":13703:13706   */\n      dup3\n        /* \"#utility.yul\":13614:13707   */\n      tag_441\n      jump\t// in\n    tag_635:\n        /* \"#utility.yul\":13732:13734   */\n      0x60\n        /* \"#utility.yul\":13727:13730   */\n      dup3\n        /* \"#utility.yul\":13723:13735   */\n      add\n        /* \"#utility.yul\":13716:13735   */\n      swap1\n      pop\n        /* \"#utility.yul\":13375:13741   */\n      swap2\n      swap1\n      pop\n      jump\t// out\n        /* \"#utility.yul\":13747:14166   */\n    tag_166:\n        /* \"#utility.yul\":13913:13917   */\n      0x00\n        /* \"#utility.yul\":13951:13953   */\n      0x20\n        /* \"#utility.yul\":13940:13949   */\n      dup3\n        /* \"#utility.yul\":13936:13954   */\n      add\n        /* \"#utility.yul\":13928:13954   */\n      swap1\n      pop\n        /* \"#utility.yul\":14000:14009   */\n      dup2\n        /* \"#utility.yul\":13994:13998   */\n      dup2\n        /* \"#utility.yul\":13990:14010   */\n      sub\n        /* \"#utility.yul\":13986:13987   */\n      0x00\n        /* \"#utility.yul\":13975:13984   */\n      dup4\n        /* \"#utility.yul\":13971:13988   */\n      add\n        /* \"#utility.yul\":13964:14011   */\n      mstore\n        /* \"#utility.yul\":14028:14159   */\n      tag_637\n        /* \"#utility.yul\":14154:14158   */\n      dup2\n        /* \"#utility.yul\":14028:14159   */\n      tag_442\n      jump\t// in\n    tag_637:\n        /* \"#utility.yul\":14020:14159   */\n      swap1\n      pop\n        /* \"#utility.yul\":13747:14166   */\n      swap2\n      swap1\n      pop\n      jump\t// out\n        /* \"#utility.yul\":14172:14420   */\n    tag_443:\n        /* \"#utility.yul\":14312:14346   */\n      0x546f6b656e56657374696e673a2063616e6e6f742072656c6561736520746f6b\n        /* \"#utility.yul\":14308:14309   */\n      0x00\n        /* \"#utility.yul\":14300:14306   */\n      dup3\n        /* \"#utility.yul\":14296:14310   */\n      add\n        /* \"#utility.yul\":14289:14347   */\n      mstore\n        /* \"#utility.yul\":14381:14412   */\n      0x656e732c206e6f7420656e6f7567682076657374656420746f6b656e73000000\n        /* \"#utility.yul\":14376:14378   */\n      0x20\n        /* \"#utility.yul\":14368:14374   */\n      dup3\n        /* \"#utility.yul\":14364:14379   */\n      add\n        /* \"#utility.yul\":14357:14413   */\n      mstore\n        /* \"#utility.yul\":14172:14420   */\n      pop\n      jump\t// out\n        /* \"#utility.yul\":14426:14792   */\n    tag_444:\n        /* \"#utility.yul\":14568:14571   */\n      0x00\n        /* \"#utility.yul\":14589:14656   */\n      tag_640\n        /* \"#utility.yul\":14653:14655   */\n      0x3d\n        /* \"#utility.yul\":14648:14651   */\n      dup4\n        /* \"#utility.yul\":14589:14656   */\n      tag_435\n      jump\t// in\n    tag_640:\n        /* \"#utility.yul\":14582:14656   */\n      swap2\n      pop\n        /* \"#utility.yul\":14665:14758   */\n      tag_641\n        /* \"#utility.yul\":14754:14757   */\n      dup3\n        /* \"#utility.yul\":14665:14758   */\n      tag_443\n      jump\t// in\n    tag_641:\n        /* \"#utility.yul\":14783:14785   */\n      0x40\n        /* \"#utility.yul\":14778:14781   */\n      dup3\n        /* \"#utility.yul\":14774:14786   */\n      add\n        /* \"#utility.yul\":14767:14786   */\n      swap1\n      pop\n        /* \"#utility.yul\":14426:14792   */\n      swap2\n      swap1\n      pop\n      jump\t// out\n        /* \"#utility.yul\":14798:15217   */\n    tag_171:\n        /* \"#utility.yul\":14964:14968   */\n      0x00\n        /* \"#utility.yul\":15002:15004   */\n      0x20\n        /* \"#utility.yul\":14991:15000   */\n      dup3\n        /* \"#utility.yul\":14987:15005   */\n      add\n        /* \"#utility.yul\":14979:15005   */\n      swap1\n      pop\n        /* \"#utility.yul\":15051:15060   */\n      dup2\n        /* \"#utility.yul\":15045:15049   */\n      dup2\n        /* \"#utility.yul\":15041:15061   */\n      sub\n        /* \"#utility.yul\":15037:15038   */\n      0x00\n        /* \"#utility.yul\":15026:15035   */\n      dup4\n        /* \"#utility.yul\":15022:15039   */\n      add\n        /* \"#utility.yul\":15015:15062   */\n      mstore\n        /* \"#utility.yul\":15079:15210   */\n      tag_643\n        /* \"#utility.yul\":15205:15209   */\n      dup2\n        /* \"#utility.yul\":15079:15210   */\n      tag_444\n      jump\t// in\n    tag_643:\n        /* \"#utility.yul\":15071:15210   */\n      swap1\n      pop\n        /* \"#utility.yul\":14798:15217   */\n      swap2\n      swap1\n      pop\n      jump\t// out\n        /* \"#utility.yul\":15223:15456   */\n    tag_445:\n        /* \"#utility.yul\":15363:15397   */\n      0x496e697469616c697a61626c653a20636f6e747261637420697320616c726561\n        /* \"#utility.yul\":15359:15360   */\n      0x00\n        /* \"#utility.yul\":15351:15357   */\n      dup3\n        /* \"#utility.yul\":15347:15361   */\n      add\n        /* \"#utility.yul\":15340:15398   */\n      mstore\n        /* \"#utility.yul\":15432:15448   */\n      0x647920696e697469616c697a6564000000000000000000000000000000000000\n        /* \"#utility.yul\":15427:15429   */\n      0x20\n        /* \"#utility.yul\":15419:15425   */\n      dup3\n        /* \"#utility.yul\":15415:15430   */\n      add\n        /* \"#utility.yul\":15408:15449   */\n      mstore\n        /* \"#utility.yul\":15223:15456   */\n      pop\n      jump\t// out\n        /* \"#utility.yul\":15462:15828   */\n    tag_446:\n        /* \"#utility.yul\":15604:15607   */\n      0x00\n        /* \"#utility.yul\":15625:15692   */\n      tag_646\n        /* \"#utility.yul\":15689:15691   */\n      0x2e\n        /* \"#utility.yul\":15684:15687   */\n      dup4\n        /* \"#utility.yul\":15625:15692   */\n      tag_435\n      jump\t// in\n    tag_646:\n        /* \"#utility.yul\":15618:15692   */\n      swap2\n      pop\n        /* \"#utility.yul\":15701:15794   */\n      tag_647\n        /* \"#utility.yul\":15790:15793   */\n      dup3\n        /* \"#utility.yul\":15701:15794   */\n      tag_445\n      jump\t// in\n    tag_647:\n        /* \"#utility.yul\":15819:15821   */\n      0x40\n        /* \"#utility.yul\":15814:15817   */\n      dup3\n        /* \"#utility.yul\":15810:15822   */\n      add\n        /* \"#utility.yul\":15803:15822   */\n      swap1\n      pop\n        /* \"#utility.yul\":15462:15828   */\n      swap2\n      swap1\n      pop\n      jump\t// out\n        /* \"#utility.yul\":15834:16253   */\n    tag_190:\n        /* \"#utility.yul\":16000:16004   */\n      0x00\n        /* \"#utility.yul\":16038:16040   */\n      0x20\n        /* \"#utility.yul\":16027:16036   */\n      dup3\n        /* \"#utility.yul\":16023:16041   */\n      add\n        /* \"#utility.yul\":16015:16041   */\n      swap1\n      pop\n        /* \"#utility.yul\":16087:16096   */\n      dup2\n        /* \"#utility.yul\":16081:16085   */\n      dup2\n        /* \"#utility.yul\":16077:16097   */\n      sub\n        /* \"#utility.yul\":16073:16074   */\n      0x00\n        /* \"#utility.yul\":16062:16071   */\n      dup4\n        /* \"#utility.yul\":16058:16075   */\n      add\n        /* \"#utility.yul\":16051:16098   */\n      mstore\n        /* \"#utility.yul\":16115:16246   */\n      tag_649\n        /* \"#utility.yul\":16241:16245   */\n      dup2\n        /* \"#utility.yul\":16115:16246   */\n      tag_446\n      jump\t// in\n    tag_649:\n        /* \"#utility.yul\":16107:16246   */\n      swap1\n      pop\n        /* \"#utility.yul\":15834:16253   */\n      swap2\n      swap1\n      pop\n      jump\t// out\n        /* \"#utility.yul\":16259:16344   */\n    tag_447:\n        /* \"#utility.yul\":16304:16311   */\n      0x00\n        /* \"#utility.yul\":16333:16338   */\n      dup2\n        /* \"#utility.yul\":16322:16338   */\n      swap1\n      pop\n        /* \"#utility.yul\":16259:16344   */\n      swap2\n      swap1\n      pop\n      jump\t// out\n        /* \"#utility.yul\":16350:16436   */\n    tag_448:\n        /* \"#utility.yul\":16385:16392   */\n      0x00\n        /* \"#utility.yul\":16425:16429   */\n      0xff\n        /* \"#utility.yul\":16418:16423   */\n      dup3\n        /* \"#utility.yul\":16414:16430   */\n      and\n        /* \"#utility.yul\":16403:16430   */\n      swap1\n      pop\n        /* \"#utility.yul\":16350:16436   */\n      swap2\n      swap1\n      pop\n      jump\t// out\n        /* \"#utility.yul\":16442:16502   */\n    tag_449:\n        /* \"#utility.yul\":16470:16473   */\n      0x00\n        /* \"#utility.yul\":16491:16496   */\n      dup2\n        /* \"#utility.yul\":16484:16496   */\n      swap1\n      pop\n        /* \"#utility.yul\":16442:16502   */\n      swap2\n      swap1\n      pop\n      jump\t// out\n        /* \"#utility.yul\":16508:16662   */\n    tag_450:\n        /* \"#utility.yul\":16564:16573   */\n      0x00\n        /* \"#utility.yul\":16597:16656   */\n      tag_654\n        /* \"#utility.yul\":16613:16655   */\n      tag_655\n        /* \"#utility.yul\":16622:16654   */\n      tag_656\n        /* \"#utility.yul\":16648:16653   */\n      dup5\n        /* \"#utility.yul\":16622:16654   */\n      tag_447\n      jump\t// in\n    tag_656:\n        /* \"#utility.yul\":16613:16655   */\n      tag_449\n      jump\t// in\n    tag_655:\n        /* \"#utility.yul\":16597:16656   */\n      tag_448\n      jump\t// in\n    tag_654:\n        /* \"#utility.yul\":16584:16656   */\n      swap1\n      pop\n        /* \"#utility.yul\":16508:16662   */\n      swap2\n      swap1\n      pop\n      jump\t// out\n        /* \"#utility.yul\":16668:16811   */\n    tag_451:\n        /* \"#utility.yul\":16761:16804   */\n      tag_658\n        /* \"#utility.yul\":16798:16803   */\n      dup2\n        /* \"#utility.yul\":16761:16804   */\n      tag_450\n      jump\t// in\n    tag_658:\n        /* \"#utility.yul\":16756:16759   */\n      dup3\n        /* \"#utility.yul\":16749:16805   */\n      mstore\n        /* \"#utility.yul\":16668:16811   */\n      pop\n      pop\n      jump\t// out\n        /* \"#utility.yul\":16817:17051   */\n    tag_200:\n        /* \"#utility.yul\":16916:16920   */\n      0x00\n        /* \"#utility.yul\":16954:16956   */\n      0x20\n        /* \"#utility.yul\":16943:16952   */\n      dup3\n        /* \"#utility.yul\":16939:16957   */\n      add\n        /* \"#utility.yul\":16931:16957   */\n      swap1\n      pop\n        /* \"#utility.yul\":16967:17044   */\n      tag_660\n        /* \"#utility.yul\":17041:17042   */\n      0x00\n        /* \"#utility.yul\":17030:17039   */\n      dup4\n        /* \"#utility.yul\":17026:17043   */\n      add\n        /* \"#utility.yul\":17017:17023   */\n      dup5\n        /* \"#utility.yul\":16967:17044   */\n      tag_451\n      jump\t// in\n    tag_660:\n        /* \"#utility.yul\":16817:17051   */\n      swap3\n      swap2\n      pop\n      pop\n      jump\t// out\n        /* \"#utility.yul\":17057:17216   */\n    tag_452:\n        /* \"#utility.yul\":17197:17208   */\n      0x4e6f204163636573730000000000000000000000000000000000000000000000\n        /* \"#utility.yul\":17193:17194   */\n      0x00\n        /* \"#utility.yul\":17185:17191   */\n      dup3\n        /* \"#utility.yul\":17181:17195   */\n      add\n        /* \"#utility.yul\":17174:17209   */\n      mstore\n        /* \"#utility.yul\":17057:17216   */\n      pop\n      jump\t// out\n        /* \"#utility.yul\":17222:17587   */\n    tag_453:\n        /* \"#utility.yul\":17364:17367   */\n      0x00\n        /* \"#utility.yul\":17385:17451   */\n      tag_663\n        /* \"#utility.yul\":17449:17450   */\n      0x09\n        /* \"#utility.yul\":17444:17447   */\n      dup4\n        /* \"#utility.yul\":17385:17451   */\n      tag_435\n      jump\t// in\n    tag_663:\n        /* \"#utility.yul\":17378:17451   */\n      swap2\n      pop\n        /* \"#utility.yul\":17460:17553   */\n      tag_664\n        /* \"#utility.yul\":17549:17552   */\n      dup3\n        /* \"#utility.yul\":17460:17553   */\n      tag_452\n      jump\t// in\n    tag_664:\n        /* \"#utility.yul\":17578:17580   */\n      0x20\n        /* \"#utility.yul\":17573:17576   */\n      dup3\n        /* \"#utility.yul\":17569:17581   */\n      add\n        /* \"#utility.yul\":17562:17581   */\n      swap1\n      pop\n        /* \"#utility.yul\":17222:17587   */\n      swap2\n      swap1\n      pop\n      jump\t// out\n        /* \"#utility.yul\":17593:18012   */\n    tag_206:\n        /* \"#utility.yul\":17759:17763   */\n      0x00\n        /* \"#utility.yul\":17797:17799   */\n      0x20\n        /* \"#utility.yul\":17786:17795   */\n      dup3\n        /* \"#utility.yul\":17782:17800   */\n      add\n        /* \"#utility.yul\":17774:17800   */\n      swap1\n      pop\n        /* \"#utility.yul\":17846:17855   */\n      dup2\n        /* \"#utility.yul\":17840:17844   */\n      dup2\n        /* \"#utility.yul\":17836:17856   */\n      sub\n        /* \"#utility.yul\":17832:17833   */\n      0x00\n        /* \"#utility.yul\":17821:17830   */\n      dup4\n        /* \"#utility.yul\":17817:17834   */\n      add\n        /* \"#utility.yul\":17810:17857   */\n      mstore\n        /* \"#utility.yul\":17874:18005   */\n      tag_666\n        /* \"#utility.yul\":18000:18004   */\n      dup2\n        /* \"#utility.yul\":17874:18005   */\n      tag_453\n      jump\t// in\n    tag_666:\n        /* \"#utility.yul\":17866:18005   */\n      swap1\n      pop\n        /* \"#utility.yul\":17593:18012   */\n      swap2\n      swap1\n      pop\n      jump\t// out\n        /* \"#utility.yul\":18018:18316   */\n    tag_454:\n        /* \"#utility.yul\":18158:18192   */\n      0x546f6b656e56657374696e673a2063616e6e6f74206372656174652076657374\n        /* \"#utility.yul\":18154:18155   */\n      0x00\n        /* \"#utility.yul\":18146:18152   */\n      dup3\n        /* \"#utility.yul\":18142:18156   */\n      add\n        /* \"#utility.yul\":18135:18193   */\n      mstore\n        /* \"#utility.yul\":18227:18261   */\n      0x696e67207363686564756c652062656361757365206e6f742073756666696369\n        /* \"#utility.yul\":18222:18224   */\n      0x20\n        /* \"#utility.yul\":18214:18220   */\n      dup3\n        /* \"#utility.yul\":18210:18225   */\n      add\n        /* \"#utility.yul\":18203:18262   */\n      mstore\n        /* \"#utility.yul\":18296:18308   */\n      0x656e7420746f6b656e7300000000000000000000000000000000000000000000\n        /* \"#utility.yul\":18291:18293   */\n      0x40\n        /* \"#utility.yul\":18283:18289   */\n      dup3\n        /* \"#utility.yul\":18279:18294   */\n      add\n        /* \"#utility.yul\":18272:18309   */\n      mstore\n        /* \"#utility.yul\":18018:18316   */\n      pop\n      jump\t// out\n        /* \"#utility.yul\":18322:18688   */\n    tag_455:\n        /* \"#utility.yul\":18464:18467   */\n      0x00\n        /* \"#utility.yul\":18485:18552   */\n      tag_669\n        /* \"#utility.yul\":18549:18551   */\n      0x4a\n        /* \"#utility.yul\":18544:18547   */\n      dup4\n        /* \"#utility.yul\":18485:18552   */\n      tag_435\n      jump\t// in\n    tag_669:\n        /* \"#utility.yul\":18478:18552   */\n      swap2\n      pop\n        /* \"#utility.yul\":18561:18654   */\n      tag_670\n        /* \"#utility.yul\":18650:18653   */\n      dup3\n        /* \"#utility.yul\":18561:18654   */\n      tag_454\n      jump\t// in\n    tag_670:\n        /* \"#utility.yul\":18679:18681   */\n      0x60\n        /* \"#utility.yul\":18674:18677   */\n      dup3\n        /* \"#utility.yul\":18670:18682   */\n      add\n        /* \"#utility.yul\":18663:18682   */\n      swap1\n      pop\n        /* \"#utility.yul\":18322:18688   */\n      swap2\n      swap1\n      pop\n      jump\t// out\n        /* \"#utility.yul\":18694:19113   */\n    tag_214:\n        /* \"#utility.yul\":18860:18864   */\n      0x00\n        /* \"#utility.yul\":18898:18900   */\n      0x20\n        /* \"#utility.yul\":18887:18896   */\n      dup3\n        /* \"#utility.yul\":18883:18901   */\n      add\n        /* \"#utility.yul\":18875:18901   */\n      swap1\n      pop\n        /* \"#utility.yul\":18947:18956   */\n      dup2\n        /* \"#utility.yul\":18941:18945   */\n      dup2\n        /* \"#utility.yul\":18937:18957   */\n      sub\n        /* \"#utility.yul\":18933:18934   */\n      0x00\n        /* \"#utility.yul\":18922:18931   */\n      dup4\n        /* \"#utility.yul\":18918:18935   */\n      add\n        /* \"#utility.yul\":18911:18958   */\n      mstore\n        /* \"#utility.yul\":18975:19106   */\n      tag_672\n        /* \"#utility.yul\":19101:19105   */\n      dup2\n        /* \"#utility.yul\":18975:19106   */\n      tag_455\n      jump\t// in\n    tag_672:\n        /* \"#utility.yul\":18967:19106   */\n      swap1\n      pop\n        /* \"#utility.yul\":18694:19113   */\n      swap2\n      swap1\n      pop\n      jump\t// out\n        /* \"#utility.yul\":19119:19340   */\n    tag_456:\n        /* \"#utility.yul\":19259:19293   */\n      0x546f6b656e56657374696e673a206475726174696f6e206d757374206265203e\n        /* \"#utility.yul\":19255:19256   */\n      0x00\n        /* \"#utility.yul\":19247:19253   */\n      dup3\n        /* \"#utility.yul\":19243:19257   */\n      add\n        /* \"#utility.yul\":19236:19294   */\n      mstore\n        /* \"#utility.yul\":19328:19332   */\n      0x2030000000000000000000000000000000000000000000000000000000000000\n        /* \"#utility.yul\":19323:19325   */\n      0x20\n        /* \"#utility.yul\":19315:19321   */\n      dup3\n        /* \"#utility.yul\":19311:19326   */\n      add\n        /* \"#utility.yul\":19304:19333   */\n      mstore\n        /* \"#utility.yul\":19119:19340   */\n      pop\n      jump\t// out\n        /* \"#utility.yul\":19346:19712   */\n    tag_457:\n        /* \"#utility.yul\":19488:19491   */\n      0x00\n        /* \"#utility.yul\":19509:19576   */\n      tag_675\n        /* \"#utility.yul\":19573:19575   */\n      0x22\n        /* \"#utility.yul\":19568:19571   */\n      dup4\n        /* \"#utility.yul\":19509:19576   */\n      tag_435\n      jump\t// in\n    tag_675:\n        /* \"#utility.yul\":19502:19576   */\n      swap2\n      pop\n        /* \"#utility.yul\":19585:19678   */\n      tag_676\n        /* \"#utility.yul\":19674:19677   */\n      dup3\n        /* \"#utility.yul\":19585:19678   */\n      tag_456\n      jump\t// in\n    tag_676:\n        /* \"#utility.yul\":19703:19705   */\n      0x40\n        /* \"#utility.yul\":19698:19701   */\n      dup3\n        /* \"#utility.yul\":19694:19706   */\n      add\n        /* \"#utility.yul\":19687:19706   */\n      swap1\n      pop\n        /* \"#utility.yul\":19346:19712   */\n      swap2\n      swap1\n      pop\n      jump\t// out\n        /* \"#utility.yul\":19718:20137   */\n    tag_217:\n        /* \"#utility.yul\":19884:19888   */\n      0x00\n        /* \"#utility.yul\":19922:19924   */\n      0x20\n        /* \"#utility.yul\":19911:19920   */\n      dup3\n        /* \"#utility.yul\":19907:19925   */\n      add\n        /* \"#utility.yul\":19899:19925   */\n      swap1\n      pop\n        /* \"#utility.yul\":19971:19980   */\n      dup2\n        /* \"#utility.yul\":19965:19969   */\n      dup2\n        /* \"#utility.yul\":19961:19981   */\n      sub\n        /* \"#utility.yul\":19957:19958   */\n      0x00\n        /* \"#utility.yul\":19946:19955   */\n      dup4\n        /* \"#utility.yul\":19942:19959   */\n      add\n        /* \"#utility.yul\":19935:19982   */\n      mstore\n        /* \"#utility.yul\":19999:20130   */\n      tag_678\n        /* \"#utility.yul\":20125:20129   */\n      dup2\n        /* \"#utility.yul\":19999:20130   */\n      tag_457\n      jump\t// in\n    tag_678:\n        /* \"#utility.yul\":19991:20130   */\n      swap1\n      pop\n        /* \"#utility.yul\":19718:20137   */\n      swap2\n      swap1\n      pop\n      jump\t// out\n        /* \"#utility.yul\":20143:20325   */\n    tag_458:\n        /* \"#utility.yul\":20283:20317   */\n      0x546f6b656e56657374696e673a20616d6f756e74206d757374206265203e2030\n        /* \"#utility.yul\":20279:20280   */\n      0x00\n        /* \"#utility.yul\":20271:20277   */\n      dup3\n        /* \"#utility.yul\":20267:20281   */\n      add\n        /* \"#utility.yul\":20260:20318   */\n      mstore\n        /* \"#utility.yul\":20143:20325   */\n      pop\n      jump\t// out\n        /* \"#utility.yul\":20331:20697   */\n    tag_459:\n        /* \"#utility.yul\":20473:20476   */\n      0x00\n        /* \"#utility.yul\":20494:20561   */\n      tag_681\n        /* \"#utility.yul\":20558:20560   */\n      0x20\n        /* \"#utility.yul\":20553:20556   */\n      dup4\n        /* \"#utility.yul\":20494:20561   */\n      tag_435\n      jump\t// in\n    tag_681:\n        /* \"#utility.yul\":20487:20561   */\n      swap2\n      pop\n        /* \"#utility.yul\":20570:20663   */\n      tag_682\n        /* \"#utility.yul\":20659:20662   */\n      dup3\n        /* \"#utility.yul\":20570:20663   */\n      tag_458\n      jump\t// in\n    tag_682:\n        /* \"#utility.yul\":20688:20690   */\n      0x20\n        /* \"#utility.yul\":20683:20686   */\n      dup3\n        /* \"#utility.yul\":20679:20691   */\n      add\n        /* \"#utility.yul\":20672:20691   */\n      swap1\n      pop\n        /* \"#utility.yul\":20331:20697   */\n      swap2\n      swap1\n      pop\n      jump\t// out\n        /* \"#utility.yul\":20703:21122   */\n    tag_220:\n        /* \"#utility.yul\":20869:20873   */\n      0x00\n        /* \"#utility.yul\":20907:20909   */\n      0x20\n        /* \"#utility.yul\":20896:20905   */\n      dup3\n        /* \"#utility.yul\":20892:20910   */\n      add\n        /* \"#utility.yul\":20884:20910   */\n      swap1\n      pop\n        /* \"#utility.yul\":20956:20965   */\n      dup2\n        /* \"#utility.yul\":20950:20954   */\n      dup2\n        /* \"#utility.yul\":20946:20966   */\n      sub\n        /* \"#utility.yul\":20942:20943   */\n      0x00\n        /* \"#utility.yul\":20931:20940   */\n      dup4\n        /* \"#utility.yul\":20927:20944   */\n      add\n        /* \"#utility.yul\":20920:20967   */\n      mstore\n        /* \"#utility.yul\":20984:21115   */\n      tag_684\n        /* \"#utility.yul\":21110:21114   */\n      dup2\n        /* \"#utility.yul\":20984:21115   */\n      tag_459\n      jump\t// in\n    tag_684:\n        /* \"#utility.yul\":20976:21115   */\n      swap1\n      pop\n        /* \"#utility.yul\":20703:21122   */\n      swap2\n      swap1\n      pop\n      jump\t// out\n        /* \"#utility.yul\":21128:21360   */\n    tag_460:\n        /* \"#utility.yul\":21268:21302   */\n      0x546f6b656e56657374696e673a20736c696365506572696f645365636f6e6473\n        /* \"#utility.yul\":21264:21265   */\n      0x00\n        /* \"#utility.yul\":21256:21262   */\n      dup3\n        /* \"#utility.yul\":21252:21266   */\n      add\n        /* \"#utility.yul\":21245:21303   */\n      mstore\n        /* \"#utility.yul\":21337:21352   */\n      0x206d757374206265203e3d203100000000000000000000000000000000000000\n        /* \"#utility.yul\":21332:21334   */\n      0x20\n        /* \"#utility.yul\":21324:21330   */\n      dup3\n        /* \"#utility.yul\":21320:21335   */\n      add\n        /* \"#utility.yul\":21313:21353   */\n      mstore\n        /* \"#utility.yul\":21128:21360   */\n      pop\n      jump\t// out\n        /* \"#utility.yul\":21366:21732   */\n    tag_461:\n        /* \"#utility.yul\":21508:21511   */\n      0x00\n        /* \"#utility.yul\":21529:21596   */\n      tag_687\n        /* \"#utility.yul\":21593:21595   */\n      0x2d\n        /* \"#utility.yul\":21588:21591   */\n      dup4\n        /* \"#utility.yul\":21529:21596   */\n      tag_435\n      jump\t// in\n    tag_687:\n        /* \"#utility.yul\":21522:21596   */\n      swap2\n      pop\n        /* \"#utility.yul\":21605:21698   */\n      tag_688\n        /* \"#utility.yul\":21694:21697   */\n      dup3\n        /* \"#utility.yul\":21605:21698   */\n      tag_460\n      jump\t// in\n    tag_688:\n        /* \"#utility.yul\":21723:21725   */\n      0x40\n        /* \"#utility.yul\":21718:21721   */\n      dup3\n        /* \"#utility.yul\":21714:21726   */\n      add\n        /* \"#utility.yul\":21707:21726   */\n      swap1\n      pop\n        /* \"#utility.yul\":21366:21732   */\n      swap2\n      swap1\n      pop\n      jump\t// out\n        /* \"#utility.yul\":21738:22157   */\n    tag_223:\n        /* \"#utility.yul\":21904:21908   */\n      0x00\n        /* \"#utility.yul\":21942:21944   */\n      0x20\n        /* \"#utility.yul\":21931:21940   */\n      dup3\n        /* \"#utility.yul\":21927:21945   */\n      add\n        /* \"#utility.yul\":21919:21945   */\n      swap1\n      pop\n        /* \"#utility.yul\":21991:22000   */\n      dup2\n        /* \"#utility.yul\":21985:21989   */\n      dup2\n        /* \"#utility.yul\":21981:22001   */\n      sub\n        /* \"#utility.yul\":21977:21978   */\n      0x00\n        /* \"#utility.yul\":21966:21975   */\n      dup4\n        /* \"#utility.yul\":21962:21979   */\n      add\n        /* \"#utility.yul\":21955:22002   */\n      mstore\n        /* \"#utility.yul\":22019:22150   */\n      tag_690\n        /* \"#utility.yul\":22145:22149   */\n      dup2\n        /* \"#utility.yul\":22019:22150   */\n      tag_461\n      jump\t// in\n    tag_690:\n        /* \"#utility.yul\":22011:22150   */\n      swap1\n      pop\n        /* \"#utility.yul\":21738:22157   */\n      swap2\n      swap1\n      pop\n      jump\t// out\n        /* \"#utility.yul\":22163:22306   */\n    tag_462:\n        /* \"#utility.yul\":22220:22225   */\n      0x00\n        /* \"#utility.yul\":22251:22257   */\n      dup2\n        /* \"#utility.yul\":22245:22258   */\n      mload\n        /* \"#utility.yul\":22236:22258   */\n      swap1\n      pop\n        /* \"#utility.yul\":22267:22300   */\n      tag_692\n        /* \"#utility.yul\":22294:22299   */\n      dup2\n        /* \"#utility.yul\":22267:22300   */\n      tag_422\n      jump\t// in\n    tag_692:\n        /* \"#utility.yul\":22163:22306   */\n      swap3\n      swap2\n      pop\n      pop\n      jump\t// out\n        /* \"#utility.yul\":22312:22663   */\n    tag_229:\n        /* \"#utility.yul\":22382:22388   */\n      0x00\n        /* \"#utility.yul\":22431:22433   */\n      0x20\n        /* \"#utility.yul\":22419:22428   */\n      dup3\n        /* \"#utility.yul\":22410:22417   */\n      dup5\n        /* \"#utility.yul\":22406:22429   */\n      sub\n        /* \"#utility.yul\":22402:22434   */\n      slt\n        /* \"#utility.yul\":22399:22518   */\n      iszero\n      tag_694\n      jumpi\n        /* \"#utility.yul\":22437:22516   */\n      tag_695\n      tag_412\n      jump\t// in\n    tag_695:\n        /* \"#utility.yul\":22399:22518   */\n    tag_694:\n        /* \"#utility.yul\":22557:22558   */\n      0x00\n        /* \"#utility.yul\":22582:22646   */\n      tag_696\n        /* \"#utility.yul\":22638:22645   */\n      dup5\n        /* \"#utility.yul\":22629:22635   */\n      dup3\n        /* \"#utility.yul\":22618:22627   */\n      dup6\n        /* \"#utility.yul\":22614:22636   */\n      add\n        /* \"#utility.yul\":22582:22646   */\n      tag_462\n      jump\t// in\n    tag_696:\n        /* \"#utility.yul\":22572:22646   */\n      swap2\n      pop\n        /* \"#utility.yul\":22528:22656   */\n      pop\n        /* \"#utility.yul\":22312:22663   */\n      swap3\n      swap2\n      pop\n      pop\n      jump\t// out\n        /* \"#utility.yul\":22669:22849   */\n    tag_463:\n        /* \"#utility.yul\":22717:22794   */\n      0x4e487b7100000000000000000000000000000000000000000000000000000000\n        /* \"#utility.yul\":22714:22715   */\n      0x00\n        /* \"#utility.yul\":22707:22795   */\n      mstore\n        /* \"#utility.yul\":22814:22818   */\n      0x11\n        /* \"#utility.yul\":22811:22812   */\n      0x04\n        /* \"#utility.yul\":22804:22819   */\n      mstore\n        /* \"#utility.yul\":22838:22842   */\n      0x24\n        /* \"#utility.yul\":22835:22836   */\n      0x00\n        /* \"#utility.yul\":22828:22843   */\n      revert\n        /* \"#utility.yul\":22855:23046   */\n    tag_240:\n        /* \"#utility.yul\":22895:22899   */\n      0x00\n        /* \"#utility.yul\":22915:22935   */\n      tag_699\n        /* \"#utility.yul\":22933:22934   */\n      dup3\n        /* \"#utility.yul\":22915:22935   */\n      tag_409\n      jump\t// in\n    tag_699:\n        /* \"#utility.yul\":22910:22935   */\n      swap2\n      pop\n        /* \"#utility.yul\":22949:22969   */\n      tag_700\n        /* \"#utility.yul\":22967:22968   */\n      dup4\n        /* \"#utility.yul\":22949:22969   */\n      tag_409\n      jump\t// in\n    tag_700:\n        /* \"#utility.yul\":22944:22969   */\n      swap3\n      pop\n        /* \"#utility.yul\":22988:22989   */\n      dup3\n        /* \"#utility.yul\":22985:22986   */\n      dup3\n        /* \"#utility.yul\":22982:22990   */\n      lt\n        /* \"#utility.yul\":22979:23013   */\n      iszero\n      tag_701\n      jumpi\n        /* \"#utility.yul\":22993:23011   */\n      tag_702\n      tag_463\n      jump\t// in\n    tag_702:\n        /* \"#utility.yul\":22979:23013   */\n    tag_701:\n        /* \"#utility.yul\":23038:23039   */\n      dup3\n        /* \"#utility.yul\":23035:23036   */\n      dup3\n        /* \"#utility.yul\":23031:23040   */\n      sub\n        /* \"#utility.yul\":23023:23040   */\n      swap1\n      pop\n        /* \"#utility.yul\":22855:23046   */\n      swap3\n      swap2\n      pop\n      pop\n      jump\t// out\n        /* \"#utility.yul\":23052:23146   */\n    tag_464:\n        /* \"#utility.yul\":23085:23093   */\n      0x00\n        /* \"#utility.yul\":23133:23138   */\n      dup2\n        /* \"#utility.yul\":23129:23131   */\n      0x60\n        /* \"#utility.yul\":23125:23139   */\n      shl\n        /* \"#utility.yul\":23104:23139   */\n      swap1\n      pop\n        /* \"#utility.yul\":23052:23146   */\n      swap2\n      swap1\n      pop\n      jump\t// out\n        /* \"#utility.yul\":23152:23246   */\n    tag_465:\n        /* \"#utility.yul\":23191:23198   */\n      0x00\n        /* \"#utility.yul\":23220:23240   */\n      tag_705\n        /* \"#utility.yul\":23234:23239   */\n      dup3\n        /* \"#utility.yul\":23220:23240   */\n      tag_464\n      jump\t// in\n    tag_705:\n        /* \"#utility.yul\":23209:23240   */\n      swap1\n      pop\n        /* \"#utility.yul\":23152:23246   */\n      swap2\n      swap1\n      pop\n      jump\t// out\n        /* \"#utility.yul\":23252:23352   */\n    tag_466:\n        /* \"#utility.yul\":23291:23298   */\n      0x00\n        /* \"#utility.yul\":23320:23346   */\n      tag_707\n        /* \"#utility.yul\":23340:23345   */\n      dup3\n        /* \"#utility.yul\":23320:23346   */\n      tag_465\n      jump\t// in\n    tag_707:\n        /* \"#utility.yul\":23309:23346   */\n      swap1\n      pop\n        /* \"#utility.yul\":23252:23352   */\n      swap2\n      swap1\n      pop\n      jump\t// out\n        /* \"#utility.yul\":23358:23515   */\n    tag_467:\n        /* \"#utility.yul\":23463:23508   */\n      tag_709\n        /* \"#utility.yul\":23483:23507   */\n      tag_710\n        /* \"#utility.yul\":23501:23506   */\n      dup3\n        /* \"#utility.yul\":23483:23507   */\n      tag_415\n      jump\t// in\n    tag_710:\n        /* \"#utility.yul\":23463:23508   */\n      tag_466\n      jump\t// in\n    tag_709:\n        /* \"#utility.yul\":23458:23461   */\n      dup3\n        /* \"#utility.yul\":23451:23509   */\n      mstore\n        /* \"#utility.yul\":23358:23515   */\n      pop\n      pop\n      jump\t// out\n        /* \"#utility.yul\":23521:23600   */\n    tag_468:\n        /* \"#utility.yul\":23560:23567   */\n      0x00\n        /* \"#utility.yul\":23589:23594   */\n      dup2\n        /* \"#utility.yul\":23578:23594   */\n      swap1\n      pop\n        /* \"#utility.yul\":23521:23600   */\n      swap2\n      swap1\n      pop\n      jump\t// out\n        /* \"#utility.yul\":23606:23763   */\n    tag_469:\n        /* \"#utility.yul\":23711:23756   */\n      tag_713\n        /* \"#utility.yul\":23731:23755   */\n      tag_714\n        /* \"#utility.yul\":23749:23754   */\n      dup3\n        /* \"#utility.yul\":23731:23755   */\n      tag_409\n      jump\t// in\n    tag_714:\n        /* \"#utility.yul\":23711:23756   */\n      tag_468\n      jump\t// in\n    tag_713:\n        /* \"#utility.yul\":23706:23709   */\n      dup3\n        /* \"#utility.yul\":23699:23757   */\n      mstore\n        /* \"#utility.yul\":23606:23763   */\n      pop\n      pop\n      jump\t// out\n        /* \"#utility.yul\":23769:24166   */\n    tag_243:\n        /* \"#utility.yul\":23909:23912   */\n      0x00\n        /* \"#utility.yul\":23924:23999   */\n      tag_716\n        /* \"#utility.yul\":23995:23998   */\n      dup3\n        /* \"#utility.yul\":23986:23992   */\n      dup6\n        /* \"#utility.yul\":23924:23999   */\n      tag_467\n      jump\t// in\n    tag_716:\n        /* \"#utility.yul\":24024:24026   */\n      0x14\n        /* \"#utility.yul\":24019:24022   */\n      dup3\n        /* \"#utility.yul\":24015:24027   */\n      add\n        /* \"#utility.yul\":24008:24027   */\n      swap2\n      pop\n        /* \"#utility.yul\":24037:24112   */\n      tag_717\n        /* \"#utility.yul\":24108:24111   */\n      dup3\n        /* \"#utility.yul\":24099:24105   */\n      dup5\n        /* \"#utility.yul\":24037:24112   */\n      tag_469\n      jump\t// in\n    tag_717:\n        /* \"#utility.yul\":24137:24139   */\n      0x20\n        /* \"#utility.yul\":24132:24135   */\n      dup3\n        /* \"#utility.yul\":24128:24140   */\n      add\n        /* \"#utility.yul\":24121:24140   */\n      swap2\n      pop\n        /* \"#utility.yul\":24157:24160   */\n      dup2\n        /* \"#utility.yul\":24150:24160   */\n      swap1\n      pop\n        /* \"#utility.yul\":23769:24166   */\n      swap4\n      swap3\n      pop\n      pop\n      pop\n      jump\t// out\n        /* \"#utility.yul\":24172:24397   */\n    tag_470:\n        /* \"#utility.yul\":24312:24346   */\n      0x546f6b656e56657374696e673a2076657374696e67206973206e6f7420726576\n        /* \"#utility.yul\":24308:24309   */\n      0x00\n        /* \"#utility.yul\":24300:24306   */\n      dup3\n        /* \"#utility.yul\":24296:24310   */\n      add\n        /* \"#utility.yul\":24289:24347   */\n      mstore\n        /* \"#utility.yul\":24381:24389   */\n      0x6f6361626c650000000000000000000000000000000000000000000000000000\n        /* \"#utility.yul\":24376:24378   */\n      0x20\n        /* \"#utility.yul\":24368:24374   */\n      dup3\n        /* \"#utility.yul\":24364:24379   */\n      add\n        /* \"#utility.yul\":24357:24390   */\n      mstore\n        /* \"#utility.yul\":24172:24397   */\n      pop\n      jump\t// out\n        /* \"#utility.yul\":24403:24769   */\n    tag_471:\n        /* \"#utility.yul\":24545:24548   */\n      0x00\n        /* \"#utility.yul\":24566:24633   */\n      tag_720\n        /* \"#utility.yul\":24630:24632   */\n      0x26\n        /* \"#utility.yul\":24625:24628   */\n      dup4\n        /* \"#utility.yul\":24566:24633   */\n      tag_435\n      jump\t// in\n    tag_720:\n        /* \"#utility.yul\":24559:24633   */\n      swap2\n      pop\n        /* \"#utility.yul\":24642:24735   */\n      tag_721\n        /* \"#utility.yul\":24731:24734   */\n      dup3\n        /* \"#utility.yul\":24642:24735   */\n      tag_470\n      jump\t// in\n    tag_721:\n        /* \"#utility.yul\":24760:24762   */\n      0x40\n        /* \"#utility.yul\":24755:24758   */\n      dup3\n        /* \"#utility.yul\":24751:24763   */\n      add\n        /* \"#utility.yul\":24744:24763   */\n      swap1\n      pop\n        /* \"#utility.yul\":24403:24769   */\n      swap2\n      swap1\n      pop\n      jump\t// out\n        /* \"#utility.yul\":24775:25194   */\n    tag_262:\n        /* \"#utility.yul\":24941:24945   */\n      0x00\n        /* \"#utility.yul\":24979:24981   */\n      0x20\n        /* \"#utility.yul\":24968:24977   */\n      dup3\n        /* \"#utility.yul\":24964:24982   */\n      add\n        /* \"#utility.yul\":24956:24982   */\n      swap1\n      pop\n        /* \"#utility.yul\":25028:25037   */\n      dup2\n        /* \"#utility.yul\":25022:25026   */\n      dup2\n        /* \"#utility.yul\":25018:25038   */\n      sub\n        /* \"#utility.yul\":25014:25015   */\n      0x00\n        /* \"#utility.yul\":25003:25012   */\n      dup4\n        /* \"#utility.yul\":24999:25016   */\n      add\n        /* \"#utility.yul\":24992:25039   */\n      mstore\n        /* \"#utility.yul\":25056:25187   */\n      tag_723\n        /* \"#utility.yul\":25182:25186   */\n      dup2\n        /* \"#utility.yul\":25056:25187   */\n      tag_471\n      jump\t// in\n    tag_723:\n        /* \"#utility.yul\":25048:25187   */\n      swap1\n      pop\n        /* \"#utility.yul\":24775:25194   */\n      swap2\n      swap1\n      pop\n      jump\t// out\n        /* \"#utility.yul\":25200:25425   */\n    tag_472:\n        /* \"#utility.yul\":25340:25374   */\n      0x4f776e61626c653a206e6577206f776e657220697320746865207a65726f2061\n        /* \"#utility.yul\":25336:25337   */\n      0x00\n        /* \"#utility.yul\":25328:25334   */\n      dup3\n        /* \"#utility.yul\":25324:25338   */\n      add\n        /* \"#utility.yul\":25317:25375   */\n      mstore\n        /* \"#utility.yul\":25409:25417   */\n      0x6464726573730000000000000000000000000000000000000000000000000000\n        /* \"#utility.yul\":25404:25406   */\n      0x20\n        /* \"#utility.yul\":25396:25402   */\n      dup3\n        /* \"#utility.yul\":25392:25407   */\n      add\n        /* \"#utility.yul\":25385:25418   */\n      mstore\n        /* \"#utility.yul\":25200:25425   */\n      pop\n      jump\t// out\n        /* \"#utility.yul\":25431:25797   */\n    tag_473:\n        /* \"#utility.yul\":25573:25576   */\n      0x00\n        /* \"#utility.yul\":25594:25661   */\n      tag_726\n        /* \"#utility.yul\":25658:25660   */\n      0x26\n        /* \"#utility.yul\":25653:25656   */\n      dup4\n        /* \"#utility.yul\":25594:25661   */\n      tag_435\n      jump\t// in\n    tag_726:\n        /* \"#utility.yul\":25587:25661   */\n      swap2\n      pop\n        /* \"#utility.yul\":25670:25763   */\n      tag_727\n        /* \"#utility.yul\":25759:25762   */\n      dup3\n        /* \"#utility.yul\":25670:25763   */\n      tag_472\n      jump\t// in\n    tag_727:\n        /* \"#utility.yul\":25788:25790   */\n      0x40\n        /* \"#utility.yul\":25783:25786   */\n      dup3\n        /* \"#utility.yul\":25779:25791   */\n      add\n        /* \"#utility.yul\":25772:25791   */\n      swap1\n      pop\n        /* \"#utility.yul\":25431:25797   */\n      swap2\n      swap1\n      pop\n      jump\t// out\n        /* \"#utility.yul\":25803:26222   */\n    tag_278:\n        /* \"#utility.yul\":25969:25973   */\n      0x00\n        /* \"#utility.yul\":26007:26009   */\n      0x20\n        /* \"#utility.yul\":25996:26005   */\n      dup3\n        /* \"#utility.yul\":25992:26010   */\n      add\n        /* \"#utility.yul\":25984:26010   */\n      swap1\n      pop\n        /* \"#utility.yul\":26056:26065   */\n      dup2\n        /* \"#utility.yul\":26050:26054   */\n      dup2\n        /* \"#utility.yul\":26046:26066   */\n      sub\n        /* \"#utility.yul\":26042:26043   */\n      0x00\n        /* \"#utility.yul\":26031:26040   */\n      dup4\n        /* \"#utility.yul\":26027:26044   */\n      add\n        /* \"#utility.yul\":26020:26067   */\n      mstore\n        /* \"#utility.yul\":26084:26215   */\n      tag_729\n        /* \"#utility.yul\":26210:26214   */\n      dup2\n        /* \"#utility.yul\":26084:26215   */\n      tag_473\n      jump\t// in\n    tag_729:\n        /* \"#utility.yul\":26076:26215   */\n      swap1\n      pop\n        /* \"#utility.yul\":25803:26222   */\n      swap2\n      swap1\n      pop\n      jump\t// out\n        /* \"#utility.yul\":26228:26448   */\n    tag_474:\n        /* \"#utility.yul\":26368:26402   */\n      0x546f6b656e56657374696e673a20696e646578206f7574206f6620626f756e64\n        /* \"#utility.yul\":26364:26365   */\n      0x00\n        /* \"#utility.yul\":26356:26362   */\n      dup3\n        /* \"#utility.yul\":26352:26366   */\n      add\n        /* \"#utility.yul\":26345:26403   */\n      mstore\n        /* \"#utility.yul\":26437:26440   */\n      0x7300000000000000000000000000000000000000000000000000000000000000\n        /* \"#utility.yul\":26432:26434   */\n      0x20\n        /* \"#utility.yul\":26424:26430   */\n      dup3\n        /* \"#utility.yul\":26420:26435   */\n      add\n        /* \"#utility.yul\":26413:26441   */\n      mstore\n        /* \"#utility.yul\":26228:26448   */\n      pop\n      jump\t// out\n        /* \"#utility.yul\":26454:26820   */\n    tag_475:\n        /* \"#utility.yul\":26596:26599   */\n      0x00\n        /* \"#utility.yul\":26617:26684   */\n      tag_732\n        /* \"#utility.yul\":26681:26683   */\n      0x21\n        /* \"#utility.yul\":26676:26679   */\n      dup4\n        /* \"#utility.yul\":26617:26684   */\n      tag_435\n      jump\t// in\n    tag_732:\n        /* \"#utility.yul\":26610:26684   */\n      swap2\n      pop\n        /* \"#utility.yul\":26693:26786   */\n      tag_733\n        /* \"#utility.yul\":26782:26785   */\n      dup3\n        /* \"#utility.yul\":26693:26786   */\n      tag_474\n      jump\t// in\n    tag_733:\n        /* \"#utility.yul\":26811:26813   */\n      0x40\n        /* \"#utility.yul\":26806:26809   */\n      dup3\n        /* \"#utility.yul\":26802:26814   */\n      add\n        /* \"#utility.yul\":26795:26814   */\n      swap1\n      pop\n        /* \"#utility.yul\":26454:26820   */\n      swap2\n      swap1\n      pop\n      jump\t// out\n        /* \"#utility.yul\":26826:27245   */\n    tag_290:\n        /* \"#utility.yul\":26992:26996   */\n      0x00\n        /* \"#utility.yul\":27030:27032   */\n      0x20\n        /* \"#utility.yul\":27019:27028   */\n      dup3\n        /* \"#utility.yul\":27015:27033   */\n      add\n        /* \"#utility.yul\":27007:27033   */\n      swap1\n      pop\n        /* \"#utility.yul\":27079:27088   */\n      dup2\n        /* \"#utility.yul\":27073:27077   */\n      dup2\n        /* \"#utility.yul\":27069:27089   */\n      sub\n        /* \"#utility.yul\":27065:27066   */\n      0x00\n        /* \"#utility.yul\":27054:27063   */\n      dup4\n        /* \"#utility.yul\":27050:27067   */\n      add\n        /* \"#utility.yul\":27043:27090   */\n      mstore\n        /* \"#utility.yul\":27107:27238   */\n      tag_735\n        /* \"#utility.yul\":27233:27237   */\n      dup2\n        /* \"#utility.yul\":27107:27238   */\n      tag_475\n      jump\t// in\n    tag_735:\n        /* \"#utility.yul\":27099:27238   */\n      swap1\n      pop\n        /* \"#utility.yul\":26826:27245   */\n      swap2\n      swap1\n      pop\n      jump\t// out\n        /* \"#utility.yul\":27251:27431   */\n    tag_293:\n        /* \"#utility.yul\":27299:27376   */\n      0x4e487b7100000000000000000000000000000000000000000000000000000000\n        /* \"#utility.yul\":27296:27297   */\n      0x00\n        /* \"#utility.yul\":27289:27377   */\n      mstore\n        /* \"#utility.yul\":27396:27400   */\n      0x32\n        /* \"#utility.yul\":27393:27394   */\n      0x04\n        /* \"#utility.yul\":27386:27401   */\n      mstore\n        /* \"#utility.yul\":27420:27424   */\n      0x24\n        /* \"#utility.yul\":27417:27418   */\n      0x00\n        /* \"#utility.yul\":27410:27425   */\n      revert\n        /* \"#utility.yul\":27437:27680   */\n    tag_476:\n        /* \"#utility.yul\":27577:27611   */\n      0x52656c65617365546f6b656e41745447453a206f6e6c7920696e766573746f72\n        /* \"#utility.yul\":27573:27574   */\n      0x00\n        /* \"#utility.yul\":27565:27571   */\n      dup3\n        /* \"#utility.yul\":27561:27575   */\n      add\n        /* \"#utility.yul\":27554:27612   */\n      mstore\n        /* \"#utility.yul\":27646:27672   */\n      0x732063616e20636c61696d20746f6b656e206174205447450000000000000000\n        /* \"#utility.yul\":27641:27643   */\n      0x20\n        /* \"#utility.yul\":27633:27639   */\n      dup3\n        /* \"#utility.yul\":27629:27644   */\n      add\n        /* \"#utility.yul\":27622:27673   */\n      mstore\n        /* \"#utility.yul\":27437:27680   */\n      pop\n      jump\t// out\n        /* \"#utility.yul\":27686:28052   */\n    tag_477:\n        /* \"#utility.yul\":27828:27831   */\n      0x00\n        /* \"#utility.yul\":27849:27916   */\n      tag_739\n        /* \"#utility.yul\":27913:27915   */\n      0x38\n        /* \"#utility.yul\":27908:27911   */\n      dup4\n        /* \"#utility.yul\":27849:27916   */\n      tag_435\n      jump\t// in\n    tag_739:\n        /* \"#utility.yul\":27842:27916   */\n      swap2\n      pop\n        /* \"#utility.yul\":27925:28018   */\n      tag_740\n        /* \"#utility.yul\":28014:28017   */\n      dup3\n        /* \"#utility.yul\":27925:28018   */\n      tag_476\n      jump\t// in\n    tag_740:\n        /* \"#utility.yul\":28043:28045   */\n      0x40\n        /* \"#utility.yul\":28038:28041   */\n      dup3\n        /* \"#utility.yul\":28034:28046   */\n      add\n        /* \"#utility.yul\":28027:28046   */\n      swap1\n      pop\n        /* \"#utility.yul\":27686:28052   */\n      swap2\n      swap1\n      pop\n      jump\t// out\n        /* \"#utility.yul\":28058:28477   */\n    tag_305:\n        /* \"#utility.yul\":28224:28228   */\n      0x00\n        /* \"#utility.yul\":28262:28264   */\n      0x20\n        /* \"#utility.yul\":28251:28260   */\n      dup3\n        /* \"#utility.yul\":28247:28265   */\n      add\n        /* \"#utility.yul\":28239:28265   */\n      swap1\n      pop\n        /* \"#utility.yul\":28311:28320   */\n      dup2\n        /* \"#utility.yul\":28305:28309   */\n      dup2\n        /* \"#utility.yul\":28301:28321   */\n      sub\n        /* \"#utility.yul\":28297:28298   */\n      0x00\n        /* \"#utility.yul\":28286:28295   */\n      dup4\n        /* \"#utility.yul\":28282:28299   */\n      add\n        /* \"#utility.yul\":28275:28322   */\n      mstore\n        /* \"#utility.yul\":28339:28470   */\n      tag_742\n        /* \"#utility.yul\":28465:28469   */\n      dup2\n        /* \"#utility.yul\":28339:28470   */\n      tag_477\n      jump\t// in\n    tag_742:\n        /* \"#utility.yul\":28331:28470   */\n      swap1\n      pop\n        /* \"#utility.yul\":28058:28477   */\n      swap2\n      swap1\n      pop\n      jump\t// out\n        /* \"#utility.yul\":28483:28655   */\n    tag_478:\n        /* \"#utility.yul\":28623:28647   */\n      0x5447453a2074696d65206e6f7420726561636865642100000000000000000000\n        /* \"#utility.yul\":28619:28620   */\n      0x00\n        /* \"#utility.yul\":28611:28617   */\n      dup3\n        /* \"#utility.yul\":28607:28621   */\n      add\n        /* \"#utility.yul\":28600:28648   */\n      mstore\n        /* \"#utility.yul\":28483:28655   */\n      pop\n      jump\t// out\n        /* \"#utility.yul\":28661:29027   */\n    tag_479:\n        /* \"#utility.yul\":28803:28806   */\n      0x00\n        /* \"#utility.yul\":28824:28891   */\n      tag_745\n        /* \"#utility.yul\":28888:28890   */\n      0x16\n        /* \"#utility.yul\":28883:28886   */\n      dup4\n        /* \"#utility.yul\":28824:28891   */\n      tag_435\n      jump\t// in\n    tag_745:\n        /* \"#utility.yul\":28817:28891   */\n      swap2\n      pop\n        /* \"#utility.yul\":28900:28993   */\n      tag_746\n        /* \"#utility.yul\":28989:28992   */\n      dup3\n        /* \"#utility.yul\":28900:28993   */\n      tag_478\n      jump\t// in\n    tag_746:\n        /* \"#utility.yul\":29018:29020   */\n      0x20\n        /* \"#utility.yul\":29013:29016   */\n      dup3\n        /* \"#utility.yul\":29009:29021   */\n      add\n        /* \"#utility.yul\":29002:29021   */\n      swap1\n      pop\n        /* \"#utility.yul\":28661:29027   */\n      swap2\n      swap1\n      pop\n      jump\t// out\n        /* \"#utility.yul\":29033:29452   */\n    tag_310:\n        /* \"#utility.yul\":29199:29203   */\n      0x00\n        /* \"#utility.yul\":29237:29239   */\n      0x20\n        /* \"#utility.yul\":29226:29235   */\n      dup3\n        /* \"#utility.yul\":29222:29240   */\n      add\n        /* \"#utility.yul\":29214:29240   */\n      swap1\n      pop\n        /* \"#utility.yul\":29286:29295   */\n      dup2\n        /* \"#utility.yul\":29280:29284   */\n      dup2\n        /* \"#utility.yul\":29276:29296   */\n      sub\n        /* \"#utility.yul\":29272:29273   */\n      0x00\n        /* \"#utility.yul\":29261:29270   */\n      dup4\n        /* \"#utility.yul\":29257:29274   */\n      add\n        /* \"#utility.yul\":29250:29297   */\n      mstore\n        /* \"#utility.yul\":29314:29445   */\n      tag_748\n        /* \"#utility.yul\":29440:29444   */\n      dup2\n        /* \"#utility.yul\":29314:29445   */\n      tag_479\n      jump\t// in\n    tag_748:\n        /* \"#utility.yul\":29306:29445   */\n      swap1\n      pop\n        /* \"#utility.yul\":29033:29452   */\n      swap2\n      swap1\n      pop\n      jump\t// out\n        /* \"#utility.yul\":29458:29634   */\n    tag_480:\n        /* \"#utility.yul\":29598:29626   */\n      0x5447453a20546f6b656e20416c726561647920636c61696d6564000000000000\n        /* \"#utility.yul\":29594:29595   */\n      0x00\n        /* \"#utility.yul\":29586:29592   */\n      dup3\n        /* \"#utility.yul\":29582:29596   */\n      add\n        /* \"#utility.yul\":29575:29627   */\n      mstore\n        /* \"#utility.yul\":29458:29634   */\n      pop\n      jump\t// out\n        /* \"#utility.yul\":29640:30006   */\n    tag_481:\n        /* \"#utility.yul\":29782:29785   */\n      0x00\n        /* \"#utility.yul\":29803:29870   */\n      tag_751\n        /* \"#utility.yul\":29867:29869   */\n      0x1a\n        /* \"#utility.yul\":29862:29865   */\n      dup4\n        /* \"#utility.yul\":29803:29870   */\n      tag_435\n      jump\t// in\n    tag_751:\n        /* \"#utility.yul\":29796:29870   */\n      swap2\n      pop\n        /* \"#utility.yul\":29879:29972   */\n      tag_752\n        /* \"#utility.yul\":29968:29971   */\n      dup3\n        /* \"#utility.yul\":29879:29972   */\n      tag_480\n      jump\t// in\n    tag_752:\n        /* \"#utility.yul\":29997:29999   */\n      0x20\n        /* \"#utility.yul\":29992:29995   */\n      dup3\n        /* \"#utility.yul\":29988:30000   */\n      add\n        /* \"#utility.yul\":29981:30000   */\n      swap1\n      pop\n        /* \"#utility.yul\":29640:30006   */\n      swap2\n      swap1\n      pop\n      jump\t// out\n        /* \"#utility.yul\":30012:30431   */\n    tag_313:\n        /* \"#utility.yul\":30178:30182   */\n      0x00\n        /* \"#utility.yul\":30216:30218   */\n      0x20\n        /* \"#utility.yul\":30205:30214   */\n      dup3\n        /* \"#utility.yul\":30201:30219   */\n      add\n        /* \"#utility.yul\":30193:30219   */\n      swap1\n      pop\n        /* \"#utility.yul\":30265:30274   */\n      dup2\n        /* \"#utility.yul\":30259:30263   */\n      dup2\n        /* \"#utility.yul\":30255:30275   */\n      sub\n        /* \"#utility.yul\":30251:30252   */\n      0x00\n        /* \"#utility.yul\":30240:30249   */\n      dup4\n        /* \"#utility.yul\":30236:30253   */\n      add\n        /* \"#utility.yul\":30229:30276   */\n      mstore\n        /* \"#utility.yul\":30293:30424   */\n      tag_754\n        /* \"#utility.yul\":30419:30423   */\n      dup2\n        /* \"#utility.yul\":30293:30424   */\n      tag_481\n      jump\t// in\n    tag_754:\n        /* \"#utility.yul\":30285:30424   */\n      swap1\n      pop\n        /* \"#utility.yul\":30012:30431   */\n      swap2\n      swap1\n      pop\n      jump\t// out\n        /* \"#utility.yul\":30437:30579   */\n    tag_482:\n        /* \"#utility.yul\":30487:30496   */\n      0x00\n        /* \"#utility.yul\":30520:30573   */\n      tag_756\n        /* \"#utility.yul\":30538:30572   */\n      tag_757\n        /* \"#utility.yul\":30547:30571   */\n      tag_758\n        /* \"#utility.yul\":30565:30570   */\n      dup5\n        /* \"#utility.yul\":30547:30571   */\n      tag_414\n      jump\t// in\n    tag_758:\n        /* \"#utility.yul\":30538:30572   */\n      tag_449\n      jump\t// in\n    tag_757:\n        /* \"#utility.yul\":30520:30573   */\n      tag_414\n      jump\t// in\n    tag_756:\n        /* \"#utility.yul\":30507:30573   */\n      swap1\n      pop\n        /* \"#utility.yul\":30437:30579   */\n      swap2\n      swap1\n      pop\n      jump\t// out\n        /* \"#utility.yul\":30585:30711   */\n    tag_483:\n        /* \"#utility.yul\":30635:30644   */\n      0x00\n        /* \"#utility.yul\":30668:30705   */\n      tag_760\n        /* \"#utility.yul\":30699:30704   */\n      dup3\n        /* \"#utility.yul\":30668:30705   */\n      tag_482\n      jump\t// in\n    tag_760:\n        /* \"#utility.yul\":30655:30705   */\n      swap1\n      pop\n        /* \"#utility.yul\":30585:30711   */\n      swap2\n      swap1\n      pop\n      jump\t// out\n        /* \"#utility.yul\":30717:30851   */\n    tag_484:\n        /* \"#utility.yul\":30775:30784   */\n      0x00\n        /* \"#utility.yul\":30808:30845   */\n      tag_762\n        /* \"#utility.yul\":30839:30844   */\n      dup3\n        /* \"#utility.yul\":30808:30845   */\n      tag_483\n      jump\t// in\n    tag_762:\n        /* \"#utility.yul\":30795:30845   */\n      swap1\n      pop\n        /* \"#utility.yul\":30717:30851   */\n      swap2\n      swap1\n      pop\n      jump\t// out\n        /* \"#utility.yul\":30857:31004   */\n    tag_485:\n        /* \"#utility.yul\":30952:30997   */\n      tag_764\n        /* \"#utility.yul\":30991:30996   */\n      dup2\n        /* \"#utility.yul\":30952:30997   */\n      tag_484\n      jump\t// in\n    tag_764:\n        /* \"#utility.yul\":30947:30950   */\n      dup3\n        /* \"#utility.yul\":30940:30998   */\n      mstore\n        /* \"#utility.yul\":30857:31004   */\n      pop\n      pop\n      jump\t// out\n        /* \"#utility.yul\":31010:31358   */\n    tag_321:\n        /* \"#utility.yul\":31139:31143   */\n      0x00\n        /* \"#utility.yul\":31177:31179   */\n      0x40\n        /* \"#utility.yul\":31166:31175   */\n      dup3\n        /* \"#utility.yul\":31162:31180   */\n      add\n        /* \"#utility.yul\":31154:31180   */\n      swap1\n      pop\n        /* \"#utility.yul\":31190:31269   */\n      tag_766\n        /* \"#utility.yul\":31266:31267   */\n      0x00\n        /* \"#utility.yul\":31255:31264   */\n      dup4\n        /* \"#utility.yul\":31251:31268   */\n      add\n        /* \"#utility.yul\":31242:31248   */\n      dup6\n        /* \"#utility.yul\":31190:31269   */\n      tag_485\n      jump\t// in\n    tag_766:\n        /* \"#utility.yul\":31279:31351   */\n      tag_767\n        /* \"#utility.yul\":31347:31349   */\n      0x20\n        /* \"#utility.yul\":31336:31345   */\n      dup4\n        /* \"#utility.yul\":31332:31350   */\n      add\n        /* \"#utility.yul\":31323:31329   */\n      dup5\n        /* \"#utility.yul\":31279:31351   */\n      tag_410\n      jump\t// in\n    tag_767:\n        /* \"#utility.yul\":31010:31358   */\n      swap4\n      swap3\n      pop\n      pop\n      pop\n      jump\t// out\n        /* \"#utility.yul\":31364:31546   */\n    tag_486:\n        /* \"#utility.yul\":31504:31538   */\n      0x4f776e61626c653a2063616c6c6572206973206e6f7420746865206f776e6572\n        /* \"#utility.yul\":31500:31501   */\n      0x00\n        /* \"#utility.yul\":31492:31498   */\n      dup3\n        /* \"#utility.yul\":31488:31502   */\n      add\n        /* \"#utility.yul\":31481:31539   */\n      mstore\n        /* \"#utility.yul\":31364:31546   */\n      pop\n      jump\t// out\n        /* \"#utility.yul\":31552:31918   */\n    tag_487:\n        /* \"#utility.yul\":31694:31697   */\n      0x00\n        /* \"#utility.yul\":31715:31782   */\n      tag_770\n        /* \"#utility.yul\":31779:31781   */\n      0x20\n        /* \"#utility.yul\":31774:31777   */\n      dup4\n        /* \"#utility.yul\":31715:31782   */\n      tag_435\n      jump\t// in\n    tag_770:\n        /* \"#utility.yul\":31708:31782   */\n      swap2\n      pop\n        /* \"#utility.yul\":31791:31884   */\n      tag_771\n        /* \"#utility.yul\":31880:31883   */\n      dup3\n        /* \"#utility.yul\":31791:31884   */\n      tag_486\n      jump\t// in\n    tag_771:\n        /* \"#utility.yul\":31909:31911   */\n      0x20\n        /* \"#utility.yul\":31904:31907   */\n      dup3\n        /* \"#utility.yul\":31900:31912   */\n      add\n        /* \"#utility.yul\":31893:31912   */\n      swap1\n      pop\n        /* \"#utility.yul\":31552:31918   */\n      swap2\n      swap1\n      pop\n      jump\t// out\n        /* \"#utility.yul\":31924:32343   */\n    tag_328:\n        /* \"#utility.yul\":32090:32094   */\n      0x00\n        /* \"#utility.yul\":32128:32130   */\n      0x20\n        /* \"#utility.yul\":32117:32126   */\n      dup3\n        /* \"#utility.yul\":32113:32131   */\n      add\n        /* \"#utility.yul\":32105:32131   */\n      swap1\n      pop\n        /* \"#utility.yul\":32177:32186   */\n      dup2\n        /* \"#utility.yul\":32171:32175   */\n      dup2\n        /* \"#utility.yul\":32167:32187   */\n      sub\n        /* \"#utility.yul\":32163:32164   */\n      0x00\n        /* \"#utility.yul\":32152:32161   */\n      dup4\n        /* \"#utility.yul\":32148:32165   */\n      add\n        /* \"#utility.yul\":32141:32188   */\n      mstore\n        /* \"#utility.yul\":32205:32336   */\n      tag_773\n        /* \"#utility.yul\":32331:32335   */\n      dup2\n        /* \"#utility.yul\":32205:32336   */\n      tag_487\n      jump\t// in\n    tag_773:\n        /* \"#utility.yul\":32197:32336   */\n      swap1\n      pop\n        /* \"#utility.yul\":31924:32343   */\n      swap2\n      swap1\n      pop\n      jump\t// out\n        /* \"#utility.yul\":32349:32681   */\n    tag_332:\n        /* \"#utility.yul\":32470:32474   */\n      0x00\n        /* \"#utility.yul\":32508:32510   */\n      0x40\n        /* \"#utility.yul\":32497:32506   */\n      dup3\n        /* \"#utility.yul\":32493:32511   */\n      add\n        /* \"#utility.yul\":32485:32511   */\n      swap1\n      pop\n        /* \"#utility.yul\":32521:32592   */\n      tag_775\n        /* \"#utility.yul\":32589:32590   */\n      0x00\n        /* \"#utility.yul\":32578:32587   */\n      dup4\n        /* \"#utility.yul\":32574:32591   */\n      add\n        /* \"#utility.yul\":32565:32571   */\n      dup6\n        /* \"#utility.yul\":32521:32592   */\n      tag_418\n      jump\t// in\n    tag_775:\n        /* \"#utility.yul\":32602:32674   */\n      tag_776\n        /* \"#utility.yul\":32670:32672   */\n      0x20\n        /* \"#utility.yul\":32659:32668   */\n      dup4\n        /* \"#utility.yul\":32655:32673   */\n      add\n        /* \"#utility.yul\":32646:32652   */\n      dup5\n        /* \"#utility.yul\":32602:32674   */\n      tag_410\n      jump\t// in\n    tag_776:\n        /* \"#utility.yul\":32349:32681   */\n      swap4\n      swap3\n      pop\n      pop\n      pop\n      jump\t// out\n        /* \"#utility.yul\":32687:32992   */\n    tag_351:\n        /* \"#utility.yul\":32727:32730   */\n      0x00\n        /* \"#utility.yul\":32746:32766   */\n      tag_778\n        /* \"#utility.yul\":32764:32765   */\n      dup3\n        /* \"#utility.yul\":32746:32766   */\n      tag_409\n      jump\t// in\n    tag_778:\n        /* \"#utility.yul\":32741:32766   */\n      swap2\n      pop\n        /* \"#utility.yul\":32780:32800   */\n      tag_779\n        /* \"#utility.yul\":32798:32799   */\n      dup4\n        /* \"#utility.yul\":32780:32800   */\n      tag_409\n      jump\t// in\n    tag_779:\n        /* \"#utility.yul\":32775:32800   */\n      swap3\n      pop\n        /* \"#utility.yul\":32934:32935   */\n      dup3\n        /* \"#utility.yul\":32866:32932   */\n      0xffffffffffffffffffffffffffffffffffffffffffffffffffffffffffffffff\n        /* \"#utility.yul\":32862:32936   */\n      sub\n        /* \"#utility.yul\":32859:32860   */\n      dup3\n        /* \"#utility.yul\":32856:32937   */\n      gt\n        /* \"#utility.yul\":32853:32960   */\n      iszero\n      tag_780\n      jumpi\n        /* \"#utility.yul\":32940:32958   */\n      tag_781\n      tag_463\n      jump\t// in\n    tag_781:\n        /* \"#utility.yul\":32853:32960   */\n    tag_780:\n        /* \"#utility.yul\":32984:32985   */\n      dup3\n        /* \"#utility.yul\":32981:32982   */\n      dup3\n        /* \"#utility.yul\":32977:32986   */\n      add\n        /* \"#utility.yul\":32970:32986   */\n      swap1\n      pop\n        /* \"#utility.yul\":32687:32992   */\n      swap3\n      swap2\n      pop\n      pop\n      jump\t// out\n        /* \"#utility.yul\":32998:33228   */\n    tag_488:\n        /* \"#utility.yul\":33138:33172   */\n      0x496e697469616c697a61626c653a20636f6e7472616374206973206e6f742069\n        /* \"#utility.yul\":33134:33135   */\n      0x00\n        /* \"#utility.yul\":33126:33132   */\n      dup3\n        /* \"#utility.yul\":33122:33136   */\n      add\n        /* \"#utility.yul\":33115:33173   */\n      mstore\n        /* \"#utility.yul\":33207:33220   */\n      0x6e697469616c697a696e67000000000000000000000000000000000000000000\n        /* \"#utility.yul\":33202:33204   */\n      0x20\n        /* \"#utility.yul\":33194:33200   */\n      dup3\n        /* \"#utility.yul\":33190:33205   */\n      add\n        /* \"#utility.yul\":33183:33221   */\n      mstore\n        /* \"#utility.yul\":32998:33228   */\n      pop\n      jump\t// out\n        /* \"#utility.yul\":33234:33600   */\n    tag_489:\n        /* \"#utility.yul\":33376:33379   */\n      0x00\n        /* \"#utility.yul\":33397:33464   */\n      tag_784\n        /* \"#utility.yul\":33461:33463   */\n      0x2b\n        /* \"#utility.yul\":33456:33459   */\n      dup4\n        /* \"#utility.yul\":33397:33464   */\n      tag_435\n      jump\t// in\n    tag_784:\n        /* \"#utility.yul\":33390:33464   */\n      swap2\n      pop\n        /* \"#utility.yul\":33473:33566   */\n      tag_785\n        /* \"#utility.yul\":33562:33565   */\n      dup3\n        /* \"#utility.yul\":33473:33566   */\n      tag_488\n      jump\t// in\n    tag_785:\n        /* \"#utility.yul\":33591:33593   */\n      0x40\n        /* \"#utility.yul\":33586:33589   */\n      dup3\n        /* \"#utility.yul\":33582:33594   */\n      add\n        /* \"#utility.yul\":33575:33594   */\n      swap1\n      pop\n        /* \"#utility.yul\":33234:33600   */\n      swap2\n      swap1\n      pop\n      jump\t// out\n        /* \"#utility.yul\":33606:34025   */\n    tag_359:\n        /* \"#utility.yul\":33772:33776   */\n      0x00\n        /* \"#utility.yul\":33810:33812   */\n      0x20\n        /* \"#utility.yul\":33799:33808   */\n      dup3\n        /* \"#utility.yul\":33795:33813   */\n      add\n        /* \"#utility.yul\":33787:33813   */\n      swap1\n      pop\n        /* \"#utility.yul\":33859:33868   */\n      dup2\n        /* \"#utility.yul\":33853:33857   */\n      dup2\n        /* \"#utility.yul\":33849:33869   */\n      sub\n        /* \"#utility.yul\":33845:33846   */\n      0x00\n        /* \"#utility.yul\":33834:33843   */\n      dup4\n        /* \"#utility.yul\":33830:33847   */\n      add\n        /* \"#utility.yul\":33823:33870   */\n      mstore\n        /* \"#utility.yul\":33887:34018   */\n      tag_787\n        /* \"#utility.yul\":34013:34017   */\n      dup2\n        /* \"#utility.yul\":33887:34018   */\n      tag_489\n      jump\t// in\n    tag_787:\n        /* \"#utility.yul\":33879:34018   */\n      swap1\n      pop\n        /* \"#utility.yul\":33606:34025   */\n      swap2\n      swap1\n      pop\n      jump\t// out\n        /* \"#utility.yul\":34031:34379   */\n    tag_370:\n        /* \"#utility.yul\":34071:34078   */\n      0x00\n        /* \"#utility.yul\":34094:34114   */\n      tag_789\n        /* \"#utility.yul\":34112:34113   */\n      dup3\n        /* \"#utility.yul\":34094:34114   */\n      tag_409\n      jump\t// in\n    tag_789:\n        /* \"#utility.yul\":34089:34114   */\n      swap2\n      pop\n        /* \"#utility.yul\":34128:34148   */\n      tag_790\n        /* \"#utility.yul\":34146:34147   */\n      dup4\n        /* \"#utility.yul\":34128:34148   */\n      tag_409\n      jump\t// in\n    tag_790:\n        /* \"#utility.yul\":34123:34148   */\n      swap3\n      pop\n        /* \"#utility.yul\":34316:34317   */\n      dup2\n        /* \"#utility.yul\":34248:34314   */\n      0xffffffffffffffffffffffffffffffffffffffffffffffffffffffffffffffff\n        /* \"#utility.yul\":34244:34318   */\n      div\n        /* \"#utility.yul\":34241:34242   */\n      dup4\n        /* \"#utility.yul\":34238:34319   */\n      gt\n        /* \"#utility.yul\":34233:34234   */\n      dup3\n        /* \"#utility.yul\":34226:34235   */\n      iszero\n        /* \"#utility.yul\":34219:34236   */\n      iszero\n        /* \"#utility.yul\":34215:34320   */\n      and\n        /* \"#utility.yul\":34212:34343   */\n      iszero\n      tag_791\n      jumpi\n        /* \"#utility.yul\":34323:34341   */\n      tag_792\n      tag_463\n      jump\t// in\n    tag_792:\n        /* \"#utility.yul\":34212:34343   */\n    tag_791:\n        /* \"#utility.yul\":34371:34372   */\n      dup3\n        /* \"#utility.yul\":34368:34369   */\n      dup3\n        /* \"#utility.yul\":34364:34373   */\n      mul\n        /* \"#utility.yul\":34353:34373   */\n      swap1\n      pop\n        /* \"#utility.yul\":34031:34379   */\n      swap3\n      swap2\n      pop\n      pop\n      jump\t// out\n        /* \"#utility.yul\":34385:34565   */\n    tag_490:\n        /* \"#utility.yul\":34433:34510   */\n      0x4e487b7100000000000000000000000000000000000000000000000000000000\n        /* \"#utility.yul\":34430:34431   */\n      0x00\n        /* \"#utility.yul\":34423:34511   */\n      mstore\n        /* \"#utility.yul\":34530:34534   */\n      0x12\n        /* \"#utility.yul\":34527:34528   */\n      0x04\n        /* \"#utility.yul\":34520:34535   */\n      mstore\n        /* \"#utility.yul\":34554:34558   */\n      0x24\n        /* \"#utility.yul\":34551:34552   */\n      0x00\n        /* \"#utility.yul\":34544:34559   */\n      revert\n        /* \"#utility.yul\":34571:34756   */\n    tag_373:\n        /* \"#utility.yul\":34611:34612   */\n      0x00\n        /* \"#utility.yul\":34628:34648   */\n      tag_795\n        /* \"#utility.yul\":34646:34647   */\n      dup3\n        /* \"#utility.yul\":34628:34648   */\n      tag_409\n      jump\t// in\n    tag_795:\n        /* \"#utility.yul\":34623:34648   */\n      swap2\n      pop\n        /* \"#utility.yul\":34662:34682   */\n      tag_796\n        /* \"#utility.yul\":34680:34681   */\n      dup4\n        /* \"#utility.yul\":34662:34682   */\n      tag_409\n      jump\t// in\n    tag_796:\n        /* \"#utility.yul\":34657:34682   */\n      swap3\n      pop\n        /* \"#utility.yul\":34701:34702   */\n      dup3\n        /* \"#utility.yul\":34691:34726   */\n      tag_797\n      jumpi\n        /* \"#utility.yul\":34706:34724   */\n      tag_798\n      tag_490\n      jump\t// in\n    tag_798:\n        /* \"#utility.yul\":34691:34726   */\n    tag_797:\n        /* \"#utility.yul\":34748:34749   */\n      dup3\n        /* \"#utility.yul\":34745:34746   */\n      dup3\n        /* \"#utility.yul\":34741:34750   */\n      div\n        /* \"#utility.yul\":34736:34750   */\n      swap1\n      pop\n        /* \"#utility.yul\":34571:34756   */\n      swap3\n      swap2\n      pop\n      pop\n      jump\t// out\n        /* \"#utility.yul\":34762:34899   */\n    tag_491:\n        /* \"#utility.yul\":34816:34821   */\n      0x00\n        /* \"#utility.yul\":34847:34853   */\n      dup2\n        /* \"#utility.yul\":34841:34854   */\n      mload\n        /* \"#utility.yul\":34832:34854   */\n      swap1\n      pop\n        /* \"#utility.yul\":34863:34893   */\n      tag_800\n        /* \"#utility.yul\":34887:34892   */\n      dup2\n        /* \"#utility.yul\":34863:34893   */\n      tag_428\n      jump\t// in\n    tag_800:\n        /* \"#utility.yul\":34762:34899   */\n      swap3\n      swap2\n      pop\n      pop\n      jump\t// out\n        /* \"#utility.yul\":34905:35250   */\n    tag_380:\n        /* \"#utility.yul\":34972:34978   */\n      0x00\n        /* \"#utility.yul\":35021:35023   */\n      0x20\n        /* \"#utility.yul\":35009:35018   */\n      dup3\n        /* \"#utility.yul\":35000:35007   */\n      dup5\n        /* \"#utility.yul\":34996:35019   */\n      sub\n        /* \"#utility.yul\":34992:35024   */\n      slt\n        /* \"#utility.yul\":34989:35108   */\n      iszero\n      tag_802\n      jumpi\n        /* \"#utility.yul\":35027:35106   */\n      tag_803\n      tag_412\n      jump\t// in\n    tag_803:\n        /* \"#utility.yul\":34989:35108   */\n    tag_802:\n        /* \"#utility.yul\":35147:35148   */\n      0x00\n        /* \"#utility.yul\":35172:35233   */\n      tag_804\n        /* \"#utility.yul\":35225:35232   */\n      dup5\n        /* \"#utility.yul\":35216:35222   */\n      dup3\n        /* \"#utility.yul\":35205:35214   */\n      dup6\n        /* \"#utility.yul\":35201:35223   */\n      add\n        /* \"#utility.yul\":35172:35233   */\n      tag_491\n      jump\t// in\n    tag_804:\n        /* \"#utility.yul\":35162:35233   */\n      swap2\n      pop\n        /* \"#utility.yul\":35118:35243   */\n      pop\n        /* \"#utility.yul\":34905:35250   */\n      swap3\n      swap2\n      pop\n      pop\n      jump\t// out\n        /* \"#utility.yul\":35256:35485   */\n    tag_492:\n        /* \"#utility.yul\":35396:35430   */\n      0x5361666545524332303a204552433230206f7065726174696f6e20646964206e\n        /* \"#utility.yul\":35392:35393   */\n      0x00\n        /* \"#utility.yul\":35384:35390   */\n      dup3\n        /* \"#utility.yul\":35380:35394   */\n      add\n        /* \"#utility.yul\":35373:35431   */\n      mstore\n        /* \"#utility.yul\":35465:35477   */\n      0x6f74207375636365656400000000000000000000000000000000000000000000\n        /* \"#utility.yul\":35460:35462   */\n      0x20\n        /* \"#utility.yul\":35452:35458   */\n      dup3\n        /* \"#utility.yul\":35448:35463   */\n      add\n        /* \"#utility.yul\":35441:35478   */\n      mstore\n        /* \"#utility.yul\":35256:35485   */\n      pop\n      jump\t// out\n        /* \"#utility.yul\":35491:35857   */\n    tag_493:\n        /* \"#utility.yul\":35633:35636   */\n      0x00\n        /* \"#utility.yul\":35654:35721   */\n      tag_807\n        /* \"#utility.yul\":35718:35720   */\n      0x2a\n        /* \"#utility.yul\":35713:35716   */\n      dup4\n        /* \"#utility.yul\":35654:35721   */\n      tag_435\n      jump\t// in\n    tag_807:\n        /* \"#utility.yul\":35647:35721   */\n      swap2\n      pop\n        /* \"#utility.yul\":35730:35823   */\n      tag_808\n        /* \"#utility.yul\":35819:35822   */\n      dup3\n        /* \"#utility.yul\":35730:35823   */\n      tag_492\n      jump\t// in\n    tag_808:\n        /* \"#utility.yul\":35848:35850   */\n      0x40\n        /* \"#utility.yul\":35843:35846   */\n      dup3\n        /* \"#utility.yul\":35839:35851   */\n      add\n        /* \"#utility.yul\":35832:35851   */\n      swap1\n      pop\n        /* \"#utility.yul\":35491:35857   */\n      swap2\n      swap1\n      pop\n      jump\t// out\n        /* \"#utility.yul\":35863:36282   */\n    tag_383:\n        /* \"#utility.yul\":36029:36033   */\n      0x00\n        /* \"#utility.yul\":36067:36069   */\n      0x20\n        /* \"#utility.yul\":36056:36065   */\n      dup3\n        /* \"#utility.yul\":36052:36070   */\n      add\n        /* \"#utility.yul\":36044:36070   */\n      swap1\n      pop\n        /* \"#utility.yul\":36116:36125   */\n      dup2\n        /* \"#utility.yul\":36110:36114   */\n      dup2\n        /* \"#utility.yul\":36106:36126   */\n      sub\n        /* \"#utility.yul\":36102:36103   */\n      0x00\n        /* \"#utility.yul\":36091:36100   */\n      dup4\n        /* \"#utility.yul\":36087:36104   */\n      add\n        /* \"#utility.yul\":36080:36127   */\n      mstore\n        /* \"#utility.yul\":36144:36275   */\n      tag_810\n        /* \"#utility.yul\":36270:36274   */\n      dup2\n        /* \"#utility.yul\":36144:36275   */\n      tag_493\n      jump\t// in\n    tag_810:\n        /* \"#utility.yul\":36136:36275   */\n      swap1\n      pop\n        /* \"#utility.yul\":35863:36282   */\n      swap2\n      swap1\n      pop\n      jump\t// out\n        /* \"#utility.yul\":36288:36513   */\n    tag_494:\n        /* \"#utility.yul\":36428:36462   */\n      0x416464726573733a20696e73756666696369656e742062616c616e636520666f\n        /* \"#utility.yul\":36424:36425   */\n      0x00\n        /* \"#utility.yul\":36416:36422   */\n      dup3\n        /* \"#utility.yul\":36412:36426   */\n      add\n        /* \"#utility.yul\":36405:36463   */\n      mstore\n        /* \"#utility.yul\":36497:36505   */\n      0x722063616c6c0000000000000000000000000000000000000000000000000000\n        /* \"#utility.yul\":36492:36494   */\n      0x20\n        /* \"#utility.yul\":36484:36490   */\n      dup3\n        /* \"#utility.yul\":36480:36495   */\n      add\n        /* \"#utility.yul\":36473:36506   */\n      mstore\n        /* \"#utility.yul\":36288:36513   */\n      pop\n      jump\t// out\n        /* \"#utility.yul\":36519:36885   */\n    tag_495:\n        /* \"#utility.yul\":36661:36664   */\n      0x00\n        /* \"#utility.yul\":36682:36749   */\n      tag_813\n        /* \"#utility.yul\":36746:36748   */\n      0x26\n        /* \"#utility.yul\":36741:36744   */\n      dup4\n        /* \"#utility.yul\":36682:36749   */\n      tag_435\n      jump\t// in\n    tag_813:\n        /* \"#utility.yul\":36675:36749   */\n      swap2\n      pop\n        /* \"#utility.yul\":36758:36851   */\n      tag_814\n        /* \"#utility.yul\":36847:36850   */\n      dup3\n        /* \"#utility.yul\":36758:36851   */\n      tag_494\n      jump\t// in\n    tag_814:\n        /* \"#utility.yul\":36876:36878   */\n      0x40\n        /* \"#utility.yul\":36871:36874   */\n      dup3\n        /* \"#utility.yul\":36867:36879   */\n      add\n        /* \"#utility.yul\":36860:36879   */\n      swap1\n      pop\n        /* \"#utility.yul\":36519:36885   */\n      swap2\n      swap1\n      pop\n      jump\t// out\n        /* \"#utility.yul\":36891:37310   */\n    tag_390:\n        /* \"#utility.yul\":37057:37061   */\n      0x00\n        /* \"#utility.yul\":37095:37097   */\n      0x20\n        /* \"#utility.yul\":37084:37093   */\n      dup3\n        /* \"#utility.yul\":37080:37098   */\n      add\n        /* \"#utility.yul\":37072:37098   */\n      swap1\n      pop\n        /* \"#utility.yul\":37144:37153   */\n      dup2\n        /* \"#utility.yul\":37138:37142   */\n      dup2\n        /* \"#utility.yul\":37134:37154   */\n      sub\n        /* \"#utility.yul\":37130:37131   */\n      0x00\n        /* \"#utility.yul\":37119:37128   */\n      dup4\n        /* \"#utility.yul\":37115:37132   */\n      add\n        /* \"#utility.yul\":37108:37155   */\n      mstore\n        /* \"#utility.yul\":37172:37303   */\n      tag_816\n        /* \"#utility.yul\":37298:37302   */\n      dup2\n        /* \"#utility.yul\":37172:37303   */\n      tag_495\n      jump\t// in\n    tag_816:\n        /* \"#utility.yul\":37164:37303   */\n      swap1\n      pop\n        /* \"#utility.yul\":36891:37310   */\n      swap2\n      swap1\n      pop\n      jump\t// out\n        /* \"#utility.yul\":37316:37495   */\n    tag_496:\n        /* \"#utility.yul\":37456:37487   */\n      0x416464726573733a2063616c6c20746f206e6f6e2d636f6e7472616374000000\n        /* \"#utility.yul\":37452:37453   */\n      0x00\n        /* \"#utility.yul\":37444:37450   */\n      dup3\n        /* \"#utility.yul\":37440:37454   */\n      add\n        /* \"#utility.yul\":37433:37488   */\n      mstore\n        /* \"#utility.yul\":37316:37495   */\n      pop\n      jump\t// out\n        /* \"#utility.yul\":37501:37867   */\n    tag_497:\n        /* \"#utility.yul\":37643:37646   */\n      0x00\n        /* \"#utility.yul\":37664:37731   */\n      tag_819\n        /* \"#utility.yul\":37728:37730   */\n      0x1d\n        /* \"#utility.yul\":37723:37726   */\n      dup4\n        /* \"#utility.yul\":37664:37731   */\n      tag_435\n      jump\t// in\n    tag_819:\n        /* \"#utility.yul\":37657:37731   */\n      swap2\n      pop\n        /* \"#utility.yul\":37740:37833   */\n      tag_820\n        /* \"#utility.yul\":37829:37832   */\n      dup3\n        /* \"#utility.yul\":37740:37833   */\n      tag_496\n      jump\t// in\n    tag_820:\n        /* \"#utility.yul\":37858:37860   */\n      0x20\n        /* \"#utility.yul\":37853:37856   */\n      dup3\n        /* \"#utility.yul\":37849:37861   */\n      add\n        /* \"#utility.yul\":37842:37861   */\n      swap1\n      pop\n        /* \"#utility.yul\":37501:37867   */\n      swap2\n      swap1\n      pop\n      jump\t// out\n        /* \"#utility.yul\":37873:38292   */\n    tag_394:\n        /* \"#utility.yul\":38039:38043   */\n      0x00\n        /* \"#utility.yul\":38077:38079   */\n      0x20\n        /* \"#utility.yul\":38066:38075   */\n      dup3\n        /* \"#utility.yul\":38062:38080   */\n      add\n        /* \"#utility.yul\":38054:38080   */\n      swap1\n      pop\n        /* \"#utility.yul\":38126:38135   */\n      dup2\n        /* \"#utility.yul\":38120:38124   */\n      dup2\n        /* \"#utility.yul\":38116:38136   */\n      sub\n        /* \"#utility.yul\":38112:38113   */\n      0x00\n        /* \"#utility.yul\":38101:38110   */\n      dup4\n        /* \"#utility.yul\":38097:38114   */\n      add\n        /* \"#utility.yul\":38090:38137   */\n      mstore\n        /* \"#utility.yul\":38154:38285   */\n      tag_822\n        /* \"#utility.yul\":38280:38284   */\n      dup2\n        /* \"#utility.yul\":38154:38285   */\n      tag_497\n      jump\t// in\n    tag_822:\n        /* \"#utility.yul\":38146:38285   */\n      swap1\n      pop\n        /* \"#utility.yul\":37873:38292   */\n      swap2\n      swap1\n      pop\n      jump\t// out\n        /* \"#utility.yul\":38298:38396   */\n    tag_498:\n        /* \"#utility.yul\":38349:38355   */\n      0x00\n        /* \"#utility.yul\":38383:38388   */\n      dup2\n        /* \"#utility.yul\":38377:38389   */\n      mload\n        /* \"#utility.yul\":38367:38389   */\n      swap1\n      pop\n        /* \"#utility.yul\":38298:38396   */\n      swap2\n      swap1\n      pop\n      jump\t// out\n        /* \"#utility.yul\":38402:38549   */\n    tag_499:\n        /* \"#utility.yul\":38503:38514   */\n      0x00\n        /* \"#utility.yul\":38540:38543   */\n      dup2\n        /* \"#utility.yul\":38525:38543   */\n      swap1\n      pop\n        /* \"#utility.yul\":38402:38549   */\n      swap3\n      swap2\n      pop\n      pop\n      jump\t// out\n        /* \"#utility.yul\":38555:38862   */\n    tag_500:\n        /* \"#utility.yul\":38623:38624   */\n      0x00\n        /* \"#utility.yul\":38633:38746   */\n    tag_826:\n        /* \"#utility.yul\":38647:38653   */\n      dup4\n        /* \"#utility.yul\":38644:38645   */\n      dup2\n        /* \"#utility.yul\":38641:38654   */\n      lt\n        /* \"#utility.yul\":38633:38746   */\n      iszero\n      tag_828\n      jumpi\n        /* \"#utility.yul\":38732:38733   */\n      dup1\n        /* \"#utility.yul\":38727:38730   */\n      dup3\n        /* \"#utility.yul\":38723:38734   */\n      add\n        /* \"#utility.yul\":38717:38735   */\n      mload\n        /* \"#utility.yul\":38713:38714   */\n      dup2\n        /* \"#utility.yul\":38708:38711   */\n      dup5\n        /* \"#utility.yul\":38704:38715   */\n      add\n        /* \"#utility.yul\":38697:38736   */\n      mstore\n        /* \"#utility.yul\":38669:38671   */\n      0x20\n        /* \"#utility.yul\":38666:38667   */\n      dup2\n        /* \"#utility.yul\":38662:38672   */\n      add\n        /* \"#utility.yul\":38657:38672   */\n      swap1\n      pop\n        /* \"#utility.yul\":38633:38746   */\n      jump(tag_826)\n    tag_828:\n        /* \"#utility.yul\":38764:38770   */\n      dup4\n        /* \"#utility.yul\":38761:38762   */\n      dup2\n        /* \"#utility.yul\":38758:38771   */\n      gt\n        /* \"#utility.yul\":38755:38856   */\n      iszero\n      tag_829\n      jumpi\n        /* \"#utility.yul\":38844:38845   */\n      0x00\n        /* \"#utility.yul\":38835:38841   */\n      dup5\n        /* \"#utility.yul\":38830:38833   */\n      dup5\n        /* \"#utility.yul\":38826:38842   */\n      add\n        /* \"#utility.yul\":38819:38846   */\n      mstore\n        /* \"#utility.yul\":38755:38856   */\n    tag_829:\n        /* \"#utility.yul\":38604:38862   */\n      pop\n        /* \"#utility.yul\":38555:38862   */\n      pop\n      pop\n      pop\n      jump\t// out\n        /* \"#utility.yul\":38868:39241   */\n    tag_501:\n        /* \"#utility.yul\":38972:38975   */\n      0x00\n        /* \"#utility.yul\":39000:39038   */\n      tag_831\n        /* \"#utility.yul\":39032:39037   */\n      dup3\n        /* \"#utility.yul\":39000:39038   */\n      tag_498\n      jump\t// in\n    tag_831:\n        /* \"#utility.yul\":39054:39142   */\n      tag_832\n        /* \"#utility.yul\":39135:39141   */\n      dup2\n        /* \"#utility.yul\":39130:39133   */\n      dup6\n        /* \"#utility.yul\":39054:39142   */\n      tag_499\n      jump\t// in\n    tag_832:\n        /* \"#utility.yul\":39047:39142   */\n      swap4\n      pop\n        /* \"#utility.yul\":39151:39203   */\n      tag_833\n        /* \"#utility.yul\":39196:39202   */\n      dup2\n        /* \"#utility.yul\":39191:39194   */\n      dup6\n        /* \"#utility.yul\":39184:39188   */\n      0x20\n        /* \"#utility.yul\":39177:39182   */\n      dup7\n        /* \"#utility.yul\":39173:39189   */\n      add\n        /* \"#utility.yul\":39151:39203   */\n      tag_500\n      jump\t// in\n    tag_833:\n        /* \"#utility.yul\":39228:39234   */\n      dup1\n        /* \"#utility.yul\":39223:39226   */\n      dup5\n        /* \"#utility.yul\":39219:39235   */\n      add\n        /* \"#utility.yul\":39212:39235   */\n      swap2\n      pop\n        /* \"#utility.yul\":38976:39241   */\n      pop\n        /* \"#utility.yul\":38868:39241   */\n      swap3\n      swap2\n      pop\n      pop\n      jump\t// out\n        /* \"#utility.yul\":39247:39518   */\n    tag_396:\n        /* \"#utility.yul\":39377:39380   */\n      0x00\n        /* \"#utility.yul\":39399:39492   */\n      tag_835\n        /* \"#utility.yul\":39488:39491   */\n      dup3\n        /* \"#utility.yul\":39479:39485   */\n      dup5\n        /* \"#utility.yul\":39399:39492   */\n      tag_501\n      jump\t// in\n    tag_835:\n        /* \"#utility.yul\":39392:39492   */\n      swap2\n      pop\n        /* \"#utility.yul\":39509:39512   */\n      dup2\n        /* \"#utility.yul\":39502:39512   */\n      swap1\n      pop\n        /* \"#utility.yul\":39247:39518   */\n      swap3\n      swap2\n      pop\n      pop\n      jump\t// out\n        /* \"#utility.yul\":39524:39623   */\n    tag_502:\n        /* \"#utility.yul\":39576:39582   */\n      0x00\n        /* \"#utility.yul\":39610:39615   */\n      dup2\n        /* \"#utility.yul\":39604:39616   */\n      mload\n        /* \"#utility.yul\":39594:39616   */\n      swap1\n      pop\n        /* \"#utility.yul\":39524:39623   */\n      swap2\n      swap1\n      pop\n      jump\t// out\n        /* \"#utility.yul\":39629:39731   */\n    tag_503:\n        /* \"#utility.yul\":39670:39676   */\n      0x00\n        /* \"#utility.yul\":39721:39723   */\n      0x1f\n        /* \"#utility.yul\":39717:39724   */\n      not\n        /* \"#utility.yul\":39712:39714   */\n      0x1f\n        /* \"#utility.yul\":39705:39710   */\n      dup4\n        /* \"#utility.yul\":39701:39715   */\n      add\n        /* \"#utility.yul\":39697:39725   */\n      and\n        /* \"#utility.yul\":39687:39725   */\n      swap1\n      pop\n        /* \"#utility.yul\":39629:39731   */\n      swap2\n      swap1\n      pop\n      jump\t// out\n        /* \"#utility.yul\":39737:40101   */\n    tag_504:\n        /* \"#utility.yul\":39825:39828   */\n      0x00\n        /* \"#utility.yul\":39853:39892   */\n      tag_839\n        /* \"#utility.yul\":39886:39891   */\n      dup3\n        /* \"#utility.yul\":39853:39892   */\n      tag_502\n      jump\t// in\n    tag_839:\n        /* \"#utility.yul\":39908:39979   */\n      tag_840\n        /* \"#utility.yul\":39972:39978   */\n      dup2\n        /* \"#utility.yul\":39967:39970   */\n      dup6\n        /* \"#utility.yul\":39908:39979   */\n      tag_435\n      jump\t// in\n    tag_840:\n        /* \"#utility.yul\":39901:39979   */\n      swap4\n      pop\n        /* \"#utility.yul\":39988:40040   */\n      tag_841\n        /* \"#utility.yul\":40033:40039   */\n      dup2\n        /* \"#utility.yul\":40028:40031   */\n      dup6\n        /* \"#utility.yul\":40021:40025   */\n      0x20\n        /* \"#utility.yul\":40014:40019   */\n      dup7\n        /* \"#utility.yul\":40010:40026   */\n      add\n        /* \"#utility.yul\":39988:40040   */\n      tag_500\n      jump\t// in\n    tag_841:\n        /* \"#utility.yul\":40065:40094   */\n      tag_842\n        /* \"#utility.yul\":40087:40093   */\n      dup2\n        /* \"#utility.yul\":40065:40094   */\n      tag_503\n      jump\t// in\n    tag_842:\n        /* \"#utility.yul\":40060:40063   */\n      dup5\n        /* \"#utility.yul\":40056:40095   */\n      add\n        /* \"#utility.yul\":40049:40095   */\n      swap2\n      pop\n        /* \"#utility.yul\":39829:40101   */\n      pop\n        /* \"#utility.yul\":39737:40101   */\n      swap3\n      swap2\n      pop\n      pop\n      jump\t// out\n        /* \"#utility.yul\":40107:40420   */\n    tag_408:\n        /* \"#utility.yul\":40220:40224   */\n      0x00\n        /* \"#utility.yul\":40258:40260   */\n      0x20\n        /* \"#utility.yul\":40247:40256   */\n      dup3\n        /* \"#utility.yul\":40243:40261   */\n      add\n        /* \"#utility.yul\":40235:40261   */\n      swap1\n      pop\n        /* \"#utility.yul\":40307:40316   */\n      dup2\n        /* \"#utility.yul\":40301:40305   */\n      dup2\n        /* \"#utility.yul\":40297:40317   */\n      sub\n        /* \"#utility.yul\":40293:40294   */\n      0x00\n        /* \"#utility.yul\":40282:40291   */\n      dup4\n        /* \"#utility.yul\":40278:40295   */\n      add\n        /* \"#utility.yul\":40271:40318   */\n      mstore\n        /* \"#utility.yul\":40335:40413   */\n      tag_844\n        /* \"#utility.yul\":40408:40412   */\n      dup2\n        /* \"#utility.yul\":40399:40405   */\n      dup5\n        /* \"#utility.yul\":40335:40413   */\n      tag_504\n      jump\t// in\n    tag_844:\n        /* \"#utility.yul\":40327:40413   */\n      swap1\n      pop\n        /* \"#utility.yul\":40107:40420   */\n      swap3\n      swap2\n      pop\n      pop\n      jump\t// out\n\n    auxdata: 0xa2646970667358221220f8e0bc3ec5dd42818330d9b039749faec0e20dcd3e7cf1f9691e72b89bff003a64736f6c63430008090033\n}\n",
				"bytecode": {
					"linkReferences": {},
					"object": "608060405234801561001057600080fd5b50613c58806100206000396000f3fe608060405234801561001057600080fd5b506004361061018e5760003560e01c80638af104da116100de578063d31b080911610097578063f51321d711610071578063f51321d714610471578063f7c469f0146104a1578063f9079b37146104d1578063f9299dd9146105015761018e565b8063d31b080914610407578063ea1bb3d514610425578063f2fde38b146104555761018e565b80638af104da146103315780638da5cb5b1461036157806390be10cc1461037f5780639a160a1b1461039d5780639ef346b4146103bb578063b75c7dc6146103eb5761018e565b806348deb4711161014b578063715018a611610125578063715018a6146102bf5780637a1ac61e146102c95780637df8df92146102e55780637e913dc6146103015761018e565b806348deb471146102555780635a7bb69a1461027357806366afd8ef146102a35761018e565b806313083617146101935780631f35bc40146101b157806321df0da7146101cd5780632e1a7d4d146101eb57806335ef33f3146102075780634727d39414610237575b600080fd5b61019b61051d565b6040516101a891906126d8565b60405180910390f35b6101cb60048036038101906101c69190612756565b61052a565b005b6101d561056e565b6040516101e29190612792565b60405180910390f35b610205600480360381019061020091906127d9565b610598565b005b610221600480360381019061021c919061283c565b61070d565b60405161022e91906126d8565b60405180910390f35b61023f610725565b60405161024c91906126d8565b60405180910390f35b61025d61072b565b60405161026a91906126d8565b60405180910390f35b61028d60048036038101906102889190612756565b610735565b60405161029a91906126d8565b60405180910390f35b6102bd60048036038101906102b89190612869565b61077e565b005b6102c7610b41565b005b6102e360048036038101906102de91906128e7565b610b55565b005b6102ff60048036038101906102fa9190612972565b610d27565b005b61031b60048036038101906103169190612756565b6112e7565b6040516103289190612b36565b60405180910390f35b61034b60048036038101906103469190612b52565b611467565b6040516103589190612ba1565b60405180910390f35b61036961149a565b6040516103769190612792565b60405180910390f35b6103876114c4565b60405161039491906126d8565b60405180910390f35b6103a561158a565b6040516103b291906126d8565b60405180910390f35b6103d560048036038101906103d0919061283c565b611590565b6040516103e29190612b36565b60405180910390f35b6104056004803603810190610400919061283c565b6116bc565b005b61040f611925565b60405161041c9190612792565b60405180910390f35b61043f600480360381019061043a919061283c565b61194b565b60405161044c91906126d8565b60405180910390f35b61046f600480360381019061046a9190612756565b611ae9565b005b61048b60048036038101906104869190612b52565b611b6d565b6040516104989190612b36565b60405180910390f35b6104bb60048036038101906104b69190612756565b611b8f565b6040516104c89190612ba1565b60405180910390f35b6104eb60048036038101906104e691906127d9565b611be1565b6040516104f89190612ba1565b60405180910390f35b61051b6004803603810190610516919061283c565b611c52565b005b6000609a80549050905090565b80609f60006101000a81548173ffffffffffffffffffffffffffffffffffffffff021916908373ffffffffffffffffffffffffffffffffffffffff16021790555050565b6000609760009054906101000a900473ffffffffffffffffffffffffffffffffffffffff16905090565b600260655414156105de576040517f08c379a00000000000000000000000000000000000000000000000000000000081526004016105d590612c19565b60405180910390fd5b60026065819055506105ee611fb6565b803073ffffffffffffffffffffffffffffffffffffffff166390be10cc6040518163ffffffff1660e01b815260040160206040518083038186803b15801561063557600080fd5b505afa158015610649573d6000803e3d6000fd5b505050506040513d601f19601f8201168201806040525081019061066d9190612c4e565b10156106ae576040517f08c379a00000000000000000000000000000000000000000000000000000000081526004016106a590612ced565b60405180910390fd5b6107026106b961149a565b82609760009054906101000a900473ffffffffffffffffffffffffffffffffffffffff1673ffffffffffffffffffffffffffffffffffffffff166120349092919063ffffffff16565b600160658190555050565b609e6020528060005260406000206000915090505481565b60995481565b6000609c54905090565b6000609d60008373ffffffffffffffffffffffffffffffffffffffff1673ffffffffffffffffffffffffffffffffffffffff168152602001908152602001600020549050919050565b600260655414156107c4576040517f08c379a00000000000000000000000000000000000000000000000000000000081526004016107bb90612c19565b60405180910390fd5b60026065819055508160011515609b600083815260200190815260200160002060000160009054906101000a900460ff1615151461080157600080fd5b60001515609b600083815260200190815260200160002060080160009054906101000a900460ff1615151461083557600080fd5b6000609b6000858152602001908152602001600020905060008160000160019054906101000a900473ffffffffffffffffffffffffffffffffffffffff1673ffffffffffffffffffffffffffffffffffffffff163373ffffffffffffffffffffffffffffffffffffffff1614905060006108ad61149a565b73ffffffffffffffffffffffffffffffffffffffff163373ffffffffffffffffffffffffffffffffffffffff1614905081806108e65750805b610925576040517f08c379a000000000000000000000000000000000000000000000000000000000815260040161091c90612da5565b60405180910390fd5b6000610a3a84604051806101600160405290816000820160009054906101000a900460ff161515151581526020016000820160019054906101000a900473ffffffffffffffffffffffffffffffffffffffff1673ffffffffffffffffffffffffffffffffffffffff1673ffffffffffffffffffffffffffffffffffffffff168152602001600182015481526020016002820154815260200160038201548152602001600482015481526020016005820160009054906101000a900460ff1615151515815260200160068201548152602001600782015481526020016008820160009054906101000a900460ff161515151581526020016008820160019054906101000a900460ff1615151515815250506120ba565b905085811015610a7f576040517f08c379a0000000000000000000000000000000000000000000000000000000008152600401610a7690612e37565b60405180910390fd5b610a968685600701546121e290919063ffffffff16565b846007018190555060008460000160019054906101000a900473ffffffffffffffffffffffffffffffffffffffff169050610adc87609c546121f890919063ffffffff16565b609c81905550610b2f8188609760009054906101000a900473ffffffffffffffffffffffffffffffffffffffff1673ffffffffffffffffffffffffffffffffffffffff166120349092919063ffffffff16565b50505050505060016065819055505050565b610b49611fb6565b610b53600061220e565b565b60008060019054906101000a900460ff16159050808015610b865750600160008054906101000a900460ff1660ff16105b80610bb35750610b95306122d4565b158015610bb25750600160008054906101000a900460ff1660ff16145b5b610bf2576040517f08c379a0000000000000000000000000000000000000000000000000000000008152600401610be990612ec9565b60405180910390fd5b60016000806101000a81548160ff021916908360ff1602179055508015610c2f576001600060016101000a81548160ff0219169083151502179055505b600073ffffffffffffffffffffffffffffffffffffffff168473ffffffffffffffffffffffffffffffffffffffff161415610c6957600080fd5b610c716122f7565b610c79612358565b83609760006101000a81548173ffffffffffffffffffffffffffffffffffffffff021916908373ffffffffffffffffffffffffffffffffffffffff16021790555081609981905550826098819055508015610d215760008060016101000a81548160ff0219169083151502179055507f7f26b83ff96e1f2b6a682f133852f6798a09c465da95921460cefb38474024986001604051610d189190612f3b565b60405180910390a15b50505050565b609f60009054906101000a900473ffffffffffffffffffffffffffffffffffffffff1673ffffffffffffffffffffffffffffffffffffffff163373ffffffffffffffffffffffffffffffffffffffff161480610db55750610d8661149a565b73ffffffffffffffffffffffffffffffffffffffff163373ffffffffffffffffffffffffffffffffffffffff16145b610df4576040517f08c379a0000000000000000000000000000000000000000000000000000000008152600401610deb90612fa2565b60405180910390fd5b813073ffffffffffffffffffffffffffffffffffffffff166390be10cc6040518163ffffffff1660e01b815260040160206040518083038186803b158015610e3b57600080fd5b505afa158015610e4f573d6000803e3d6000fd5b505050506040513d601f19601f82011682018060405250810190610e739190612c4e565b1015610eb4576040517f08c379a0000000000000000000000000000000000000000000000000000000008152600401610eab9061305a565b60405180910390fd5b60008511610ef7576040517f08c379a0000000000000000000000000000000000000000000000000000000008152600401610eee906130ec565b60405180910390fd5b60008211610f3a576040517f08c379a0000000000000000000000000000000000000000000000000000000008152600401610f3190613158565b60405180910390fd5b6001841015610f7e576040517f08c379a0000000000000000000000000000000000000000000000000000000008152600401610f75906131ea565b60405180910390fd5b60003073ffffffffffffffffffffffffffffffffffffffff1663f7c469f08a6040518263ffffffff1660e01b8152600401610fb99190612792565b60206040518083038186803b158015610fd157600080fd5b505afa158015610fe5573d6000803e3d6000fd5b505050506040513d601f19601f82011682018060405250810190611009919061321f565b90506000611020888a6121e290919063ffffffff16565b90506040518061016001604052806001151581526020018b73ffffffffffffffffffffffffffffffffffffffff1681526020018281526020018a8152602001888152602001878152602001861515815260200185815260200160008152602001600015158152602001841515815250609b600084815260200190815260200160002060008201518160000160006101000a81548160ff02191690831515021790555060208201518160000160016101000a81548173ffffffffffffffffffffffffffffffffffffffff021916908373ffffffffffffffffffffffffffffffffffffffff16021790555060408201518160010155606082015181600201556080820151816003015560a0820151816004015560c08201518160050160006101000a81548160ff02191690831515021790555060e0820151816006015561010082015181600701556101208201518160080160006101000a81548160ff0219169083151502179055506101408201518160080160016101000a81548160ff0219169083151502179055509050506111c084609c546121e290919063ffffffff16565b609c81905550609a8290806001815401808255809150506001900390600052602060002001600090919091909150556000609d60008c73ffffffffffffffffffffffffffffffffffffffff1673ffffffffffffffffffffffffffffffffffffffff1681526020019081526020016000205490506112476001826121e290919063ffffffff16565b609d60008d73ffffffffffffffffffffffffffffffffffffffff1673ffffffffffffffffffffffffffffffffffffffff168152602001908152602001600020819055506000609e6000858152602001908152602001600020819055507f7deecc243dec36156ece079ae8e71cb3f5b8a86d4ee141e3733216e23614e0c3836040516112d29190612ba1565b60405180910390a15050505050505050505050565b6112ef612647565b609b6000611348846001609d60008873ffffffffffffffffffffffffffffffffffffffff1673ffffffffffffffffffffffffffffffffffffffff16815260200190815260200160002054611343919061327b565b611467565b8152602001908152602001600020604051806101600160405290816000820160009054906101000a900460ff161515151581526020016000820160019054906101000a900473ffffffffffffffffffffffffffffffffffffffff1673ffffffffffffffffffffffffffffffffffffffff1673ffffffffffffffffffffffffffffffffffffffff168152602001600182015481526020016002820154815260200160038201548152602001600482015481526020016005820160009054906101000a900460ff1615151515815260200160068201548152602001600782015481526020016008820160009054906101000a900460ff161515151581526020016008820160019054906101000a900460ff1615151515815250509050919050565b6000828260405160200161147c929190613318565b60405160208183030381529060405280519060200120905092915050565b6000603360009054906101000a900473ffffffffffffffffffffffffffffffffffffffff16905090565b6000611585609c54609760009054906101000a900473ffffffffffffffffffffffffffffffffffffffff1673ffffffffffffffffffffffffffffffffffffffff166370a08231306040518263ffffffff1660e01b81526004016115279190612792565b60206040518083038186803b15801561153f57600080fd5b505afa158015611553573d6000803e3d6000fd5b505050506040513d601f19601f820116820180604052508101906115779190612c4e565b6121f890919063ffffffff16565b905090565b60985481565b611598612647565b609b6000838152602001908152602001600020604051806101600160405290816000820160009054906101000a900460ff161515151581526020016000820160019054906101000a900473ffffffffffffffffffffffffffffffffffffffff1673ffffffffffffffffffffffffffffffffffffffff1673ffffffffffffffffffffffffffffffffffffffff168152602001600182015481526020016002820154815260200160038201548152602001600482015481526020016005820160009054906101000a900460ff1615151515815260200160068201548152602001600782015481526020016008820160009054906101000a900460ff161515151581526020016008820160019054906101000a900460ff1615151515815250509050919050565b6116c4611fb6565b8060011515609b600083815260200190815260200160002060000160009054906101000a900460ff161515146116f957600080fd5b60001515609b600083815260200190815260200160002060080160009054906101000a900460ff1615151461172d57600080fd5b6000609b60008481526020019081526020016000209050600115158160050160009054906101000a900460ff1615151461179c576040517f08c379a0000000000000000000000000000000000000000000000000000000008152600401611793906133b6565b60405180910390fd5b60006118b182604051806101600160405290816000820160009054906101000a900460ff161515151581526020016000820160019054906101000a900473ffffffffffffffffffffffffffffffffffffffff1673ffffffffffffffffffffffffffffffffffffffff1673ffffffffffffffffffffffffffffffffffffffff168152602001600182015481526020016002820154815260200160038201548152602001600482015481526020016005820160009054906101000a900460ff1615151515815260200160068201548152602001600782015481526020016008820160009054906101000a900460ff161515151581526020016008820160019054906101000a900460ff1615151515815250506120ba565b905060008111156118c7576118c6848261077e565b5b60006118e4836007015484600601546121f890919063ffffffff16565b90506118fb81609c546121f890919063ffffffff16565b609c8190555060018360080160006101000a81548160ff0219169083151502179055505050505050565b609f60009054906101000a900473ffffffffffffffffffffffffffffffffffffffff1681565b60008160011515609b600083815260200190815260200160002060000160009054906101000a900460ff1615151461198257600080fd5b60001515609b600083815260200190815260200160002060080160009054906101000a900460ff161515146119b657600080fd5b6000609b60008581526020019081526020016000209050611ae081604051806101600160405290816000820160009054906101000a900460ff161515151581526020016000820160019054906101000a900473ffffffffffffffffffffffffffffffffffffffff1673ffffffffffffffffffffffffffffffffffffffff1673ffffffffffffffffffffffffffffffffffffffff168152602001600182015481526020016002820154815260200160038201548152602001600482015481526020016005820160009054906101000a900460ff1615151515815260200160068201548152602001600782015481526020016008820160009054906101000a900460ff161515151581526020016008820160019054906101000a900460ff1615151515815250506120ba565b92505050919050565b611af1611fb6565b600073ffffffffffffffffffffffffffffffffffffffff168173ffffffffffffffffffffffffffffffffffffffff161415611b61576040517f08c379a0000000000000000000000000000000000000000000000000000000008152600401611b5890613448565b60405180910390fd5b611b6a8161220e565b50565b611b75612647565b611b87611b828484611467565b611590565b905092915050565b6000611bda82609d60008573ffffffffffffffffffffffffffffffffffffffff1673ffffffffffffffffffffffffffffffffffffffff16815260200190815260200160002054611467565b9050919050565b6000611beb61051d565b8210611c2c576040517f08c379a0000000000000000000000000000000000000000000000000000000008152600401611c23906134da565b60405180910390fd5b609a8281548110611c4057611c3f6134fa565b5b90600052602060002001549050919050565b60026065541415611c98576040517f08c379a0000000000000000000000000000000000000000000000000000000008152600401611c8f90612c19565b60405180910390fd5b60026065819055506000609b6000838152602001908152602001600020905060008160000160019054906101000a900473ffffffffffffffffffffffffffffffffffffffff1673ffffffffffffffffffffffffffffffffffffffff163373ffffffffffffffffffffffffffffffffffffffff161490506000611d1861149a565b73ffffffffffffffffffffffffffffffffffffffff163373ffffffffffffffffffffffffffffffffffffffff161490508180611d515750805b611d90576040517f08c379a0000000000000000000000000000000000000000000000000000000008152600401611d8790612da5565b60405180910390fd5b600115158360080160019054906101000a900460ff16151514611de8576040517f08c379a0000000000000000000000000000000000000000000000000000000008152600401611ddf9061359b565b60405180910390fd5b6000611df26123b1565b9050609954811015611e39576040517f08c379a0000000000000000000000000000000000000000000000000000000008152600401611e3090613607565b60405180910390fd5b6000609e60008781526020019081526020016000205414611e8f576040517f08c379a0000000000000000000000000000000000000000000000000000000008152600401611e8690613673565b60405180910390fd5b6000611ebd6064611eaf60985488600601546123b990919063ffffffff16565b6123cf90919063ffffffff16565b9050611ed68186600701546121e290919063ffffffff16565b856007018190555080609e60008881526020019081526020016000208190555060008560000160019054906101000a900473ffffffffffffffffffffffffffffffffffffffff169050611f6c8183609760009054906101000a900473ffffffffffffffffffffffffffffffffffffffff1673ffffffffffffffffffffffffffffffffffffffff166120349092919063ffffffff16565b7fd9215c0345f0d530c5101edea49413960423257c62dd4dcc18b5e6c0b63a02278183604051611f9d9291906136e8565b60405180910390a1505050505050600160658190555050565b611fbe6123e5565b73ffffffffffffffffffffffffffffffffffffffff16611fdc61149a565b73ffffffffffffffffffffffffffffffffffffffff1614612032576040517f08c379a00000000000000000000000000000000000000000000000000000000081526004016120299061375d565b60405180910390fd5b565b6120b58363a9059cbb60e01b848460405160240161205392919061377d565b604051602081830303815290604052907bffffffffffffffffffffffffffffffffffffffffffffffffffffffff19166020820180517bffffffffffffffffffffffffffffffffffffffffffffffffffffffff83818316178352505050506123ed565b505050565b6000806120c56123b1565b905082604001518110806120e25750600115158361012001511515145b156120f15760009150506121dd565b61210c836080015184606001516121e290919063ffffffff16565b81106121365761212e8361010001518460e001516121f890919063ffffffff16565b9150506121dd565b600061214f8460600151836121f890919063ffffffff16565b905060008460a001519050600061216f82846123cf90919063ffffffff16565b9050600061218683836123b990919063ffffffff16565b905060006121b788608001516121a9848b60e001516123b990919063ffffffff16565b6123cf90919063ffffffff16565b90506121d1886101000151826121f890919063ffffffff16565b90508096505050505050505b919050565b600081836121f091906137a6565b905092915050565b60008183612206919061327b565b905092915050565b6000603360009054906101000a900473ffffffffffffffffffffffffffffffffffffffff16905081603360006101000a81548173ffffffffffffffffffffffffffffffffffffffff021916908373ffffffffffffffffffffffffffffffffffffffff1602179055508173ffffffffffffffffffffffffffffffffffffffff168173ffffffffffffffffffffffffffffffffffffffff167f8be0079c531659141344cd1fd0a4f28419497f9722a3daafe3b4186f6b6457e060405160405180910390a35050565b6000808273ffffffffffffffffffffffffffffffffffffffff163b119050919050565b600060019054906101000a900460ff16612346576040517f08c379a000000000000000000000000000000000000000000000000000000000815260040161233d9061386e565b60405180910390fd5b6123566123516123e5565b61220e565b565b600060019054906101000a900460ff166123a7576040517f08c379a000000000000000000000000000000000000000000000000000000000815260040161239e9061386e565b60405180910390fd5b6001606581905550565b600042905090565b600081836123c7919061388e565b905092915050565b600081836123dd9190613917565b905092915050565b600033905090565b600061244f826040518060400160405280602081526020017f5361666545524332303a206c6f772d6c6576656c2063616c6c206661696c65648152508573ffffffffffffffffffffffffffffffffffffffff166124b49092919063ffffffff16565b90506000815111156124af578080602001905181019061246f919061395d565b6124ae576040517f08c379a00000000000000000000000000000000000000000000000000000000081526004016124a5906139fc565b60405180910390fd5b5b505050565b60606124c384846000856124cc565b90509392505050565b606082471015612511576040517f08c379a000000000000000000000000000000000000000000000000000000000815260040161250890613a8e565b60405180910390fd5b61251a856122d4565b612559576040517f08c379a000000000000000000000000000000000000000000000000000000000815260040161255090613afa565b60405180910390fd5b6000808673ffffffffffffffffffffffffffffffffffffffff1685876040516125829190613b94565b60006040518083038185875af1925050503d80600081146125bf576040519150601f19603f3d011682016040523d82523d6000602084013e6125c4565b606091505b50915091506125d48282866125e0565b92505050949350505050565b606083156125f057829050612640565b6000835111156126035782518084602001fd5b816040517f08c379a00000000000000000000000000000000000000000000000000000000081526004016126379190613c00565b60405180910390fd5b9392505050565b604051806101600160405280600015158152602001600073ffffffffffffffffffffffffffffffffffffffff1681526020016000815260200160008152602001600081526020016000815260200160001515815260200160008152602001600081526020016000151581526020016000151581525090565b6000819050919050565b6126d2816126bf565b82525050565b60006020820190506126ed60008301846126c9565b92915050565b600080fd5b600073ffffffffffffffffffffffffffffffffffffffff82169050919050565b6000612723826126f8565b9050919050565b61273381612718565b811461273e57600080fd5b50565b6000813590506127508161272a565b92915050565b60006020828403121561276c5761276b6126f3565b5b600061277a84828501612741565b91505092915050565b61278c81612718565b82525050565b60006020820190506127a76000830184612783565b92915050565b6127b6816126bf565b81146127c157600080fd5b50565b6000813590506127d3816127ad565b92915050565b6000602082840312156127ef576127ee6126f3565b5b60006127fd848285016127c4565b91505092915050565b6000819050919050565b61281981612806565b811461282457600080fd5b50565b60008135905061283681612810565b92915050565b600060208284031215612852576128516126f3565b5b600061286084828501612827565b91505092915050565b600080604083850312156128805761287f6126f3565b5b600061288e85828601612827565b925050602061289f858286016127c4565b9150509250929050565b60006128b482612718565b9050919050565b6128c4816128a9565b81146128cf57600080fd5b50565b6000813590506128e1816128bb565b92915050565b600080600060608486031215612900576128ff6126f3565b5b600061290e868287016128d2565b935050602061291f868287016127c4565b9250506040612930868287016127c4565b9150509250925092565b60008115159050919050565b61294f8161293a565b811461295a57600080fd5b50565b60008135905061296c81612946565b92915050565b600080600080600080600080610100898b031215612993576129926126f3565b5b60006129a18b828c01612741565b98505060206129b28b828c016127c4565b97505060406129c38b828c016127c4565b96505060606129d48b828c016127c4565b95505060806129e58b828c016127c4565b94505060a06129f68b828c0161295d565b93505060c0612a078b828c016127c4565b92505060e0612a188b828c0161295d565b9150509295985092959890939650565b612a318161293a565b82525050565b612a4081612718565b82525050565b612a4f816126bf565b82525050565b61016082016000820151612a6c6000850182612a28565b506020820151612a7f6020850182612a37565b506040820151612a926040850182612a46565b506060820151612aa56060850182612a46565b506080820151612ab86080850182612a46565b5060a0820151612acb60a0850182612a46565b5060c0820151612ade60c0850182612a28565b5060e0820151612af160e0850182612a46565b50610100820151612b06610100850182612a46565b50610120820151612b1b610120850182612a28565b50610140820151612b30610140850182612a28565b50505050565b600061016082019050612b4c6000830184612a55565b92915050565b60008060408385031215612b6957612b686126f3565b5b6000612b7785828601612741565b9250506020612b88858286016127c4565b9150509250929050565b612b9b81612806565b82525050565b6000602082019050612bb66000830184612b92565b92915050565b600082825260208201905092915050565b7f5265656e7472616e637947756172643a207265656e7472616e742063616c6c00600082015250565b6000612c03601f83612bbc565b9150612c0e82612bcd565b602082019050919050565b60006020820190508181036000830152612c3281612bf6565b9050919050565b600081519050612c48816127ad565b92915050565b600060208284031215612c6457612c636126f3565b5b6000612c7284828501612c39565b91505092915050565b7f546f6b656e56657374696e673a206e6f7420656e6f756768207769746864726160008201527f7761626c652066756e6473000000000000000000000000000000000000000000602082015250565b6000612cd7602b83612bbc565b9150612ce282612c7b565b604082019050919050565b60006020820190508181036000830152612d0681612cca565b9050919050565b7f546f6b656e56657374696e673a206f6e6c792062656e6566696369617279206160008201527f6e64206f776e65722063616e2072656c656173652076657374656420746f6b6560208201527f6e73000000000000000000000000000000000000000000000000000000000000604082015250565b6000612d8f604283612bbc565b9150612d9a82612d0d565b606082019050919050565b60006020820190508181036000830152612dbe81612d82565b9050919050565b7f546f6b656e56657374696e673a2063616e6e6f742072656c6561736520746f6b60008201527f656e732c206e6f7420656e6f7567682076657374656420746f6b656e73000000602082015250565b6000612e21603d83612bbc565b9150612e2c82612dc5565b604082019050919050565b60006020820190508181036000830152612e5081612e14565b9050919050565b7f496e697469616c697a61626c653a20636f6e747261637420697320616c72656160008201527f647920696e697469616c697a6564000000000000000000000000000000000000602082015250565b6000612eb3602e83612bbc565b9150612ebe82612e57565b604082019050919050565b60006020820190508181036000830152612ee281612ea6565b9050919050565b6000819050919050565b600060ff82169050919050565b6000819050919050565b6000612f25612f20612f1b84612ee9565b612f00565b612ef3565b9050919050565b612f3581612f0a565b82525050565b6000602082019050612f506000830184612f2c565b92915050565b7f4e6f204163636573730000000000000000000000000000000000000000000000600082015250565b6000612f8c600983612bbc565b9150612f9782612f56565b602082019050919050565b60006020820190508181036000830152612fbb81612f7f565b9050919050565b7f546f6b656e56657374696e673a2063616e6e6f7420637265617465207665737460008201527f696e67207363686564756c652062656361757365206e6f74207375666669636960208201527f656e7420746f6b656e7300000000000000000000000000000000000000000000604082015250565b6000613044604a83612bbc565b915061304f82612fc2565b606082019050919050565b6000602082019050818103600083015261307381613037565b9050919050565b7f546f6b656e56657374696e673a206475726174696f6e206d757374206265203e60008201527f2030000000000000000000000000000000000000000000000000000000000000602082015250565b60006130d6602283612bbc565b91506130e18261307a565b604082019050919050565b60006020820190508181036000830152613105816130c9565b9050919050565b7f546f6b656e56657374696e673a20616d6f756e74206d757374206265203e2030600082015250565b6000613142602083612bbc565b915061314d8261310c565b602082019050919050565b6000602082019050818103600083015261317181613135565b9050919050565b7f546f6b656e56657374696e673a20736c696365506572696f645365636f6e647360008201527f206d757374206265203e3d203100000000000000000000000000000000000000602082015250565b60006131d4602d83612bbc565b91506131df82613178565b604082019050919050565b60006020820190508181036000830152613203816131c7565b9050919050565b60008151905061321981612810565b92915050565b600060208284031215613235576132346126f3565b5b60006132438482850161320a565b91505092915050565b7f4e487b7100000000000000000000000000000000000000000000000000000000600052601160045260246000fd5b6000613286826126bf565b9150613291836126bf565b9250828210156132a4576132a361324c565b5b828203905092915050565b60008160601b9050919050565b60006132c7826132af565b9050919050565b60006132d9826132bc565b9050919050565b6132f16132ec82612718565b6132ce565b82525050565b6000819050919050565b61331261330d826126bf565b6132f7565b82525050565b600061332482856132e0565b6014820191506133348284613301565b6020820191508190509392505050565b7f546f6b656e56657374696e673a2076657374696e67206973206e6f742072657660008201527f6f6361626c650000000000000000000000000000000000000000000000000000602082015250565b60006133a0602683612bbc565b91506133ab82613344565b604082019050919050565b600060208201905081810360008301526133cf81613393565b9050919050565b7f4f776e61626c653a206e6577206f776e657220697320746865207a65726f206160008201527f6464726573730000000000000000000000000000000000000000000000000000602082015250565b6000613432602683612bbc565b915061343d826133d6565b604082019050919050565b6000602082019050818103600083015261346181613425565b9050919050565b7f546f6b656e56657374696e673a20696e646578206f7574206f6620626f756e6460008201527f7300000000000000000000000000000000000000000000000000000000000000602082015250565b60006134c4602183612bbc565b91506134cf82613468565b604082019050919050565b600060208201905081810360008301526134f3816134b7565b9050919050565b7f4e487b7100000000000000000000000000000000000000000000000000000000600052603260045260246000fd5b7f52656c65617365546f6b656e41745447453a206f6e6c7920696e766573746f7260008201527f732063616e20636c61696d20746f6b656e206174205447450000000000000000602082015250565b6000613585603883612bbc565b915061359082613529565b604082019050919050565b600060208201905081810360008301526135b481613578565b9050919050565b7f5447453a2074696d65206e6f7420726561636865642100000000000000000000600082015250565b60006135f1601683612bbc565b91506135fc826135bb565b602082019050919050565b60006020820190508181036000830152613620816135e4565b9050919050565b7f5447453a20546f6b656e20416c726561647920636c61696d6564000000000000600082015250565b600061365d601a83612bbc565b915061366882613627565b602082019050919050565b6000602082019050818103600083015261368c81613650565b9050919050565b60006136ae6136a96136a4846126f8565b612f00565b6126f8565b9050919050565b60006136c082613693565b9050919050565b60006136d2826136b5565b9050919050565b6136e2816136c7565b82525050565b60006040820190506136fd60008301856136d9565b61370a60208301846126c9565b9392505050565b7f4f776e61626c653a2063616c6c6572206973206e6f7420746865206f776e6572600082015250565b6000613747602083612bbc565b915061375282613711565b602082019050919050565b600060208201905081810360008301526137768161373a565b9050919050565b60006040820190506137926000830185612783565b61379f60208301846126c9565b9392505050565b60006137b1826126bf565b91506137bc836126bf565b9250827fffffffffffffffffffffffffffffffffffffffffffffffffffffffffffffffff038211156137f1576137f061324c565b5b828201905092915050565b7f496e697469616c697a61626c653a20636f6e7472616374206973206e6f74206960008201527f6e697469616c697a696e67000000000000000000000000000000000000000000602082015250565b6000613858602b83612bbc565b9150613863826137fc565b604082019050919050565b600060208201905081810360008301526138878161384b565b9050919050565b6000613899826126bf565b91506138a4836126bf565b9250817fffffffffffffffffffffffffffffffffffffffffffffffffffffffffffffffff04831182151516156138dd576138dc61324c565b5b828202905092915050565b7f4e487b7100000000000000000000000000000000000000000000000000000000600052601260045260246000fd5b6000613922826126bf565b915061392d836126bf565b92508261393d5761393c6138e8565b5b828204905092915050565b60008151905061395781612946565b92915050565b600060208284031215613973576139726126f3565b5b600061398184828501613948565b91505092915050565b7f5361666545524332303a204552433230206f7065726174696f6e20646964206e60008201527f6f74207375636365656400000000000000000000000000000000000000000000602082015250565b60006139e6602a83612bbc565b91506139f18261398a565b604082019050919050565b60006020820190508181036000830152613a15816139d9565b9050919050565b7f416464726573733a20696e73756666696369656e742062616c616e636520666f60008201527f722063616c6c0000000000000000000000000000000000000000000000000000602082015250565b6000613a78602683612bbc565b9150613a8382613a1c565b604082019050919050565b60006020820190508181036000830152613aa781613a6b565b9050919050565b7f416464726573733a2063616c6c20746f206e6f6e2d636f6e7472616374000000600082015250565b6000613ae4601d83612bbc565b9150613aef82613aae565b602082019050919050565b60006020820190508181036000830152613b1381613ad7565b9050919050565b600081519050919050565b600081905092915050565b60005b83811015613b4e578082015181840152602081019050613b33565b83811115613b5d576000848401525b50505050565b6000613b6e82613b1a565b613b788185613b25565b9350613b88818560208601613b30565b80840191505092915050565b6000613ba08284613b63565b915081905092915050565b600081519050919050565b6000601f19601f8301169050919050565b6000613bd282613bab565b613bdc8185612bbc565b9350613bec818560208601613b30565b613bf581613bb6565b840191505092915050565b60006020820190508181036000830152613c1a8184613bc7565b90509291505056fea2646970667358221220f8e0bc3ec5dd42818330d9b039749faec0e20dcd3e7cf1f9691e72b89bff003a64736f6c63430008090033",
					"opcodes": "PUSH1 0x80 PUSH1 0x40 MSTORE CALLVALUE DUP1 ISZERO PUSH2 0x10 JUMPI PUSH1 0x0 DUP1 REVERT JUMPDEST POP PUSH2 0x3C58 DUP1 PUSH2 0x20 PUSH1 0x0 CODECOPY PUSH1 0x0 RETURN INVALID PUSH1 0x80 PUSH1 0x40 MSTORE CALLVALUE DUP1 ISZERO PUSH2 0x10 JUMPI PUSH1 0x0 DUP1 REVERT JUMPDEST POP PUSH1 0x4 CALLDATASIZE LT PUSH2 0x18E JUMPI PUSH1 0x0 CALLDATALOAD PUSH1 0xE0 SHR DUP1 PUSH4 0x8AF104DA GT PUSH2 0xDE JUMPI DUP1 PUSH4 0xD31B0809 GT PUSH2 0x97 JUMPI DUP1 PUSH4 0xF51321D7 GT PUSH2 0x71 JUMPI DUP1 PUSH4 0xF51321D7 EQ PUSH2 0x471 JUMPI DUP1 PUSH4 0xF7C469F0 EQ PUSH2 0x4A1 JUMPI DUP1 PUSH4 0xF9079B37 EQ PUSH2 0x4D1 JUMPI DUP1 PUSH4 0xF9299DD9 EQ PUSH2 0x501 JUMPI PUSH2 0x18E JUMP JUMPDEST DUP1 PUSH4 0xD31B0809 EQ PUSH2 0x407 JUMPI DUP1 PUSH4 0xEA1BB3D5 EQ PUSH2 0x425 JUMPI DUP1 PUSH4 0xF2FDE38B EQ PUSH2 0x455 JUMPI PUSH2 0x18E JUMP JUMPDEST DUP1 PUSH4 0x8AF104DA EQ PUSH2 0x331 JUMPI DUP1 PUSH4 0x8DA5CB5B EQ PUSH2 0x361 JUMPI DUP1 PUSH4 0x90BE10CC EQ PUSH2 0x37F JUMPI DUP1 PUSH4 0x9A160A1B EQ PUSH2 0x39D JUMPI DUP1 PUSH4 0x9EF346B4 EQ PUSH2 0x3BB JUMPI DUP1 PUSH4 0xB75C7DC6 EQ PUSH2 0x3EB JUMPI PUSH2 0x18E JUMP JUMPDEST DUP1 PUSH4 0x48DEB471 GT PUSH2 0x14B JUMPI DUP1 PUSH4 0x715018A6 GT PUSH2 0x125 JUMPI DUP1 PUSH4 0x715018A6 EQ PUSH2 0x2BF JUMPI DUP1 PUSH4 0x7A1AC61E EQ PUSH2 0x2C9 JUMPI DUP1 PUSH4 0x7DF8DF92 EQ PUSH2 0x2E5 JUMPI DUP1 PUSH4 0x7E913DC6 EQ PUSH2 0x301 JUMPI PUSH2 0x18E JUMP JUMPDEST DUP1 PUSH4 0x48DEB471 EQ PUSH2 0x255 JUMPI DUP1 PUSH4 0x5A7BB69A EQ PUSH2 0x273 JUMPI DUP1 PUSH4 0x66AFD8EF EQ PUSH2 0x2A3 JUMPI PUSH2 0x18E JUMP JUMPDEST DUP1 PUSH4 0x13083617 EQ PUSH2 0x193 JUMPI DUP1 PUSH4 0x1F35BC40 EQ PUSH2 0x1B1 JUMPI DUP1 PUSH4 0x21DF0DA7 EQ PUSH2 0x1CD JUMPI DUP1 PUSH4 0x2E1A7D4D EQ PUSH2 0x1EB JUMPI DUP1 PUSH4 0x35EF33F3 EQ PUSH2 0x207 JUMPI DUP1 PUSH4 0x4727D394 EQ PUSH2 0x237 JUMPI JUMPDEST PUSH1 0x0 DUP1 REVERT JUMPDEST PUSH2 0x19B PUSH2 0x51D JUMP JUMPDEST PUSH1 0x40 MLOAD PUSH2 0x1A8 SWAP2 SWAP1 PUSH2 0x26D8 JUMP JUMPDEST PUSH1 0x40 MLOAD DUP1 SWAP2 SUB SWAP1 RETURN JUMPDEST PUSH2 0x1CB PUSH1 0x4 DUP1 CALLDATASIZE SUB DUP2 ADD SWAP1 PUSH2 0x1C6 SWAP2 SWAP1 PUSH2 0x2756 JUMP JUMPDEST PUSH2 0x52A JUMP JUMPDEST STOP JUMPDEST PUSH2 0x1D5 PUSH2 0x56E JUMP JUMPDEST PUSH1 0x40 MLOAD PUSH2 0x1E2 SWAP2 SWAP1 PUSH2 0x2792 JUMP JUMPDEST PUSH1 0x40 MLOAD DUP1 SWAP2 SUB SWAP1 RETURN JUMPDEST PUSH2 0x205 PUSH1 0x4 DUP1 CALLDATASIZE SUB DUP2 ADD SWAP1 PUSH2 0x200 SWAP2 SWAP1 PUSH2 0x27D9 JUMP JUMPDEST PUSH2 0x598 JUMP JUMPDEST STOP JUMPDEST PUSH2 0x221 PUSH1 0x4 DUP1 CALLDATASIZE SUB DUP2 ADD SWAP1 PUSH2 0x21C SWAP2 SWAP1 PUSH2 0x283C JUMP JUMPDEST PUSH2 0x70D JUMP JUMPDEST PUSH1 0x40 MLOAD PUSH2 0x22E SWAP2 SWAP1 PUSH2 0x26D8 JUMP JUMPDEST PUSH1 0x40 MLOAD DUP1 SWAP2 SUB SWAP1 RETURN JUMPDEST PUSH2 0x23F PUSH2 0x725 JUMP JUMPDEST PUSH1 0x40 MLOAD PUSH2 0x24C SWAP2 SWAP1 PUSH2 0x26D8 JUMP JUMPDEST PUSH1 0x40 MLOAD DUP1 SWAP2 SUB SWAP1 RETURN JUMPDEST PUSH2 0x25D PUSH2 0x72B JUMP JUMPDEST PUSH1 0x40 MLOAD PUSH2 0x26A SWAP2 SWAP1 PUSH2 0x26D8 JUMP JUMPDEST PUSH1 0x40 MLOAD DUP1 SWAP2 SUB SWAP1 RETURN JUMPDEST PUSH2 0x28D PUSH1 0x4 DUP1 CALLDATASIZE SUB DUP2 ADD SWAP1 PUSH2 0x288 SWAP2 SWAP1 PUSH2 0x2756 JUMP JUMPDEST PUSH2 0x735 JUMP JUMPDEST PUSH1 0x40 MLOAD PUSH2 0x29A SWAP2 SWAP1 PUSH2 0x26D8 JUMP JUMPDEST PUSH1 0x40 MLOAD DUP1 SWAP2 SUB SWAP1 RETURN JUMPDEST PUSH2 0x2BD PUSH1 0x4 DUP1 CALLDATASIZE SUB DUP2 ADD SWAP1 PUSH2 0x2B8 SWAP2 SWAP1 PUSH2 0x2869 JUMP JUMPDEST PUSH2 0x77E JUMP JUMPDEST STOP JUMPDEST PUSH2 0x2C7 PUSH2 0xB41 JUMP JUMPDEST STOP JUMPDEST PUSH2 0x2E3 PUSH1 0x4 DUP1 CALLDATASIZE SUB DUP2 ADD SWAP1 PUSH2 0x2DE SWAP2 SWAP1 PUSH2 0x28E7 JUMP JUMPDEST PUSH2 0xB55 JUMP JUMPDEST STOP JUMPDEST PUSH2 0x2FF PUSH1 0x4 DUP1 CALLDATASIZE SUB DUP2 ADD SWAP1 PUSH2 0x2FA SWAP2 SWAP1 PUSH2 0x2972 JUMP JUMPDEST PUSH2 0xD27 JUMP JUMPDEST STOP JUMPDEST PUSH2 0x31B PUSH1 0x4 DUP1 CALLDATASIZE SUB DUP2 ADD SWAP1 PUSH2 0x316 SWAP2 SWAP1 PUSH2 0x2756 JUMP JUMPDEST PUSH2 0x12E7 JUMP JUMPDEST PUSH1 0x40 MLOAD PUSH2 0x328 SWAP2 SWAP1 PUSH2 0x2B36 JUMP JUMPDEST PUSH1 0x40 MLOAD DUP1 SWAP2 SUB SWAP1 RETURN JUMPDEST PUSH2 0x34B PUSH1 0x4 DUP1 CALLDATASIZE SUB DUP2 ADD SWAP1 PUSH2 0x346 SWAP2 SWAP1 PUSH2 0x2B52 JUMP JUMPDEST PUSH2 0x1467 JUMP JUMPDEST PUSH1 0x40 MLOAD PUSH2 0x358 SWAP2 SWAP1 PUSH2 0x2BA1 JUMP JUMPDEST PUSH1 0x40 MLOAD DUP1 SWAP2 SUB SWAP1 RETURN JUMPDEST PUSH2 0x369 PUSH2 0x149A JUMP JUMPDEST PUSH1 0x40 MLOAD PUSH2 0x376 SWAP2 SWAP1 PUSH2 0x2792 JUMP JUMPDEST PUSH1 0x40 MLOAD DUP1 SWAP2 SUB SWAP1 RETURN JUMPDEST PUSH2 0x387 PUSH2 0x14C4 JUMP JUMPDEST PUSH1 0x40 MLOAD PUSH2 0x394 SWAP2 SWAP1 PUSH2 0x26D8 JUMP JUMPDEST PUSH1 0x40 MLOAD DUP1 SWAP2 SUB SWAP1 RETURN JUMPDEST PUSH2 0x3A5 PUSH2 0x158A JUMP JUMPDEST PUSH1 0x40 MLOAD PUSH2 0x3B2 SWAP2 SWAP1 PUSH2 0x26D8 JUMP JUMPDEST PUSH1 0x40 MLOAD DUP1 SWAP2 SUB SWAP1 RETURN JUMPDEST PUSH2 0x3D5 PUSH1 0x4 DUP1 CALLDATASIZE SUB DUP2 ADD SWAP1 PUSH2 0x3D0 SWAP2 SWAP1 PUSH2 0x283C JUMP JUMPDEST PUSH2 0x1590 JUMP JUMPDEST PUSH1 0x40 MLOAD PUSH2 0x3E2 SWAP2 SWAP1 PUSH2 0x2B36 JUMP JUMPDEST PUSH1 0x40 MLOAD DUP1 SWAP2 SUB SWAP1 RETURN JUMPDEST PUSH2 0x405 PUSH1 0x4 DUP1 CALLDATASIZE SUB DUP2 ADD SWAP1 PUSH2 0x400 SWAP2 SWAP1 PUSH2 0x283C JUMP JUMPDEST PUSH2 0x16BC JUMP JUMPDEST STOP JUMPDEST PUSH2 0x40F PUSH2 0x1925 JUMP JUMPDEST PUSH1 0x40 MLOAD PUSH2 0x41C SWAP2 SWAP1 PUSH2 0x2792 JUMP JUMPDEST PUSH1 0x40 MLOAD DUP1 SWAP2 SUB SWAP1 RETURN JUMPDEST PUSH2 0x43F PUSH1 0x4 DUP1 CALLDATASIZE SUB DUP2 ADD SWAP1 PUSH2 0x43A SWAP2 SWAP1 PUSH2 0x283C JUMP JUMPDEST PUSH2 0x194B JUMP JUMPDEST PUSH1 0x40 MLOAD PUSH2 0x44C SWAP2 SWAP1 PUSH2 0x26D8 JUMP JUMPDEST PUSH1 0x40 MLOAD DUP1 SWAP2 SUB SWAP1 RETURN JUMPDEST PUSH2 0x46F PUSH1 0x4 DUP1 CALLDATASIZE SUB DUP2 ADD SWAP1 PUSH2 0x46A SWAP2 SWAP1 PUSH2 0x2756 JUMP JUMPDEST PUSH2 0x1AE9 JUMP JUMPDEST STOP JUMPDEST PUSH2 0x48B PUSH1 0x4 DUP1 CALLDATASIZE SUB DUP2 ADD SWAP1 PUSH2 0x486 SWAP2 SWAP1 PUSH2 0x2B52 JUMP JUMPDEST PUSH2 0x1B6D JUMP JUMPDEST PUSH1 0x40 MLOAD PUSH2 0x498 SWAP2 SWAP1 PUSH2 0x2B36 JUMP JUMPDEST PUSH1 0x40 MLOAD DUP1 SWAP2 SUB SWAP1 RETURN JUMPDEST PUSH2 0x4BB PUSH1 0x4 DUP1 CALLDATASIZE SUB DUP2 ADD SWAP1 PUSH2 0x4B6 SWAP2 SWAP1 PUSH2 0x2756 JUMP JUMPDEST PUSH2 0x1B8F JUMP JUMPDEST PUSH1 0x40 MLOAD PUSH2 0x4C8 SWAP2 SWAP1 PUSH2 0x2BA1 JUMP JUMPDEST PUSH1 0x40 MLOAD DUP1 SWAP2 SUB SWAP1 RETURN JUMPDEST PUSH2 0x4EB PUSH1 0x4 DUP1 CALLDATASIZE SUB DUP2 ADD SWAP1 PUSH2 0x4E6 SWAP2 SWAP1 PUSH2 0x27D9 JUMP JUMPDEST PUSH2 0x1BE1 JUMP JUMPDEST PUSH1 0x40 MLOAD PUSH2 0x4F8 SWAP2 SWAP1 PUSH2 0x2BA1 JUMP JUMPDEST PUSH1 0x40 MLOAD DUP1 SWAP2 SUB SWAP1 RETURN JUMPDEST PUSH2 0x51B PUSH1 0x4 DUP1 CALLDATASIZE SUB DUP2 ADD SWAP1 PUSH2 0x516 SWAP2 SWAP1 PUSH2 0x283C JUMP JUMPDEST PUSH2 0x1C52 JUMP JUMPDEST STOP JUMPDEST PUSH1 0x0 PUSH1 0x9A DUP1 SLOAD SWAP1 POP SWAP1 POP SWAP1 JUMP JUMPDEST DUP1 PUSH1 0x9F PUSH1 0x0 PUSH2 0x100 EXP DUP2 SLOAD DUP2 PUSH20 0xFFFFFFFFFFFFFFFFFFFFFFFFFFFFFFFFFFFFFFFF MUL NOT AND SWAP1 DUP4 PUSH20 0xFFFFFFFFFFFFFFFFFFFFFFFFFFFFFFFFFFFFFFFF AND MUL OR SWAP1 SSTORE POP POP JUMP JUMPDEST PUSH1 0x0 PUSH1 0x97 PUSH1 0x0 SWAP1 SLOAD SWAP1 PUSH2 0x100 EXP SWAP1 DIV PUSH20 0xFFFFFFFFFFFFFFFFFFFFFFFFFFFFFFFFFFFFFFFF AND SWAP1 POP SWAP1 JUMP JUMPDEST PUSH1 0x2 PUSH1 0x65 SLOAD EQ ISZERO PUSH2 0x5DE JUMPI PUSH1 0x40 MLOAD PUSH32 0x8C379A000000000000000000000000000000000000000000000000000000000 DUP2 MSTORE PUSH1 0x4 ADD PUSH2 0x5D5 SWAP1 PUSH2 0x2C19 JUMP JUMPDEST PUSH1 0x40 MLOAD DUP1 SWAP2 SUB SWAP1 REVERT JUMPDEST PUSH1 0x2 PUSH1 0x65 DUP2 SWAP1 SSTORE POP PUSH2 0x5EE PUSH2 0x1FB6 JUMP JUMPDEST DUP1 ADDRESS PUSH20 0xFFFFFFFFFFFFFFFFFFFFFFFFFFFFFFFFFFFFFFFF AND PUSH4 0x90BE10CC PUSH1 0x40 MLOAD DUP2 PUSH4 0xFFFFFFFF AND PUSH1 0xE0 SHL DUP2 MSTORE PUSH1 0x4 ADD PUSH1 0x20 PUSH1 0x40 MLOAD DUP1 DUP4 SUB DUP2 DUP7 DUP1 EXTCODESIZE ISZERO DUP1 ISZERO PUSH2 0x635 JUMPI PUSH1 0x0 DUP1 REVERT JUMPDEST POP GAS STATICCALL ISZERO DUP1 ISZERO PUSH2 0x649 JUMPI RETURNDATASIZE PUSH1 0x0 DUP1 RETURNDATACOPY RETURNDATASIZE PUSH1 0x0 REVERT JUMPDEST POP POP POP POP PUSH1 0x40 MLOAD RETURNDATASIZE PUSH1 0x1F NOT PUSH1 0x1F DUP3 ADD AND DUP3 ADD DUP1 PUSH1 0x40 MSTORE POP DUP2 ADD SWAP1 PUSH2 0x66D SWAP2 SWAP1 PUSH2 0x2C4E JUMP JUMPDEST LT ISZERO PUSH2 0x6AE JUMPI PUSH1 0x40 MLOAD PUSH32 0x8C379A000000000000000000000000000000000000000000000000000000000 DUP2 MSTORE PUSH1 0x4 ADD PUSH2 0x6A5 SWAP1 PUSH2 0x2CED JUMP JUMPDEST PUSH1 0x40 MLOAD DUP1 SWAP2 SUB SWAP1 REVERT JUMPDEST PUSH2 0x702 PUSH2 0x6B9 PUSH2 0x149A JUMP JUMPDEST DUP3 PUSH1 0x97 PUSH1 0x0 SWAP1 SLOAD SWAP1 PUSH2 0x100 EXP SWAP1 DIV PUSH20 0xFFFFFFFFFFFFFFFFFFFFFFFFFFFFFFFFFFFFFFFF AND PUSH20 0xFFFFFFFFFFFFFFFFFFFFFFFFFFFFFFFFFFFFFFFF AND PUSH2 0x2034 SWAP1 SWAP3 SWAP2 SWAP1 PUSH4 0xFFFFFFFF AND JUMP JUMPDEST PUSH1 0x1 PUSH1 0x65 DUP2 SWAP1 SSTORE POP POP JUMP JUMPDEST PUSH1 0x9E PUSH1 0x20 MSTORE DUP1 PUSH1 0x0 MSTORE PUSH1 0x40 PUSH1 0x0 KECCAK256 PUSH1 0x0 SWAP2 POP SWAP1 POP SLOAD DUP2 JUMP JUMPDEST PUSH1 0x99 SLOAD DUP2 JUMP JUMPDEST PUSH1 0x0 PUSH1 0x9C SLOAD SWAP1 POP SWAP1 JUMP JUMPDEST PUSH1 0x0 PUSH1 0x9D PUSH1 0x0 DUP4 PUSH20 0xFFFFFFFFFFFFFFFFFFFFFFFFFFFFFFFFFFFFFFFF AND PUSH20 0xFFFFFFFFFFFFFFFFFFFFFFFFFFFFFFFFFFFFFFFF AND DUP2 MSTORE PUSH1 0x20 ADD SWAP1 DUP2 MSTORE PUSH1 0x20 ADD PUSH1 0x0 KECCAK256 SLOAD SWAP1 POP SWAP2 SWAP1 POP JUMP JUMPDEST PUSH1 0x2 PUSH1 0x65 SLOAD EQ ISZERO PUSH2 0x7C4 JUMPI PUSH1 0x40 MLOAD PUSH32 0x8C379A000000000000000000000000000000000000000000000000000000000 DUP2 MSTORE PUSH1 0x4 ADD PUSH2 0x7BB SWAP1 PUSH2 0x2C19 JUMP JUMPDEST PUSH1 0x40 MLOAD DUP1 SWAP2 SUB SWAP1 REVERT JUMPDEST PUSH1 0x2 PUSH1 0x65 DUP2 SWAP1 SSTORE POP DUP2 PUSH1 0x1 ISZERO ISZERO PUSH1 0x9B PUSH1 0x0 DUP4 DUP2 MSTORE PUSH1 0x20 ADD SWAP1 DUP2 MSTORE PUSH1 0x20 ADD PUSH1 0x0 KECCAK256 PUSH1 0x0 ADD PUSH1 0x0 SWAP1 SLOAD SWAP1 PUSH2 0x100 EXP SWAP1 DIV PUSH1 0xFF AND ISZERO ISZERO EQ PUSH2 0x801 JUMPI PUSH1 0x0 DUP1 REVERT JUMPDEST PUSH1 0x0 ISZERO ISZERO PUSH1 0x9B PUSH1 0x0 DUP4 DUP2 MSTORE PUSH1 0x20 ADD SWAP1 DUP2 MSTORE PUSH1 0x20 ADD PUSH1 0x0 KECCAK256 PUSH1 0x8 ADD PUSH1 0x0 SWAP1 SLOAD SWAP1 PUSH2 0x100 EXP SWAP1 DIV PUSH1 0xFF AND ISZERO ISZERO EQ PUSH2 0x835 JUMPI PUSH1 0x0 DUP1 REVERT JUMPDEST PUSH1 0x0 PUSH1 0x9B PUSH1 0x0 DUP6 DUP2 MSTORE PUSH1 0x20 ADD SWAP1 DUP2 MSTORE PUSH1 0x20 ADD PUSH1 0x0 KECCAK256 SWAP1 POP PUSH1 0x0 DUP2 PUSH1 0x0 ADD PUSH1 0x1 SWAP1 SLOAD SWAP1 PUSH2 0x100 EXP SWAP1 DIV PUSH20 0xFFFFFFFFFFFFFFFFFFFFFFFFFFFFFFFFFFFFFFFF AND PUSH20 0xFFFFFFFFFFFFFFFFFFFFFFFFFFFFFFFFFFFFFFFF AND CALLER PUSH20 0xFFFFFFFFFFFFFFFFFFFFFFFFFFFFFFFFFFFFFFFF AND EQ SWAP1 POP PUSH1 0x0 PUSH2 0x8AD PUSH2 0x149A JUMP JUMPDEST PUSH20 0xFFFFFFFFFFFFFFFFFFFFFFFFFFFFFFFFFFFFFFFF AND CALLER PUSH20 0xFFFFFFFFFFFFFFFFFFFFFFFFFFFFFFFFFFFFFFFF AND EQ SWAP1 POP DUP2 DUP1 PUSH2 0x8E6 JUMPI POP DUP1 JUMPDEST PUSH2 0x925 JUMPI PUSH1 0x40 MLOAD PUSH32 0x8C379A000000000000000000000000000000000000000000000000000000000 DUP2 MSTORE PUSH1 0x4 ADD PUSH2 0x91C SWAP1 PUSH2 0x2DA5 JUMP JUMPDEST PUSH1 0x40 MLOAD DUP1 SWAP2 SUB SWAP1 REVERT JUMPDEST PUSH1 0x0 PUSH2 0xA3A DUP5 PUSH1 0x40 MLOAD DUP1 PUSH2 0x160 ADD PUSH1 0x40 MSTORE SWAP1 DUP2 PUSH1 0x0 DUP3 ADD PUSH1 0x0 SWAP1 SLOAD SWAP1 PUSH2 0x100 EXP SWAP1 DIV PUSH1 0xFF AND ISZERO ISZERO ISZERO ISZERO DUP2 MSTORE PUSH1 0x20 ADD PUSH1 0x0 DUP3 ADD PUSH1 0x1 SWAP1 SLOAD SWAP1 PUSH2 0x100 EXP SWAP1 DIV PUSH20 0xFFFFFFFFFFFFFFFFFFFFFFFFFFFFFFFFFFFFFFFF AND PUSH20 0xFFFFFFFFFFFFFFFFFFFFFFFFFFFFFFFFFFFFFFFF AND PUSH20 0xFFFFFFFFFFFFFFFFFFFFFFFFFFFFFFFFFFFFFFFF AND DUP2 MSTORE PUSH1 0x20 ADD PUSH1 0x1 DUP3 ADD SLOAD DUP2 MSTORE PUSH1 0x20 ADD PUSH1 0x2 DUP3 ADD SLOAD DUP2 MSTORE PUSH1 0x20 ADD PUSH1 0x3 DUP3 ADD SLOAD DUP2 MSTORE PUSH1 0x20 ADD PUSH1 0x4 DUP3 ADD SLOAD DUP2 MSTORE PUSH1 0x20 ADD PUSH1 0x5 DUP3 ADD PUSH1 0x0 SWAP1 SLOAD SWAP1 PUSH2 0x100 EXP SWAP1 DIV PUSH1 0xFF AND ISZERO ISZERO ISZERO ISZERO DUP2 MSTORE PUSH1 0x20 ADD PUSH1 0x6 DUP3 ADD SLOAD DUP2 MSTORE PUSH1 0x20 ADD PUSH1 0x7 DUP3 ADD SLOAD DUP2 MSTORE PUSH1 0x20 ADD PUSH1 0x8 DUP3 ADD PUSH1 0x0 SWAP1 SLOAD SWAP1 PUSH2 0x100 EXP SWAP1 DIV PUSH1 0xFF AND ISZERO ISZERO ISZERO ISZERO DUP2 MSTORE PUSH1 0x20 ADD PUSH1 0x8 DUP3 ADD PUSH1 0x1 SWAP1 SLOAD SWAP1 PUSH2 0x100 EXP SWAP1 DIV PUSH1 0xFF AND ISZERO ISZERO ISZERO ISZERO DUP2 MSTORE POP POP PUSH2 0x20BA JUMP JUMPDEST SWAP1 POP DUP6 DUP2 LT ISZERO PUSH2 0xA7F JUMPI PUSH1 0x40 MLOAD PUSH32 0x8C379A000000000000000000000000000000000000000000000000000000000 DUP2 MSTORE PUSH1 0x4 ADD PUSH2 0xA76 SWAP1 PUSH2 0x2E37 JUMP JUMPDEST PUSH1 0x40 MLOAD DUP1 SWAP2 SUB SWAP1 REVERT JUMPDEST PUSH2 0xA96 DUP7 DUP6 PUSH1 0x7 ADD SLOAD PUSH2 0x21E2 SWAP1 SWAP2 SWAP1 PUSH4 0xFFFFFFFF AND JUMP JUMPDEST DUP5 PUSH1 0x7 ADD DUP2 SWAP1 SSTORE POP PUSH1 0x0 DUP5 PUSH1 0x0 ADD PUSH1 0x1 SWAP1 SLOAD SWAP1 PUSH2 0x100 EXP SWAP1 DIV PUSH20 0xFFFFFFFFFFFFFFFFFFFFFFFFFFFFFFFFFFFFFFFF AND SWAP1 POP PUSH2 0xADC DUP8 PUSH1 0x9C SLOAD PUSH2 0x21F8 SWAP1 SWAP2 SWAP1 PUSH4 0xFFFFFFFF AND JUMP JUMPDEST PUSH1 0x9C DUP2 SWAP1 SSTORE POP PUSH2 0xB2F DUP2 DUP9 PUSH1 0x97 PUSH1 0x0 SWAP1 SLOAD SWAP1 PUSH2 0x100 EXP SWAP1 DIV PUSH20 0xFFFFFFFFFFFFFFFFFFFFFFFFFFFFFFFFFFFFFFFF AND PUSH20 0xFFFFFFFFFFFFFFFFFFFFFFFFFFFFFFFFFFFFFFFF AND PUSH2 0x2034 SWAP1 SWAP3 SWAP2 SWAP1 PUSH4 0xFFFFFFFF AND JUMP JUMPDEST POP POP POP POP POP POP PUSH1 0x1 PUSH1 0x65 DUP2 SWAP1 SSTORE POP POP POP JUMP JUMPDEST PUSH2 0xB49 PUSH2 0x1FB6 JUMP JUMPDEST PUSH2 0xB53 PUSH1 0x0 PUSH2 0x220E JUMP JUMPDEST JUMP JUMPDEST PUSH1 0x0 DUP1 PUSH1 0x1 SWAP1 SLOAD SWAP1 PUSH2 0x100 EXP SWAP1 DIV PUSH1 0xFF AND ISZERO SWAP1 POP DUP1 DUP1 ISZERO PUSH2 0xB86 JUMPI POP PUSH1 0x1 PUSH1 0x0 DUP1 SLOAD SWAP1 PUSH2 0x100 EXP SWAP1 DIV PUSH1 0xFF AND PUSH1 0xFF AND LT JUMPDEST DUP1 PUSH2 0xBB3 JUMPI POP PUSH2 0xB95 ADDRESS PUSH2 0x22D4 JUMP JUMPDEST ISZERO DUP1 ISZERO PUSH2 0xBB2 JUMPI POP PUSH1 0x1 PUSH1 0x0 DUP1 SLOAD SWAP1 PUSH2 0x100 EXP SWAP1 DIV PUSH1 0xFF AND PUSH1 0xFF AND EQ JUMPDEST JUMPDEST PUSH2 0xBF2 JUMPI PUSH1 0x40 MLOAD PUSH32 0x8C379A000000000000000000000000000000000000000000000000000000000 DUP2 MSTORE PUSH1 0x4 ADD PUSH2 0xBE9 SWAP1 PUSH2 0x2EC9 JUMP JUMPDEST PUSH1 0x40 MLOAD DUP1 SWAP2 SUB SWAP1 REVERT JUMPDEST PUSH1 0x1 PUSH1 0x0 DUP1 PUSH2 0x100 EXP DUP2 SLOAD DUP2 PUSH1 0xFF MUL NOT AND SWAP1 DUP4 PUSH1 0xFF AND MUL OR SWAP1 SSTORE POP DUP1 ISZERO PUSH2 0xC2F JUMPI PUSH1 0x1 PUSH1 0x0 PUSH1 0x1 PUSH2 0x100 EXP DUP2 SLOAD DUP2 PUSH1 0xFF MUL NOT AND SWAP1 DUP4 ISZERO ISZERO MUL OR SWAP1 SSTORE POP JUMPDEST PUSH1 0x0 PUSH20 0xFFFFFFFFFFFFFFFFFFFFFFFFFFFFFFFFFFFFFFFF AND DUP5 PUSH20 0xFFFFFFFFFFFFFFFFFFFFFFFFFFFFFFFFFFFFFFFF AND EQ ISZERO PUSH2 0xC69 JUMPI PUSH1 0x0 DUP1 REVERT JUMPDEST PUSH2 0xC71 PUSH2 0x22F7 JUMP JUMPDEST PUSH2 0xC79 PUSH2 0x2358 JUMP JUMPDEST DUP4 PUSH1 0x97 PUSH1 0x0 PUSH2 0x100 EXP DUP2 SLOAD DUP2 PUSH20 0xFFFFFFFFFFFFFFFFFFFFFFFFFFFFFFFFFFFFFFFF MUL NOT AND SWAP1 DUP4 PUSH20 0xFFFFFFFFFFFFFFFFFFFFFFFFFFFFFFFFFFFFFFFF AND MUL OR SWAP1 SSTORE POP DUP2 PUSH1 0x99 DUP2 SWAP1 SSTORE POP DUP3 PUSH1 0x98 DUP2 SWAP1 SSTORE POP DUP1 ISZERO PUSH2 0xD21 JUMPI PUSH1 0x0 DUP1 PUSH1 0x1 PUSH2 0x100 EXP DUP2 SLOAD DUP2 PUSH1 0xFF MUL NOT AND SWAP1 DUP4 ISZERO ISZERO MUL OR SWAP1 SSTORE POP PUSH32 0x7F26B83FF96E1F2B6A682F133852F6798A09C465DA95921460CEFB3847402498 PUSH1 0x1 PUSH1 0x40 MLOAD PUSH2 0xD18 SWAP2 SWAP1 PUSH2 0x2F3B JUMP JUMPDEST PUSH1 0x40 MLOAD DUP1 SWAP2 SUB SWAP1 LOG1 JUMPDEST POP POP POP POP JUMP JUMPDEST PUSH1 0x9F PUSH1 0x0 SWAP1 SLOAD SWAP1 PUSH2 0x100 EXP SWAP1 DIV PUSH20 0xFFFFFFFFFFFFFFFFFFFFFFFFFFFFFFFFFFFFFFFF AND PUSH20 0xFFFFFFFFFFFFFFFFFFFFFFFFFFFFFFFFFFFFFFFF AND CALLER PUSH20 0xFFFFFFFFFFFFFFFFFFFFFFFFFFFFFFFFFFFFFFFF AND EQ DUP1 PUSH2 0xDB5 JUMPI POP PUSH2 0xD86 PUSH2 0x149A JUMP JUMPDEST PUSH20 0xFFFFFFFFFFFFFFFFFFFFFFFFFFFFFFFFFFFFFFFF AND CALLER PUSH20 0xFFFFFFFFFFFFFFFFFFFFFFFFFFFFFFFFFFFFFFFF AND EQ JUMPDEST PUSH2 0xDF4 JUMPI PUSH1 0x40 MLOAD PUSH32 0x8C379A000000000000000000000000000000000000000000000000000000000 DUP2 MSTORE PUSH1 0x4 ADD PUSH2 0xDEB SWAP1 PUSH2 0x2FA2 JUMP JUMPDEST PUSH1 0x40 MLOAD DUP1 SWAP2 SUB SWAP1 REVERT JUMPDEST DUP2 ADDRESS PUSH20 0xFFFFFFFFFFFFFFFFFFFFFFFFFFFFFFFFFFFFFFFF AND PUSH4 0x90BE10CC PUSH1 0x40 MLOAD DUP2 PUSH4 0xFFFFFFFF AND PUSH1 0xE0 SHL DUP2 MSTORE PUSH1 0x4 ADD PUSH1 0x20 PUSH1 0x40 MLOAD DUP1 DUP4 SUB DUP2 DUP7 DUP1 EXTCODESIZE ISZERO DUP1 ISZERO PUSH2 0xE3B JUMPI PUSH1 0x0 DUP1 REVERT JUMPDEST POP GAS STATICCALL ISZERO DUP1 ISZERO PUSH2 0xE4F JUMPI RETURNDATASIZE PUSH1 0x0 DUP1 RETURNDATACOPY RETURNDATASIZE PUSH1 0x0 REVERT JUMPDEST POP POP POP POP PUSH1 0x40 MLOAD RETURNDATASIZE PUSH1 0x1F NOT PUSH1 0x1F DUP3 ADD AND DUP3 ADD DUP1 PUSH1 0x40 MSTORE POP DUP2 ADD SWAP1 PUSH2 0xE73 SWAP2 SWAP1 PUSH2 0x2C4E JUMP JUMPDEST LT ISZERO PUSH2 0xEB4 JUMPI PUSH1 0x40 MLOAD PUSH32 0x8C379A000000000000000000000000000000000000000000000000000000000 DUP2 MSTORE PUSH1 0x4 ADD PUSH2 0xEAB SWAP1 PUSH2 0x305A JUMP JUMPDEST PUSH1 0x40 MLOAD DUP1 SWAP2 SUB SWAP1 REVERT JUMPDEST PUSH1 0x0 DUP6 GT PUSH2 0xEF7 JUMPI PUSH1 0x40 MLOAD PUSH32 0x8C379A000000000000000000000000000000000000000000000000000000000 DUP2 MSTORE PUSH1 0x4 ADD PUSH2 0xEEE SWAP1 PUSH2 0x30EC JUMP JUMPDEST PUSH1 0x40 MLOAD DUP1 SWAP2 SUB SWAP1 REVERT JUMPDEST PUSH1 0x0 DUP3 GT PUSH2 0xF3A JUMPI PUSH1 0x40 MLOAD PUSH32 0x8C379A000000000000000000000000000000000000000000000000000000000 DUP2 MSTORE PUSH1 0x4 ADD PUSH2 0xF31 SWAP1 PUSH2 0x3158 JUMP JUMPDEST PUSH1 0x40 MLOAD DUP1 SWAP2 SUB SWAP1 REVERT JUMPDEST PUSH1 0x1 DUP5 LT ISZERO PUSH2 0xF7E JUMPI PUSH1 0x40 MLOAD PUSH32 0x8C379A000000000000000000000000000000000000000000000000000000000 DUP2 MSTORE PUSH1 0x4 ADD PUSH2 0xF75 SWAP1 PUSH2 0x31EA JUMP JUMPDEST PUSH1 0x40 MLOAD DUP1 SWAP2 SUB SWAP1 REVERT JUMPDEST PUSH1 0x0 ADDRESS PUSH20 0xFFFFFFFFFFFFFFFFFFFFFFFFFFFFFFFFFFFFFFFF AND PUSH4 0xF7C469F0 DUP11 PUSH1 0x40 MLOAD DUP3 PUSH4 0xFFFFFFFF AND PUSH1 0xE0 SHL DUP2 MSTORE PUSH1 0x4 ADD PUSH2 0xFB9 SWAP2 SWAP1 PUSH2 0x2792 JUMP JUMPDEST PUSH1 0x20 PUSH1 0x40 MLOAD DUP1 DUP4 SUB DUP2 DUP7 DUP1 EXTCODESIZE ISZERO DUP1 ISZERO PUSH2 0xFD1 JUMPI PUSH1 0x0 DUP1 REVERT JUMPDEST POP GAS STATICCALL ISZERO DUP1 ISZERO PUSH2 0xFE5 JUMPI RETURNDATASIZE PUSH1 0x0 DUP1 RETURNDATACOPY RETURNDATASIZE PUSH1 0x0 REVERT JUMPDEST POP POP POP POP PUSH1 0x40 MLOAD RETURNDATASIZE PUSH1 0x1F NOT PUSH1 0x1F DUP3 ADD AND DUP3 ADD DUP1 PUSH1 0x40 MSTORE POP DUP2 ADD SWAP1 PUSH2 0x1009 SWAP2 SWAP1 PUSH2 0x321F JUMP JUMPDEST SWAP1 POP PUSH1 0x0 PUSH2 0x1020 DUP9 DUP11 PUSH2 0x21E2 SWAP1 SWAP2 SWAP1 PUSH4 0xFFFFFFFF AND JUMP JUMPDEST SWAP1 POP PUSH1 0x40 MLOAD DUP1 PUSH2 0x160 ADD PUSH1 0x40 MSTORE DUP1 PUSH1 0x1 ISZERO ISZERO DUP2 MSTORE PUSH1 0x20 ADD DUP12 PUSH20 0xFFFFFFFFFFFFFFFFFFFFFFFFFFFFFFFFFFFFFFFF AND DUP2 MSTORE PUSH1 0x20 ADD DUP3 DUP2 MSTORE PUSH1 0x20 ADD DUP11 DUP2 MSTORE PUSH1 0x20 ADD DUP9 DUP2 MSTORE PUSH1 0x20 ADD DUP8 DUP2 MSTORE PUSH1 0x20 ADD DUP7 ISZERO ISZERO DUP2 MSTORE PUSH1 0x20 ADD DUP6 DUP2 MSTORE PUSH1 0x20 ADD PUSH1 0x0 DUP2 MSTORE PUSH1 0x20 ADD PUSH1 0x0 ISZERO ISZERO DUP2 MSTORE PUSH1 0x20 ADD DUP5 ISZERO ISZERO DUP2 MSTORE POP PUSH1 0x9B PUSH1 0x0 DUP5 DUP2 MSTORE PUSH1 0x20 ADD SWAP1 DUP2 MSTORE PUSH1 0x20 ADD PUSH1 0x0 KECCAK256 PUSH1 0x0 DUP3 ADD MLOAD DUP2 PUSH1 0x0 ADD PUSH1 0x0 PUSH2 0x100 EXP DUP2 SLOAD DUP2 PUSH1 0xFF MUL NOT AND SWAP1 DUP4 ISZERO ISZERO MUL OR SWAP1 SSTORE POP PUSH1 0x20 DUP3 ADD MLOAD DUP2 PUSH1 0x0 ADD PUSH1 0x1 PUSH2 0x100 EXP DUP2 SLOAD DUP2 PUSH20 0xFFFFFFFFFFFFFFFFFFFFFFFFFFFFFFFFFFFFFFFF MUL NOT AND SWAP1 DUP4 PUSH20 0xFFFFFFFFFFFFFFFFFFFFFFFFFFFFFFFFFFFFFFFF AND MUL OR SWAP1 SSTORE POP PUSH1 0x40 DUP3 ADD MLOAD DUP2 PUSH1 0x1 ADD SSTORE PUSH1 0x60 DUP3 ADD MLOAD DUP2 PUSH1 0x2 ADD SSTORE PUSH1 0x80 DUP3 ADD MLOAD DUP2 PUSH1 0x3 ADD SSTORE PUSH1 0xA0 DUP3 ADD MLOAD DUP2 PUSH1 0x4 ADD SSTORE PUSH1 0xC0 DUP3 ADD MLOAD DUP2 PUSH1 0x5 ADD PUSH1 0x0 PUSH2 0x100 EXP DUP2 SLOAD DUP2 PUSH1 0xFF MUL NOT AND SWAP1 DUP4 ISZERO ISZERO MUL OR SWAP1 SSTORE POP PUSH1 0xE0 DUP3 ADD MLOAD DUP2 PUSH1 0x6 ADD SSTORE PUSH2 0x100 DUP3 ADD MLOAD DUP2 PUSH1 0x7 ADD SSTORE PUSH2 0x120 DUP3 ADD MLOAD DUP2 PUSH1 0x8 ADD PUSH1 0x0 PUSH2 0x100 EXP DUP2 SLOAD DUP2 PUSH1 0xFF MUL NOT AND SWAP1 DUP4 ISZERO ISZERO MUL OR SWAP1 SSTORE POP PUSH2 0x140 DUP3 ADD MLOAD DUP2 PUSH1 0x8 ADD PUSH1 0x1 PUSH2 0x100 EXP DUP2 SLOAD DUP2 PUSH1 0xFF MUL NOT AND SWAP1 DUP4 ISZERO ISZERO MUL OR SWAP1 SSTORE POP SWAP1 POP POP PUSH2 0x11C0 DUP5 PUSH1 0x9C SLOAD PUSH2 0x21E2 SWAP1 SWAP2 SWAP1 PUSH4 0xFFFFFFFF AND JUMP JUMPDEST PUSH1 0x9C DUP2 SWAP1 SSTORE POP PUSH1 0x9A DUP3 SWAP1 DUP1 PUSH1 0x1 DUP2 SLOAD ADD DUP1 DUP3 SSTORE DUP1 SWAP2 POP POP PUSH1 0x1 SWAP1 SUB SWAP1 PUSH1 0x0 MSTORE PUSH1 0x20 PUSH1 0x0 KECCAK256 ADD PUSH1 0x0 SWAP1 SWAP2 SWAP1 SWAP2 SWAP1 SWAP2 POP SSTORE PUSH1 0x0 PUSH1 0x9D PUSH1 0x0 DUP13 PUSH20 0xFFFFFFFFFFFFFFFFFFFFFFFFFFFFFFFFFFFFFFFF AND PUSH20 0xFFFFFFFFFFFFFFFFFFFFFFFFFFFFFFFFFFFFFFFF AND DUP2 MSTORE PUSH1 0x20 ADD SWAP1 DUP2 MSTORE PUSH1 0x20 ADD PUSH1 0x0 KECCAK256 SLOAD SWAP1 POP PUSH2 0x1247 PUSH1 0x1 DUP3 PUSH2 0x21E2 SWAP1 SWAP2 SWAP1 PUSH4 0xFFFFFFFF AND JUMP JUMPDEST PUSH1 0x9D PUSH1 0x0 DUP14 PUSH20 0xFFFFFFFFFFFFFFFFFFFFFFFFFFFFFFFFFFFFFFFF AND PUSH20 0xFFFFFFFFFFFFFFFFFFFFFFFFFFFFFFFFFFFFFFFF AND DUP2 MSTORE PUSH1 0x20 ADD SWAP1 DUP2 MSTORE PUSH1 0x20 ADD PUSH1 0x0 KECCAK256 DUP2 SWAP1 SSTORE POP PUSH1 0x0 PUSH1 0x9E PUSH1 0x0 DUP6 DUP2 MSTORE PUSH1 0x20 ADD SWAP1 DUP2 MSTORE PUSH1 0x20 ADD PUSH1 0x0 KECCAK256 DUP2 SWAP1 SSTORE POP PUSH32 0x7DEECC243DEC36156ECE079AE8E71CB3F5B8A86D4EE141E3733216E23614E0C3 DUP4 PUSH1 0x40 MLOAD PUSH2 0x12D2 SWAP2 SWAP1 PUSH2 0x2BA1 JUMP JUMPDEST PUSH1 0x40 MLOAD DUP1 SWAP2 SUB SWAP1 LOG1 POP POP POP POP POP POP POP POP POP POP POP JUMP JUMPDEST PUSH2 0x12EF PUSH2 0x2647 JUMP JUMPDEST PUSH1 0x9B PUSH1 0x0 PUSH2 0x1348 DUP5 PUSH1 0x1 PUSH1 0x9D PUSH1 0x0 DUP9 PUSH20 0xFFFFFFFFFFFFFFFFFFFFFFFFFFFFFFFFFFFFFFFF AND PUSH20 0xFFFFFFFFFFFFFFFFFFFFFFFFFFFFFFFFFFFFFFFF AND DUP2 MSTORE PUSH1 0x20 ADD SWAP1 DUP2 MSTORE PUSH1 0x20 ADD PUSH1 0x0 KECCAK256 SLOAD PUSH2 0x1343 SWAP2 SWAP1 PUSH2 0x327B JUMP JUMPDEST PUSH2 0x1467 JUMP JUMPDEST DUP2 MSTORE PUSH1 0x20 ADD SWAP1 DUP2 MSTORE PUSH1 0x20 ADD PUSH1 0x0 KECCAK256 PUSH1 0x40 MLOAD DUP1 PUSH2 0x160 ADD PUSH1 0x40 MSTORE SWAP1 DUP2 PUSH1 0x0 DUP3 ADD PUSH1 0x0 SWAP1 SLOAD SWAP1 PUSH2 0x100 EXP SWAP1 DIV PUSH1 0xFF AND ISZERO ISZERO ISZERO ISZERO DUP2 MSTORE PUSH1 0x20 ADD PUSH1 0x0 DUP3 ADD PUSH1 0x1 SWAP1 SLOAD SWAP1 PUSH2 0x100 EXP SWAP1 DIV PUSH20 0xFFFFFFFFFFFFFFFFFFFFFFFFFFFFFFFFFFFFFFFF AND PUSH20 0xFFFFFFFFFFFFFFFFFFFFFFFFFFFFFFFFFFFFFFFF AND PUSH20 0xFFFFFFFFFFFFFFFFFFFFFFFFFFFFFFFFFFFFFFFF AND DUP2 MSTORE PUSH1 0x20 ADD PUSH1 0x1 DUP3 ADD SLOAD DUP2 MSTORE PUSH1 0x20 ADD PUSH1 0x2 DUP3 ADD SLOAD DUP2 MSTORE PUSH1 0x20 ADD PUSH1 0x3 DUP3 ADD SLOAD DUP2 MSTORE PUSH1 0x20 ADD PUSH1 0x4 DUP3 ADD SLOAD DUP2 MSTORE PUSH1 0x20 ADD PUSH1 0x5 DUP3 ADD PUSH1 0x0 SWAP1 SLOAD SWAP1 PUSH2 0x100 EXP SWAP1 DIV PUSH1 0xFF AND ISZERO ISZERO ISZERO ISZERO DUP2 MSTORE PUSH1 0x20 ADD PUSH1 0x6 DUP3 ADD SLOAD DUP2 MSTORE PUSH1 0x20 ADD PUSH1 0x7 DUP3 ADD SLOAD DUP2 MSTORE PUSH1 0x20 ADD PUSH1 0x8 DUP3 ADD PUSH1 0x0 SWAP1 SLOAD SWAP1 PUSH2 0x100 EXP SWAP1 DIV PUSH1 0xFF AND ISZERO ISZERO ISZERO ISZERO DUP2 MSTORE PUSH1 0x20 ADD PUSH1 0x8 DUP3 ADD PUSH1 0x1 SWAP1 SLOAD SWAP1 PUSH2 0x100 EXP SWAP1 DIV PUSH1 0xFF AND ISZERO ISZERO ISZERO ISZERO DUP2 MSTORE POP POP SWAP1 POP SWAP2 SWAP1 POP JUMP JUMPDEST PUSH1 0x0 DUP3 DUP3 PUSH1 0x40 MLOAD PUSH1 0x20 ADD PUSH2 0x147C SWAP3 SWAP2 SWAP1 PUSH2 0x3318 JUMP JUMPDEST PUSH1 0x40 MLOAD PUSH1 0x20 DUP2 DUP4 SUB SUB DUP2 MSTORE SWAP1 PUSH1 0x40 MSTORE DUP1 MLOAD SWAP1 PUSH1 0x20 ADD KECCAK256 SWAP1 POP SWAP3 SWAP2 POP POP JUMP JUMPDEST PUSH1 0x0 PUSH1 0x33 PUSH1 0x0 SWAP1 SLOAD SWAP1 PUSH2 0x100 EXP SWAP1 DIV PUSH20 0xFFFFFFFFFFFFFFFFFFFFFFFFFFFFFFFFFFFFFFFF AND SWAP1 POP SWAP1 JUMP JUMPDEST PUSH1 0x0 PUSH2 0x1585 PUSH1 0x9C SLOAD PUSH1 0x97 PUSH1 0x0 SWAP1 SLOAD SWAP1 PUSH2 0x100 EXP SWAP1 DIV PUSH20 0xFFFFFFFFFFFFFFFFFFFFFFFFFFFFFFFFFFFFFFFF AND PUSH20 0xFFFFFFFFFFFFFFFFFFFFFFFFFFFFFFFFFFFFFFFF AND PUSH4 0x70A08231 ADDRESS PUSH1 0x40 MLOAD DUP3 PUSH4 0xFFFFFFFF AND PUSH1 0xE0 SHL DUP2 MSTORE PUSH1 0x4 ADD PUSH2 0x1527 SWAP2 SWAP1 PUSH2 0x2792 JUMP JUMPDEST PUSH1 0x20 PUSH1 0x40 MLOAD DUP1 DUP4 SUB DUP2 DUP7 DUP1 EXTCODESIZE ISZERO DUP1 ISZERO PUSH2 0x153F JUMPI PUSH1 0x0 DUP1 REVERT JUMPDEST POP GAS STATICCALL ISZERO DUP1 ISZERO PUSH2 0x1553 JUMPI RETURNDATASIZE PUSH1 0x0 DUP1 RETURNDATACOPY RETURNDATASIZE PUSH1 0x0 REVERT JUMPDEST POP POP POP POP PUSH1 0x40 MLOAD RETURNDATASIZE PUSH1 0x1F NOT PUSH1 0x1F DUP3 ADD AND DUP3 ADD DUP1 PUSH1 0x40 MSTORE POP DUP2 ADD SWAP1 PUSH2 0x1577 SWAP2 SWAP1 PUSH2 0x2C4E JUMP JUMPDEST PUSH2 0x21F8 SWAP1 SWAP2 SWAP1 PUSH4 0xFFFFFFFF AND JUMP JUMPDEST SWAP1 POP SWAP1 JUMP JUMPDEST PUSH1 0x98 SLOAD DUP2 JUMP JUMPDEST PUSH2 0x1598 PUSH2 0x2647 JUMP JUMPDEST PUSH1 0x9B PUSH1 0x0 DUP4 DUP2 MSTORE PUSH1 0x20 ADD SWAP1 DUP2 MSTORE PUSH1 0x20 ADD PUSH1 0x0 KECCAK256 PUSH1 0x40 MLOAD DUP1 PUSH2 0x160 ADD PUSH1 0x40 MSTORE SWAP1 DUP2 PUSH1 0x0 DUP3 ADD PUSH1 0x0 SWAP1 SLOAD SWAP1 PUSH2 0x100 EXP SWAP1 DIV PUSH1 0xFF AND ISZERO ISZERO ISZERO ISZERO DUP2 MSTORE PUSH1 0x20 ADD PUSH1 0x0 DUP3 ADD PUSH1 0x1 SWAP1 SLOAD SWAP1 PUSH2 0x100 EXP SWAP1 DIV PUSH20 0xFFFFFFFFFFFFFFFFFFFFFFFFFFFFFFFFFFFFFFFF AND PUSH20 0xFFFFFFFFFFFFFFFFFFFFFFFFFFFFFFFFFFFFFFFF AND PUSH20 0xFFFFFFFFFFFFFFFFFFFFFFFFFFFFFFFFFFFFFFFF AND DUP2 MSTORE PUSH1 0x20 ADD PUSH1 0x1 DUP3 ADD SLOAD DUP2 MSTORE PUSH1 0x20 ADD PUSH1 0x2 DUP3 ADD SLOAD DUP2 MSTORE PUSH1 0x20 ADD PUSH1 0x3 DUP3 ADD SLOAD DUP2 MSTORE PUSH1 0x20 ADD PUSH1 0x4 DUP3 ADD SLOAD DUP2 MSTORE PUSH1 0x20 ADD PUSH1 0x5 DUP3 ADD PUSH1 0x0 SWAP1 SLOAD SWAP1 PUSH2 0x100 EXP SWAP1 DIV PUSH1 0xFF AND ISZERO ISZERO ISZERO ISZERO DUP2 MSTORE PUSH1 0x20 ADD PUSH1 0x6 DUP3 ADD SLOAD DUP2 MSTORE PUSH1 0x20 ADD PUSH1 0x7 DUP3 ADD SLOAD DUP2 MSTORE PUSH1 0x20 ADD PUSH1 0x8 DUP3 ADD PUSH1 0x0 SWAP1 SLOAD SWAP1 PUSH2 0x100 EXP SWAP1 DIV PUSH1 0xFF AND ISZERO ISZERO ISZERO ISZERO DUP2 MSTORE PUSH1 0x20 ADD PUSH1 0x8 DUP3 ADD PUSH1 0x1 SWAP1 SLOAD SWAP1 PUSH2 0x100 EXP SWAP1 DIV PUSH1 0xFF AND ISZERO ISZERO ISZERO ISZERO DUP2 MSTORE POP POP SWAP1 POP SWAP2 SWAP1 POP JUMP JUMPDEST PUSH2 0x16C4 PUSH2 0x1FB6 JUMP JUMPDEST DUP1 PUSH1 0x1 ISZERO ISZERO PUSH1 0x9B PUSH1 0x0 DUP4 DUP2 MSTORE PUSH1 0x20 ADD SWAP1 DUP2 MSTORE PUSH1 0x20 ADD PUSH1 0x0 KECCAK256 PUSH1 0x0 ADD PUSH1 0x0 SWAP1 SLOAD SWAP1 PUSH2 0x100 EXP SWAP1 DIV PUSH1 0xFF AND ISZERO ISZERO EQ PUSH2 0x16F9 JUMPI PUSH1 0x0 DUP1 REVERT JUMPDEST PUSH1 0x0 ISZERO ISZERO PUSH1 0x9B PUSH1 0x0 DUP4 DUP2 MSTORE PUSH1 0x20 ADD SWAP1 DUP2 MSTORE PUSH1 0x20 ADD PUSH1 0x0 KECCAK256 PUSH1 0x8 ADD PUSH1 0x0 SWAP1 SLOAD SWAP1 PUSH2 0x100 EXP SWAP1 DIV PUSH1 0xFF AND ISZERO ISZERO EQ PUSH2 0x172D JUMPI PUSH1 0x0 DUP1 REVERT JUMPDEST PUSH1 0x0 PUSH1 0x9B PUSH1 0x0 DUP5 DUP2 MSTORE PUSH1 0x20 ADD SWAP1 DUP2 MSTORE PUSH1 0x20 ADD PUSH1 0x0 KECCAK256 SWAP1 POP PUSH1 0x1 ISZERO ISZERO DUP2 PUSH1 0x5 ADD PUSH1 0x0 SWAP1 SLOAD SWAP1 PUSH2 0x100 EXP SWAP1 DIV PUSH1 0xFF AND ISZERO ISZERO EQ PUSH2 0x179C JUMPI PUSH1 0x40 MLOAD PUSH32 0x8C379A000000000000000000000000000000000000000000000000000000000 DUP2 MSTORE PUSH1 0x4 ADD PUSH2 0x1793 SWAP1 PUSH2 0x33B6 JUMP JUMPDEST PUSH1 0x40 MLOAD DUP1 SWAP2 SUB SWAP1 REVERT JUMPDEST PUSH1 0x0 PUSH2 0x18B1 DUP3 PUSH1 0x40 MLOAD DUP1 PUSH2 0x160 ADD PUSH1 0x40 MSTORE SWAP1 DUP2 PUSH1 0x0 DUP3 ADD PUSH1 0x0 SWAP1 SLOAD SWAP1 PUSH2 0x100 EXP SWAP1 DIV PUSH1 0xFF AND ISZERO ISZERO ISZERO ISZERO DUP2 MSTORE PUSH1 0x20 ADD PUSH1 0x0 DUP3 ADD PUSH1 0x1 SWAP1 SLOAD SWAP1 PUSH2 0x100 EXP SWAP1 DIV PUSH20 0xFFFFFFFFFFFFFFFFFFFFFFFFFFFFFFFFFFFFFFFF AND PUSH20 0xFFFFFFFFFFFFFFFFFFFFFFFFFFFFFFFFFFFFFFFF AND PUSH20 0xFFFFFFFFFFFFFFFFFFFFFFFFFFFFFFFFFFFFFFFF AND DUP2 MSTORE PUSH1 0x20 ADD PUSH1 0x1 DUP3 ADD SLOAD DUP2 MSTORE PUSH1 0x20 ADD PUSH1 0x2 DUP3 ADD SLOAD DUP2 MSTORE PUSH1 0x20 ADD PUSH1 0x3 DUP3 ADD SLOAD DUP2 MSTORE PUSH1 0x20 ADD PUSH1 0x4 DUP3 ADD SLOAD DUP2 MSTORE PUSH1 0x20 ADD PUSH1 0x5 DUP3 ADD PUSH1 0x0 SWAP1 SLOAD SWAP1 PUSH2 0x100 EXP SWAP1 DIV PUSH1 0xFF AND ISZERO ISZERO ISZERO ISZERO DUP2 MSTORE PUSH1 0x20 ADD PUSH1 0x6 DUP3 ADD SLOAD DUP2 MSTORE PUSH1 0x20 ADD PUSH1 0x7 DUP3 ADD SLOAD DUP2 MSTORE PUSH1 0x20 ADD PUSH1 0x8 DUP3 ADD PUSH1 0x0 SWAP1 SLOAD SWAP1 PUSH2 0x100 EXP SWAP1 DIV PUSH1 0xFF AND ISZERO ISZERO ISZERO ISZERO DUP2 MSTORE PUSH1 0x20 ADD PUSH1 0x8 DUP3 ADD PUSH1 0x1 SWAP1 SLOAD SWAP1 PUSH2 0x100 EXP SWAP1 DIV PUSH1 0xFF AND ISZERO ISZERO ISZERO ISZERO DUP2 MSTORE POP POP PUSH2 0x20BA JUMP JUMPDEST SWAP1 POP PUSH1 0x0 DUP2 GT ISZERO PUSH2 0x18C7 JUMPI PUSH2 0x18C6 DUP5 DUP3 PUSH2 0x77E JUMP JUMPDEST JUMPDEST PUSH1 0x0 PUSH2 0x18E4 DUP4 PUSH1 0x7 ADD SLOAD DUP5 PUSH1 0x6 ADD SLOAD PUSH2 0x21F8 SWAP1 SWAP2 SWAP1 PUSH4 0xFFFFFFFF AND JUMP JUMPDEST SWAP1 POP PUSH2 0x18FB DUP2 PUSH1 0x9C SLOAD PUSH2 0x21F8 SWAP1 SWAP2 SWAP1 PUSH4 0xFFFFFFFF AND JUMP JUMPDEST PUSH1 0x9C DUP2 SWAP1 SSTORE POP PUSH1 0x1 DUP4 PUSH1 0x8 ADD PUSH1 0x0 PUSH2 0x100 EXP DUP2 SLOAD DUP2 PUSH1 0xFF MUL NOT AND SWAP1 DUP4 ISZERO ISZERO MUL OR SWAP1 SSTORE POP POP POP POP POP POP JUMP JUMPDEST PUSH1 0x9F PUSH1 0x0 SWAP1 SLOAD SWAP1 PUSH2 0x100 EXP SWAP1 DIV PUSH20 0xFFFFFFFFFFFFFFFFFFFFFFFFFFFFFFFFFFFFFFFF AND DUP2 JUMP JUMPDEST PUSH1 0x0 DUP2 PUSH1 0x1 ISZERO ISZERO PUSH1 0x9B PUSH1 0x0 DUP4 DUP2 MSTORE PUSH1 0x20 ADD SWAP1 DUP2 MSTORE PUSH1 0x20 ADD PUSH1 0x0 KECCAK256 PUSH1 0x0 ADD PUSH1 0x0 SWAP1 SLOAD SWAP1 PUSH2 0x100 EXP SWAP1 DIV PUSH1 0xFF AND ISZERO ISZERO EQ PUSH2 0x1982 JUMPI PUSH1 0x0 DUP1 REVERT JUMPDEST PUSH1 0x0 ISZERO ISZERO PUSH1 0x9B PUSH1 0x0 DUP4 DUP2 MSTORE PUSH1 0x20 ADD SWAP1 DUP2 MSTORE PUSH1 0x20 ADD PUSH1 0x0 KECCAK256 PUSH1 0x8 ADD PUSH1 0x0 SWAP1 SLOAD SWAP1 PUSH2 0x100 EXP SWAP1 DIV PUSH1 0xFF AND ISZERO ISZERO EQ PUSH2 0x19B6 JUMPI PUSH1 0x0 DUP1 REVERT JUMPDEST PUSH1 0x0 PUSH1 0x9B PUSH1 0x0 DUP6 DUP2 MSTORE PUSH1 0x20 ADD SWAP1 DUP2 MSTORE PUSH1 0x20 ADD PUSH1 0x0 KECCAK256 SWAP1 POP PUSH2 0x1AE0 DUP2 PUSH1 0x40 MLOAD DUP1 PUSH2 0x160 ADD PUSH1 0x40 MSTORE SWAP1 DUP2 PUSH1 0x0 DUP3 ADD PUSH1 0x0 SWAP1 SLOAD SWAP1 PUSH2 0x100 EXP SWAP1 DIV PUSH1 0xFF AND ISZERO ISZERO ISZERO ISZERO DUP2 MSTORE PUSH1 0x20 ADD PUSH1 0x0 DUP3 ADD PUSH1 0x1 SWAP1 SLOAD SWAP1 PUSH2 0x100 EXP SWAP1 DIV PUSH20 0xFFFFFFFFFFFFFFFFFFFFFFFFFFFFFFFFFFFFFFFF AND PUSH20 0xFFFFFFFFFFFFFFFFFFFFFFFFFFFFFFFFFFFFFFFF AND PUSH20 0xFFFFFFFFFFFFFFFFFFFFFFFFFFFFFFFFFFFFFFFF AND DUP2 MSTORE PUSH1 0x20 ADD PUSH1 0x1 DUP3 ADD SLOAD DUP2 MSTORE PUSH1 0x20 ADD PUSH1 0x2 DUP3 ADD SLOAD DUP2 MSTORE PUSH1 0x20 ADD PUSH1 0x3 DUP3 ADD SLOAD DUP2 MSTORE PUSH1 0x20 ADD PUSH1 0x4 DUP3 ADD SLOAD DUP2 MSTORE PUSH1 0x20 ADD PUSH1 0x5 DUP3 ADD PUSH1 0x0 SWAP1 SLOAD SWAP1 PUSH2 0x100 EXP SWAP1 DIV PUSH1 0xFF AND ISZERO ISZERO ISZERO ISZERO DUP2 MSTORE PUSH1 0x20 ADD PUSH1 0x6 DUP3 ADD SLOAD DUP2 MSTORE PUSH1 0x20 ADD PUSH1 0x7 DUP3 ADD SLOAD DUP2 MSTORE PUSH1 0x20 ADD PUSH1 0x8 DUP3 ADD PUSH1 0x0 SWAP1 SLOAD SWAP1 PUSH2 0x100 EXP SWAP1 DIV PUSH1 0xFF AND ISZERO ISZERO ISZERO ISZERO DUP2 MSTORE PUSH1 0x20 ADD PUSH1 0x8 DUP3 ADD PUSH1 0x1 SWAP1 SLOAD SWAP1 PUSH2 0x100 EXP SWAP1 DIV PUSH1 0xFF AND ISZERO ISZERO ISZERO ISZERO DUP2 MSTORE POP POP PUSH2 0x20BA JUMP JUMPDEST SWAP3 POP POP POP SWAP2 SWAP1 POP JUMP JUMPDEST PUSH2 0x1AF1 PUSH2 0x1FB6 JUMP JUMPDEST PUSH1 0x0 PUSH20 0xFFFFFFFFFFFFFFFFFFFFFFFFFFFFFFFFFFFFFFFF AND DUP2 PUSH20 0xFFFFFFFFFFFFFFFFFFFFFFFFFFFFFFFFFFFFFFFF AND EQ ISZERO PUSH2 0x1B61 JUMPI PUSH1 0x40 MLOAD PUSH32 0x8C379A000000000000000000000000000000000000000000000000000000000 DUP2 MSTORE PUSH1 0x4 ADD PUSH2 0x1B58 SWAP1 PUSH2 0x3448 JUMP JUMPDEST PUSH1 0x40 MLOAD DUP1 SWAP2 SUB SWAP1 REVERT JUMPDEST PUSH2 0x1B6A DUP2 PUSH2 0x220E JUMP JUMPDEST POP JUMP JUMPDEST PUSH2 0x1B75 PUSH2 0x2647 JUMP JUMPDEST PUSH2 0x1B87 PUSH2 0x1B82 DUP5 DUP5 PUSH2 0x1467 JUMP JUMPDEST PUSH2 0x1590 JUMP JUMPDEST SWAP1 POP SWAP3 SWAP2 POP POP JUMP JUMPDEST PUSH1 0x0 PUSH2 0x1BDA DUP3 PUSH1 0x9D PUSH1 0x0 DUP6 PUSH20 0xFFFFFFFFFFFFFFFFFFFFFFFFFFFFFFFFFFFFFFFF AND PUSH20 0xFFFFFFFFFFFFFFFFFFFFFFFFFFFFFFFFFFFFFFFF AND DUP2 MSTORE PUSH1 0x20 ADD SWAP1 DUP2 MSTORE PUSH1 0x20 ADD PUSH1 0x0 KECCAK256 SLOAD PUSH2 0x1467 JUMP JUMPDEST SWAP1 POP SWAP2 SWAP1 POP JUMP JUMPDEST PUSH1 0x0 PUSH2 0x1BEB PUSH2 0x51D JUMP JUMPDEST DUP3 LT PUSH2 0x1C2C JUMPI PUSH1 0x40 MLOAD PUSH32 0x8C379A000000000000000000000000000000000000000000000000000000000 DUP2 MSTORE PUSH1 0x4 ADD PUSH2 0x1C23 SWAP1 PUSH2 0x34DA JUMP JUMPDEST PUSH1 0x40 MLOAD DUP1 SWAP2 SUB SWAP1 REVERT JUMPDEST PUSH1 0x9A DUP3 DUP2 SLOAD DUP2 LT PUSH2 0x1C40 JUMPI PUSH2 0x1C3F PUSH2 0x34FA JUMP JUMPDEST JUMPDEST SWAP1 PUSH1 0x0 MSTORE PUSH1 0x20 PUSH1 0x0 KECCAK256 ADD SLOAD SWAP1 POP SWAP2 SWAP1 POP JUMP JUMPDEST PUSH1 0x2 PUSH1 0x65 SLOAD EQ ISZERO PUSH2 0x1C98 JUMPI PUSH1 0x40 MLOAD PUSH32 0x8C379A000000000000000000000000000000000000000000000000000000000 DUP2 MSTORE PUSH1 0x4 ADD PUSH2 0x1C8F SWAP1 PUSH2 0x2C19 JUMP JUMPDEST PUSH1 0x40 MLOAD DUP1 SWAP2 SUB SWAP1 REVERT JUMPDEST PUSH1 0x2 PUSH1 0x65 DUP2 SWAP1 SSTORE POP PUSH1 0x0 PUSH1 0x9B PUSH1 0x0 DUP4 DUP2 MSTORE PUSH1 0x20 ADD SWAP1 DUP2 MSTORE PUSH1 0x20 ADD PUSH1 0x0 KECCAK256 SWAP1 POP PUSH1 0x0 DUP2 PUSH1 0x0 ADD PUSH1 0x1 SWAP1 SLOAD SWAP1 PUSH2 0x100 EXP SWAP1 DIV PUSH20 0xFFFFFFFFFFFFFFFFFFFFFFFFFFFFFFFFFFFFFFFF AND PUSH20 0xFFFFFFFFFFFFFFFFFFFFFFFFFFFFFFFFFFFFFFFF AND CALLER PUSH20 0xFFFFFFFFFFFFFFFFFFFFFFFFFFFFFFFFFFFFFFFF AND EQ SWAP1 POP PUSH1 0x0 PUSH2 0x1D18 PUSH2 0x149A JUMP JUMPDEST PUSH20 0xFFFFFFFFFFFFFFFFFFFFFFFFFFFFFFFFFFFFFFFF AND CALLER PUSH20 0xFFFFFFFFFFFFFFFFFFFFFFFFFFFFFFFFFFFFFFFF AND EQ SWAP1 POP DUP2 DUP1 PUSH2 0x1D51 JUMPI POP DUP1 JUMPDEST PUSH2 0x1D90 JUMPI PUSH1 0x40 MLOAD PUSH32 0x8C379A000000000000000000000000000000000000000000000000000000000 DUP2 MSTORE PUSH1 0x4 ADD PUSH2 0x1D87 SWAP1 PUSH2 0x2DA5 JUMP JUMPDEST PUSH1 0x40 MLOAD DUP1 SWAP2 SUB SWAP1 REVERT JUMPDEST PUSH1 0x1 ISZERO ISZERO DUP4 PUSH1 0x8 ADD PUSH1 0x1 SWAP1 SLOAD SWAP1 PUSH2 0x100 EXP SWAP1 DIV PUSH1 0xFF AND ISZERO ISZERO EQ PUSH2 0x1DE8 JUMPI PUSH1 0x40 MLOAD PUSH32 0x8C379A000000000000000000000000000000000000000000000000000000000 DUP2 MSTORE PUSH1 0x4 ADD PUSH2 0x1DDF SWAP1 PUSH2 0x359B JUMP JUMPDEST PUSH1 0x40 MLOAD DUP1 SWAP2 SUB SWAP1 REVERT JUMPDEST PUSH1 0x0 PUSH2 0x1DF2 PUSH2 0x23B1 JUMP JUMPDEST SWAP1 POP PUSH1 0x99 SLOAD DUP2 LT ISZERO PUSH2 0x1E39 JUMPI PUSH1 0x40 MLOAD PUSH32 0x8C379A000000000000000000000000000000000000000000000000000000000 DUP2 MSTORE PUSH1 0x4 ADD PUSH2 0x1E30 SWAP1 PUSH2 0x3607 JUMP JUMPDEST PUSH1 0x40 MLOAD DUP1 SWAP2 SUB SWAP1 REVERT JUMPDEST PUSH1 0x0 PUSH1 0x9E PUSH1 0x0 DUP8 DUP2 MSTORE PUSH1 0x20 ADD SWAP1 DUP2 MSTORE PUSH1 0x20 ADD PUSH1 0x0 KECCAK256 SLOAD EQ PUSH2 0x1E8F JUMPI PUSH1 0x40 MLOAD PUSH32 0x8C379A000000000000000000000000000000000000000000000000000000000 DUP2 MSTORE PUSH1 0x4 ADD PUSH2 0x1E86 SWAP1 PUSH2 0x3673 JUMP JUMPDEST PUSH1 0x40 MLOAD DUP1 SWAP2 SUB SWAP1 REVERT JUMPDEST PUSH1 0x0 PUSH2 0x1EBD PUSH1 0x64 PUSH2 0x1EAF PUSH1 0x98 SLOAD DUP9 PUSH1 0x6 ADD SLOAD PUSH2 0x23B9 SWAP1 SWAP2 SWAP1 PUSH4 0xFFFFFFFF AND JUMP JUMPDEST PUSH2 0x23CF SWAP1 SWAP2 SWAP1 PUSH4 0xFFFFFFFF AND JUMP JUMPDEST SWAP1 POP PUSH2 0x1ED6 DUP2 DUP7 PUSH1 0x7 ADD SLOAD PUSH2 0x21E2 SWAP1 SWAP2 SWAP1 PUSH4 0xFFFFFFFF AND JUMP JUMPDEST DUP6 PUSH1 0x7 ADD DUP2 SWAP1 SSTORE POP DUP1 PUSH1 0x9E PUSH1 0x0 DUP9 DUP2 MSTORE PUSH1 0x20 ADD SWAP1 DUP2 MSTORE PUSH1 0x20 ADD PUSH1 0x0 KECCAK256 DUP2 SWAP1 SSTORE POP PUSH1 0x0 DUP6 PUSH1 0x0 ADD PUSH1 0x1 SWAP1 SLOAD SWAP1 PUSH2 0x100 EXP SWAP1 DIV PUSH20 0xFFFFFFFFFFFFFFFFFFFFFFFFFFFFFFFFFFFFFFFF AND SWAP1 POP PUSH2 0x1F6C DUP2 DUP4 PUSH1 0x97 PUSH1 0x0 SWAP1 SLOAD SWAP1 PUSH2 0x100 EXP SWAP1 DIV PUSH20 0xFFFFFFFFFFFFFFFFFFFFFFFFFFFFFFFFFFFFFFFF AND PUSH20 0xFFFFFFFFFFFFFFFFFFFFFFFFFFFFFFFFFFFFFFFF AND PUSH2 0x2034 SWAP1 SWAP3 SWAP2 SWAP1 PUSH4 0xFFFFFFFF AND JUMP JUMPDEST PUSH32 0xD9215C0345F0D530C5101EDEA49413960423257C62DD4DCC18B5E6C0B63A0227 DUP2 DUP4 PUSH1 0x40 MLOAD PUSH2 0x1F9D SWAP3 SWAP2 SWAP1 PUSH2 0x36E8 JUMP JUMPDEST PUSH1 0x40 MLOAD DUP1 SWAP2 SUB SWAP1 LOG1 POP POP POP POP POP POP PUSH1 0x1 PUSH1 0x65 DUP2 SWAP1 SSTORE POP POP JUMP JUMPDEST PUSH2 0x1FBE PUSH2 0x23E5 JUMP JUMPDEST PUSH20 0xFFFFFFFFFFFFFFFFFFFFFFFFFFFFFFFFFFFFFFFF AND PUSH2 0x1FDC PUSH2 0x149A JUMP JUMPDEST PUSH20 0xFFFFFFFFFFFFFFFFFFFFFFFFFFFFFFFFFFFFFFFF AND EQ PUSH2 0x2032 JUMPI PUSH1 0x40 MLOAD PUSH32 0x8C379A000000000000000000000000000000000000000000000000000000000 DUP2 MSTORE PUSH1 0x4 ADD PUSH2 0x2029 SWAP1 PUSH2 0x375D JUMP JUMPDEST PUSH1 0x40 MLOAD DUP1 SWAP2 SUB SWAP1 REVERT JUMPDEST JUMP JUMPDEST PUSH2 0x20B5 DUP4 PUSH4 0xA9059CBB PUSH1 0xE0 SHL DUP5 DUP5 PUSH1 0x40 MLOAD PUSH1 0x24 ADD PUSH2 0x2053 SWAP3 SWAP2 SWAP1 PUSH2 0x377D JUMP JUMPDEST PUSH1 0x40 MLOAD PUSH1 0x20 DUP2 DUP4 SUB SUB DUP2 MSTORE SWAP1 PUSH1 0x40 MSTORE SWAP1 PUSH28 0xFFFFFFFFFFFFFFFFFFFFFFFFFFFFFFFFFFFFFFFFFFFFFFFFFFFFFFFF NOT AND PUSH1 0x20 DUP3 ADD DUP1 MLOAD PUSH28 0xFFFFFFFFFFFFFFFFFFFFFFFFFFFFFFFFFFFFFFFFFFFFFFFFFFFFFFFF DUP4 DUP2 DUP4 AND OR DUP4 MSTORE POP POP POP POP PUSH2 0x23ED JUMP JUMPDEST POP POP POP JUMP JUMPDEST PUSH1 0x0 DUP1 PUSH2 0x20C5 PUSH2 0x23B1 JUMP JUMPDEST SWAP1 POP DUP3 PUSH1 0x40 ADD MLOAD DUP2 LT DUP1 PUSH2 0x20E2 JUMPI POP PUSH1 0x1 ISZERO ISZERO DUP4 PUSH2 0x120 ADD MLOAD ISZERO ISZERO EQ JUMPDEST ISZERO PUSH2 0x20F1 JUMPI PUSH1 0x0 SWAP2 POP POP PUSH2 0x21DD JUMP JUMPDEST PUSH2 0x210C DUP4 PUSH1 0x80 ADD MLOAD DUP5 PUSH1 0x60 ADD MLOAD PUSH2 0x21E2 SWAP1 SWAP2 SWAP1 PUSH4 0xFFFFFFFF AND JUMP JUMPDEST DUP2 LT PUSH2 0x2136 JUMPI PUSH2 0x212E DUP4 PUSH2 0x100 ADD MLOAD DUP5 PUSH1 0xE0 ADD MLOAD PUSH2 0x21F8 SWAP1 SWAP2 SWAP1 PUSH4 0xFFFFFFFF AND JUMP JUMPDEST SWAP2 POP POP PUSH2 0x21DD JUMP JUMPDEST PUSH1 0x0 PUSH2 0x214F DUP5 PUSH1 0x60 ADD MLOAD DUP4 PUSH2 0x21F8 SWAP1 SWAP2 SWAP1 PUSH4 0xFFFFFFFF AND JUMP JUMPDEST SWAP1 POP PUSH1 0x0 DUP5 PUSH1 0xA0 ADD MLOAD SWAP1 POP PUSH1 0x0 PUSH2 0x216F DUP3 DUP5 PUSH2 0x23CF SWAP1 SWAP2 SWAP1 PUSH4 0xFFFFFFFF AND JUMP JUMPDEST SWAP1 POP PUSH1 0x0 PUSH2 0x2186 DUP4 DUP4 PUSH2 0x23B9 SWAP1 SWAP2 SWAP1 PUSH4 0xFFFFFFFF AND JUMP JUMPDEST SWAP1 POP PUSH1 0x0 PUSH2 0x21B7 DUP9 PUSH1 0x80 ADD MLOAD PUSH2 0x21A9 DUP5 DUP12 PUSH1 0xE0 ADD MLOAD PUSH2 0x23B9 SWAP1 SWAP2 SWAP1 PUSH4 0xFFFFFFFF AND JUMP JUMPDEST PUSH2 0x23CF SWAP1 SWAP2 SWAP1 PUSH4 0xFFFFFFFF AND JUMP JUMPDEST SWAP1 POP PUSH2 0x21D1 DUP9 PUSH2 0x100 ADD MLOAD DUP3 PUSH2 0x21F8 SWAP1 SWAP2 SWAP1 PUSH4 0xFFFFFFFF AND JUMP JUMPDEST SWAP1 POP DUP1 SWAP7 POP POP POP POP POP POP POP JUMPDEST SWAP2 SWAP1 POP JUMP JUMPDEST PUSH1 0x0 DUP2 DUP4 PUSH2 0x21F0 SWAP2 SWAP1 PUSH2 0x37A6 JUMP JUMPDEST SWAP1 POP SWAP3 SWAP2 POP POP JUMP JUMPDEST PUSH1 0x0 DUP2 DUP4 PUSH2 0x2206 SWAP2 SWAP1 PUSH2 0x327B JUMP JUMPDEST SWAP1 POP SWAP3 SWAP2 POP POP JUMP JUMPDEST PUSH1 0x0 PUSH1 0x33 PUSH1 0x0 SWAP1 SLOAD SWAP1 PUSH2 0x100 EXP SWAP1 DIV PUSH20 0xFFFFFFFFFFFFFFFFFFFFFFFFFFFFFFFFFFFFFFFF AND SWAP1 POP DUP2 PUSH1 0x33 PUSH1 0x0 PUSH2 0x100 EXP DUP2 SLOAD DUP2 PUSH20 0xFFFFFFFFFFFFFFFFFFFFFFFFFFFFFFFFFFFFFFFF MUL NOT AND SWAP1 DUP4 PUSH20 0xFFFFFFFFFFFFFFFFFFFFFFFFFFFFFFFFFFFFFFFF AND MUL OR SWAP1 SSTORE POP DUP2 PUSH20 0xFFFFFFFFFFFFFFFFFFFFFFFFFFFFFFFFFFFFFFFF AND DUP2 PUSH20 0xFFFFFFFFFFFFFFFFFFFFFFFFFFFFFFFFFFFFFFFF AND PUSH32 0x8BE0079C531659141344CD1FD0A4F28419497F9722A3DAAFE3B4186F6B6457E0 PUSH1 0x40 MLOAD PUSH1 0x40 MLOAD DUP1 SWAP2 SUB SWAP1 LOG3 POP POP JUMP JUMPDEST PUSH1 0x0 DUP1 DUP3 PUSH20 0xFFFFFFFFFFFFFFFFFFFFFFFFFFFFFFFFFFFFFFFF AND EXTCODESIZE GT SWAP1 POP SWAP2 SWAP1 POP JUMP JUMPDEST PUSH1 0x0 PUSH1 0x1 SWAP1 SLOAD SWAP1 PUSH2 0x100 EXP SWAP1 DIV PUSH1 0xFF AND PUSH2 0x2346 JUMPI PUSH1 0x40 MLOAD PUSH32 0x8C379A000000000000000000000000000000000000000000000000000000000 DUP2 MSTORE PUSH1 0x4 ADD PUSH2 0x233D SWAP1 PUSH2 0x386E JUMP JUMPDEST PUSH1 0x40 MLOAD DUP1 SWAP2 SUB SWAP1 REVERT JUMPDEST PUSH2 0x2356 PUSH2 0x2351 PUSH2 0x23E5 JUMP JUMPDEST PUSH2 0x220E JUMP JUMPDEST JUMP JUMPDEST PUSH1 0x0 PUSH1 0x1 SWAP1 SLOAD SWAP1 PUSH2 0x100 EXP SWAP1 DIV PUSH1 0xFF AND PUSH2 0x23A7 JUMPI PUSH1 0x40 MLOAD PUSH32 0x8C379A000000000000000000000000000000000000000000000000000000000 DUP2 MSTORE PUSH1 0x4 ADD PUSH2 0x239E SWAP1 PUSH2 0x386E JUMP JUMPDEST PUSH1 0x40 MLOAD DUP1 SWAP2 SUB SWAP1 REVERT JUMPDEST PUSH1 0x1 PUSH1 0x65 DUP2 SWAP1 SSTORE POP JUMP JUMPDEST PUSH1 0x0 TIMESTAMP SWAP1 POP SWAP1 JUMP JUMPDEST PUSH1 0x0 DUP2 DUP4 PUSH2 0x23C7 SWAP2 SWAP1 PUSH2 0x388E JUMP JUMPDEST SWAP1 POP SWAP3 SWAP2 POP POP JUMP JUMPDEST PUSH1 0x0 DUP2 DUP4 PUSH2 0x23DD SWAP2 SWAP1 PUSH2 0x3917 JUMP JUMPDEST SWAP1 POP SWAP3 SWAP2 POP POP JUMP JUMPDEST PUSH1 0x0 CALLER SWAP1 POP SWAP1 JUMP JUMPDEST PUSH1 0x0 PUSH2 0x244F DUP3 PUSH1 0x40 MLOAD DUP1 PUSH1 0x40 ADD PUSH1 0x40 MSTORE DUP1 PUSH1 0x20 DUP2 MSTORE PUSH1 0x20 ADD PUSH32 0x5361666545524332303A206C6F772D6C6576656C2063616C6C206661696C6564 DUP2 MSTORE POP DUP6 PUSH20 0xFFFFFFFFFFFFFFFFFFFFFFFFFFFFFFFFFFFFFFFF AND PUSH2 0x24B4 SWAP1 SWAP3 SWAP2 SWAP1 PUSH4 0xFFFFFFFF AND JUMP JUMPDEST SWAP1 POP PUSH1 0x0 DUP2 MLOAD GT ISZERO PUSH2 0x24AF JUMPI DUP1 DUP1 PUSH1 0x20 ADD SWAP1 MLOAD DUP2 ADD SWAP1 PUSH2 0x246F SWAP2 SWAP1 PUSH2 0x395D JUMP JUMPDEST PUSH2 0x24AE JUMPI PUSH1 0x40 MLOAD PUSH32 0x8C379A000000000000000000000000000000000000000000000000000000000 DUP2 MSTORE PUSH1 0x4 ADD PUSH2 0x24A5 SWAP1 PUSH2 0x39FC JUMP JUMPDEST PUSH1 0x40 MLOAD DUP1 SWAP2 SUB SWAP1 REVERT JUMPDEST JUMPDEST POP POP POP JUMP JUMPDEST PUSH1 0x60 PUSH2 0x24C3 DUP5 DUP5 PUSH1 0x0 DUP6 PUSH2 0x24CC JUMP JUMPDEST SWAP1 POP SWAP4 SWAP3 POP POP POP JUMP JUMPDEST PUSH1 0x60 DUP3 SELFBALANCE LT ISZERO PUSH2 0x2511 JUMPI PUSH1 0x40 MLOAD PUSH32 0x8C379A000000000000000000000000000000000000000000000000000000000 DUP2 MSTORE PUSH1 0x4 ADD PUSH2 0x2508 SWAP1 PUSH2 0x3A8E JUMP JUMPDEST PUSH1 0x40 MLOAD DUP1 SWAP2 SUB SWAP1 REVERT JUMPDEST PUSH2 0x251A DUP6 PUSH2 0x22D4 JUMP JUMPDEST PUSH2 0x2559 JUMPI PUSH1 0x40 MLOAD PUSH32 0x8C379A000000000000000000000000000000000000000000000000000000000 DUP2 MSTORE PUSH1 0x4 ADD PUSH2 0x2550 SWAP1 PUSH2 0x3AFA JUMP JUMPDEST PUSH1 0x40 MLOAD DUP1 SWAP2 SUB SWAP1 REVERT JUMPDEST PUSH1 0x0 DUP1 DUP7 PUSH20 0xFFFFFFFFFFFFFFFFFFFFFFFFFFFFFFFFFFFFFFFF AND DUP6 DUP8 PUSH1 0x40 MLOAD PUSH2 0x2582 SWAP2 SWAP1 PUSH2 0x3B94 JUMP JUMPDEST PUSH1 0x0 PUSH1 0x40 MLOAD DUP1 DUP4 SUB DUP2 DUP6 DUP8 GAS CALL SWAP3 POP POP POP RETURNDATASIZE DUP1 PUSH1 0x0 DUP2 EQ PUSH2 0x25BF JUMPI PUSH1 0x40 MLOAD SWAP2 POP PUSH1 0x1F NOT PUSH1 0x3F RETURNDATASIZE ADD AND DUP3 ADD PUSH1 0x40 MSTORE RETURNDATASIZE DUP3 MSTORE RETURNDATASIZE PUSH1 0x0 PUSH1 0x20 DUP5 ADD RETURNDATACOPY PUSH2 0x25C4 JUMP JUMPDEST PUSH1 0x60 SWAP2 POP JUMPDEST POP SWAP2 POP SWAP2 POP PUSH2 0x25D4 DUP3 DUP3 DUP7 PUSH2 0x25E0 JUMP JUMPDEST SWAP3 POP POP POP SWAP5 SWAP4 POP POP POP POP JUMP JUMPDEST PUSH1 0x60 DUP4 ISZERO PUSH2 0x25F0 JUMPI DUP3 SWAP1 POP PUSH2 0x2640 JUMP JUMPDEST PUSH1 0x0 DUP4 MLOAD GT ISZERO PUSH2 0x2603 JUMPI DUP3 MLOAD DUP1 DUP5 PUSH1 0x20 ADD REVERT JUMPDEST DUP2 PUSH1 0x40 MLOAD PUSH32 0x8C379A000000000000000000000000000000000000000000000000000000000 DUP2 MSTORE PUSH1 0x4 ADD PUSH2 0x2637 SWAP2 SWAP1 PUSH2 0x3C00 JUMP JUMPDEST PUSH1 0x40 MLOAD DUP1 SWAP2 SUB SWAP1 REVERT JUMPDEST SWAP4 SWAP3 POP POP POP JUMP JUMPDEST PUSH1 0x40 MLOAD DUP1 PUSH2 0x160 ADD PUSH1 0x40 MSTORE DUP1 PUSH1 0x0 ISZERO ISZERO DUP2 MSTORE PUSH1 0x20 ADD PUSH1 0x0 PUSH20 0xFFFFFFFFFFFFFFFFFFFFFFFFFFFFFFFFFFFFFFFF AND DUP2 MSTORE PUSH1 0x20 ADD PUSH1 0x0 DUP2 MSTORE PUSH1 0x20 ADD PUSH1 0x0 DUP2 MSTORE PUSH1 0x20 ADD PUSH1 0x0 DUP2 MSTORE PUSH1 0x20 ADD PUSH1 0x0 DUP2 MSTORE PUSH1 0x20 ADD PUSH1 0x0 ISZERO ISZERO DUP2 MSTORE PUSH1 0x20 ADD PUSH1 0x0 DUP2 MSTORE PUSH1 0x20 ADD PUSH1 0x0 DUP2 MSTORE PUSH1 0x20 ADD PUSH1 0x0 ISZERO ISZERO DUP2 MSTORE PUSH1 0x20 ADD PUSH1 0x0 ISZERO ISZERO DUP2 MSTORE POP SWAP1 JUMP JUMPDEST PUSH1 0x0 DUP2 SWAP1 POP SWAP2 SWAP1 POP JUMP JUMPDEST PUSH2 0x26D2 DUP2 PUSH2 0x26BF JUMP JUMPDEST DUP3 MSTORE POP POP JUMP JUMPDEST PUSH1 0x0 PUSH1 0x20 DUP3 ADD SWAP1 POP PUSH2 0x26ED PUSH1 0x0 DUP4 ADD DUP5 PUSH2 0x26C9 JUMP JUMPDEST SWAP3 SWAP2 POP POP JUMP JUMPDEST PUSH1 0x0 DUP1 REVERT JUMPDEST PUSH1 0x0 PUSH20 0xFFFFFFFFFFFFFFFFFFFFFFFFFFFFFFFFFFFFFFFF DUP3 AND SWAP1 POP SWAP2 SWAP1 POP JUMP JUMPDEST PUSH1 0x0 PUSH2 0x2723 DUP3 PUSH2 0x26F8 JUMP JUMPDEST SWAP1 POP SWAP2 SWAP1 POP JUMP JUMPDEST PUSH2 0x2733 DUP2 PUSH2 0x2718 JUMP JUMPDEST DUP2 EQ PUSH2 0x273E JUMPI PUSH1 0x0 DUP1 REVERT JUMPDEST POP JUMP JUMPDEST PUSH1 0x0 DUP2 CALLDATALOAD SWAP1 POP PUSH2 0x2750 DUP2 PUSH2 0x272A JUMP JUMPDEST SWAP3 SWAP2 POP POP JUMP JUMPDEST PUSH1 0x0 PUSH1 0x20 DUP3 DUP5 SUB SLT ISZERO PUSH2 0x276C JUMPI PUSH2 0x276B PUSH2 0x26F3 JUMP JUMPDEST JUMPDEST PUSH1 0x0 PUSH2 0x277A DUP5 DUP3 DUP6 ADD PUSH2 0x2741 JUMP JUMPDEST SWAP2 POP POP SWAP3 SWAP2 POP POP JUMP JUMPDEST PUSH2 0x278C DUP2 PUSH2 0x2718 JUMP JUMPDEST DUP3 MSTORE POP POP JUMP JUMPDEST PUSH1 0x0 PUSH1 0x20 DUP3 ADD SWAP1 POP PUSH2 0x27A7 PUSH1 0x0 DUP4 ADD DUP5 PUSH2 0x2783 JUMP JUMPDEST SWAP3 SWAP2 POP POP JUMP JUMPDEST PUSH2 0x27B6 DUP2 PUSH2 0x26BF JUMP JUMPDEST DUP2 EQ PUSH2 0x27C1 JUMPI PUSH1 0x0 DUP1 REVERT JUMPDEST POP JUMP JUMPDEST PUSH1 0x0 DUP2 CALLDATALOAD SWAP1 POP PUSH2 0x27D3 DUP2 PUSH2 0x27AD JUMP JUMPDEST SWAP3 SWAP2 POP POP JUMP JUMPDEST PUSH1 0x0 PUSH1 0x20 DUP3 DUP5 SUB SLT ISZERO PUSH2 0x27EF JUMPI PUSH2 0x27EE PUSH2 0x26F3 JUMP JUMPDEST JUMPDEST PUSH1 0x0 PUSH2 0x27FD DUP5 DUP3 DUP6 ADD PUSH2 0x27C4 JUMP JUMPDEST SWAP2 POP POP SWAP3 SWAP2 POP POP JUMP JUMPDEST PUSH1 0x0 DUP2 SWAP1 POP SWAP2 SWAP1 POP JUMP JUMPDEST PUSH2 0x2819 DUP2 PUSH2 0x2806 JUMP JUMPDEST DUP2 EQ PUSH2 0x2824 JUMPI PUSH1 0x0 DUP1 REVERT JUMPDEST POP JUMP JUMPDEST PUSH1 0x0 DUP2 CALLDATALOAD SWAP1 POP PUSH2 0x2836 DUP2 PUSH2 0x2810 JUMP JUMPDEST SWAP3 SWAP2 POP POP JUMP JUMPDEST PUSH1 0x0 PUSH1 0x20 DUP3 DUP5 SUB SLT ISZERO PUSH2 0x2852 JUMPI PUSH2 0x2851 PUSH2 0x26F3 JUMP JUMPDEST JUMPDEST PUSH1 0x0 PUSH2 0x2860 DUP5 DUP3 DUP6 ADD PUSH2 0x2827 JUMP JUMPDEST SWAP2 POP POP SWAP3 SWAP2 POP POP JUMP JUMPDEST PUSH1 0x0 DUP1 PUSH1 0x40 DUP4 DUP6 SUB SLT ISZERO PUSH2 0x2880 JUMPI PUSH2 0x287F PUSH2 0x26F3 JUMP JUMPDEST JUMPDEST PUSH1 0x0 PUSH2 0x288E DUP6 DUP3 DUP7 ADD PUSH2 0x2827 JUMP JUMPDEST SWAP3 POP POP PUSH1 0x20 PUSH2 0x289F DUP6 DUP3 DUP7 ADD PUSH2 0x27C4 JUMP JUMPDEST SWAP2 POP POP SWAP3 POP SWAP3 SWAP1 POP JUMP JUMPDEST PUSH1 0x0 PUSH2 0x28B4 DUP3 PUSH2 0x2718 JUMP JUMPDEST SWAP1 POP SWAP2 SWAP1 POP JUMP JUMPDEST PUSH2 0x28C4 DUP2 PUSH2 0x28A9 JUMP JUMPDEST DUP2 EQ PUSH2 0x28CF JUMPI PUSH1 0x0 DUP1 REVERT JUMPDEST POP JUMP JUMPDEST PUSH1 0x0 DUP2 CALLDATALOAD SWAP1 POP PUSH2 0x28E1 DUP2 PUSH2 0x28BB JUMP JUMPDEST SWAP3 SWAP2 POP POP JUMP JUMPDEST PUSH1 0x0 DUP1 PUSH1 0x0 PUSH1 0x60 DUP5 DUP7 SUB SLT ISZERO PUSH2 0x2900 JUMPI PUSH2 0x28FF PUSH2 0x26F3 JUMP JUMPDEST JUMPDEST PUSH1 0x0 PUSH2 0x290E DUP7 DUP3 DUP8 ADD PUSH2 0x28D2 JUMP JUMPDEST SWAP4 POP POP PUSH1 0x20 PUSH2 0x291F DUP7 DUP3 DUP8 ADD PUSH2 0x27C4 JUMP JUMPDEST SWAP3 POP POP PUSH1 0x40 PUSH2 0x2930 DUP7 DUP3 DUP8 ADD PUSH2 0x27C4 JUMP JUMPDEST SWAP2 POP POP SWAP3 POP SWAP3 POP SWAP3 JUMP JUMPDEST PUSH1 0x0 DUP2 ISZERO ISZERO SWAP1 POP SWAP2 SWAP1 POP JUMP JUMPDEST PUSH2 0x294F DUP2 PUSH2 0x293A JUMP JUMPDEST DUP2 EQ PUSH2 0x295A JUMPI PUSH1 0x0 DUP1 REVERT JUMPDEST POP JUMP JUMPDEST PUSH1 0x0 DUP2 CALLDATALOAD SWAP1 POP PUSH2 0x296C DUP2 PUSH2 0x2946 JUMP JUMPDEST SWAP3 SWAP2 POP POP JUMP JUMPDEST PUSH1 0x0 DUP1 PUSH1 0x0 DUP1 PUSH1 0x0 DUP1 PUSH1 0x0 DUP1 PUSH2 0x100 DUP10 DUP12 SUB SLT ISZERO PUSH2 0x2993 JUMPI PUSH2 0x2992 PUSH2 0x26F3 JUMP JUMPDEST JUMPDEST PUSH1 0x0 PUSH2 0x29A1 DUP12 DUP3 DUP13 ADD PUSH2 0x2741 JUMP JUMPDEST SWAP9 POP POP PUSH1 0x20 PUSH2 0x29B2 DUP12 DUP3 DUP13 ADD PUSH2 0x27C4 JUMP JUMPDEST SWAP8 POP POP PUSH1 0x40 PUSH2 0x29C3 DUP12 DUP3 DUP13 ADD PUSH2 0x27C4 JUMP JUMPDEST SWAP7 POP POP PUSH1 0x60 PUSH2 0x29D4 DUP12 DUP3 DUP13 ADD PUSH2 0x27C4 JUMP JUMPDEST SWAP6 POP POP PUSH1 0x80 PUSH2 0x29E5 DUP12 DUP3 DUP13 ADD PUSH2 0x27C4 JUMP JUMPDEST SWAP5 POP POP PUSH1 0xA0 PUSH2 0x29F6 DUP12 DUP3 DUP13 ADD PUSH2 0x295D JUMP JUMPDEST SWAP4 POP POP PUSH1 0xC0 PUSH2 0x2A07 DUP12 DUP3 DUP13 ADD PUSH2 0x27C4 JUMP JUMPDEST SWAP3 POP POP PUSH1 0xE0 PUSH2 0x2A18 DUP12 DUP3 DUP13 ADD PUSH2 0x295D JUMP JUMPDEST SWAP2 POP POP SWAP3 SWAP6 SWAP9 POP SWAP3 SWAP6 SWAP9 SWAP1 SWAP4 SWAP7 POP JUMP JUMPDEST PUSH2 0x2A31 DUP2 PUSH2 0x293A JUMP JUMPDEST DUP3 MSTORE POP POP JUMP JUMPDEST PUSH2 0x2A40 DUP2 PUSH2 0x2718 JUMP JUMPDEST DUP3 MSTORE POP POP JUMP JUMPDEST PUSH2 0x2A4F DUP2 PUSH2 0x26BF JUMP JUMPDEST DUP3 MSTORE POP POP JUMP JUMPDEST PUSH2 0x160 DUP3 ADD PUSH1 0x0 DUP3 ADD MLOAD PUSH2 0x2A6C PUSH1 0x0 DUP6 ADD DUP3 PUSH2 0x2A28 JUMP JUMPDEST POP PUSH1 0x20 DUP3 ADD MLOAD PUSH2 0x2A7F PUSH1 0x20 DUP6 ADD DUP3 PUSH2 0x2A37 JUMP JUMPDEST POP PUSH1 0x40 DUP3 ADD MLOAD PUSH2 0x2A92 PUSH1 0x40 DUP6 ADD DUP3 PUSH2 0x2A46 JUMP JUMPDEST POP PUSH1 0x60 DUP3 ADD MLOAD PUSH2 0x2AA5 PUSH1 0x60 DUP6 ADD DUP3 PUSH2 0x2A46 JUMP JUMPDEST POP PUSH1 0x80 DUP3 ADD MLOAD PUSH2 0x2AB8 PUSH1 0x80 DUP6 ADD DUP3 PUSH2 0x2A46 JUMP JUMPDEST POP PUSH1 0xA0 DUP3 ADD MLOAD PUSH2 0x2ACB PUSH1 0xA0 DUP6 ADD DUP3 PUSH2 0x2A46 JUMP JUMPDEST POP PUSH1 0xC0 DUP3 ADD MLOAD PUSH2 0x2ADE PUSH1 0xC0 DUP6 ADD DUP3 PUSH2 0x2A28 JUMP JUMPDEST POP PUSH1 0xE0 DUP3 ADD MLOAD PUSH2 0x2AF1 PUSH1 0xE0 DUP6 ADD DUP3 PUSH2 0x2A46 JUMP JUMPDEST POP PUSH2 0x100 DUP3 ADD MLOAD PUSH2 0x2B06 PUSH2 0x100 DUP6 ADD DUP3 PUSH2 0x2A46 JUMP JUMPDEST POP PUSH2 0x120 DUP3 ADD MLOAD PUSH2 0x2B1B PUSH2 0x120 DUP6 ADD DUP3 PUSH2 0x2A28 JUMP JUMPDEST POP PUSH2 0x140 DUP3 ADD MLOAD PUSH2 0x2B30 PUSH2 0x140 DUP6 ADD DUP3 PUSH2 0x2A28 JUMP JUMPDEST POP POP POP POP JUMP JUMPDEST PUSH1 0x0 PUSH2 0x160 DUP3 ADD SWAP1 POP PUSH2 0x2B4C PUSH1 0x0 DUP4 ADD DUP5 PUSH2 0x2A55 JUMP JUMPDEST SWAP3 SWAP2 POP POP JUMP JUMPDEST PUSH1 0x0 DUP1 PUSH1 0x40 DUP4 DUP6 SUB SLT ISZERO PUSH2 0x2B69 JUMPI PUSH2 0x2B68 PUSH2 0x26F3 JUMP JUMPDEST JUMPDEST PUSH1 0x0 PUSH2 0x2B77 DUP6 DUP3 DUP7 ADD PUSH2 0x2741 JUMP JUMPDEST SWAP3 POP POP PUSH1 0x20 PUSH2 0x2B88 DUP6 DUP3 DUP7 ADD PUSH2 0x27C4 JUMP JUMPDEST SWAP2 POP POP SWAP3 POP SWAP3 SWAP1 POP JUMP JUMPDEST PUSH2 0x2B9B DUP2 PUSH2 0x2806 JUMP JUMPDEST DUP3 MSTORE POP POP JUMP JUMPDEST PUSH1 0x0 PUSH1 0x20 DUP3 ADD SWAP1 POP PUSH2 0x2BB6 PUSH1 0x0 DUP4 ADD DUP5 PUSH2 0x2B92 JUMP JUMPDEST SWAP3 SWAP2 POP POP JUMP JUMPDEST PUSH1 0x0 DUP3 DUP3 MSTORE PUSH1 0x20 DUP3 ADD SWAP1 POP SWAP3 SWAP2 POP POP JUMP JUMPDEST PUSH32 0x5265656E7472616E637947756172643A207265656E7472616E742063616C6C00 PUSH1 0x0 DUP3 ADD MSTORE POP JUMP JUMPDEST PUSH1 0x0 PUSH2 0x2C03 PUSH1 0x1F DUP4 PUSH2 0x2BBC JUMP JUMPDEST SWAP2 POP PUSH2 0x2C0E DUP3 PUSH2 0x2BCD JUMP JUMPDEST PUSH1 0x20 DUP3 ADD SWAP1 POP SWAP2 SWAP1 POP JUMP JUMPDEST PUSH1 0x0 PUSH1 0x20 DUP3 ADD SWAP1 POP DUP2 DUP2 SUB PUSH1 0x0 DUP4 ADD MSTORE PUSH2 0x2C32 DUP2 PUSH2 0x2BF6 JUMP JUMPDEST SWAP1 POP SWAP2 SWAP1 POP JUMP JUMPDEST PUSH1 0x0 DUP2 MLOAD SWAP1 POP PUSH2 0x2C48 DUP2 PUSH2 0x27AD JUMP JUMPDEST SWAP3 SWAP2 POP POP JUMP JUMPDEST PUSH1 0x0 PUSH1 0x20 DUP3 DUP5 SUB SLT ISZERO PUSH2 0x2C64 JUMPI PUSH2 0x2C63 PUSH2 0x26F3 JUMP JUMPDEST JUMPDEST PUSH1 0x0 PUSH2 0x2C72 DUP5 DUP3 DUP6 ADD PUSH2 0x2C39 JUMP JUMPDEST SWAP2 POP POP SWAP3 SWAP2 POP POP JUMP JUMPDEST PUSH32 0x546F6B656E56657374696E673A206E6F7420656E6F7567682077697468647261 PUSH1 0x0 DUP3 ADD MSTORE PUSH32 0x7761626C652066756E6473000000000000000000000000000000000000000000 PUSH1 0x20 DUP3 ADD MSTORE POP JUMP JUMPDEST PUSH1 0x0 PUSH2 0x2CD7 PUSH1 0x2B DUP4 PUSH2 0x2BBC JUMP JUMPDEST SWAP2 POP PUSH2 0x2CE2 DUP3 PUSH2 0x2C7B JUMP JUMPDEST PUSH1 0x40 DUP3 ADD SWAP1 POP SWAP2 SWAP1 POP JUMP JUMPDEST PUSH1 0x0 PUSH1 0x20 DUP3 ADD SWAP1 POP DUP2 DUP2 SUB PUSH1 0x0 DUP4 ADD MSTORE PUSH2 0x2D06 DUP2 PUSH2 0x2CCA JUMP JUMPDEST SWAP1 POP SWAP2 SWAP1 POP JUMP JUMPDEST PUSH32 0x546F6B656E56657374696E673A206F6E6C792062656E65666963696172792061 PUSH1 0x0 DUP3 ADD MSTORE PUSH32 0x6E64206F776E65722063616E2072656C656173652076657374656420746F6B65 PUSH1 0x20 DUP3 ADD MSTORE PUSH32 0x6E73000000000000000000000000000000000000000000000000000000000000 PUSH1 0x40 DUP3 ADD MSTORE POP JUMP JUMPDEST PUSH1 0x0 PUSH2 0x2D8F PUSH1 0x42 DUP4 PUSH2 0x2BBC JUMP JUMPDEST SWAP2 POP PUSH2 0x2D9A DUP3 PUSH2 0x2D0D JUMP JUMPDEST PUSH1 0x60 DUP3 ADD SWAP1 POP SWAP2 SWAP1 POP JUMP JUMPDEST PUSH1 0x0 PUSH1 0x20 DUP3 ADD SWAP1 POP DUP2 DUP2 SUB PUSH1 0x0 DUP4 ADD MSTORE PUSH2 0x2DBE DUP2 PUSH2 0x2D82 JUMP JUMPDEST SWAP1 POP SWAP2 SWAP1 POP JUMP JUMPDEST PUSH32 0x546F6B656E56657374696E673A2063616E6E6F742072656C6561736520746F6B PUSH1 0x0 DUP3 ADD MSTORE PUSH32 0x656E732C206E6F7420656E6F7567682076657374656420746F6B656E73000000 PUSH1 0x20 DUP3 ADD MSTORE POP JUMP JUMPDEST PUSH1 0x0 PUSH2 0x2E21 PUSH1 0x3D DUP4 PUSH2 0x2BBC JUMP JUMPDEST SWAP2 POP PUSH2 0x2E2C DUP3 PUSH2 0x2DC5 JUMP JUMPDEST PUSH1 0x40 DUP3 ADD SWAP1 POP SWAP2 SWAP1 POP JUMP JUMPDEST PUSH1 0x0 PUSH1 0x20 DUP3 ADD SWAP1 POP DUP2 DUP2 SUB PUSH1 0x0 DUP4 ADD MSTORE PUSH2 0x2E50 DUP2 PUSH2 0x2E14 JUMP JUMPDEST SWAP1 POP SWAP2 SWAP1 POP JUMP JUMPDEST PUSH32 0x496E697469616C697A61626C653A20636F6E747261637420697320616C726561 PUSH1 0x0 DUP3 ADD MSTORE PUSH32 0x647920696E697469616C697A6564000000000000000000000000000000000000 PUSH1 0x20 DUP3 ADD MSTORE POP JUMP JUMPDEST PUSH1 0x0 PUSH2 0x2EB3 PUSH1 0x2E DUP4 PUSH2 0x2BBC JUMP JUMPDEST SWAP2 POP PUSH2 0x2EBE DUP3 PUSH2 0x2E57 JUMP JUMPDEST PUSH1 0x40 DUP3 ADD SWAP1 POP SWAP2 SWAP1 POP JUMP JUMPDEST PUSH1 0x0 PUSH1 0x20 DUP3 ADD SWAP1 POP DUP2 DUP2 SUB PUSH1 0x0 DUP4 ADD MSTORE PUSH2 0x2EE2 DUP2 PUSH2 0x2EA6 JUMP JUMPDEST SWAP1 POP SWAP2 SWAP1 POP JUMP JUMPDEST PUSH1 0x0 DUP2 SWAP1 POP SWAP2 SWAP1 POP JUMP JUMPDEST PUSH1 0x0 PUSH1 0xFF DUP3 AND SWAP1 POP SWAP2 SWAP1 POP JUMP JUMPDEST PUSH1 0x0 DUP2 SWAP1 POP SWAP2 SWAP1 POP JUMP JUMPDEST PUSH1 0x0 PUSH2 0x2F25 PUSH2 0x2F20 PUSH2 0x2F1B DUP5 PUSH2 0x2EE9 JUMP JUMPDEST PUSH2 0x2F00 JUMP JUMPDEST PUSH2 0x2EF3 JUMP JUMPDEST SWAP1 POP SWAP2 SWAP1 POP JUMP JUMPDEST PUSH2 0x2F35 DUP2 PUSH2 0x2F0A JUMP JUMPDEST DUP3 MSTORE POP POP JUMP JUMPDEST PUSH1 0x0 PUSH1 0x20 DUP3 ADD SWAP1 POP PUSH2 0x2F50 PUSH1 0x0 DUP4 ADD DUP5 PUSH2 0x2F2C JUMP JUMPDEST SWAP3 SWAP2 POP POP JUMP JUMPDEST PUSH32 0x4E6F204163636573730000000000000000000000000000000000000000000000 PUSH1 0x0 DUP3 ADD MSTORE POP JUMP JUMPDEST PUSH1 0x0 PUSH2 0x2F8C PUSH1 0x9 DUP4 PUSH2 0x2BBC JUMP JUMPDEST SWAP2 POP PUSH2 0x2F97 DUP3 PUSH2 0x2F56 JUMP JUMPDEST PUSH1 0x20 DUP3 ADD SWAP1 POP SWAP2 SWAP1 POP JUMP JUMPDEST PUSH1 0x0 PUSH1 0x20 DUP3 ADD SWAP1 POP DUP2 DUP2 SUB PUSH1 0x0 DUP4 ADD MSTORE PUSH2 0x2FBB DUP2 PUSH2 0x2F7F JUMP JUMPDEST SWAP1 POP SWAP2 SWAP1 POP JUMP JUMPDEST PUSH32 0x546F6B656E56657374696E673A2063616E6E6F74206372656174652076657374 PUSH1 0x0 DUP3 ADD MSTORE PUSH32 0x696E67207363686564756C652062656361757365206E6F742073756666696369 PUSH1 0x20 DUP3 ADD MSTORE PUSH32 0x656E7420746F6B656E7300000000000000000000000000000000000000000000 PUSH1 0x40 DUP3 ADD MSTORE POP JUMP JUMPDEST PUSH1 0x0 PUSH2 0x3044 PUSH1 0x4A DUP4 PUSH2 0x2BBC JUMP JUMPDEST SWAP2 POP PUSH2 0x304F DUP3 PUSH2 0x2FC2 JUMP JUMPDEST PUSH1 0x60 DUP3 ADD SWAP1 POP SWAP2 SWAP1 POP JUMP JUMPDEST PUSH1 0x0 PUSH1 0x20 DUP3 ADD SWAP1 POP DUP2 DUP2 SUB PUSH1 0x0 DUP4 ADD MSTORE PUSH2 0x3073 DUP2 PUSH2 0x3037 JUMP JUMPDEST SWAP1 POP SWAP2 SWAP1 POP JUMP JUMPDEST PUSH32 0x546F6B656E56657374696E673A206475726174696F6E206D757374206265203E PUSH1 0x0 DUP3 ADD MSTORE PUSH32 0x2030000000000000000000000000000000000000000000000000000000000000 PUSH1 0x20 DUP3 ADD MSTORE POP JUMP JUMPDEST PUSH1 0x0 PUSH2 0x30D6 PUSH1 0x22 DUP4 PUSH2 0x2BBC JUMP JUMPDEST SWAP2 POP PUSH2 0x30E1 DUP3 PUSH2 0x307A JUMP JUMPDEST PUSH1 0x40 DUP3 ADD SWAP1 POP SWAP2 SWAP1 POP JUMP JUMPDEST PUSH1 0x0 PUSH1 0x20 DUP3 ADD SWAP1 POP DUP2 DUP2 SUB PUSH1 0x0 DUP4 ADD MSTORE PUSH2 0x3105 DUP2 PUSH2 0x30C9 JUMP JUMPDEST SWAP1 POP SWAP2 SWAP1 POP JUMP JUMPDEST PUSH32 0x546F6B656E56657374696E673A20616D6F756E74206D757374206265203E2030 PUSH1 0x0 DUP3 ADD MSTORE POP JUMP JUMPDEST PUSH1 0x0 PUSH2 0x3142 PUSH1 0x20 DUP4 PUSH2 0x2BBC JUMP JUMPDEST SWAP2 POP PUSH2 0x314D DUP3 PUSH2 0x310C JUMP JUMPDEST PUSH1 0x20 DUP3 ADD SWAP1 POP SWAP2 SWAP1 POP JUMP JUMPDEST PUSH1 0x0 PUSH1 0x20 DUP3 ADD SWAP1 POP DUP2 DUP2 SUB PUSH1 0x0 DUP4 ADD MSTORE PUSH2 0x3171 DUP2 PUSH2 0x3135 JUMP JUMPDEST SWAP1 POP SWAP2 SWAP1 POP JUMP JUMPDEST PUSH32 0x546F6B656E56657374696E673A20736C696365506572696F645365636F6E6473 PUSH1 0x0 DUP3 ADD MSTORE PUSH32 0x206D757374206265203E3D203100000000000000000000000000000000000000 PUSH1 0x20 DUP3 ADD MSTORE POP JUMP JUMPDEST PUSH1 0x0 PUSH2 0x31D4 PUSH1 0x2D DUP4 PUSH2 0x2BBC JUMP JUMPDEST SWAP2 POP PUSH2 0x31DF DUP3 PUSH2 0x3178 JUMP JUMPDEST PUSH1 0x40 DUP3 ADD SWAP1 POP SWAP2 SWAP1 POP JUMP JUMPDEST PUSH1 0x0 PUSH1 0x20 DUP3 ADD SWAP1 POP DUP2 DUP2 SUB PUSH1 0x0 DUP4 ADD MSTORE PUSH2 0x3203 DUP2 PUSH2 0x31C7 JUMP JUMPDEST SWAP1 POP SWAP2 SWAP1 POP JUMP JUMPDEST PUSH1 0x0 DUP2 MLOAD SWAP1 POP PUSH2 0x3219 DUP2 PUSH2 0x2810 JUMP JUMPDEST SWAP3 SWAP2 POP POP JUMP JUMPDEST PUSH1 0x0 PUSH1 0x20 DUP3 DUP5 SUB SLT ISZERO PUSH2 0x3235 JUMPI PUSH2 0x3234 PUSH2 0x26F3 JUMP JUMPDEST JUMPDEST PUSH1 0x0 PUSH2 0x3243 DUP5 DUP3 DUP6 ADD PUSH2 0x320A JUMP JUMPDEST SWAP2 POP POP SWAP3 SWAP2 POP POP JUMP JUMPDEST PUSH32 0x4E487B7100000000000000000000000000000000000000000000000000000000 PUSH1 0x0 MSTORE PUSH1 0x11 PUSH1 0x4 MSTORE PUSH1 0x24 PUSH1 0x0 REVERT JUMPDEST PUSH1 0x0 PUSH2 0x3286 DUP3 PUSH2 0x26BF JUMP JUMPDEST SWAP2 POP PUSH2 0x3291 DUP4 PUSH2 0x26BF JUMP JUMPDEST SWAP3 POP DUP3 DUP3 LT ISZERO PUSH2 0x32A4 JUMPI PUSH2 0x32A3 PUSH2 0x324C JUMP JUMPDEST JUMPDEST DUP3 DUP3 SUB SWAP1 POP SWAP3 SWAP2 POP POP JUMP JUMPDEST PUSH1 0x0 DUP2 PUSH1 0x60 SHL SWAP1 POP SWAP2 SWAP1 POP JUMP JUMPDEST PUSH1 0x0 PUSH2 0x32C7 DUP3 PUSH2 0x32AF JUMP JUMPDEST SWAP1 POP SWAP2 SWAP1 POP JUMP JUMPDEST PUSH1 0x0 PUSH2 0x32D9 DUP3 PUSH2 0x32BC JUMP JUMPDEST SWAP1 POP SWAP2 SWAP1 POP JUMP JUMPDEST PUSH2 0x32F1 PUSH2 0x32EC DUP3 PUSH2 0x2718 JUMP JUMPDEST PUSH2 0x32CE JUMP JUMPDEST DUP3 MSTORE POP POP JUMP JUMPDEST PUSH1 0x0 DUP2 SWAP1 POP SWAP2 SWAP1 POP JUMP JUMPDEST PUSH2 0x3312 PUSH2 0x330D DUP3 PUSH2 0x26BF JUMP JUMPDEST PUSH2 0x32F7 JUMP JUMPDEST DUP3 MSTORE POP POP JUMP JUMPDEST PUSH1 0x0 PUSH2 0x3324 DUP3 DUP6 PUSH2 0x32E0 JUMP JUMPDEST PUSH1 0x14 DUP3 ADD SWAP2 POP PUSH2 0x3334 DUP3 DUP5 PUSH2 0x3301 JUMP JUMPDEST PUSH1 0x20 DUP3 ADD SWAP2 POP DUP2 SWAP1 POP SWAP4 SWAP3 POP POP POP JUMP JUMPDEST PUSH32 0x546F6B656E56657374696E673A2076657374696E67206973206E6F7420726576 PUSH1 0x0 DUP3 ADD MSTORE PUSH32 0x6F6361626C650000000000000000000000000000000000000000000000000000 PUSH1 0x20 DUP3 ADD MSTORE POP JUMP JUMPDEST PUSH1 0x0 PUSH2 0x33A0 PUSH1 0x26 DUP4 PUSH2 0x2BBC JUMP JUMPDEST SWAP2 POP PUSH2 0x33AB DUP3 PUSH2 0x3344 JUMP JUMPDEST PUSH1 0x40 DUP3 ADD SWAP1 POP SWAP2 SWAP1 POP JUMP JUMPDEST PUSH1 0x0 PUSH1 0x20 DUP3 ADD SWAP1 POP DUP2 DUP2 SUB PUSH1 0x0 DUP4 ADD MSTORE PUSH2 0x33CF DUP2 PUSH2 0x3393 JUMP JUMPDEST SWAP1 POP SWAP2 SWAP1 POP JUMP JUMPDEST PUSH32 0x4F776E61626C653A206E6577206F776E657220697320746865207A65726F2061 PUSH1 0x0 DUP3 ADD MSTORE PUSH32 0x6464726573730000000000000000000000000000000000000000000000000000 PUSH1 0x20 DUP3 ADD MSTORE POP JUMP JUMPDEST PUSH1 0x0 PUSH2 0x3432 PUSH1 0x26 DUP4 PUSH2 0x2BBC JUMP JUMPDEST SWAP2 POP PUSH2 0x343D DUP3 PUSH2 0x33D6 JUMP JUMPDEST PUSH1 0x40 DUP3 ADD SWAP1 POP SWAP2 SWAP1 POP JUMP JUMPDEST PUSH1 0x0 PUSH1 0x20 DUP3 ADD SWAP1 POP DUP2 DUP2 SUB PUSH1 0x0 DUP4 ADD MSTORE PUSH2 0x3461 DUP2 PUSH2 0x3425 JUMP JUMPDEST SWAP1 POP SWAP2 SWAP1 POP JUMP JUMPDEST PUSH32 0x546F6B656E56657374696E673A20696E646578206F7574206F6620626F756E64 PUSH1 0x0 DUP3 ADD MSTORE PUSH32 0x7300000000000000000000000000000000000000000000000000000000000000 PUSH1 0x20 DUP3 ADD MSTORE POP JUMP JUMPDEST PUSH1 0x0 PUSH2 0x34C4 PUSH1 0x21 DUP4 PUSH2 0x2BBC JUMP JUMPDEST SWAP2 POP PUSH2 0x34CF DUP3 PUSH2 0x3468 JUMP JUMPDEST PUSH1 0x40 DUP3 ADD SWAP1 POP SWAP2 SWAP1 POP JUMP JUMPDEST PUSH1 0x0 PUSH1 0x20 DUP3 ADD SWAP1 POP DUP2 DUP2 SUB PUSH1 0x0 DUP4 ADD MSTORE PUSH2 0x34F3 DUP2 PUSH2 0x34B7 JUMP JUMPDEST SWAP1 POP SWAP2 SWAP1 POP JUMP JUMPDEST PUSH32 0x4E487B7100000000000000000000000000000000000000000000000000000000 PUSH1 0x0 MSTORE PUSH1 0x32 PUSH1 0x4 MSTORE PUSH1 0x24 PUSH1 0x0 REVERT JUMPDEST PUSH32 0x52656C65617365546F6B656E41745447453A206F6E6C7920696E766573746F72 PUSH1 0x0 DUP3 ADD MSTORE PUSH32 0x732063616E20636C61696D20746F6B656E206174205447450000000000000000 PUSH1 0x20 DUP3 ADD MSTORE POP JUMP JUMPDEST PUSH1 0x0 PUSH2 0x3585 PUSH1 0x38 DUP4 PUSH2 0x2BBC JUMP JUMPDEST SWAP2 POP PUSH2 0x3590 DUP3 PUSH2 0x3529 JUMP JUMPDEST PUSH1 0x40 DUP3 ADD SWAP1 POP SWAP2 SWAP1 POP JUMP JUMPDEST PUSH1 0x0 PUSH1 0x20 DUP3 ADD SWAP1 POP DUP2 DUP2 SUB PUSH1 0x0 DUP4 ADD MSTORE PUSH2 0x35B4 DUP2 PUSH2 0x3578 JUMP JUMPDEST SWAP1 POP SWAP2 SWAP1 POP JUMP JUMPDEST PUSH32 0x5447453A2074696D65206E6F7420726561636865642100000000000000000000 PUSH1 0x0 DUP3 ADD MSTORE POP JUMP JUMPDEST PUSH1 0x0 PUSH2 0x35F1 PUSH1 0x16 DUP4 PUSH2 0x2BBC JUMP JUMPDEST SWAP2 POP PUSH2 0x35FC DUP3 PUSH2 0x35BB JUMP JUMPDEST PUSH1 0x20 DUP3 ADD SWAP1 POP SWAP2 SWAP1 POP JUMP JUMPDEST PUSH1 0x0 PUSH1 0x20 DUP3 ADD SWAP1 POP DUP2 DUP2 SUB PUSH1 0x0 DUP4 ADD MSTORE PUSH2 0x3620 DUP2 PUSH2 0x35E4 JUMP JUMPDEST SWAP1 POP SWAP2 SWAP1 POP JUMP JUMPDEST PUSH32 0x5447453A20546F6B656E20416C726561647920636C61696D6564000000000000 PUSH1 0x0 DUP3 ADD MSTORE POP JUMP JUMPDEST PUSH1 0x0 PUSH2 0x365D PUSH1 0x1A DUP4 PUSH2 0x2BBC JUMP JUMPDEST SWAP2 POP PUSH2 0x3668 DUP3 PUSH2 0x3627 JUMP JUMPDEST PUSH1 0x20 DUP3 ADD SWAP1 POP SWAP2 SWAP1 POP JUMP JUMPDEST PUSH1 0x0 PUSH1 0x20 DUP3 ADD SWAP1 POP DUP2 DUP2 SUB PUSH1 0x0 DUP4 ADD MSTORE PUSH2 0x368C DUP2 PUSH2 0x3650 JUMP JUMPDEST SWAP1 POP SWAP2 SWAP1 POP JUMP JUMPDEST PUSH1 0x0 PUSH2 0x36AE PUSH2 0x36A9 PUSH2 0x36A4 DUP5 PUSH2 0x26F8 JUMP JUMPDEST PUSH2 0x2F00 JUMP JUMPDEST PUSH2 0x26F8 JUMP JUMPDEST SWAP1 POP SWAP2 SWAP1 POP JUMP JUMPDEST PUSH1 0x0 PUSH2 0x36C0 DUP3 PUSH2 0x3693 JUMP JUMPDEST SWAP1 POP SWAP2 SWAP1 POP JUMP JUMPDEST PUSH1 0x0 PUSH2 0x36D2 DUP3 PUSH2 0x36B5 JUMP JUMPDEST SWAP1 POP SWAP2 SWAP1 POP JUMP JUMPDEST PUSH2 0x36E2 DUP2 PUSH2 0x36C7 JUMP JUMPDEST DUP3 MSTORE POP POP JUMP JUMPDEST PUSH1 0x0 PUSH1 0x40 DUP3 ADD SWAP1 POP PUSH2 0x36FD PUSH1 0x0 DUP4 ADD DUP6 PUSH2 0x36D9 JUMP JUMPDEST PUSH2 0x370A PUSH1 0x20 DUP4 ADD DUP5 PUSH2 0x26C9 JUMP JUMPDEST SWAP4 SWAP3 POP POP POP JUMP JUMPDEST PUSH32 0x4F776E61626C653A2063616C6C6572206973206E6F7420746865206F776E6572 PUSH1 0x0 DUP3 ADD MSTORE POP JUMP JUMPDEST PUSH1 0x0 PUSH2 0x3747 PUSH1 0x20 DUP4 PUSH2 0x2BBC JUMP JUMPDEST SWAP2 POP PUSH2 0x3752 DUP3 PUSH2 0x3711 JUMP JUMPDEST PUSH1 0x20 DUP3 ADD SWAP1 POP SWAP2 SWAP1 POP JUMP JUMPDEST PUSH1 0x0 PUSH1 0x20 DUP3 ADD SWAP1 POP DUP2 DUP2 SUB PUSH1 0x0 DUP4 ADD MSTORE PUSH2 0x3776 DUP2 PUSH2 0x373A JUMP JUMPDEST SWAP1 POP SWAP2 SWAP1 POP JUMP JUMPDEST PUSH1 0x0 PUSH1 0x40 DUP3 ADD SWAP1 POP PUSH2 0x3792 PUSH1 0x0 DUP4 ADD DUP6 PUSH2 0x2783 JUMP JUMPDEST PUSH2 0x379F PUSH1 0x20 DUP4 ADD DUP5 PUSH2 0x26C9 JUMP JUMPDEST SWAP4 SWAP3 POP POP POP JUMP JUMPDEST PUSH1 0x0 PUSH2 0x37B1 DUP3 PUSH2 0x26BF JUMP JUMPDEST SWAP2 POP PUSH2 0x37BC DUP4 PUSH2 0x26BF JUMP JUMPDEST SWAP3 POP DUP3 PUSH32 0xFFFFFFFFFFFFFFFFFFFFFFFFFFFFFFFFFFFFFFFFFFFFFFFFFFFFFFFFFFFFFFFF SUB DUP3 GT ISZERO PUSH2 0x37F1 JUMPI PUSH2 0x37F0 PUSH2 0x324C JUMP JUMPDEST JUMPDEST DUP3 DUP3 ADD SWAP1 POP SWAP3 SWAP2 POP POP JUMP JUMPDEST PUSH32 0x496E697469616C697A61626C653A20636F6E7472616374206973206E6F742069 PUSH1 0x0 DUP3 ADD MSTORE PUSH32 0x6E697469616C697A696E67000000000000000000000000000000000000000000 PUSH1 0x20 DUP3 ADD MSTORE POP JUMP JUMPDEST PUSH1 0x0 PUSH2 0x3858 PUSH1 0x2B DUP4 PUSH2 0x2BBC JUMP JUMPDEST SWAP2 POP PUSH2 0x3863 DUP3 PUSH2 0x37FC JUMP JUMPDEST PUSH1 0x40 DUP3 ADD SWAP1 POP SWAP2 SWAP1 POP JUMP JUMPDEST PUSH1 0x0 PUSH1 0x20 DUP3 ADD SWAP1 POP DUP2 DUP2 SUB PUSH1 0x0 DUP4 ADD MSTORE PUSH2 0x3887 DUP2 PUSH2 0x384B JUMP JUMPDEST SWAP1 POP SWAP2 SWAP1 POP JUMP JUMPDEST PUSH1 0x0 PUSH2 0x3899 DUP3 PUSH2 0x26BF JUMP JUMPDEST SWAP2 POP PUSH2 0x38A4 DUP4 PUSH2 0x26BF JUMP JUMPDEST SWAP3 POP DUP2 PUSH32 0xFFFFFFFFFFFFFFFFFFFFFFFFFFFFFFFFFFFFFFFFFFFFFFFFFFFFFFFFFFFFFFFF DIV DUP4 GT DUP3 ISZERO ISZERO AND ISZERO PUSH2 0x38DD JUMPI PUSH2 0x38DC PUSH2 0x324C JUMP JUMPDEST JUMPDEST DUP3 DUP3 MUL SWAP1 POP SWAP3 SWAP2 POP POP JUMP JUMPDEST PUSH32 0x4E487B7100000000000000000000000000000000000000000000000000000000 PUSH1 0x0 MSTORE PUSH1 0x12 PUSH1 0x4 MSTORE PUSH1 0x24 PUSH1 0x0 REVERT JUMPDEST PUSH1 0x0 PUSH2 0x3922 DUP3 PUSH2 0x26BF JUMP JUMPDEST SWAP2 POP PUSH2 0x392D DUP4 PUSH2 0x26BF JUMP JUMPDEST SWAP3 POP DUP3 PUSH2 0x393D JUMPI PUSH2 0x393C PUSH2 0x38E8 JUMP JUMPDEST JUMPDEST DUP3 DUP3 DIV SWAP1 POP SWAP3 SWAP2 POP POP JUMP JUMPDEST PUSH1 0x0 DUP2 MLOAD SWAP1 POP PUSH2 0x3957 DUP2 PUSH2 0x2946 JUMP JUMPDEST SWAP3 SWAP2 POP POP JUMP JUMPDEST PUSH1 0x0 PUSH1 0x20 DUP3 DUP5 SUB SLT ISZERO PUSH2 0x3973 JUMPI PUSH2 0x3972 PUSH2 0x26F3 JUMP JUMPDEST JUMPDEST PUSH1 0x0 PUSH2 0x3981 DUP5 DUP3 DUP6 ADD PUSH2 0x3948 JUMP JUMPDEST SWAP2 POP POP SWAP3 SWAP2 POP POP JUMP JUMPDEST PUSH32 0x5361666545524332303A204552433230206F7065726174696F6E20646964206E PUSH1 0x0 DUP3 ADD MSTORE PUSH32 0x6F74207375636365656400000000000000000000000000000000000000000000 PUSH1 0x20 DUP3 ADD MSTORE POP JUMP JUMPDEST PUSH1 0x0 PUSH2 0x39E6 PUSH1 0x2A DUP4 PUSH2 0x2BBC JUMP JUMPDEST SWAP2 POP PUSH2 0x39F1 DUP3 PUSH2 0x398A JUMP JUMPDEST PUSH1 0x40 DUP3 ADD SWAP1 POP SWAP2 SWAP1 POP JUMP JUMPDEST PUSH1 0x0 PUSH1 0x20 DUP3 ADD SWAP1 POP DUP2 DUP2 SUB PUSH1 0x0 DUP4 ADD MSTORE PUSH2 0x3A15 DUP2 PUSH2 0x39D9 JUMP JUMPDEST SWAP1 POP SWAP2 SWAP1 POP JUMP JUMPDEST PUSH32 0x416464726573733A20696E73756666696369656E742062616C616E636520666F PUSH1 0x0 DUP3 ADD MSTORE PUSH32 0x722063616C6C0000000000000000000000000000000000000000000000000000 PUSH1 0x20 DUP3 ADD MSTORE POP JUMP JUMPDEST PUSH1 0x0 PUSH2 0x3A78 PUSH1 0x26 DUP4 PUSH2 0x2BBC JUMP JUMPDEST SWAP2 POP PUSH2 0x3A83 DUP3 PUSH2 0x3A1C JUMP JUMPDEST PUSH1 0x40 DUP3 ADD SWAP1 POP SWAP2 SWAP1 POP JUMP JUMPDEST PUSH1 0x0 PUSH1 0x20 DUP3 ADD SWAP1 POP DUP2 DUP2 SUB PUSH1 0x0 DUP4 ADD MSTORE PUSH2 0x3AA7 DUP2 PUSH2 0x3A6B JUMP JUMPDEST SWAP1 POP SWAP2 SWAP1 POP JUMP JUMPDEST PUSH32 0x416464726573733A2063616C6C20746F206E6F6E2D636F6E7472616374000000 PUSH1 0x0 DUP3 ADD MSTORE POP JUMP JUMPDEST PUSH1 0x0 PUSH2 0x3AE4 PUSH1 0x1D DUP4 PUSH2 0x2BBC JUMP JUMPDEST SWAP2 POP PUSH2 0x3AEF DUP3 PUSH2 0x3AAE JUMP JUMPDEST PUSH1 0x20 DUP3 ADD SWAP1 POP SWAP2 SWAP1 POP JUMP JUMPDEST PUSH1 0x0 PUSH1 0x20 DUP3 ADD SWAP1 POP DUP2 DUP2 SUB PUSH1 0x0 DUP4 ADD MSTORE PUSH2 0x3B13 DUP2 PUSH2 0x3AD7 JUMP JUMPDEST SWAP1 POP SWAP2 SWAP1 POP JUMP JUMPDEST PUSH1 0x0 DUP2 MLOAD SWAP1 POP SWAP2 SWAP1 POP JUMP JUMPDEST PUSH1 0x0 DUP2 SWAP1 POP SWAP3 SWAP2 POP POP JUMP JUMPDEST PUSH1 0x0 JUMPDEST DUP4 DUP2 LT ISZERO PUSH2 0x3B4E JUMPI DUP1 DUP3 ADD MLOAD DUP2 DUP5 ADD MSTORE PUSH1 0x20 DUP2 ADD SWAP1 POP PUSH2 0x3B33 JUMP JUMPDEST DUP4 DUP2 GT ISZERO PUSH2 0x3B5D JUMPI PUSH1 0x0 DUP5 DUP5 ADD MSTORE JUMPDEST POP POP POP POP JUMP JUMPDEST PUSH1 0x0 PUSH2 0x3B6E DUP3 PUSH2 0x3B1A JUMP JUMPDEST PUSH2 0x3B78 DUP2 DUP6 PUSH2 0x3B25 JUMP JUMPDEST SWAP4 POP PUSH2 0x3B88 DUP2 DUP6 PUSH1 0x20 DUP7 ADD PUSH2 0x3B30 JUMP JUMPDEST DUP1 DUP5 ADD SWAP2 POP POP SWAP3 SWAP2 POP POP JUMP JUMPDEST PUSH1 0x0 PUSH2 0x3BA0 DUP3 DUP5 PUSH2 0x3B63 JUMP JUMPDEST SWAP2 POP DUP2 SWAP1 POP SWAP3 SWAP2 POP POP JUMP JUMPDEST PUSH1 0x0 DUP2 MLOAD SWAP1 POP SWAP2 SWAP1 POP JUMP JUMPDEST PUSH1 0x0 PUSH1 0x1F NOT PUSH1 0x1F DUP4 ADD AND SWAP1 POP SWAP2 SWAP1 POP JUMP JUMPDEST PUSH1 0x0 PUSH2 0x3BD2 DUP3 PUSH2 0x3BAB JUMP JUMPDEST PUSH2 0x3BDC DUP2 DUP6 PUSH2 0x2BBC JUMP JUMPDEST SWAP4 POP PUSH2 0x3BEC DUP2 DUP6 PUSH1 0x20 DUP7 ADD PUSH2 0x3B30 JUMP JUMPDEST PUSH2 0x3BF5 DUP2 PUSH2 0x3BB6 JUMP JUMPDEST DUP5 ADD SWAP2 POP POP SWAP3 SWAP2 POP POP JUMP JUMPDEST PUSH1 0x0 PUSH1 0x20 DUP3 ADD SWAP1 POP DUP2 DUP2 SUB PUSH1 0x0 DUP4 ADD MSTORE PUSH2 0x3C1A DUP2 DUP5 PUSH2 0x3BC7 JUMP JUMPDEST SWAP1 POP SWAP3 SWAP2 POP POP JUMP INVALID LOG2 PUSH5 0x6970667358 0x22 SLT KECCAK256 0xF8 0xE0 0xBC RETURNDATACOPY 0xC5 0xDD TIMESTAMP DUP2 DUP4 ADDRESS 0xD9 0xB0 CODECOPY PUSH21 0x9FAEC0E20DCD3E7CF1F9691E72B89BFF003A64736F PUSH13 0x63430008090033000000000000 "
				},
				"gasEstimates": {
					"creation": {
						"codeDepositCost": "3089600",
						"executionCost": "3404",
						"totalCost": "3093004"
					},
					"external": {
						"TGEOpeningTime()": "2563",
						"TGEPercent()": "2518",
						"TGETokenParticipates(bytes32)": "2877",
						"computeNextVestingScheduleIdForHolder(address)": "infinite",
						"computeReleasableAmount(bytes32)": "infinite",
						"computeVestingScheduleIdForAddressAndIndex(address,uint256)": "infinite",
						"createVestingSchedule(address,uint256,uint256,uint256,uint256,bool,uint256,bool)": "infinite",
						"crowdsales_address()": "2559",
						"getLastVestingScheduleForHolder(address)": "infinite",
						"getToken()": "2590",
						"getVestingIdAtIndex(uint256)": "7136",
						"getVestingSchedule(bytes32)": "infinite",
						"getVestingScheduleByAddressAndIndex(address,uint256)": "infinite",
						"getVestingSchedulesCount()": "2469",
						"getVestingSchedulesCountByBeneficiary(address)": "2909",
						"getVestingSchedulesTotalAmount()": "2483",
						"getWithdrawableAmount()": "infinite",
						"initialize(address,uint256,uint256)": "infinite",
						"owner()": "2567",
						"release(bytes32,uint256)": "infinite",
						"releaseTokenForTGE(bytes32)": "infinite",
						"renounceOwnership()": "30443",
						"revoke(bytes32)": "infinite",
						"setCrowdsaleAddress(address)": "24768",
						"transferOwnership(address)": "30836",
						"withdraw(uint256)": "infinite"
					},
					"internal": {
						"_computeReleasableAmount(struct PaymeTokenVesting.VestingSchedule memory)": "infinite",
						"getCurrentTime()": "22"
					}
				},
				"methodIdentifiers": {
					"TGEOpeningTime()": "4727d394",
					"TGEPercent()": "9a160a1b",
					"TGETokenParticipates(bytes32)": "35ef33f3",
					"computeNextVestingScheduleIdForHolder(address)": "f7c469f0",
					"computeReleasableAmount(bytes32)": "ea1bb3d5",
					"computeVestingScheduleIdForAddressAndIndex(address,uint256)": "8af104da",
					"createVestingSchedule(address,uint256,uint256,uint256,uint256,bool,uint256,bool)": "7df8df92",
					"crowdsales_address()": "d31b0809",
					"getLastVestingScheduleForHolder(address)": "7e913dc6",
					"getToken()": "21df0da7",
					"getVestingIdAtIndex(uint256)": "f9079b37",
					"getVestingSchedule(bytes32)": "9ef346b4",
					"getVestingScheduleByAddressAndIndex(address,uint256)": "f51321d7",
					"getVestingSchedulesCount()": "13083617",
					"getVestingSchedulesCountByBeneficiary(address)": "5a7bb69a",
					"getVestingSchedulesTotalAmount()": "48deb471",
					"getWithdrawableAmount()": "90be10cc",
					"initialize(address,uint256,uint256)": "7a1ac61e",
					"owner()": "8da5cb5b",
					"release(bytes32,uint256)": "66afd8ef",
					"releaseTokenForTGE(bytes32)": "f9299dd9",
					"renounceOwnership()": "715018a6",
					"revoke(bytes32)": "b75c7dc6",
					"setCrowdsaleAddress(address)": "1f35bc40",
					"transferOwnership(address)": "f2fde38b",
					"withdraw(uint256)": "2e1a7d4d"
				}
			},
			"storageLayout": {
				"storage": [
					{
						"astId": 138,
						"contract": "contracts/ico/PaymeTokenVesting.sol:PaymeTokenVesting",
						"label": "_initialized",
						"offset": 0,
						"slot": "0",
						"type": "t_uint8"
					},
					{
						"astId": 141,
						"contract": "contracts/ico/PaymeTokenVesting.sol:PaymeTokenVesting",
						"label": "_initializing",
						"offset": 1,
						"slot": "0",
						"type": "t_bool"
					},
					{
						"astId": 1020,
						"contract": "contracts/ico/PaymeTokenVesting.sol:PaymeTokenVesting",
						"label": "__gap",
						"offset": 0,
						"slot": "1",
						"type": "t_array(t_uint256)50_storage"
					},
					{
						"astId": 10,
						"contract": "contracts/ico/PaymeTokenVesting.sol:PaymeTokenVesting",
						"label": "_owner",
						"offset": 0,
						"slot": "51",
						"type": "t_address"
					},
					{
						"astId": 130,
						"contract": "contracts/ico/PaymeTokenVesting.sol:PaymeTokenVesting",
						"label": "__gap",
						"offset": 0,
						"slot": "52",
						"type": "t_array(t_uint256)49_storage"
					},
					{
						"astId": 296,
						"contract": "contracts/ico/PaymeTokenVesting.sol:PaymeTokenVesting",
						"label": "_status",
						"offset": 0,
						"slot": "101",
						"type": "t_uint256"
					},
					{
						"astId": 340,
						"contract": "contracts/ico/PaymeTokenVesting.sol:PaymeTokenVesting",
						"label": "__gap",
						"offset": 0,
						"slot": "102",
						"type": "t_array(t_uint256)49_storage"
					},
					{
						"astId": 1885,
						"contract": "contracts/ico/PaymeTokenVesting.sol:PaymeTokenVesting",
						"label": "_token",
						"offset": 0,
						"slot": "151",
						"type": "t_contract(IERC20Upgradeable)419"
					},
					{
						"astId": 1887,
						"contract": "contracts/ico/PaymeTokenVesting.sol:PaymeTokenVesting",
						"label": "TGEPercent",
						"offset": 0,
						"slot": "152",
						"type": "t_uint256"
					},
					{
						"astId": 1889,
						"contract": "contracts/ico/PaymeTokenVesting.sol:PaymeTokenVesting",
						"label": "TGEOpeningTime",
						"offset": 0,
						"slot": "153",
						"type": "t_uint256"
					},
					{
						"astId": 1892,
						"contract": "contracts/ico/PaymeTokenVesting.sol:PaymeTokenVesting",
						"label": "vestingSchedulesIds",
						"offset": 0,
						"slot": "154",
						"type": "t_array(t_bytes32)dyn_storage"
					},
					{
						"astId": 1897,
						"contract": "contracts/ico/PaymeTokenVesting.sol:PaymeTokenVesting",
						"label": "vestingSchedules",
						"offset": 0,
						"slot": "155",
						"type": "t_mapping(t_bytes32,t_struct(VestingSchedule)1882_storage)"
					},
					{
						"astId": 1899,
						"contract": "contracts/ico/PaymeTokenVesting.sol:PaymeTokenVesting",
						"label": "vestingSchedulesTotalAmount",
						"offset": 0,
						"slot": "156",
						"type": "t_uint256"
					},
					{
						"astId": 1903,
						"contract": "contracts/ico/PaymeTokenVesting.sol:PaymeTokenVesting",
						"label": "holdersVestingCount",
						"offset": 0,
						"slot": "157",
						"type": "t_mapping(t_address,t_uint256)"
					},
					{
						"astId": 1907,
						"contract": "contracts/ico/PaymeTokenVesting.sol:PaymeTokenVesting",
						"label": "TGETokenParticipates",
						"offset": 0,
						"slot": "158",
						"type": "t_mapping(t_bytes32,t_uint256)"
					},
					{
						"astId": 1909,
						"contract": "contracts/ico/PaymeTokenVesting.sol:PaymeTokenVesting",
						"label": "crowdsales_address",
						"offset": 0,
						"slot": "159",
						"type": "t_address"
					}
				],
				"types": {
					"t_address": {
						"encoding": "inplace",
						"label": "address",
						"numberOfBytes": "20"
					},
					"t_array(t_bytes32)dyn_storage": {
						"base": "t_bytes32",
						"encoding": "dynamic_array",
						"label": "bytes32[]",
						"numberOfBytes": "32"
					},
					"t_array(t_uint256)49_storage": {
						"base": "t_uint256",
						"encoding": "inplace",
						"label": "uint256[49]",
						"numberOfBytes": "1568"
					},
					"t_array(t_uint256)50_storage": {
						"base": "t_uint256",
						"encoding": "inplace",
						"label": "uint256[50]",
						"numberOfBytes": "1600"
					},
					"t_bool": {
						"encoding": "inplace",
						"label": "bool",
						"numberOfBytes": "1"
					},
					"t_bytes32": {
						"encoding": "inplace",
						"label": "bytes32",
						"numberOfBytes": "32"
					},
					"t_contract(IERC20Upgradeable)419": {
						"encoding": "inplace",
						"label": "contract IERC20Upgradeable",
						"numberOfBytes": "20"
					},
					"t_mapping(t_address,t_uint256)": {
						"encoding": "mapping",
						"key": "t_address",
						"label": "mapping(address => uint256)",
						"numberOfBytes": "32",
						"value": "t_uint256"
					},
					"t_mapping(t_bytes32,t_struct(VestingSchedule)1882_storage)": {
						"encoding": "mapping",
						"key": "t_bytes32",
						"label": "mapping(bytes32 => struct PaymeTokenVesting.VestingSchedule)",
						"numberOfBytes": "32",
						"value": "t_struct(VestingSchedule)1882_storage"
					},
					"t_mapping(t_bytes32,t_uint256)": {
						"encoding": "mapping",
						"key": "t_bytes32",
						"label": "mapping(bytes32 => uint256)",
						"numberOfBytes": "32",
						"value": "t_uint256"
					},
					"t_struct(VestingSchedule)1882_storage": {
						"encoding": "inplace",
						"label": "struct PaymeTokenVesting.VestingSchedule",
						"members": [
							{
								"astId": 1861,
								"contract": "contracts/ico/PaymeTokenVesting.sol:PaymeTokenVesting",
								"label": "initialized",
								"offset": 0,
								"slot": "0",
								"type": "t_bool"
							},
							{
								"astId": 1863,
								"contract": "contracts/ico/PaymeTokenVesting.sol:PaymeTokenVesting",
								"label": "beneficiary",
								"offset": 1,
								"slot": "0",
								"type": "t_address"
							},
							{
								"astId": 1865,
								"contract": "contracts/ico/PaymeTokenVesting.sol:PaymeTokenVesting",
								"label": "cliff",
								"offset": 0,
								"slot": "1",
								"type": "t_uint256"
							},
							{
								"astId": 1867,
								"contract": "contracts/ico/PaymeTokenVesting.sol:PaymeTokenVesting",
								"label": "start",
								"offset": 0,
								"slot": "2",
								"type": "t_uint256"
							},
							{
								"astId": 1869,
								"contract": "contracts/ico/PaymeTokenVesting.sol:PaymeTokenVesting",
								"label": "duration",
								"offset": 0,
								"slot": "3",
								"type": "t_uint256"
							},
							{
								"astId": 1871,
								"contract": "contracts/ico/PaymeTokenVesting.sol:PaymeTokenVesting",
								"label": "slicePeriodSeconds",
								"offset": 0,
								"slot": "4",
								"type": "t_uint256"
							},
							{
								"astId": 1873,
								"contract": "contracts/ico/PaymeTokenVesting.sol:PaymeTokenVesting",
								"label": "revocable",
								"offset": 0,
								"slot": "5",
								"type": "t_bool"
							},
							{
								"astId": 1875,
								"contract": "contracts/ico/PaymeTokenVesting.sol:PaymeTokenVesting",
								"label": "amountTotal",
								"offset": 0,
								"slot": "6",
								"type": "t_uint256"
							},
							{
								"astId": 1877,
								"contract": "contracts/ico/PaymeTokenVesting.sol:PaymeTokenVesting",
								"label": "released",
								"offset": 0,
								"slot": "7",
								"type": "t_uint256"
							},
							{
								"astId": 1879,
								"contract": "contracts/ico/PaymeTokenVesting.sol:PaymeTokenVesting",
								"label": "revoked",
								"offset": 0,
								"slot": "8",
								"type": "t_bool"
							},
							{
								"astId": 1881,
								"contract": "contracts/ico/PaymeTokenVesting.sol:PaymeTokenVesting",
								"label": "releaseAtTGE",
								"offset": 1,
								"slot": "8",
								"type": "t_bool"
							}
						],
						"numberOfBytes": "288"
					},
					"t_uint256": {
						"encoding": "inplace",
						"label": "uint256",
						"numberOfBytes": "32"
					},
					"t_uint8": {
						"encoding": "inplace",
						"label": "uint8",
						"numberOfBytes": "1"
					}
				}
			},
			"userdoc": {
				"kind": "user",
				"methods": {
					"computeReleasableAmount(bytes32)": {
						"notice": "Computes the vested amount of tokens for the given vesting schedule identifier."
					},
					"createVestingSchedule(address,uint256,uint256,uint256,uint256,bool,uint256,bool)": {
						"notice": "Creates a new vesting schedule for a beneficiary."
					},
					"getVestingSchedule(bytes32)": {
						"notice": "Returns the vesting schedule information for a given identifier."
					},
					"getVestingScheduleByAddressAndIndex(address,uint256)": {
						"notice": "Returns the vesting schedule information for a given holder and index."
					},
					"getVestingSchedulesTotalAmount()": {
						"notice": "Returns the total amount of vesting schedules."
					},
					"release(bytes32,uint256)": {
						"notice": "Release vested amount of tokens."
					},
					"revoke(bytes32)": {
						"notice": "Revokes the vesting schedule for given identifier."
					},
					"withdraw(uint256)": {
						"notice": "Withdraw the specified amount if possible."
					}
				},
				"version": 1
			}
		}
	}
}