{
	"contracts/PaymeTokenVesting.sol": {
		"PaymeTokenVesting": {
			"abi": [
				{
					"inputs": [
						{
							"internalType": "address",
							"name": "token_",
							"type": "address"
						}
					],
					"stateMutability": "nonpayable",
					"type": "constructor"
				},
				{
					"anonymous": false,
					"inputs": [
						{
							"indexed": true,
							"internalType": "address",
							"name": "previousOwner",
							"type": "address"
						},
						{
							"indexed": true,
							"internalType": "address",
							"name": "newOwner",
							"type": "address"
						}
					],
					"name": "OwnershipTransferred",
					"type": "event"
				},
				{
					"anonymous": false,
					"inputs": [
						{
							"indexed": false,
							"internalType": "uint256",
							"name": "amount",
							"type": "uint256"
						}
					],
					"name": "Released",
					"type": "event"
				},
				{
					"anonymous": false,
					"inputs": [],
					"name": "Revoked",
					"type": "event"
				},
				{
					"stateMutability": "payable",
					"type": "fallback"
				},
				{
					"inputs": [
						{
							"internalType": "address",
							"name": "holder",
							"type": "address"
						}
					],
					"name": "computeNextVestingScheduleIdForHolder",
					"outputs": [
						{
							"internalType": "bytes32",
							"name": "",
							"type": "bytes32"
						}
					],
					"stateMutability": "view",
					"type": "function"
				},
				{
					"inputs": [
						{
							"internalType": "bytes32",
							"name": "vestingScheduleId",
							"type": "bytes32"
						}
					],
					"name": "computeReleasableAmount",
					"outputs": [
						{
							"internalType": "uint256",
							"name": "",
							"type": "uint256"
						}
					],
					"stateMutability": "view",
					"type": "function"
				},
				{
					"inputs": [
						{
							"internalType": "address",
							"name": "holder",
							"type": "address"
						},
						{
							"internalType": "uint256",
							"name": "index",
							"type": "uint256"
						}
					],
					"name": "computeVestingScheduleIdForAddressAndIndex",
					"outputs": [
						{
							"internalType": "bytes32",
							"name": "",
							"type": "bytes32"
						}
					],
					"stateMutability": "pure",
					"type": "function"
				},
				{
					"inputs": [
						{
							"internalType": "address",
							"name": "_beneficiary",
							"type": "address"
						},
						{
							"internalType": "uint256",
							"name": "_start",
							"type": "uint256"
						},
						{
							"internalType": "uint256",
							"name": "_cliff",
							"type": "uint256"
						},
						{
							"internalType": "uint256",
							"name": "_duration",
							"type": "uint256"
						},
						{
							"internalType": "uint256",
							"name": "_slicePeriodSeconds",
							"type": "uint256"
						},
						{
							"internalType": "bool",
							"name": "_revocable",
							"type": "bool"
						},
						{
							"internalType": "uint256",
							"name": "_amount",
							"type": "uint256"
						}
					],
					"name": "createVestingSchedule",
					"outputs": [],
					"stateMutability": "nonpayable",
					"type": "function"
				},
				{
					"inputs": [
						{
							"internalType": "address",
							"name": "holder",
							"type": "address"
						}
					],
					"name": "getLastVestingScheduleForHolder",
					"outputs": [
						{
							"components": [
								{
									"internalType": "bool",
									"name": "initialized",
									"type": "bool"
								},
								{
									"internalType": "address",
									"name": "beneficiary",
									"type": "address"
								},
								{
									"internalType": "uint256",
									"name": "cliff",
									"type": "uint256"
								},
								{
									"internalType": "uint256",
									"name": "start",
									"type": "uint256"
								},
								{
									"internalType": "uint256",
									"name": "duration",
									"type": "uint256"
								},
								{
									"internalType": "uint256",
									"name": "slicePeriodSeconds",
									"type": "uint256"
								},
								{
									"internalType": "bool",
									"name": "revocable",
									"type": "bool"
								},
								{
									"internalType": "uint256",
									"name": "amountTotal",
									"type": "uint256"
								},
								{
									"internalType": "uint256",
									"name": "released",
									"type": "uint256"
								},
								{
									"internalType": "bool",
									"name": "revoked",
									"type": "bool"
								}
							],
							"internalType": "struct PaymeTokenVesting.VestingSchedule",
							"name": "",
							"type": "tuple"
						}
					],
					"stateMutability": "view",
					"type": "function"
				},
				{
					"inputs": [],
					"name": "getToken",
					"outputs": [
						{
							"internalType": "address",
							"name": "",
							"type": "address"
						}
					],
					"stateMutability": "view",
					"type": "function"
				},
				{
					"inputs": [
						{
							"internalType": "uint256",
							"name": "index",
							"type": "uint256"
						}
					],
					"name": "getVestingIdAtIndex",
					"outputs": [
						{
							"internalType": "bytes32",
							"name": "",
							"type": "bytes32"
						}
					],
					"stateMutability": "view",
					"type": "function"
				},
				{
					"inputs": [
						{
							"internalType": "bytes32",
							"name": "vestingScheduleId",
							"type": "bytes32"
						}
					],
					"name": "getVestingSchedule",
					"outputs": [
						{
							"components": [
								{
									"internalType": "bool",
									"name": "initialized",
									"type": "bool"
								},
								{
									"internalType": "address",
									"name": "beneficiary",
									"type": "address"
								},
								{
									"internalType": "uint256",
									"name": "cliff",
									"type": "uint256"
								},
								{
									"internalType": "uint256",
									"name": "start",
									"type": "uint256"
								},
								{
									"internalType": "uint256",
									"name": "duration",
									"type": "uint256"
								},
								{
									"internalType": "uint256",
									"name": "slicePeriodSeconds",
									"type": "uint256"
								},
								{
									"internalType": "bool",
									"name": "revocable",
									"type": "bool"
								},
								{
									"internalType": "uint256",
									"name": "amountTotal",
									"type": "uint256"
								},
								{
									"internalType": "uint256",
									"name": "released",
									"type": "uint256"
								},
								{
									"internalType": "bool",
									"name": "revoked",
									"type": "bool"
								}
							],
							"internalType": "struct PaymeTokenVesting.VestingSchedule",
							"name": "",
							"type": "tuple"
						}
					],
					"stateMutability": "view",
					"type": "function"
				},
				{
					"inputs": [
						{
							"internalType": "address",
							"name": "holder",
							"type": "address"
						},
						{
							"internalType": "uint256",
							"name": "index",
							"type": "uint256"
						}
					],
					"name": "getVestingScheduleByAddressAndIndex",
					"outputs": [
						{
							"components": [
								{
									"internalType": "bool",
									"name": "initialized",
									"type": "bool"
								},
								{
									"internalType": "address",
									"name": "beneficiary",
									"type": "address"
								},
								{
									"internalType": "uint256",
									"name": "cliff",
									"type": "uint256"
								},
								{
									"internalType": "uint256",
									"name": "start",
									"type": "uint256"
								},
								{
									"internalType": "uint256",
									"name": "duration",
									"type": "uint256"
								},
								{
									"internalType": "uint256",
									"name": "slicePeriodSeconds",
									"type": "uint256"
								},
								{
									"internalType": "bool",
									"name": "revocable",
									"type": "bool"
								},
								{
									"internalType": "uint256",
									"name": "amountTotal",
									"type": "uint256"
								},
								{
									"internalType": "uint256",
									"name": "released",
									"type": "uint256"
								},
								{
									"internalType": "bool",
									"name": "revoked",
									"type": "bool"
								}
							],
							"internalType": "struct PaymeTokenVesting.VestingSchedule",
							"name": "",
							"type": "tuple"
						}
					],
					"stateMutability": "view",
					"type": "function"
				},
				{
					"inputs": [],
					"name": "getVestingSchedulesCount",
					"outputs": [
						{
							"internalType": "uint256",
							"name": "",
							"type": "uint256"
						}
					],
					"stateMutability": "view",
					"type": "function"
				},
				{
					"inputs": [
						{
							"internalType": "address",
							"name": "_beneficiary",
							"type": "address"
						}
					],
					"name": "getVestingSchedulesCountByBeneficiary",
					"outputs": [
						{
							"internalType": "uint256",
							"name": "",
							"type": "uint256"
						}
					],
					"stateMutability": "view",
					"type": "function"
				},
				{
					"inputs": [],
					"name": "getVestingSchedulesTotalAmount",
					"outputs": [
						{
							"internalType": "uint256",
							"name": "",
							"type": "uint256"
						}
					],
					"stateMutability": "view",
					"type": "function"
				},
				{
					"inputs": [],
					"name": "getWithdrawableAmount",
					"outputs": [
						{
							"internalType": "uint256",
							"name": "",
							"type": "uint256"
						}
					],
					"stateMutability": "view",
					"type": "function"
				},
				{
					"inputs": [],
					"name": "owner",
					"outputs": [
						{
							"internalType": "address",
							"name": "",
							"type": "address"
						}
					],
					"stateMutability": "view",
					"type": "function"
				},
				{
					"inputs": [
						{
							"internalType": "bytes32",
							"name": "vestingScheduleId",
							"type": "bytes32"
						},
						{
							"internalType": "uint256",
							"name": "amount",
							"type": "uint256"
						}
					],
					"name": "release",
					"outputs": [],
					"stateMutability": "nonpayable",
					"type": "function"
				},
				{
					"inputs": [],
					"name": "renounceOwnership",
					"outputs": [],
					"stateMutability": "nonpayable",
					"type": "function"
				},
				{
					"inputs": [
						{
							"internalType": "bytes32",
							"name": "vestingScheduleId",
							"type": "bytes32"
						}
					],
					"name": "revoke",
					"outputs": [],
					"stateMutability": "nonpayable",
					"type": "function"
				},
				{
					"inputs": [
						{
							"internalType": "address",
							"name": "newOwner",
							"type": "address"
						}
					],
					"name": "transferOwnership",
					"outputs": [],
					"stateMutability": "nonpayable",
					"type": "function"
				},
				{
					"inputs": [
						{
							"internalType": "uint256",
							"name": "amount",
							"type": "uint256"
						}
					],
					"name": "withdraw",
					"outputs": [],
					"stateMutability": "nonpayable",
					"type": "function"
				},
				{
					"stateMutability": "payable",
					"type": "receive"
				}
			],
			"devdoc": {
				"kind": "dev",
				"methods": {
					"computeNextVestingScheduleIdForHolder(address)": {
						"details": "Computes the next vesting schedule identifier for a given holder address."
					},
					"computeReleasableAmount(bytes32)": {
						"returns": {
							"_0": "the vested amount"
						}
					},
					"computeVestingScheduleIdForAddressAndIndex(address,uint256)": {
						"details": "Computes the vesting schedule identifier for an address and an index."
					},
					"constructor": {
						"details": "Creates a vesting contract.",
						"params": {
							"token_": "address of the ERC20 token contract"
						}
					},
					"createVestingSchedule(address,uint256,uint256,uint256,uint256,bool,uint256)": {
						"params": {
							"_amount": "total amount of tokens to be released at the end of the vesting",
							"_beneficiary": "address of the beneficiary to whom vested tokens are transferred",
							"_cliff": "duration in seconds of the cliff in which tokens will begin to vest",
							"_duration": "duration in seconds of the period in which the tokens will vest",
							"_revocable": "whether the vesting is revocable or not",
							"_slicePeriodSeconds": "duration of a slice period for the vesting in seconds",
							"_start": "start time of the vesting period"
						}
					},
					"getLastVestingScheduleForHolder(address)": {
						"details": "Returns the last vesting schedule for a given holder address."
					},
					"getToken()": {
						"details": "Returns the address of the ERC20 token managed by the vesting contract."
					},
					"getVestingIdAtIndex(uint256)": {
						"details": "Returns the vesting schedule id at the given index.",
						"returns": {
							"_0": "the vesting id"
						}
					},
					"getVestingSchedule(bytes32)": {
						"returns": {
							"_0": "the vesting schedule structure information"
						}
					},
					"getVestingScheduleByAddressAndIndex(address,uint256)": {
						"returns": {
							"_0": "the vesting schedule structure information"
						}
					},
					"getVestingSchedulesCount()": {
						"details": "Returns the number of vesting schedules managed by this contract.",
						"returns": {
							"_0": "the number of vesting schedules"
						}
					},
					"getVestingSchedulesCountByBeneficiary(address)": {
						"details": "Returns the number of vesting schedules associated to a beneficiary.",
						"returns": {
							"_0": "the number of vesting schedules"
						}
					},
					"getVestingSchedulesTotalAmount()": {
						"returns": {
							"_0": "the total amount of vesting schedules"
						}
					},
					"getWithdrawableAmount()": {
						"details": "Returns the amount of tokens that can be withdrawn by the owner.",
						"returns": {
							"_0": "the amount of tokens"
						}
					},
					"owner()": {
						"details": "Returns the address of the current owner."
					},
					"release(bytes32,uint256)": {
						"params": {
							"amount": "the amount to release",
							"vestingScheduleId": "the vesting schedule identifier"
						}
					},
					"renounceOwnership()": {
						"details": "Leaves the contract without owner. It will not be possible to call `onlyOwner` functions anymore. Can only be called by the current owner. NOTE: Renouncing ownership will leave the contract without an owner, thereby removing any functionality that is only available to the owner."
					},
					"revoke(bytes32)": {
						"params": {
							"vestingScheduleId": "the vesting schedule identifier"
						}
					},
					"transferOwnership(address)": {
						"details": "Transfers ownership of the contract to a new account (`newOwner`). Can only be called by the current owner."
					},
					"withdraw(uint256)": {
						"params": {
							"amount": "the amount to withdraw"
						}
					}
				},
				"title": "PaymeTokenVesting",
				"version": 1
			},
			"evm": {
				"assembly": "    /* \"contracts/PaymeTokenVesting.sol\":481:12185  contract PaymeTokenVesting is Ownable, ReentrancyGuard{... */\n  mstore(0x40, 0xa0)\n    /* \"contracts/PaymeTokenVesting.sol\":2426:2535  constructor(address token_) {... */\n  callvalue\n  dup1\n  iszero\n  tag_1\n  jumpi\n  0x00\n  dup1\n  revert\ntag_1:\n  pop\n  mload(0x40)\n  sub(codesize, bytecodeSize)\n  dup1\n  bytecodeSize\n  dup4\n  codecopy\n  dup2\n  add\n  0x40\n  dup2\n  swap1\n  mstore\n  tag_2\n  swap2\n  tag_3\n  jump\t// in\ntag_2:\n    /* \"@openzeppelin/contracts/access/Ownable.sol\":936:968  _transferOwnership(_msgSender()) */\n  tag_8\n    /* \"@openzeppelin/contracts/utils/Context.sol\":719:729  msg.sender */\n  caller\n    /* \"@openzeppelin/contracts/access/Ownable.sol\":936:954  _transferOwnership */\n  tag_11\n    /* \"@openzeppelin/contracts/access/Ownable.sol\":936:968  _transferOwnership(_msgSender()) */\n  jump\t// in\ntag_8:\n    /* \"@openzeppelin/contracts/security/ReentrancyGuard.sol\":1701:1702  1 */\n  0x01\n    /* \"@openzeppelin/contracts/security/ReentrancyGuard.sol\":1806:1828  _status = _NOT_ENTERED */\n  dup1\n  sstore\n  sub(shl(0xa0, 0x01), 0x01)\n    /* \"contracts/PaymeTokenVesting.sol\":2472:2494  token_ != address(0x0) */\n  dup2\n  and\n    /* \"contracts/PaymeTokenVesting.sol\":2464:2495  require(token_ != address(0x0)) */\n  tag_14\n  jumpi\n  0x00\n  dup1\n  revert\ntag_14:\n  sub(shl(0xa0, 0x01), 0x01)\n    /* \"contracts/PaymeTokenVesting.sol\":2505:2528  _token = IERC20(token_) */\n  and\n  0x80\n  mstore\n    /* \"contracts/PaymeTokenVesting.sol\":481:12185  contract PaymeTokenVesting is Ownable, ReentrancyGuard{... */\n  jump(tag_18)\n    /* \"@openzeppelin/contracts/access/Ownable.sol\":2433:2620  function _transferOwnership(address newOwner) internal virtual {... */\ntag_11:\n    /* \"@openzeppelin/contracts/access/Ownable.sol\":2506:2522  address oldOwner */\n  0x00\n    /* \"@openzeppelin/contracts/access/Ownable.sol\":2525:2531  _owner */\n  dup1\n  sload\n  sub(shl(0xa0, 0x01), 0x01)\n    /* \"@openzeppelin/contracts/access/Ownable.sol\":2541:2558  _owner = newOwner */\n  dup4\n  dup2\n  and\n  not(sub(shl(0xa0, 0x01), 0x01))\n  dup4\n  and\n  dup2\n  or\n  dup5\n  sstore\n    /* \"@openzeppelin/contracts/access/Ownable.sol\":2573:2613  OwnershipTransferred(oldOwner, newOwner) */\n  mload(0x40)\n    /* \"@openzeppelin/contracts/access/Ownable.sol\":2525:2531  _owner */\n  swap2\n  swap1\n  swap3\n  and\n  swap3\n  dup4\n  swap2\n    /* \"@openzeppelin/contracts/access/Ownable.sol\":2573:2613  OwnershipTransferred(oldOwner, newOwner) */\n  0x8be0079c531659141344cd1fd0a4f28419497f9722a3daafe3b4186f6b6457e0\n  swap2\n    /* \"@openzeppelin/contracts/access/Ownable.sol\":2506:2522  address oldOwner */\n  swap1\n    /* \"@openzeppelin/contracts/access/Ownable.sol\":2573:2613  OwnershipTransferred(oldOwner, newOwner) */\n  log3\n    /* \"@openzeppelin/contracts/access/Ownable.sol\":2496:2620  {... */\n  pop\n    /* \"@openzeppelin/contracts/access/Ownable.sol\":2433:2620  function _transferOwnership(address newOwner) internal virtual {... */\n  pop\n  jump\t// out\n    /* \"#utility.yul\":14:304   */\ntag_3:\n    /* \"#utility.yul\":84:90   */\n  0x00\n    /* \"#utility.yul\":137:139   */\n  0x20\n    /* \"#utility.yul\":125:134   */\n  dup3\n    /* \"#utility.yul\":116:123   */\n  dup5\n    /* \"#utility.yul\":112:135   */\n  sub\n    /* \"#utility.yul\":108:140   */\n  slt\n    /* \"#utility.yul\":105:157   */\n  iszero\n  tag_20\n  jumpi\n    /* \"#utility.yul\":153:154   */\n  0x00\n    /* \"#utility.yul\":150:151   */\n  dup1\n    /* \"#utility.yul\":143:155   */\n  revert\n    /* \"#utility.yul\":105:157   */\ntag_20:\n    /* \"#utility.yul\":179:195   */\n  dup2\n  mload\n  sub(shl(0xa0, 0x01), 0x01)\n    /* \"#utility.yul\":224:255   */\n  dup2\n  and\n    /* \"#utility.yul\":214:256   */\n  dup2\n  eq\n    /* \"#utility.yul\":204:274   */\n  tag_21\n  jumpi\n    /* \"#utility.yul\":270:271   */\n  0x00\n    /* \"#utility.yul\":267:268   */\n  dup1\n    /* \"#utility.yul\":260:272   */\n  revert\n    /* \"#utility.yul\":204:274   */\ntag_21:\n    /* \"#utility.yul\":293:298   */\n  swap4\n    /* \"#utility.yul\":14:304   */\n  swap3\n  pop\n  pop\n  pop\n  jump\t// out\ntag_18:\n    /* \"contracts/PaymeTokenVesting.sol\":481:12185  contract PaymeTokenVesting is Ownable, ReentrancyGuard{... */\n  mload(0x80)\n  codecopy(0x00, dataOffset(sub_0), dataSize(sub_0))\n  0x00\n  assignImmutable(\"0x33b1bb93466604d6eef61d9dccb76e3bbe6e34c9cae650f94ab002a5eaeb5e05\")\n  return(0x00, dataSize(sub_0))\nstop\n\nsub_0: assembly {\n        /* \"contracts/PaymeTokenVesting.sol\":481:12185  contract PaymeTokenVesting is Ownable, ReentrancyGuard{... */\n      mstore(0x40, 0x80)\n      jumpi(tag_1, lt(calldatasize, 0x04))\n      shr(0xe0, calldataload(0x00))\n      dup1\n      0x8af104da\n      gt\n      tag_22\n      jumpi\n      dup1\n      0xea1bb3d5\n      gt\n      tag_23\n      jumpi\n      dup1\n      0xea1bb3d5\n      eq\n      tag_17\n      jumpi\n      dup1\n      0xf2fde38b\n      eq\n      tag_18\n      jumpi\n      dup1\n      0xf51321d7\n      eq\n      tag_19\n      jumpi\n      dup1\n      0xf7c469f0\n      eq\n      tag_20\n      jumpi\n      dup1\n      0xf9079b37\n      eq\n      tag_21\n      jumpi\n      stop\n    tag_23:\n      dup1\n      0x8af104da\n      eq\n      tag_12\n      jumpi\n      dup1\n      0x8da5cb5b\n      eq\n      tag_13\n      jumpi\n      dup1\n      0x90be10cc\n      eq\n      tag_14\n      jumpi\n      dup1\n      0x9ef346b4\n      eq\n      tag_15\n      jumpi\n      dup1\n      0xb75c7dc6\n      eq\n      tag_16\n      jumpi\n      stop\n    tag_22:\n      dup1\n      0x48deb471\n      gt\n      tag_24\n      jumpi\n      dup1\n      0x48deb471\n      eq\n      tag_7\n      jumpi\n      dup1\n      0x5a7bb69a\n      eq\n      tag_8\n      jumpi\n      dup1\n      0x66afd8ef\n      eq\n      tag_9\n      jumpi\n      dup1\n      0x715018a6\n      eq\n      tag_10\n      jumpi\n      dup1\n      0x7e913dc6\n      eq\n      tag_11\n      jumpi\n      stop\n    tag_24:\n      dup1\n      0x13083617\n      eq\n      tag_3\n      jumpi\n      dup1\n      0x17e289e9\n      eq\n      tag_4\n      jumpi\n      dup1\n      0x21df0da7\n      eq\n      tag_5\n      jumpi\n      dup1\n      0x2e1a7d4d\n      eq\n      tag_6\n      jumpi\n      stop\n    tag_1:\n      jumpi(tag_2, calldatasize)\n      stop\n    tag_2:\n      stop\n        /* \"contracts/PaymeTokenVesting.sol\":8684:8822  function getVestingSchedulesCount()... */\n    tag_3:\n      callvalue\n      dup1\n      iszero\n      tag_29\n      jumpi\n      0x00\n      dup1\n      revert\n    tag_29:\n      pop\n        /* \"contracts/PaymeTokenVesting.sol\":8789:8808  vestingSchedulesIds */\n      0x02\n        /* \"contracts/PaymeTokenVesting.sol\":8789:8815  vestingSchedulesIds.length */\n      sload\n        /* \"contracts/PaymeTokenVesting.sol\":8684:8822  function getVestingSchedulesCount()... */\n    tag_30:\n      mload(0x40)\n        /* \"#utility.yul\":160:185   */\n      swap1\n      dup2\n      mstore\n        /* \"#utility.yul\":148:150   */\n      0x20\n        /* \"#utility.yul\":133:151   */\n      add\n        /* \"contracts/PaymeTokenVesting.sol\":8684:8822  function getVestingSchedulesCount()... */\n    tag_32:\n      mload(0x40)\n      dup1\n      swap2\n      sub\n      swap1\n      return\n        /* \"contracts/PaymeTokenVesting.sol\":4772:6145  function createVestingSchedule(... */\n    tag_4:\n      callvalue\n      dup1\n      iszero\n      tag_34\n      jumpi\n      0x00\n      dup1\n      revert\n    tag_34:\n      pop\n      tag_2\n      tag_36\n      calldatasize\n      0x04\n      tag_37\n      jump\t// in\n    tag_36:\n      tag_38\n      jump\t// in\n        /* \"contracts/PaymeTokenVesting.sol\":4031:4132  function getToken()... */\n    tag_5:\n      callvalue\n      dup1\n      iszero\n      tag_39\n      jumpi\n      0x00\n      dup1\n      revert\n    tag_39:\n      pop\n        /* \"contracts/PaymeTokenVesting.sol\":4118:4124  _token */\n      immutable(\"0x33b1bb93466604d6eef61d9dccb76e3bbe6e34c9cae650f94ab002a5eaeb5e05\")\n        /* \"contracts/PaymeTokenVesting.sol\":4031:4132  function getToken()... */\n    tag_40:\n      mload(0x40)\n      sub(shl(0xa0, 0x01), 0x01)\n        /* \"#utility.yul\":1434:1466   */\n      swap1\n      swap2\n      and\n        /* \"#utility.yul\":1416:1467   */\n      dup2\n      mstore\n        /* \"#utility.yul\":1404:1406   */\n      0x20\n        /* \"#utility.yul\":1389:1407   */\n      add\n        /* \"contracts/PaymeTokenVesting.sol\":4031:4132  function getToken()... */\n      tag_32\n        /* \"#utility.yul\":1270:1473   */\n      jump\n        /* \"contracts/PaymeTokenVesting.sol\":7116:7360  function withdraw(uint256 amount)... */\n    tag_6:\n      callvalue\n      dup1\n      iszero\n      tag_44\n      jumpi\n      0x00\n      dup1\n      revert\n    tag_44:\n      pop\n      tag_2\n      tag_46\n      calldatasize\n      0x04\n      tag_47\n      jump\t// in\n    tag_46:\n      tag_48\n      jump\t// in\n        /* \"contracts/PaymeTokenVesting.sol\":3792:3927  function getVestingSchedulesTotalAmount()... */\n    tag_7:\n      callvalue\n      dup1\n      iszero\n      tag_49\n      jumpi\n      0x00\n      dup1\n      revert\n    tag_49:\n      pop\n        /* \"contracts/PaymeTokenVesting.sol\":3893:3920  vestingSchedulesTotalAmount */\n      sload(0x04)\n        /* \"contracts/PaymeTokenVesting.sol\":3792:3927  function getVestingSchedulesTotalAmount()... */\n      jump(tag_30)\n        /* \"contracts/PaymeTokenVesting.sol\":2753:2921  function getVestingSchedulesCountByBeneficiary(address _beneficiary)... */\n    tag_8:\n      callvalue\n      dup1\n      iszero\n      tag_53\n      jumpi\n      0x00\n      dup1\n      revert\n    tag_53:\n      pop\n      tag_30\n      tag_55\n      calldatasize\n      0x04\n      tag_56\n      jump\t// in\n    tag_55:\n      sub(shl(0xa0, 0x01), 0x01)\n        /* \"contracts/PaymeTokenVesting.sol\":2881:2914  holdersVestingCount[_beneficiary] */\n      and\n        /* \"contracts/PaymeTokenVesting.sol\":2856:2863  uint256 */\n      0x00\n        /* \"contracts/PaymeTokenVesting.sol\":2881:2914  holdersVestingCount[_beneficiary] */\n      swap1\n      dup2\n      mstore\n        /* \"contracts/PaymeTokenVesting.sol\":2881:2900  holdersVestingCount */\n      0x05\n        /* \"contracts/PaymeTokenVesting.sol\":2881:2914  holdersVestingCount[_beneficiary] */\n      0x20\n      mstore\n      0x40\n      swap1\n      keccak256\n      sload\n      swap1\n        /* \"contracts/PaymeTokenVesting.sol\":2753:2921  function getVestingSchedulesCountByBeneficiary(address _beneficiary)... */\n      jump\n        /* \"contracts/PaymeTokenVesting.sol\":7533:8540  function release(... */\n    tag_9:\n      callvalue\n      dup1\n      iszero\n      tag_59\n      jumpi\n      0x00\n      dup1\n      revert\n    tag_59:\n      pop\n      tag_2\n      tag_61\n      calldatasize\n      0x04\n      tag_62\n      jump\t// in\n    tag_61:\n      tag_63\n      jump\t// in\n        /* \"@openzeppelin/contracts/access/Ownable.sol\":1831:1932  function renounceOwnership() public virtual onlyOwner {... */\n    tag_10:\n      callvalue\n      dup1\n      iszero\n      tag_64\n      jumpi\n      0x00\n      dup1\n      revert\n    tag_64:\n      pop\n      tag_2\n      tag_66\n      jump\t// in\n        /* \"contracts/PaymeTokenVesting.sol\":10353:10602  function getLastVestingScheduleForHolder(address holder)... */\n    tag_11:\n      callvalue\n      dup1\n      iszero\n      tag_67\n      jumpi\n      0x00\n      dup1\n      revert\n    tag_67:\n      pop\n      tag_68\n      tag_69\n      calldatasize\n      0x04\n      tag_56\n      jump\t// in\n    tag_69:\n      tag_70\n      jump\t// in\n    tag_68:\n      mload(0x40)\n      tag_32\n      swap2\n      swap1\n      tag_72\n      jump\t// in\n        /* \"contracts/PaymeTokenVesting.sol\":10704:10905  function computeVestingScheduleIdForAddressAndIndex(address holder, uint256 index)... */\n    tag_12:\n      callvalue\n      dup1\n      iszero\n      tag_73\n      jumpi\n      0x00\n      dup1\n      revert\n    tag_73:\n      pop\n      tag_30\n      tag_75\n      calldatasize\n      0x04\n      tag_76\n      jump\t// in\n    tag_75:\n      tag_77\n      jump\t// in\n        /* \"@openzeppelin/contracts/access/Ownable.sol\":1201:1286  function owner() public view virtual returns (address) {... */\n    tag_13:\n      callvalue\n      dup1\n      iszero\n      tag_80\n      jumpi\n      0x00\n      dup1\n      revert\n    tag_80:\n      pop\n        /* \"@openzeppelin/contracts/access/Ownable.sol\":1247:1254  address */\n      0x00\n        /* \"@openzeppelin/contracts/access/Ownable.sol\":1273:1279  _owner */\n      sload\n      sub(shl(0xa0, 0x01), 0x01)\n      and\n        /* \"@openzeppelin/contracts/access/Ownable.sol\":1201:1286  function owner() public view virtual returns (address) {... */\n      jump(tag_40)\n        /* \"contracts/PaymeTokenVesting.sol\":9762:9935  function getWithdrawableAmount()... */\n    tag_14:\n      callvalue\n      dup1\n      iszero\n      tag_84\n      jumpi\n      0x00\n      dup1\n      revert\n    tag_84:\n      pop\n      tag_30\n      tag_86\n      jump\t// in\n        /* \"contracts/PaymeTokenVesting.sol\":9449:9630  function getVestingSchedule(bytes32 vestingScheduleId)... */\n    tag_15:\n      callvalue\n      dup1\n      iszero\n      tag_88\n      jumpi\n      0x00\n      dup1\n      revert\n    tag_88:\n      pop\n      tag_68\n      tag_90\n      calldatasize\n      0x04\n      tag_47\n      jump\t// in\n    tag_90:\n      tag_92\n      jump\t// in\n        /* \"contracts/PaymeTokenVesting.sol\":6294:6995  function revoke(bytes32 vestingScheduleId)... */\n    tag_16:\n      callvalue\n      dup1\n      iszero\n      tag_94\n      jumpi\n      0x00\n      dup1\n      revert\n    tag_94:\n      pop\n      tag_2\n      tag_96\n      calldatasize\n      0x04\n      tag_47\n      jump\t// in\n    tag_96:\n      tag_97\n      jump\t// in\n        /* \"contracts/PaymeTokenVesting.sol\":8969:9292  function computeReleasableAmount(bytes32 vestingScheduleId)... */\n    tag_17:\n      callvalue\n      dup1\n      iszero\n      tag_98\n      jumpi\n      0x00\n      dup1\n      revert\n    tag_98:\n      pop\n      tag_30\n      tag_100\n      calldatasize\n      0x04\n      tag_47\n      jump\t// in\n    tag_100:\n      tag_101\n      jump\t// in\n        /* \"@openzeppelin/contracts/access/Ownable.sol\":2081:2279  function transferOwnership(address newOwner) public virtual onlyOwner {... */\n    tag_18:\n      callvalue\n      dup1\n      iszero\n      tag_103\n      jumpi\n      0x00\n      dup1\n      revert\n    tag_103:\n      pop\n      tag_2\n      tag_105\n      calldatasize\n      0x04\n      tag_56\n      jump\t// in\n    tag_105:\n      tag_106\n      jump\t// in\n        /* \"contracts/PaymeTokenVesting.sol\":3423:3657  function getVestingScheduleByAddressAndIndex(address holder, uint256 index)... */\n    tag_19:\n      callvalue\n      dup1\n      iszero\n      tag_107\n      jumpi\n      0x00\n      dup1\n      revert\n    tag_107:\n      pop\n      tag_68\n      tag_109\n      calldatasize\n      0x04\n      tag_76\n      jump\t// in\n    tag_109:\n      tag_110\n      jump\t// in\n        /* \"contracts/PaymeTokenVesting.sol\":10041:10259  function computeNextVestingScheduleIdForHolder(address holder)... */\n    tag_20:\n      callvalue\n      dup1\n      iszero\n      tag_112\n      jumpi\n      0x00\n      dup1\n      revert\n    tag_112:\n      pop\n      tag_30\n      tag_114\n      calldatasize\n      0x04\n      tag_56\n      jump\t// in\n    tag_114:\n      tag_115\n      jump\t// in\n        /* \"contracts/PaymeTokenVesting.sol\":3034:3260  function getVestingIdAtIndex(uint256 index)... */\n    tag_21:\n      callvalue\n      dup1\n      iszero\n      tag_117\n      jumpi\n      0x00\n      dup1\n      revert\n    tag_117:\n      pop\n      tag_30\n      tag_119\n      calldatasize\n      0x04\n      tag_47\n      jump\t// in\n    tag_119:\n      tag_120\n      jump\t// in\n        /* \"contracts/PaymeTokenVesting.sol\":4772:6145  function createVestingSchedule(... */\n    tag_38:\n        /* \"@openzeppelin/contracts/access/Ownable.sol\":1094:1107  _checkOwner() */\n      tag_124\n        /* \"@openzeppelin/contracts/access/Ownable.sol\":1094:1105  _checkOwner */\n      tag_125\n        /* \"@openzeppelin/contracts/access/Ownable.sol\":1094:1107  _checkOwner() */\n      jump\t// in\n    tag_124:\n        /* \"contracts/PaymeTokenVesting.sol\":5096:5103  _amount */\n      dup1\n        /* \"contracts/PaymeTokenVesting.sol\":5064:5068  this */\n      address\n      sub(shl(0xa0, 0x01), 0x01)\n        /* \"contracts/PaymeTokenVesting.sol\":5064:5090  this.getWithdrawableAmount */\n      and\n      0x90be10cc\n        /* \"contracts/PaymeTokenVesting.sol\":5064:5092  this.getWithdrawableAmount() */\n      mload(0x40)\n      dup2\n      0xffffffff\n      and\n      0xe0\n      shl\n      dup2\n      mstore\n      0x04\n      add\n      0x20\n      mload(0x40)\n      dup1\n      dup4\n      sub\n      dup2\n      dup7\n      dup1\n      extcodesize\n      iszero\n      dup1\n      iszero\n      tag_127\n      jumpi\n      0x00\n      dup1\n      revert\n    tag_127:\n      pop\n      gas\n      staticcall\n      iszero\n      dup1\n      iszero\n      tag_129\n      jumpi\n      returndatasize\n      0x00\n      dup1\n      returndatacopy\n      revert(0x00, returndatasize)\n    tag_129:\n      pop\n      pop\n      pop\n      pop\n      mload(0x40)\n      returndatasize\n      not(0x1f)\n      0x1f\n      dup3\n      add\n      and\n      dup3\n      add\n      dup1\n      0x40\n      mstore\n      pop\n      dup2\n      add\n      swap1\n      tag_130\n      swap2\n      swap1\n      tag_131\n      jump\t// in\n    tag_130:\n        /* \"contracts/PaymeTokenVesting.sol\":5064:5103  this.getWithdrawableAmount() >= _amount */\n      lt\n      iszero\n        /* \"contracts/PaymeTokenVesting.sol\":5043:5203  require(... */\n      tag_132\n      jumpi\n      mload(0x40)\n      shl(0xe5, 0x461bcd)\n      dup2\n      mstore\n        /* \"#utility.yul\":4255:4257   */\n      0x20\n        /* \"contracts/PaymeTokenVesting.sol\":5043:5203  require(... */\n      0x04\n      dup3\n      add\n        /* \"#utility.yul\":4237:4258   */\n      mstore\n        /* \"#utility.yul\":4294:4296   */\n      0x4a\n        /* \"#utility.yul\":4274:4292   */\n      0x24\n      dup3\n      add\n        /* \"#utility.yul\":4267:4297   */\n      mstore\n        /* \"#utility.yul\":4333:4367   */\n      0x546f6b656e56657374696e673a2063616e6e6f74206372656174652076657374\n        /* \"#utility.yul\":4313:4331   */\n      0x44\n      dup3\n      add\n        /* \"#utility.yul\":4306:4368   */\n      mstore\n        /* \"#utility.yul\":4404:4438   */\n      0x696e67207363686564756c652062656361757365206e6f742073756666696369\n        /* \"#utility.yul\":4384:4402   */\n      0x64\n      dup3\n      add\n        /* \"#utility.yul\":4377:4439   */\n      mstore\n      shl(0xb0, 0x656e7420746f6b656e73)\n        /* \"#utility.yul\":4455:4474   */\n      0x84\n      dup3\n      add\n        /* \"#utility.yul\":4448:4489   */\n      mstore\n        /* \"#utility.yul\":4506:4525   */\n      0xa4\n      add\n        /* \"contracts/PaymeTokenVesting.sol\":5043:5203  require(... */\n    tag_133:\n      mload(0x40)\n      dup1\n      swap2\n      sub\n      swap1\n      revert\n    tag_132:\n        /* \"contracts/PaymeTokenVesting.sol\":5233:5234  0 */\n      0x00\n        /* \"contracts/PaymeTokenVesting.sol\":5221:5230  _duration */\n      dup5\n        /* \"contracts/PaymeTokenVesting.sol\":5221:5234  _duration > 0 */\n      gt\n        /* \"contracts/PaymeTokenVesting.sol\":5213:5273  require(_duration > 0, \"TokenVesting: duration must be > 0\") */\n      tag_135\n      jumpi\n      mload(0x40)\n      shl(0xe5, 0x461bcd)\n      dup2\n      mstore\n        /* \"#utility.yul\":4738:4740   */\n      0x20\n        /* \"contracts/PaymeTokenVesting.sol\":5213:5273  require(_duration > 0, \"TokenVesting: duration must be > 0\") */\n      0x04\n      dup3\n      add\n        /* \"#utility.yul\":4720:4741   */\n      mstore\n        /* \"#utility.yul\":4777:4779   */\n      0x22\n        /* \"#utility.yul\":4757:4775   */\n      0x24\n      dup3\n      add\n        /* \"#utility.yul\":4750:4780   */\n      mstore\n        /* \"#utility.yul\":4816:4850   */\n      0x546f6b656e56657374696e673a206475726174696f6e206d757374206265203e\n        /* \"#utility.yul\":4796:4814   */\n      0x44\n      dup3\n      add\n        /* \"#utility.yul\":4789:4851   */\n      mstore\n      shl(0xf4, 0x0203)\n        /* \"#utility.yul\":4867:4885   */\n      0x64\n      dup3\n      add\n        /* \"#utility.yul\":4860:4892   */\n      mstore\n        /* \"#utility.yul\":4909:4928   */\n      0x84\n      add\n        /* \"contracts/PaymeTokenVesting.sol\":5213:5273  require(_duration > 0, \"TokenVesting: duration must be > 0\") */\n      tag_133\n        /* \"#utility.yul\":4536:4934   */\n      jump\n        /* \"contracts/PaymeTokenVesting.sol\":5213:5273  require(_duration > 0, \"TokenVesting: duration must be > 0\") */\n    tag_135:\n        /* \"contracts/PaymeTokenVesting.sol\":5301:5302  0 */\n      0x00\n        /* \"contracts/PaymeTokenVesting.sol\":5291:5298  _amount */\n      dup2\n        /* \"contracts/PaymeTokenVesting.sol\":5291:5302  _amount > 0 */\n      gt\n        /* \"contracts/PaymeTokenVesting.sol\":5283:5339  require(_amount > 0, \"TokenVesting: amount must be > 0\") */\n      tag_138\n      jumpi\n      mload(0x40)\n      shl(0xe5, 0x461bcd)\n      dup2\n      mstore\n        /* \"#utility.yul\":5141:5143   */\n      0x20\n        /* \"contracts/PaymeTokenVesting.sol\":5283:5339  require(_amount > 0, \"TokenVesting: amount must be > 0\") */\n      0x04\n      dup3\n      add\n        /* \"#utility.yul\":5123:5144   */\n      dup2\n      swap1\n      mstore\n        /* \"#utility.yul\":5160:5178   */\n      0x24\n      dup3\n      add\n        /* \"#utility.yul\":5153:5183   */\n      mstore\n        /* \"#utility.yul\":5219:5253   */\n      0x546f6b656e56657374696e673a20616d6f756e74206d757374206265203e2030\n        /* \"#utility.yul\":5199:5217   */\n      0x44\n      dup3\n      add\n        /* \"#utility.yul\":5192:5254   */\n      mstore\n        /* \"#utility.yul\":5271:5289   */\n      0x64\n      add\n        /* \"contracts/PaymeTokenVesting.sol\":5283:5339  require(_amount > 0, \"TokenVesting: amount must be > 0\") */\n      tag_133\n        /* \"#utility.yul\":4939:5295   */\n      jump\n        /* \"contracts/PaymeTokenVesting.sol\":5283:5339  require(_amount > 0, \"TokenVesting: amount must be > 0\") */\n    tag_138:\n        /* \"contracts/PaymeTokenVesting.sol\":5380:5381  1 */\n      0x01\n        /* \"contracts/PaymeTokenVesting.sol\":5357:5376  _slicePeriodSeconds */\n      dup4\n        /* \"contracts/PaymeTokenVesting.sol\":5357:5381  _slicePeriodSeconds >= 1 */\n      lt\n      iszero\n        /* \"contracts/PaymeTokenVesting.sol\":5349:5431  require(_slicePeriodSeconds >= 1, \"TokenVesting: slicePeriodSeconds must be >= 1\") */\n      tag_141\n      jumpi\n      mload(0x40)\n      shl(0xe5, 0x461bcd)\n      dup2\n      mstore\n        /* \"#utility.yul\":5502:5504   */\n      0x20\n        /* \"contracts/PaymeTokenVesting.sol\":5349:5431  require(_slicePeriodSeconds >= 1, \"TokenVesting: slicePeriodSeconds must be >= 1\") */\n      0x04\n      dup3\n      add\n        /* \"#utility.yul\":5484:5505   */\n      mstore\n        /* \"#utility.yul\":5541:5543   */\n      0x2d\n        /* \"#utility.yul\":5521:5539   */\n      0x24\n      dup3\n      add\n        /* \"#utility.yul\":5514:5544   */\n      mstore\n        /* \"#utility.yul\":5580:5614   */\n      0x546f6b656e56657374696e673a20736c696365506572696f645365636f6e6473\n        /* \"#utility.yul\":5560:5578   */\n      0x44\n      dup3\n      add\n        /* \"#utility.yul\":5553:5615   */\n      mstore\n      shl(0x98, 0x206d757374206265203e3d2031)\n        /* \"#utility.yul\":5631:5649   */\n      0x64\n      dup3\n      add\n        /* \"#utility.yul\":5624:5667   */\n      mstore\n        /* \"#utility.yul\":5684:5703   */\n      0x84\n      add\n        /* \"contracts/PaymeTokenVesting.sol\":5349:5431  require(_slicePeriodSeconds >= 1, \"TokenVesting: slicePeriodSeconds must be >= 1\") */\n      tag_133\n        /* \"#utility.yul\":5300:5709   */\n      jump\n        /* \"contracts/PaymeTokenVesting.sol\":5349:5431  require(_slicePeriodSeconds >= 1, \"TokenVesting: slicePeriodSeconds must be >= 1\") */\n    tag_141:\n        /* \"contracts/PaymeTokenVesting.sol\":5469:5525  this.computeNextVestingScheduleIdForHolder(_beneficiary) */\n      mload(0x40)\n      shl(0xe4, 0x0f7c469f)\n      dup2\n      mstore\n      sub(shl(0xa0, 0x01), 0x01)\n        /* \"#utility.yul\":1434:1466   */\n      dup9\n      and\n        /* \"contracts/PaymeTokenVesting.sol\":5469:5525  this.computeNextVestingScheduleIdForHolder(_beneficiary) */\n      0x04\n      dup3\n      add\n        /* \"#utility.yul\":1416:1467   */\n      mstore\n        /* \"contracts/PaymeTokenVesting.sol\":5441:5466  bytes32 vestingScheduleId */\n      0x00\n      swap1\n        /* \"contracts/PaymeTokenVesting.sol\":5469:5473  this */\n      address\n      swap1\n        /* \"contracts/PaymeTokenVesting.sol\":5469:5511  this.computeNextVestingScheduleIdForHolder */\n      0xf7c469f0\n      swap1\n        /* \"#utility.yul\":1389:1407   */\n      0x24\n      add\n        /* \"contracts/PaymeTokenVesting.sol\":5469:5525  this.computeNextVestingScheduleIdForHolder(_beneficiary) */\n      0x20\n      mload(0x40)\n      dup1\n      dup4\n      sub\n      dup2\n      dup7\n      dup1\n      extcodesize\n      iszero\n      dup1\n      iszero\n      tag_145\n      jumpi\n      0x00\n      dup1\n      revert\n    tag_145:\n      pop\n      gas\n      staticcall\n      iszero\n      dup1\n      iszero\n      tag_147\n      jumpi\n      returndatasize\n      0x00\n      dup1\n      returndatacopy\n      revert(0x00, returndatasize)\n    tag_147:\n      pop\n      pop\n      pop\n      pop\n      mload(0x40)\n      returndatasize\n      not(0x1f)\n      0x1f\n      dup3\n      add\n      and\n      dup3\n      add\n      dup1\n      0x40\n      mstore\n      pop\n      dup2\n      add\n      swap1\n      tag_148\n      swap2\n      swap1\n      tag_131\n      jump\t// in\n    tag_148:\n        /* \"contracts/PaymeTokenVesting.sol\":5441:5525  bytes32 vestingScheduleId = this.computeNextVestingScheduleIdForHolder(_beneficiary) */\n      swap1\n      pop\n        /* \"contracts/PaymeTokenVesting.sol\":5535:5548  uint256 cliff */\n      0x00\n        /* \"contracts/PaymeTokenVesting.sol\":5551:5569  _start.add(_cliff) */\n      tag_150\n        /* \"contracts/PaymeTokenVesting.sol\":5551:5557  _start */\n      dup9\n        /* \"contracts/PaymeTokenVesting.sol\":5562:5568  _cliff */\n      dup9\n        /* \"contracts/PaymeTokenVesting.sol\":5551:5561  _start.add */\n      tag_151\n        /* \"contracts/PaymeTokenVesting.sol\":5551:5569  _start.add(_cliff) */\n      jump\t// in\n    tag_150:\n        /* \"contracts/PaymeTokenVesting.sol\":5535:5569  uint256 cliff = _start.add(_cliff) */\n      swap1\n      pop\n        /* \"contracts/PaymeTokenVesting.sol\":5617:5860  VestingSchedule(... */\n      mload(0x40)\n      dup1\n      0x0140\n      add\n      0x40\n      mstore\n      dup1\n        /* \"contracts/PaymeTokenVesting.sol\":5646:5650  true */\n      0x01\n        /* \"contracts/PaymeTokenVesting.sol\":5617:5860  VestingSchedule(... */\n      iszero\n      iszero\n      dup2\n      mstore\n      0x20\n      add\n        /* \"contracts/PaymeTokenVesting.sol\":5664:5676  _beneficiary */\n      dup11\n      sub(shl(0xa0, 0x01), 0x01)\n        /* \"contracts/PaymeTokenVesting.sol\":5617:5860  VestingSchedule(... */\n      and\n      dup2\n      mstore\n      0x20\n      add\n        /* \"contracts/PaymeTokenVesting.sol\":5690:5695  cliff */\n      dup3\n        /* \"contracts/PaymeTokenVesting.sol\":5617:5860  VestingSchedule(... */\n      dup2\n      mstore\n      0x20\n      add\n        /* \"contracts/PaymeTokenVesting.sol\":5709:5715  _start */\n      dup10\n        /* \"contracts/PaymeTokenVesting.sol\":5617:5860  VestingSchedule(... */\n      dup2\n      mstore\n      0x20\n      add\n        /* \"contracts/PaymeTokenVesting.sol\":5729:5738  _duration */\n      dup8\n        /* \"contracts/PaymeTokenVesting.sol\":5617:5860  VestingSchedule(... */\n      dup2\n      mstore\n      0x20\n      add\n        /* \"contracts/PaymeTokenVesting.sol\":5752:5771  _slicePeriodSeconds */\n      dup7\n        /* \"contracts/PaymeTokenVesting.sol\":5617:5860  VestingSchedule(... */\n      dup2\n      mstore\n      0x20\n      add\n        /* \"contracts/PaymeTokenVesting.sol\":5785:5795  _revocable */\n      dup6\n        /* \"contracts/PaymeTokenVesting.sol\":5617:5860  VestingSchedule(... */\n      iszero\n      iszero\n      dup2\n      mstore\n      0x20\n      add\n        /* \"contracts/PaymeTokenVesting.sol\":5809:5816  _amount */\n      dup5\n        /* \"contracts/PaymeTokenVesting.sol\":5617:5860  VestingSchedule(... */\n      dup2\n      mstore\n      0x20\n      add\n        /* \"contracts/PaymeTokenVesting.sol\":5830:5831  0 */\n      0x00\n        /* \"contracts/PaymeTokenVesting.sol\":5617:5860  VestingSchedule(... */\n      dup2\n      mstore\n      0x20\n      add\n        /* \"contracts/PaymeTokenVesting.sol\":5845:5850  false */\n      0x00\n        /* \"contracts/PaymeTokenVesting.sol\":5617:5860  VestingSchedule(... */\n      iszero\n      iszero\n      dup2\n      mstore\n      pop\n        /* \"contracts/PaymeTokenVesting.sol\":5579:5595  vestingSchedules */\n      0x03\n        /* \"contracts/PaymeTokenVesting.sol\":5579:5614  vestingSchedules[vestingScheduleId] */\n      0x00\n        /* \"contracts/PaymeTokenVesting.sol\":5596:5613  vestingScheduleId */\n      dup5\n        /* \"contracts/PaymeTokenVesting.sol\":5579:5614  vestingSchedules[vestingScheduleId] */\n      dup2\n      mstore\n      0x20\n      add\n      swap1\n      dup2\n      mstore\n      0x20\n      add\n      0x00\n      keccak256\n        /* \"contracts/PaymeTokenVesting.sol\":5579:5860  vestingSchedules[vestingScheduleId] = VestingSchedule(... */\n      0x00\n      dup3\n      add\n      mload\n      dup2\n      0x00\n      add\n      exp(0x0100, 0x00)\n      dup2\n      sload\n      dup2\n      0xff\n      mul\n      not\n      and\n      swap1\n      dup4\n      iszero\n      iszero\n      mul\n      or\n      swap1\n      sstore\n      pop\n      0x20\n      dup3\n      add\n      mload\n      dup2\n      0x00\n      add\n      exp(0x0100, 0x01)\n      dup2\n      sload\n      dup2\n      sub(shl(0xa0, 0x01), 0x01)\n      mul\n      not\n      and\n      swap1\n      dup4\n      sub(shl(0xa0, 0x01), 0x01)\n      and\n      mul\n      or\n      swap1\n      sstore\n      pop\n      0x40\n      dup3\n      add\n      mload\n      dup2\n      0x01\n      add\n      sstore\n      0x60\n      dup3\n      add\n      mload\n      dup2\n      0x02\n      add\n      sstore\n      0x80\n      dup3\n      add\n      mload\n      dup2\n      0x03\n      add\n      sstore\n      0xa0\n      dup3\n      add\n      mload\n      dup2\n      0x04\n      add\n      sstore\n      0xc0\n      dup3\n      add\n      mload\n      dup2\n      0x05\n      add\n      exp(0x0100, 0x00)\n      dup2\n      sload\n      dup2\n      0xff\n      mul\n      not\n      and\n      swap1\n      dup4\n      iszero\n      iszero\n      mul\n      or\n      swap1\n      sstore\n      pop\n      0xe0\n      dup3\n      add\n      mload\n      dup2\n      0x06\n      add\n      sstore\n      0x0100\n      dup3\n      add\n      mload\n      dup2\n      0x07\n      add\n      sstore\n      0x0120\n      dup3\n      add\n      mload\n      dup2\n      0x08\n      add\n      exp(0x0100, 0x00)\n      dup2\n      sload\n      dup2\n      0xff\n      mul\n      not\n      and\n      swap1\n      dup4\n      iszero\n      iszero\n      mul\n      or\n      swap1\n      sstore\n      pop\n      swap1\n      pop\n      pop\n        /* \"contracts/PaymeTokenVesting.sol\":5900:5940  vestingSchedulesTotalAmount.add(_amount) */\n      tag_152\n        /* \"contracts/PaymeTokenVesting.sol\":5932:5939  _amount */\n      dup4\n        /* \"contracts/PaymeTokenVesting.sol\":5900:5927  vestingSchedulesTotalAmount */\n      sload(0x04)\n        /* \"contracts/PaymeTokenVesting.sol\":5900:5931  vestingSchedulesTotalAmount.add */\n      tag_151\n      swap1\n        /* \"contracts/PaymeTokenVesting.sol\":5900:5940  vestingSchedulesTotalAmount.add(_amount) */\n      swap2\n      swap1\n      0xffffffff\n      and\n      jump\t// in\n    tag_152:\n        /* \"contracts/PaymeTokenVesting.sol\":5870:5897  vestingSchedulesTotalAmount */\n      0x04\n        /* \"contracts/PaymeTokenVesting.sol\":5870:5940  vestingSchedulesTotalAmount = vestingSchedulesTotalAmount.add(_amount) */\n      sstore\n        /* \"contracts/PaymeTokenVesting.sol\":5950:5969  vestingSchedulesIds */\n      0x02\n        /* \"contracts/PaymeTokenVesting.sol\":5950:5993  vestingSchedulesIds.push(vestingScheduleId) */\n      dup1\n      sload\n      0x01\n      dup2\n      dup2\n      add\n      swap1\n      swap3\n      sstore\n      0x405787fa12a823e0f2b7631cc41b3ba8828b3321ca811111fa75cd3aa3bb5ace\n      add\n      dup4\n      swap1\n      sstore\n      sub(shl(0xa0, 0x01), 0x01)\n        /* \"contracts/PaymeTokenVesting.sol\":6033:6066  holdersVestingCount[_beneficiary] */\n      dup11\n      and\n      0x00\n      swap1\n      dup2\n      mstore\n        /* \"contracts/PaymeTokenVesting.sol\":6033:6052  holdersVestingCount */\n      0x05\n        /* \"contracts/PaymeTokenVesting.sol\":5950:5993  vestingSchedulesIds.push(vestingScheduleId) */\n      0x20\n        /* \"contracts/PaymeTokenVesting.sol\":6033:6066  holdersVestingCount[_beneficiary] */\n      mstore\n      0x40\n      swap1\n      keccak256\n      sload\n      swap1\n        /* \"contracts/PaymeTokenVesting.sol\":6112:6138  currentVestingCount.add(1) */\n      tag_154\n      swap1\n        /* \"contracts/PaymeTokenVesting.sol\":6033:6066  holdersVestingCount[_beneficiary] */\n      dup3\n      swap1\n        /* \"contracts/PaymeTokenVesting.sol\":6112:6135  currentVestingCount.add */\n      tag_151\n        /* \"contracts/PaymeTokenVesting.sol\":6112:6138  currentVestingCount.add(1) */\n      jump\t// in\n    tag_154:\n      sub(shl(0xa0, 0x01), 0x01)\n        /* \"contracts/PaymeTokenVesting.sol\":6076:6109  holdersVestingCount[_beneficiary] */\n      swap1\n      swap11\n      and\n      0x00\n      swap1\n      dup2\n      mstore\n        /* \"contracts/PaymeTokenVesting.sol\":6076:6095  holdersVestingCount */\n      0x05\n        /* \"contracts/PaymeTokenVesting.sol\":6076:6109  holdersVestingCount[_beneficiary] */\n      0x20\n      mstore\n      0x40\n      swap1\n      keccak256\n        /* \"contracts/PaymeTokenVesting.sol\":6076:6138  holdersVestingCount[_beneficiary] = currentVestingCount.add(1) */\n      swap10\n      swap1\n      swap10\n      sstore\n      pop\n      pop\n      pop\n      pop\n      pop\n      pop\n      pop\n      pop\n      pop\n        /* \"contracts/PaymeTokenVesting.sol\":4772:6145  function createVestingSchedule(... */\n      jump\t// out\n        /* \"contracts/PaymeTokenVesting.sol\":7116:7360  function withdraw(uint256 amount)... */\n    tag_48:\n        /* \"@openzeppelin/contracts/security/ReentrancyGuard.sol\":1744:1745  2 */\n      0x02\n        /* \"@openzeppelin/contracts/security/ReentrancyGuard.sol\":2325:2332  _status */\n      sload(0x01)\n        /* \"@openzeppelin/contracts/security/ReentrancyGuard.sol\":2325:2344  _status != _ENTERED */\n      eq\n      iszero\n        /* \"@openzeppelin/contracts/security/ReentrancyGuard.sol\":2317:2380  require(_status != _ENTERED, \"ReentrancyGuard: reentrant call\") */\n      tag_157\n      jumpi\n      mload(0x40)\n      shl(0xe5, 0x461bcd)\n      dup2\n      mstore\n        /* \"#utility.yul\":6105:6107   */\n      0x20\n        /* \"@openzeppelin/contracts/security/ReentrancyGuard.sol\":2317:2380  require(_status != _ENTERED, \"ReentrancyGuard: reentrant call\") */\n      0x04\n      dup3\n      add\n        /* \"#utility.yul\":6087:6108   */\n      mstore\n        /* \"#utility.yul\":6144:6146   */\n      0x1f\n        /* \"#utility.yul\":6124:6142   */\n      0x24\n      dup3\n      add\n        /* \"#utility.yul\":6117:6147   */\n      mstore\n        /* \"#utility.yul\":6183:6216   */\n      0x5265656e7472616e637947756172643a207265656e7472616e742063616c6c00\n        /* \"#utility.yul\":6163:6181   */\n      0x44\n      dup3\n      add\n        /* \"#utility.yul\":6156:6217   */\n      mstore\n        /* \"#utility.yul\":6234:6252   */\n      0x64\n      add\n        /* \"@openzeppelin/contracts/security/ReentrancyGuard.sol\":2317:2380  require(_status != _ENTERED, \"ReentrancyGuard: reentrant call\") */\n      tag_133\n        /* \"#utility.yul\":5903:6258   */\n      jump\n        /* \"@openzeppelin/contracts/security/ReentrancyGuard.sol\":2317:2380  require(_status != _ENTERED, \"ReentrancyGuard: reentrant call\") */\n    tag_157:\n        /* \"@openzeppelin/contracts/security/ReentrancyGuard.sol\":1744:1745  2 */\n      0x02\n        /* \"@openzeppelin/contracts/security/ReentrancyGuard.sol\":2455:2462  _status */\n      0x01\n        /* \"@openzeppelin/contracts/security/ReentrancyGuard.sol\":2455:2473  _status = _ENTERED */\n      sstore\n        /* \"@openzeppelin/contracts/access/Ownable.sol\":1094:1107  _checkOwner() */\n      tag_161\n        /* \"@openzeppelin/contracts/access/Ownable.sol\":1094:1105  _checkOwner */\n      tag_125\n        /* \"@openzeppelin/contracts/access/Ownable.sol\":1094:1107  _checkOwner() */\n      jump\t// in\n    tag_161:\n        /* \"contracts/PaymeTokenVesting.sol\":7253:7259  amount */\n      dup1\n        /* \"contracts/PaymeTokenVesting.sol\":7221:7225  this */\n      address\n      sub(shl(0xa0, 0x01), 0x01)\n        /* \"contracts/PaymeTokenVesting.sol\":7221:7247  this.getWithdrawableAmount */\n      and\n      0x90be10cc\n        /* \"contracts/PaymeTokenVesting.sol\":7221:7249  this.getWithdrawableAmount() */\n      mload(0x40)\n      dup2\n      0xffffffff\n      and\n      0xe0\n      shl\n      dup2\n      mstore\n      0x04\n      add\n      0x20\n      mload(0x40)\n      dup1\n      dup4\n      sub\n      dup2\n      dup7\n      dup1\n      extcodesize\n      iszero\n      dup1\n      iszero\n      tag_163\n      jumpi\n      0x00\n      dup1\n      revert\n    tag_163:\n      pop\n      gas\n      staticcall\n      iszero\n      dup1\n      iszero\n      tag_165\n      jumpi\n      returndatasize\n      0x00\n      dup1\n      returndatacopy\n      revert(0x00, returndatasize)\n    tag_165:\n      pop\n      pop\n      pop\n      pop\n      mload(0x40)\n      returndatasize\n      not(0x1f)\n      0x1f\n      dup3\n      add\n      and\n      dup3\n      add\n      dup1\n      0x40\n      mstore\n      pop\n      dup2\n      add\n      swap1\n      tag_166\n      swap2\n      swap1\n      tag_131\n      jump\t// in\n    tag_166:\n        /* \"contracts/PaymeTokenVesting.sol\":7221:7259  this.getWithdrawableAmount() >= amount */\n      lt\n      iszero\n        /* \"contracts/PaymeTokenVesting.sol\":7213:7307  require(this.getWithdrawableAmount() >= amount, \"TokenVesting: not enough withdrawable funds\") */\n      tag_167\n      jumpi\n      mload(0x40)\n      shl(0xe5, 0x461bcd)\n      dup2\n      mstore\n        /* \"#utility.yul\":6465:6467   */\n      0x20\n        /* \"contracts/PaymeTokenVesting.sol\":7213:7307  require(this.getWithdrawableAmount() >= amount, \"TokenVesting: not enough withdrawable funds\") */\n      0x04\n      dup3\n      add\n        /* \"#utility.yul\":6447:6468   */\n      mstore\n        /* \"#utility.yul\":6504:6506   */\n      0x2b\n        /* \"#utility.yul\":6484:6502   */\n      0x24\n      dup3\n      add\n        /* \"#utility.yul\":6477:6507   */\n      mstore\n        /* \"#utility.yul\":6543:6577   */\n      0x546f6b656e56657374696e673a206e6f7420656e6f7567682077697468647261\n        /* \"#utility.yul\":6523:6541   */\n      0x44\n      dup3\n      add\n        /* \"#utility.yul\":6516:6578   */\n      mstore\n      shl(0xa8, 0x7761626c652066756e6473)\n        /* \"#utility.yul\":6594:6612   */\n      0x64\n      dup3\n      add\n        /* \"#utility.yul\":6587:6628   */\n      mstore\n        /* \"#utility.yul\":6645:6664   */\n      0x84\n      add\n        /* \"contracts/PaymeTokenVesting.sol\":7213:7307  require(this.getWithdrawableAmount() >= amount, \"TokenVesting: not enough withdrawable funds\") */\n      tag_133\n        /* \"#utility.yul\":6263:6670   */\n      jump\n        /* \"contracts/PaymeTokenVesting.sol\":7213:7307  require(this.getWithdrawableAmount() >= amount, \"TokenVesting: not enough withdrawable funds\") */\n    tag_167:\n        /* \"contracts/PaymeTokenVesting.sol\":7317:7353  _token.safeTransfer(owner(), amount) */\n      tag_170\n        /* \"contracts/PaymeTokenVesting.sol\":7337:7344  owner() */\n      tag_171\n        /* \"@openzeppelin/contracts/access/Ownable.sol\":1247:1254  address */\n      0x00\n        /* \"@openzeppelin/contracts/access/Ownable.sol\":1273:1279  _owner */\n      sload\n      sub(shl(0xa0, 0x01), 0x01)\n      and\n      swap1\n        /* \"@openzeppelin/contracts/access/Ownable.sol\":1201:1286  function owner() public view virtual returns (address) {... */\n      jump\n        /* \"contracts/PaymeTokenVesting.sol\":7337:7344  owner() */\n    tag_171:\n      sub(shl(0xa0, 0x01), 0x01)\n        /* \"contracts/PaymeTokenVesting.sol\":7317:7323  _token */\n      immutable(\"0x33b1bb93466604d6eef61d9dccb76e3bbe6e34c9cae650f94ab002a5eaeb5e05\")\n        /* \"contracts/PaymeTokenVesting.sol\":7317:7336  _token.safeTransfer */\n      and\n      swap1\n        /* \"contracts/PaymeTokenVesting.sol\":7346:7352  amount */\n      dup4\n        /* \"contracts/PaymeTokenVesting.sol\":7317:7336  _token.safeTransfer */\n      tag_172\n        /* \"contracts/PaymeTokenVesting.sol\":7317:7353  _token.safeTransfer(owner(), amount) */\n      jump\t// in\n    tag_170:\n      pop\n        /* \"@openzeppelin/contracts/security/ReentrancyGuard.sol\":1701:1702  1 */\n      0x01\n        /* \"@openzeppelin/contracts/security/ReentrancyGuard.sol\":2628:2650  _status = _NOT_ENTERED */\n      dup1\n      sstore\n        /* \"contracts/PaymeTokenVesting.sol\":7116:7360  function withdraw(uint256 amount)... */\n      jump\t// out\n        /* \"contracts/PaymeTokenVesting.sol\":7533:8540  function release(... */\n    tag_63:\n        /* \"@openzeppelin/contracts/security/ReentrancyGuard.sol\":1744:1745  2 */\n      0x02\n        /* \"@openzeppelin/contracts/security/ReentrancyGuard.sol\":2325:2332  _status */\n      sload(0x01)\n        /* \"@openzeppelin/contracts/security/ReentrancyGuard.sol\":2325:2344  _status != _ENTERED */\n      eq\n      iszero\n        /* \"@openzeppelin/contracts/security/ReentrancyGuard.sol\":2317:2380  require(_status != _ENTERED, \"ReentrancyGuard: reentrant call\") */\n      tag_176\n      jumpi\n      mload(0x40)\n      shl(0xe5, 0x461bcd)\n      dup2\n      mstore\n        /* \"#utility.yul\":6105:6107   */\n      0x20\n        /* \"@openzeppelin/contracts/security/ReentrancyGuard.sol\":2317:2380  require(_status != _ENTERED, \"ReentrancyGuard: reentrant call\") */\n      0x04\n      dup3\n      add\n        /* \"#utility.yul\":6087:6108   */\n      mstore\n        /* \"#utility.yul\":6144:6146   */\n      0x1f\n        /* \"#utility.yul\":6124:6142   */\n      0x24\n      dup3\n      add\n        /* \"#utility.yul\":6117:6147   */\n      mstore\n        /* \"#utility.yul\":6183:6216   */\n      0x5265656e7472616e637947756172643a207265656e7472616e742063616c6c00\n        /* \"#utility.yul\":6163:6181   */\n      0x44\n      dup3\n      add\n        /* \"#utility.yul\":6156:6217   */\n      mstore\n        /* \"#utility.yul\":6234:6252   */\n      0x64\n      add\n        /* \"@openzeppelin/contracts/security/ReentrancyGuard.sol\":2317:2380  require(_status != _ENTERED, \"ReentrancyGuard: reentrant call\") */\n      tag_133\n        /* \"#utility.yul\":5903:6258   */\n      jump\n        /* \"@openzeppelin/contracts/security/ReentrancyGuard.sol\":2317:2380  require(_status != _ENTERED, \"ReentrancyGuard: reentrant call\") */\n    tag_176:\n        /* \"@openzeppelin/contracts/security/ReentrancyGuard.sol\":1744:1745  2 */\n      0x02\n        /* \"@openzeppelin/contracts/security/ReentrancyGuard.sol\":2455:2462  _status */\n      0x01\n        /* \"@openzeppelin/contracts/security/ReentrancyGuard.sol\":2455:2473  _status = _ENTERED */\n      swap1\n      dup2\n      sstore\n        /* \"contracts/PaymeTokenVesting.sol\":2162:2197  vestingSchedules[vestingScheduleId] */\n      0x00\n      dup4\n      dup2\n      mstore\n        /* \"contracts/PaymeTokenVesting.sol\":2162:2178  vestingSchedules */\n      0x03\n        /* \"contracts/PaymeTokenVesting.sol\":2162:2197  vestingSchedules[vestingScheduleId] */\n      0x20\n      mstore\n      0x40\n      swap1\n      keccak256\n        /* \"contracts/PaymeTokenVesting.sol\":2162:2209  vestingSchedules[vestingScheduleId].initialized */\n      sload\n        /* \"contracts/PaymeTokenVesting.sol\":7691:7708  vestingScheduleId */\n      dup4\n      swap2\n        /* \"contracts/PaymeTokenVesting.sol\":2162:2209  vestingSchedules[vestingScheduleId].initialized */\n      0xff\n      swap1\n      swap2\n      and\n        /* \"contracts/PaymeTokenVesting.sol\":2162:2217  vestingSchedules[vestingScheduleId].initialized == true */\n      iszero\n      iszero\n      eq\n        /* \"contracts/PaymeTokenVesting.sol\":2154:2218  require(vestingSchedules[vestingScheduleId].initialized == true) */\n      tag_179\n      jumpi\n      0x00\n      dup1\n      revert\n    tag_179:\n        /* \"contracts/PaymeTokenVesting.sol\":2236:2271  vestingSchedules[vestingScheduleId] */\n      0x00\n      dup2\n      dup2\n      mstore\n        /* \"contracts/PaymeTokenVesting.sol\":2236:2252  vestingSchedules */\n      0x03\n        /* \"contracts/PaymeTokenVesting.sol\":2236:2271  vestingSchedules[vestingScheduleId] */\n      0x20\n      mstore\n      0x40\n      swap1\n      keccak256\n        /* \"contracts/PaymeTokenVesting.sol\":2236:2279  vestingSchedules[vestingScheduleId].revoked */\n      0x08\n      add\n      sload\n      0xff\n      and\n        /* \"contracts/PaymeTokenVesting.sol\":2236:2288  vestingSchedules[vestingScheduleId].revoked == false */\n      iszero\n        /* \"contracts/PaymeTokenVesting.sol\":2228:2289  require(vestingSchedules[vestingScheduleId].revoked == false) */\n      tag_180\n      jumpi\n      0x00\n      dup1\n      revert\n    tag_180:\n        /* \"contracts/PaymeTokenVesting.sol\":7719:7758  VestingSchedule storage vestingSchedule */\n      0x00\n        /* \"contracts/PaymeTokenVesting.sol\":7761:7796  vestingSchedules[vestingScheduleId] */\n      dup4\n      dup2\n      mstore\n        /* \"contracts/PaymeTokenVesting.sol\":7761:7777  vestingSchedules */\n      0x03\n        /* \"contracts/PaymeTokenVesting.sol\":7761:7796  vestingSchedules[vestingScheduleId] */\n      0x20\n      mstore\n      0x40\n      dup2\n      keccak256\n        /* \"contracts/PaymeTokenVesting.sol\":7841:7868  vestingSchedule.beneficiary */\n      dup1\n      sload\n        /* \"@openzeppelin/contracts/access/Ownable.sol\":1273:1279  _owner */\n      swap2\n      sload\n        /* \"contracts/PaymeTokenVesting.sol\":7761:7796  vestingSchedules[vestingScheduleId] */\n      swap1\n      swap2\n        /* \"contracts/PaymeTokenVesting.sol\":7827:7837  msg.sender */\n      caller\n      sub(shl(0xa0, 0x01), 0x01)\n        /* \"contracts/PaymeTokenVesting.sol\":7841:7868  vestingSchedule.beneficiary */\n      0x0100\n      swap1\n      swap3\n      div\n      dup3\n      and\n        /* \"contracts/PaymeTokenVesting.sol\":7827:7868  msg.sender == vestingSchedule.beneficiary */\n      dup2\n      eq\n      swap3\n        /* \"@openzeppelin/contracts/access/Ownable.sol\":1273:1279  _owner */\n      swap2\n      swap1\n      swap2\n      and\n        /* \"contracts/PaymeTokenVesting.sol\":7893:7914  msg.sender == owner() */\n      eq\n        /* \"contracts/PaymeTokenVesting.sol\":7827:7868  msg.sender == vestingSchedule.beneficiary */\n      dup2\n      dup1\n        /* \"contracts/PaymeTokenVesting.sol\":7945:7969  isBeneficiary || isOwner */\n      tag_183\n      jumpi\n      pop\n        /* \"contracts/PaymeTokenVesting.sol\":7962:7969  isOwner */\n      dup1\n        /* \"contracts/PaymeTokenVesting.sol\":7945:7969  isBeneficiary || isOwner */\n    tag_183:\n        /* \"contracts/PaymeTokenVesting.sol\":7924:8061  require(... */\n      tag_184\n      jumpi\n      mload(0x40)\n      shl(0xe5, 0x461bcd)\n      dup2\n      mstore\n        /* \"#utility.yul\":6877:6879   */\n      0x20\n        /* \"contracts/PaymeTokenVesting.sol\":7924:8061  require(... */\n      0x04\n      dup3\n      add\n        /* \"#utility.yul\":6859:6880   */\n      mstore\n        /* \"#utility.yul\":6916:6918   */\n      0x42\n        /* \"#utility.yul\":6896:6914   */\n      0x24\n      dup3\n      add\n        /* \"#utility.yul\":6889:6919   */\n      mstore\n        /* \"#utility.yul\":6955:6989   */\n      0x546f6b656e56657374696e673a206f6e6c792062656e65666963696172792061\n        /* \"#utility.yul\":6935:6953   */\n      0x44\n      dup3\n      add\n        /* \"#utility.yul\":6928:6990   */\n      mstore\n        /* \"#utility.yul\":7026:7060   */\n      0x6e64206f776e65722063616e2072656c656173652076657374656420746f6b65\n        /* \"#utility.yul\":7006:7024   */\n      0x64\n      dup3\n      add\n        /* \"#utility.yul\":6999:7061   */\n      mstore\n      shl(0xf0, 0x6e73)\n        /* \"#utility.yul\":7077:7096   */\n      0x84\n      dup3\n      add\n        /* \"#utility.yul\":7070:7103   */\n      mstore\n        /* \"#utility.yul\":7120:7139   */\n      0xa4\n      add\n        /* \"contracts/PaymeTokenVesting.sol\":7924:8061  require(... */\n      tag_133\n        /* \"#utility.yul\":6675:7145   */\n      jump\n        /* \"contracts/PaymeTokenVesting.sol\":7924:8061  require(... */\n    tag_184:\n        /* \"contracts/PaymeTokenVesting.sol\":8094:8135  _computeReleasableAmount(vestingSchedule) */\n      0x40\n      dup1\n      mload\n      0x0140\n      dup2\n      add\n      dup3\n      mstore\n      dup5\n      sload\n      0xff\n      dup1\n      dup3\n      and\n      iszero\n      iszero\n      dup4\n      mstore\n      sub(shl(0xa0, 0x01), 0x01)\n      0x0100\n      swap3\n      dup4\n      swap1\n      div\n      and\n      0x20\n      dup5\n      add\n      mstore\n      0x01\n      dup8\n      add\n      sload\n      swap4\n      dup4\n      add\n      swap4\n      swap1\n      swap4\n      mstore\n      0x02\n      dup7\n      add\n      sload\n      0x60\n      dup4\n      add\n      mstore\n      0x03\n      dup7\n      add\n      sload\n      0x80\n      dup4\n      add\n      mstore\n      0x04\n      dup7\n      add\n      sload\n      0xa0\n      dup4\n      add\n      mstore\n      0x05\n      dup7\n      add\n      sload\n      dup4\n      and\n      iszero\n      iszero\n      0xc0\n      dup4\n      add\n      mstore\n      0x06\n      dup7\n      add\n      sload\n      0xe0\n      dup4\n      add\n      mstore\n      0x07\n      dup7\n      add\n      sload\n      swap1\n      dup3\n      add\n      mstore\n      0x08\n      dup6\n      add\n      sload\n      swap1\n      swap2\n      and\n      iszero\n      iszero\n      0x0120\n      dup3\n      add\n      mstore\n        /* \"contracts/PaymeTokenVesting.sol\":8071:8091  uint256 vestedAmount */\n      0x00\n      swap1\n        /* \"contracts/PaymeTokenVesting.sol\":8094:8135  _computeReleasableAmount(vestingSchedule) */\n      tag_187\n      swap1\n        /* \"contracts/PaymeTokenVesting.sol\":8094:8118  _computeReleasableAmount */\n      tag_188\n        /* \"contracts/PaymeTokenVesting.sol\":8094:8135  _computeReleasableAmount(vestingSchedule) */\n      jump\t// in\n    tag_187:\n        /* \"contracts/PaymeTokenVesting.sol\":8071:8135  uint256 vestedAmount = _computeReleasableAmount(vestingSchedule) */\n      swap1\n      pop\n        /* \"contracts/PaymeTokenVesting.sol\":8169:8175  amount */\n      dup6\n        /* \"contracts/PaymeTokenVesting.sol\":8153:8165  vestedAmount */\n      dup2\n        /* \"contracts/PaymeTokenVesting.sol\":8153:8175  vestedAmount >= amount */\n      lt\n      iszero\n        /* \"contracts/PaymeTokenVesting.sol\":8145:8241  require(vestedAmount >= amount, \"TokenVesting: cannot release tokens, not enough vested tokens\") */\n      tag_189\n      jumpi\n      mload(0x40)\n      shl(0xe5, 0x461bcd)\n      dup2\n      mstore\n        /* \"#utility.yul\":7352:7354   */\n      0x20\n        /* \"contracts/PaymeTokenVesting.sol\":8145:8241  require(vestedAmount >= amount, \"TokenVesting: cannot release tokens, not enough vested tokens\") */\n      0x04\n      dup3\n      add\n        /* \"#utility.yul\":7334:7355   */\n      mstore\n        /* \"#utility.yul\":7391:7393   */\n      0x3d\n        /* \"#utility.yul\":7371:7389   */\n      0x24\n      dup3\n      add\n        /* \"#utility.yul\":7364:7394   */\n      mstore\n        /* \"#utility.yul\":7430:7464   */\n      0x546f6b656e56657374696e673a2063616e6e6f742072656c6561736520746f6b\n        /* \"#utility.yul\":7410:7428   */\n      0x44\n      dup3\n      add\n        /* \"#utility.yul\":7403:7465   */\n      mstore\n        /* \"#utility.yul\":7501:7532   */\n      0x656e732c206e6f7420656e6f7567682076657374656420746f6b656e73000000\n        /* \"#utility.yul\":7481:7499   */\n      0x64\n      dup3\n      add\n        /* \"#utility.yul\":7474:7533   */\n      mstore\n        /* \"#utility.yul\":7550:7569   */\n      0x84\n      add\n        /* \"contracts/PaymeTokenVesting.sol\":8145:8241  require(vestedAmount >= amount, \"TokenVesting: cannot release tokens, not enough vested tokens\") */\n      tag_133\n        /* \"#utility.yul\":7150:7575   */\n      jump\n        /* \"contracts/PaymeTokenVesting.sol\":8145:8241  require(vestedAmount >= amount, \"TokenVesting: cannot release tokens, not enough vested tokens\") */\n    tag_189:\n        /* \"contracts/PaymeTokenVesting.sol\":8278:8302  vestingSchedule.released */\n      0x07\n      dup5\n      add\n      sload\n        /* \"contracts/PaymeTokenVesting.sol\":8278:8314  vestingSchedule.released.add(amount) */\n      tag_192\n      swap1\n        /* \"contracts/PaymeTokenVesting.sol\":8307:8313  amount */\n      dup8\n        /* \"contracts/PaymeTokenVesting.sol\":8278:8306  vestingSchedule.released.add */\n      tag_151\n        /* \"contracts/PaymeTokenVesting.sol\":8278:8314  vestingSchedule.released.add(amount) */\n      jump\t// in\n    tag_192:\n        /* \"contracts/PaymeTokenVesting.sol\":8251:8275  vestingSchedule.released */\n      0x07\n      dup6\n      add\n        /* \"contracts/PaymeTokenVesting.sol\":8251:8314  vestingSchedule.released = vestingSchedule.released.add(amount) */\n      sstore\n        /* \"contracts/PaymeTokenVesting.sol\":8369:8396  vestingSchedule.beneficiary */\n      dup4\n      sload\n        /* \"contracts/PaymeTokenVesting.sol\":8437:8464  vestingSchedulesTotalAmount */\n      sload(0x04)\n        /* \"contracts/PaymeTokenVesting.sol\":8369:8396  vestingSchedule.beneficiary */\n      0x0100\n      swap1\n      swap2\n      div\n      sub(shl(0xa0, 0x01), 0x01)\n      and\n      swap1\n        /* \"contracts/PaymeTokenVesting.sol\":8437:8476  vestingSchedulesTotalAmount.sub(amount) */\n      tag_193\n      swap1\n        /* \"contracts/PaymeTokenVesting.sol\":8469:8475  amount */\n      dup9\n        /* \"contracts/PaymeTokenVesting.sol\":8437:8468  vestingSchedulesTotalAmount.sub */\n      tag_194\n        /* \"contracts/PaymeTokenVesting.sol\":8437:8476  vestingSchedulesTotalAmount.sub(amount) */\n      jump\t// in\n    tag_193:\n        /* \"contracts/PaymeTokenVesting.sol\":8407:8434  vestingSchedulesTotalAmount */\n      0x04\n        /* \"contracts/PaymeTokenVesting.sol\":8407:8476  vestingSchedulesTotalAmount = vestingSchedulesTotalAmount.sub(amount) */\n      sstore\n        /* \"contracts/PaymeTokenVesting.sol\":8486:8533  _token.safeTransfer(beneficiaryPayable, amount) */\n      tag_195\n      sub(shl(0xa0, 0x01), 0x01)\n        /* \"contracts/PaymeTokenVesting.sol\":8486:8492  _token */\n      immutable(\"0x33b1bb93466604d6eef61d9dccb76e3bbe6e34c9cae650f94ab002a5eaeb5e05\")\n        /* \"contracts/PaymeTokenVesting.sol\":8486:8505  _token.safeTransfer */\n      and\n        /* \"contracts/PaymeTokenVesting.sol\":8506:8524  beneficiaryPayable */\n      dup3\n        /* \"contracts/PaymeTokenVesting.sol\":8526:8532  amount */\n      dup10\n        /* \"contracts/PaymeTokenVesting.sol\":8486:8505  _token.safeTransfer */\n      tag_172\n        /* \"contracts/PaymeTokenVesting.sol\":8486:8533  _token.safeTransfer(beneficiaryPayable, amount) */\n      jump\t// in\n    tag_195:\n      pop\n      pop\n        /* \"@openzeppelin/contracts/security/ReentrancyGuard.sol\":1701:1702  1 */\n      0x01\n        /* \"@openzeppelin/contracts/security/ReentrancyGuard.sol\":2628:2650  _status = _NOT_ENTERED */\n      dup1\n      sstore\n      pop\n      pop\n      pop\n      pop\n      pop\n      pop\n        /* \"contracts/PaymeTokenVesting.sol\":7533:8540  function release(... */\n      jump\t// out\n        /* \"@openzeppelin/contracts/access/Ownable.sol\":1831:1932  function renounceOwnership() public virtual onlyOwner {... */\n    tag_66:\n        /* \"@openzeppelin/contracts/access/Ownable.sol\":1094:1107  _checkOwner() */\n      tag_197\n        /* \"@openzeppelin/contracts/access/Ownable.sol\":1094:1105  _checkOwner */\n      tag_125\n        /* \"@openzeppelin/contracts/access/Ownable.sol\":1094:1107  _checkOwner() */\n      jump\t// in\n    tag_197:\n        /* \"@openzeppelin/contracts/access/Ownable.sol\":1895:1925  _transferOwnership(address(0)) */\n      tag_199\n        /* \"@openzeppelin/contracts/access/Ownable.sol\":1922:1923  0 */\n      0x00\n        /* \"@openzeppelin/contracts/access/Ownable.sol\":1895:1913  _transferOwnership */\n      tag_200\n        /* \"@openzeppelin/contracts/access/Ownable.sol\":1895:1925  _transferOwnership(address(0)) */\n      jump\t// in\n    tag_199:\n        /* \"@openzeppelin/contracts/access/Ownable.sol\":1831:1932  function renounceOwnership() public virtual onlyOwner {... */\n      jump\t// out\n        /* \"contracts/PaymeTokenVesting.sol\":10353:10602  function getLastVestingScheduleForHolder(address holder)... */\n    tag_70:\n        /* \"contracts/PaymeTokenVesting.sol\":10454:10476  VestingSchedule memory */\n      tag_201\n      tag_202\n      jump\t// in\n    tag_201:\n      sub(shl(0xa0, 0x01), 0x01)\n        /* \"contracts/PaymeTokenVesting.sol\":10562:10589  holdersVestingCount[holder] */\n      dup3\n      and\n        /* \"contracts/PaymeTokenVesting.sol\":10494:10595  vestingSchedules[computeVestingScheduleIdForAddressAndIndex(holder, holdersVestingCount[holder] - 1)] */\n      0x00\n        /* \"contracts/PaymeTokenVesting.sol\":10562:10589  holdersVestingCount[holder] */\n      swap1\n      dup2\n      mstore\n        /* \"contracts/PaymeTokenVesting.sol\":10562:10581  holdersVestingCount */\n      0x05\n        /* \"contracts/PaymeTokenVesting.sol\":10562:10589  holdersVestingCount[holder] */\n      0x20\n      mstore\n      0x40\n      dup2\n      keccak256\n      sload\n        /* \"contracts/PaymeTokenVesting.sol\":10494:10510  vestingSchedules */\n      0x03\n      swap2\n        /* \"contracts/PaymeTokenVesting.sol\":10494:10595  vestingSchedules[computeVestingScheduleIdForAddressAndIndex(holder, holdersVestingCount[holder] - 1)] */\n      swap1\n        /* \"contracts/PaymeTokenVesting.sol\":10511:10594  computeVestingScheduleIdForAddressAndIndex(holder, holdersVestingCount[holder] - 1) */\n      tag_204\n      swap1\n        /* \"contracts/PaymeTokenVesting.sol\":10554:10560  holder */\n      dup6\n      swap1\n        /* \"contracts/PaymeTokenVesting.sol\":10562:10593  holdersVestingCount[holder] - 1 */\n      tag_75\n      swap1\n        /* \"contracts/PaymeTokenVesting.sol\":10592:10593  1 */\n      0x01\n      swap1\n        /* \"contracts/PaymeTokenVesting.sol\":10562:10593  holdersVestingCount[holder] - 1 */\n      tag_206\n      jump\t// in\n        /* \"contracts/PaymeTokenVesting.sol\":10511:10594  computeVestingScheduleIdForAddressAndIndex(holder, holdersVestingCount[holder] - 1) */\n    tag_204:\n        /* \"contracts/PaymeTokenVesting.sol\":10494:10595  vestingSchedules[computeVestingScheduleIdForAddressAndIndex(holder, holdersVestingCount[holder] - 1)] */\n      dup2\n      mstore\n      0x20\n      dup1\n      dup3\n      add\n      swap3\n      swap1\n      swap3\n      mstore\n      0x40\n      swap1\n      dup2\n      add\n      0x00\n      keccak256\n        /* \"contracts/PaymeTokenVesting.sol\":10487:10595  return vestingSchedules[computeVestingScheduleIdForAddressAndIndex(holder, holdersVestingCount[holder] - 1)] */\n      dup2\n      mload\n      0x0140\n      dup2\n      add\n      dup4\n      mstore\n      dup2\n      sload\n      0xff\n      dup1\n      dup3\n      and\n      iszero\n      iszero\n      dup4\n      mstore\n      sub(shl(0xa0, 0x01), 0x01)\n      0x0100\n      swap3\n      dup4\n      swap1\n      div\n      and\n      swap6\n      dup4\n      add\n      swap6\n      swap1\n      swap6\n      mstore\n      0x01\n      dup4\n      add\n      sload\n      swap4\n      dup3\n      add\n      swap4\n      swap1\n      swap4\n      mstore\n      0x02\n      dup3\n      add\n      sload\n      0x60\n      dup3\n      add\n      mstore\n      0x03\n      dup3\n      add\n      sload\n      0x80\n      dup3\n      add\n      mstore\n      0x04\n      dup3\n      add\n      sload\n      0xa0\n      dup3\n      add\n      mstore\n      0x05\n      dup3\n      add\n      sload\n      dup5\n      and\n      iszero\n      iszero\n      0xc0\n      dup3\n      add\n      mstore\n      0x06\n      dup3\n      add\n      sload\n      0xe0\n      dup3\n      add\n      mstore\n      0x07\n      dup3\n      add\n      sload\n      swap3\n      dup2\n      add\n      swap3\n      swap1\n      swap3\n      mstore\n      0x08\n      add\n      sload\n      swap1\n      swap2\n      and\n      iszero\n      iszero\n      0x0120\n      dup3\n      add\n      mstore\n      swap3\n        /* \"contracts/PaymeTokenVesting.sol\":10353:10602  function getLastVestingScheduleForHolder(address holder)... */\n      swap2\n      pop\n      pop\n      jump\t// out\n        /* \"contracts/PaymeTokenVesting.sol\":10704:10905  function computeVestingScheduleIdForAddressAndIndex(address holder, uint256 index)... */\n    tag_77:\n        /* \"contracts/PaymeTokenVesting.sol\":10866:10897  abi.encodePacked(holder, index) */\n      mload(0x40)\n      not(0xffffffffffffffffffffffff)\n        /* \"#utility.yul\":8019:8021   */\n      0x60\n        /* \"#utility.yul\":8015:8030   */\n      dup5\n      swap1\n      shl\n        /* \"#utility.yul\":8011:8064   */\n      and\n        /* \"contracts/PaymeTokenVesting.sol\":10866:10897  abi.encodePacked(holder, index) */\n      0x20\n      dup3\n      add\n        /* \"#utility.yul\":7999:8065   */\n      mstore\n        /* \"#utility.yul\":8081:8093   */\n      0x34\n      dup2\n      add\n        /* \"#utility.yul\":8074:8102   */\n      dup3\n      swap1\n      mstore\n        /* \"contracts/PaymeTokenVesting.sol\":10831:10838  bytes32 */\n      0x00\n      swap1\n        /* \"#utility.yul\":8118:8130   */\n      0x54\n      add\n        /* \"contracts/PaymeTokenVesting.sol\":10866:10897  abi.encodePacked(holder, index) */\n      mload(0x40)\n      0x20\n      dup2\n      dup4\n      sub\n      sub\n      dup2\n      mstore\n      swap1\n      0x40\n      mstore\n        /* \"contracts/PaymeTokenVesting.sol\":10856:10898  keccak256(abi.encodePacked(holder, index)) */\n      dup1\n      mload\n      swap1\n      0x20\n      add\n      keccak256\n        /* \"contracts/PaymeTokenVesting.sol\":10849:10898  return keccak256(abi.encodePacked(holder, index)) */\n      swap1\n      pop\n        /* \"contracts/PaymeTokenVesting.sol\":10704:10905  function computeVestingScheduleIdForAddressAndIndex(address holder, uint256 index)... */\n      swap3\n      swap2\n      pop\n      pop\n      jump\t// out\n        /* \"contracts/PaymeTokenVesting.sol\":9762:9935  function getWithdrawableAmount()... */\n    tag_86:\n        /* \"contracts/PaymeTokenVesting.sol\":9900:9927  vestingSchedulesTotalAmount */\n      0x04\n      dup1\n      sload\n        /* \"contracts/PaymeTokenVesting.sol\":9864:9895  _token.balanceOf(address(this)) */\n      mload(0x40)\n      shl(0xe0, 0x70a08231)\n      dup2\n      mstore\n        /* \"contracts/PaymeTokenVesting.sol\":9889:9893  this */\n      address\n        /* \"contracts/PaymeTokenVesting.sol\":9864:9895  _token.balanceOf(address(this)) */\n      swap3\n      dup2\n      add\n        /* \"#utility.yul\":1416:1467   */\n      swap3\n      swap1\n      swap3\n      mstore\n        /* \"contracts/PaymeTokenVesting.sol\":9839:9846  uint256 */\n      0x00\n      swap2\n        /* \"contracts/PaymeTokenVesting.sol\":9864:9928  _token.balanceOf(address(this)).sub(vestingSchedulesTotalAmount) */\n      tag_212\n      swap2\n        /* \"contracts/PaymeTokenVesting.sol\":9900:9927  vestingSchedulesTotalAmount */\n      swap1\n      sub(shl(0xa0, 0x01), 0x01)\n        /* \"contracts/PaymeTokenVesting.sol\":9864:9870  _token */\n      immutable(\"0x33b1bb93466604d6eef61d9dccb76e3bbe6e34c9cae650f94ab002a5eaeb5e05\")\n        /* \"contracts/PaymeTokenVesting.sol\":9864:9880  _token.balanceOf */\n      and\n      swap1\n      0x70a08231\n      swap1\n        /* \"#utility.yul\":1389:1407   */\n      0x24\n      add\n        /* \"contracts/PaymeTokenVesting.sol\":9864:9895  _token.balanceOf(address(this)) */\n      0x20\n      mload(0x40)\n      dup1\n      dup4\n      sub\n      dup2\n      dup7\n      dup1\n      extcodesize\n      iszero\n      dup1\n      iszero\n      tag_214\n      jumpi\n      0x00\n      dup1\n      revert\n    tag_214:\n      pop\n      gas\n      staticcall\n      iszero\n      dup1\n      iszero\n      tag_216\n      jumpi\n      returndatasize\n      0x00\n      dup1\n      returndatacopy\n      revert(0x00, returndatasize)\n    tag_216:\n      pop\n      pop\n      pop\n      pop\n      mload(0x40)\n      returndatasize\n      not(0x1f)\n      0x1f\n      dup3\n      add\n      and\n      dup3\n      add\n      dup1\n      0x40\n      mstore\n      pop\n      dup2\n      add\n      swap1\n      tag_217\n      swap2\n      swap1\n      tag_131\n      jump\t// in\n    tag_217:\n        /* \"contracts/PaymeTokenVesting.sol\":9864:9899  _token.balanceOf(address(this)).sub */\n      swap1\n      tag_194\n        /* \"contracts/PaymeTokenVesting.sol\":9864:9928  _token.balanceOf(address(this)).sub(vestingSchedulesTotalAmount) */\n      jump\t// in\n    tag_212:\n        /* \"contracts/PaymeTokenVesting.sol\":9857:9928  return _token.balanceOf(address(this)).sub(vestingSchedulesTotalAmount) */\n      swap1\n      pop\n        /* \"contracts/PaymeTokenVesting.sol\":9762:9935  function getWithdrawableAmount()... */\n      swap1\n      jump\t// out\n        /* \"contracts/PaymeTokenVesting.sol\":9449:9630  function getVestingSchedule(bytes32 vestingScheduleId)... */\n    tag_92:\n        /* \"contracts/PaymeTokenVesting.sol\":9548:9570  VestingSchedule memory */\n      tag_218\n      tag_202\n      jump\t// in\n    tag_218:\n      pop\n        /* \"contracts/PaymeTokenVesting.sol\":9588:9623  vestingSchedules[vestingScheduleId] */\n      0x00\n      swap1\n      dup2\n      mstore\n        /* \"contracts/PaymeTokenVesting.sol\":9588:9604  vestingSchedules */\n      0x03\n        /* \"contracts/PaymeTokenVesting.sol\":9588:9623  vestingSchedules[vestingScheduleId] */\n      0x20\n      dup2\n      dup2\n      mstore\n      0x40\n      swap3\n      dup4\n      swap1\n      keccak256\n        /* \"contracts/PaymeTokenVesting.sol\":9581:9623  return vestingSchedules[vestingScheduleId] */\n      dup4\n      mload\n      0x0140\n      dup2\n      add\n      dup6\n      mstore\n      dup2\n      sload\n      0xff\n      dup1\n      dup3\n      and\n      iszero\n      iszero\n      dup4\n      mstore\n      sub(shl(0xa0, 0x01), 0x01)\n      0x0100\n      swap3\n      dup4\n      swap1\n      div\n      and\n      swap5\n      dup4\n      add\n      swap5\n      swap1\n      swap5\n      mstore\n      0x01\n      dup4\n      add\n      sload\n      swap6\n      dup3\n      add\n      swap6\n      swap1\n      swap6\n      mstore\n      0x02\n      dup3\n      add\n      sload\n      0x60\n      dup3\n      add\n      mstore\n      swap3\n      dup2\n      add\n      sload\n      0x80\n      dup5\n      add\n      mstore\n      0x04\n      dup2\n      add\n      sload\n      0xa0\n      dup5\n      add\n      mstore\n      0x05\n      dup2\n      add\n      sload\n      dup3\n      and\n      iszero\n      iszero\n      0xc0\n      dup5\n      add\n      mstore\n      0x06\n      dup2\n      add\n      sload\n      0xe0\n      dup5\n      add\n      mstore\n      0x07\n      dup2\n      add\n      sload\n      swap4\n      dup4\n      add\n      swap4\n      swap1\n      swap4\n      mstore\n      0x08\n      swap1\n      swap3\n      add\n      sload\n      swap1\n      swap2\n      and\n      iszero\n      iszero\n      0x0120\n      dup3\n      add\n      mstore\n      swap1\n        /* \"contracts/PaymeTokenVesting.sol\":9449:9630  function getVestingSchedule(bytes32 vestingScheduleId)... */\n      jump\t// out\n        /* \"contracts/PaymeTokenVesting.sol\":6294:6995  function revoke(bytes32 vestingScheduleId)... */\n    tag_97:\n        /* \"@openzeppelin/contracts/access/Ownable.sol\":1094:1107  _checkOwner() */\n      tag_221\n        /* \"@openzeppelin/contracts/access/Ownable.sol\":1094:1105  _checkOwner */\n      tag_125\n        /* \"@openzeppelin/contracts/access/Ownable.sol\":1094:1107  _checkOwner() */\n      jump\t// in\n    tag_221:\n        /* \"contracts/PaymeTokenVesting.sol\":2162:2197  vestingSchedules[vestingScheduleId] */\n      0x00\n      dup2\n      dup2\n      mstore\n        /* \"contracts/PaymeTokenVesting.sol\":2162:2178  vestingSchedules */\n      0x03\n        /* \"contracts/PaymeTokenVesting.sol\":2162:2197  vestingSchedules[vestingScheduleId] */\n      0x20\n      mstore\n      0x40\n      swap1\n      keccak256\n        /* \"contracts/PaymeTokenVesting.sol\":2162:2209  vestingSchedules[vestingScheduleId].initialized */\n      sload\n        /* \"contracts/PaymeTokenVesting.sol\":6410:6427  vestingScheduleId */\n      dup2\n      swap1\n        /* \"contracts/PaymeTokenVesting.sol\":2162:2209  vestingSchedules[vestingScheduleId].initialized */\n      0xff\n      and\n        /* \"contracts/PaymeTokenVesting.sol\":2162:2217  vestingSchedules[vestingScheduleId].initialized == true */\n      iszero\n      iszero\n        /* \"contracts/PaymeTokenVesting.sol\":2162:2209  vestingSchedules[vestingScheduleId].initialized */\n      0x01\n        /* \"contracts/PaymeTokenVesting.sol\":2162:2217  vestingSchedules[vestingScheduleId].initialized == true */\n      eq\n        /* \"contracts/PaymeTokenVesting.sol\":2154:2218  require(vestingSchedules[vestingScheduleId].initialized == true) */\n      tag_223\n      jumpi\n      0x00\n      dup1\n      revert\n    tag_223:\n        /* \"contracts/PaymeTokenVesting.sol\":2236:2271  vestingSchedules[vestingScheduleId] */\n      0x00\n      dup2\n      dup2\n      mstore\n        /* \"contracts/PaymeTokenVesting.sol\":2236:2252  vestingSchedules */\n      0x03\n        /* \"contracts/PaymeTokenVesting.sol\":2236:2271  vestingSchedules[vestingScheduleId] */\n      0x20\n      mstore\n      0x40\n      swap1\n      keccak256\n        /* \"contracts/PaymeTokenVesting.sol\":2236:2279  vestingSchedules[vestingScheduleId].revoked */\n      0x08\n      add\n      sload\n      0xff\n      and\n        /* \"contracts/PaymeTokenVesting.sol\":2236:2288  vestingSchedules[vestingScheduleId].revoked == false */\n      iszero\n        /* \"contracts/PaymeTokenVesting.sol\":2228:2289  require(vestingSchedules[vestingScheduleId].revoked == false) */\n      tag_224\n      jumpi\n      0x00\n      dup1\n      revert\n    tag_224:\n        /* \"contracts/PaymeTokenVesting.sol\":6438:6477  VestingSchedule storage vestingSchedule */\n      0x00\n        /* \"contracts/PaymeTokenVesting.sol\":6480:6515  vestingSchedules[vestingScheduleId] */\n      dup3\n      dup2\n      mstore\n        /* \"contracts/PaymeTokenVesting.sol\":6480:6496  vestingSchedules */\n      0x03\n        /* \"contracts/PaymeTokenVesting.sol\":6480:6515  vestingSchedules[vestingScheduleId] */\n      0x20\n      mstore\n      0x40\n      swap1\n      keccak256\n        /* \"contracts/PaymeTokenVesting.sol\":6533:6558  vestingSchedule.revocable */\n      0x05\n      dup2\n      add\n      sload\n      0xff\n      and\n        /* \"contracts/PaymeTokenVesting.sol\":6533:6566  vestingSchedule.revocable == true */\n      iszero\n      iszero\n        /* \"contracts/PaymeTokenVesting.sol\":6533:6558  vestingSchedule.revocable */\n      0x01\n        /* \"contracts/PaymeTokenVesting.sol\":6533:6566  vestingSchedule.revocable == true */\n      eq\n        /* \"contracts/PaymeTokenVesting.sol\":6525:6609  require(vestingSchedule.revocable == true, \"TokenVesting: vesting is not revocable\") */\n      tag_226\n      jumpi\n      mload(0x40)\n      shl(0xe5, 0x461bcd)\n      dup2\n      mstore\n        /* \"#utility.yul\":8343:8345   */\n      0x20\n        /* \"contracts/PaymeTokenVesting.sol\":6525:6609  require(vestingSchedule.revocable == true, \"TokenVesting: vesting is not revocable\") */\n      0x04\n      dup3\n      add\n        /* \"#utility.yul\":8325:8346   */\n      mstore\n        /* \"#utility.yul\":8382:8384   */\n      0x26\n        /* \"#utility.yul\":8362:8380   */\n      0x24\n      dup3\n      add\n        /* \"#utility.yul\":8355:8385   */\n      mstore\n        /* \"#utility.yul\":8421:8455   */\n      0x546f6b656e56657374696e673a2076657374696e67206973206e6f7420726576\n        /* \"#utility.yul\":8401:8419   */\n      0x44\n      dup3\n      add\n        /* \"#utility.yul\":8394:8456   */\n      mstore\n      shl(0xd0, 0x6f6361626c65)\n        /* \"#utility.yul\":8472:8490   */\n      0x64\n      dup3\n      add\n        /* \"#utility.yul\":8465:8501   */\n      mstore\n        /* \"#utility.yul\":8518:8537   */\n      0x84\n      add\n        /* \"contracts/PaymeTokenVesting.sol\":6525:6609  require(vestingSchedule.revocable == true, \"TokenVesting: vesting is not revocable\") */\n      tag_133\n        /* \"#utility.yul\":8141:8543   */\n      jump\n        /* \"contracts/PaymeTokenVesting.sol\":6525:6609  require(vestingSchedule.revocable == true, \"TokenVesting: vesting is not revocable\") */\n    tag_226:\n        /* \"contracts/PaymeTokenVesting.sol\":6642:6683  _computeReleasableAmount(vestingSchedule) */\n      0x40\n      dup1\n      mload\n      0x0140\n      dup2\n      add\n      dup3\n      mstore\n      dup3\n      sload\n      0xff\n      dup1\n      dup3\n      and\n      iszero\n      iszero\n      dup4\n      mstore\n      sub(shl(0xa0, 0x01), 0x01)\n      0x0100\n      swap3\n      dup4\n      swap1\n      div\n      and\n      0x20\n      dup5\n      add\n      mstore\n      0x01\n      dup6\n      add\n      sload\n      swap4\n      dup4\n      add\n      swap4\n      swap1\n      swap4\n      mstore\n      0x02\n      dup5\n      add\n      sload\n      0x60\n      dup4\n      add\n      mstore\n      0x03\n      dup5\n      add\n      sload\n      0x80\n      dup4\n      add\n      mstore\n      0x04\n      dup5\n      add\n      sload\n      0xa0\n      dup4\n      add\n      mstore\n      0x05\n      dup5\n      add\n      sload\n      dup4\n      and\n      iszero\n      iszero\n      0xc0\n      dup4\n      add\n      mstore\n      0x06\n      dup5\n      add\n      sload\n      0xe0\n      dup4\n      add\n      mstore\n      0x07\n      dup5\n      add\n      sload\n      swap1\n      dup3\n      add\n      mstore\n      0x08\n      dup4\n      add\n      sload\n      swap1\n      swap2\n      and\n      iszero\n      iszero\n      0x0120\n      dup3\n      add\n      mstore\n        /* \"contracts/PaymeTokenVesting.sol\":6619:6639  uint256 vestedAmount */\n      0x00\n      swap1\n        /* \"contracts/PaymeTokenVesting.sol\":6642:6683  _computeReleasableAmount(vestingSchedule) */\n      tag_229\n      swap1\n        /* \"contracts/PaymeTokenVesting.sol\":6642:6666  _computeReleasableAmount */\n      tag_188\n        /* \"contracts/PaymeTokenVesting.sol\":6642:6683  _computeReleasableAmount(vestingSchedule) */\n      jump\t// in\n    tag_229:\n        /* \"contracts/PaymeTokenVesting.sol\":6619:6683  uint256 vestedAmount = _computeReleasableAmount(vestingSchedule) */\n      swap1\n      pop\n        /* \"contracts/PaymeTokenVesting.sol\":6696:6712  vestedAmount > 0 */\n      dup1\n      iszero\n        /* \"contracts/PaymeTokenVesting.sol\":6693:6778  if(vestedAmount > 0){... */\n      tag_231\n      jumpi\n        /* \"contracts/PaymeTokenVesting.sol\":6727:6767  release(vestingScheduleId, vestedAmount) */\n      tag_231\n        /* \"contracts/PaymeTokenVesting.sol\":6735:6752  vestingScheduleId */\n      dup5\n        /* \"contracts/PaymeTokenVesting.sol\":6754:6766  vestedAmount */\n      dup3\n        /* \"contracts/PaymeTokenVesting.sol\":6727:6734  release */\n      tag_63\n        /* \"contracts/PaymeTokenVesting.sol\":6727:6767  release(vestingScheduleId, vestedAmount) */\n      jump\t// in\n    tag_231:\n        /* \"contracts/PaymeTokenVesting.sol\":6787:6805  uint256 unreleased */\n      0x00\n        /* \"contracts/PaymeTokenVesting.sol\":6808:6865  vestingSchedule.amountTotal.sub(vestingSchedule.released) */\n      tag_232\n        /* \"contracts/PaymeTokenVesting.sol\":6840:6855  vestingSchedule */\n      dup4\n        /* \"contracts/PaymeTokenVesting.sol\":6840:6864  vestingSchedule.released */\n      0x07\n      add\n      sload\n        /* \"contracts/PaymeTokenVesting.sol\":6808:6823  vestingSchedule */\n      dup5\n        /* \"contracts/PaymeTokenVesting.sol\":6808:6835  vestingSchedule.amountTotal */\n      0x06\n      add\n      sload\n        /* \"contracts/PaymeTokenVesting.sol\":6808:6839  vestingSchedule.amountTotal.sub */\n      tag_194\n      swap1\n        /* \"contracts/PaymeTokenVesting.sol\":6808:6865  vestingSchedule.amountTotal.sub(vestingSchedule.released) */\n      swap2\n      swap1\n      0xffffffff\n      and\n      jump\t// in\n    tag_232:\n        /* \"contracts/PaymeTokenVesting.sol\":6905:6932  vestingSchedulesTotalAmount */\n      sload(0x04)\n        /* \"contracts/PaymeTokenVesting.sol\":6787:6865  uint256 unreleased = vestingSchedule.amountTotal.sub(vestingSchedule.released) */\n      swap1\n      swap2\n      pop\n        /* \"contracts/PaymeTokenVesting.sol\":6905:6948  vestingSchedulesTotalAmount.sub(unreleased) */\n      tag_233\n      swap1\n        /* \"contracts/PaymeTokenVesting.sol\":6787:6865  uint256 unreleased = vestingSchedule.amountTotal.sub(vestingSchedule.released) */\n      dup3\n        /* \"contracts/PaymeTokenVesting.sol\":6905:6936  vestingSchedulesTotalAmount.sub */\n      tag_194\n        /* \"contracts/PaymeTokenVesting.sol\":6905:6948  vestingSchedulesTotalAmount.sub(unreleased) */\n      jump\t// in\n    tag_233:\n        /* \"contracts/PaymeTokenVesting.sol\":6875:6902  vestingSchedulesTotalAmount */\n      0x04\n        /* \"contracts/PaymeTokenVesting.sol\":6875:6948  vestingSchedulesTotalAmount = vestingSchedulesTotalAmount.sub(unreleased) */\n      sstore\n      pop\n      pop\n        /* \"contracts/PaymeTokenVesting.sol\":6958:6981  vestingSchedule.revoked */\n      0x08\n      add\n        /* \"contracts/PaymeTokenVesting.sol\":6958:6988  vestingSchedule.revoked = true */\n      dup1\n      sload\n      not(0xff)\n      and\n        /* \"contracts/PaymeTokenVesting.sol\":6984:6988  true */\n      0x01\n        /* \"contracts/PaymeTokenVesting.sol\":6958:6988  vestingSchedule.revoked = true */\n      or\n      swap1\n      sstore\n      pop\n      pop\n        /* \"contracts/PaymeTokenVesting.sol\":6294:6995  function revoke(bytes32 vestingScheduleId)... */\n      jump\t// out\n        /* \"contracts/PaymeTokenVesting.sol\":8969:9292  function computeReleasableAmount(bytes32 vestingScheduleId)... */\n    tag_101:\n        /* \"contracts/PaymeTokenVesting.sol\":9132:9139  uint256 */\n      0x00\n        /* \"contracts/PaymeTokenVesting.sol\":2162:2197  vestingSchedules[vestingScheduleId] */\n      dup2\n      dup2\n      mstore\n        /* \"contracts/PaymeTokenVesting.sol\":2162:2178  vestingSchedules */\n      0x03\n        /* \"contracts/PaymeTokenVesting.sol\":2162:2197  vestingSchedules[vestingScheduleId] */\n      0x20\n      mstore\n      0x40\n      dup2\n      keccak256\n        /* \"contracts/PaymeTokenVesting.sol\":2162:2209  vestingSchedules[vestingScheduleId].initialized */\n      sload\n        /* \"contracts/PaymeTokenVesting.sol\":9084:9101  vestingScheduleId */\n      dup3\n      swap1\n        /* \"contracts/PaymeTokenVesting.sol\":2162:2209  vestingSchedules[vestingScheduleId].initialized */\n      0xff\n      and\n        /* \"contracts/PaymeTokenVesting.sol\":2162:2217  vestingSchedules[vestingScheduleId].initialized == true */\n      iszero\n      iszero\n        /* \"contracts/PaymeTokenVesting.sol\":2162:2209  vestingSchedules[vestingScheduleId].initialized */\n      0x01\n        /* \"contracts/PaymeTokenVesting.sol\":2162:2217  vestingSchedules[vestingScheduleId].initialized == true */\n      eq\n        /* \"contracts/PaymeTokenVesting.sol\":2154:2218  require(vestingSchedules[vestingScheduleId].initialized == true) */\n      tag_235\n      jumpi\n      0x00\n      dup1\n      revert\n    tag_235:\n        /* \"contracts/PaymeTokenVesting.sol\":2236:2271  vestingSchedules[vestingScheduleId] */\n      0x00\n      dup2\n      dup2\n      mstore\n        /* \"contracts/PaymeTokenVesting.sol\":2236:2252  vestingSchedules */\n      0x03\n        /* \"contracts/PaymeTokenVesting.sol\":2236:2271  vestingSchedules[vestingScheduleId] */\n      0x20\n      mstore\n      0x40\n      swap1\n      keccak256\n        /* \"contracts/PaymeTokenVesting.sol\":2236:2279  vestingSchedules[vestingScheduleId].revoked */\n      0x08\n      add\n      sload\n      0xff\n      and\n        /* \"contracts/PaymeTokenVesting.sol\":2236:2288  vestingSchedules[vestingScheduleId].revoked == false */\n      iszero\n        /* \"contracts/PaymeTokenVesting.sol\":2228:2289  require(vestingSchedules[vestingScheduleId].revoked == false) */\n      tag_236\n      jumpi\n      0x00\n      dup1\n      revert\n    tag_236:\n        /* \"contracts/PaymeTokenVesting.sol\":9150:9189  VestingSchedule storage vestingSchedule */\n      0x00\n        /* \"contracts/PaymeTokenVesting.sol\":9192:9227  vestingSchedules[vestingScheduleId] */\n      dup4\n      dup2\n      mstore\n        /* \"contracts/PaymeTokenVesting.sol\":9192:9208  vestingSchedules */\n      0x03\n        /* \"contracts/PaymeTokenVesting.sol\":9192:9227  vestingSchedules[vestingScheduleId] */\n      0x20\n      dup2\n      dup2\n      mstore\n      0x40\n      swap3\n      dup4\n      swap1\n      keccak256\n        /* \"contracts/PaymeTokenVesting.sol\":9244:9285  _computeReleasableAmount(vestingSchedule) */\n      dup4\n      mload\n      0x0140\n      dup2\n      add\n      dup6\n      mstore\n      dup2\n      sload\n      0xff\n      dup1\n      dup3\n      and\n      iszero\n      iszero\n      dup4\n      mstore\n      sub(shl(0xa0, 0x01), 0x01)\n      0x0100\n      swap3\n      dup4\n      swap1\n      div\n      and\n      swap5\n      dup4\n      add\n      swap5\n      swap1\n      swap5\n      mstore\n      0x01\n      dup4\n      add\n      sload\n      swap6\n      dup3\n      add\n      swap6\n      swap1\n      swap6\n      mstore\n      0x02\n      dup3\n      add\n      sload\n      0x60\n      dup3\n      add\n      mstore\n      swap3\n      dup2\n      add\n      sload\n      0x80\n      dup5\n      add\n      mstore\n      0x04\n      dup2\n      add\n      sload\n      0xa0\n      dup5\n      add\n      mstore\n      0x05\n      dup2\n      add\n      sload\n      dup3\n      and\n      iszero\n      iszero\n      0xc0\n      dup5\n      add\n      mstore\n      0x06\n      dup2\n      add\n      sload\n      0xe0\n      dup5\n      add\n      mstore\n      0x07\n      dup2\n      add\n      sload\n      swap4\n      dup4\n      add\n      swap4\n      swap1\n      swap4\n      mstore\n      0x08\n      dup4\n      add\n      sload\n      and\n      iszero\n      iszero\n      0x0120\n      dup3\n      add\n      mstore\n      tag_238\n      swap1\n        /* \"contracts/PaymeTokenVesting.sol\":9244:9268  _computeReleasableAmount */\n      tag_188\n        /* \"contracts/PaymeTokenVesting.sol\":9244:9285  _computeReleasableAmount(vestingSchedule) */\n      jump\t// in\n    tag_238:\n        /* \"contracts/PaymeTokenVesting.sol\":9237:9285  return _computeReleasableAmount(vestingSchedule) */\n      swap5\n        /* \"contracts/PaymeTokenVesting.sol\":8969:9292  function computeReleasableAmount(bytes32 vestingScheduleId)... */\n      swap4\n      pop\n      pop\n      pop\n      pop\n      jump\t// out\n        /* \"@openzeppelin/contracts/access/Ownable.sol\":2081:2279  function transferOwnership(address newOwner) public virtual onlyOwner {... */\n    tag_106:\n        /* \"@openzeppelin/contracts/access/Ownable.sol\":1094:1107  _checkOwner() */\n      tag_240\n        /* \"@openzeppelin/contracts/access/Ownable.sol\":1094:1105  _checkOwner */\n      tag_125\n        /* \"@openzeppelin/contracts/access/Ownable.sol\":1094:1107  _checkOwner() */\n      jump\t// in\n    tag_240:\n      sub(shl(0xa0, 0x01), 0x01)\n        /* \"@openzeppelin/contracts/access/Ownable.sol\":2169:2191  newOwner != address(0) */\n      dup2\n      and\n        /* \"@openzeppelin/contracts/access/Ownable.sol\":2161:2234  require(newOwner != address(0), \"Ownable: new owner is the zero address\") */\n      tag_242\n      jumpi\n      mload(0x40)\n      shl(0xe5, 0x461bcd)\n      dup2\n      mstore\n        /* \"#utility.yul\":8750:8752   */\n      0x20\n        /* \"@openzeppelin/contracts/access/Ownable.sol\":2161:2234  require(newOwner != address(0), \"Ownable: new owner is the zero address\") */\n      0x04\n      dup3\n      add\n        /* \"#utility.yul\":8732:8753   */\n      mstore\n        /* \"#utility.yul\":8789:8791   */\n      0x26\n        /* \"#utility.yul\":8769:8787   */\n      0x24\n      dup3\n      add\n        /* \"#utility.yul\":8762:8792   */\n      mstore\n        /* \"#utility.yul\":8828:8862   */\n      0x4f776e61626c653a206e6577206f776e657220697320746865207a65726f2061\n        /* \"#utility.yul\":8808:8826   */\n      0x44\n      dup3\n      add\n        /* \"#utility.yul\":8801:8863   */\n      mstore\n      shl(0xd0, 0x646472657373)\n        /* \"#utility.yul\":8879:8897   */\n      0x64\n      dup3\n      add\n        /* \"#utility.yul\":8872:8908   */\n      mstore\n        /* \"#utility.yul\":8925:8944   */\n      0x84\n      add\n        /* \"@openzeppelin/contracts/access/Ownable.sol\":2161:2234  require(newOwner != address(0), \"Ownable: new owner is the zero address\") */\n      tag_133\n        /* \"#utility.yul\":8548:8950   */\n      jump\n        /* \"@openzeppelin/contracts/access/Ownable.sol\":2161:2234  require(newOwner != address(0), \"Ownable: new owner is the zero address\") */\n    tag_242:\n        /* \"@openzeppelin/contracts/access/Ownable.sol\":2244:2272  _transferOwnership(newOwner) */\n      tag_245\n        /* \"@openzeppelin/contracts/access/Ownable.sol\":2263:2271  newOwner */\n      dup2\n        /* \"@openzeppelin/contracts/access/Ownable.sol\":2244:2262  _transferOwnership */\n      tag_200\n        /* \"@openzeppelin/contracts/access/Ownable.sol\":2244:2272  _transferOwnership(newOwner) */\n      jump\t// in\n    tag_245:\n        /* \"@openzeppelin/contracts/access/Ownable.sol\":2081:2279  function transferOwnership(address newOwner) public virtual onlyOwner {... */\n      pop\n      jump\t// out\n        /* \"contracts/PaymeTokenVesting.sol\":3423:3657  function getVestingScheduleByAddressAndIndex(address holder, uint256 index)... */\n    tag_110:\n        /* \"contracts/PaymeTokenVesting.sol\":3533:3555  VestingSchedule memory */\n      tag_246\n      tag_202\n      jump\t// in\n    tag_246:\n        /* \"contracts/PaymeTokenVesting.sol\":3573:3650  getVestingSchedule(computeVestingScheduleIdForAddressAndIndex(holder, index)) */\n      tag_248\n        /* \"contracts/PaymeTokenVesting.sol\":3592:3649  computeVestingScheduleIdForAddressAndIndex(holder, index) */\n      tag_90\n        /* \"contracts/PaymeTokenVesting.sol\":3635:3641  holder */\n      dup5\n        /* \"contracts/PaymeTokenVesting.sol\":3643:3648  index */\n      dup5\n        /* \"contracts/PaymeTokenVesting.sol\":3592:3634  computeVestingScheduleIdForAddressAndIndex */\n      tag_77\n        /* \"contracts/PaymeTokenVesting.sol\":3592:3649  computeVestingScheduleIdForAddressAndIndex(holder, index) */\n      jump\t// in\n        /* \"contracts/PaymeTokenVesting.sol\":3573:3650  getVestingSchedule(computeVestingScheduleIdForAddressAndIndex(holder, index)) */\n    tag_248:\n        /* \"contracts/PaymeTokenVesting.sol\":3566:3650  return getVestingSchedule(computeVestingScheduleIdForAddressAndIndex(holder, index)) */\n      swap4\n        /* \"contracts/PaymeTokenVesting.sol\":3423:3657  function getVestingScheduleByAddressAndIndex(address holder, uint256 index)... */\n      swap3\n      pop\n      pop\n      pop\n      jump\t// out\n        /* \"contracts/PaymeTokenVesting.sol\":10041:10259  function computeNextVestingScheduleIdForHolder(address holder)... */\n    tag_115:\n      sub(shl(0xa0, 0x01), 0x01)\n        /* \"contracts/PaymeTokenVesting.sol\":10224:10251  holdersVestingCount[holder] */\n      dup2\n      and\n        /* \"contracts/PaymeTokenVesting.sol\":10148:10155  bytes32 */\n      0x00\n        /* \"contracts/PaymeTokenVesting.sol\":10224:10251  holdersVestingCount[holder] */\n      swap1\n      dup2\n      mstore\n        /* \"contracts/PaymeTokenVesting.sol\":10224:10243  holdersVestingCount */\n      0x05\n        /* \"contracts/PaymeTokenVesting.sol\":10224:10251  holdersVestingCount[holder] */\n      0x20\n      mstore\n      0x40\n      dup2\n      keccak256\n      sload\n        /* \"contracts/PaymeTokenVesting.sol\":10173:10252  computeVestingScheduleIdForAddressAndIndex(holder, holdersVestingCount[holder]) */\n      tag_251\n      swap1\n        /* \"contracts/PaymeTokenVesting.sol\":10216:10222  holder */\n      dup4\n      swap1\n        /* \"contracts/PaymeTokenVesting.sol\":10173:10215  computeVestingScheduleIdForAddressAndIndex */\n      tag_77\n        /* \"contracts/PaymeTokenVesting.sol\":10173:10252  computeVestingScheduleIdForAddressAndIndex(holder, holdersVestingCount[holder]) */\n      jump\t// in\n    tag_251:\n        /* \"contracts/PaymeTokenVesting.sol\":10166:10252  return computeVestingScheduleIdForAddressAndIndex(holder, holdersVestingCount[holder]) */\n      swap3\n        /* \"contracts/PaymeTokenVesting.sol\":10041:10259  function computeNextVestingScheduleIdForHolder(address holder)... */\n      swap2\n      pop\n      pop\n      jump\t// out\n        /* \"contracts/PaymeTokenVesting.sol\":3034:3260  function getVestingIdAtIndex(uint256 index)... */\n    tag_120:\n        /* \"contracts/PaymeTokenVesting.sol\":3112:3119  bytes32 */\n      0x00\n        /* \"contracts/PaymeTokenVesting.sol\":3146:3172  getVestingSchedulesCount() */\n      tag_253\n        /* \"contracts/PaymeTokenVesting.sol\":8789:8808  vestingSchedulesIds */\n      0x02\n        /* \"contracts/PaymeTokenVesting.sol\":8789:8815  vestingSchedulesIds.length */\n      sload\n      swap1\n        /* \"contracts/PaymeTokenVesting.sol\":8684:8822  function getVestingSchedulesCount()... */\n      jump\n        /* \"contracts/PaymeTokenVesting.sol\":3146:3172  getVestingSchedulesCount() */\n    tag_253:\n        /* \"contracts/PaymeTokenVesting.sol\":3138:3143  index */\n      dup3\n        /* \"contracts/PaymeTokenVesting.sol\":3138:3172  index < getVestingSchedulesCount() */\n      lt\n        /* \"contracts/PaymeTokenVesting.sol\":3130:3210  require(index < getVestingSchedulesCount(), \"TokenVesting: index out of bounds\") */\n      tag_254\n      jumpi\n      mload(0x40)\n      shl(0xe5, 0x461bcd)\n      dup2\n      mstore\n        /* \"#utility.yul\":9157:9159   */\n      0x20\n        /* \"contracts/PaymeTokenVesting.sol\":3130:3210  require(index < getVestingSchedulesCount(), \"TokenVesting: index out of bounds\") */\n      0x04\n      dup3\n      add\n        /* \"#utility.yul\":9139:9160   */\n      mstore\n        /* \"#utility.yul\":9196:9198   */\n      0x21\n        /* \"#utility.yul\":9176:9194   */\n      0x24\n      dup3\n      add\n        /* \"#utility.yul\":9169:9199   */\n      mstore\n        /* \"#utility.yul\":9235:9269   */\n      0x546f6b656e56657374696e673a20696e646578206f7574206f6620626f756e64\n        /* \"#utility.yul\":9215:9233   */\n      0x44\n      dup3\n      add\n        /* \"#utility.yul\":9208:9270   */\n      mstore\n      shl(0xf8, 0x73)\n        /* \"#utility.yul\":9286:9304   */\n      0x64\n      dup3\n      add\n        /* \"#utility.yul\":9279:9310   */\n      mstore\n        /* \"#utility.yul\":9327:9346   */\n      0x84\n      add\n        /* \"contracts/PaymeTokenVesting.sol\":3130:3210  require(index < getVestingSchedulesCount(), \"TokenVesting: index out of bounds\") */\n      tag_133\n        /* \"#utility.yul\":8955:9352   */\n      jump\n        /* \"contracts/PaymeTokenVesting.sol\":3130:3210  require(index < getVestingSchedulesCount(), \"TokenVesting: index out of bounds\") */\n    tag_254:\n        /* \"contracts/PaymeTokenVesting.sol\":3227:3246  vestingSchedulesIds */\n      0x02\n        /* \"contracts/PaymeTokenVesting.sol\":3247:3252  index */\n      dup3\n        /* \"contracts/PaymeTokenVesting.sol\":3227:3253  vestingSchedulesIds[index] */\n      dup2\n      sload\n      dup2\n      lt\n      tag_258\n      jumpi\n      tag_258\n      tag_259\n      jump\t// in\n    tag_258:\n      swap1\n      0x00\n      mstore\n      keccak256(0x00, 0x20)\n      add\n      sload\n        /* \"contracts/PaymeTokenVesting.sol\":3220:3253  return vestingSchedulesIds[index] */\n      swap1\n      pop\n        /* \"contracts/PaymeTokenVesting.sol\":3034:3260  function getVestingIdAtIndex(uint256 index)... */\n      swap2\n      swap1\n      pop\n      jump\t// out\n        /* \"@openzeppelin/contracts/access/Ownable.sol\":1359:1489  function _checkOwner() internal view virtual {... */\n    tag_125:\n        /* \"@openzeppelin/contracts/access/Ownable.sol\":1247:1254  address */\n      0x00\n        /* \"@openzeppelin/contracts/access/Ownable.sol\":1273:1279  _owner */\n      sload\n      sub(shl(0xa0, 0x01), 0x01)\n      and\n        /* \"@openzeppelin/contracts/utils/Context.sol\":719:729  msg.sender */\n      caller\n        /* \"@openzeppelin/contracts/access/Ownable.sol\":1422:1445  owner() == _msgSender() */\n      eq\n        /* \"@openzeppelin/contracts/access/Ownable.sol\":1414:1482  require(owner() == _msgSender(), \"Ownable: caller is not the owner\") */\n      tag_199\n      jumpi\n      mload(0x40)\n      shl(0xe5, 0x461bcd)\n      dup2\n      mstore\n        /* \"#utility.yul\":9691:9693   */\n      0x20\n        /* \"@openzeppelin/contracts/access/Ownable.sol\":1414:1482  require(owner() == _msgSender(), \"Ownable: caller is not the owner\") */\n      0x04\n      dup3\n      add\n        /* \"#utility.yul\":9673:9694   */\n      dup2\n      swap1\n      mstore\n        /* \"#utility.yul\":9710:9728   */\n      0x24\n      dup3\n      add\n        /* \"#utility.yul\":9703:9733   */\n      mstore\n        /* \"#utility.yul\":9769:9803   */\n      0x4f776e61626c653a2063616c6c6572206973206e6f7420746865206f776e6572\n        /* \"#utility.yul\":9749:9767   */\n      0x44\n      dup3\n      add\n        /* \"#utility.yul\":9742:9804   */\n      mstore\n        /* \"#utility.yul\":9821:9839   */\n      0x64\n      add\n        /* \"@openzeppelin/contracts/access/Ownable.sol\":1414:1482  require(owner() == _msgSender(), \"Ownable: caller is not the owner\") */\n      tag_133\n        /* \"#utility.yul\":9489:9845   */\n      jump\n        /* \"@openzeppelin/contracts/utils/math/SafeMath.sol\":2755:2851  function add(uint256 a, uint256 b) internal pure returns (uint256) {... */\n    tag_151:\n        /* \"@openzeppelin/contracts/utils/math/SafeMath.sol\":2813:2820  uint256 */\n      0x00\n        /* \"@openzeppelin/contracts/utils/math/SafeMath.sol\":2839:2844  a + b */\n      tag_248\n        /* \"@openzeppelin/contracts/utils/math/SafeMath.sol\":2843:2844  b */\n      dup3\n        /* \"@openzeppelin/contracts/utils/math/SafeMath.sol\":2839:2840  a */\n      dup5\n        /* \"@openzeppelin/contracts/utils/math/SafeMath.sol\":2839:2844  a + b */\n      tag_270\n      jump\t// in\n        /* \"@openzeppelin/contracts/token/ERC20/utils/SafeERC20.sol\":763:968  function safeTransfer(... */\n    tag_172:\n        /* \"@openzeppelin/contracts/token/ERC20/utils/SafeERC20.sol\":902:960  abi.encodeWithSelector(token.transfer.selector, to, value) */\n      0x40\n      dup1\n      mload\n      sub(shl(0xa0, 0x01), 0x01)\n        /* \"#utility.yul\":10175:10207   */\n      dup5\n      and\n        /* \"@openzeppelin/contracts/token/ERC20/utils/SafeERC20.sol\":902:960  abi.encodeWithSelector(token.transfer.selector, to, value) */\n      0x24\n      dup3\n      add\n        /* \"#utility.yul\":10157:10208   */\n      mstore\n        /* \"#utility.yul\":10224:10242   */\n      0x44\n      dup1\n      dup3\n      add\n        /* \"#utility.yul\":10217:10251   */\n      dup5\n      swap1\n      mstore\n        /* \"@openzeppelin/contracts/token/ERC20/utils/SafeERC20.sol\":902:960  abi.encodeWithSelector(token.transfer.selector, to, value) */\n      dup3\n      mload\n      dup1\n      dup4\n      sub\n      swap1\n      swap2\n      add\n      dup2\n      mstore\n        /* \"#utility.yul\":10130:10148   */\n      0x64\n      swap1\n      swap2\n      add\n        /* \"@openzeppelin/contracts/token/ERC20/utils/SafeERC20.sol\":902:960  abi.encodeWithSelector(token.transfer.selector, to, value) */\n      swap1\n      swap2\n      mstore\n      0x20\n      dup2\n      add\n      dup1\n      mload\n      sub(shl(0xe0, 0x01), 0x01)\n      and\n      shl(0xe0, 0xa9059cbb)\n      or\n      swap1\n      mstore\n        /* \"@openzeppelin/contracts/token/ERC20/utils/SafeERC20.sol\":875:961  _callOptionalReturn(token, abi.encodeWithSelector(token.transfer.selector, to, value)) */\n      tag_272\n      swap1\n        /* \"@openzeppelin/contracts/token/ERC20/utils/SafeERC20.sol\":895:900  token */\n      dup5\n      swap1\n        /* \"@openzeppelin/contracts/token/ERC20/utils/SafeERC20.sol\":875:894  _callOptionalReturn */\n      tag_275\n        /* \"@openzeppelin/contracts/token/ERC20/utils/SafeERC20.sol\":875:961  _callOptionalReturn(token, abi.encodeWithSelector(token.transfer.selector, to, value)) */\n      jump\t// in\n    tag_272:\n        /* \"@openzeppelin/contracts/token/ERC20/utils/SafeERC20.sol\":763:968  function safeTransfer(... */\n      pop\n      pop\n      pop\n      jump\t// out\n        /* \"contracts/PaymeTokenVesting.sol\":11048:12041  function _computeReleasableAmount(VestingSchedule memory vestingSchedule)... */\n    tag_188:\n        /* \"contracts/PaymeTokenVesting.sol\":11241:11262  vestingSchedule.cliff */\n      0x40\n      dup2\n      add\n      mload\n        /* \"contracts/PaymeTokenVesting.sol\":11156:11163  uint256 */\n      0x00\n      swap1\n        /* \"contracts/PaymeTokenVesting.sol\":12160:12175  block.timestamp */\n      timestamp\n      swap1\n        /* \"contracts/PaymeTokenVesting.sol\":11227:11262  currentTime < vestingSchedule.cliff */\n      dup2\n      lt\n      dup1\n        /* \"contracts/PaymeTokenVesting.sol\":11226:11298  (currentTime < vestingSchedule.cliff) || vestingSchedule.revoked == true */\n      tag_279\n      jumpi\n      pop\n        /* \"contracts/PaymeTokenVesting.sol\":11267:11290  vestingSchedule.revoked */\n      0x0120\n      dup4\n      add\n      mload\n        /* \"contracts/PaymeTokenVesting.sol\":11267:11298  vestingSchedule.revoked == true */\n      iszero\n      iszero\n        /* \"contracts/PaymeTokenVesting.sol\":11294:11298  true */\n      0x01\n        /* \"contracts/PaymeTokenVesting.sol\":11267:11298  vestingSchedule.revoked == true */\n      eq\n        /* \"contracts/PaymeTokenVesting.sol\":11226:11298  (currentTime < vestingSchedule.cliff) || vestingSchedule.revoked == true */\n    tag_279:\n        /* \"contracts/PaymeTokenVesting.sol\":11222:12035  if ((currentTime < vestingSchedule.cliff) || vestingSchedule.revoked == true) {... */\n      iszero\n      tag_280\n      jumpi\n      pop\n        /* \"contracts/PaymeTokenVesting.sol\":11321:11322  0 */\n      0x00\n      swap3\n        /* \"contracts/PaymeTokenVesting.sol\":11048:12041  function _computeReleasableAmount(VestingSchedule memory vestingSchedule)... */\n      swap2\n      pop\n      pop\n      jump\t// out\n        /* \"contracts/PaymeTokenVesting.sol\":11222:12035  if ((currentTime < vestingSchedule.cliff) || vestingSchedule.revoked == true) {... */\n    tag_280:\n        /* \"contracts/PaymeTokenVesting.sol\":11384:11408  vestingSchedule.duration */\n      0x80\n      dup4\n      add\n      mload\n        /* \"contracts/PaymeTokenVesting.sol\":11358:11379  vestingSchedule.start */\n      0x60\n      dup5\n      add\n      mload\n        /* \"contracts/PaymeTokenVesting.sol\":11358:11409  vestingSchedule.start.add(vestingSchedule.duration) */\n      tag_282\n      swap2\n        /* \"contracts/PaymeTokenVesting.sol\":11358:11383  vestingSchedule.start.add */\n      tag_151\n        /* \"contracts/PaymeTokenVesting.sol\":11358:11409  vestingSchedule.start.add(vestingSchedule.duration) */\n      jump\t// in\n    tag_282:\n        /* \"contracts/PaymeTokenVesting.sol\":11343:11354  currentTime */\n      dup2\n        /* \"contracts/PaymeTokenVesting.sol\":11343:11409  currentTime >= vestingSchedule.start.add(vestingSchedule.duration) */\n      lt\n        /* \"contracts/PaymeTokenVesting.sol\":11339:12035  if (currentTime >= vestingSchedule.start.add(vestingSchedule.duration)) {... */\n      tag_283\n      jumpi\n        /* \"contracts/PaymeTokenVesting.sol\":11464:11488  vestingSchedule.released */\n      0x0100\n      dup4\n      add\n      mload\n        /* \"contracts/PaymeTokenVesting.sol\":11432:11459  vestingSchedule.amountTotal */\n      0xe0\n      dup5\n      add\n      mload\n        /* \"contracts/PaymeTokenVesting.sol\":11432:11489  vestingSchedule.amountTotal.sub(vestingSchedule.released) */\n      tag_248\n      swap2\n        /* \"contracts/PaymeTokenVesting.sol\":11432:11463  vestingSchedule.amountTotal.sub */\n      tag_194\n        /* \"contracts/PaymeTokenVesting.sol\":11432:11489  vestingSchedule.amountTotal.sub(vestingSchedule.released) */\n      jump\t// in\n        /* \"contracts/PaymeTokenVesting.sol\":11339:12035  if (currentTime >= vestingSchedule.start.add(vestingSchedule.duration)) {... */\n    tag_283:\n        /* \"contracts/PaymeTokenVesting.sol\":11520:11541  uint256 timeFromStart */\n      0x00\n        /* \"contracts/PaymeTokenVesting.sol\":11544:11582  currentTime.sub(vestingSchedule.start) */\n      tag_286\n        /* \"contracts/PaymeTokenVesting.sol\":11560:11575  vestingSchedule */\n      dup5\n        /* \"contracts/PaymeTokenVesting.sol\":11560:11581  vestingSchedule.start */\n      0x60\n      add\n      mload\n        /* \"contracts/PaymeTokenVesting.sol\":11544:11555  currentTime */\n      dup4\n        /* \"contracts/PaymeTokenVesting.sol\":11544:11559  currentTime.sub */\n      tag_194\n      swap1\n        /* \"contracts/PaymeTokenVesting.sol\":11544:11582  currentTime.sub(vestingSchedule.start) */\n      swap2\n      swap1\n      0xffffffff\n      and\n      jump\t// in\n    tag_286:\n        /* \"contracts/PaymeTokenVesting.sol\":11619:11653  vestingSchedule.slicePeriodSeconds */\n      0xa0\n      dup6\n      add\n      mload\n        /* \"contracts/PaymeTokenVesting.sol\":11520:11582  uint256 timeFromStart = currentTime.sub(vestingSchedule.start) */\n      swap1\n      swap2\n      pop\n        /* \"contracts/PaymeTokenVesting.sol\":11596:11616  uint secondsPerSlice */\n      0x00\n        /* \"contracts/PaymeTokenVesting.sol\":11696:11730  timeFromStart.div(secondsPerSlice) */\n      tag_287\n        /* \"contracts/PaymeTokenVesting.sol\":11520:11582  uint256 timeFromStart = currentTime.sub(vestingSchedule.start) */\n      dup4\n        /* \"contracts/PaymeTokenVesting.sol\":11619:11653  vestingSchedule.slicePeriodSeconds */\n      dup4\n        /* \"contracts/PaymeTokenVesting.sol\":11696:11713  timeFromStart.div */\n      tag_288\n        /* \"contracts/PaymeTokenVesting.sol\":11696:11730  timeFromStart.div(secondsPerSlice) */\n      jump\t// in\n    tag_287:\n        /* \"contracts/PaymeTokenVesting.sol\":11667:11730  uint256 vestedSlicePeriods = timeFromStart.div(secondsPerSlice) */\n      swap1\n      pop\n        /* \"contracts/PaymeTokenVesting.sol\":11744:11765  uint256 vestedSeconds */\n      0x00\n        /* \"contracts/PaymeTokenVesting.sol\":11768:11807  vestedSlicePeriods.mul(secondsPerSlice) */\n      tag_289\n        /* \"contracts/PaymeTokenVesting.sol\":11667:11730  uint256 vestedSlicePeriods = timeFromStart.div(secondsPerSlice) */\n      dup3\n        /* \"contracts/PaymeTokenVesting.sol\":11791:11806  secondsPerSlice */\n      dup5\n        /* \"contracts/PaymeTokenVesting.sol\":11768:11790  vestedSlicePeriods.mul */\n      tag_290\n        /* \"contracts/PaymeTokenVesting.sol\":11768:11807  vestedSlicePeriods.mul(secondsPerSlice) */\n      jump\t// in\n    tag_289:\n        /* \"contracts/PaymeTokenVesting.sol\":11744:11807  uint256 vestedSeconds = vestedSlicePeriods.mul(secondsPerSlice) */\n      swap1\n      pop\n        /* \"contracts/PaymeTokenVesting.sol\":11821:11841  uint256 vestedAmount */\n      0x00\n        /* \"contracts/PaymeTokenVesting.sol\":11844:11920  vestingSchedule.amountTotal.mul(vestedSeconds).div(vestingSchedule.duration) */\n      tag_291\n        /* \"contracts/PaymeTokenVesting.sol\":11895:11910  vestingSchedule */\n      dup9\n        /* \"contracts/PaymeTokenVesting.sol\":11895:11919  vestingSchedule.duration */\n      0x80\n      add\n      mload\n        /* \"contracts/PaymeTokenVesting.sol\":11844:11890  vestingSchedule.amountTotal.mul(vestedSeconds) */\n      tag_292\n        /* \"contracts/PaymeTokenVesting.sol\":11876:11889  vestedSeconds */\n      dup5\n        /* \"contracts/PaymeTokenVesting.sol\":11844:11859  vestingSchedule */\n      dup12\n        /* \"contracts/PaymeTokenVesting.sol\":11844:11871  vestingSchedule.amountTotal */\n      0xe0\n      add\n      mload\n        /* \"contracts/PaymeTokenVesting.sol\":11844:11875  vestingSchedule.amountTotal.mul */\n      tag_290\n      swap1\n        /* \"contracts/PaymeTokenVesting.sol\":11844:11890  vestingSchedule.amountTotal.mul(vestedSeconds) */\n      swap2\n      swap1\n      0xffffffff\n      and\n      jump\t// in\n    tag_292:\n        /* \"contracts/PaymeTokenVesting.sol\":11844:11894  vestingSchedule.amountTotal.mul(vestedSeconds).div */\n      swap1\n      tag_288\n        /* \"contracts/PaymeTokenVesting.sol\":11844:11920  vestingSchedule.amountTotal.mul(vestedSeconds).div(vestingSchedule.duration) */\n      jump\t// in\n    tag_291:\n        /* \"contracts/PaymeTokenVesting.sol\":11821:11920  uint256 vestedAmount = vestingSchedule.amountTotal.mul(vestedSeconds).div(vestingSchedule.duration) */\n      swap1\n      pop\n        /* \"contracts/PaymeTokenVesting.sol\":11949:11991  vestedAmount.sub(vestingSchedule.released) */\n      tag_293\n        /* \"contracts/PaymeTokenVesting.sol\":11966:11981  vestingSchedule */\n      dup9\n        /* \"contracts/PaymeTokenVesting.sol\":11966:11990  vestingSchedule.released */\n      0x0100\n      add\n      mload\n        /* \"contracts/PaymeTokenVesting.sol\":11949:11961  vestedAmount */\n      dup3\n        /* \"contracts/PaymeTokenVesting.sol\":11949:11965  vestedAmount.sub */\n      tag_194\n      swap1\n        /* \"contracts/PaymeTokenVesting.sol\":11949:11991  vestedAmount.sub(vestingSchedule.released) */\n      swap2\n      swap1\n      0xffffffff\n      and\n      jump\t// in\n    tag_293:\n        /* \"contracts/PaymeTokenVesting.sol\":11934:11991  vestedAmount = vestedAmount.sub(vestingSchedule.released) */\n      swap9\n        /* \"contracts/PaymeTokenVesting.sol\":11048:12041  function _computeReleasableAmount(VestingSchedule memory vestingSchedule)... */\n      swap8\n      pop\n      pop\n      pop\n      pop\n      pop\n      pop\n      pop\n      pop\n      jump\t// out\n        /* \"@openzeppelin/contracts/utils/math/SafeMath.sol\":3122:3218  function sub(uint256 a, uint256 b) internal pure returns (uint256) {... */\n    tag_194:\n        /* \"@openzeppelin/contracts/utils/math/SafeMath.sol\":3180:3187  uint256 */\n      0x00\n        /* \"@openzeppelin/contracts/utils/math/SafeMath.sol\":3206:3211  a - b */\n      tag_248\n        /* \"@openzeppelin/contracts/utils/math/SafeMath.sol\":3210:3211  b */\n      dup3\n        /* \"@openzeppelin/contracts/utils/math/SafeMath.sol\":3206:3207  a */\n      dup5\n        /* \"@openzeppelin/contracts/utils/math/SafeMath.sol\":3206:3211  a - b */\n      tag_206\n      jump\t// in\n        /* \"@openzeppelin/contracts/access/Ownable.sol\":2433:2620  function _transferOwnership(address newOwner) internal virtual {... */\n    tag_200:\n        /* \"@openzeppelin/contracts/access/Ownable.sol\":2506:2522  address oldOwner */\n      0x00\n        /* \"@openzeppelin/contracts/access/Ownable.sol\":2525:2531  _owner */\n      dup1\n      sload\n      sub(shl(0xa0, 0x01), 0x01)\n        /* \"@openzeppelin/contracts/access/Ownable.sol\":2541:2558  _owner = newOwner */\n      dup4\n      dup2\n      and\n      not(sub(shl(0xa0, 0x01), 0x01))\n      dup4\n      and\n      dup2\n      or\n      dup5\n      sstore\n        /* \"@openzeppelin/contracts/access/Ownable.sol\":2573:2613  OwnershipTransferred(oldOwner, newOwner) */\n      mload(0x40)\n        /* \"@openzeppelin/contracts/access/Ownable.sol\":2525:2531  _owner */\n      swap2\n      swap1\n      swap3\n      and\n      swap3\n      dup4\n      swap2\n        /* \"@openzeppelin/contracts/access/Ownable.sol\":2573:2613  OwnershipTransferred(oldOwner, newOwner) */\n      0x8be0079c531659141344cd1fd0a4f28419497f9722a3daafe3b4186f6b6457e0\n      swap2\n        /* \"@openzeppelin/contracts/access/Ownable.sol\":2506:2522  address oldOwner */\n      swap1\n        /* \"@openzeppelin/contracts/access/Ownable.sol\":2573:2613  OwnershipTransferred(oldOwner, newOwner) */\n      log3\n        /* \"@openzeppelin/contracts/access/Ownable.sol\":2496:2620  {... */\n      pop\n        /* \"@openzeppelin/contracts/access/Ownable.sol\":2433:2620  function _transferOwnership(address newOwner) internal virtual {... */\n      pop\n      jump\t// out\n        /* \"@openzeppelin/contracts/token/ERC20/utils/SafeERC20.sol\":3747:4453  function _callOptionalReturn(IERC20 token, bytes memory data) private {... */\n    tag_275:\n        /* \"@openzeppelin/contracts/token/ERC20/utils/SafeERC20.sol\":4166:4189  bytes memory returndata */\n      0x00\n        /* \"@openzeppelin/contracts/token/ERC20/utils/SafeERC20.sol\":4192:4261  address(token).functionCall(data, \"SafeERC20: low-level call failed\") */\n      tag_299\n        /* \"@openzeppelin/contracts/token/ERC20/utils/SafeERC20.sol\":4220:4224  data */\n      dup3\n        /* \"@openzeppelin/contracts/token/ERC20/utils/SafeERC20.sol\":4192:4261  address(token).functionCall(data, \"SafeERC20: low-level call failed\") */\n      mload(0x40)\n      dup1\n      0x40\n      add\n      0x40\n      mstore\n      dup1\n      0x20\n      dup2\n      mstore\n      0x20\n      add\n      0x5361666545524332303a206c6f772d6c6576656c2063616c6c206661696c6564\n      dup2\n      mstore\n      pop\n        /* \"@openzeppelin/contracts/token/ERC20/utils/SafeERC20.sol\":4200:4205  token */\n      dup6\n      sub(shl(0xa0, 0x01), 0x01)\n        /* \"@openzeppelin/contracts/token/ERC20/utils/SafeERC20.sol\":4192:4219  address(token).functionCall */\n      and\n      tag_300\n      swap1\n        /* \"@openzeppelin/contracts/token/ERC20/utils/SafeERC20.sol\":4192:4261  address(token).functionCall(data, \"SafeERC20: low-level call failed\") */\n      swap3\n      swap2\n      swap1\n      0xffffffff\n      and\n      jump\t// in\n    tag_299:\n        /* \"@openzeppelin/contracts/token/ERC20/utils/SafeERC20.sol\":4275:4292  returndata.length */\n      dup1\n      mload\n        /* \"@openzeppelin/contracts/token/ERC20/utils/SafeERC20.sol\":4166:4261  bytes memory returndata = address(token).functionCall(data, \"SafeERC20: low-level call failed\") */\n      swap1\n      swap2\n      pop\n        /* \"@openzeppelin/contracts/token/ERC20/utils/SafeERC20.sol\":4275:4296  returndata.length > 0 */\n      iszero\n        /* \"@openzeppelin/contracts/token/ERC20/utils/SafeERC20.sol\":4271:4447  if (returndata.length > 0) {... */\n      tag_272\n      jumpi\n        /* \"@openzeppelin/contracts/token/ERC20/utils/SafeERC20.sol\":4370:4380  returndata */\n      dup1\n        /* \"@openzeppelin/contracts/token/ERC20/utils/SafeERC20.sol\":4359:4389  abi.decode(returndata, (bool)) */\n      dup1\n      0x20\n      add\n      swap1\n      mload\n      dup2\n      add\n      swap1\n      tag_302\n      swap2\n      swap1\n      tag_303\n      jump\t// in\n    tag_302:\n        /* \"@openzeppelin/contracts/token/ERC20/utils/SafeERC20.sol\":4351:4436  require(abi.decode(returndata, (bool)), \"SafeERC20: ERC20 operation did not succeed\") */\n      tag_272\n      jumpi\n      mload(0x40)\n      shl(0xe5, 0x461bcd)\n      dup2\n      mstore\n        /* \"#utility.yul\":10714:10716   */\n      0x20\n        /* \"@openzeppelin/contracts/token/ERC20/utils/SafeERC20.sol\":4351:4436  require(abi.decode(returndata, (bool)), \"SafeERC20: ERC20 operation did not succeed\") */\n      0x04\n      dup3\n      add\n        /* \"#utility.yul\":10696:10717   */\n      mstore\n        /* \"#utility.yul\":10753:10755   */\n      0x2a\n        /* \"#utility.yul\":10733:10751   */\n      0x24\n      dup3\n      add\n        /* \"#utility.yul\":10726:10756   */\n      mstore\n        /* \"#utility.yul\":10792:10826   */\n      0x5361666545524332303a204552433230206f7065726174696f6e20646964206e\n        /* \"#utility.yul\":10772:10790   */\n      0x44\n      dup3\n      add\n        /* \"#utility.yul\":10765:10827   */\n      mstore\n      shl(0xb2, 0x1bdd081cdd58d8d95959)\n        /* \"#utility.yul\":10843:10861   */\n      0x64\n      dup3\n      add\n        /* \"#utility.yul\":10836:10876   */\n      mstore\n        /* \"#utility.yul\":10893:10912   */\n      0x84\n      add\n        /* \"@openzeppelin/contracts/token/ERC20/utils/SafeERC20.sol\":4351:4436  require(abi.decode(returndata, (bool)), \"SafeERC20: ERC20 operation did not succeed\") */\n      tag_133\n        /* \"#utility.yul\":10512:10918   */\n      jump\n        /* \"@openzeppelin/contracts/utils/math/SafeMath.sol\":3850:3946  function div(uint256 a, uint256 b) internal pure returns (uint256) {... */\n    tag_288:\n        /* \"@openzeppelin/contracts/utils/math/SafeMath.sol\":3908:3915  uint256 */\n      0x00\n        /* \"@openzeppelin/contracts/utils/math/SafeMath.sol\":3934:3939  a / b */\n      tag_248\n        /* \"@openzeppelin/contracts/utils/math/SafeMath.sol\":3938:3939  b */\n      dup3\n        /* \"@openzeppelin/contracts/utils/math/SafeMath.sol\":3934:3935  a */\n      dup5\n        /* \"@openzeppelin/contracts/utils/math/SafeMath.sol\":3934:3939  a / b */\n      tag_310\n      jump\t// in\n        /* \"@openzeppelin/contracts/utils/math/SafeMath.sol\":3465:3561  function mul(uint256 a, uint256 b) internal pure returns (uint256) {... */\n    tag_290:\n        /* \"@openzeppelin/contracts/utils/math/SafeMath.sol\":3523:3530  uint256 */\n      0x00\n        /* \"@openzeppelin/contracts/utils/math/SafeMath.sol\":3549:3554  a * b */\n      tag_248\n        /* \"@openzeppelin/contracts/utils/math/SafeMath.sol\":3553:3554  b */\n      dup3\n        /* \"@openzeppelin/contracts/utils/math/SafeMath.sol\":3549:3550  a */\n      dup5\n        /* \"@openzeppelin/contracts/utils/math/SafeMath.sol\":3549:3554  a * b */\n      tag_313\n      jump\t// in\n        /* \"@openzeppelin/contracts/utils/Address.sol\":3861:4084  function functionCall(... */\n    tag_300:\n        /* \"@openzeppelin/contracts/utils/Address.sol\":3994:4006  bytes memory */\n      0x60\n        /* \"@openzeppelin/contracts/utils/Address.sol\":4025:4077  functionCallWithValue(target, data, 0, errorMessage) */\n      tag_238\n        /* \"@openzeppelin/contracts/utils/Address.sol\":4047:4053  target */\n      dup5\n        /* \"@openzeppelin/contracts/utils/Address.sol\":4055:4059  data */\n      dup5\n        /* \"@openzeppelin/contracts/utils/Address.sol\":4061:4062  0 */\n      0x00\n        /* \"@openzeppelin/contracts/utils/Address.sol\":4064:4076  errorMessage */\n      dup6\n        /* \"@openzeppelin/contracts/utils/Address.sol\":3994:4006  bytes memory */\n      dup6\n      sub(shl(0xa0, 0x01), 0x01)\n        /* \"@openzeppelin/contracts/utils/Address.sol\":1465:1484  account.code.length */\n      dup6\n      and\n      extcodesize\n        /* \"@openzeppelin/contracts/utils/Address.sol\":5228:5288  require(isContract(target), \"Address: call to non-contract\") */\n      tag_323\n      jumpi\n      mload(0x40)\n      shl(0xe5, 0x461bcd)\n      dup2\n      mstore\n        /* \"#utility.yul\":11927:11929   */\n      0x20\n        /* \"@openzeppelin/contracts/utils/Address.sol\":5228:5288  require(isContract(target), \"Address: call to non-contract\") */\n      0x04\n      dup3\n      add\n        /* \"#utility.yul\":11909:11930   */\n      mstore\n        /* \"#utility.yul\":11966:11968   */\n      0x1d\n        /* \"#utility.yul\":11946:11964   */\n      0x24\n      dup3\n      add\n        /* \"#utility.yul\":11939:11969   */\n      mstore\n        /* \"#utility.yul\":12005:12036   */\n      0x416464726573733a2063616c6c20746f206e6f6e2d636f6e7472616374000000\n        /* \"#utility.yul\":11985:12003   */\n      0x44\n      dup3\n      add\n        /* \"#utility.yul\":11978:12037   */\n      mstore\n        /* \"#utility.yul\":12054:12072   */\n      0x64\n      add\n        /* \"@openzeppelin/contracts/utils/Address.sol\":5228:5288  require(isContract(target), \"Address: call to non-contract\") */\n      tag_133\n        /* \"#utility.yul\":11725:12078   */\n      jump\n        /* \"@openzeppelin/contracts/utils/Address.sol\":5228:5288  require(isContract(target), \"Address: call to non-contract\") */\n    tag_323:\n        /* \"@openzeppelin/contracts/utils/Address.sol\":5300:5312  bool success */\n      0x00\n        /* \"@openzeppelin/contracts/utils/Address.sol\":5314:5337  bytes memory returndata */\n      dup1\n        /* \"@openzeppelin/contracts/utils/Address.sol\":5341:5347  target */\n      dup7\n      sub(shl(0xa0, 0x01), 0x01)\n        /* \"@openzeppelin/contracts/utils/Address.sol\":5341:5352  target.call */\n      and\n        /* \"@openzeppelin/contracts/utils/Address.sol\":5360:5365  value */\n      dup6\n        /* \"@openzeppelin/contracts/utils/Address.sol\":5367:5371  data */\n      dup8\n        /* \"@openzeppelin/contracts/utils/Address.sol\":5341:5372  target.call{value: value}(data) */\n      mload(0x40)\n      tag_326\n      swap2\n      swap1\n      tag_327\n      jump\t// in\n    tag_326:\n      0x00\n      mload(0x40)\n      dup1\n      dup4\n      sub\n      dup2\n      dup6\n      dup8\n      gas\n      call\n      swap3\n      pop\n      pop\n      pop\n      returndatasize\n      dup1\n      0x00\n      dup2\n      eq\n      tag_330\n      jumpi\n      mload(0x40)\n      swap2\n      pop\n      and(add(returndatasize, 0x3f), not(0x1f))\n      dup3\n      add\n      0x40\n      mstore\n      returndatasize\n      dup3\n      mstore\n      returndatasize\n      0x00\n      0x20\n      dup5\n      add\n      returndatacopy\n      jump(tag_329)\n    tag_330:\n      0x60\n      swap2\n      pop\n    tag_329:\n      pop\n        /* \"@openzeppelin/contracts/utils/Address.sol\":5299:5372  (bool success, bytes memory returndata) = target.call{value: value}(data) */\n      swap2\n      pop\n      swap2\n      pop\n        /* \"@openzeppelin/contracts/utils/Address.sol\":5389:5440  verifyCallResult(success, returndata, errorMessage) */\n      tag_331\n        /* \"@openzeppelin/contracts/utils/Address.sol\":5406:5413  success */\n      dup3\n        /* \"@openzeppelin/contracts/utils/Address.sol\":5415:5425  returndata */\n      dup3\n        /* \"@openzeppelin/contracts/utils/Address.sol\":5427:5439  errorMessage */\n      dup7\n        /* \"@openzeppelin/contracts/utils/Address.sol\":5389:5405  verifyCallResult */\n      tag_332\n        /* \"@openzeppelin/contracts/utils/Address.sol\":5389:5440  verifyCallResult(success, returndata, errorMessage) */\n      jump\t// in\n    tag_331:\n        /* \"@openzeppelin/contracts/utils/Address.sol\":5382:5440  return verifyCallResult(success, returndata, errorMessage) */\n      swap8\n        /* \"@openzeppelin/contracts/utils/Address.sol\":4948:5447  function functionCallWithValue(... */\n      swap7\n      pop\n      pop\n      pop\n      pop\n      pop\n      pop\n      pop\n      jump\t// out\n        /* \"@openzeppelin/contracts/utils/Address.sol\":7561:8303  function verifyCallResult(... */\n    tag_332:\n        /* \"@openzeppelin/contracts/utils/Address.sol\":7707:7719  bytes memory */\n      0x60\n        /* \"@openzeppelin/contracts/utils/Address.sol\":7735:7742  success */\n      dup4\n        /* \"@openzeppelin/contracts/utils/Address.sol\":7731:8297  if (success) {... */\n      iszero\n      tag_335\n      jumpi\n      pop\n        /* \"@openzeppelin/contracts/utils/Address.sol\":7765:7775  returndata */\n      dup2\n        /* \"@openzeppelin/contracts/utils/Address.sol\":7758:7775  return returndata */\n      jump(tag_248)\n        /* \"@openzeppelin/contracts/utils/Address.sol\":7731:8297  if (success) {... */\n    tag_335:\n        /* \"@openzeppelin/contracts/utils/Address.sol\":7876:7893  returndata.length */\n      dup3\n      mload\n        /* \"@openzeppelin/contracts/utils/Address.sol\":7876:7897  returndata.length > 0 */\n      iszero\n        /* \"@openzeppelin/contracts/utils/Address.sol\":7872:8287  if (returndata.length > 0) {... */\n      tag_337\n      jumpi\n        /* \"@openzeppelin/contracts/utils/Address.sol\":8120:8130  returndata */\n      dup3\n        /* \"@openzeppelin/contracts/utils/Address.sol\":8114:8131  mload(returndata) */\n      mload\n        /* \"@openzeppelin/contracts/utils/Address.sol\":8180:8195  returndata_size */\n      dup1\n        /* \"@openzeppelin/contracts/utils/Address.sol\":8167:8177  returndata */\n      dup5\n        /* \"@openzeppelin/contracts/utils/Address.sol\":8163:8165  32 */\n      0x20\n        /* \"@openzeppelin/contracts/utils/Address.sol\":8159:8178  add(32, returndata) */\n      add\n        /* \"@openzeppelin/contracts/utils/Address.sol\":8152:8196  revert(add(32, returndata), returndata_size) */\n      revert\n        /* \"@openzeppelin/contracts/utils/Address.sol\":7872:8287  if (returndata.length > 0) {... */\n    tag_337:\n        /* \"@openzeppelin/contracts/utils/Address.sol\":8259:8271  errorMessage */\n      dup2\n        /* \"@openzeppelin/contracts/utils/Address.sol\":8252:8272  revert(errorMessage) */\n      mload(0x40)\n      shl(0xe5, 0x461bcd)\n      dup2\n      mstore\n      0x04\n      add\n      tag_133\n      swap2\n      swap1\n      tag_340\n      jump\t// in\n    tag_202:\n      mload(0x40)\n      dup1\n      0x0140\n      add\n      0x40\n      mstore\n      dup1\n      iszero(iszero(0x00))\n      dup2\n      mstore\n      0x20\n      add\n      and(sub(shl(0xa0, 0x01), 0x01), 0x00)\n      dup2\n      mstore\n      0x20\n      add\n      0x00\n      dup2\n      mstore\n      0x20\n      add\n      0x00\n      dup2\n      mstore\n      0x20\n      add\n      0x00\n      dup2\n      mstore\n      0x20\n      add\n      0x00\n      dup2\n      mstore\n      0x20\n      add\n      iszero(iszero(0x00))\n      dup2\n      mstore\n      0x20\n      add\n      0x00\n      dup2\n      mstore\n      0x20\n      add\n      0x00\n      dup2\n      mstore\n      0x20\n      add\n      iszero(iszero(0x00))\n      dup2\n      mstore\n      pop\n      swap1\n      jump\t// out\n        /* \"#utility.yul\":196:369   */\n    tag_341:\n        /* \"#utility.yul\":264:284   */\n      dup1\n      calldataload\n      sub(shl(0xa0, 0x01), 0x01)\n        /* \"#utility.yul\":313:344   */\n      dup2\n      and\n        /* \"#utility.yul\":303:345   */\n      dup2\n      eq\n        /* \"#utility.yul\":293:363   */\n      tag_350\n      jumpi\n        /* \"#utility.yul\":359:360   */\n      0x00\n        /* \"#utility.yul\":356:357   */\n      dup1\n        /* \"#utility.yul\":349:361   */\n      revert\n        /* \"#utility.yul\":293:363   */\n    tag_350:\n        /* \"#utility.yul\":196:369   */\n      swap2\n      swap1\n      pop\n      jump\t// out\n        /* \"#utility.yul\":374:492   */\n    tag_342:\n        /* \"#utility.yul\":460:465   */\n      dup1\n        /* \"#utility.yul\":453:466   */\n      iszero\n        /* \"#utility.yul\":446:467   */\n      iszero\n        /* \"#utility.yul\":439:444   */\n      dup2\n        /* \"#utility.yul\":436:468   */\n      eq\n        /* \"#utility.yul\":426:486   */\n      tag_245\n      jumpi\n        /* \"#utility.yul\":482:483   */\n      0x00\n        /* \"#utility.yul\":479:480   */\n      dup1\n        /* \"#utility.yul\":472:484   */\n      revert\n        /* \"#utility.yul\":497:1156   */\n    tag_37:\n        /* \"#utility.yul\":607:613   */\n      0x00\n        /* \"#utility.yul\":615:621   */\n      dup1\n        /* \"#utility.yul\":623:629   */\n      0x00\n        /* \"#utility.yul\":631:637   */\n      dup1\n        /* \"#utility.yul\":639:645   */\n      0x00\n        /* \"#utility.yul\":647:653   */\n      dup1\n        /* \"#utility.yul\":655:661   */\n      0x00\n        /* \"#utility.yul\":708:711   */\n      0xe0\n        /* \"#utility.yul\":696:705   */\n      dup9\n        /* \"#utility.yul\":687:694   */\n      dup11\n        /* \"#utility.yul\":683:706   */\n      sub\n        /* \"#utility.yul\":679:712   */\n      slt\n        /* \"#utility.yul\":676:729   */\n      iszero\n      tag_354\n      jumpi\n        /* \"#utility.yul\":725:726   */\n      0x00\n        /* \"#utility.yul\":722:723   */\n      dup1\n        /* \"#utility.yul\":715:727   */\n      revert\n        /* \"#utility.yul\":676:729   */\n    tag_354:\n        /* \"#utility.yul\":748:777   */\n      tag_355\n        /* \"#utility.yul\":767:776   */\n      dup9\n        /* \"#utility.yul\":748:777   */\n      tag_341\n      jump\t// in\n    tag_355:\n        /* \"#utility.yul\":738:777   */\n      swap7\n      pop\n        /* \"#utility.yul\":824:826   */\n      0x20\n        /* \"#utility.yul\":813:822   */\n      dup9\n        /* \"#utility.yul\":809:827   */\n      add\n        /* \"#utility.yul\":796:828   */\n      calldataload\n        /* \"#utility.yul\":786:828   */\n      swap6\n      pop\n        /* \"#utility.yul\":875:877   */\n      0x40\n        /* \"#utility.yul\":864:873   */\n      dup9\n        /* \"#utility.yul\":860:878   */\n      add\n        /* \"#utility.yul\":847:879   */\n      calldataload\n        /* \"#utility.yul\":837:879   */\n      swap5\n      pop\n        /* \"#utility.yul\":926:928   */\n      0x60\n        /* \"#utility.yul\":915:924   */\n      dup9\n        /* \"#utility.yul\":911:929   */\n      add\n        /* \"#utility.yul\":898:930   */\n      calldataload\n        /* \"#utility.yul\":888:930   */\n      swap4\n      pop\n        /* \"#utility.yul\":977:980   */\n      0x80\n        /* \"#utility.yul\":966:975   */\n      dup9\n        /* \"#utility.yul\":962:981   */\n      add\n        /* \"#utility.yul\":949:982   */\n      calldataload\n        /* \"#utility.yul\":939:982   */\n      swap3\n      pop\n        /* \"#utility.yul\":1032:1035   */\n      0xa0\n        /* \"#utility.yul\":1021:1030   */\n      dup9\n        /* \"#utility.yul\":1017:1036   */\n      add\n        /* \"#utility.yul\":1004:1037   */\n      calldataload\n        /* \"#utility.yul\":1046:1074   */\n      tag_356\n        /* \"#utility.yul\":1068:1073   */\n      dup2\n        /* \"#utility.yul\":1046:1074   */\n      tag_342\n      jump\t// in\n    tag_356:\n        /* \"#utility.yul\":1093:1098   */\n      dup1\n        /* \"#utility.yul\":1083:1098   */\n      swap3\n      pop\n      pop\n        /* \"#utility.yul\":1145:1148   */\n      0xc0\n        /* \"#utility.yul\":1134:1143   */\n      dup9\n        /* \"#utility.yul\":1130:1149   */\n      add\n        /* \"#utility.yul\":1117:1150   */\n      calldataload\n        /* \"#utility.yul\":1107:1150   */\n      swap1\n      pop\n        /* \"#utility.yul\":497:1156   */\n      swap3\n      swap6\n      swap9\n      swap2\n      swap5\n      swap8\n      pop\n      swap3\n      swap6\n      pop\n      jump\t// out\n        /* \"#utility.yul\":1478:1658   */\n    tag_47:\n        /* \"#utility.yul\":1537:1543   */\n      0x00\n        /* \"#utility.yul\":1590:1592   */\n      0x20\n        /* \"#utility.yul\":1578:1587   */\n      dup3\n        /* \"#utility.yul\":1569:1576   */\n      dup5\n        /* \"#utility.yul\":1565:1588   */\n      sub\n        /* \"#utility.yul\":1561:1593   */\n      slt\n        /* \"#utility.yul\":1558:1610   */\n      iszero\n      tag_360\n      jumpi\n        /* \"#utility.yul\":1606:1607   */\n      0x00\n        /* \"#utility.yul\":1603:1604   */\n      dup1\n        /* \"#utility.yul\":1596:1608   */\n      revert\n        /* \"#utility.yul\":1558:1610   */\n    tag_360:\n      pop\n        /* \"#utility.yul\":1629:1652   */\n      calldataload\n      swap2\n        /* \"#utility.yul\":1478:1658   */\n      swap1\n      pop\n      jump\t// out\n        /* \"#utility.yul\":1663:1849   */\n    tag_56:\n        /* \"#utility.yul\":1722:1728   */\n      0x00\n        /* \"#utility.yul\":1775:1777   */\n      0x20\n        /* \"#utility.yul\":1763:1772   */\n      dup3\n        /* \"#utility.yul\":1754:1761   */\n      dup5\n        /* \"#utility.yul\":1750:1773   */\n      sub\n        /* \"#utility.yul\":1746:1778   */\n      slt\n        /* \"#utility.yul\":1743:1795   */\n      iszero\n      tag_362\n      jumpi\n        /* \"#utility.yul\":1791:1792   */\n      0x00\n        /* \"#utility.yul\":1788:1789   */\n      dup1\n        /* \"#utility.yul\":1781:1793   */\n      revert\n        /* \"#utility.yul\":1743:1795   */\n    tag_362:\n        /* \"#utility.yul\":1814:1843   */\n      tag_248\n        /* \"#utility.yul\":1833:1842   */\n      dup3\n        /* \"#utility.yul\":1814:1843   */\n      tag_341\n      jump\t// in\n        /* \"#utility.yul\":1854:2102   */\n    tag_62:\n        /* \"#utility.yul\":1922:1928   */\n      0x00\n        /* \"#utility.yul\":1930:1936   */\n      dup1\n        /* \"#utility.yul\":1983:1985   */\n      0x40\n        /* \"#utility.yul\":1971:1980   */\n      dup4\n        /* \"#utility.yul\":1962:1969   */\n      dup6\n        /* \"#utility.yul\":1958:1981   */\n      sub\n        /* \"#utility.yul\":1954:1986   */\n      slt\n        /* \"#utility.yul\":1951:2003   */\n      iszero\n      tag_365\n      jumpi\n        /* \"#utility.yul\":1999:2000   */\n      0x00\n        /* \"#utility.yul\":1996:1997   */\n      dup1\n        /* \"#utility.yul\":1989:2001   */\n      revert\n        /* \"#utility.yul\":1951:2003   */\n    tag_365:\n      pop\n      pop\n        /* \"#utility.yul\":2022:2045   */\n      dup1\n      calldataload\n      swap3\n        /* \"#utility.yul\":2092:2094   */\n      0x20\n        /* \"#utility.yul\":2077:2095   */\n      swap1\n      swap2\n      add\n        /* \"#utility.yul\":2064:2096   */\n      calldataload\n      swap2\n      pop\n        /* \"#utility.yul\":1854:2102   */\n      jump\t// out\n        /* \"#utility.yul\":2203:3233   */\n    tag_72:\n        /* \"#utility.yul\":2432:2445   */\n      dup2\n      mload\n        /* \"#utility.yul\":2177:2190   */\n      iszero\n        /* \"#utility.yul\":2170:2191   */\n      iszero\n        /* \"#utility.yul\":2158:2192   */\n      dup2\n      mstore\n        /* \"#utility.yul\":2403:2406   */\n      0x0140\n        /* \"#utility.yul\":2388:2407   */\n      dup2\n      add\n        /* \"#utility.yul\":2504:2508   */\n      0x20\n        /* \"#utility.yul\":2496:2502   */\n      dup4\n        /* \"#utility.yul\":2492:2509   */\n      add\n        /* \"#utility.yul\":2486:2510   */\n      mload\n        /* \"#utility.yul\":2519:2573   */\n      tag_369\n        /* \"#utility.yul\":2567:2571   */\n      0x20\n        /* \"#utility.yul\":2556:2565   */\n      dup5\n        /* \"#utility.yul\":2552:2572   */\n      add\n        /* \"#utility.yul\":2538:2550   */\n      dup3\n      sub(shl(0xa0, 0x01), 0x01)\n        /* \"#utility.yul\":1227:1258   */\n      and\n        /* \"#utility.yul\":1215:1259   */\n      swap1\n      mstore\n        /* \"#utility.yul\":1161:1265   */\n      jump\n        /* \"#utility.yul\":2519:2573   */\n    tag_369:\n      pop\n        /* \"#utility.yul\":2629:2633   */\n      0x40\n        /* \"#utility.yul\":2621:2627   */\n      dup4\n        /* \"#utility.yul\":2617:2634   */\n      add\n        /* \"#utility.yul\":2611:2635   */\n      mload\n        /* \"#utility.yul\":2604:2608   */\n      0x40\n        /* \"#utility.yul\":2593:2602   */\n      dup4\n        /* \"#utility.yul\":2589:2609   */\n      add\n        /* \"#utility.yul\":2582:2636   */\n      mstore\n        /* \"#utility.yul\":2692:2696   */\n      0x60\n        /* \"#utility.yul\":2684:2690   */\n      dup4\n        /* \"#utility.yul\":2680:2697   */\n      add\n        /* \"#utility.yul\":2674:2698   */\n      mload\n        /* \"#utility.yul\":2667:2671   */\n      0x60\n        /* \"#utility.yul\":2656:2665   */\n      dup4\n        /* \"#utility.yul\":2652:2672   */\n      add\n        /* \"#utility.yul\":2645:2699   */\n      mstore\n        /* \"#utility.yul\":2755:2759   */\n      0x80\n        /* \"#utility.yul\":2747:2753   */\n      dup4\n        /* \"#utility.yul\":2743:2760   */\n      add\n        /* \"#utility.yul\":2737:2761   */\n      mload\n        /* \"#utility.yul\":2730:2734   */\n      0x80\n        /* \"#utility.yul\":2719:2728   */\n      dup4\n        /* \"#utility.yul\":2715:2735   */\n      add\n        /* \"#utility.yul\":2708:2762   */\n      mstore\n        /* \"#utility.yul\":2818:2822   */\n      0xa0\n        /* \"#utility.yul\":2810:2816   */\n      dup4\n        /* \"#utility.yul\":2806:2823   */\n      add\n        /* \"#utility.yul\":2800:2824   */\n      mload\n        /* \"#utility.yul\":2793:2797   */\n      0xa0\n        /* \"#utility.yul\":2782:2791   */\n      dup4\n        /* \"#utility.yul\":2778:2798   */\n      add\n        /* \"#utility.yul\":2771:2825   */\n      mstore\n        /* \"#utility.yul\":2874:2878   */\n      0xc0\n        /* \"#utility.yul\":2866:2872   */\n      dup4\n        /* \"#utility.yul\":2862:2879   */\n      add\n        /* \"#utility.yul\":2856:2880   */\n      mload\n        /* \"#utility.yul\":2889:2942   */\n      tag_370\n        /* \"#utility.yul\":2936:2940   */\n      0xc0\n        /* \"#utility.yul\":2925:2934   */\n      dup5\n        /* \"#utility.yul\":2921:2941   */\n      add\n        /* \"#utility.yul\":2905:2919   */\n      dup3\n        /* \"#utility.yul\":2177:2190   */\n      iszero\n        /* \"#utility.yul\":2170:2191   */\n      iszero\n        /* \"#utility.yul\":2158:2192   */\n      swap1\n      mstore\n        /* \"#utility.yul\":2107:2198   */\n      jump\n        /* \"#utility.yul\":2889:2942   */\n    tag_370:\n      pop\n        /* \"#utility.yul\":2998:3002   */\n      0xe0\n        /* \"#utility.yul\":2986:3003   */\n      dup4\n      dup2\n      add\n        /* \"#utility.yul\":2980:3004   */\n      mload\n        /* \"#utility.yul\":2958:2978   */\n      swap1\n      dup4\n      add\n        /* \"#utility.yul\":2951:3005   */\n      mstore\n        /* \"#utility.yul\":3024:3030   */\n      0x0100\n        /* \"#utility.yul\":3072:3087   */\n      dup1\n      dup5\n      add\n        /* \"#utility.yul\":3066:3088   */\n      mload\n        /* \"#utility.yul\":3046:3064   */\n      swap1\n      dup4\n      add\n        /* \"#utility.yul\":3039:3089   */\n      mstore\n        /* \"#utility.yul\":3108:3114   */\n      0x0120\n        /* \"#utility.yul\":3151:3166   */\n      swap3\n      dup4\n      add\n        /* \"#utility.yul\":3145:3167   */\n      mload\n        /* \"#utility.yul\":2177:2190   */\n      iszero\n        /* \"#utility.yul\":2170:2191   */\n      iszero\n        /* \"#utility.yul\":3208:3226   */\n      swap3\n      swap1\n      swap2\n      add\n        /* \"#utility.yul\":2158:2192   */\n      swap2\n      swap1\n      swap2\n      mstore\n        /* \"#utility.yul\":2203:3233   */\n      swap1\n      jump\t// out\n        /* \"#utility.yul\":3238:3492   */\n    tag_76:\n        /* \"#utility.yul\":3306:3312   */\n      0x00\n        /* \"#utility.yul\":3314:3320   */\n      dup1\n        /* \"#utility.yul\":3367:3369   */\n      0x40\n        /* \"#utility.yul\":3355:3364   */\n      dup4\n        /* \"#utility.yul\":3346:3353   */\n      dup6\n        /* \"#utility.yul\":3342:3365   */\n      sub\n        /* \"#utility.yul\":3338:3370   */\n      slt\n        /* \"#utility.yul\":3335:3387   */\n      iszero\n      tag_373\n      jumpi\n        /* \"#utility.yul\":3383:3384   */\n      0x00\n        /* \"#utility.yul\":3380:3381   */\n      dup1\n        /* \"#utility.yul\":3373:3385   */\n      revert\n        /* \"#utility.yul\":3335:3387   */\n    tag_373:\n        /* \"#utility.yul\":3406:3435   */\n      tag_374\n        /* \"#utility.yul\":3425:3434   */\n      dup4\n        /* \"#utility.yul\":3406:3435   */\n      tag_341\n      jump\t// in\n    tag_374:\n        /* \"#utility.yul\":3396:3435   */\n      swap5\n        /* \"#utility.yul\":3482:3484   */\n      0x20\n        /* \"#utility.yul\":3467:3485   */\n      swap4\n      swap1\n      swap4\n      add\n        /* \"#utility.yul\":3454:3486   */\n      calldataload\n      swap4\n      pop\n      pop\n      pop\n        /* \"#utility.yul\":3238:3492   */\n      jump\t// out\n        /* \"#utility.yul\":3864:4048   */\n    tag_131:\n        /* \"#utility.yul\":3934:3940   */\n      0x00\n        /* \"#utility.yul\":3987:3989   */\n      0x20\n        /* \"#utility.yul\":3975:3984   */\n      dup3\n        /* \"#utility.yul\":3966:3973   */\n      dup5\n        /* \"#utility.yul\":3962:3985   */\n      sub\n        /* \"#utility.yul\":3958:3990   */\n      slt\n        /* \"#utility.yul\":3955:4007   */\n      iszero\n      tag_379\n      jumpi\n        /* \"#utility.yul\":4003:4004   */\n      0x00\n        /* \"#utility.yul\":4000:4001   */\n      dup1\n        /* \"#utility.yul\":3993:4005   */\n      revert\n        /* \"#utility.yul\":3955:4007   */\n    tag_379:\n      pop\n        /* \"#utility.yul\":4026:4042   */\n      mload\n      swap2\n        /* \"#utility.yul\":3864:4048   */\n      swap1\n      pop\n      jump\t// out\n        /* \"#utility.yul\":7580:7707   */\n    tag_345:\n        /* \"#utility.yul\":7641:7651   */\n      0x4e487b71\n        /* \"#utility.yul\":7636:7639   */\n      0xe0\n        /* \"#utility.yul\":7632:7652   */\n      shl\n        /* \"#utility.yul\":7629:7630   */\n      0x00\n        /* \"#utility.yul\":7622:7653   */\n      mstore\n        /* \"#utility.yul\":7672:7676   */\n      0x11\n        /* \"#utility.yul\":7669:7670   */\n      0x04\n        /* \"#utility.yul\":7662:7677   */\n      mstore\n        /* \"#utility.yul\":7696:7700   */\n      0x24\n        /* \"#utility.yul\":7693:7694   */\n      0x00\n        /* \"#utility.yul\":7686:7701   */\n      revert\n        /* \"#utility.yul\":7712:7837   */\n    tag_206:\n        /* \"#utility.yul\":7752:7756   */\n      0x00\n        /* \"#utility.yul\":7780:7781   */\n      dup3\n        /* \"#utility.yul\":7777:7778   */\n      dup3\n        /* \"#utility.yul\":7774:7782   */\n      lt\n        /* \"#utility.yul\":7771:7805   */\n      iszero\n      tag_393\n      jumpi\n        /* \"#utility.yul\":7785:7803   */\n      tag_393\n      tag_345\n      jump\t// in\n    tag_393:\n      pop\n        /* \"#utility.yul\":7822:7831   */\n      sub\n      swap1\n        /* \"#utility.yul\":7712:7837   */\n      jump\t// out\n        /* \"#utility.yul\":9357:9484   */\n    tag_259:\n        /* \"#utility.yul\":9418:9428   */\n      0x4e487b71\n        /* \"#utility.yul\":9413:9416   */\n      0xe0\n        /* \"#utility.yul\":9409:9429   */\n      shl\n        /* \"#utility.yul\":9406:9407   */\n      0x00\n        /* \"#utility.yul\":9399:9430   */\n      mstore\n        /* \"#utility.yul\":9449:9453   */\n      0x32\n        /* \"#utility.yul\":9446:9447   */\n      0x04\n        /* \"#utility.yul\":9439:9454   */\n      mstore\n        /* \"#utility.yul\":9473:9477   */\n      0x24\n        /* \"#utility.yul\":9470:9471   */\n      0x00\n        /* \"#utility.yul\":9463:9478   */\n      revert\n        /* \"#utility.yul\":9850:9978   */\n    tag_270:\n        /* \"#utility.yul\":9890:9893   */\n      0x00\n        /* \"#utility.yul\":9921:9922   */\n      dup3\n        /* \"#utility.yul\":9917:9923   */\n      not\n        /* \"#utility.yul\":9914:9915   */\n      dup3\n        /* \"#utility.yul\":9911:9924   */\n      gt\n        /* \"#utility.yul\":9908:9947   */\n      iszero\n      tag_402\n      jumpi\n        /* \"#utility.yul\":9927:9945   */\n      tag_402\n      tag_345\n      jump\t// in\n    tag_402:\n      pop\n        /* \"#utility.yul\":9963:9972   */\n      add\n      swap1\n        /* \"#utility.yul\":9850:9978   */\n      jump\t// out\n        /* \"#utility.yul\":10262:10507   */\n    tag_303:\n        /* \"#utility.yul\":10329:10335   */\n      0x00\n        /* \"#utility.yul\":10382:10384   */\n      0x20\n        /* \"#utility.yul\":10370:10379   */\n      dup3\n        /* \"#utility.yul\":10361:10368   */\n      dup5\n        /* \"#utility.yul\":10357:10380   */\n      sub\n        /* \"#utility.yul\":10353:10385   */\n      slt\n        /* \"#utility.yul\":10350:10402   */\n      iszero\n      tag_405\n      jumpi\n        /* \"#utility.yul\":10398:10399   */\n      0x00\n        /* \"#utility.yul\":10395:10396   */\n      dup1\n        /* \"#utility.yul\":10388:10400   */\n      revert\n        /* \"#utility.yul\":10350:10402   */\n    tag_405:\n        /* \"#utility.yul\":10430:10439   */\n      dup2\n        /* \"#utility.yul\":10424:10440   */\n      mload\n        /* \"#utility.yul\":10449:10477   */\n      tag_248\n        /* \"#utility.yul\":10471:10476   */\n      dup2\n        /* \"#utility.yul\":10449:10477   */\n      tag_342\n      jump\t// in\n        /* \"#utility.yul\":10923:11140   */\n    tag_310:\n        /* \"#utility.yul\":10963:10964   */\n      0x00\n        /* \"#utility.yul\":10989:10990   */\n      dup3\n        /* \"#utility.yul\":10979:11111   */\n      tag_409\n      jumpi\n        /* \"#utility.yul\":11033:11043   */\n      0x4e487b71\n        /* \"#utility.yul\":11028:11031   */\n      0xe0\n        /* \"#utility.yul\":11024:11044   */\n      shl\n        /* \"#utility.yul\":11021:11022   */\n      0x00\n        /* \"#utility.yul\":11014:11045   */\n      mstore\n        /* \"#utility.yul\":11068:11072   */\n      0x12\n        /* \"#utility.yul\":11065:11066   */\n      0x04\n        /* \"#utility.yul\":11058:11073   */\n      mstore\n        /* \"#utility.yul\":11096:11100   */\n      0x24\n        /* \"#utility.yul\":11093:11094   */\n      0x00\n        /* \"#utility.yul\":11086:11101   */\n      revert\n        /* \"#utility.yul\":10979:11111   */\n    tag_409:\n      pop\n        /* \"#utility.yul\":11125:11134   */\n      div\n      swap1\n        /* \"#utility.yul\":10923:11140   */\n      jump\t// out\n        /* \"#utility.yul\":11145:11313   */\n    tag_313:\n        /* \"#utility.yul\":11185:11192   */\n      0x00\n        /* \"#utility.yul\":11251:11252   */\n      dup2\n        /* \"#utility.yul\":11247:11248   */\n      0x00\n        /* \"#utility.yul\":11243:11249   */\n      not\n        /* \"#utility.yul\":11239:11253   */\n      div\n        /* \"#utility.yul\":11236:11237   */\n      dup4\n        /* \"#utility.yul\":11233:11254   */\n      gt\n        /* \"#utility.yul\":11228:11229   */\n      dup3\n        /* \"#utility.yul\":11221:11230   */\n      iszero\n        /* \"#utility.yul\":11214:11231   */\n      iszero\n        /* \"#utility.yul\":11210:11255   */\n      and\n        /* \"#utility.yul\":11207:11278   */\n      iszero\n      tag_412\n      jumpi\n        /* \"#utility.yul\":11258:11276   */\n      tag_412\n      tag_345\n      jump\t// in\n    tag_412:\n      pop\n        /* \"#utility.yul\":11298:11307   */\n      mul\n      swap1\n        /* \"#utility.yul\":11145:11313   */\n      jump\t// out\n        /* \"#utility.yul\":12083:12341   */\n    tag_346:\n        /* \"#utility.yul\":12155:12156   */\n      0x00\n        /* \"#utility.yul\":12165:12278   */\n    tag_416:\n        /* \"#utility.yul\":12179:12185   */\n      dup4\n        /* \"#utility.yul\":12176:12177   */\n      dup2\n        /* \"#utility.yul\":12173:12186   */\n      lt\n        /* \"#utility.yul\":12165:12278   */\n      iszero\n      tag_418\n      jumpi\n        /* \"#utility.yul\":12255:12266   */\n      dup2\n      dup2\n      add\n        /* \"#utility.yul\":12249:12267   */\n      mload\n        /* \"#utility.yul\":12236:12247   */\n      dup4\n      dup3\n      add\n        /* \"#utility.yul\":12229:12268   */\n      mstore\n        /* \"#utility.yul\":12201:12203   */\n      0x20\n        /* \"#utility.yul\":12194:12204   */\n      add\n        /* \"#utility.yul\":12165:12278   */\n      jump(tag_416)\n    tag_418:\n        /* \"#utility.yul\":12296:12302   */\n      dup4\n        /* \"#utility.yul\":12293:12294   */\n      dup2\n        /* \"#utility.yul\":12290:12303   */\n      gt\n        /* \"#utility.yul\":12287:12335   */\n      iszero\n      tag_419\n      jumpi\n        /* \"#utility.yul\":12331:12332   */\n      0x00\n        /* \"#utility.yul\":12322:12328   */\n      dup5\n        /* \"#utility.yul\":12317:12320   */\n      dup5\n        /* \"#utility.yul\":12313:12329   */\n      add\n        /* \"#utility.yul\":12306:12333   */\n      mstore\n        /* \"#utility.yul\":12287:12335   */\n    tag_419:\n      pop\n        /* \"#utility.yul\":12083:12341   */\n      pop\n      pop\n      pop\n      jump\t// out\n        /* \"#utility.yul\":12346:12620   */\n    tag_327:\n        /* \"#utility.yul\":12475:12478   */\n      0x00\n        /* \"#utility.yul\":12513:12519   */\n      dup3\n        /* \"#utility.yul\":12507:12520   */\n      mload\n        /* \"#utility.yul\":12529:12582   */\n      tag_421\n        /* \"#utility.yul\":12575:12581   */\n      dup2\n        /* \"#utility.yul\":12570:12573   */\n      dup5\n        /* \"#utility.yul\":12563:12567   */\n      0x20\n        /* \"#utility.yul\":12555:12561   */\n      dup8\n        /* \"#utility.yul\":12551:12568   */\n      add\n        /* \"#utility.yul\":12529:12582   */\n      tag_346\n      jump\t// in\n    tag_421:\n        /* \"#utility.yul\":12598:12614   */\n      swap2\n      swap1\n      swap2\n      add\n      swap3\n        /* \"#utility.yul\":12346:12620   */\n      swap2\n      pop\n      pop\n      jump\t// out\n        /* \"#utility.yul\":12625:13008   */\n    tag_340:\n        /* \"#utility.yul\":12774:12776   */\n      0x20\n        /* \"#utility.yul\":12763:12772   */\n      dup2\n        /* \"#utility.yul\":12756:12777   */\n      mstore\n        /* \"#utility.yul\":12737:12741   */\n      0x00\n        /* \"#utility.yul\":12806:12812   */\n      dup3\n        /* \"#utility.yul\":12800:12813   */\n      mload\n        /* \"#utility.yul\":12849:12855   */\n      dup1\n        /* \"#utility.yul\":12844:12846   */\n      0x20\n        /* \"#utility.yul\":12833:12842   */\n      dup5\n        /* \"#utility.yul\":12829:12847   */\n      add\n        /* \"#utility.yul\":12822:12856   */\n      mstore\n        /* \"#utility.yul\":12865:12931   */\n      tag_423\n        /* \"#utility.yul\":12924:12930   */\n      dup2\n        /* \"#utility.yul\":12919:12921   */\n      0x40\n        /* \"#utility.yul\":12908:12917   */\n      dup6\n        /* \"#utility.yul\":12904:12922   */\n      add\n        /* \"#utility.yul\":12899:12901   */\n      0x20\n        /* \"#utility.yul\":12891:12897   */\n      dup8\n        /* \"#utility.yul\":12887:12902   */\n      add\n        /* \"#utility.yul\":12865:12931   */\n      tag_346\n      jump\t// in\n    tag_423:\n        /* \"#utility.yul\":12992:12994   */\n      0x1f\n        /* \"#utility.yul\":12971:12986   */\n      add\n      not(0x1f)\n        /* \"#utility.yul\":12967:12996   */\n      and\n        /* \"#utility.yul\":12952:12997   */\n      swap2\n      swap1\n      swap2\n      add\n        /* \"#utility.yul\":12999:13001   */\n      0x40\n        /* \"#utility.yul\":12948:13002   */\n      add\n      swap3\n        /* \"#utility.yul\":12625:13008   */\n      swap2\n      pop\n      pop\n      jump\t// out\n\n    auxdata: 0xa264697066735822122088088f7f32db7dc8a532390c916697a863d9d2300bc3d500541bb0908735e10f64736f6c63430008090033\n}\n",
				"bytecode": {
					"linkReferences": {},
					"object": "60a06040523480156200001157600080fd5b5060405162001b5f38038062001b5f8339810160408190526200003491620000b9565b6200003f3362000069565b600180556001600160a01b0381166200005757600080fd5b6001600160a01b0316608052620000eb565b600080546001600160a01b038381166001600160a01b0319831681178455604051919092169283917f8be0079c531659141344cd1fd0a4f28419497f9722a3daafe3b4186f6b6457e09190a35050565b600060208284031215620000cc57600080fd5b81516001600160a01b0381168114620000e457600080fd5b9392505050565b608051611a436200011c600039600081816101680152818161096401528181610c2d0152610dc00152611a436000f3fe60806040526004361061010c5760003560e01c80638af104da1161009a578063ea1bb3d511610061578063ea1bb3d514610300578063f2fde38b14610320578063f51321d714610340578063f7c469f014610360578063f9079b371461038057005b80638af104da1461026d5780638da5cb5b1461028d57806390be10cc146102ab5780639ef346b4146102c0578063b75c7dc6146102e057005b806348deb471116100de57806348deb471146101c05780635a7bb69a146101d557806366afd8ef1461020b578063715018a61461022b5780637e913dc61461024057005b8063130836171461011557806317e289e91461013957806321df0da7146101595780632e1a7d4d146101a057005b3661011357005b005b34801561012157600080fd5b506002545b6040519081526020015b60405180910390f35b34801561014557600080fd5b5061011361015436600461174a565b6103a0565b34801561016557600080fd5b507f00000000000000000000000000000000000000000000000000000000000000005b6040516001600160a01b039091168152602001610130565b3480156101ac57600080fd5b506101136101bb3660046117b1565b610811565b3480156101cc57600080fd5b50600454610126565b3480156101e157600080fd5b506101266101f03660046117ca565b6001600160a01b031660009081526005602052604090205490565b34801561021757600080fd5b506101136102263660046117e5565b610992565b34801561023757600080fd5b50610113610c62565b34801561024c57600080fd5b5061026061025b3660046117ca565b610c76565b6040516101309190611807565b34801561027957600080fd5b50610126610288366004611892565b610d4e565b34801561029957600080fd5b506000546001600160a01b0316610188565b3480156102b757600080fd5b50610126610d95565b3480156102cc57600080fd5b506102606102db3660046117b1565b610e45565b3480156102ec57600080fd5b506101136102fb3660046117b1565b610eec565b34801561030c57600080fd5b5061012661031b3660046117b1565b611093565b34801561032c57600080fd5b5061011361033b3660046117ca565b61117d565b34801561034c57600080fd5b5061026061035b366004611892565b6111f6565b34801561036c57600080fd5b5061012661037b3660046117ca565b611212565b34801561038c57600080fd5b5061012661039b3660046117b1565b61123c565b6103a86112c4565b80306001600160a01b03166390be10cc6040518163ffffffff1660e01b815260040160206040518083038186803b1580156103e257600080fd5b505afa1580156103f6573d6000803e3d6000fd5b505050506040513d601f19601f8201168201806040525081019061041a91906118bc565b10156104a65760405162461bcd60e51b815260206004820152604a60248201527f546f6b656e56657374696e673a2063616e6e6f7420637265617465207665737460448201527f696e67207363686564756c652062656361757365206e6f742073756666696369606482015269656e7420746f6b656e7360b01b608482015260a4015b60405180910390fd5b600084116105015760405162461bcd60e51b815260206004820152602260248201527f546f6b656e56657374696e673a206475726174696f6e206d757374206265203e604482015261020360f41b606482015260840161049d565b600081116105515760405162461bcd60e51b815260206004820181905260248201527f546f6b656e56657374696e673a20616d6f756e74206d757374206265203e2030604482015260640161049d565b60018310156105b85760405162461bcd60e51b815260206004820152602d60248201527f546f6b656e56657374696e673a20736c696365506572696f645365636f6e647360448201526c206d757374206265203e3d203160981b606482015260840161049d565b604051630f7c469f60e41b81526001600160a01b0388166004820152600090309063f7c469f09060240160206040518083038186803b1580156105fa57600080fd5b505afa15801561060e573d6000803e3d6000fd5b505050506040513d601f19601f8201168201806040525081019061063291906118bc565b90506000610640888861131e565b90506040518061014001604052806001151581526020018a6001600160a01b03168152602001828152602001898152602001878152602001868152602001851515815260200184815260200160008152602001600015158152506003600084815260200190815260200160002060008201518160000160006101000a81548160ff02191690831515021790555060208201518160000160016101000a8154816001600160a01b0302191690836001600160a01b0316021790555060408201518160010155606082015181600201556080820151816003015560a0820151816004015560c08201518160050160006101000a81548160ff02191690831515021790555060e0820151816006015561010082015181600701556101208201518160080160006101000a81548160ff0219169083151502179055509050506107908360045461131e90919063ffffffff16565b6004556002805460018181019092557f405787fa12a823e0f2b7631cc41b3ba8828b3321ca811111fa75cd3aa3bb5ace018390556001600160a01b038a16600090815260056020526040902054906107e990829061131e565b6001600160a01b03909a16600090815260056020526040902099909955505050505050505050565b600260015414156108645760405162461bcd60e51b815260206004820152601f60248201527f5265656e7472616e637947756172643a207265656e7472616e742063616c6c00604482015260640161049d565b60026001556108716112c4565b80306001600160a01b03166390be10cc6040518163ffffffff1660e01b815260040160206040518083038186803b1580156108ab57600080fd5b505afa1580156108bf573d6000803e3d6000fd5b505050506040513d601f19601f820116820180604052508101906108e391906118bc565b10156109455760405162461bcd60e51b815260206004820152602b60248201527f546f6b656e56657374696e673a206e6f7420656e6f756768207769746864726160448201526a7761626c652066756e647360a81b606482015260840161049d565b61098b61095a6000546001600160a01b031690565b6001600160a01b037f000000000000000000000000000000000000000000000000000000000000000016908361132a565b5060018055565b600260015414156109e55760405162461bcd60e51b815260206004820152601f60248201527f5265656e7472616e637947756172643a207265656e7472616e742063616c6c00604482015260640161049d565b60026001908155600083815260036020526040902054839160ff909116151514610a0e57600080fd5b60008181526003602052604090206008015460ff1615610a2d57600080fd5b6000838152600360205260408120805491549091336001600160a01b03610100909204821681149291909116148180610a635750805b610ae05760405162461bcd60e51b815260206004820152604260248201527f546f6b656e56657374696e673a206f6e6c792062656e6566696369617279206160448201527f6e64206f776e65722063616e2072656c656173652076657374656420746f6b656064820152616e7360f01b608482015260a40161049d565b6040805161014081018252845460ff808216151583526001600160a01b03610100928390041660208401526001870154938301939093526002860154606083015260038601546080830152600486015460a083015260058601548316151560c0830152600686015460e083015260078601549082015260088501549091161515610120820152600090610b7290611381565b905085811015610bea5760405162461bcd60e51b815260206004820152603d60248201527f546f6b656e56657374696e673a2063616e6e6f742072656c6561736520746f6b60448201527f656e732c206e6f7420656e6f7567682076657374656420746f6b656e73000000606482015260840161049d565b6007840154610bf9908761131e565b600785015583546004546101009091046001600160a01b031690610c1d9088611464565b600455610c546001600160a01b037f000000000000000000000000000000000000000000000000000000000000000016828961132a565b505060018055505050505050565b610c6a6112c4565b610c746000611470565b565b610c7e6116be565b6001600160a01b03821660009081526005602052604081205460039190610cad908590610288906001906118eb565b81526020808201929092526040908101600020815161014081018352815460ff808216151583526001600160a01b036101009283900416958301959095526001830154938201939093526002820154606082015260038201546080820152600482015460a082015260058201548416151560c0820152600682015460e082015260078201549281019290925260080154909116151561012082015292915050565b6040516bffffffffffffffffffffffff19606084901b1660208201526034810182905260009060540160405160208183030381529060405280519060200120905092915050565b600480546040516370a0823160e01b81523092810192909252600091610e4091906001600160a01b037f000000000000000000000000000000000000000000000000000000000000000016906370a082319060240160206040518083038186803b158015610e0257600080fd5b505afa158015610e16573d6000803e3d6000fd5b505050506040513d601f19601f82011682018060405250810190610e3a91906118bc565b90611464565b905090565b610e4d6116be565b50600090815260036020818152604092839020835161014081018552815460ff808216151583526001600160a01b0361010092839004169483019490945260018301549582019590955260028201546060820152928101546080840152600481015460a084015260058101548216151560c0840152600681015460e0840152600781015493830193909352600890920154909116151561012082015290565b610ef46112c4565b600081815260036020526040902054819060ff161515600114610f1657600080fd5b60008181526003602052604090206008015460ff1615610f3557600080fd5b6000828152600360205260409020600581015460ff161515600114610fab5760405162461bcd60e51b815260206004820152602660248201527f546f6b656e56657374696e673a2076657374696e67206973206e6f74207265766044820152656f6361626c6560d01b606482015260840161049d565b6040805161014081018252825460ff808216151583526001600160a01b03610100928390041660208401526001850154938301939093526002840154606083015260038401546080830152600484015460a083015260058401548316151560c0830152600684015460e08301526007840154908201526008830154909116151561012082015260009061103d90611381565b9050801561104f5761104f8482610992565b600061106c8360070154846006015461146490919063ffffffff16565b60045490915061107c9082611464565b6004555050600801805460ff191660011790555050565b600081815260036020526040812054829060ff1615156001146110b557600080fd5b60008181526003602052604090206008015460ff16156110d457600080fd5b600083815260036020818152604092839020835161014081018552815460ff808216151583526001600160a01b0361010092839004169483019490945260018301549582019590955260028201546060820152928101546080840152600481015460a084015260058101548216151560c0840152600681015460e0840152600781015493830193909352600883015416151561012082015261117590611381565b949350505050565b6111856112c4565b6001600160a01b0381166111ea5760405162461bcd60e51b815260206004820152602660248201527f4f776e61626c653a206e6577206f776e657220697320746865207a65726f206160448201526564647265737360d01b606482015260840161049d565b6111f381611470565b50565b6111fe6116be565b61120b6102db8484610d4e565b9392505050565b6001600160a01b038116600090815260056020526040812054611236908390610d4e565b92915050565b600061124760025490565b821061129f5760405162461bcd60e51b815260206004820152602160248201527f546f6b656e56657374696e673a20696e646578206f7574206f6620626f756e646044820152607360f81b606482015260840161049d565b600282815481106112b2576112b2611902565b90600052602060002001549050919050565b6000546001600160a01b03163314610c745760405162461bcd60e51b815260206004820181905260248201527f4f776e61626c653a2063616c6c6572206973206e6f7420746865206f776e6572604482015260640161049d565b600061120b8284611918565b604080516001600160a01b038416602482015260448082018490528251808303909101815260649091019091526020810180516001600160e01b031663a9059cbb60e01b17905261137c9084906114c0565b505050565b6040810151600090429081108061139f575061012083015115156001145b156113ad5750600092915050565b608083015160608401516113c09161131e565b81106113da5761010083015160e084015161120b91611464565b60006113f384606001518361146490919063ffffffff16565b60a085015190915060006114078383611592565b90506000611415828461159e565b9050600061143e8860800151611438848b60e0015161159e90919063ffffffff16565b90611592565b90506114588861010001518261146490919063ffffffff16565b98975050505050505050565b600061120b82846118eb565b600080546001600160a01b038381166001600160a01b0319831681178455604051919092169283917f8be0079c531659141344cd1fd0a4f28419497f9722a3daafe3b4186f6b6457e09190a35050565b6000611515826040518060400160405280602081526020017f5361666545524332303a206c6f772d6c6576656c2063616c6c206661696c6564815250856001600160a01b03166115aa9092919063ffffffff16565b80519091501561137c57808060200190518101906115339190611930565b61137c5760405162461bcd60e51b815260206004820152602a60248201527f5361666545524332303a204552433230206f7065726174696f6e20646964206e6044820152691bdd081cdd58d8d9595960b21b606482015260840161049d565b600061120b828461194d565b600061120b828461196f565b60606111758484600085856001600160a01b0385163b61160c5760405162461bcd60e51b815260206004820152601d60248201527f416464726573733a2063616c6c20746f206e6f6e2d636f6e7472616374000000604482015260640161049d565b600080866001600160a01b0316858760405161162891906119be565b60006040518083038185875af1925050503d8060008114611665576040519150601f19603f3d011682016040523d82523d6000602084013e61166a565b606091505b509150915061167a828286611685565b979650505050505050565b6060831561169457508161120b565b8251156116a45782518084602001fd5b8160405162461bcd60e51b815260040161049d91906119da565b60405180610140016040528060001515815260200160006001600160a01b031681526020016000815260200160008152602001600081526020016000815260200160001515815260200160008152602001600081526020016000151581525090565b80356001600160a01b038116811461173757600080fd5b919050565b80151581146111f357600080fd5b600080600080600080600060e0888a03121561176557600080fd5b61176e88611720565b96506020880135955060408801359450606088013593506080880135925060a088013561179a8161173c565b8092505060c0880135905092959891949750929550565b6000602082840312156117c357600080fd5b5035919050565b6000602082840312156117dc57600080fd5b61120b82611720565b600080604083850312156117f857600080fd5b50508035926020909101359150565b8151151581526101408101602083015161182c60208401826001600160a01b03169052565b5060408301516040830152606083015160608301526080830151608083015260a083015160a083015260c083015161186860c084018215159052565b5060e083810151908301526101008084015190830152610120928301511515929091019190915290565b600080604083850312156118a557600080fd5b6118ae83611720565b946020939093013593505050565b6000602082840312156118ce57600080fd5b5051919050565b634e487b7160e01b600052601160045260246000fd5b6000828210156118fd576118fd6118d5565b500390565b634e487b7160e01b600052603260045260246000fd5b6000821982111561192b5761192b6118d5565b500190565b60006020828403121561194257600080fd5b815161120b8161173c565b60008261196a57634e487b7160e01b600052601260045260246000fd5b500490565b6000816000190483118215151615611989576119896118d5565b500290565b60005b838110156119a9578181015183820152602001611991565b838111156119b8576000848401525b50505050565b600082516119d081846020870161198e565b9190910192915050565b60208152600082518060208401526119f981604085016020870161198e565b601f01601f1916919091016040019291505056fea264697066735822122088088f7f32db7dc8a532390c916697a863d9d2300bc3d500541bb0908735e10f64736f6c63430008090033",
					"opcodes": "PUSH1 0xA0 PUSH1 0x40 MSTORE CALLVALUE DUP1 ISZERO PUSH3 0x11 JUMPI PUSH1 0x0 DUP1 REVERT JUMPDEST POP PUSH1 0x40 MLOAD PUSH3 0x1B5F CODESIZE SUB DUP1 PUSH3 0x1B5F DUP4 CODECOPY DUP2 ADD PUSH1 0x40 DUP2 SWAP1 MSTORE PUSH3 0x34 SWAP2 PUSH3 0xB9 JUMP JUMPDEST PUSH3 0x3F CALLER PUSH3 0x69 JUMP JUMPDEST PUSH1 0x1 DUP1 SSTORE PUSH1 0x1 PUSH1 0x1 PUSH1 0xA0 SHL SUB DUP2 AND PUSH3 0x57 JUMPI PUSH1 0x0 DUP1 REVERT JUMPDEST PUSH1 0x1 PUSH1 0x1 PUSH1 0xA0 SHL SUB AND PUSH1 0x80 MSTORE PUSH3 0xEB JUMP JUMPDEST PUSH1 0x0 DUP1 SLOAD PUSH1 0x1 PUSH1 0x1 PUSH1 0xA0 SHL SUB DUP4 DUP2 AND PUSH1 0x1 PUSH1 0x1 PUSH1 0xA0 SHL SUB NOT DUP4 AND DUP2 OR DUP5 SSTORE PUSH1 0x40 MLOAD SWAP2 SWAP1 SWAP3 AND SWAP3 DUP4 SWAP2 PUSH32 0x8BE0079C531659141344CD1FD0A4F28419497F9722A3DAAFE3B4186F6B6457E0 SWAP2 SWAP1 LOG3 POP POP JUMP JUMPDEST PUSH1 0x0 PUSH1 0x20 DUP3 DUP5 SUB SLT ISZERO PUSH3 0xCC JUMPI PUSH1 0x0 DUP1 REVERT JUMPDEST DUP2 MLOAD PUSH1 0x1 PUSH1 0x1 PUSH1 0xA0 SHL SUB DUP2 AND DUP2 EQ PUSH3 0xE4 JUMPI PUSH1 0x0 DUP1 REVERT JUMPDEST SWAP4 SWAP3 POP POP POP JUMP JUMPDEST PUSH1 0x80 MLOAD PUSH2 0x1A43 PUSH3 0x11C PUSH1 0x0 CODECOPY PUSH1 0x0 DUP2 DUP2 PUSH2 0x168 ADD MSTORE DUP2 DUP2 PUSH2 0x964 ADD MSTORE DUP2 DUP2 PUSH2 0xC2D ADD MSTORE PUSH2 0xDC0 ADD MSTORE PUSH2 0x1A43 PUSH1 0x0 RETURN INVALID PUSH1 0x80 PUSH1 0x40 MSTORE PUSH1 0x4 CALLDATASIZE LT PUSH2 0x10C JUMPI PUSH1 0x0 CALLDATALOAD PUSH1 0xE0 SHR DUP1 PUSH4 0x8AF104DA GT PUSH2 0x9A JUMPI DUP1 PUSH4 0xEA1BB3D5 GT PUSH2 0x61 JUMPI DUP1 PUSH4 0xEA1BB3D5 EQ PUSH2 0x300 JUMPI DUP1 PUSH4 0xF2FDE38B EQ PUSH2 0x320 JUMPI DUP1 PUSH4 0xF51321D7 EQ PUSH2 0x340 JUMPI DUP1 PUSH4 0xF7C469F0 EQ PUSH2 0x360 JUMPI DUP1 PUSH4 0xF9079B37 EQ PUSH2 0x380 JUMPI STOP JUMPDEST DUP1 PUSH4 0x8AF104DA EQ PUSH2 0x26D JUMPI DUP1 PUSH4 0x8DA5CB5B EQ PUSH2 0x28D JUMPI DUP1 PUSH4 0x90BE10CC EQ PUSH2 0x2AB JUMPI DUP1 PUSH4 0x9EF346B4 EQ PUSH2 0x2C0 JUMPI DUP1 PUSH4 0xB75C7DC6 EQ PUSH2 0x2E0 JUMPI STOP JUMPDEST DUP1 PUSH4 0x48DEB471 GT PUSH2 0xDE JUMPI DUP1 PUSH4 0x48DEB471 EQ PUSH2 0x1C0 JUMPI DUP1 PUSH4 0x5A7BB69A EQ PUSH2 0x1D5 JUMPI DUP1 PUSH4 0x66AFD8EF EQ PUSH2 0x20B JUMPI DUP1 PUSH4 0x715018A6 EQ PUSH2 0x22B JUMPI DUP1 PUSH4 0x7E913DC6 EQ PUSH2 0x240 JUMPI STOP JUMPDEST DUP1 PUSH4 0x13083617 EQ PUSH2 0x115 JUMPI DUP1 PUSH4 0x17E289E9 EQ PUSH2 0x139 JUMPI DUP1 PUSH4 0x21DF0DA7 EQ PUSH2 0x159 JUMPI DUP1 PUSH4 0x2E1A7D4D EQ PUSH2 0x1A0 JUMPI STOP JUMPDEST CALLDATASIZE PUSH2 0x113 JUMPI STOP JUMPDEST STOP JUMPDEST CALLVALUE DUP1 ISZERO PUSH2 0x121 JUMPI PUSH1 0x0 DUP1 REVERT JUMPDEST POP PUSH1 0x2 SLOAD JUMPDEST PUSH1 0x40 MLOAD SWAP1 DUP2 MSTORE PUSH1 0x20 ADD JUMPDEST PUSH1 0x40 MLOAD DUP1 SWAP2 SUB SWAP1 RETURN JUMPDEST CALLVALUE DUP1 ISZERO PUSH2 0x145 JUMPI PUSH1 0x0 DUP1 REVERT JUMPDEST POP PUSH2 0x113 PUSH2 0x154 CALLDATASIZE PUSH1 0x4 PUSH2 0x174A JUMP JUMPDEST PUSH2 0x3A0 JUMP JUMPDEST CALLVALUE DUP1 ISZERO PUSH2 0x165 JUMPI PUSH1 0x0 DUP1 REVERT JUMPDEST POP PUSH32 0x0 JUMPDEST PUSH1 0x40 MLOAD PUSH1 0x1 PUSH1 0x1 PUSH1 0xA0 SHL SUB SWAP1 SWAP2 AND DUP2 MSTORE PUSH1 0x20 ADD PUSH2 0x130 JUMP JUMPDEST CALLVALUE DUP1 ISZERO PUSH2 0x1AC JUMPI PUSH1 0x0 DUP1 REVERT JUMPDEST POP PUSH2 0x113 PUSH2 0x1BB CALLDATASIZE PUSH1 0x4 PUSH2 0x17B1 JUMP JUMPDEST PUSH2 0x811 JUMP JUMPDEST CALLVALUE DUP1 ISZERO PUSH2 0x1CC JUMPI PUSH1 0x0 DUP1 REVERT JUMPDEST POP PUSH1 0x4 SLOAD PUSH2 0x126 JUMP JUMPDEST CALLVALUE DUP1 ISZERO PUSH2 0x1E1 JUMPI PUSH1 0x0 DUP1 REVERT JUMPDEST POP PUSH2 0x126 PUSH2 0x1F0 CALLDATASIZE PUSH1 0x4 PUSH2 0x17CA JUMP JUMPDEST PUSH1 0x1 PUSH1 0x1 PUSH1 0xA0 SHL SUB AND PUSH1 0x0 SWAP1 DUP2 MSTORE PUSH1 0x5 PUSH1 0x20 MSTORE PUSH1 0x40 SWAP1 KECCAK256 SLOAD SWAP1 JUMP JUMPDEST CALLVALUE DUP1 ISZERO PUSH2 0x217 JUMPI PUSH1 0x0 DUP1 REVERT JUMPDEST POP PUSH2 0x113 PUSH2 0x226 CALLDATASIZE PUSH1 0x4 PUSH2 0x17E5 JUMP JUMPDEST PUSH2 0x992 JUMP JUMPDEST CALLVALUE DUP1 ISZERO PUSH2 0x237 JUMPI PUSH1 0x0 DUP1 REVERT JUMPDEST POP PUSH2 0x113 PUSH2 0xC62 JUMP JUMPDEST CALLVALUE DUP1 ISZERO PUSH2 0x24C JUMPI PUSH1 0x0 DUP1 REVERT JUMPDEST POP PUSH2 0x260 PUSH2 0x25B CALLDATASIZE PUSH1 0x4 PUSH2 0x17CA JUMP JUMPDEST PUSH2 0xC76 JUMP JUMPDEST PUSH1 0x40 MLOAD PUSH2 0x130 SWAP2 SWAP1 PUSH2 0x1807 JUMP JUMPDEST CALLVALUE DUP1 ISZERO PUSH2 0x279 JUMPI PUSH1 0x0 DUP1 REVERT JUMPDEST POP PUSH2 0x126 PUSH2 0x288 CALLDATASIZE PUSH1 0x4 PUSH2 0x1892 JUMP JUMPDEST PUSH2 0xD4E JUMP JUMPDEST CALLVALUE DUP1 ISZERO PUSH2 0x299 JUMPI PUSH1 0x0 DUP1 REVERT JUMPDEST POP PUSH1 0x0 SLOAD PUSH1 0x1 PUSH1 0x1 PUSH1 0xA0 SHL SUB AND PUSH2 0x188 JUMP JUMPDEST CALLVALUE DUP1 ISZERO PUSH2 0x2B7 JUMPI PUSH1 0x0 DUP1 REVERT JUMPDEST POP PUSH2 0x126 PUSH2 0xD95 JUMP JUMPDEST CALLVALUE DUP1 ISZERO PUSH2 0x2CC JUMPI PUSH1 0x0 DUP1 REVERT JUMPDEST POP PUSH2 0x260 PUSH2 0x2DB CALLDATASIZE PUSH1 0x4 PUSH2 0x17B1 JUMP JUMPDEST PUSH2 0xE45 JUMP JUMPDEST CALLVALUE DUP1 ISZERO PUSH2 0x2EC JUMPI PUSH1 0x0 DUP1 REVERT JUMPDEST POP PUSH2 0x113 PUSH2 0x2FB CALLDATASIZE PUSH1 0x4 PUSH2 0x17B1 JUMP JUMPDEST PUSH2 0xEEC JUMP JUMPDEST CALLVALUE DUP1 ISZERO PUSH2 0x30C JUMPI PUSH1 0x0 DUP1 REVERT JUMPDEST POP PUSH2 0x126 PUSH2 0x31B CALLDATASIZE PUSH1 0x4 PUSH2 0x17B1 JUMP JUMPDEST PUSH2 0x1093 JUMP JUMPDEST CALLVALUE DUP1 ISZERO PUSH2 0x32C JUMPI PUSH1 0x0 DUP1 REVERT JUMPDEST POP PUSH2 0x113 PUSH2 0x33B CALLDATASIZE PUSH1 0x4 PUSH2 0x17CA JUMP JUMPDEST PUSH2 0x117D JUMP JUMPDEST CALLVALUE DUP1 ISZERO PUSH2 0x34C JUMPI PUSH1 0x0 DUP1 REVERT JUMPDEST POP PUSH2 0x260 PUSH2 0x35B CALLDATASIZE PUSH1 0x4 PUSH2 0x1892 JUMP JUMPDEST PUSH2 0x11F6 JUMP JUMPDEST CALLVALUE DUP1 ISZERO PUSH2 0x36C JUMPI PUSH1 0x0 DUP1 REVERT JUMPDEST POP PUSH2 0x126 PUSH2 0x37B CALLDATASIZE PUSH1 0x4 PUSH2 0x17CA JUMP JUMPDEST PUSH2 0x1212 JUMP JUMPDEST CALLVALUE DUP1 ISZERO PUSH2 0x38C JUMPI PUSH1 0x0 DUP1 REVERT JUMPDEST POP PUSH2 0x126 PUSH2 0x39B CALLDATASIZE PUSH1 0x4 PUSH2 0x17B1 JUMP JUMPDEST PUSH2 0x123C JUMP JUMPDEST PUSH2 0x3A8 PUSH2 0x12C4 JUMP JUMPDEST DUP1 ADDRESS PUSH1 0x1 PUSH1 0x1 PUSH1 0xA0 SHL SUB AND PUSH4 0x90BE10CC PUSH1 0x40 MLOAD DUP2 PUSH4 0xFFFFFFFF AND PUSH1 0xE0 SHL DUP2 MSTORE PUSH1 0x4 ADD PUSH1 0x20 PUSH1 0x40 MLOAD DUP1 DUP4 SUB DUP2 DUP7 DUP1 EXTCODESIZE ISZERO DUP1 ISZERO PUSH2 0x3E2 JUMPI PUSH1 0x0 DUP1 REVERT JUMPDEST POP GAS STATICCALL ISZERO DUP1 ISZERO PUSH2 0x3F6 JUMPI RETURNDATASIZE PUSH1 0x0 DUP1 RETURNDATACOPY RETURNDATASIZE PUSH1 0x0 REVERT JUMPDEST POP POP POP POP PUSH1 0x40 MLOAD RETURNDATASIZE PUSH1 0x1F NOT PUSH1 0x1F DUP3 ADD AND DUP3 ADD DUP1 PUSH1 0x40 MSTORE POP DUP2 ADD SWAP1 PUSH2 0x41A SWAP2 SWAP1 PUSH2 0x18BC JUMP JUMPDEST LT ISZERO PUSH2 0x4A6 JUMPI PUSH1 0x40 MLOAD PUSH3 0x461BCD PUSH1 0xE5 SHL DUP2 MSTORE PUSH1 0x20 PUSH1 0x4 DUP3 ADD MSTORE PUSH1 0x4A PUSH1 0x24 DUP3 ADD MSTORE PUSH32 0x546F6B656E56657374696E673A2063616E6E6F74206372656174652076657374 PUSH1 0x44 DUP3 ADD MSTORE PUSH32 0x696E67207363686564756C652062656361757365206E6F742073756666696369 PUSH1 0x64 DUP3 ADD MSTORE PUSH10 0x656E7420746F6B656E73 PUSH1 0xB0 SHL PUSH1 0x84 DUP3 ADD MSTORE PUSH1 0xA4 ADD JUMPDEST PUSH1 0x40 MLOAD DUP1 SWAP2 SUB SWAP1 REVERT JUMPDEST PUSH1 0x0 DUP5 GT PUSH2 0x501 JUMPI PUSH1 0x40 MLOAD PUSH3 0x461BCD PUSH1 0xE5 SHL DUP2 MSTORE PUSH1 0x20 PUSH1 0x4 DUP3 ADD MSTORE PUSH1 0x22 PUSH1 0x24 DUP3 ADD MSTORE PUSH32 0x546F6B656E56657374696E673A206475726174696F6E206D757374206265203E PUSH1 0x44 DUP3 ADD MSTORE PUSH2 0x203 PUSH1 0xF4 SHL PUSH1 0x64 DUP3 ADD MSTORE PUSH1 0x84 ADD PUSH2 0x49D JUMP JUMPDEST PUSH1 0x0 DUP2 GT PUSH2 0x551 JUMPI PUSH1 0x40 MLOAD PUSH3 0x461BCD PUSH1 0xE5 SHL DUP2 MSTORE PUSH1 0x20 PUSH1 0x4 DUP3 ADD DUP2 SWAP1 MSTORE PUSH1 0x24 DUP3 ADD MSTORE PUSH32 0x546F6B656E56657374696E673A20616D6F756E74206D757374206265203E2030 PUSH1 0x44 DUP3 ADD MSTORE PUSH1 0x64 ADD PUSH2 0x49D JUMP JUMPDEST PUSH1 0x1 DUP4 LT ISZERO PUSH2 0x5B8 JUMPI PUSH1 0x40 MLOAD PUSH3 0x461BCD PUSH1 0xE5 SHL DUP2 MSTORE PUSH1 0x20 PUSH1 0x4 DUP3 ADD MSTORE PUSH1 0x2D PUSH1 0x24 DUP3 ADD MSTORE PUSH32 0x546F6B656E56657374696E673A20736C696365506572696F645365636F6E6473 PUSH1 0x44 DUP3 ADD MSTORE PUSH13 0x206D757374206265203E3D2031 PUSH1 0x98 SHL PUSH1 0x64 DUP3 ADD MSTORE PUSH1 0x84 ADD PUSH2 0x49D JUMP JUMPDEST PUSH1 0x40 MLOAD PUSH4 0xF7C469F PUSH1 0xE4 SHL DUP2 MSTORE PUSH1 0x1 PUSH1 0x1 PUSH1 0xA0 SHL SUB DUP9 AND PUSH1 0x4 DUP3 ADD MSTORE PUSH1 0x0 SWAP1 ADDRESS SWAP1 PUSH4 0xF7C469F0 SWAP1 PUSH1 0x24 ADD PUSH1 0x20 PUSH1 0x40 MLOAD DUP1 DUP4 SUB DUP2 DUP7 DUP1 EXTCODESIZE ISZERO DUP1 ISZERO PUSH2 0x5FA JUMPI PUSH1 0x0 DUP1 REVERT JUMPDEST POP GAS STATICCALL ISZERO DUP1 ISZERO PUSH2 0x60E JUMPI RETURNDATASIZE PUSH1 0x0 DUP1 RETURNDATACOPY RETURNDATASIZE PUSH1 0x0 REVERT JUMPDEST POP POP POP POP PUSH1 0x40 MLOAD RETURNDATASIZE PUSH1 0x1F NOT PUSH1 0x1F DUP3 ADD AND DUP3 ADD DUP1 PUSH1 0x40 MSTORE POP DUP2 ADD SWAP1 PUSH2 0x632 SWAP2 SWAP1 PUSH2 0x18BC JUMP JUMPDEST SWAP1 POP PUSH1 0x0 PUSH2 0x640 DUP9 DUP9 PUSH2 0x131E JUMP JUMPDEST SWAP1 POP PUSH1 0x40 MLOAD DUP1 PUSH2 0x140 ADD PUSH1 0x40 MSTORE DUP1 PUSH1 0x1 ISZERO ISZERO DUP2 MSTORE PUSH1 0x20 ADD DUP11 PUSH1 0x1 PUSH1 0x1 PUSH1 0xA0 SHL SUB AND DUP2 MSTORE PUSH1 0x20 ADD DUP3 DUP2 MSTORE PUSH1 0x20 ADD DUP10 DUP2 MSTORE PUSH1 0x20 ADD DUP8 DUP2 MSTORE PUSH1 0x20 ADD DUP7 DUP2 MSTORE PUSH1 0x20 ADD DUP6 ISZERO ISZERO DUP2 MSTORE PUSH1 0x20 ADD DUP5 DUP2 MSTORE PUSH1 0x20 ADD PUSH1 0x0 DUP2 MSTORE PUSH1 0x20 ADD PUSH1 0x0 ISZERO ISZERO DUP2 MSTORE POP PUSH1 0x3 PUSH1 0x0 DUP5 DUP2 MSTORE PUSH1 0x20 ADD SWAP1 DUP2 MSTORE PUSH1 0x20 ADD PUSH1 0x0 KECCAK256 PUSH1 0x0 DUP3 ADD MLOAD DUP2 PUSH1 0x0 ADD PUSH1 0x0 PUSH2 0x100 EXP DUP2 SLOAD DUP2 PUSH1 0xFF MUL NOT AND SWAP1 DUP4 ISZERO ISZERO MUL OR SWAP1 SSTORE POP PUSH1 0x20 DUP3 ADD MLOAD DUP2 PUSH1 0x0 ADD PUSH1 0x1 PUSH2 0x100 EXP DUP2 SLOAD DUP2 PUSH1 0x1 PUSH1 0x1 PUSH1 0xA0 SHL SUB MUL NOT AND SWAP1 DUP4 PUSH1 0x1 PUSH1 0x1 PUSH1 0xA0 SHL SUB AND MUL OR SWAP1 SSTORE POP PUSH1 0x40 DUP3 ADD MLOAD DUP2 PUSH1 0x1 ADD SSTORE PUSH1 0x60 DUP3 ADD MLOAD DUP2 PUSH1 0x2 ADD SSTORE PUSH1 0x80 DUP3 ADD MLOAD DUP2 PUSH1 0x3 ADD SSTORE PUSH1 0xA0 DUP3 ADD MLOAD DUP2 PUSH1 0x4 ADD SSTORE PUSH1 0xC0 DUP3 ADD MLOAD DUP2 PUSH1 0x5 ADD PUSH1 0x0 PUSH2 0x100 EXP DUP2 SLOAD DUP2 PUSH1 0xFF MUL NOT AND SWAP1 DUP4 ISZERO ISZERO MUL OR SWAP1 SSTORE POP PUSH1 0xE0 DUP3 ADD MLOAD DUP2 PUSH1 0x6 ADD SSTORE PUSH2 0x100 DUP3 ADD MLOAD DUP2 PUSH1 0x7 ADD SSTORE PUSH2 0x120 DUP3 ADD MLOAD DUP2 PUSH1 0x8 ADD PUSH1 0x0 PUSH2 0x100 EXP DUP2 SLOAD DUP2 PUSH1 0xFF MUL NOT AND SWAP1 DUP4 ISZERO ISZERO MUL OR SWAP1 SSTORE POP SWAP1 POP POP PUSH2 0x790 DUP4 PUSH1 0x4 SLOAD PUSH2 0x131E SWAP1 SWAP2 SWAP1 PUSH4 0xFFFFFFFF AND JUMP JUMPDEST PUSH1 0x4 SSTORE PUSH1 0x2 DUP1 SLOAD PUSH1 0x1 DUP2 DUP2 ADD SWAP1 SWAP3 SSTORE PUSH32 0x405787FA12A823E0F2B7631CC41B3BA8828B3321CA811111FA75CD3AA3BB5ACE ADD DUP4 SWAP1 SSTORE PUSH1 0x1 PUSH1 0x1 PUSH1 0xA0 SHL SUB DUP11 AND PUSH1 0x0 SWAP1 DUP2 MSTORE PUSH1 0x5 PUSH1 0x20 MSTORE PUSH1 0x40 SWAP1 KECCAK256 SLOAD SWAP1 PUSH2 0x7E9 SWAP1 DUP3 SWAP1 PUSH2 0x131E JUMP JUMPDEST PUSH1 0x1 PUSH1 0x1 PUSH1 0xA0 SHL SUB SWAP1 SWAP11 AND PUSH1 0x0 SWAP1 DUP2 MSTORE PUSH1 0x5 PUSH1 0x20 MSTORE PUSH1 0x40 SWAP1 KECCAK256 SWAP10 SWAP1 SWAP10 SSTORE POP POP POP POP POP POP POP POP POP JUMP JUMPDEST PUSH1 0x2 PUSH1 0x1 SLOAD EQ ISZERO PUSH2 0x864 JUMPI PUSH1 0x40 MLOAD PUSH3 0x461BCD PUSH1 0xE5 SHL DUP2 MSTORE PUSH1 0x20 PUSH1 0x4 DUP3 ADD MSTORE PUSH1 0x1F PUSH1 0x24 DUP3 ADD MSTORE PUSH32 0x5265656E7472616E637947756172643A207265656E7472616E742063616C6C00 PUSH1 0x44 DUP3 ADD MSTORE PUSH1 0x64 ADD PUSH2 0x49D JUMP JUMPDEST PUSH1 0x2 PUSH1 0x1 SSTORE PUSH2 0x871 PUSH2 0x12C4 JUMP JUMPDEST DUP1 ADDRESS PUSH1 0x1 PUSH1 0x1 PUSH1 0xA0 SHL SUB AND PUSH4 0x90BE10CC PUSH1 0x40 MLOAD DUP2 PUSH4 0xFFFFFFFF AND PUSH1 0xE0 SHL DUP2 MSTORE PUSH1 0x4 ADD PUSH1 0x20 PUSH1 0x40 MLOAD DUP1 DUP4 SUB DUP2 DUP7 DUP1 EXTCODESIZE ISZERO DUP1 ISZERO PUSH2 0x8AB JUMPI PUSH1 0x0 DUP1 REVERT JUMPDEST POP GAS STATICCALL ISZERO DUP1 ISZERO PUSH2 0x8BF JUMPI RETURNDATASIZE PUSH1 0x0 DUP1 RETURNDATACOPY RETURNDATASIZE PUSH1 0x0 REVERT JUMPDEST POP POP POP POP PUSH1 0x40 MLOAD RETURNDATASIZE PUSH1 0x1F NOT PUSH1 0x1F DUP3 ADD AND DUP3 ADD DUP1 PUSH1 0x40 MSTORE POP DUP2 ADD SWAP1 PUSH2 0x8E3 SWAP2 SWAP1 PUSH2 0x18BC JUMP JUMPDEST LT ISZERO PUSH2 0x945 JUMPI PUSH1 0x40 MLOAD PUSH3 0x461BCD PUSH1 0xE5 SHL DUP2 MSTORE PUSH1 0x20 PUSH1 0x4 DUP3 ADD MSTORE PUSH1 0x2B PUSH1 0x24 DUP3 ADD MSTORE PUSH32 0x546F6B656E56657374696E673A206E6F7420656E6F7567682077697468647261 PUSH1 0x44 DUP3 ADD MSTORE PUSH11 0x7761626C652066756E6473 PUSH1 0xA8 SHL PUSH1 0x64 DUP3 ADD MSTORE PUSH1 0x84 ADD PUSH2 0x49D JUMP JUMPDEST PUSH2 0x98B PUSH2 0x95A PUSH1 0x0 SLOAD PUSH1 0x1 PUSH1 0x1 PUSH1 0xA0 SHL SUB AND SWAP1 JUMP JUMPDEST PUSH1 0x1 PUSH1 0x1 PUSH1 0xA0 SHL SUB PUSH32 0x0 AND SWAP1 DUP4 PUSH2 0x132A JUMP JUMPDEST POP PUSH1 0x1 DUP1 SSTORE JUMP JUMPDEST PUSH1 0x2 PUSH1 0x1 SLOAD EQ ISZERO PUSH2 0x9E5 JUMPI PUSH1 0x40 MLOAD PUSH3 0x461BCD PUSH1 0xE5 SHL DUP2 MSTORE PUSH1 0x20 PUSH1 0x4 DUP3 ADD MSTORE PUSH1 0x1F PUSH1 0x24 DUP3 ADD MSTORE PUSH32 0x5265656E7472616E637947756172643A207265656E7472616E742063616C6C00 PUSH1 0x44 DUP3 ADD MSTORE PUSH1 0x64 ADD PUSH2 0x49D JUMP JUMPDEST PUSH1 0x2 PUSH1 0x1 SWAP1 DUP2 SSTORE PUSH1 0x0 DUP4 DUP2 MSTORE PUSH1 0x3 PUSH1 0x20 MSTORE PUSH1 0x40 SWAP1 KECCAK256 SLOAD DUP4 SWAP2 PUSH1 0xFF SWAP1 SWAP2 AND ISZERO ISZERO EQ PUSH2 0xA0E JUMPI PUSH1 0x0 DUP1 REVERT JUMPDEST PUSH1 0x0 DUP2 DUP2 MSTORE PUSH1 0x3 PUSH1 0x20 MSTORE PUSH1 0x40 SWAP1 KECCAK256 PUSH1 0x8 ADD SLOAD PUSH1 0xFF AND ISZERO PUSH2 0xA2D JUMPI PUSH1 0x0 DUP1 REVERT JUMPDEST PUSH1 0x0 DUP4 DUP2 MSTORE PUSH1 0x3 PUSH1 0x20 MSTORE PUSH1 0x40 DUP2 KECCAK256 DUP1 SLOAD SWAP2 SLOAD SWAP1 SWAP2 CALLER PUSH1 0x1 PUSH1 0x1 PUSH1 0xA0 SHL SUB PUSH2 0x100 SWAP1 SWAP3 DIV DUP3 AND DUP2 EQ SWAP3 SWAP2 SWAP1 SWAP2 AND EQ DUP2 DUP1 PUSH2 0xA63 JUMPI POP DUP1 JUMPDEST PUSH2 0xAE0 JUMPI PUSH1 0x40 MLOAD PUSH3 0x461BCD PUSH1 0xE5 SHL DUP2 MSTORE PUSH1 0x20 PUSH1 0x4 DUP3 ADD MSTORE PUSH1 0x42 PUSH1 0x24 DUP3 ADD MSTORE PUSH32 0x546F6B656E56657374696E673A206F6E6C792062656E65666963696172792061 PUSH1 0x44 DUP3 ADD MSTORE PUSH32 0x6E64206F776E65722063616E2072656C656173652076657374656420746F6B65 PUSH1 0x64 DUP3 ADD MSTORE PUSH2 0x6E73 PUSH1 0xF0 SHL PUSH1 0x84 DUP3 ADD MSTORE PUSH1 0xA4 ADD PUSH2 0x49D JUMP JUMPDEST PUSH1 0x40 DUP1 MLOAD PUSH2 0x140 DUP2 ADD DUP3 MSTORE DUP5 SLOAD PUSH1 0xFF DUP1 DUP3 AND ISZERO ISZERO DUP4 MSTORE PUSH1 0x1 PUSH1 0x1 PUSH1 0xA0 SHL SUB PUSH2 0x100 SWAP3 DUP4 SWAP1 DIV AND PUSH1 0x20 DUP5 ADD MSTORE PUSH1 0x1 DUP8 ADD SLOAD SWAP4 DUP4 ADD SWAP4 SWAP1 SWAP4 MSTORE PUSH1 0x2 DUP7 ADD SLOAD PUSH1 0x60 DUP4 ADD MSTORE PUSH1 0x3 DUP7 ADD SLOAD PUSH1 0x80 DUP4 ADD MSTORE PUSH1 0x4 DUP7 ADD SLOAD PUSH1 0xA0 DUP4 ADD MSTORE PUSH1 0x5 DUP7 ADD SLOAD DUP4 AND ISZERO ISZERO PUSH1 0xC0 DUP4 ADD MSTORE PUSH1 0x6 DUP7 ADD SLOAD PUSH1 0xE0 DUP4 ADD MSTORE PUSH1 0x7 DUP7 ADD SLOAD SWAP1 DUP3 ADD MSTORE PUSH1 0x8 DUP6 ADD SLOAD SWAP1 SWAP2 AND ISZERO ISZERO PUSH2 0x120 DUP3 ADD MSTORE PUSH1 0x0 SWAP1 PUSH2 0xB72 SWAP1 PUSH2 0x1381 JUMP JUMPDEST SWAP1 POP DUP6 DUP2 LT ISZERO PUSH2 0xBEA JUMPI PUSH1 0x40 MLOAD PUSH3 0x461BCD PUSH1 0xE5 SHL DUP2 MSTORE PUSH1 0x20 PUSH1 0x4 DUP3 ADD MSTORE PUSH1 0x3D PUSH1 0x24 DUP3 ADD MSTORE PUSH32 0x546F6B656E56657374696E673A2063616E6E6F742072656C6561736520746F6B PUSH1 0x44 DUP3 ADD MSTORE PUSH32 0x656E732C206E6F7420656E6F7567682076657374656420746F6B656E73000000 PUSH1 0x64 DUP3 ADD MSTORE PUSH1 0x84 ADD PUSH2 0x49D JUMP JUMPDEST PUSH1 0x7 DUP5 ADD SLOAD PUSH2 0xBF9 SWAP1 DUP8 PUSH2 0x131E JUMP JUMPDEST PUSH1 0x7 DUP6 ADD SSTORE DUP4 SLOAD PUSH1 0x4 SLOAD PUSH2 0x100 SWAP1 SWAP2 DIV PUSH1 0x1 PUSH1 0x1 PUSH1 0xA0 SHL SUB AND SWAP1 PUSH2 0xC1D SWAP1 DUP9 PUSH2 0x1464 JUMP JUMPDEST PUSH1 0x4 SSTORE PUSH2 0xC54 PUSH1 0x1 PUSH1 0x1 PUSH1 0xA0 SHL SUB PUSH32 0x0 AND DUP3 DUP10 PUSH2 0x132A JUMP JUMPDEST POP POP PUSH1 0x1 DUP1 SSTORE POP POP POP POP POP POP JUMP JUMPDEST PUSH2 0xC6A PUSH2 0x12C4 JUMP JUMPDEST PUSH2 0xC74 PUSH1 0x0 PUSH2 0x1470 JUMP JUMPDEST JUMP JUMPDEST PUSH2 0xC7E PUSH2 0x16BE JUMP JUMPDEST PUSH1 0x1 PUSH1 0x1 PUSH1 0xA0 SHL SUB DUP3 AND PUSH1 0x0 SWAP1 DUP2 MSTORE PUSH1 0x5 PUSH1 0x20 MSTORE PUSH1 0x40 DUP2 KECCAK256 SLOAD PUSH1 0x3 SWAP2 SWAP1 PUSH2 0xCAD SWAP1 DUP6 SWAP1 PUSH2 0x288 SWAP1 PUSH1 0x1 SWAP1 PUSH2 0x18EB JUMP JUMPDEST DUP2 MSTORE PUSH1 0x20 DUP1 DUP3 ADD SWAP3 SWAP1 SWAP3 MSTORE PUSH1 0x40 SWAP1 DUP2 ADD PUSH1 0x0 KECCAK256 DUP2 MLOAD PUSH2 0x140 DUP2 ADD DUP4 MSTORE DUP2 SLOAD PUSH1 0xFF DUP1 DUP3 AND ISZERO ISZERO DUP4 MSTORE PUSH1 0x1 PUSH1 0x1 PUSH1 0xA0 SHL SUB PUSH2 0x100 SWAP3 DUP4 SWAP1 DIV AND SWAP6 DUP4 ADD SWAP6 SWAP1 SWAP6 MSTORE PUSH1 0x1 DUP4 ADD SLOAD SWAP4 DUP3 ADD SWAP4 SWAP1 SWAP4 MSTORE PUSH1 0x2 DUP3 ADD SLOAD PUSH1 0x60 DUP3 ADD MSTORE PUSH1 0x3 DUP3 ADD SLOAD PUSH1 0x80 DUP3 ADD MSTORE PUSH1 0x4 DUP3 ADD SLOAD PUSH1 0xA0 DUP3 ADD MSTORE PUSH1 0x5 DUP3 ADD SLOAD DUP5 AND ISZERO ISZERO PUSH1 0xC0 DUP3 ADD MSTORE PUSH1 0x6 DUP3 ADD SLOAD PUSH1 0xE0 DUP3 ADD MSTORE PUSH1 0x7 DUP3 ADD SLOAD SWAP3 DUP2 ADD SWAP3 SWAP1 SWAP3 MSTORE PUSH1 0x8 ADD SLOAD SWAP1 SWAP2 AND ISZERO ISZERO PUSH2 0x120 DUP3 ADD MSTORE SWAP3 SWAP2 POP POP JUMP JUMPDEST PUSH1 0x40 MLOAD PUSH12 0xFFFFFFFFFFFFFFFFFFFFFFFF NOT PUSH1 0x60 DUP5 SWAP1 SHL AND PUSH1 0x20 DUP3 ADD MSTORE PUSH1 0x34 DUP2 ADD DUP3 SWAP1 MSTORE PUSH1 0x0 SWAP1 PUSH1 0x54 ADD PUSH1 0x40 MLOAD PUSH1 0x20 DUP2 DUP4 SUB SUB DUP2 MSTORE SWAP1 PUSH1 0x40 MSTORE DUP1 MLOAD SWAP1 PUSH1 0x20 ADD KECCAK256 SWAP1 POP SWAP3 SWAP2 POP POP JUMP JUMPDEST PUSH1 0x4 DUP1 SLOAD PUSH1 0x40 MLOAD PUSH4 0x70A08231 PUSH1 0xE0 SHL DUP2 MSTORE ADDRESS SWAP3 DUP2 ADD SWAP3 SWAP1 SWAP3 MSTORE PUSH1 0x0 SWAP2 PUSH2 0xE40 SWAP2 SWAP1 PUSH1 0x1 PUSH1 0x1 PUSH1 0xA0 SHL SUB PUSH32 0x0 AND SWAP1 PUSH4 0x70A08231 SWAP1 PUSH1 0x24 ADD PUSH1 0x20 PUSH1 0x40 MLOAD DUP1 DUP4 SUB DUP2 DUP7 DUP1 EXTCODESIZE ISZERO DUP1 ISZERO PUSH2 0xE02 JUMPI PUSH1 0x0 DUP1 REVERT JUMPDEST POP GAS STATICCALL ISZERO DUP1 ISZERO PUSH2 0xE16 JUMPI RETURNDATASIZE PUSH1 0x0 DUP1 RETURNDATACOPY RETURNDATASIZE PUSH1 0x0 REVERT JUMPDEST POP POP POP POP PUSH1 0x40 MLOAD RETURNDATASIZE PUSH1 0x1F NOT PUSH1 0x1F DUP3 ADD AND DUP3 ADD DUP1 PUSH1 0x40 MSTORE POP DUP2 ADD SWAP1 PUSH2 0xE3A SWAP2 SWAP1 PUSH2 0x18BC JUMP JUMPDEST SWAP1 PUSH2 0x1464 JUMP JUMPDEST SWAP1 POP SWAP1 JUMP JUMPDEST PUSH2 0xE4D PUSH2 0x16BE JUMP JUMPDEST POP PUSH1 0x0 SWAP1 DUP2 MSTORE PUSH1 0x3 PUSH1 0x20 DUP2 DUP2 MSTORE PUSH1 0x40 SWAP3 DUP4 SWAP1 KECCAK256 DUP4 MLOAD PUSH2 0x140 DUP2 ADD DUP6 MSTORE DUP2 SLOAD PUSH1 0xFF DUP1 DUP3 AND ISZERO ISZERO DUP4 MSTORE PUSH1 0x1 PUSH1 0x1 PUSH1 0xA0 SHL SUB PUSH2 0x100 SWAP3 DUP4 SWAP1 DIV AND SWAP5 DUP4 ADD SWAP5 SWAP1 SWAP5 MSTORE PUSH1 0x1 DUP4 ADD SLOAD SWAP6 DUP3 ADD SWAP6 SWAP1 SWAP6 MSTORE PUSH1 0x2 DUP3 ADD SLOAD PUSH1 0x60 DUP3 ADD MSTORE SWAP3 DUP2 ADD SLOAD PUSH1 0x80 DUP5 ADD MSTORE PUSH1 0x4 DUP2 ADD SLOAD PUSH1 0xA0 DUP5 ADD MSTORE PUSH1 0x5 DUP2 ADD SLOAD DUP3 AND ISZERO ISZERO PUSH1 0xC0 DUP5 ADD MSTORE PUSH1 0x6 DUP2 ADD SLOAD PUSH1 0xE0 DUP5 ADD MSTORE PUSH1 0x7 DUP2 ADD SLOAD SWAP4 DUP4 ADD SWAP4 SWAP1 SWAP4 MSTORE PUSH1 0x8 SWAP1 SWAP3 ADD SLOAD SWAP1 SWAP2 AND ISZERO ISZERO PUSH2 0x120 DUP3 ADD MSTORE SWAP1 JUMP JUMPDEST PUSH2 0xEF4 PUSH2 0x12C4 JUMP JUMPDEST PUSH1 0x0 DUP2 DUP2 MSTORE PUSH1 0x3 PUSH1 0x20 MSTORE PUSH1 0x40 SWAP1 KECCAK256 SLOAD DUP2 SWAP1 PUSH1 0xFF AND ISZERO ISZERO PUSH1 0x1 EQ PUSH2 0xF16 JUMPI PUSH1 0x0 DUP1 REVERT JUMPDEST PUSH1 0x0 DUP2 DUP2 MSTORE PUSH1 0x3 PUSH1 0x20 MSTORE PUSH1 0x40 SWAP1 KECCAK256 PUSH1 0x8 ADD SLOAD PUSH1 0xFF AND ISZERO PUSH2 0xF35 JUMPI PUSH1 0x0 DUP1 REVERT JUMPDEST PUSH1 0x0 DUP3 DUP2 MSTORE PUSH1 0x3 PUSH1 0x20 MSTORE PUSH1 0x40 SWAP1 KECCAK256 PUSH1 0x5 DUP2 ADD SLOAD PUSH1 0xFF AND ISZERO ISZERO PUSH1 0x1 EQ PUSH2 0xFAB JUMPI PUSH1 0x40 MLOAD PUSH3 0x461BCD PUSH1 0xE5 SHL DUP2 MSTORE PUSH1 0x20 PUSH1 0x4 DUP3 ADD MSTORE PUSH1 0x26 PUSH1 0x24 DUP3 ADD MSTORE PUSH32 0x546F6B656E56657374696E673A2076657374696E67206973206E6F7420726576 PUSH1 0x44 DUP3 ADD MSTORE PUSH6 0x6F6361626C65 PUSH1 0xD0 SHL PUSH1 0x64 DUP3 ADD MSTORE PUSH1 0x84 ADD PUSH2 0x49D JUMP JUMPDEST PUSH1 0x40 DUP1 MLOAD PUSH2 0x140 DUP2 ADD DUP3 MSTORE DUP3 SLOAD PUSH1 0xFF DUP1 DUP3 AND ISZERO ISZERO DUP4 MSTORE PUSH1 0x1 PUSH1 0x1 PUSH1 0xA0 SHL SUB PUSH2 0x100 SWAP3 DUP4 SWAP1 DIV AND PUSH1 0x20 DUP5 ADD MSTORE PUSH1 0x1 DUP6 ADD SLOAD SWAP4 DUP4 ADD SWAP4 SWAP1 SWAP4 MSTORE PUSH1 0x2 DUP5 ADD SLOAD PUSH1 0x60 DUP4 ADD MSTORE PUSH1 0x3 DUP5 ADD SLOAD PUSH1 0x80 DUP4 ADD MSTORE PUSH1 0x4 DUP5 ADD SLOAD PUSH1 0xA0 DUP4 ADD MSTORE PUSH1 0x5 DUP5 ADD SLOAD DUP4 AND ISZERO ISZERO PUSH1 0xC0 DUP4 ADD MSTORE PUSH1 0x6 DUP5 ADD SLOAD PUSH1 0xE0 DUP4 ADD MSTORE PUSH1 0x7 DUP5 ADD SLOAD SWAP1 DUP3 ADD MSTORE PUSH1 0x8 DUP4 ADD SLOAD SWAP1 SWAP2 AND ISZERO ISZERO PUSH2 0x120 DUP3 ADD MSTORE PUSH1 0x0 SWAP1 PUSH2 0x103D SWAP1 PUSH2 0x1381 JUMP JUMPDEST SWAP1 POP DUP1 ISZERO PUSH2 0x104F JUMPI PUSH2 0x104F DUP5 DUP3 PUSH2 0x992 JUMP JUMPDEST PUSH1 0x0 PUSH2 0x106C DUP4 PUSH1 0x7 ADD SLOAD DUP5 PUSH1 0x6 ADD SLOAD PUSH2 0x1464 SWAP1 SWAP2 SWAP1 PUSH4 0xFFFFFFFF AND JUMP JUMPDEST PUSH1 0x4 SLOAD SWAP1 SWAP2 POP PUSH2 0x107C SWAP1 DUP3 PUSH2 0x1464 JUMP JUMPDEST PUSH1 0x4 SSTORE POP POP PUSH1 0x8 ADD DUP1 SLOAD PUSH1 0xFF NOT AND PUSH1 0x1 OR SWAP1 SSTORE POP POP JUMP JUMPDEST PUSH1 0x0 DUP2 DUP2 MSTORE PUSH1 0x3 PUSH1 0x20 MSTORE PUSH1 0x40 DUP2 KECCAK256 SLOAD DUP3 SWAP1 PUSH1 0xFF AND ISZERO ISZERO PUSH1 0x1 EQ PUSH2 0x10B5 JUMPI PUSH1 0x0 DUP1 REVERT JUMPDEST PUSH1 0x0 DUP2 DUP2 MSTORE PUSH1 0x3 PUSH1 0x20 MSTORE PUSH1 0x40 SWAP1 KECCAK256 PUSH1 0x8 ADD SLOAD PUSH1 0xFF AND ISZERO PUSH2 0x10D4 JUMPI PUSH1 0x0 DUP1 REVERT JUMPDEST PUSH1 0x0 DUP4 DUP2 MSTORE PUSH1 0x3 PUSH1 0x20 DUP2 DUP2 MSTORE PUSH1 0x40 SWAP3 DUP4 SWAP1 KECCAK256 DUP4 MLOAD PUSH2 0x140 DUP2 ADD DUP6 MSTORE DUP2 SLOAD PUSH1 0xFF DUP1 DUP3 AND ISZERO ISZERO DUP4 MSTORE PUSH1 0x1 PUSH1 0x1 PUSH1 0xA0 SHL SUB PUSH2 0x100 SWAP3 DUP4 SWAP1 DIV AND SWAP5 DUP4 ADD SWAP5 SWAP1 SWAP5 MSTORE PUSH1 0x1 DUP4 ADD SLOAD SWAP6 DUP3 ADD SWAP6 SWAP1 SWAP6 MSTORE PUSH1 0x2 DUP3 ADD SLOAD PUSH1 0x60 DUP3 ADD MSTORE SWAP3 DUP2 ADD SLOAD PUSH1 0x80 DUP5 ADD MSTORE PUSH1 0x4 DUP2 ADD SLOAD PUSH1 0xA0 DUP5 ADD MSTORE PUSH1 0x5 DUP2 ADD SLOAD DUP3 AND ISZERO ISZERO PUSH1 0xC0 DUP5 ADD MSTORE PUSH1 0x6 DUP2 ADD SLOAD PUSH1 0xE0 DUP5 ADD MSTORE PUSH1 0x7 DUP2 ADD SLOAD SWAP4 DUP4 ADD SWAP4 SWAP1 SWAP4 MSTORE PUSH1 0x8 DUP4 ADD SLOAD AND ISZERO ISZERO PUSH2 0x120 DUP3 ADD MSTORE PUSH2 0x1175 SWAP1 PUSH2 0x1381 JUMP JUMPDEST SWAP5 SWAP4 POP POP POP POP JUMP JUMPDEST PUSH2 0x1185 PUSH2 0x12C4 JUMP JUMPDEST PUSH1 0x1 PUSH1 0x1 PUSH1 0xA0 SHL SUB DUP2 AND PUSH2 0x11EA JUMPI PUSH1 0x40 MLOAD PUSH3 0x461BCD PUSH1 0xE5 SHL DUP2 MSTORE PUSH1 0x20 PUSH1 0x4 DUP3 ADD MSTORE PUSH1 0x26 PUSH1 0x24 DUP3 ADD MSTORE PUSH32 0x4F776E61626C653A206E6577206F776E657220697320746865207A65726F2061 PUSH1 0x44 DUP3 ADD MSTORE PUSH6 0x646472657373 PUSH1 0xD0 SHL PUSH1 0x64 DUP3 ADD MSTORE PUSH1 0x84 ADD PUSH2 0x49D JUMP JUMPDEST PUSH2 0x11F3 DUP2 PUSH2 0x1470 JUMP JUMPDEST POP JUMP JUMPDEST PUSH2 0x11FE PUSH2 0x16BE JUMP JUMPDEST PUSH2 0x120B PUSH2 0x2DB DUP5 DUP5 PUSH2 0xD4E JUMP JUMPDEST SWAP4 SWAP3 POP POP POP JUMP JUMPDEST PUSH1 0x1 PUSH1 0x1 PUSH1 0xA0 SHL SUB DUP2 AND PUSH1 0x0 SWAP1 DUP2 MSTORE PUSH1 0x5 PUSH1 0x20 MSTORE PUSH1 0x40 DUP2 KECCAK256 SLOAD PUSH2 0x1236 SWAP1 DUP4 SWAP1 PUSH2 0xD4E JUMP JUMPDEST SWAP3 SWAP2 POP POP JUMP JUMPDEST PUSH1 0x0 PUSH2 0x1247 PUSH1 0x2 SLOAD SWAP1 JUMP JUMPDEST DUP3 LT PUSH2 0x129F JUMPI PUSH1 0x40 MLOAD PUSH3 0x461BCD PUSH1 0xE5 SHL DUP2 MSTORE PUSH1 0x20 PUSH1 0x4 DUP3 ADD MSTORE PUSH1 0x21 PUSH1 0x24 DUP3 ADD MSTORE PUSH32 0x546F6B656E56657374696E673A20696E646578206F7574206F6620626F756E64 PUSH1 0x44 DUP3 ADD MSTORE PUSH1 0x73 PUSH1 0xF8 SHL PUSH1 0x64 DUP3 ADD MSTORE PUSH1 0x84 ADD PUSH2 0x49D JUMP JUMPDEST PUSH1 0x2 DUP3 DUP2 SLOAD DUP2 LT PUSH2 0x12B2 JUMPI PUSH2 0x12B2 PUSH2 0x1902 JUMP JUMPDEST SWAP1 PUSH1 0x0 MSTORE PUSH1 0x20 PUSH1 0x0 KECCAK256 ADD SLOAD SWAP1 POP SWAP2 SWAP1 POP JUMP JUMPDEST PUSH1 0x0 SLOAD PUSH1 0x1 PUSH1 0x1 PUSH1 0xA0 SHL SUB AND CALLER EQ PUSH2 0xC74 JUMPI PUSH1 0x40 MLOAD PUSH3 0x461BCD PUSH1 0xE5 SHL DUP2 MSTORE PUSH1 0x20 PUSH1 0x4 DUP3 ADD DUP2 SWAP1 MSTORE PUSH1 0x24 DUP3 ADD MSTORE PUSH32 0x4F776E61626C653A2063616C6C6572206973206E6F7420746865206F776E6572 PUSH1 0x44 DUP3 ADD MSTORE PUSH1 0x64 ADD PUSH2 0x49D JUMP JUMPDEST PUSH1 0x0 PUSH2 0x120B DUP3 DUP5 PUSH2 0x1918 JUMP JUMPDEST PUSH1 0x40 DUP1 MLOAD PUSH1 0x1 PUSH1 0x1 PUSH1 0xA0 SHL SUB DUP5 AND PUSH1 0x24 DUP3 ADD MSTORE PUSH1 0x44 DUP1 DUP3 ADD DUP5 SWAP1 MSTORE DUP3 MLOAD DUP1 DUP4 SUB SWAP1 SWAP2 ADD DUP2 MSTORE PUSH1 0x64 SWAP1 SWAP2 ADD SWAP1 SWAP2 MSTORE PUSH1 0x20 DUP2 ADD DUP1 MLOAD PUSH1 0x1 PUSH1 0x1 PUSH1 0xE0 SHL SUB AND PUSH4 0xA9059CBB PUSH1 0xE0 SHL OR SWAP1 MSTORE PUSH2 0x137C SWAP1 DUP5 SWAP1 PUSH2 0x14C0 JUMP JUMPDEST POP POP POP JUMP JUMPDEST PUSH1 0x40 DUP2 ADD MLOAD PUSH1 0x0 SWAP1 TIMESTAMP SWAP1 DUP2 LT DUP1 PUSH2 0x139F JUMPI POP PUSH2 0x120 DUP4 ADD MLOAD ISZERO ISZERO PUSH1 0x1 EQ JUMPDEST ISZERO PUSH2 0x13AD JUMPI POP PUSH1 0x0 SWAP3 SWAP2 POP POP JUMP JUMPDEST PUSH1 0x80 DUP4 ADD MLOAD PUSH1 0x60 DUP5 ADD MLOAD PUSH2 0x13C0 SWAP2 PUSH2 0x131E JUMP JUMPDEST DUP2 LT PUSH2 0x13DA JUMPI PUSH2 0x100 DUP4 ADD MLOAD PUSH1 0xE0 DUP5 ADD MLOAD PUSH2 0x120B SWAP2 PUSH2 0x1464 JUMP JUMPDEST PUSH1 0x0 PUSH2 0x13F3 DUP5 PUSH1 0x60 ADD MLOAD DUP4 PUSH2 0x1464 SWAP1 SWAP2 SWAP1 PUSH4 0xFFFFFFFF AND JUMP JUMPDEST PUSH1 0xA0 DUP6 ADD MLOAD SWAP1 SWAP2 POP PUSH1 0x0 PUSH2 0x1407 DUP4 DUP4 PUSH2 0x1592 JUMP JUMPDEST SWAP1 POP PUSH1 0x0 PUSH2 0x1415 DUP3 DUP5 PUSH2 0x159E JUMP JUMPDEST SWAP1 POP PUSH1 0x0 PUSH2 0x143E DUP9 PUSH1 0x80 ADD MLOAD PUSH2 0x1438 DUP5 DUP12 PUSH1 0xE0 ADD MLOAD PUSH2 0x159E SWAP1 SWAP2 SWAP1 PUSH4 0xFFFFFFFF AND JUMP JUMPDEST SWAP1 PUSH2 0x1592 JUMP JUMPDEST SWAP1 POP PUSH2 0x1458 DUP9 PUSH2 0x100 ADD MLOAD DUP3 PUSH2 0x1464 SWAP1 SWAP2 SWAP1 PUSH4 0xFFFFFFFF AND JUMP JUMPDEST SWAP9 SWAP8 POP POP POP POP POP POP POP POP JUMP JUMPDEST PUSH1 0x0 PUSH2 0x120B DUP3 DUP5 PUSH2 0x18EB JUMP JUMPDEST PUSH1 0x0 DUP1 SLOAD PUSH1 0x1 PUSH1 0x1 PUSH1 0xA0 SHL SUB DUP4 DUP2 AND PUSH1 0x1 PUSH1 0x1 PUSH1 0xA0 SHL SUB NOT DUP4 AND DUP2 OR DUP5 SSTORE PUSH1 0x40 MLOAD SWAP2 SWAP1 SWAP3 AND SWAP3 DUP4 SWAP2 PUSH32 0x8BE0079C531659141344CD1FD0A4F28419497F9722A3DAAFE3B4186F6B6457E0 SWAP2 SWAP1 LOG3 POP POP JUMP JUMPDEST PUSH1 0x0 PUSH2 0x1515 DUP3 PUSH1 0x40 MLOAD DUP1 PUSH1 0x40 ADD PUSH1 0x40 MSTORE DUP1 PUSH1 0x20 DUP2 MSTORE PUSH1 0x20 ADD PUSH32 0x5361666545524332303A206C6F772D6C6576656C2063616C6C206661696C6564 DUP2 MSTORE POP DUP6 PUSH1 0x1 PUSH1 0x1 PUSH1 0xA0 SHL SUB AND PUSH2 0x15AA SWAP1 SWAP3 SWAP2 SWAP1 PUSH4 0xFFFFFFFF AND JUMP JUMPDEST DUP1 MLOAD SWAP1 SWAP2 POP ISZERO PUSH2 0x137C JUMPI DUP1 DUP1 PUSH1 0x20 ADD SWAP1 MLOAD DUP2 ADD SWAP1 PUSH2 0x1533 SWAP2 SWAP1 PUSH2 0x1930 JUMP JUMPDEST PUSH2 0x137C JUMPI PUSH1 0x40 MLOAD PUSH3 0x461BCD PUSH1 0xE5 SHL DUP2 MSTORE PUSH1 0x20 PUSH1 0x4 DUP3 ADD MSTORE PUSH1 0x2A PUSH1 0x24 DUP3 ADD MSTORE PUSH32 0x5361666545524332303A204552433230206F7065726174696F6E20646964206E PUSH1 0x44 DUP3 ADD MSTORE PUSH10 0x1BDD081CDD58D8D95959 PUSH1 0xB2 SHL PUSH1 0x64 DUP3 ADD MSTORE PUSH1 0x84 ADD PUSH2 0x49D JUMP JUMPDEST PUSH1 0x0 PUSH2 0x120B DUP3 DUP5 PUSH2 0x194D JUMP JUMPDEST PUSH1 0x0 PUSH2 0x120B DUP3 DUP5 PUSH2 0x196F JUMP JUMPDEST PUSH1 0x60 PUSH2 0x1175 DUP5 DUP5 PUSH1 0x0 DUP6 DUP6 PUSH1 0x1 PUSH1 0x1 PUSH1 0xA0 SHL SUB DUP6 AND EXTCODESIZE PUSH2 0x160C JUMPI PUSH1 0x40 MLOAD PUSH3 0x461BCD PUSH1 0xE5 SHL DUP2 MSTORE PUSH1 0x20 PUSH1 0x4 DUP3 ADD MSTORE PUSH1 0x1D PUSH1 0x24 DUP3 ADD MSTORE PUSH32 0x416464726573733A2063616C6C20746F206E6F6E2D636F6E7472616374000000 PUSH1 0x44 DUP3 ADD MSTORE PUSH1 0x64 ADD PUSH2 0x49D JUMP JUMPDEST PUSH1 0x0 DUP1 DUP7 PUSH1 0x1 PUSH1 0x1 PUSH1 0xA0 SHL SUB AND DUP6 DUP8 PUSH1 0x40 MLOAD PUSH2 0x1628 SWAP2 SWAP1 PUSH2 0x19BE JUMP JUMPDEST PUSH1 0x0 PUSH1 0x40 MLOAD DUP1 DUP4 SUB DUP2 DUP6 DUP8 GAS CALL SWAP3 POP POP POP RETURNDATASIZE DUP1 PUSH1 0x0 DUP2 EQ PUSH2 0x1665 JUMPI PUSH1 0x40 MLOAD SWAP2 POP PUSH1 0x1F NOT PUSH1 0x3F RETURNDATASIZE ADD AND DUP3 ADD PUSH1 0x40 MSTORE RETURNDATASIZE DUP3 MSTORE RETURNDATASIZE PUSH1 0x0 PUSH1 0x20 DUP5 ADD RETURNDATACOPY PUSH2 0x166A JUMP JUMPDEST PUSH1 0x60 SWAP2 POP JUMPDEST POP SWAP2 POP SWAP2 POP PUSH2 0x167A DUP3 DUP3 DUP7 PUSH2 0x1685 JUMP JUMPDEST SWAP8 SWAP7 POP POP POP POP POP POP POP JUMP JUMPDEST PUSH1 0x60 DUP4 ISZERO PUSH2 0x1694 JUMPI POP DUP2 PUSH2 0x120B JUMP JUMPDEST DUP3 MLOAD ISZERO PUSH2 0x16A4 JUMPI DUP3 MLOAD DUP1 DUP5 PUSH1 0x20 ADD REVERT JUMPDEST DUP2 PUSH1 0x40 MLOAD PUSH3 0x461BCD PUSH1 0xE5 SHL DUP2 MSTORE PUSH1 0x4 ADD PUSH2 0x49D SWAP2 SWAP1 PUSH2 0x19DA JUMP JUMPDEST PUSH1 0x40 MLOAD DUP1 PUSH2 0x140 ADD PUSH1 0x40 MSTORE DUP1 PUSH1 0x0 ISZERO ISZERO DUP2 MSTORE PUSH1 0x20 ADD PUSH1 0x0 PUSH1 0x1 PUSH1 0x1 PUSH1 0xA0 SHL SUB AND DUP2 MSTORE PUSH1 0x20 ADD PUSH1 0x0 DUP2 MSTORE PUSH1 0x20 ADD PUSH1 0x0 DUP2 MSTORE PUSH1 0x20 ADD PUSH1 0x0 DUP2 MSTORE PUSH1 0x20 ADD PUSH1 0x0 DUP2 MSTORE PUSH1 0x20 ADD PUSH1 0x0 ISZERO ISZERO DUP2 MSTORE PUSH1 0x20 ADD PUSH1 0x0 DUP2 MSTORE PUSH1 0x20 ADD PUSH1 0x0 DUP2 MSTORE PUSH1 0x20 ADD PUSH1 0x0 ISZERO ISZERO DUP2 MSTORE POP SWAP1 JUMP JUMPDEST DUP1 CALLDATALOAD PUSH1 0x1 PUSH1 0x1 PUSH1 0xA0 SHL SUB DUP2 AND DUP2 EQ PUSH2 0x1737 JUMPI PUSH1 0x0 DUP1 REVERT JUMPDEST SWAP2 SWAP1 POP JUMP JUMPDEST DUP1 ISZERO ISZERO DUP2 EQ PUSH2 0x11F3 JUMPI PUSH1 0x0 DUP1 REVERT JUMPDEST PUSH1 0x0 DUP1 PUSH1 0x0 DUP1 PUSH1 0x0 DUP1 PUSH1 0x0 PUSH1 0xE0 DUP9 DUP11 SUB SLT ISZERO PUSH2 0x1765 JUMPI PUSH1 0x0 DUP1 REVERT JUMPDEST PUSH2 0x176E DUP9 PUSH2 0x1720 JUMP JUMPDEST SWAP7 POP PUSH1 0x20 DUP9 ADD CALLDATALOAD SWAP6 POP PUSH1 0x40 DUP9 ADD CALLDATALOAD SWAP5 POP PUSH1 0x60 DUP9 ADD CALLDATALOAD SWAP4 POP PUSH1 0x80 DUP9 ADD CALLDATALOAD SWAP3 POP PUSH1 0xA0 DUP9 ADD CALLDATALOAD PUSH2 0x179A DUP2 PUSH2 0x173C JUMP JUMPDEST DUP1 SWAP3 POP POP PUSH1 0xC0 DUP9 ADD CALLDATALOAD SWAP1 POP SWAP3 SWAP6 SWAP9 SWAP2 SWAP5 SWAP8 POP SWAP3 SWAP6 POP JUMP JUMPDEST PUSH1 0x0 PUSH1 0x20 DUP3 DUP5 SUB SLT ISZERO PUSH2 0x17C3 JUMPI PUSH1 0x0 DUP1 REVERT JUMPDEST POP CALLDATALOAD SWAP2 SWAP1 POP JUMP JUMPDEST PUSH1 0x0 PUSH1 0x20 DUP3 DUP5 SUB SLT ISZERO PUSH2 0x17DC JUMPI PUSH1 0x0 DUP1 REVERT JUMPDEST PUSH2 0x120B DUP3 PUSH2 0x1720 JUMP JUMPDEST PUSH1 0x0 DUP1 PUSH1 0x40 DUP4 DUP6 SUB SLT ISZERO PUSH2 0x17F8 JUMPI PUSH1 0x0 DUP1 REVERT JUMPDEST POP POP DUP1 CALLDATALOAD SWAP3 PUSH1 0x20 SWAP1 SWAP2 ADD CALLDATALOAD SWAP2 POP JUMP JUMPDEST DUP2 MLOAD ISZERO ISZERO DUP2 MSTORE PUSH2 0x140 DUP2 ADD PUSH1 0x20 DUP4 ADD MLOAD PUSH2 0x182C PUSH1 0x20 DUP5 ADD DUP3 PUSH1 0x1 PUSH1 0x1 PUSH1 0xA0 SHL SUB AND SWAP1 MSTORE JUMP JUMPDEST POP PUSH1 0x40 DUP4 ADD MLOAD PUSH1 0x40 DUP4 ADD MSTORE PUSH1 0x60 DUP4 ADD MLOAD PUSH1 0x60 DUP4 ADD MSTORE PUSH1 0x80 DUP4 ADD MLOAD PUSH1 0x80 DUP4 ADD MSTORE PUSH1 0xA0 DUP4 ADD MLOAD PUSH1 0xA0 DUP4 ADD MSTORE PUSH1 0xC0 DUP4 ADD MLOAD PUSH2 0x1868 PUSH1 0xC0 DUP5 ADD DUP3 ISZERO ISZERO SWAP1 MSTORE JUMP JUMPDEST POP PUSH1 0xE0 DUP4 DUP2 ADD MLOAD SWAP1 DUP4 ADD MSTORE PUSH2 0x100 DUP1 DUP5 ADD MLOAD SWAP1 DUP4 ADD MSTORE PUSH2 0x120 SWAP3 DUP4 ADD MLOAD ISZERO ISZERO SWAP3 SWAP1 SWAP2 ADD SWAP2 SWAP1 SWAP2 MSTORE SWAP1 JUMP JUMPDEST PUSH1 0x0 DUP1 PUSH1 0x40 DUP4 DUP6 SUB SLT ISZERO PUSH2 0x18A5 JUMPI PUSH1 0x0 DUP1 REVERT JUMPDEST PUSH2 0x18AE DUP4 PUSH2 0x1720 JUMP JUMPDEST SWAP5 PUSH1 0x20 SWAP4 SWAP1 SWAP4 ADD CALLDATALOAD SWAP4 POP POP POP JUMP JUMPDEST PUSH1 0x0 PUSH1 0x20 DUP3 DUP5 SUB SLT ISZERO PUSH2 0x18CE JUMPI PUSH1 0x0 DUP1 REVERT JUMPDEST POP MLOAD SWAP2 SWAP1 POP JUMP JUMPDEST PUSH4 0x4E487B71 PUSH1 0xE0 SHL PUSH1 0x0 MSTORE PUSH1 0x11 PUSH1 0x4 MSTORE PUSH1 0x24 PUSH1 0x0 REVERT JUMPDEST PUSH1 0x0 DUP3 DUP3 LT ISZERO PUSH2 0x18FD JUMPI PUSH2 0x18FD PUSH2 0x18D5 JUMP JUMPDEST POP SUB SWAP1 JUMP JUMPDEST PUSH4 0x4E487B71 PUSH1 0xE0 SHL PUSH1 0x0 MSTORE PUSH1 0x32 PUSH1 0x4 MSTORE PUSH1 0x24 PUSH1 0x0 REVERT JUMPDEST PUSH1 0x0 DUP3 NOT DUP3 GT ISZERO PUSH2 0x192B JUMPI PUSH2 0x192B PUSH2 0x18D5 JUMP JUMPDEST POP ADD SWAP1 JUMP JUMPDEST PUSH1 0x0 PUSH1 0x20 DUP3 DUP5 SUB SLT ISZERO PUSH2 0x1942 JUMPI PUSH1 0x0 DUP1 REVERT JUMPDEST DUP2 MLOAD PUSH2 0x120B DUP2 PUSH2 0x173C JUMP JUMPDEST PUSH1 0x0 DUP3 PUSH2 0x196A JUMPI PUSH4 0x4E487B71 PUSH1 0xE0 SHL PUSH1 0x0 MSTORE PUSH1 0x12 PUSH1 0x4 MSTORE PUSH1 0x24 PUSH1 0x0 REVERT JUMPDEST POP DIV SWAP1 JUMP JUMPDEST PUSH1 0x0 DUP2 PUSH1 0x0 NOT DIV DUP4 GT DUP3 ISZERO ISZERO AND ISZERO PUSH2 0x1989 JUMPI PUSH2 0x1989 PUSH2 0x18D5 JUMP JUMPDEST POP MUL SWAP1 JUMP JUMPDEST PUSH1 0x0 JUMPDEST DUP4 DUP2 LT ISZERO PUSH2 0x19A9 JUMPI DUP2 DUP2 ADD MLOAD DUP4 DUP3 ADD MSTORE PUSH1 0x20 ADD PUSH2 0x1991 JUMP JUMPDEST DUP4 DUP2 GT ISZERO PUSH2 0x19B8 JUMPI PUSH1 0x0 DUP5 DUP5 ADD MSTORE JUMPDEST POP POP POP POP JUMP JUMPDEST PUSH1 0x0 DUP3 MLOAD PUSH2 0x19D0 DUP2 DUP5 PUSH1 0x20 DUP8 ADD PUSH2 0x198E JUMP JUMPDEST SWAP2 SWAP1 SWAP2 ADD SWAP3 SWAP2 POP POP JUMP JUMPDEST PUSH1 0x20 DUP2 MSTORE PUSH1 0x0 DUP3 MLOAD DUP1 PUSH1 0x20 DUP5 ADD MSTORE PUSH2 0x19F9 DUP2 PUSH1 0x40 DUP6 ADD PUSH1 0x20 DUP8 ADD PUSH2 0x198E JUMP JUMPDEST PUSH1 0x1F ADD PUSH1 0x1F NOT AND SWAP2 SWAP1 SWAP2 ADD PUSH1 0x40 ADD SWAP3 SWAP2 POP POP JUMP INVALID LOG2 PUSH5 0x6970667358 0x22 SLT KECCAK256 DUP9 ADDMOD DUP16 PUSH32 0x32DB7DC8A532390C916697A863D9D2300BC3D500541BB0908735E10F64736F6C PUSH4 0x43000809 STOP CALLER "
				},
				"gasEstimates": {
					"creation": {
						"codeDepositCost": "1344600",
						"executionCost": "infinite",
						"totalCost": "infinite"
					},
					"external": {
						"": "185",
						"computeNextVestingScheduleIdForHolder(address)": "2855",
						"computeReleasableAmount(bytes32)": "infinite",
						"computeVestingScheduleIdForAddressAndIndex(address,uint256)": "578",
						"createVestingSchedule(address,uint256,uint256,uint256,uint256,bool,uint256)": "infinite",
						"getLastVestingScheduleForHolder(address)": "22931",
						"getToken()": "infinite",
						"getVestingIdAtIndex(uint256)": "6814",
						"getVestingSchedule(bytes32)": "20335",
						"getVestingScheduleByAddressAndIndex(address,uint256)": "infinite",
						"getVestingSchedulesCount()": "2294",
						"getVestingSchedulesCountByBeneficiary(address)": "2571",
						"getVestingSchedulesTotalAmount()": "2304",
						"getWithdrawableAmount()": "infinite",
						"owner()": "2376",
						"release(bytes32,uint256)": "infinite",
						"renounceOwnership()": "infinite",
						"revoke(bytes32)": "infinite",
						"transferOwnership(address)": "28377",
						"withdraw(uint256)": "infinite"
					},
					"internal": {
						"_computeReleasableAmount(struct PaymeTokenVesting.VestingSchedule memory)": "infinite",
						"getCurrentTime()": "infinite"
					}
				},
				"methodIdentifiers": {
					"computeNextVestingScheduleIdForHolder(address)": "f7c469f0",
					"computeReleasableAmount(bytes32)": "ea1bb3d5",
					"computeVestingScheduleIdForAddressAndIndex(address,uint256)": "8af104da",
					"createVestingSchedule(address,uint256,uint256,uint256,uint256,bool,uint256)": "17e289e9",
					"getLastVestingScheduleForHolder(address)": "7e913dc6",
					"getToken()": "21df0da7",
					"getVestingIdAtIndex(uint256)": "f9079b37",
					"getVestingSchedule(bytes32)": "9ef346b4",
					"getVestingScheduleByAddressAndIndex(address,uint256)": "f51321d7",
					"getVestingSchedulesCount()": "13083617",
					"getVestingSchedulesCountByBeneficiary(address)": "5a7bb69a",
					"getVestingSchedulesTotalAmount()": "48deb471",
					"getWithdrawableAmount()": "90be10cc",
					"owner()": "8da5cb5b",
					"release(bytes32,uint256)": "66afd8ef",
					"renounceOwnership()": "715018a6",
					"revoke(bytes32)": "b75c7dc6",
					"transferOwnership(address)": "f2fde38b",
					"withdraw(uint256)": "2e1a7d4d"
				}
			},
			"storageLayout": {
				"storage": [
					{
						"astId": 7,
						"contract": "contracts/PaymeTokenVesting.sol:PaymeTokenVesting",
						"label": "_owner",
						"offset": 0,
						"slot": "0",
						"type": "t_address"
					},
					{
						"astId": 123,
						"contract": "contracts/PaymeTokenVesting.sol:PaymeTokenVesting",
						"label": "_status",
						"offset": 0,
						"slot": "1",
						"type": "t_uint256"
					},
					{
						"astId": 1727,
						"contract": "contracts/PaymeTokenVesting.sol:PaymeTokenVesting",
						"label": "vestingSchedulesIds",
						"offset": 0,
						"slot": "2",
						"type": "t_array(t_bytes32)dyn_storage"
					},
					{
						"astId": 1732,
						"contract": "contracts/PaymeTokenVesting.sol:PaymeTokenVesting",
						"label": "vestingSchedules",
						"offset": 0,
						"slot": "3",
						"type": "t_mapping(t_bytes32,t_struct(VestingSchedule)1721_storage)"
					},
					{
						"astId": 1734,
						"contract": "contracts/PaymeTokenVesting.sol:PaymeTokenVesting",
						"label": "vestingSchedulesTotalAmount",
						"offset": 0,
						"slot": "4",
						"type": "t_uint256"
					},
					{
						"astId": 1738,
						"contract": "contracts/PaymeTokenVesting.sol:PaymeTokenVesting",
						"label": "holdersVestingCount",
						"offset": 0,
						"slot": "5",
						"type": "t_mapping(t_address,t_uint256)"
					}
				],
				"types": {
					"t_address": {
						"encoding": "inplace",
						"label": "address",
						"numberOfBytes": "20"
					},
					"t_array(t_bytes32)dyn_storage": {
						"base": "t_bytes32",
						"encoding": "dynamic_array",
						"label": "bytes32[]",
						"numberOfBytes": "32"
					},
					"t_bool": {
						"encoding": "inplace",
						"label": "bool",
						"numberOfBytes": "1"
					},
					"t_bytes32": {
						"encoding": "inplace",
						"label": "bytes32",
						"numberOfBytes": "32"
					},
					"t_mapping(t_address,t_uint256)": {
						"encoding": "mapping",
						"key": "t_address",
						"label": "mapping(address => uint256)",
						"numberOfBytes": "32",
						"value": "t_uint256"
					},
					"t_mapping(t_bytes32,t_struct(VestingSchedule)1721_storage)": {
						"encoding": "mapping",
						"key": "t_bytes32",
						"label": "mapping(bytes32 => struct PaymeTokenVesting.VestingSchedule)",
						"numberOfBytes": "32",
						"value": "t_struct(VestingSchedule)1721_storage"
					},
					"t_struct(VestingSchedule)1721_storage": {
						"encoding": "inplace",
						"label": "struct PaymeTokenVesting.VestingSchedule",
						"members": [
							{
								"astId": 1702,
								"contract": "contracts/PaymeTokenVesting.sol:PaymeTokenVesting",
								"label": "initialized",
								"offset": 0,
								"slot": "0",
								"type": "t_bool"
							},
							{
								"astId": 1704,
								"contract": "contracts/PaymeTokenVesting.sol:PaymeTokenVesting",
								"label": "beneficiary",
								"offset": 1,
								"slot": "0",
								"type": "t_address"
							},
							{
								"astId": 1706,
								"contract": "contracts/PaymeTokenVesting.sol:PaymeTokenVesting",
								"label": "cliff",
								"offset": 0,
								"slot": "1",
								"type": "t_uint256"
							},
							{
								"astId": 1708,
								"contract": "contracts/PaymeTokenVesting.sol:PaymeTokenVesting",
								"label": "start",
								"offset": 0,
								"slot": "2",
								"type": "t_uint256"
							},
							{
								"astId": 1710,
								"contract": "contracts/PaymeTokenVesting.sol:PaymeTokenVesting",
								"label": "duration",
								"offset": 0,
								"slot": "3",
								"type": "t_uint256"
							},
							{
								"astId": 1712,
								"contract": "contracts/PaymeTokenVesting.sol:PaymeTokenVesting",
								"label": "slicePeriodSeconds",
								"offset": 0,
								"slot": "4",
								"type": "t_uint256"
							},
							{
								"astId": 1714,
								"contract": "contracts/PaymeTokenVesting.sol:PaymeTokenVesting",
								"label": "revocable",
								"offset": 0,
								"slot": "5",
								"type": "t_bool"
							},
							{
								"astId": 1716,
								"contract": "contracts/PaymeTokenVesting.sol:PaymeTokenVesting",
								"label": "amountTotal",
								"offset": 0,
								"slot": "6",
								"type": "t_uint256"
							},
							{
								"astId": 1718,
								"contract": "contracts/PaymeTokenVesting.sol:PaymeTokenVesting",
								"label": "released",
								"offset": 0,
								"slot": "7",
								"type": "t_uint256"
							},
							{
								"astId": 1720,
								"contract": "contracts/PaymeTokenVesting.sol:PaymeTokenVesting",
								"label": "revoked",
								"offset": 0,
								"slot": "8",
								"type": "t_bool"
							}
						],
						"numberOfBytes": "288"
					},
					"t_uint256": {
						"encoding": "inplace",
						"label": "uint256",
						"numberOfBytes": "32"
					}
				}
			},
			"userdoc": {
				"kind": "user",
				"methods": {
					"computeReleasableAmount(bytes32)": {
						"notice": "Computes the vested amount of tokens for the given vesting schedule identifier."
					},
					"createVestingSchedule(address,uint256,uint256,uint256,uint256,bool,uint256)": {
						"notice": "Creates a new vesting schedule for a beneficiary."
					},
					"getVestingSchedule(bytes32)": {
						"notice": "Returns the vesting schedule information for a given identifier."
					},
					"getVestingScheduleByAddressAndIndex(address,uint256)": {
						"notice": "Returns the vesting schedule information for a given holder and index."
					},
					"getVestingSchedulesTotalAmount()": {
						"notice": "Returns the total amount of vesting schedules."
					},
					"release(bytes32,uint256)": {
						"notice": "Release vested amount of tokens."
					},
					"revoke(bytes32)": {
						"notice": "Revokes the vesting schedule for given identifier."
					},
					"withdraw(uint256)": {
						"notice": "Withdraw the specified amount if possible."
					}
				},
				"version": 1
			}
		}
	}
}