{
	"node_modules/@dtobi59/crowdsale/contracts/crowdsale/Crowdsale.sol": {
		"Crowdsale": {
			"abi": [
				{
					"inputs": [
						{
							"internalType": "uint256",
							"name": "rate_",
							"type": "uint256"
						},
						{
							"internalType": "address payable",
							"name": "wallet_",
							"type": "address"
						},
						{
							"internalType": "contract IERC20",
							"name": "token_",
							"type": "address"
						}
					],
					"stateMutability": "nonpayable",
					"type": "constructor"
				},
				{
					"anonymous": false,
					"inputs": [
						{
							"indexed": true,
							"internalType": "bytes32",
							"name": "role",
							"type": "bytes32"
						},
						{
							"indexed": true,
							"internalType": "bytes32",
							"name": "previousAdminRole",
							"type": "bytes32"
						},
						{
							"indexed": true,
							"internalType": "bytes32",
							"name": "newAdminRole",
							"type": "bytes32"
						}
					],
					"name": "RoleAdminChanged",
					"type": "event"
				},
				{
					"anonymous": false,
					"inputs": [
						{
							"indexed": true,
							"internalType": "bytes32",
							"name": "role",
							"type": "bytes32"
						},
						{
							"indexed": true,
							"internalType": "address",
							"name": "account",
							"type": "address"
						},
						{
							"indexed": true,
							"internalType": "address",
							"name": "sender",
							"type": "address"
						}
					],
					"name": "RoleGranted",
					"type": "event"
				},
				{
					"anonymous": false,
					"inputs": [
						{
							"indexed": true,
							"internalType": "bytes32",
							"name": "role",
							"type": "bytes32"
						},
						{
							"indexed": true,
							"internalType": "address",
							"name": "account",
							"type": "address"
						},
						{
							"indexed": true,
							"internalType": "address",
							"name": "sender",
							"type": "address"
						}
					],
					"name": "RoleRevoked",
					"type": "event"
				},
				{
					"anonymous": false,
					"inputs": [
						{
							"indexed": true,
							"internalType": "address",
							"name": "purchaser",
							"type": "address"
						},
						{
							"indexed": true,
							"internalType": "address",
							"name": "beneficiary",
							"type": "address"
						},
						{
							"indexed": false,
							"internalType": "uint256",
							"name": "value",
							"type": "uint256"
						},
						{
							"indexed": false,
							"internalType": "uint256",
							"name": "amount",
							"type": "uint256"
						}
					],
					"name": "TokensPurchased",
					"type": "event"
				},
				{
					"stateMutability": "payable",
					"type": "fallback"
				},
				{
					"inputs": [],
					"name": "DEFAULT_ADMIN_ROLE",
					"outputs": [
						{
							"internalType": "bytes32",
							"name": "",
							"type": "bytes32"
						}
					],
					"stateMutability": "view",
					"type": "function"
				},
				{
					"inputs": [
						{
							"internalType": "address",
							"name": "beneficiary",
							"type": "address"
						}
					],
					"name": "buyTokens",
					"outputs": [],
					"stateMutability": "payable",
					"type": "function"
				},
				{
					"inputs": [
						{
							"internalType": "bytes32",
							"name": "role",
							"type": "bytes32"
						}
					],
					"name": "getRoleAdmin",
					"outputs": [
						{
							"internalType": "bytes32",
							"name": "",
							"type": "bytes32"
						}
					],
					"stateMutability": "view",
					"type": "function"
				},
				{
					"inputs": [
						{
							"internalType": "bytes32",
							"name": "role",
							"type": "bytes32"
						},
						{
							"internalType": "address",
							"name": "account",
							"type": "address"
						}
					],
					"name": "grantRole",
					"outputs": [],
					"stateMutability": "nonpayable",
					"type": "function"
				},
				{
					"inputs": [
						{
							"internalType": "bytes32",
							"name": "role",
							"type": "bytes32"
						},
						{
							"internalType": "address",
							"name": "account",
							"type": "address"
						}
					],
					"name": "hasRole",
					"outputs": [
						{
							"internalType": "bool",
							"name": "",
							"type": "bool"
						}
					],
					"stateMutability": "view",
					"type": "function"
				},
				{
					"inputs": [],
					"name": "rate",
					"outputs": [
						{
							"internalType": "uint256",
							"name": "",
							"type": "uint256"
						}
					],
					"stateMutability": "view",
					"type": "function"
				},
				{
					"inputs": [
						{
							"internalType": "bytes32",
							"name": "role",
							"type": "bytes32"
						},
						{
							"internalType": "address",
							"name": "account",
							"type": "address"
						}
					],
					"name": "renounceRole",
					"outputs": [],
					"stateMutability": "nonpayable",
					"type": "function"
				},
				{
					"inputs": [
						{
							"internalType": "bytes32",
							"name": "role",
							"type": "bytes32"
						},
						{
							"internalType": "address",
							"name": "account",
							"type": "address"
						}
					],
					"name": "revokeRole",
					"outputs": [],
					"stateMutability": "nonpayable",
					"type": "function"
				},
				{
					"inputs": [
						{
							"internalType": "bytes4",
							"name": "interfaceId",
							"type": "bytes4"
						}
					],
					"name": "supportsInterface",
					"outputs": [
						{
							"internalType": "bool",
							"name": "",
							"type": "bool"
						}
					],
					"stateMutability": "view",
					"type": "function"
				},
				{
					"inputs": [],
					"name": "token",
					"outputs": [
						{
							"internalType": "contract IERC20",
							"name": "",
							"type": "address"
						}
					],
					"stateMutability": "view",
					"type": "function"
				},
				{
					"inputs": [],
					"name": "wallet",
					"outputs": [
						{
							"internalType": "address payable",
							"name": "",
							"type": "address"
						}
					],
					"stateMutability": "view",
					"type": "function"
				},
				{
					"inputs": [],
					"name": "weiRaised",
					"outputs": [
						{
							"internalType": "uint256",
							"name": "",
							"type": "uint256"
						}
					],
					"stateMutability": "view",
					"type": "function"
				},
				{
					"stateMutability": "payable",
					"type": "receive"
				}
			],
			"devdoc": {
				"details": "Crowdsale is a base contract for managing a token crowdsale, allowing investors to purchase tokens with ether. This contract implements such functionality in its most fundamental form and can be extended to provide additional functionality and/or custom behavior. The external interface represents the basic interface for purchasing tokens, and conforms the base architecture for crowdsales. It is *not* intended to be modified / overridden. The internal interface conforms the extensible and modifiable surface of crowdsales. Override the methods to add functionality. Consider using 'super' where appropriate to concatenate behavior.",
				"events": {
					"TokensPurchased(address,address,uint256,uint256)": {
						"params": {
							"amount": "amount of tokens purchased",
							"beneficiary": "who got the tokens",
							"purchaser": "who paid for the tokens",
							"value": "weis paid for purchase"
						}
					}
				},
				"kind": "dev",
				"methods": {
					"buyTokens(address)": {
						"details": "low level token purchase ***DO NOT OVERRIDE*** This function has a non-reentrancy guard, so it shouldn't be called by another `nonReentrant` function.",
						"params": {
							"beneficiary": "Recipient of the token purchase"
						}
					},
					"constructor": {
						"details": "The rate is the conversion between wei and the smallest and indivisible token unit. So, if you are using a rate of 1 with a ERC20Detailed token with 3 decimals called TOK, 1 wei will give you 1 unit, or 0.001 TOK.",
						"params": {
							"rate_": "Number of token units a buyer gets per wei",
							"token_": "Address of the token being sold",
							"wallet_": "Address where collected funds will be forwarded to"
						}
					},
					"getRoleAdmin(bytes32)": {
						"details": "Returns the admin role that controls `role`. See {grantRole} and {revokeRole}. To change a role's admin, use {_setRoleAdmin}."
					},
					"grantRole(bytes32,address)": {
						"details": "Grants `role` to `account`. If `account` had not been already granted `role`, emits a {RoleGranted} event. Requirements: - the caller must have ``role``'s admin role. May emit a {RoleGranted} event."
					},
					"hasRole(bytes32,address)": {
						"details": "Returns `true` if `account` has been granted `role`."
					},
					"rate()": {
						"returns": {
							"_0": "the number of token units a buyer gets per wei."
						}
					},
					"renounceRole(bytes32,address)": {
						"details": "Revokes `role` from the calling account. Roles are often managed via {grantRole} and {revokeRole}: this function's purpose is to provide a mechanism for accounts to lose their privileges if they are compromised (such as when a trusted device is misplaced). If the calling account had been revoked `role`, emits a {RoleRevoked} event. Requirements: - the caller must be `account`. May emit a {RoleRevoked} event."
					},
					"revokeRole(bytes32,address)": {
						"details": "Revokes `role` from `account`. If `account` had been granted `role`, emits a {RoleRevoked} event. Requirements: - the caller must have ``role``'s admin role. May emit a {RoleRevoked} event."
					},
					"supportsInterface(bytes4)": {
						"details": "See {IERC165-supportsInterface}."
					},
					"token()": {
						"returns": {
							"_0": "the token being sold."
						}
					},
					"wallet()": {
						"returns": {
							"_0": "the address where funds are collected."
						}
					},
					"weiRaised()": {
						"returns": {
							"_0": "the amount of wei raised."
						}
					}
				},
				"title": "Crowdsale",
				"version": 1
			},
			"evm": {
				"assembly": "    /* \"node_modules/@dtobi59/crowdsale/contracts/crowdsale/Crowdsale.sol\":1110:8054  contract Crowdsale is Context, ReentrancyGuard, AccessControl {... */\n  mstore(0x40, 0x80)\n    /* \"node_modules/@dtobi59/crowdsale/contracts/crowdsale/Crowdsale.sol\":2551:2975  constructor (uint256 rate_, address payable wallet_, IERC20 token_) {... */\n  callvalue\n  dup1\n  iszero\n  tag_1\n  jumpi\n  0x00\n  dup1\n  revert\ntag_1:\n  pop\n  mload(0x40)\n  sub(codesize, bytecodeSize)\n  dup1\n  bytecodeSize\n  dup4\n  codecopy\n  dup2\n  add\n  0x40\n  dup2\n  swap1\n  mstore\n  tag_2\n  swap2\n  tag_3\n  jump\t// in\ntag_2:\n    /* \"@openzeppelin/contracts/security/ReentrancyGuard.sol\":1701:1702  1 */\n  0x01\n    /* \"@openzeppelin/contracts/security/ReentrancyGuard.sol\":1806:1813  _status */\n  0x00\n    /* \"@openzeppelin/contracts/security/ReentrancyGuard.sol\":1806:1828  _status = _NOT_ENTERED */\n  sstore\n    /* \"node_modules/@dtobi59/crowdsale/contracts/crowdsale/Crowdsale.sol\":2637:2646  rate_ > 0 */\n  dup3\n    /* \"node_modules/@dtobi59/crowdsale/contracts/crowdsale/Crowdsale.sol\":2629:2671  require(rate_ > 0, \"Crowdsale: rate is 0\") */\n  tag_8\n  jumpi\n  mload(0x40)\n  shl(0xe5, 0x461bcd)\n  dup2\n  mstore\n    /* \"#utility.yul\":849:851   */\n  0x20\n    /* \"node_modules/@dtobi59/crowdsale/contracts/crowdsale/Crowdsale.sol\":2629:2671  require(rate_ > 0, \"Crowdsale: rate is 0\") */\n  0x04\n  dup3\n  add\n    /* \"#utility.yul\":831:852   */\n  mstore\n    /* \"#utility.yul\":888:890   */\n  0x14\n    /* \"#utility.yul\":868:886   */\n  0x24\n  dup3\n  add\n    /* \"#utility.yul\":861:891   */\n  mstore\n    /* \"#utility.yul\":927:949   */\n  0x43726f776473616c653a20726174652069732030000000000000000000000000\n    /* \"#utility.yul\":907:925   */\n  0x44\n  dup3\n  add\n    /* \"#utility.yul\":900:950   */\n  mstore\n    /* \"#utility.yul\":967:985   */\n  0x64\n  add\n    /* \"node_modules/@dtobi59/crowdsale/contracts/crowdsale/Crowdsale.sol\":2629:2671  require(rate_ > 0, \"Crowdsale: rate is 0\") */\ntag_9:\n  mload(0x40)\n  dup1\n  swap2\n  sub\n  swap1\n  revert\ntag_8:\n  sub(shl(0xa0, 0x01), 0x01)\n    /* \"node_modules/@dtobi59/crowdsale/contracts/crowdsale/Crowdsale.sol\":2689:2710  wallet_ != address(0) */\n  dup3\n  and\n    /* \"node_modules/@dtobi59/crowdsale/contracts/crowdsale/Crowdsale.sol\":2681:2752  require(wallet_ != address(0), \"Crowdsale: wallet is the zero address\") */\n  tag_11\n  jumpi\n  mload(0x40)\n  shl(0xe5, 0x461bcd)\n  dup2\n  mstore\n    /* \"#utility.yul\":1198:1200   */\n  0x20\n    /* \"node_modules/@dtobi59/crowdsale/contracts/crowdsale/Crowdsale.sol\":2681:2752  require(wallet_ != address(0), \"Crowdsale: wallet is the zero address\") */\n  0x04\n  dup3\n  add\n    /* \"#utility.yul\":1180:1201   */\n  mstore\n    /* \"#utility.yul\":1237:1239   */\n  0x25\n    /* \"#utility.yul\":1217:1235   */\n  0x24\n  dup3\n  add\n    /* \"#utility.yul\":1210:1240   */\n  mstore\n    /* \"#utility.yul\":1276:1310   */\n  0x43726f776473616c653a2077616c6c657420697320746865207a65726f206164\n    /* \"#utility.yul\":1256:1274   */\n  0x44\n  dup3\n  add\n    /* \"#utility.yul\":1249:1311   */\n  mstore\n  shl(0xd8, 0x6472657373)\n    /* \"#utility.yul\":1327:1345   */\n  0x64\n  dup3\n  add\n    /* \"#utility.yul\":1320:1355   */\n  mstore\n    /* \"#utility.yul\":1372:1391   */\n  0x84\n  add\n    /* \"node_modules/@dtobi59/crowdsale/contracts/crowdsale/Crowdsale.sol\":2681:2752  require(wallet_ != address(0), \"Crowdsale: wallet is the zero address\") */\n  tag_9\n    /* \"#utility.yul\":996:1397   */\n  jump\n    /* \"node_modules/@dtobi59/crowdsale/contracts/crowdsale/Crowdsale.sol\":2681:2752  require(wallet_ != address(0), \"Crowdsale: wallet is the zero address\") */\ntag_11:\n  sub(shl(0xa0, 0x01), 0x01)\n    /* \"node_modules/@dtobi59/crowdsale/contracts/crowdsale/Crowdsale.sol\":2770:2799  address(token_) != address(0) */\n  dup2\n  and\n    /* \"node_modules/@dtobi59/crowdsale/contracts/crowdsale/Crowdsale.sol\":2762:2840  require(address(token_) != address(0), \"Crowdsale: token is the zero address\") */\n  tag_14\n  jumpi\n  mload(0x40)\n  shl(0xe5, 0x461bcd)\n  dup2\n  mstore\n    /* \"#utility.yul\":1604:1606   */\n  0x20\n    /* \"node_modules/@dtobi59/crowdsale/contracts/crowdsale/Crowdsale.sol\":2762:2840  require(address(token_) != address(0), \"Crowdsale: token is the zero address\") */\n  0x04\n  dup3\n  add\n    /* \"#utility.yul\":1586:1607   */\n  mstore\n    /* \"#utility.yul\":1643:1645   */\n  0x24\n    /* \"#utility.yul\":1623:1641   */\n  dup1\n  dup3\n  add\n    /* \"#utility.yul\":1616:1646   */\n  mstore\n    /* \"#utility.yul\":1682:1716   */\n  0x43726f776473616c653a20746f6b656e20697320746865207a65726f20616464\n    /* \"#utility.yul\":1662:1680   */\n  0x44\n  dup3\n  add\n    /* \"#utility.yul\":1655:1717   */\n  mstore\n  shl(0xe0, 0x72657373)\n    /* \"#utility.yul\":1733:1751   */\n  0x64\n  dup3\n  add\n    /* \"#utility.yul\":1726:1760   */\n  mstore\n    /* \"#utility.yul\":1777:1796   */\n  0x84\n  add\n    /* \"node_modules/@dtobi59/crowdsale/contracts/crowdsale/Crowdsale.sol\":2762:2840  require(address(token_) != address(0), \"Crowdsale: token is the zero address\") */\n  tag_9\n    /* \"#utility.yul\":1402:1802   */\n  jump\n    /* \"node_modules/@dtobi59/crowdsale/contracts/crowdsale/Crowdsale.sol\":2762:2840  require(address(token_) != address(0), \"Crowdsale: token is the zero address\") */\ntag_14:\n    /* \"node_modules/@dtobi59/crowdsale/contracts/crowdsale/Crowdsale.sol\":2851:2856  _rate */\n  0x04\n    /* \"node_modules/@dtobi59/crowdsale/contracts/crowdsale/Crowdsale.sol\":2851:2864  _rate = rate_ */\n  dup4\n  swap1\n  sstore\n    /* \"node_modules/@dtobi59/crowdsale/contracts/crowdsale/Crowdsale.sol\":2874:2881  _wallet */\n  0x03\n    /* \"node_modules/@dtobi59/crowdsale/contracts/crowdsale/Crowdsale.sol\":2874:2891  _wallet = wallet_ */\n  dup1\n  sload\n  sub(shl(0xa0, 0x01), 0x01)\n  dup1\n  dup6\n  and\n  not(sub(shl(0xa0, 0x01), 0x01))\n  swap3\n  dup4\n  and\n  or\n  swap1\n  swap3\n  sstore\n    /* \"node_modules/@dtobi59/crowdsale/contracts/crowdsale/Crowdsale.sol\":2901:2907  _token */\n  0x02\n    /* \"node_modules/@dtobi59/crowdsale/contracts/crowdsale/Crowdsale.sol\":2901:2916  _token = token_ */\n  dup1\n  sload\n  swap3\n  dup5\n  and\n  swap3\n  swap1\n  swap2\n  and\n  swap2\n  swap1\n  swap2\n  or\n  swap1\n  sstore\n    /* \"node_modules/@dtobi59/crowdsale/contracts/crowdsale/Crowdsale.sol\":2926:2968  _setupRole(DEFAULT_ADMIN_ROLE, msg.sender) */\n  tag_17\n    /* \"node_modules/@dtobi59/crowdsale/contracts/crowdsale/Crowdsale.sol\":2874:2881  _wallet */\n  0x00\n    /* \"node_modules/@dtobi59/crowdsale/contracts/crowdsale/Crowdsale.sol\":2957:2967  msg.sender */\n  caller\n    /* \"node_modules/@dtobi59/crowdsale/contracts/crowdsale/Crowdsale.sol\":2926:2936  _setupRole */\n  tag_18\n    /* \"node_modules/@dtobi59/crowdsale/contracts/crowdsale/Crowdsale.sol\":2926:2968  _setupRole(DEFAULT_ADMIN_ROLE, msg.sender) */\n  jump\t// in\ntag_17:\n    /* \"node_modules/@dtobi59/crowdsale/contracts/crowdsale/Crowdsale.sol\":2551:2975  constructor (uint256 rate_, address payable wallet_, IERC20 token_) {... */\n  pop\n  pop\n  pop\n    /* \"node_modules/@dtobi59/crowdsale/contracts/crowdsale/Crowdsale.sol\":1110:8054  contract Crowdsale is Context, ReentrancyGuard, AccessControl {... */\n  jump(tag_32)\n    /* \"@openzeppelin/contracts/access/AccessControl.sol\":6824:6934  function _setupRole(bytes32 role, address account) internal virtual {... */\ntag_18:\n    /* \"@openzeppelin/contracts/access/AccessControl.sol\":6902:6927  _grantRole(role, account) */\n  tag_21\n    /* \"@openzeppelin/contracts/access/AccessControl.sol\":6913:6917  role */\n  dup3\n    /* \"@openzeppelin/contracts/access/AccessControl.sol\":6919:6926  account */\n  dup3\n    /* \"@openzeppelin/contracts/access/AccessControl.sol\":6902:6912  _grantRole */\n  tag_22\n    /* \"@openzeppelin/contracts/access/AccessControl.sol\":6902:6927  _grantRole(role, account) */\n  jump\t// in\ntag_21:\n    /* \"@openzeppelin/contracts/access/AccessControl.sol\":6824:6934  function _setupRole(bytes32 role, address account) internal virtual {... */\n  pop\n  pop\n  jump\t// out\n    /* \"@openzeppelin/contracts/access/AccessControl.sol\":7474:7707  function _grantRole(bytes32 role, address account) internal virtual {... */\ntag_22:\n    /* \"@openzeppelin/contracts/access/AccessControl.sol\":2981:2985  bool */\n  0x00\n    /* \"@openzeppelin/contracts/access/AccessControl.sol\":3004:3016  _roles[role] */\n  dup3\n  dup2\n  mstore\n    /* \"@openzeppelin/contracts/access/AccessControl.sol\":3004:3010  _roles */\n  0x01\n    /* \"@openzeppelin/contracts/access/AccessControl.sol\":3004:3016  _roles[role] */\n  0x20\n  swap1\n  dup2\n  mstore\n  0x40\n  dup1\n  dup4\n  keccak256\n  sub(shl(0xa0, 0x01), 0x01)\n    /* \"@openzeppelin/contracts/access/AccessControl.sol\":3004:3033  _roles[role].members[account] */\n  dup6\n  and\n  dup5\n  mstore\n  swap1\n  swap2\n  mstore\n  swap1\n  keccak256\n  sload\n  0xff\n  and\n    /* \"@openzeppelin/contracts/access/AccessControl.sol\":7552:7701  if (!hasRole(role, account)) {... */\n  tag_21\n  jumpi\n    /* \"@openzeppelin/contracts/access/AccessControl.sol\":7595:7607  _roles[role] */\n  0x00\n  dup3\n  dup2\n  mstore\n    /* \"@openzeppelin/contracts/access/AccessControl.sol\":7627:7631  true */\n  0x01\n    /* \"@openzeppelin/contracts/access/AccessControl.sol\":7595:7607  _roles[role] */\n  0x20\n  dup2\n  dup2\n  mstore\n  0x40\n  dup1\n  dup5\n  keccak256\n  sub(shl(0xa0, 0x01), 0x01)\n    /* \"@openzeppelin/contracts/access/AccessControl.sol\":7595:7624  _roles[role].members[account] */\n  dup7\n  and\n  dup1\n  dup7\n  mstore\n  swap3\n  mstore\n  dup1\n  dup5\n  keccak256\n    /* \"@openzeppelin/contracts/access/AccessControl.sol\":7595:7631  _roles[role].members[account] = true */\n  dup1\n  sload\n  not(0xff)\n  and\n  swap1\n  swap4\n  or\n  swap1\n  swap3\n  sstore\n    /* \"@openzeppelin/contracts/access/AccessControl.sol\":7650:7690  RoleGranted(role, account, _msgSender()) */\n  swap1\n  mload\n    /* \"@openzeppelin/contracts/utils/Context.sol\":719:729  msg.sender */\n  caller\n  swap3\n    /* \"@openzeppelin/contracts/access/AccessControl.sol\":7595:7607  _roles[role] */\n  dup6\n  swap2\n    /* \"@openzeppelin/contracts/access/AccessControl.sol\":7650:7690  RoleGranted(role, account, _msgSender()) */\n  0x2f8788117e7eff1d82e926ec794901d17c78024a50270940304540a733656f0d\n  swap2\n    /* \"@openzeppelin/contracts/access/AccessControl.sol\":7595:7607  _roles[role] */\n  swap1\n    /* \"@openzeppelin/contracts/access/AccessControl.sol\":7650:7690  RoleGranted(role, account, _msgSender()) */\n  log4\n    /* \"@openzeppelin/contracts/access/AccessControl.sol\":7474:7707  function _grantRole(bytes32 role, address account) internal virtual {... */\n  pop\n  pop\n  jump\t// out\n    /* \"#utility.yul\":14:153   */\ntag_31:\n  sub(shl(0xa0, 0x01), 0x01)\n    /* \"#utility.yul\":97:128   */\n  dup2\n  and\n    /* \"#utility.yul\":87:129   */\n  dup2\n  eq\n    /* \"#utility.yul\":77:147   */\n  tag_34\n  jumpi\n    /* \"#utility.yul\":143:144   */\n  0x00\n    /* \"#utility.yul\":140:141   */\n  dup1\n    /* \"#utility.yul\":133:145   */\n  revert\n    /* \"#utility.yul\":77:147   */\ntag_34:\n    /* \"#utility.yul\":14:153   */\n  pop\n  jump\t// out\n    /* \"#utility.yul\":158:642   */\ntag_3:\n    /* \"#utility.yul\":268:274   */\n  0x00\n    /* \"#utility.yul\":276:282   */\n  dup1\n    /* \"#utility.yul\":284:290   */\n  0x00\n    /* \"#utility.yul\":337:339   */\n  0x60\n    /* \"#utility.yul\":325:334   */\n  dup5\n    /* \"#utility.yul\":316:323   */\n  dup7\n    /* \"#utility.yul\":312:335   */\n  sub\n    /* \"#utility.yul\":308:340   */\n  slt\n    /* \"#utility.yul\":305:357   */\n  iszero\n  tag_36\n  jumpi\n    /* \"#utility.yul\":353:354   */\n  0x00\n    /* \"#utility.yul\":350:351   */\n  dup1\n    /* \"#utility.yul\":343:355   */\n  revert\n    /* \"#utility.yul\":305:357   */\ntag_36:\n    /* \"#utility.yul\":382:391   */\n  dup4\n    /* \"#utility.yul\":376:392   */\n  mload\n    /* \"#utility.yul\":366:392   */\n  swap3\n  pop\n    /* \"#utility.yul\":435:437   */\n  0x20\n    /* \"#utility.yul\":424:433   */\n  dup5\n    /* \"#utility.yul\":420:438   */\n  add\n    /* \"#utility.yul\":414:439   */\n  mload\n    /* \"#utility.yul\":448:487   */\n  tag_37\n    /* \"#utility.yul\":481:486   */\n  dup2\n    /* \"#utility.yul\":448:487   */\n  tag_31\n  jump\t// in\ntag_37:\n    /* \"#utility.yul\":556:558   */\n  0x40\n    /* \"#utility.yul\":541:559   */\n  dup6\n  add\n    /* \"#utility.yul\":535:560   */\n  mload\n    /* \"#utility.yul\":506:511   */\n  swap1\n  swap3\n  pop\n    /* \"#utility.yul\":569:610   */\n  tag_38\n    /* \"#utility.yul\":535:560   */\n  dup2\n    /* \"#utility.yul\":569:610   */\n  tag_31\n  jump\t// in\ntag_38:\n    /* \"#utility.yul\":629:636   */\n  dup1\n    /* \"#utility.yul\":619:636   */\n  swap2\n  pop\n  pop\n    /* \"#utility.yul\":158:642   */\n  swap3\n  pop\n  swap3\n  pop\n  swap3\n  jump\t// out\n    /* \"#utility.yul\":1402:1802   */\ntag_32:\n    /* \"node_modules/@dtobi59/crowdsale/contracts/crowdsale/Crowdsale.sol\":1110:8054  contract Crowdsale is Context, ReentrancyGuard, AccessControl {... */\n  dataSize(sub_0)\n  dup1\n  dataOffset(sub_0)\n  0x00\n  codecopy\n  0x00\n  return\nstop\n\nsub_0: assembly {\n        /* \"node_modules/@dtobi59/crowdsale/contracts/crowdsale/Crowdsale.sol\":1110:8054  contract Crowdsale is Context, ReentrancyGuard, AccessControl {... */\n      mstore(0x40, 0x80)\n      jumpi(tag_1, lt(calldatasize, 0x04))\n      shr(0xe0, calldataload(0x00))\n      dup1\n      0x521eb273\n      gt\n      tag_15\n      jumpi\n      dup1\n      0x521eb273\n      eq\n      tag_9\n      jumpi\n      dup1\n      0x91d14854\n      eq\n      tag_10\n      jumpi\n      dup1\n      0xa217fddf\n      eq\n      tag_11\n      jumpi\n      dup1\n      0xd547741f\n      eq\n      tag_12\n      jumpi\n      dup1\n      0xec8ac4d8\n      eq\n      tag_13\n      jumpi\n      dup1\n      0xfc0c546a\n      eq\n      tag_14\n      jumpi\n      jump(tag_2)\n    tag_15:\n      dup1\n      0x01ffc9a7\n      eq\n      tag_3\n      jumpi\n      dup1\n      0x248a9ca3\n      eq\n      tag_4\n      jumpi\n      dup1\n      0x2c4e722e\n      eq\n      tag_5\n      jumpi\n      dup1\n      0x2f2ff15d\n      eq\n      tag_6\n      jumpi\n      dup1\n      0x36568abe\n      eq\n      tag_7\n      jumpi\n      dup1\n      0x4042b66f\n      eq\n      tag_8\n      jumpi\n      jump(tag_2)\n    tag_1:\n      jumpi(tag_2, calldatasize)\n        /* \"node_modules/@dtobi59/crowdsale/contracts/crowdsale/Crowdsale.sol\":3377:3400  buyTokens(_msgSender()) */\n      tag_18\n        /* \"@openzeppelin/contracts/utils/Context.sol\":719:729  msg.sender */\n      caller\n        /* \"node_modules/@dtobi59/crowdsale/contracts/crowdsale/Crowdsale.sol\":3377:3386  buyTokens */\n      tag_21\n        /* \"node_modules/@dtobi59/crowdsale/contracts/crowdsale/Crowdsale.sol\":3377:3400  buyTokens(_msgSender()) */\n      jump\t// in\n        /* \"node_modules/@dtobi59/crowdsale/contracts/crowdsale/Crowdsale.sol\":3387:3399  _msgSender() */\n    tag_19:\n        /* \"node_modules/@dtobi59/crowdsale/contracts/crowdsale/Crowdsale.sol\":3377:3386  buyTokens */\n      tag_21\n        /* \"node_modules/@dtobi59/crowdsale/contracts/crowdsale/Crowdsale.sol\":3377:3400  buyTokens(_msgSender()) */\n      jump\t// in\n    tag_18:\n        /* \"node_modules/@dtobi59/crowdsale/contracts/crowdsale/Crowdsale.sol\":1110:8054  contract Crowdsale is Context, ReentrancyGuard, AccessControl {... */\n      stop\n    tag_2:\n        /* \"node_modules/@dtobi59/crowdsale/contracts/crowdsale/Crowdsale.sol\":3303:3326  buyTokens(_msgSender()) */\n      tag_18\n        /* \"@openzeppelin/contracts/utils/Context.sol\":719:729  msg.sender */\n      caller\n        /* \"node_modules/@dtobi59/crowdsale/contracts/crowdsale/Crowdsale.sol\":3377:3386  buyTokens */\n      tag_21\n        /* \"node_modules/@dtobi59/crowdsale/contracts/crowdsale/Crowdsale.sol\":3377:3400  buyTokens(_msgSender()) */\n      jump\t// in\n        /* \"@openzeppelin/contracts/access/AccessControl.sol\":2606:2808  function supportsInterface(bytes4 interfaceId) public view virtual override returns (bool) {... */\n    tag_3:\n      callvalue\n      dup1\n      iszero\n      tag_26\n      jumpi\n      0x00\n      dup1\n      revert\n    tag_26:\n      pop\n      tag_27\n      tag_28\n      calldatasize\n      0x04\n      tag_29\n      jump\t// in\n    tag_28:\n      tag_30\n      jump\t// in\n    tag_27:\n      mload(0x40)\n        /* \"#utility.yul\":470:484   */\n      swap1\n      iszero\n        /* \"#utility.yul\":463:485   */\n      iszero\n        /* \"#utility.yul\":445:486   */\n      dup2\n      mstore\n        /* \"#utility.yul\":433:435   */\n      0x20\n        /* \"#utility.yul\":418:436   */\n      add\n        /* \"@openzeppelin/contracts/access/AccessControl.sol\":2606:2808  function supportsInterface(bytes4 interfaceId) public view virtual override returns (bool) {... */\n    tag_31:\n      mload(0x40)\n      dup1\n      swap2\n      sub\n      swap1\n      return\n        /* \"@openzeppelin/contracts/access/AccessControl.sol\":4391:4520  function getRoleAdmin(bytes32 role) public view virtual override returns (bytes32) {... */\n    tag_4:\n      callvalue\n      dup1\n      iszero\n      tag_33\n      jumpi\n      0x00\n      dup1\n      revert\n    tag_33:\n      pop\n      tag_34\n      tag_35\n      calldatasize\n      0x04\n      tag_36\n      jump\t// in\n    tag_35:\n        /* \"@openzeppelin/contracts/access/AccessControl.sol\":4465:4472  bytes32 */\n      0x00\n        /* \"@openzeppelin/contracts/access/AccessControl.sol\":4491:4503  _roles[role] */\n      swap1\n      dup2\n      mstore\n        /* \"@openzeppelin/contracts/access/AccessControl.sol\":4491:4497  _roles */\n      0x01\n        /* \"@openzeppelin/contracts/access/AccessControl.sol\":4491:4503  _roles[role] */\n      0x20\n      dup2\n      swap1\n      mstore\n      0x40\n      swap1\n      swap2\n      keccak256\n        /* \"@openzeppelin/contracts/access/AccessControl.sol\":4491:4513  _roles[role].adminRole */\n      add\n      sload\n      swap1\n        /* \"@openzeppelin/contracts/access/AccessControl.sol\":4391:4520  function getRoleAdmin(bytes32 role) public view virtual override returns (bytes32) {... */\n      jump\n    tag_34:\n      mload(0x40)\n        /* \"#utility.yul\":828:853   */\n      swap1\n      dup2\n      mstore\n        /* \"#utility.yul\":816:818   */\n      0x20\n        /* \"#utility.yul\":801:819   */\n      add\n        /* \"@openzeppelin/contracts/access/AccessControl.sol\":4391:4520  function getRoleAdmin(bytes32 role) public view virtual override returns (bytes32) {... */\n      tag_31\n        /* \"#utility.yul\":682:859   */\n      jump\n        /* \"node_modules/@dtobi59/crowdsale/contracts/crowdsale/Crowdsale.sol\":3790:3865  function rate() public view returns (uint256) {... */\n    tag_5:\n      callvalue\n      dup1\n      iszero\n      tag_40\n      jumpi\n      0x00\n      dup1\n      revert\n    tag_40:\n      pop\n        /* \"node_modules/@dtobi59/crowdsale/contracts/crowdsale/Crowdsale.sol\":3853:3858  _rate */\n      sload(0x04)\n        /* \"node_modules/@dtobi59/crowdsale/contracts/crowdsale/Crowdsale.sol\":3790:3865  function rate() public view returns (uint256) {... */\n      jump(tag_34)\n        /* \"@openzeppelin/contracts/access/AccessControl.sol\":4816:4961  function grantRole(bytes32 role, address account) public virtual override onlyRole(getRoleAdmin(role)) {... */\n    tag_6:\n      callvalue\n      dup1\n      iszero\n      tag_45\n      jumpi\n      0x00\n      dup1\n      revert\n    tag_45:\n      pop\n      tag_18\n      tag_47\n      calldatasize\n      0x04\n      tag_48\n      jump\t// in\n    tag_47:\n      tag_49\n      jump\t// in\n        /* \"@openzeppelin/contracts/access/AccessControl.sol\":5925:6139  function renounceRole(bytes32 role, address account) public virtual override {... */\n    tag_7:\n      callvalue\n      dup1\n      iszero\n      tag_50\n      jumpi\n      0x00\n      dup1\n      revert\n    tag_50:\n      pop\n      tag_18\n      tag_52\n      calldatasize\n      0x04\n      tag_48\n      jump\t// in\n    tag_52:\n      tag_53\n      jump\t// in\n        /* \"node_modules/@dtobi59/crowdsale/contracts/crowdsale/Crowdsale.sol\":3928:4013  function weiRaised() public view returns (uint256) {... */\n    tag_8:\n      callvalue\n      dup1\n      iszero\n      tag_54\n      jumpi\n      0x00\n      dup1\n      revert\n    tag_54:\n      pop\n        /* \"node_modules/@dtobi59/crowdsale/contracts/crowdsale/Crowdsale.sol\":3996:4006  _weiRaised */\n      sload(0x05)\n        /* \"node_modules/@dtobi59/crowdsale/contracts/crowdsale/Crowdsale.sol\":3928:4013  function weiRaised() public view returns (uint256) {... */\n      jump(tag_34)\n        /* \"node_modules/@dtobi59/crowdsale/contracts/crowdsale/Crowdsale.sol\":3618:3705  function wallet() public view returns (address payable) {... */\n    tag_9:\n      callvalue\n      dup1\n      iszero\n      tag_58\n      jumpi\n      0x00\n      dup1\n      revert\n    tag_58:\n      pop\n        /* \"node_modules/@dtobi59/crowdsale/contracts/crowdsale/Crowdsale.sol\":3691:3698  _wallet */\n      and(sub(shl(0xa0, 0x01), 0x01), sload(0x03))\n        /* \"node_modules/@dtobi59/crowdsale/contracts/crowdsale/Crowdsale.sol\":3618:3705  function wallet() public view returns (address payable) {... */\n    tag_59:\n      mload(0x40)\n      sub(shl(0xa0, 0x01), 0x01)\n        /* \"#utility.yul\":1663:1695   */\n      swap1\n      swap2\n      and\n        /* \"#utility.yul\":1645:1696   */\n      dup2\n      mstore\n        /* \"#utility.yul\":1633:1635   */\n      0x20\n        /* \"#utility.yul\":1618:1636   */\n      add\n        /* \"node_modules/@dtobi59/crowdsale/contracts/crowdsale/Crowdsale.sol\":3618:3705  function wallet() public view returns (address payable) {... */\n      tag_31\n        /* \"#utility.yul\":1483:1702   */\n      jump\n        /* \"@openzeppelin/contracts/access/AccessControl.sol\":2895:3040  function hasRole(bytes32 role, address account) public view virtual override returns (bool) {... */\n    tag_10:\n      callvalue\n      dup1\n      iszero\n      tag_63\n      jumpi\n      0x00\n      dup1\n      revert\n    tag_63:\n      pop\n      tag_27\n      tag_65\n      calldatasize\n      0x04\n      tag_48\n      jump\t// in\n    tag_65:\n      tag_66\n      jump\t// in\n        /* \"@openzeppelin/contracts/access/AccessControl.sol\":2027:2076  bytes32 public constant DEFAULT_ADMIN_ROLE = 0x00 */\n    tag_11:\n      callvalue\n      dup1\n      iszero\n      tag_68\n      jumpi\n      0x00\n      dup1\n      revert\n    tag_68:\n      pop\n      tag_34\n        /* \"@openzeppelin/contracts/access/AccessControl.sol\":2072:2076  0x00 */\n      0x00\n        /* \"@openzeppelin/contracts/access/AccessControl.sol\":2027:2076  bytes32 public constant DEFAULT_ADMIN_ROLE = 0x00 */\n      dup2\n      jump\n        /* \"@openzeppelin/contracts/access/AccessControl.sol\":5241:5388  function revokeRole(bytes32 role, address account) public virtual override onlyRole(getRoleAdmin(role)) {... */\n    tag_12:\n      callvalue\n      dup1\n      iszero\n      tag_72\n      jumpi\n      0x00\n      dup1\n      revert\n    tag_72:\n      pop\n      tag_18\n      tag_74\n      calldatasize\n      0x04\n      tag_48\n      jump\t// in\n    tag_74:\n      tag_75\n      jump\t// in\n        /* \"node_modules/@dtobi59/crowdsale/contracts/crowdsale/Crowdsale.sol\":4270:4875  function buyTokens(address beneficiary) public nonReentrant payable {... */\n    tag_13:\n      tag_18\n      tag_19\n      calldatasize\n      0x04\n      tag_78\n      jump\t// in\n        /* \"node_modules/@dtobi59/crowdsale/contracts/crowdsale/Crowdsale.sol\":3466:3542  function token() public view returns (IERC20) {... */\n    tag_14:\n      callvalue\n      dup1\n      iszero\n      tag_79\n      jumpi\n      0x00\n      dup1\n      revert\n    tag_79:\n      pop\n        /* \"node_modules/@dtobi59/crowdsale/contracts/crowdsale/Crowdsale.sol\":3529:3535  _token */\n      and(sub(shl(0xa0, 0x01), 0x01), sload(0x02))\n        /* \"node_modules/@dtobi59/crowdsale/contracts/crowdsale/Crowdsale.sol\":3466:3542  function token() public view returns (IERC20) {... */\n      jump(tag_59)\n        /* \"node_modules/@dtobi59/crowdsale/contracts/crowdsale/Crowdsale.sol\":4270:4875  function buyTokens(address beneficiary) public nonReentrant payable {... */\n    tag_21:\n        /* \"@openzeppelin/contracts/security/ReentrancyGuard.sol\":1744:1745  2 */\n      0x02\n        /* \"@openzeppelin/contracts/security/ReentrancyGuard.sol\":2325:2332  _status */\n      sload(0x00)\n        /* \"@openzeppelin/contracts/security/ReentrancyGuard.sol\":2325:2344  _status != _ENTERED */\n      eq\n      iszero\n        /* \"@openzeppelin/contracts/security/ReentrancyGuard.sol\":2317:2380  require(_status != _ENTERED, \"ReentrancyGuard: reentrant call\") */\n      tag_86\n      jumpi\n      mload(0x40)\n      shl(0xe5, 0x461bcd)\n      dup2\n      mstore\n        /* \"#utility.yul\":2322:2324   */\n      0x20\n        /* \"@openzeppelin/contracts/security/ReentrancyGuard.sol\":2317:2380  require(_status != _ENTERED, \"ReentrancyGuard: reentrant call\") */\n      0x04\n      dup3\n      add\n        /* \"#utility.yul\":2304:2325   */\n      mstore\n        /* \"#utility.yul\":2361:2363   */\n      0x1f\n        /* \"#utility.yul\":2341:2359   */\n      0x24\n      dup3\n      add\n        /* \"#utility.yul\":2334:2364   */\n      mstore\n        /* \"#utility.yul\":2400:2433   */\n      0x5265656e7472616e637947756172643a207265656e7472616e742063616c6c00\n        /* \"#utility.yul\":2380:2398   */\n      0x44\n      dup3\n      add\n        /* \"#utility.yul\":2373:2434   */\n      mstore\n        /* \"#utility.yul\":2451:2469   */\n      0x64\n      add\n        /* \"@openzeppelin/contracts/security/ReentrancyGuard.sol\":2317:2380  require(_status != _ENTERED, \"ReentrancyGuard: reentrant call\") */\n    tag_87:\n      mload(0x40)\n      dup1\n      swap2\n      sub\n      swap1\n      revert\n    tag_86:\n        /* \"@openzeppelin/contracts/security/ReentrancyGuard.sol\":1744:1745  2 */\n      0x02\n        /* \"@openzeppelin/contracts/security/ReentrancyGuard.sol\":2455:2462  _status */\n      0x00\n        /* \"@openzeppelin/contracts/security/ReentrancyGuard.sol\":2455:2473  _status = _ENTERED */\n      sstore\n        /* \"node_modules/@dtobi59/crowdsale/contracts/crowdsale/Crowdsale.sol\":4368:4377  msg.value */\n      callvalue\n        /* \"node_modules/@dtobi59/crowdsale/contracts/crowdsale/Crowdsale.sol\":4387:4431  _preValidatePurchase(beneficiary, weiAmount) */\n      tag_90\n        /* \"node_modules/@dtobi59/crowdsale/contracts/crowdsale/Crowdsale.sol\":4408:4419  beneficiary */\n      dup3\n        /* \"node_modules/@dtobi59/crowdsale/contracts/crowdsale/Crowdsale.sol\":4368:4377  msg.value */\n      dup3\n        /* \"node_modules/@dtobi59/crowdsale/contracts/crowdsale/Crowdsale.sol\":4387:4407  _preValidatePurchase */\n      tag_91\n        /* \"node_modules/@dtobi59/crowdsale/contracts/crowdsale/Crowdsale.sol\":4387:4431  _preValidatePurchase(beneficiary, weiAmount) */\n      jump\t// in\n    tag_90:\n        /* \"node_modules/@dtobi59/crowdsale/contracts/crowdsale/Crowdsale.sol\":4490:4504  uint256 tokens */\n      0x00\n        /* \"node_modules/@dtobi59/crowdsale/contracts/crowdsale/Crowdsale.sol\":4507:4533  _getTokenAmount(weiAmount) */\n      tag_92\n        /* \"node_modules/@dtobi59/crowdsale/contracts/crowdsale/Crowdsale.sol\":4523:4532  weiAmount */\n      dup3\n        /* \"node_modules/@dtobi59/crowdsale/contracts/crowdsale/Crowdsale.sol\":4507:4522  _getTokenAmount */\n      tag_93\n        /* \"node_modules/@dtobi59/crowdsale/contracts/crowdsale/Crowdsale.sol\":4507:4533  _getTokenAmount(weiAmount) */\n      jump\t// in\n    tag_92:\n        /* \"node_modules/@dtobi59/crowdsale/contracts/crowdsale/Crowdsale.sol\":4581:4591  _weiRaised */\n      sload(0x05)\n        /* \"node_modules/@dtobi59/crowdsale/contracts/crowdsale/Crowdsale.sol\":4490:4533  uint256 tokens = _getTokenAmount(weiAmount) */\n      swap1\n      swap2\n      pop\n        /* \"node_modules/@dtobi59/crowdsale/contracts/crowdsale/Crowdsale.sol\":4581:4606  _weiRaised.add(weiAmount) */\n      tag_94\n      swap1\n        /* \"node_modules/@dtobi59/crowdsale/contracts/crowdsale/Crowdsale.sol\":4596:4605  weiAmount */\n      dup4\n        /* \"node_modules/@dtobi59/crowdsale/contracts/crowdsale/Crowdsale.sol\":4581:4595  _weiRaised.add */\n      tag_95\n        /* \"node_modules/@dtobi59/crowdsale/contracts/crowdsale/Crowdsale.sol\":4581:4606  _weiRaised.add(weiAmount) */\n      jump\t// in\n    tag_94:\n        /* \"node_modules/@dtobi59/crowdsale/contracts/crowdsale/Crowdsale.sol\":4568:4578  _weiRaised */\n      0x05\n        /* \"node_modules/@dtobi59/crowdsale/contracts/crowdsale/Crowdsale.sol\":4568:4606  _weiRaised = _weiRaised.add(weiAmount) */\n      sstore\n        /* \"node_modules/@dtobi59/crowdsale/contracts/crowdsale/Crowdsale.sol\":4617:4654  _processPurchase(beneficiary, tokens) */\n      tag_96\n        /* \"node_modules/@dtobi59/crowdsale/contracts/crowdsale/Crowdsale.sol\":4634:4645  beneficiary */\n      dup4\n        /* \"node_modules/@dtobi59/crowdsale/contracts/crowdsale/Crowdsale.sol\":4647:4653  tokens */\n      dup3\n        /* \"node_modules/@dtobi59/crowdsale/contracts/crowdsale/Crowdsale.sol\":4617:4633  _processPurchase */\n      tag_97\n        /* \"node_modules/@dtobi59/crowdsale/contracts/crowdsale/Crowdsale.sol\":4617:4654  _processPurchase(beneficiary, tokens) */\n      jump\t// in\n    tag_96:\n        /* \"node_modules/@dtobi59/crowdsale/contracts/crowdsale/Crowdsale.sol\":4669:4730  TokensPurchased(_msgSender(), beneficiary, weiAmount, tokens) */\n      0x40\n      dup1\n      mload\n        /* \"#utility.yul\":2654:2679   */\n      dup4\n      dup2\n      mstore\n        /* \"#utility.yul\":2710:2712   */\n      0x20\n        /* \"#utility.yul\":2695:2713   */\n      dup2\n      add\n        /* \"#utility.yul\":2688:2722   */\n      dup4\n      swap1\n      mstore\n      sub(shl(0xa0, 0x01), 0x01)\n        /* \"node_modules/@dtobi59/crowdsale/contracts/crowdsale/Crowdsale.sol\":4669:4730  TokensPurchased(_msgSender(), beneficiary, weiAmount, tokens) */\n      dup6\n      and\n      swap2\n        /* \"@openzeppelin/contracts/utils/Context.sol\":719:729  msg.sender */\n      caller\n      swap2\n        /* \"node_modules/@dtobi59/crowdsale/contracts/crowdsale/Crowdsale.sol\":4669:4730  TokensPurchased(_msgSender(), beneficiary, weiAmount, tokens) */\n      0x6faf93231a456e552dbc9961f58d9713ee4f2e69d15f1975b050ef0911053a7b\n      swap2\n        /* \"#utility.yul\":2627:2645   */\n      add\n        /* \"node_modules/@dtobi59/crowdsale/contracts/crowdsale/Crowdsale.sol\":4669:4730  TokensPurchased(_msgSender(), beneficiary, weiAmount, tokens) */\n      mload(0x40)\n      dup1\n      swap2\n      sub\n      swap1\n      log3\n        /* \"node_modules/@dtobi59/crowdsale/contracts/crowdsale/Crowdsale.sol\":4798:4813  _forwardFunds() */\n      tag_103\n        /* \"node_modules/@dtobi59/crowdsale/contracts/crowdsale/Crowdsale.sol\":4798:4811  _forwardFunds */\n      tag_104\n        /* \"node_modules/@dtobi59/crowdsale/contracts/crowdsale/Crowdsale.sol\":4798:4813  _forwardFunds() */\n      jump\t// in\n    tag_103:\n      pop\n      pop\n        /* \"@openzeppelin/contracts/security/ReentrancyGuard.sol\":1701:1702  1 */\n      0x01\n        /* \"@openzeppelin/contracts/security/ReentrancyGuard.sol\":2628:2635  _status */\n      0x00\n        /* \"@openzeppelin/contracts/security/ReentrancyGuard.sol\":2628:2650  _status = _NOT_ENTERED */\n      sstore\n      pop\n        /* \"node_modules/@dtobi59/crowdsale/contracts/crowdsale/Crowdsale.sol\":4270:4875  function buyTokens(address beneficiary) public nonReentrant payable {... */\n      jump\t// out\n        /* \"@openzeppelin/contracts/access/AccessControl.sol\":2606:2808  function supportsInterface(bytes4 interfaceId) public view virtual override returns (bool) {... */\n    tag_30:\n        /* \"@openzeppelin/contracts/access/AccessControl.sol\":2691:2695  bool */\n      0x00\n      not(sub(shl(0xe0, 0x01), 0x01))\n        /* \"@openzeppelin/contracts/access/AccessControl.sol\":2714:2761  interfaceId == type(IAccessControl).interfaceId */\n      dup3\n      and\n      shl(0xe0, 0x7965db0b)\n      eq\n      dup1\n        /* \"@openzeppelin/contracts/access/AccessControl.sol\":2714:2801  interfaceId == type(IAccessControl).interfaceId || super.supportsInterface(interfaceId) */\n      tag_109\n      jumpi\n      pop\n      shl(0xe0, 0x01ffc9a7)\n      not(sub(shl(0xe0, 0x01), 0x01))\n        /* \"@openzeppelin/contracts/utils/introspection/ERC165.sol\":937:977  interfaceId == type(IERC165).interfaceId */\n      dup4\n      and\n      eq\n        /* \"@openzeppelin/contracts/access/AccessControl.sol\":2765:2801  super.supportsInterface(interfaceId) */\n    tag_109:\n        /* \"@openzeppelin/contracts/access/AccessControl.sol\":2707:2801  return interfaceId == type(IAccessControl).interfaceId || super.supportsInterface(interfaceId) */\n      swap3\n        /* \"@openzeppelin/contracts/access/AccessControl.sol\":2606:2808  function supportsInterface(bytes4 interfaceId) public view virtual override returns (bool) {... */\n      swap2\n      pop\n      pop\n      jump\t// out\n        /* \"@openzeppelin/contracts/access/AccessControl.sol\":4816:4961  function grantRole(bytes32 role, address account) public virtual override onlyRole(getRoleAdmin(role)) {... */\n    tag_49:\n        /* \"@openzeppelin/contracts/access/AccessControl.sol\":4465:4472  bytes32 */\n      0x00\n        /* \"@openzeppelin/contracts/access/AccessControl.sol\":4491:4503  _roles[role] */\n      dup3\n      dup2\n      mstore\n        /* \"@openzeppelin/contracts/access/AccessControl.sol\":4491:4497  _roles */\n      0x01\n        /* \"@openzeppelin/contracts/access/AccessControl.sol\":4491:4503  _roles[role] */\n      0x20\n      dup2\n      swap1\n      mstore\n      0x40\n      swap1\n      swap2\n      keccak256\n        /* \"@openzeppelin/contracts/access/AccessControl.sol\":4491:4513  _roles[role].adminRole */\n      add\n      sload\n        /* \"@openzeppelin/contracts/access/AccessControl.sol\":2505:2521  _checkRole(role) */\n      tag_115\n        /* \"@openzeppelin/contracts/access/AccessControl.sol\":2516:2520  role */\n      dup2\n        /* \"@openzeppelin/contracts/access/AccessControl.sol\":2505:2515  _checkRole */\n      tag_116\n        /* \"@openzeppelin/contracts/access/AccessControl.sol\":2505:2521  _checkRole(role) */\n      jump\t// in\n    tag_115:\n        /* \"@openzeppelin/contracts/access/AccessControl.sol\":4929:4954  _grantRole(role, account) */\n      tag_118\n        /* \"@openzeppelin/contracts/access/AccessControl.sol\":4940:4944  role */\n      dup4\n        /* \"@openzeppelin/contracts/access/AccessControl.sol\":4946:4953  account */\n      dup4\n        /* \"@openzeppelin/contracts/access/AccessControl.sol\":4929:4939  _grantRole */\n      tag_119\n        /* \"@openzeppelin/contracts/access/AccessControl.sol\":4929:4954  _grantRole(role, account) */\n      jump\t// in\n    tag_118:\n        /* \"@openzeppelin/contracts/access/AccessControl.sol\":4816:4961  function grantRole(bytes32 role, address account) public virtual override onlyRole(getRoleAdmin(role)) {... */\n      pop\n      pop\n      pop\n      jump\t// out\n        /* \"@openzeppelin/contracts/access/AccessControl.sol\":5925:6139  function renounceRole(bytes32 role, address account) public virtual override {... */\n    tag_53:\n      sub(shl(0xa0, 0x01), 0x01)\n        /* \"@openzeppelin/contracts/access/AccessControl.sol\":6020:6043  account == _msgSender() */\n      dup2\n      and\n        /* \"@openzeppelin/contracts/utils/Context.sol\":719:729  msg.sender */\n      caller\n        /* \"@openzeppelin/contracts/access/AccessControl.sol\":6020:6043  account == _msgSender() */\n      eq\n        /* \"@openzeppelin/contracts/access/AccessControl.sol\":6012:6095  require(account == _msgSender(), \"AccessControl: can only renounce roles for self\") */\n      tag_122\n      jumpi\n      mload(0x40)\n      shl(0xe5, 0x461bcd)\n      dup2\n      mstore\n        /* \"#utility.yul\":2935:2937   */\n      0x20\n        /* \"@openzeppelin/contracts/access/AccessControl.sol\":6012:6095  require(account == _msgSender(), \"AccessControl: can only renounce roles for self\") */\n      0x04\n      dup3\n      add\n        /* \"#utility.yul\":2917:2938   */\n      mstore\n        /* \"#utility.yul\":2974:2976   */\n      0x2f\n        /* \"#utility.yul\":2954:2972   */\n      0x24\n      dup3\n      add\n        /* \"#utility.yul\":2947:2977   */\n      mstore\n        /* \"#utility.yul\":3013:3047   */\n      0x416363657373436f6e74726f6c3a2063616e206f6e6c792072656e6f756e6365\n        /* \"#utility.yul\":2993:3011   */\n      0x44\n      dup3\n      add\n        /* \"#utility.yul\":2986:3048   */\n      mstore\n      shl(0x89, 0x103937b632b9903337b91039b2b633)\n        /* \"#utility.yul\":3064:3082   */\n      0x64\n      dup3\n      add\n        /* \"#utility.yul\":3057:3102   */\n      mstore\n        /* \"#utility.yul\":3119:3138   */\n      0x84\n      add\n        /* \"@openzeppelin/contracts/access/AccessControl.sol\":6012:6095  require(account == _msgSender(), \"AccessControl: can only renounce roles for self\") */\n      tag_87\n        /* \"#utility.yul\":2733:3144   */\n      jump\n        /* \"@openzeppelin/contracts/access/AccessControl.sol\":6012:6095  require(account == _msgSender(), \"AccessControl: can only renounce roles for self\") */\n    tag_122:\n        /* \"@openzeppelin/contracts/access/AccessControl.sol\":6106:6132  _revokeRole(role, account) */\n      tag_125\n        /* \"@openzeppelin/contracts/access/AccessControl.sol\":6118:6122  role */\n      dup3\n        /* \"@openzeppelin/contracts/access/AccessControl.sol\":6124:6131  account */\n      dup3\n        /* \"@openzeppelin/contracts/access/AccessControl.sol\":6106:6117  _revokeRole */\n      tag_126\n        /* \"@openzeppelin/contracts/access/AccessControl.sol\":6106:6132  _revokeRole(role, account) */\n      jump\t// in\n    tag_125:\n        /* \"@openzeppelin/contracts/access/AccessControl.sol\":5925:6139  function renounceRole(bytes32 role, address account) public virtual override {... */\n      pop\n      pop\n      jump\t// out\n        /* \"@openzeppelin/contracts/access/AccessControl.sol\":2895:3040  function hasRole(bytes32 role, address account) public view virtual override returns (bool) {... */\n    tag_66:\n        /* \"@openzeppelin/contracts/access/AccessControl.sol\":2981:2985  bool */\n      0x00\n        /* \"@openzeppelin/contracts/access/AccessControl.sol\":3004:3016  _roles[role] */\n      swap2\n      dup3\n      mstore\n        /* \"@openzeppelin/contracts/access/AccessControl.sol\":3004:3010  _roles */\n      0x01\n        /* \"@openzeppelin/contracts/access/AccessControl.sol\":3004:3016  _roles[role] */\n      0x20\n      swap1\n      dup2\n      mstore\n      0x40\n      dup1\n      dup5\n      keccak256\n      sub(shl(0xa0, 0x01), 0x01)\n        /* \"@openzeppelin/contracts/access/AccessControl.sol\":3004:3033  _roles[role].members[account] */\n      swap4\n      swap1\n      swap4\n      and\n      dup5\n      mstore\n      swap2\n      swap1\n      mstore\n      swap1\n      keccak256\n      sload\n      0xff\n      and\n      swap1\n        /* \"@openzeppelin/contracts/access/AccessControl.sol\":2895:3040  function hasRole(bytes32 role, address account) public view virtual override returns (bool) {... */\n      jump\t// out\n        /* \"@openzeppelin/contracts/access/AccessControl.sol\":5241:5388  function revokeRole(bytes32 role, address account) public virtual override onlyRole(getRoleAdmin(role)) {... */\n    tag_75:\n        /* \"@openzeppelin/contracts/access/AccessControl.sol\":4465:4472  bytes32 */\n      0x00\n        /* \"@openzeppelin/contracts/access/AccessControl.sol\":4491:4503  _roles[role] */\n      dup3\n      dup2\n      mstore\n        /* \"@openzeppelin/contracts/access/AccessControl.sol\":4491:4497  _roles */\n      0x01\n        /* \"@openzeppelin/contracts/access/AccessControl.sol\":4491:4503  _roles[role] */\n      0x20\n      dup2\n      swap1\n      mstore\n      0x40\n      swap1\n      swap2\n      keccak256\n        /* \"@openzeppelin/contracts/access/AccessControl.sol\":4491:4513  _roles[role].adminRole */\n      add\n      sload\n        /* \"@openzeppelin/contracts/access/AccessControl.sol\":2505:2521  _checkRole(role) */\n      tag_132\n        /* \"@openzeppelin/contracts/access/AccessControl.sol\":2516:2520  role */\n      dup2\n        /* \"@openzeppelin/contracts/access/AccessControl.sol\":2505:2515  _checkRole */\n      tag_116\n        /* \"@openzeppelin/contracts/access/AccessControl.sol\":2505:2521  _checkRole(role) */\n      jump\t// in\n    tag_132:\n        /* \"@openzeppelin/contracts/access/AccessControl.sol\":5355:5381  _revokeRole(role, account) */\n      tag_118\n        /* \"@openzeppelin/contracts/access/AccessControl.sol\":5367:5371  role */\n      dup4\n        /* \"@openzeppelin/contracts/access/AccessControl.sol\":5373:5380  account */\n      dup4\n        /* \"@openzeppelin/contracts/access/AccessControl.sol\":5355:5366  _revokeRole */\n      tag_126\n        /* \"@openzeppelin/contracts/access/AccessControl.sol\":5355:5381  _revokeRole(role, account) */\n      jump\t// in\n        /* \"node_modules/@dtobi59/crowdsale/contracts/crowdsale/Crowdsale.sol\":5417:5801  function _preValidatePurchase(address beneficiary, uint256 weiAmount) virtual internal view {... */\n    tag_91:\n      sub(shl(0xa0, 0x01), 0x01)\n        /* \"node_modules/@dtobi59/crowdsale/contracts/crowdsale/Crowdsale.sol\":5527:5552  beneficiary != address(0) */\n      dup3\n      and\n        /* \"node_modules/@dtobi59/crowdsale/contracts/crowdsale/Crowdsale.sol\":5519:5599  require(beneficiary != address(0), \"Crowdsale: beneficiary is the zero address\") */\n      tag_137\n      jumpi\n      mload(0x40)\n      shl(0xe5, 0x461bcd)\n      dup2\n      mstore\n        /* \"#utility.yul\":3351:3353   */\n      0x20\n        /* \"node_modules/@dtobi59/crowdsale/contracts/crowdsale/Crowdsale.sol\":5519:5599  require(beneficiary != address(0), \"Crowdsale: beneficiary is the zero address\") */\n      0x04\n      dup3\n      add\n        /* \"#utility.yul\":3333:3354   */\n      mstore\n        /* \"#utility.yul\":3390:3392   */\n      0x2a\n        /* \"#utility.yul\":3370:3388   */\n      0x24\n      dup3\n      add\n        /* \"#utility.yul\":3363:3393   */\n      mstore\n        /* \"#utility.yul\":3429:3463   */\n      0x43726f776473616c653a2062656e656669636961727920697320746865207a65\n        /* \"#utility.yul\":3409:3427   */\n      0x44\n      dup3\n      add\n        /* \"#utility.yul\":3402:3464   */\n      mstore\n      shl(0xb0, 0x726f2061646472657373)\n        /* \"#utility.yul\":3480:3498   */\n      0x64\n      dup3\n      add\n        /* \"#utility.yul\":3473:3513   */\n      mstore\n        /* \"#utility.yul\":3530:3549   */\n      0x84\n      add\n        /* \"node_modules/@dtobi59/crowdsale/contracts/crowdsale/Crowdsale.sol\":5519:5599  require(beneficiary != address(0), \"Crowdsale: beneficiary is the zero address\") */\n      tag_87\n        /* \"#utility.yul\":3149:3555   */\n      jump\n        /* \"node_modules/@dtobi59/crowdsale/contracts/crowdsale/Crowdsale.sol\":5519:5599  require(beneficiary != address(0), \"Crowdsale: beneficiary is the zero address\") */\n    tag_137:\n        /* \"node_modules/@dtobi59/crowdsale/contracts/crowdsale/Crowdsale.sol\":5617:5631  weiAmount != 0 */\n      dup1\n        /* \"node_modules/@dtobi59/crowdsale/contracts/crowdsale/Crowdsale.sol\":5609:5661  require(weiAmount != 0, \"Crowdsale: weiAmount is 0\") */\n      tag_125\n      jumpi\n      mload(0x40)\n      shl(0xe5, 0x461bcd)\n      dup2\n      mstore\n        /* \"#utility.yul\":3762:3764   */\n      0x20\n        /* \"node_modules/@dtobi59/crowdsale/contracts/crowdsale/Crowdsale.sol\":5609:5661  require(weiAmount != 0, \"Crowdsale: weiAmount is 0\") */\n      0x04\n      dup3\n      add\n        /* \"#utility.yul\":3744:3765   */\n      mstore\n        /* \"#utility.yul\":3801:3803   */\n      0x19\n        /* \"#utility.yul\":3781:3799   */\n      0x24\n      dup3\n      add\n        /* \"#utility.yul\":3774:3804   */\n      mstore\n        /* \"#utility.yul\":3840:3867   */\n      0x43726f776473616c653a20776569416d6f756e74206973203000000000000000\n        /* \"#utility.yul\":3820:3838   */\n      0x44\n      dup3\n      add\n        /* \"#utility.yul\":3813:3868   */\n      mstore\n        /* \"#utility.yul\":3885:3903   */\n      0x64\n      add\n        /* \"node_modules/@dtobi59/crowdsale/contracts/crowdsale/Crowdsale.sol\":5609:5661  require(weiAmount != 0, \"Crowdsale: weiAmount is 0\") */\n      tag_87\n        /* \"#utility.yul\":3560:3909   */\n      jump\n        /* \"node_modules/@dtobi59/crowdsale/contracts/crowdsale/Crowdsale.sol\":7759:7887  function _getTokenAmount(uint256 weiAmount) virtual internal view returns (uint256) {... */\n    tag_93:\n        /* \"node_modules/@dtobi59/crowdsale/contracts/crowdsale/Crowdsale.sol\":7834:7841  uint256 */\n      0x00\n        /* \"node_modules/@dtobi59/crowdsale/contracts/crowdsale/Crowdsale.sol\":7860:7880  weiAmount.mul(_rate) */\n      tag_109\n        /* \"node_modules/@dtobi59/crowdsale/contracts/crowdsale/Crowdsale.sol\":7874:7879  _rate */\n      sload(0x04)\n        /* \"node_modules/@dtobi59/crowdsale/contracts/crowdsale/Crowdsale.sol\":7860:7869  weiAmount */\n      dup4\n        /* \"node_modules/@dtobi59/crowdsale/contracts/crowdsale/Crowdsale.sol\":7860:7873  weiAmount.mul */\n      tag_145\n      swap1\n        /* \"node_modules/@dtobi59/crowdsale/contracts/crowdsale/Crowdsale.sol\":7860:7880  weiAmount.mul(_rate) */\n      swap2\n      swap1\n      0xffffffff\n      and\n      jump\t// in\n        /* \"@openzeppelin/contracts/utils/math/SafeMath.sol\":2755:2851  function add(uint256 a, uint256 b) internal pure returns (uint256) {... */\n    tag_95:\n        /* \"@openzeppelin/contracts/utils/math/SafeMath.sol\":2813:2820  uint256 */\n      0x00\n        /* \"@openzeppelin/contracts/utils/math/SafeMath.sol\":2839:2844  a + b */\n      tag_147\n        /* \"@openzeppelin/contracts/utils/math/SafeMath.sol\":2843:2844  b */\n      dup3\n        /* \"@openzeppelin/contracts/utils/math/SafeMath.sol\":2839:2840  a */\n      dup5\n        /* \"@openzeppelin/contracts/utils/math/SafeMath.sol\":2839:2844  a + b */\n      tag_148\n      jump\t// in\n    tag_147:\n        /* \"@openzeppelin/contracts/utils/math/SafeMath.sol\":2832:2844  return a + b */\n      swap4\n        /* \"@openzeppelin/contracts/utils/math/SafeMath.sol\":2755:2851  function add(uint256 a, uint256 b) internal pure returns (uint256) {... */\n      swap3\n      pop\n      pop\n      pop\n      jump\t// out\n        /* \"node_modules/@dtobi59/crowdsale/contracts/crowdsale/Crowdsale.sol\":6944:7087  function _processPurchase(address beneficiary, uint256 tokenAmount) virtual  internal {... */\n    tag_97:\n        /* \"node_modules/@dtobi59/crowdsale/contracts/crowdsale/Crowdsale.sol\":7040:7080  _deliverTokens(beneficiary, tokenAmount) */\n      tag_125\n        /* \"node_modules/@dtobi59/crowdsale/contracts/crowdsale/Crowdsale.sol\":7055:7066  beneficiary */\n      dup3\n        /* \"node_modules/@dtobi59/crowdsale/contracts/crowdsale/Crowdsale.sol\":7068:7079  tokenAmount */\n      dup3\n        /* \"node_modules/@dtobi59/crowdsale/contracts/crowdsale/Crowdsale.sol\":7040:7054  _deliverTokens */\n      tag_151\n        /* \"node_modules/@dtobi59/crowdsale/contracts/crowdsale/Crowdsale.sol\":7040:7080  _deliverTokens(beneficiary, tokenAmount) */\n      jump\t// in\n        /* \"node_modules/@dtobi59/crowdsale/contracts/crowdsale/Crowdsale.sol\":7974:8052  function _forwardFunds() internal {... */\n    tag_104:\n        /* \"node_modules/@dtobi59/crowdsale/contracts/crowdsale/Crowdsale.sol\":8018:8025  _wallet */\n      sload(0x03)\n        /* \"node_modules/@dtobi59/crowdsale/contracts/crowdsale/Crowdsale.sol\":8018:8045  _wallet.transfer(msg.value) */\n      mload(0x40)\n      sub(shl(0xa0, 0x01), 0x01)\n        /* \"node_modules/@dtobi59/crowdsale/contracts/crowdsale/Crowdsale.sol\":8018:8025  _wallet */\n      swap1\n      swap2\n      and\n      swap1\n        /* \"node_modules/@dtobi59/crowdsale/contracts/crowdsale/Crowdsale.sol\":8035:8044  msg.value */\n      callvalue\n        /* \"node_modules/@dtobi59/crowdsale/contracts/crowdsale/Crowdsale.sol\":8018:8045  _wallet.transfer(msg.value) */\n      dup1\n      iszero\n      0x08fc\n      mul\n      swap2\n        /* \"node_modules/@dtobi59/crowdsale/contracts/crowdsale/Crowdsale.sol\":8018:8025  _wallet */\n      0x00\n        /* \"node_modules/@dtobi59/crowdsale/contracts/crowdsale/Crowdsale.sol\":8018:8045  _wallet.transfer(msg.value) */\n      dup2\n        /* \"node_modules/@dtobi59/crowdsale/contracts/crowdsale/Crowdsale.sol\":8018:8025  _wallet */\n      dup2\n        /* \"node_modules/@dtobi59/crowdsale/contracts/crowdsale/Crowdsale.sol\":8018:8045  _wallet.transfer(msg.value) */\n      dup2\n        /* \"node_modules/@dtobi59/crowdsale/contracts/crowdsale/Crowdsale.sol\":8035:8044  msg.value */\n      dup6\n        /* \"node_modules/@dtobi59/crowdsale/contracts/crowdsale/Crowdsale.sol\":8018:8025  _wallet */\n      dup9\n        /* \"node_modules/@dtobi59/crowdsale/contracts/crowdsale/Crowdsale.sol\":8018:8045  _wallet.transfer(msg.value) */\n      dup9\n      call\n      swap4\n      pop\n      pop\n      pop\n      pop\n      iszero\n      dup1\n      iszero\n      tag_155\n      jumpi\n      returndatasize\n      0x00\n      dup1\n      returndatacopy\n      revert(0x00, returndatasize)\n    tag_155:\n      pop\n        /* \"node_modules/@dtobi59/crowdsale/contracts/crowdsale/Crowdsale.sol\":7974:8052  function _forwardFunds() internal {... */\n      jump\t// out\n        /* \"@openzeppelin/contracts/access/AccessControl.sol\":3334:3437  function _checkRole(bytes32 role) internal view virtual {... */\n    tag_116:\n        /* \"@openzeppelin/contracts/access/AccessControl.sol\":3400:3430  _checkRole(role, _msgSender()) */\n      tag_155\n        /* \"@openzeppelin/contracts/access/AccessControl.sol\":3411:3415  role */\n      dup2\n        /* \"@openzeppelin/contracts/utils/Context.sol\":719:729  msg.sender */\n      caller\n        /* \"@openzeppelin/contracts/access/AccessControl.sol\":3400:3410  _checkRole */\n      tag_161\n        /* \"@openzeppelin/contracts/access/AccessControl.sol\":3400:3430  _checkRole(role, _msgSender()) */\n      jump\t// in\n        /* \"@openzeppelin/contracts/access/AccessControl.sol\":7474:7707  function _grantRole(bytes32 role, address account) internal virtual {... */\n    tag_119:\n        /* \"@openzeppelin/contracts/access/AccessControl.sol\":7557:7579  hasRole(role, account) */\n      tag_163\n        /* \"@openzeppelin/contracts/access/AccessControl.sol\":7565:7569  role */\n      dup3\n        /* \"@openzeppelin/contracts/access/AccessControl.sol\":7571:7578  account */\n      dup3\n        /* \"@openzeppelin/contracts/access/AccessControl.sol\":7557:7564  hasRole */\n      tag_66\n        /* \"@openzeppelin/contracts/access/AccessControl.sol\":7557:7579  hasRole(role, account) */\n      jump\t// in\n    tag_163:\n        /* \"@openzeppelin/contracts/access/AccessControl.sol\":7552:7701  if (!hasRole(role, account)) {... */\n      tag_125\n      jumpi\n        /* \"@openzeppelin/contracts/access/AccessControl.sol\":7595:7607  _roles[role] */\n      0x00\n      dup3\n      dup2\n      mstore\n        /* \"@openzeppelin/contracts/access/AccessControl.sol\":7627:7631  true */\n      0x01\n        /* \"@openzeppelin/contracts/access/AccessControl.sol\":7595:7607  _roles[role] */\n      0x20\n      dup2\n      dup2\n      mstore\n      0x40\n      dup1\n      dup5\n      keccak256\n      sub(shl(0xa0, 0x01), 0x01)\n        /* \"@openzeppelin/contracts/access/AccessControl.sol\":7595:7624  _roles[role].members[account] */\n      dup7\n      and\n      dup1\n      dup7\n      mstore\n      swap3\n      mstore\n      dup1\n      dup5\n      keccak256\n        /* \"@openzeppelin/contracts/access/AccessControl.sol\":7595:7631  _roles[role].members[account] = true */\n      dup1\n      sload\n      not(0xff)\n      and\n      swap1\n      swap4\n      or\n      swap1\n      swap3\n      sstore\n        /* \"@openzeppelin/contracts/access/AccessControl.sol\":7650:7690  RoleGranted(role, account, _msgSender()) */\n      swap1\n      mload\n        /* \"@openzeppelin/contracts/utils/Context.sol\":719:729  msg.sender */\n      caller\n      swap3\n        /* \"@openzeppelin/contracts/access/AccessControl.sol\":7595:7607  _roles[role] */\n      dup6\n      swap2\n        /* \"@openzeppelin/contracts/access/AccessControl.sol\":7650:7690  RoleGranted(role, account, _msgSender()) */\n      0x2f8788117e7eff1d82e926ec794901d17c78024a50270940304540a733656f0d\n      swap2\n        /* \"@openzeppelin/contracts/access/AccessControl.sol\":7595:7607  _roles[role] */\n      swap1\n        /* \"@openzeppelin/contracts/access/AccessControl.sol\":7650:7690  RoleGranted(role, account, _msgSender()) */\n      log4\n        /* \"@openzeppelin/contracts/access/AccessControl.sol\":7474:7707  function _grantRole(bytes32 role, address account) internal virtual {... */\n      pop\n      pop\n      jump\t// out\n        /* \"@openzeppelin/contracts/access/AccessControl.sol\":7878:8112  function _revokeRole(bytes32 role, address account) internal virtual {... */\n    tag_126:\n        /* \"@openzeppelin/contracts/access/AccessControl.sol\":7961:7983  hasRole(role, account) */\n      tag_167\n        /* \"@openzeppelin/contracts/access/AccessControl.sol\":7969:7973  role */\n      dup3\n        /* \"@openzeppelin/contracts/access/AccessControl.sol\":7975:7982  account */\n      dup3\n        /* \"@openzeppelin/contracts/access/AccessControl.sol\":7961:7968  hasRole */\n      tag_66\n        /* \"@openzeppelin/contracts/access/AccessControl.sol\":7961:7983  hasRole(role, account) */\n      jump\t// in\n    tag_167:\n        /* \"@openzeppelin/contracts/access/AccessControl.sol\":7957:8106  if (hasRole(role, account)) {... */\n      iszero\n      tag_125\n      jumpi\n        /* \"@openzeppelin/contracts/access/AccessControl.sol\":8031:8036  false */\n      0x00\n        /* \"@openzeppelin/contracts/access/AccessControl.sol\":7999:8011  _roles[role] */\n      dup3\n      dup2\n      mstore\n        /* \"@openzeppelin/contracts/access/AccessControl.sol\":7999:8005  _roles */\n      0x01\n        /* \"@openzeppelin/contracts/access/AccessControl.sol\":7999:8011  _roles[role] */\n      0x20\n      swap1\n      dup2\n      mstore\n      0x40\n      dup1\n      dup4\n      keccak256\n      sub(shl(0xa0, 0x01), 0x01)\n        /* \"@openzeppelin/contracts/access/AccessControl.sol\":7999:8028  _roles[role].members[account] */\n      dup6\n      and\n      dup1\n      dup6\n      mstore\n      swap3\n      mstore\n      dup1\n      dup4\n      keccak256\n        /* \"@openzeppelin/contracts/access/AccessControl.sol\":7999:8036  _roles[role].members[account] = false */\n      dup1\n      sload\n      not(0xff)\n      and\n      swap1\n      sstore\n        /* \"@openzeppelin/contracts/access/AccessControl.sol\":8055:8095  RoleRevoked(role, account, _msgSender()) */\n      mload\n        /* \"@openzeppelin/contracts/utils/Context.sol\":719:729  msg.sender */\n      caller\n      swap3\n        /* \"@openzeppelin/contracts/access/AccessControl.sol\":7999:8011  _roles[role] */\n      dup6\n      swap2\n        /* \"@openzeppelin/contracts/access/AccessControl.sol\":8055:8095  RoleRevoked(role, account, _msgSender()) */\n      0xf6391f5c32d9c69d2a47ea670b442974b53935d1edc7fd64eb21e047a839171b\n      swap2\n        /* \"@openzeppelin/contracts/access/AccessControl.sol\":8031:8036  false */\n      swap1\n        /* \"@openzeppelin/contracts/access/AccessControl.sol\":8055:8095  RoleRevoked(role, account, _msgSender()) */\n      log4\n        /* \"@openzeppelin/contracts/access/AccessControl.sol\":7878:8112  function _revokeRole(bytes32 role, address account) internal virtual {... */\n      pop\n      pop\n      jump\t// out\n        /* \"@openzeppelin/contracts/utils/math/SafeMath.sol\":3465:3561  function mul(uint256 a, uint256 b) internal pure returns (uint256) {... */\n    tag_145:\n        /* \"@openzeppelin/contracts/utils/math/SafeMath.sol\":3523:3530  uint256 */\n      0x00\n        /* \"@openzeppelin/contracts/utils/math/SafeMath.sol\":3549:3554  a * b */\n      tag_147\n        /* \"@openzeppelin/contracts/utils/math/SafeMath.sol\":3553:3554  b */\n      dup3\n        /* \"@openzeppelin/contracts/utils/math/SafeMath.sol\":3549:3550  a */\n      dup5\n        /* \"@openzeppelin/contracts/utils/math/SafeMath.sol\":3549:3554  a * b */\n      tag_172\n      jump\t// in\n        /* \"node_modules/@dtobi59/crowdsale/contracts/crowdsale/Crowdsale.sol\":6533:6678  function _deliverTokens(address beneficiary, uint256 tokenAmount) virtual internal {... */\n    tag_151:\n        /* \"node_modules/@dtobi59/crowdsale/contracts/crowdsale/Crowdsale.sol\":6626:6632  _token */\n      sload(0x02)\n        /* \"node_modules/@dtobi59/crowdsale/contracts/crowdsale/Crowdsale.sol\":6626:6671  _token.safeTransfer(beneficiary, tokenAmount) */\n      tag_125\n      swap1\n      sub(shl(0xa0, 0x01), 0x01)\n        /* \"node_modules/@dtobi59/crowdsale/contracts/crowdsale/Crowdsale.sol\":6626:6632  _token */\n      and\n        /* \"node_modules/@dtobi59/crowdsale/contracts/crowdsale/Crowdsale.sol\":6646:6657  beneficiary */\n      dup4\n        /* \"node_modules/@dtobi59/crowdsale/contracts/crowdsale/Crowdsale.sol\":6659:6670  tokenAmount */\n      dup4\n        /* \"node_modules/@dtobi59/crowdsale/contracts/crowdsale/Crowdsale.sol\":6626:6645  _token.safeTransfer */\n      tag_175\n        /* \"node_modules/@dtobi59/crowdsale/contracts/crowdsale/Crowdsale.sol\":6626:6671  _token.safeTransfer(beneficiary, tokenAmount) */\n      jump\t// in\n        /* \"@openzeppelin/contracts/access/AccessControl.sol\":3718:4210  function _checkRole(bytes32 role, address account) internal view virtual {... */\n    tag_161:\n        /* \"@openzeppelin/contracts/access/AccessControl.sol\":3806:3828  hasRole(role, account) */\n      tag_177\n        /* \"@openzeppelin/contracts/access/AccessControl.sol\":3814:3818  role */\n      dup3\n        /* \"@openzeppelin/contracts/access/AccessControl.sol\":3820:3827  account */\n      dup3\n        /* \"@openzeppelin/contracts/access/AccessControl.sol\":3806:3813  hasRole */\n      tag_66\n        /* \"@openzeppelin/contracts/access/AccessControl.sol\":3806:3828  hasRole(role, account) */\n      jump\t// in\n    tag_177:\n        /* \"@openzeppelin/contracts/access/AccessControl.sol\":3801:4204  if (!hasRole(role, account)) {... */\n      tag_125\n      jumpi\n        /* \"@openzeppelin/contracts/access/AccessControl.sol\":3989:4030  Strings.toHexString(uint160(account), 20) */\n      tag_179\n        /* \"@openzeppelin/contracts/access/AccessControl.sol\":4017:4024  account */\n      dup2\n      sub(shl(0xa0, 0x01), 0x01)\n        /* \"@openzeppelin/contracts/access/AccessControl.sol\":3989:4030  Strings.toHexString(uint160(account), 20) */\n      and\n        /* \"@openzeppelin/contracts/access/AccessControl.sol\":4027:4029  20 */\n      0x14\n        /* \"@openzeppelin/contracts/access/AccessControl.sol\":3989:4008  Strings.toHexString */\n      tag_180\n        /* \"@openzeppelin/contracts/access/AccessControl.sol\":3989:4030  Strings.toHexString(uint160(account), 20) */\n      jump\t// in\n    tag_179:\n        /* \"@openzeppelin/contracts/access/AccessControl.sol\":4101:4139  Strings.toHexString(uint256(role), 32) */\n      tag_181\n        /* \"@openzeppelin/contracts/access/AccessControl.sol\":4129:4133  role */\n      dup4\n        /* \"@openzeppelin/contracts/access/AccessControl.sol\":4136:4138  32 */\n      0x20\n        /* \"@openzeppelin/contracts/access/AccessControl.sol\":4101:4120  Strings.toHexString */\n      tag_180\n        /* \"@openzeppelin/contracts/access/AccessControl.sol\":4101:4139  Strings.toHexString(uint256(role), 32) */\n      jump\t// in\n    tag_181:\n        /* \"@openzeppelin/contracts/access/AccessControl.sol\":3896:4161  abi.encodePacked(... */\n      add(0x20, mload(0x40))\n      tag_182\n      swap3\n      swap2\n      swap1\n      tag_183\n      jump\t// in\n    tag_182:\n      0x40\n      dup1\n      mload\n      not(0x1f)\n      dup2\n      dup5\n      sub\n      add\n      dup2\n      mstore\n      swap1\n      dup3\n      swap1\n      mstore\n      shl(0xe5, 0x461bcd)\n        /* \"@openzeppelin/contracts/access/AccessControl.sol\":3844:4193  revert(... */\n      dup3\n      mstore\n      tag_87\n      swap2\n      0x04\n      add\n      tag_185\n      jump\t// in\n        /* \"@openzeppelin/contracts/token/ERC20/utils/SafeERC20.sol\":763:968  function safeTransfer(... */\n    tag_175:\n        /* \"@openzeppelin/contracts/token/ERC20/utils/SafeERC20.sol\":902:960  abi.encodeWithSelector(token.transfer.selector, to, value) */\n      0x40\n      dup1\n      mload\n      sub(shl(0xa0, 0x01), 0x01)\n        /* \"#utility.yul\":5986:6018   */\n      dup5\n      and\n        /* \"@openzeppelin/contracts/token/ERC20/utils/SafeERC20.sol\":902:960  abi.encodeWithSelector(token.transfer.selector, to, value) */\n      0x24\n      dup3\n      add\n        /* \"#utility.yul\":5968:6019   */\n      mstore\n        /* \"#utility.yul\":6035:6053   */\n      0x44\n      dup1\n      dup3\n      add\n        /* \"#utility.yul\":6028:6062   */\n      dup5\n      swap1\n      mstore\n        /* \"@openzeppelin/contracts/token/ERC20/utils/SafeERC20.sol\":902:960  abi.encodeWithSelector(token.transfer.selector, to, value) */\n      dup3\n      mload\n      dup1\n      dup4\n      sub\n      swap1\n      swap2\n      add\n      dup2\n      mstore\n        /* \"#utility.yul\":5941:5959   */\n      0x64\n      swap1\n      swap2\n      add\n        /* \"@openzeppelin/contracts/token/ERC20/utils/SafeERC20.sol\":902:960  abi.encodeWithSelector(token.transfer.selector, to, value) */\n      swap1\n      swap2\n      mstore\n      0x20\n      dup2\n      add\n      dup1\n      mload\n      sub(shl(0xe0, 0x01), 0x01)\n      and\n      shl(0xe0, 0xa9059cbb)\n      or\n      swap1\n      mstore\n        /* \"@openzeppelin/contracts/token/ERC20/utils/SafeERC20.sol\":875:961  _callOptionalReturn(token, abi.encodeWithSelector(token.transfer.selector, to, value)) */\n      tag_118\n      swap1\n        /* \"@openzeppelin/contracts/token/ERC20/utils/SafeERC20.sol\":895:900  token */\n      dup5\n      swap1\n        /* \"@openzeppelin/contracts/token/ERC20/utils/SafeERC20.sol\":875:894  _callOptionalReturn */\n      tag_190\n        /* \"@openzeppelin/contracts/token/ERC20/utils/SafeERC20.sol\":875:961  _callOptionalReturn(token, abi.encodeWithSelector(token.transfer.selector, to, value)) */\n      jump\t// in\n        /* \"@openzeppelin/contracts/utils/Strings.sol\":1652:2093  function toHexString(uint256 value, uint256 length) internal pure returns (string memory) {... */\n    tag_180:\n        /* \"@openzeppelin/contracts/utils/Strings.sol\":1727:1740  string memory */\n      0x60\n        /* \"@openzeppelin/contracts/utils/Strings.sol\":1752:1771  bytes memory buffer */\n      0x00\n        /* \"@openzeppelin/contracts/utils/Strings.sol\":1784:1794  2 * length */\n      tag_192\n        /* \"@openzeppelin/contracts/utils/Strings.sol\":1788:1794  length */\n      dup4\n        /* \"@openzeppelin/contracts/utils/Strings.sol\":1784:1785  2 */\n      0x02\n        /* \"@openzeppelin/contracts/utils/Strings.sol\":1784:1794  2 * length */\n      tag_172\n      jump\t// in\n    tag_192:\n        /* \"@openzeppelin/contracts/utils/Strings.sol\":1784:1798  2 * length + 2 */\n      tag_193\n      swap1\n        /* \"@openzeppelin/contracts/utils/Strings.sol\":1797:1798  2 */\n      0x02\n        /* \"@openzeppelin/contracts/utils/Strings.sol\":1784:1798  2 * length + 2 */\n      tag_148\n      jump\t// in\n    tag_193:\n        /* \"@openzeppelin/contracts/utils/Strings.sol\":1774:1799  new bytes(2 * length + 2) */\n      0xffffffffffffffff\n      dup2\n      gt\n      iszero\n      tag_195\n      jumpi\n      tag_195\n      tag_196\n      jump\t// in\n    tag_195:\n      mload(0x40)\n      swap1\n      dup1\n      dup3\n      mstore\n      dup1\n      0x1f\n      add\n      not(0x1f)\n      and\n      0x20\n      add\n      dup3\n      add\n      0x40\n      mstore\n      dup1\n      iszero\n      tag_197\n      jumpi\n      0x20\n      dup3\n      add\n      dup2\n      dup1\n      calldatasize\n      dup4\n      calldatacopy\n      add\n      swap1\n      pop\n    tag_197:\n      pop\n        /* \"@openzeppelin/contracts/utils/Strings.sol\":1752:1799  bytes memory buffer = new bytes(2 * length + 2) */\n      swap1\n      pop\n      shl(0xfc, 0x03)\n        /* \"@openzeppelin/contracts/utils/Strings.sol\":1809:1815  buffer */\n      dup2\n        /* \"@openzeppelin/contracts/utils/Strings.sol\":1816:1817  0 */\n      0x00\n        /* \"@openzeppelin/contracts/utils/Strings.sol\":1809:1818  buffer[0] */\n      dup2\n      mload\n      dup2\n      lt\n      tag_199\n      jumpi\n      tag_199\n      tag_200\n      jump\t// in\n    tag_199:\n      0x20\n      add\n      add\n        /* \"@openzeppelin/contracts/utils/Strings.sol\":1809:1824  buffer[0] = \"0\" */\n      swap1\n      not(sub(shl(0xf8, 0x01), 0x01))\n      and\n      swap1\n      dup2\n      0x00\n      byte\n      swap1\n      mstore8\n      pop\n      shl(0xfb, 0x0f)\n        /* \"@openzeppelin/contracts/utils/Strings.sol\":1834:1840  buffer */\n      dup2\n        /* \"@openzeppelin/contracts/utils/Strings.sol\":1841:1842  1 */\n      0x01\n        /* \"@openzeppelin/contracts/utils/Strings.sol\":1834:1843  buffer[1] */\n      dup2\n      mload\n      dup2\n      lt\n      tag_202\n      jumpi\n      tag_202\n      tag_200\n      jump\t// in\n    tag_202:\n      0x20\n      add\n      add\n        /* \"@openzeppelin/contracts/utils/Strings.sol\":1834:1849  buffer[1] = \"x\" */\n      swap1\n      not(sub(shl(0xf8, 0x01), 0x01))\n      and\n      swap1\n      dup2\n      0x00\n      byte\n      swap1\n      mstore8\n      pop\n        /* \"@openzeppelin/contracts/utils/Strings.sol\":1864:1873  uint256 i */\n      0x00\n        /* \"@openzeppelin/contracts/utils/Strings.sol\":1876:1886  2 * length */\n      tag_206\n        /* \"@openzeppelin/contracts/utils/Strings.sol\":1880:1886  length */\n      dup5\n        /* \"@openzeppelin/contracts/utils/Strings.sol\":1876:1877  2 */\n      0x02\n        /* \"@openzeppelin/contracts/utils/Strings.sol\":1876:1886  2 * length */\n      tag_172\n      jump\t// in\n    tag_206:\n        /* \"@openzeppelin/contracts/utils/Strings.sol\":1876:1890  2 * length + 1 */\n      tag_207\n      swap1\n        /* \"@openzeppelin/contracts/utils/Strings.sol\":1889:1890  1 */\n      0x01\n        /* \"@openzeppelin/contracts/utils/Strings.sol\":1876:1890  2 * length + 1 */\n      tag_148\n      jump\t// in\n    tag_207:\n        /* \"@openzeppelin/contracts/utils/Strings.sol\":1864:1890  uint256 i = 2 * length + 1 */\n      swap1\n      pop\n        /* \"@openzeppelin/contracts/utils/Strings.sol\":1859:1991  for (uint256 i = 2 * length + 1; i > 1; --i) {... */\n    tag_203:\n        /* \"@openzeppelin/contracts/utils/Strings.sol\":1896:1897  1 */\n      0x01\n        /* \"@openzeppelin/contracts/utils/Strings.sol\":1892:1893  i */\n      dup2\n        /* \"@openzeppelin/contracts/utils/Strings.sol\":1892:1897  i > 1 */\n      gt\n        /* \"@openzeppelin/contracts/utils/Strings.sol\":1859:1991  for (uint256 i = 2 * length + 1; i > 1; --i) {... */\n      iszero\n      tag_204\n      jumpi\n      shl(0x81, 0x181899199a1a9b1b9c1cb0b131b232b3)\n        /* \"@openzeppelin/contracts/utils/Strings.sol\":1943:1948  value */\n      dup6\n        /* \"@openzeppelin/contracts/utils/Strings.sol\":1951:1954  0xf */\n      0x0f\n        /* \"@openzeppelin/contracts/utils/Strings.sol\":1943:1954  value & 0xf */\n      and\n        /* \"@openzeppelin/contracts/utils/Strings.sol\":1930:1955  _HEX_SYMBOLS[value & 0xf] */\n      0x10\n      dup2\n      lt\n      tag_209\n      jumpi\n      tag_209\n      tag_200\n      jump\t// in\n    tag_209:\n      byte\n      0xf8\n      shl\n        /* \"@openzeppelin/contracts/utils/Strings.sol\":1918:1924  buffer */\n      dup3\n        /* \"@openzeppelin/contracts/utils/Strings.sol\":1925:1926  i */\n      dup3\n        /* \"@openzeppelin/contracts/utils/Strings.sol\":1918:1927  buffer[i] */\n      dup2\n      mload\n      dup2\n      lt\n      tag_211\n      jumpi\n      tag_211\n      tag_200\n      jump\t// in\n    tag_211:\n      0x20\n      add\n      add\n        /* \"@openzeppelin/contracts/utils/Strings.sol\":1918:1955  buffer[i] = _HEX_SYMBOLS[value & 0xf] */\n      swap1\n      not(sub(shl(0xf8, 0x01), 0x01))\n      and\n      swap1\n      dup2\n      0x00\n      byte\n      swap1\n      mstore8\n      pop\n        /* \"@openzeppelin/contracts/utils/Strings.sol\":1979:1980  4 */\n      0x04\n        /* \"@openzeppelin/contracts/utils/Strings.sol\":1969:1980  value >>= 4 */\n      swap5\n      swap1\n      swap5\n      shr\n      swap4\n        /* \"@openzeppelin/contracts/utils/Strings.sol\":1899:1902  --i */\n      tag_212\n      dup2\n      tag_213\n      jump\t// in\n    tag_212:\n      swap1\n      pop\n        /* \"@openzeppelin/contracts/utils/Strings.sol\":1859:1991  for (uint256 i = 2 * length + 1; i > 1; --i) {... */\n      jump(tag_203)\n    tag_204:\n      pop\n        /* \"@openzeppelin/contracts/utils/Strings.sol\":2008:2018  value == 0 */\n      dup4\n      iszero\n        /* \"@openzeppelin/contracts/utils/Strings.sol\":2000:2055  require(value == 0, \"Strings: hex length insufficient\") */\n      tag_147\n      jumpi\n      mload(0x40)\n      shl(0xe5, 0x461bcd)\n      dup2\n      mstore\n        /* \"#utility.yul\":6680:6682   */\n      0x20\n        /* \"@openzeppelin/contracts/utils/Strings.sol\":2000:2055  require(value == 0, \"Strings: hex length insufficient\") */\n      0x04\n      dup3\n      add\n        /* \"#utility.yul\":6662:6683   */\n      dup2\n      swap1\n      mstore\n        /* \"#utility.yul\":6699:6717   */\n      0x24\n      dup3\n      add\n        /* \"#utility.yul\":6692:6722   */\n      mstore\n        /* \"#utility.yul\":6758:6792   */\n      0x537472696e67733a20686578206c656e67746820696e73756666696369656e74\n        /* \"#utility.yul\":6738:6756   */\n      0x44\n      dup3\n      add\n        /* \"#utility.yul\":6731:6793   */\n      mstore\n        /* \"#utility.yul\":6810:6828   */\n      0x64\n      add\n        /* \"@openzeppelin/contracts/utils/Strings.sol\":2000:2055  require(value == 0, \"Strings: hex length insufficient\") */\n      tag_87\n        /* \"#utility.yul\":6478:6834   */\n      jump\n        /* \"@openzeppelin/contracts/token/ERC20/utils/SafeERC20.sol\":3747:4453  function _callOptionalReturn(IERC20 token, bytes memory data) private {... */\n    tag_190:\n        /* \"@openzeppelin/contracts/token/ERC20/utils/SafeERC20.sol\":4166:4189  bytes memory returndata */\n      0x00\n        /* \"@openzeppelin/contracts/token/ERC20/utils/SafeERC20.sol\":4192:4261  address(token).functionCall(data, \"SafeERC20: low-level call failed\") */\n      tag_218\n        /* \"@openzeppelin/contracts/token/ERC20/utils/SafeERC20.sol\":4220:4224  data */\n      dup3\n        /* \"@openzeppelin/contracts/token/ERC20/utils/SafeERC20.sol\":4192:4261  address(token).functionCall(data, \"SafeERC20: low-level call failed\") */\n      mload(0x40)\n      dup1\n      0x40\n      add\n      0x40\n      mstore\n      dup1\n      0x20\n      dup2\n      mstore\n      0x20\n      add\n      0x5361666545524332303a206c6f772d6c6576656c2063616c6c206661696c6564\n      dup2\n      mstore\n      pop\n        /* \"@openzeppelin/contracts/token/ERC20/utils/SafeERC20.sol\":4200:4205  token */\n      dup6\n      sub(shl(0xa0, 0x01), 0x01)\n        /* \"@openzeppelin/contracts/token/ERC20/utils/SafeERC20.sol\":4192:4219  address(token).functionCall */\n      and\n      tag_219\n      swap1\n        /* \"@openzeppelin/contracts/token/ERC20/utils/SafeERC20.sol\":4192:4261  address(token).functionCall(data, \"SafeERC20: low-level call failed\") */\n      swap3\n      swap2\n      swap1\n      0xffffffff\n      and\n      jump\t// in\n    tag_218:\n        /* \"@openzeppelin/contracts/token/ERC20/utils/SafeERC20.sol\":4275:4292  returndata.length */\n      dup1\n      mload\n        /* \"@openzeppelin/contracts/token/ERC20/utils/SafeERC20.sol\":4166:4261  bytes memory returndata = address(token).functionCall(data, \"SafeERC20: low-level call failed\") */\n      swap1\n      swap2\n      pop\n        /* \"@openzeppelin/contracts/token/ERC20/utils/SafeERC20.sol\":4275:4296  returndata.length > 0 */\n      iszero\n        /* \"@openzeppelin/contracts/token/ERC20/utils/SafeERC20.sol\":4271:4447  if (returndata.length > 0) {... */\n      tag_118\n      jumpi\n        /* \"@openzeppelin/contracts/token/ERC20/utils/SafeERC20.sol\":4370:4380  returndata */\n      dup1\n        /* \"@openzeppelin/contracts/token/ERC20/utils/SafeERC20.sol\":4359:4389  abi.decode(returndata, (bool)) */\n      dup1\n      0x20\n      add\n      swap1\n      mload\n      dup2\n      add\n      swap1\n      tag_221\n      swap2\n      swap1\n      tag_222\n      jump\t// in\n    tag_221:\n        /* \"@openzeppelin/contracts/token/ERC20/utils/SafeERC20.sol\":4351:4436  require(abi.decode(returndata, (bool)), \"SafeERC20: ERC20 operation did not succeed\") */\n      tag_118\n      jumpi\n      mload(0x40)\n      shl(0xe5, 0x461bcd)\n      dup2\n      mstore\n        /* \"#utility.yul\":7323:7325   */\n      0x20\n        /* \"@openzeppelin/contracts/token/ERC20/utils/SafeERC20.sol\":4351:4436  require(abi.decode(returndata, (bool)), \"SafeERC20: ERC20 operation did not succeed\") */\n      0x04\n      dup3\n      add\n        /* \"#utility.yul\":7305:7326   */\n      mstore\n        /* \"#utility.yul\":7362:7364   */\n      0x2a\n        /* \"#utility.yul\":7342:7360   */\n      0x24\n      dup3\n      add\n        /* \"#utility.yul\":7335:7365   */\n      mstore\n        /* \"#utility.yul\":7401:7435   */\n      0x5361666545524332303a204552433230206f7065726174696f6e20646964206e\n        /* \"#utility.yul\":7381:7399   */\n      0x44\n      dup3\n      add\n        /* \"#utility.yul\":7374:7436   */\n      mstore\n      shl(0xb2, 0x1bdd081cdd58d8d95959)\n        /* \"#utility.yul\":7452:7470   */\n      0x64\n      dup3\n      add\n        /* \"#utility.yul\":7445:7485   */\n      mstore\n        /* \"#utility.yul\":7502:7521   */\n      0x84\n      add\n        /* \"@openzeppelin/contracts/token/ERC20/utils/SafeERC20.sol\":4351:4436  require(abi.decode(returndata, (bool)), \"SafeERC20: ERC20 operation did not succeed\") */\n      tag_87\n        /* \"#utility.yul\":7121:7527   */\n      jump\n        /* \"@openzeppelin/contracts/utils/Address.sol\":3861:4084  function functionCall(... */\n    tag_219:\n        /* \"@openzeppelin/contracts/utils/Address.sol\":3994:4006  bytes memory */\n      0x60\n        /* \"@openzeppelin/contracts/utils/Address.sol\":4025:4077  functionCallWithValue(target, data, 0, errorMessage) */\n      tag_227\n        /* \"@openzeppelin/contracts/utils/Address.sol\":4047:4053  target */\n      dup5\n        /* \"@openzeppelin/contracts/utils/Address.sol\":4055:4059  data */\n      dup5\n        /* \"@openzeppelin/contracts/utils/Address.sol\":4061:4062  0 */\n      0x00\n        /* \"@openzeppelin/contracts/utils/Address.sol\":4064:4076  errorMessage */\n      dup6\n        /* \"@openzeppelin/contracts/utils/Address.sol\":4025:4046  functionCallWithValue */\n      tag_228\n        /* \"@openzeppelin/contracts/utils/Address.sol\":4025:4077  functionCallWithValue(target, data, 0, errorMessage) */\n      jump\t// in\n    tag_227:\n        /* \"@openzeppelin/contracts/utils/Address.sol\":4018:4077  return functionCallWithValue(target, data, 0, errorMessage) */\n      swap5\n        /* \"@openzeppelin/contracts/utils/Address.sol\":3861:4084  function functionCall(... */\n      swap4\n      pop\n      pop\n      pop\n      pop\n      jump\t// out\n        /* \"@openzeppelin/contracts/utils/Address.sol\":4948:5447  function functionCallWithValue(... */\n    tag_228:\n        /* \"@openzeppelin/contracts/utils/Address.sol\":5113:5125  bytes memory */\n      0x60\n        /* \"@openzeppelin/contracts/utils/Address.sol\":5170:5175  value */\n      dup3\n        /* \"@openzeppelin/contracts/utils/Address.sol\":5145:5166  address(this).balance */\n      selfbalance\n        /* \"@openzeppelin/contracts/utils/Address.sol\":5145:5175  address(this).balance >= value */\n      lt\n      iszero\n        /* \"@openzeppelin/contracts/utils/Address.sol\":5137:5218  require(address(this).balance >= value, \"Address: insufficient balance for call\") */\n      tag_230\n      jumpi\n      mload(0x40)\n      shl(0xe5, 0x461bcd)\n      dup2\n      mstore\n        /* \"#utility.yul\":7734:7736   */\n      0x20\n        /* \"@openzeppelin/contracts/utils/Address.sol\":5137:5218  require(address(this).balance >= value, \"Address: insufficient balance for call\") */\n      0x04\n      dup3\n      add\n        /* \"#utility.yul\":7716:7737   */\n      mstore\n        /* \"#utility.yul\":7773:7775   */\n      0x26\n        /* \"#utility.yul\":7753:7771   */\n      0x24\n      dup3\n      add\n        /* \"#utility.yul\":7746:7776   */\n      mstore\n        /* \"#utility.yul\":7812:7846   */\n      0x416464726573733a20696e73756666696369656e742062616c616e636520666f\n        /* \"#utility.yul\":7792:7810   */\n      0x44\n      dup3\n      add\n        /* \"#utility.yul\":7785:7847   */\n      mstore\n      shl(0xd2, 0x1c8818d85b1b)\n        /* \"#utility.yul\":7863:7881   */\n      0x64\n      dup3\n      add\n        /* \"#utility.yul\":7856:7892   */\n      mstore\n        /* \"#utility.yul\":7909:7928   */\n      0x84\n      add\n        /* \"@openzeppelin/contracts/utils/Address.sol\":5137:5218  require(address(this).balance >= value, \"Address: insufficient balance for call\") */\n      tag_87\n        /* \"#utility.yul\":7532:7934   */\n      jump\n        /* \"@openzeppelin/contracts/utils/Address.sol\":5137:5218  require(address(this).balance >= value, \"Address: insufficient balance for call\") */\n    tag_230:\n      sub(shl(0xa0, 0x01), 0x01)\n        /* \"@openzeppelin/contracts/utils/Address.sol\":1465:1484  account.code.length */\n      dup6\n      and\n      extcodesize\n        /* \"@openzeppelin/contracts/utils/Address.sol\":5228:5288  require(isContract(target), \"Address: call to non-contract\") */\n      tag_235\n      jumpi\n      mload(0x40)\n      shl(0xe5, 0x461bcd)\n      dup2\n      mstore\n        /* \"#utility.yul\":8141:8143   */\n      0x20\n        /* \"@openzeppelin/contracts/utils/Address.sol\":5228:5288  require(isContract(target), \"Address: call to non-contract\") */\n      0x04\n      dup3\n      add\n        /* \"#utility.yul\":8123:8144   */\n      mstore\n        /* \"#utility.yul\":8180:8182   */\n      0x1d\n        /* \"#utility.yul\":8160:8178   */\n      0x24\n      dup3\n      add\n        /* \"#utility.yul\":8153:8183   */\n      mstore\n        /* \"#utility.yul\":8219:8250   */\n      0x416464726573733a2063616c6c20746f206e6f6e2d636f6e7472616374000000\n        /* \"#utility.yul\":8199:8217   */\n      0x44\n      dup3\n      add\n        /* \"#utility.yul\":8192:8251   */\n      mstore\n        /* \"#utility.yul\":8268:8286   */\n      0x64\n      add\n        /* \"@openzeppelin/contracts/utils/Address.sol\":5228:5288  require(isContract(target), \"Address: call to non-contract\") */\n      tag_87\n        /* \"#utility.yul\":7939:8292   */\n      jump\n        /* \"@openzeppelin/contracts/utils/Address.sol\":5228:5288  require(isContract(target), \"Address: call to non-contract\") */\n    tag_235:\n        /* \"@openzeppelin/contracts/utils/Address.sol\":5300:5312  bool success */\n      0x00\n        /* \"@openzeppelin/contracts/utils/Address.sol\":5314:5337  bytes memory returndata */\n      dup1\n        /* \"@openzeppelin/contracts/utils/Address.sol\":5341:5347  target */\n      dup7\n      sub(shl(0xa0, 0x01), 0x01)\n        /* \"@openzeppelin/contracts/utils/Address.sol\":5341:5352  target.call */\n      and\n        /* \"@openzeppelin/contracts/utils/Address.sol\":5360:5365  value */\n      dup6\n        /* \"@openzeppelin/contracts/utils/Address.sol\":5367:5371  data */\n      dup8\n        /* \"@openzeppelin/contracts/utils/Address.sol\":5341:5372  target.call{value: value}(data) */\n      mload(0x40)\n      tag_238\n      swap2\n      swap1\n      tag_239\n      jump\t// in\n    tag_238:\n      0x00\n      mload(0x40)\n      dup1\n      dup4\n      sub\n      dup2\n      dup6\n      dup8\n      gas\n      call\n      swap3\n      pop\n      pop\n      pop\n      returndatasize\n      dup1\n      0x00\n      dup2\n      eq\n      tag_242\n      jumpi\n      mload(0x40)\n      swap2\n      pop\n      and(add(returndatasize, 0x3f), not(0x1f))\n      dup3\n      add\n      0x40\n      mstore\n      returndatasize\n      dup3\n      mstore\n      returndatasize\n      0x00\n      0x20\n      dup5\n      add\n      returndatacopy\n      jump(tag_241)\n    tag_242:\n      0x60\n      swap2\n      pop\n    tag_241:\n      pop\n        /* \"@openzeppelin/contracts/utils/Address.sol\":5299:5372  (bool success, bytes memory returndata) = target.call{value: value}(data) */\n      swap2\n      pop\n      swap2\n      pop\n        /* \"@openzeppelin/contracts/utils/Address.sol\":5389:5440  verifyCallResult(success, returndata, errorMessage) */\n      tag_243\n        /* \"@openzeppelin/contracts/utils/Address.sol\":5406:5413  success */\n      dup3\n        /* \"@openzeppelin/contracts/utils/Address.sol\":5415:5425  returndata */\n      dup3\n        /* \"@openzeppelin/contracts/utils/Address.sol\":5427:5439  errorMessage */\n      dup7\n        /* \"@openzeppelin/contracts/utils/Address.sol\":5389:5405  verifyCallResult */\n      tag_244\n        /* \"@openzeppelin/contracts/utils/Address.sol\":5389:5440  verifyCallResult(success, returndata, errorMessage) */\n      jump\t// in\n    tag_243:\n        /* \"@openzeppelin/contracts/utils/Address.sol\":5382:5440  return verifyCallResult(success, returndata, errorMessage) */\n      swap8\n        /* \"@openzeppelin/contracts/utils/Address.sol\":4948:5447  function functionCallWithValue(... */\n      swap7\n      pop\n      pop\n      pop\n      pop\n      pop\n      pop\n      pop\n      jump\t// out\n        /* \"@openzeppelin/contracts/utils/Address.sol\":7561:8303  function verifyCallResult(... */\n    tag_244:\n        /* \"@openzeppelin/contracts/utils/Address.sol\":7707:7719  bytes memory */\n      0x60\n        /* \"@openzeppelin/contracts/utils/Address.sol\":7735:7742  success */\n      dup4\n        /* \"@openzeppelin/contracts/utils/Address.sol\":7731:8297  if (success) {... */\n      iszero\n      tag_247\n      jumpi\n      pop\n        /* \"@openzeppelin/contracts/utils/Address.sol\":7765:7775  returndata */\n      dup2\n        /* \"@openzeppelin/contracts/utils/Address.sol\":7758:7775  return returndata */\n      jump(tag_147)\n        /* \"@openzeppelin/contracts/utils/Address.sol\":7731:8297  if (success) {... */\n    tag_247:\n        /* \"@openzeppelin/contracts/utils/Address.sol\":7876:7893  returndata.length */\n      dup3\n      mload\n        /* \"@openzeppelin/contracts/utils/Address.sol\":7876:7897  returndata.length > 0 */\n      iszero\n        /* \"@openzeppelin/contracts/utils/Address.sol\":7872:8287  if (returndata.length > 0) {... */\n      tag_249\n      jumpi\n        /* \"@openzeppelin/contracts/utils/Address.sol\":8120:8130  returndata */\n      dup3\n        /* \"@openzeppelin/contracts/utils/Address.sol\":8114:8131  mload(returndata) */\n      mload\n        /* \"@openzeppelin/contracts/utils/Address.sol\":8180:8195  returndata_size */\n      dup1\n        /* \"@openzeppelin/contracts/utils/Address.sol\":8167:8177  returndata */\n      dup5\n        /* \"@openzeppelin/contracts/utils/Address.sol\":8163:8165  32 */\n      0x20\n        /* \"@openzeppelin/contracts/utils/Address.sol\":8159:8178  add(32, returndata) */\n      add\n        /* \"@openzeppelin/contracts/utils/Address.sol\":8152:8196  revert(add(32, returndata), returndata_size) */\n      revert\n        /* \"@openzeppelin/contracts/utils/Address.sol\":7872:8287  if (returndata.length > 0) {... */\n    tag_249:\n        /* \"@openzeppelin/contracts/utils/Address.sol\":8259:8271  errorMessage */\n      dup2\n        /* \"@openzeppelin/contracts/utils/Address.sol\":8252:8272  revert(errorMessage) */\n      mload(0x40)\n      shl(0xe5, 0x461bcd)\n      dup2\n      mstore\n      0x04\n      add\n      tag_87\n      swap2\n      swap1\n      tag_185\n      jump\t// in\n        /* \"#utility.yul\":14:300   */\n    tag_29:\n        /* \"#utility.yul\":72:78   */\n      0x00\n        /* \"#utility.yul\":125:127   */\n      0x20\n        /* \"#utility.yul\":113:122   */\n      dup3\n        /* \"#utility.yul\":104:111   */\n      dup5\n        /* \"#utility.yul\":100:123   */\n      sub\n        /* \"#utility.yul\":96:128   */\n      slt\n        /* \"#utility.yul\":93:145   */\n      iszero\n      tag_257\n      jumpi\n        /* \"#utility.yul\":141:142   */\n      0x00\n        /* \"#utility.yul\":138:139   */\n      dup1\n        /* \"#utility.yul\":131:143   */\n      revert\n        /* \"#utility.yul\":93:145   */\n    tag_257:\n        /* \"#utility.yul\":167:190   */\n      dup2\n      calldataload\n      not(sub(shl(0xe0, 0x01), 0x01))\n        /* \"#utility.yul\":219:251   */\n      dup2\n      and\n        /* \"#utility.yul\":209:252   */\n      dup2\n      eq\n        /* \"#utility.yul\":199:270   */\n      tag_147\n      jumpi\n        /* \"#utility.yul\":266:267   */\n      0x00\n        /* \"#utility.yul\":263:264   */\n      dup1\n        /* \"#utility.yul\":256:268   */\n      revert\n        /* \"#utility.yul\":497:677   */\n    tag_36:\n        /* \"#utility.yul\":556:562   */\n      0x00\n        /* \"#utility.yul\":609:611   */\n      0x20\n        /* \"#utility.yul\":597:606   */\n      dup3\n        /* \"#utility.yul\":588:595   */\n      dup5\n        /* \"#utility.yul\":584:607   */\n      sub\n        /* \"#utility.yul\":580:612   */\n      slt\n        /* \"#utility.yul\":577:629   */\n      iszero\n      tag_261\n      jumpi\n        /* \"#utility.yul\":625:626   */\n      0x00\n        /* \"#utility.yul\":622:623   */\n      dup1\n        /* \"#utility.yul\":615:627   */\n      revert\n        /* \"#utility.yul\":577:629   */\n    tag_261:\n      pop\n        /* \"#utility.yul\":648:671   */\n      calldataload\n      swap2\n        /* \"#utility.yul\":497:677   */\n      swap1\n      pop\n      jump\t// out\n        /* \"#utility.yul\":1046:1219   */\n    tag_252:\n        /* \"#utility.yul\":1114:1134   */\n      dup1\n      calldataload\n      sub(shl(0xa0, 0x01), 0x01)\n        /* \"#utility.yul\":1163:1194   */\n      dup2\n      and\n        /* \"#utility.yul\":1153:1195   */\n      dup2\n      eq\n        /* \"#utility.yul\":1143:1213   */\n      tag_265\n      jumpi\n        /* \"#utility.yul\":1209:1210   */\n      0x00\n        /* \"#utility.yul\":1206:1207   */\n      dup1\n        /* \"#utility.yul\":1199:1211   */\n      revert\n        /* \"#utility.yul\":1143:1213   */\n    tag_265:\n        /* \"#utility.yul\":1046:1219   */\n      swap2\n      swap1\n      pop\n      jump\t// out\n        /* \"#utility.yul\":1224:1478   */\n    tag_48:\n        /* \"#utility.yul\":1292:1298   */\n      0x00\n        /* \"#utility.yul\":1300:1306   */\n      dup1\n        /* \"#utility.yul\":1353:1355   */\n      0x40\n        /* \"#utility.yul\":1341:1350   */\n      dup4\n        /* \"#utility.yul\":1332:1339   */\n      dup6\n        /* \"#utility.yul\":1328:1351   */\n      sub\n        /* \"#utility.yul\":1324:1356   */\n      slt\n        /* \"#utility.yul\":1321:1373   */\n      iszero\n      tag_267\n      jumpi\n        /* \"#utility.yul\":1369:1370   */\n      0x00\n        /* \"#utility.yul\":1366:1367   */\n      dup1\n        /* \"#utility.yul\":1359:1371   */\n      revert\n        /* \"#utility.yul\":1321:1373   */\n    tag_267:\n        /* \"#utility.yul\":1405:1414   */\n      dup3\n        /* \"#utility.yul\":1392:1415   */\n      calldataload\n        /* \"#utility.yul\":1382:1415   */\n      swap2\n      pop\n        /* \"#utility.yul\":1434:1472   */\n      tag_268\n        /* \"#utility.yul\":1468:1470   */\n      0x20\n        /* \"#utility.yul\":1457:1466   */\n      dup5\n        /* \"#utility.yul\":1453:1471   */\n      add\n        /* \"#utility.yul\":1434:1472   */\n      tag_252\n      jump\t// in\n    tag_268:\n        /* \"#utility.yul\":1424:1472   */\n      swap1\n      pop\n        /* \"#utility.yul\":1224:1478   */\n      swap3\n      pop\n      swap3\n      swap1\n      pop\n      jump\t// out\n        /* \"#utility.yul\":1707:1893   */\n    tag_78:\n        /* \"#utility.yul\":1766:1772   */\n      0x00\n        /* \"#utility.yul\":1819:1821   */\n      0x20\n        /* \"#utility.yul\":1807:1816   */\n      dup3\n        /* \"#utility.yul\":1798:1805   */\n      dup5\n        /* \"#utility.yul\":1794:1817   */\n      sub\n        /* \"#utility.yul\":1790:1822   */\n      slt\n        /* \"#utility.yul\":1787:1839   */\n      iszero\n      tag_271\n      jumpi\n        /* \"#utility.yul\":1835:1836   */\n      0x00\n        /* \"#utility.yul\":1832:1833   */\n      dup1\n        /* \"#utility.yul\":1825:1837   */\n      revert\n        /* \"#utility.yul\":1787:1839   */\n    tag_271:\n        /* \"#utility.yul\":1858:1887   */\n      tag_147\n        /* \"#utility.yul\":1877:1886   */\n      dup3\n        /* \"#utility.yul\":1858:1887   */\n      tag_252\n      jump\t// in\n        /* \"#utility.yul\":3914:4041   */\n    tag_253:\n        /* \"#utility.yul\":3975:3985   */\n      0x4e487b71\n        /* \"#utility.yul\":3970:3973   */\n      0xe0\n        /* \"#utility.yul\":3966:3986   */\n      shl\n        /* \"#utility.yul\":3963:3964   */\n      0x00\n        /* \"#utility.yul\":3956:3987   */\n      mstore\n        /* \"#utility.yul\":4006:4010   */\n      0x11\n        /* \"#utility.yul\":4003:4004   */\n      0x04\n        /* \"#utility.yul\":3996:4011   */\n      mstore\n        /* \"#utility.yul\":4030:4034   */\n      0x24\n        /* \"#utility.yul\":4027:4028   */\n      0x00\n        /* \"#utility.yul\":4020:4035   */\n      revert\n        /* \"#utility.yul\":4046:4174   */\n    tag_148:\n        /* \"#utility.yul\":4086:4089   */\n      0x00\n        /* \"#utility.yul\":4117:4118   */\n      dup3\n        /* \"#utility.yul\":4113:4119   */\n      not\n        /* \"#utility.yul\":4110:4111   */\n      dup3\n        /* \"#utility.yul\":4107:4120   */\n      gt\n        /* \"#utility.yul\":4104:4143   */\n      iszero\n      tag_282\n      jumpi\n        /* \"#utility.yul\":4123:4141   */\n      tag_282\n      tag_253\n      jump\t// in\n    tag_282:\n      pop\n        /* \"#utility.yul\":4159:4168   */\n      add\n      swap1\n        /* \"#utility.yul\":4046:4174   */\n      jump\t// out\n        /* \"#utility.yul\":4179:4347   */\n    tag_172:\n        /* \"#utility.yul\":4219:4226   */\n      0x00\n        /* \"#utility.yul\":4285:4286   */\n      dup2\n        /* \"#utility.yul\":4281:4282   */\n      0x00\n        /* \"#utility.yul\":4277:4283   */\n      not\n        /* \"#utility.yul\":4273:4287   */\n      div\n        /* \"#utility.yul\":4270:4271   */\n      dup4\n        /* \"#utility.yul\":4267:4288   */\n      gt\n        /* \"#utility.yul\":4262:4263   */\n      dup3\n        /* \"#utility.yul\":4255:4264   */\n      iszero\n        /* \"#utility.yul\":4248:4265   */\n      iszero\n        /* \"#utility.yul\":4244:4289   */\n      and\n        /* \"#utility.yul\":4241:4312   */\n      iszero\n      tag_285\n      jumpi\n        /* \"#utility.yul\":4292:4310   */\n      tag_285\n      tag_253\n      jump\t// in\n    tag_285:\n      pop\n        /* \"#utility.yul\":4332:4341   */\n      mul\n      swap1\n        /* \"#utility.yul\":4179:4347   */\n      jump\t// out\n        /* \"#utility.yul\":4352:4610   */\n    tag_254:\n        /* \"#utility.yul\":4424:4425   */\n      0x00\n        /* \"#utility.yul\":4434:4547   */\n    tag_287:\n        /* \"#utility.yul\":4448:4454   */\n      dup4\n        /* \"#utility.yul\":4445:4446   */\n      dup2\n        /* \"#utility.yul\":4442:4455   */\n      lt\n        /* \"#utility.yul\":4434:4547   */\n      iszero\n      tag_289\n      jumpi\n        /* \"#utility.yul\":4524:4535   */\n      dup2\n      dup2\n      add\n        /* \"#utility.yul\":4518:4536   */\n      mload\n        /* \"#utility.yul\":4505:4516   */\n      dup4\n      dup3\n      add\n        /* \"#utility.yul\":4498:4537   */\n      mstore\n        /* \"#utility.yul\":4470:4472   */\n      0x20\n        /* \"#utility.yul\":4463:4473   */\n      add\n        /* \"#utility.yul\":4434:4547   */\n      jump(tag_287)\n    tag_289:\n        /* \"#utility.yul\":4565:4571   */\n      dup4\n        /* \"#utility.yul\":4562:4563   */\n      dup2\n        /* \"#utility.yul\":4559:4572   */\n      gt\n        /* \"#utility.yul\":4556:4604   */\n      iszero\n      tag_290\n      jumpi\n        /* \"#utility.yul\":4600:4601   */\n      0x00\n        /* \"#utility.yul\":4591:4597   */\n      dup5\n        /* \"#utility.yul\":4586:4589   */\n      dup5\n        /* \"#utility.yul\":4582:4598   */\n      add\n        /* \"#utility.yul\":4575:4602   */\n      mstore\n        /* \"#utility.yul\":4556:4604   */\n    tag_290:\n      pop\n        /* \"#utility.yul\":4352:4610   */\n      pop\n      pop\n      pop\n      jump\t// out\n        /* \"#utility.yul\":4615:5401   */\n    tag_183:\n        /* \"#utility.yul\":5026:5051   */\n      0x416363657373436f6e74726f6c3a206163636f756e7420000000000000000000\n        /* \"#utility.yul\":5021:5024   */\n      dup2\n        /* \"#utility.yul\":5014:5052   */\n      mstore\n        /* \"#utility.yul\":4996:4999   */\n      0x00\n        /* \"#utility.yul\":5081:5087   */\n      dup4\n        /* \"#utility.yul\":5075:5088   */\n      mload\n        /* \"#utility.yul\":5097:5159   */\n      tag_292\n        /* \"#utility.yul\":5152:5158   */\n      dup2\n        /* \"#utility.yul\":5147:5149   */\n      0x17\n        /* \"#utility.yul\":5142:5145   */\n      dup6\n        /* \"#utility.yul\":5138:5150   */\n      add\n        /* \"#utility.yul\":5131:5135   */\n      0x20\n        /* \"#utility.yul\":5123:5129   */\n      dup9\n        /* \"#utility.yul\":5119:5136   */\n      add\n        /* \"#utility.yul\":5097:5159   */\n      tag_254\n      jump\t// in\n    tag_292:\n      shl(0x7d, 0x01034b99036b4b9b9b4b733903937b6329)\n        /* \"#utility.yul\":5218:5220   */\n      0x17\n        /* \"#utility.yul\":5178:5194   */\n      swap2\n      dup5\n      add\n        /* \"#utility.yul\":5210:5221   */\n      swap2\n      dup3\n      add\n        /* \"#utility.yul\":5203:5243   */\n      mstore\n        /* \"#utility.yul\":5268:5281   */\n      dup4\n      mload\n        /* \"#utility.yul\":5290:5353   */\n      tag_293\n        /* \"#utility.yul\":5268:5281   */\n      dup2\n        /* \"#utility.yul\":5339:5341   */\n      0x28\n        /* \"#utility.yul\":5331:5342   */\n      dup5\n      add\n        /* \"#utility.yul\":5324:5328   */\n      0x20\n        /* \"#utility.yul\":5312:5329   */\n      dup9\n      add\n        /* \"#utility.yul\":5290:5353   */\n      tag_254\n      jump\t// in\n    tag_293:\n        /* \"#utility.yul\":5373:5390   */\n      add\n        /* \"#utility.yul\":5392:5394   */\n      0x28\n        /* \"#utility.yul\":5369:5395   */\n      add\n      swap5\n        /* \"#utility.yul\":4615:5401   */\n      swap4\n      pop\n      pop\n      pop\n      pop\n      jump\t// out\n        /* \"#utility.yul\":5406:5789   */\n    tag_185:\n        /* \"#utility.yul\":5555:5557   */\n      0x20\n        /* \"#utility.yul\":5544:5553   */\n      dup2\n        /* \"#utility.yul\":5537:5558   */\n      mstore\n        /* \"#utility.yul\":5518:5522   */\n      0x00\n        /* \"#utility.yul\":5587:5593   */\n      dup3\n        /* \"#utility.yul\":5581:5594   */\n      mload\n        /* \"#utility.yul\":5630:5636   */\n      dup1\n        /* \"#utility.yul\":5625:5627   */\n      0x20\n        /* \"#utility.yul\":5614:5623   */\n      dup5\n        /* \"#utility.yul\":5610:5628   */\n      add\n        /* \"#utility.yul\":5603:5637   */\n      mstore\n        /* \"#utility.yul\":5646:5712   */\n      tag_295\n        /* \"#utility.yul\":5705:5711   */\n      dup2\n        /* \"#utility.yul\":5700:5702   */\n      0x40\n        /* \"#utility.yul\":5689:5698   */\n      dup6\n        /* \"#utility.yul\":5685:5703   */\n      add\n        /* \"#utility.yul\":5680:5682   */\n      0x20\n        /* \"#utility.yul\":5672:5678   */\n      dup8\n        /* \"#utility.yul\":5668:5683   */\n      add\n        /* \"#utility.yul\":5646:5712   */\n      tag_254\n      jump\t// in\n    tag_295:\n        /* \"#utility.yul\":5773:5775   */\n      0x1f\n        /* \"#utility.yul\":5752:5767   */\n      add\n      not(0x1f)\n        /* \"#utility.yul\":5748:5777   */\n      and\n        /* \"#utility.yul\":5733:5778   */\n      swap2\n      swap1\n      swap2\n      add\n        /* \"#utility.yul\":5780:5782   */\n      0x40\n        /* \"#utility.yul\":5729:5783   */\n      add\n      swap3\n        /* \"#utility.yul\":5406:5789   */\n      swap2\n      pop\n      pop\n      jump\t// out\n        /* \"#utility.yul\":6073:6200   */\n    tag_196:\n        /* \"#utility.yul\":6134:6144   */\n      0x4e487b71\n        /* \"#utility.yul\":6129:6132   */\n      0xe0\n        /* \"#utility.yul\":6125:6145   */\n      shl\n        /* \"#utility.yul\":6122:6123   */\n      0x00\n        /* \"#utility.yul\":6115:6146   */\n      mstore\n        /* \"#utility.yul\":6165:6169   */\n      0x41\n        /* \"#utility.yul\":6162:6163   */\n      0x04\n        /* \"#utility.yul\":6155:6170   */\n      mstore\n        /* \"#utility.yul\":6189:6193   */\n      0x24\n        /* \"#utility.yul\":6186:6187   */\n      0x00\n        /* \"#utility.yul\":6179:6194   */\n      revert\n        /* \"#utility.yul\":6205:6332   */\n    tag_200:\n        /* \"#utility.yul\":6266:6276   */\n      0x4e487b71\n        /* \"#utility.yul\":6261:6264   */\n      0xe0\n        /* \"#utility.yul\":6257:6277   */\n      shl\n        /* \"#utility.yul\":6254:6255   */\n      0x00\n        /* \"#utility.yul\":6247:6278   */\n      mstore\n        /* \"#utility.yul\":6297:6301   */\n      0x32\n        /* \"#utility.yul\":6294:6295   */\n      0x04\n        /* \"#utility.yul\":6287:6302   */\n      mstore\n        /* \"#utility.yul\":6321:6325   */\n      0x24\n        /* \"#utility.yul\":6318:6319   */\n      0x00\n        /* \"#utility.yul\":6311:6326   */\n      revert\n        /* \"#utility.yul\":6337:6473   */\n    tag_213:\n        /* \"#utility.yul\":6376:6379   */\n      0x00\n        /* \"#utility.yul\":6404:6409   */\n      dup2\n        /* \"#utility.yul\":6394:6433   */\n      tag_301\n      jumpi\n        /* \"#utility.yul\":6413:6431   */\n      tag_301\n      tag_253\n      jump\t// in\n    tag_301:\n      pop\n      not(0x00)\n        /* \"#utility.yul\":6449:6467   */\n      add\n      swap1\n        /* \"#utility.yul\":6337:6473   */\n      jump\t// out\n        /* \"#utility.yul\":6839:7116   */\n    tag_222:\n        /* \"#utility.yul\":6906:6912   */\n      0x00\n        /* \"#utility.yul\":6959:6961   */\n      0x20\n        /* \"#utility.yul\":6947:6956   */\n      dup3\n        /* \"#utility.yul\":6938:6945   */\n      dup5\n        /* \"#utility.yul\":6934:6957   */\n      sub\n        /* \"#utility.yul\":6930:6962   */\n      slt\n        /* \"#utility.yul\":6927:6979   */\n      iszero\n      tag_304\n      jumpi\n        /* \"#utility.yul\":6975:6976   */\n      0x00\n        /* \"#utility.yul\":6972:6973   */\n      dup1\n        /* \"#utility.yul\":6965:6977   */\n      revert\n        /* \"#utility.yul\":6927:6979   */\n    tag_304:\n        /* \"#utility.yul\":7007:7016   */\n      dup2\n        /* \"#utility.yul\":7001:7017   */\n      mload\n        /* \"#utility.yul\":7060:7065   */\n      dup1\n        /* \"#utility.yul\":7053:7066   */\n      iszero\n        /* \"#utility.yul\":7046:7067   */\n      iszero\n        /* \"#utility.yul\":7039:7044   */\n      dup2\n        /* \"#utility.yul\":7036:7068   */\n      eq\n        /* \"#utility.yul\":7026:7086   */\n      tag_147\n      jumpi\n        /* \"#utility.yul\":7082:7083   */\n      0x00\n        /* \"#utility.yul\":7079:7080   */\n      dup1\n        /* \"#utility.yul\":7072:7084   */\n      revert\n        /* \"#utility.yul\":8297:8571   */\n    tag_239:\n        /* \"#utility.yul\":8426:8429   */\n      0x00\n        /* \"#utility.yul\":8464:8470   */\n      dup3\n        /* \"#utility.yul\":8458:8471   */\n      mload\n        /* \"#utility.yul\":8480:8533   */\n      tag_310\n        /* \"#utility.yul\":8526:8532   */\n      dup2\n        /* \"#utility.yul\":8521:8524   */\n      dup5\n        /* \"#utility.yul\":8514:8518   */\n      0x20\n        /* \"#utility.yul\":8506:8512   */\n      dup8\n        /* \"#utility.yul\":8502:8519   */\n      add\n        /* \"#utility.yul\":8480:8533   */\n      tag_254\n      jump\t// in\n    tag_310:\n        /* \"#utility.yul\":8549:8565   */\n      swap2\n      swap1\n      swap2\n      add\n      swap3\n        /* \"#utility.yul\":8297:8571   */\n      swap2\n      pop\n      pop\n      jump\t// out\n\n    auxdata: 0xa2646970667358221220255017018bf5dfc77e9d76e999a7baefa4d67839806e212ca514d3ac676c996964736f6c63430008090033\n}\n",
				"bytecode": {
					"linkReferences": {},
					"object": "60806040523480156200001157600080fd5b506040516200106938038062001069833981016040819052620000349162000252565b6001600055826200008c5760405162461bcd60e51b815260206004820152601460248201527f43726f776473616c653a2072617465206973203000000000000000000000000060448201526064015b60405180910390fd5b6001600160a01b038216620000f25760405162461bcd60e51b815260206004820152602560248201527f43726f776473616c653a2077616c6c657420697320746865207a65726f206164604482015264647265737360d81b606482015260840162000083565b6001600160a01b038116620001565760405162461bcd60e51b8152602060048201526024808201527f43726f776473616c653a20746f6b656e20697320746865207a65726f206164646044820152637265737360e01b606482015260840162000083565b6004839055600380546001600160a01b038085166001600160a01b031992831617909255600280549284169290911691909117905562000198600033620001a1565b5050506200029a565b620001ad8282620001b1565b5050565b60008281526001602090815260408083206001600160a01b038516845290915290205460ff16620001ad5760008281526001602081815260408084206001600160a01b0386168086529252808420805460ff19169093179092559051339285917f2f8788117e7eff1d82e926ec794901d17c78024a50270940304540a733656f0d9190a45050565b6001600160a01b03811681146200024f57600080fd5b50565b6000806000606084860312156200026857600080fd5b8351925060208401516200027c8162000239565b60408501519092506200028f8162000239565b809150509250925092565b610dbf80620002aa6000396000f3fe6080604052600436106100ab5760003560e01c8063521eb27311610064578063521eb273146101a757806391d14854146101d9578063a217fddf146101f9578063d547741f1461020e578063ec8ac4d81461022e578063fc0c546a1461023c576100c0565b806301ffc9a7146100c9578063248a9ca3146100fe5780632c4e722e1461013d5780632f2ff15d1461015257806336568abe146101725780634042b66f14610192576100c0565b366100c0576100be3361025a565b61025a565b005b6100be3361025a565b3480156100d557600080fd5b506100e96100e4366004610b3d565b610342565b60405190151581526020015b60405180910390f35b34801561010a57600080fd5b5061012f610119366004610b67565b6000908152600160208190526040909120015490565b6040519081526020016100f5565b34801561014957600080fd5b5060045461012f565b34801561015e57600080fd5b506100be61016d366004610b9c565b610379565b34801561017e57600080fd5b506100be61018d366004610b9c565b6103a4565b34801561019e57600080fd5b5060055461012f565b3480156101b357600080fd5b506003546001600160a01b03165b6040516001600160a01b0390911681526020016100f5565b3480156101e557600080fd5b506100e96101f4366004610b9c565b610422565b34801561020557600080fd5b5061012f600081565b34801561021a57600080fd5b506100be610229366004610b9c565b61044d565b6100be6100b9366004610bc8565b34801561024857600080fd5b506002546001600160a01b03166101c1565b600260005414156102b25760405162461bcd60e51b815260206004820152601f60248201527f5265656e7472616e637947756172643a207265656e7472616e742063616c6c0060448201526064015b60405180910390fd5b6002600055346102c28282610473565b60006102cd82610529565b6005549091506102dd9083610540565b6005556102ea8382610553565b60408051838152602081018390526001600160a01b0385169133917f6faf93231a456e552dbc9961f58d9713ee4f2e69d15f1975b050ef0911053a7b910160405180910390a361033861055d565b5050600160005550565b60006001600160e01b03198216637965db0b60e01b148061037357506301ffc9a760e01b6001600160e01b03198316145b92915050565b6000828152600160208190526040909120015461039581610599565b61039f83836105a3565b505050565b6001600160a01b03811633146104145760405162461bcd60e51b815260206004820152602f60248201527f416363657373436f6e74726f6c3a2063616e206f6e6c792072656e6f756e636560448201526e103937b632b9903337b91039b2b63360891b60648201526084016102a9565b61041e828261060e565b5050565b60009182526001602090815260408084206001600160a01b0393909316845291905290205460ff1690565b6000828152600160208190526040909120015461046981610599565b61039f838361060e565b6001600160a01b0382166104dc5760405162461bcd60e51b815260206004820152602a60248201527f43726f776473616c653a2062656e656669636961727920697320746865207a65604482015269726f206164647265737360b01b60648201526084016102a9565b8061041e5760405162461bcd60e51b815260206004820152601960248201527f43726f776473616c653a20776569416d6f756e7420697320300000000000000060448201526064016102a9565b60006103736004548361067590919063ffffffff16565b600061054c8284610bf9565b9392505050565b61041e8282610681565b6003546040516001600160a01b03909116903480156108fc02916000818181858888f19350505050158015610596573d6000803e3d6000fd5b50565b6105968133610698565b6105ad8282610422565b61041e5760008281526001602081815260408084206001600160a01b0386168086529252808420805460ff19169093179092559051339285917f2f8788117e7eff1d82e926ec794901d17c78024a50270940304540a733656f0d9190a45050565b6106188282610422565b1561041e5760008281526001602090815260408083206001600160a01b0385168085529252808320805460ff1916905551339285917ff6391f5c32d9c69d2a47ea670b442974b53935d1edc7fd64eb21e047a839171b9190a45050565b600061054c8284610c11565b60025461041e906001600160a01b031683836106fc565b6106a28282610422565b61041e576106ba816001600160a01b0316601461074e565b6106c583602061074e565b6040516020016106d6929190610c60565b60408051601f198184030181529082905262461bcd60e51b82526102a991600401610cd5565b604080516001600160a01b038416602482015260448082018490528251808303909101815260649091019091526020810180516001600160e01b031663a9059cbb60e01b17905261039f9084906108ea565b6060600061075d836002610c11565b610768906002610bf9565b67ffffffffffffffff81111561078057610780610d08565b6040519080825280601f01601f1916602001820160405280156107aa576020820181803683370190505b509050600360fc1b816000815181106107c5576107c5610d1e565b60200101906001600160f81b031916908160001a905350600f60fb1b816001815181106107f4576107f4610d1e565b60200101906001600160f81b031916908160001a9053506000610818846002610c11565b610823906001610bf9565b90505b600181111561089b576f181899199a1a9b1b9c1cb0b131b232b360811b85600f166010811061085757610857610d1e565b1a60f81b82828151811061086d5761086d610d1e565b60200101906001600160f81b031916908160001a90535060049490941c9361089481610d34565b9050610826565b50831561054c5760405162461bcd60e51b815260206004820181905260248201527f537472696e67733a20686578206c656e67746820696e73756666696369656e7460448201526064016102a9565b600061093f826040518060400160405280602081526020017f5361666545524332303a206c6f772d6c6576656c2063616c6c206661696c6564815250856001600160a01b03166109bc9092919063ffffffff16565b80519091501561039f578080602001905181019061095d9190610d4b565b61039f5760405162461bcd60e51b815260206004820152602a60248201527f5361666545524332303a204552433230206f7065726174696f6e20646964206e6044820152691bdd081cdd58d8d9595960b21b60648201526084016102a9565b60606109cb84846000856109d3565b949350505050565b606082471015610a345760405162461bcd60e51b815260206004820152602660248201527f416464726573733a20696e73756666696369656e742062616c616e636520666f6044820152651c8818d85b1b60d21b60648201526084016102a9565b6001600160a01b0385163b610a8b5760405162461bcd60e51b815260206004820152601d60248201527f416464726573733a2063616c6c20746f206e6f6e2d636f6e747261637400000060448201526064016102a9565b600080866001600160a01b03168587604051610aa79190610d6d565b60006040518083038185875af1925050503d8060008114610ae4576040519150601f19603f3d011682016040523d82523d6000602084013e610ae9565b606091505b5091509150610af9828286610b04565b979650505050505050565b60608315610b1357508161054c565b825115610b235782518084602001fd5b8160405162461bcd60e51b81526004016102a99190610cd5565b600060208284031215610b4f57600080fd5b81356001600160e01b03198116811461054c57600080fd5b600060208284031215610b7957600080fd5b5035919050565b80356001600160a01b0381168114610b9757600080fd5b919050565b60008060408385031215610baf57600080fd5b82359150610bbf60208401610b80565b90509250929050565b600060208284031215610bda57600080fd5b61054c82610b80565b634e487b7160e01b600052601160045260246000fd5b60008219821115610c0c57610c0c610be3565b500190565b6000816000190483118215151615610c2b57610c2b610be3565b500290565b60005b83811015610c4b578181015183820152602001610c33565b83811115610c5a576000848401525b50505050565b7f416363657373436f6e74726f6c3a206163636f756e7420000000000000000000815260008351610c98816017850160208801610c30565b7001034b99036b4b9b9b4b733903937b6329607d1b6017918401918201528351610cc9816028840160208801610c30565b01602801949350505050565b6020815260008251806020840152610cf4816040850160208701610c30565b601f01601f19169190910160400192915050565b634e487b7160e01b600052604160045260246000fd5b634e487b7160e01b600052603260045260246000fd5b600081610d4357610d43610be3565b506000190190565b600060208284031215610d5d57600080fd5b8151801515811461054c57600080fd5b60008251610d7f818460208701610c30565b919091019291505056fea2646970667358221220255017018bf5dfc77e9d76e999a7baefa4d67839806e212ca514d3ac676c996964736f6c63430008090033",
					"opcodes": "PUSH1 0x80 PUSH1 0x40 MSTORE CALLVALUE DUP1 ISZERO PUSH3 0x11 JUMPI PUSH1 0x0 DUP1 REVERT JUMPDEST POP PUSH1 0x40 MLOAD PUSH3 0x1069 CODESIZE SUB DUP1 PUSH3 0x1069 DUP4 CODECOPY DUP2 ADD PUSH1 0x40 DUP2 SWAP1 MSTORE PUSH3 0x34 SWAP2 PUSH3 0x252 JUMP JUMPDEST PUSH1 0x1 PUSH1 0x0 SSTORE DUP3 PUSH3 0x8C JUMPI PUSH1 0x40 MLOAD PUSH3 0x461BCD PUSH1 0xE5 SHL DUP2 MSTORE PUSH1 0x20 PUSH1 0x4 DUP3 ADD MSTORE PUSH1 0x14 PUSH1 0x24 DUP3 ADD MSTORE PUSH32 0x43726F776473616C653A20726174652069732030000000000000000000000000 PUSH1 0x44 DUP3 ADD MSTORE PUSH1 0x64 ADD JUMPDEST PUSH1 0x40 MLOAD DUP1 SWAP2 SUB SWAP1 REVERT JUMPDEST PUSH1 0x1 PUSH1 0x1 PUSH1 0xA0 SHL SUB DUP3 AND PUSH3 0xF2 JUMPI PUSH1 0x40 MLOAD PUSH3 0x461BCD PUSH1 0xE5 SHL DUP2 MSTORE PUSH1 0x20 PUSH1 0x4 DUP3 ADD MSTORE PUSH1 0x25 PUSH1 0x24 DUP3 ADD MSTORE PUSH32 0x43726F776473616C653A2077616C6C657420697320746865207A65726F206164 PUSH1 0x44 DUP3 ADD MSTORE PUSH5 0x6472657373 PUSH1 0xD8 SHL PUSH1 0x64 DUP3 ADD MSTORE PUSH1 0x84 ADD PUSH3 0x83 JUMP JUMPDEST PUSH1 0x1 PUSH1 0x1 PUSH1 0xA0 SHL SUB DUP2 AND PUSH3 0x156 JUMPI PUSH1 0x40 MLOAD PUSH3 0x461BCD PUSH1 0xE5 SHL DUP2 MSTORE PUSH1 0x20 PUSH1 0x4 DUP3 ADD MSTORE PUSH1 0x24 DUP1 DUP3 ADD MSTORE PUSH32 0x43726F776473616C653A20746F6B656E20697320746865207A65726F20616464 PUSH1 0x44 DUP3 ADD MSTORE PUSH4 0x72657373 PUSH1 0xE0 SHL PUSH1 0x64 DUP3 ADD MSTORE PUSH1 0x84 ADD PUSH3 0x83 JUMP JUMPDEST PUSH1 0x4 DUP4 SWAP1 SSTORE PUSH1 0x3 DUP1 SLOAD PUSH1 0x1 PUSH1 0x1 PUSH1 0xA0 SHL SUB DUP1 DUP6 AND PUSH1 0x1 PUSH1 0x1 PUSH1 0xA0 SHL SUB NOT SWAP3 DUP4 AND OR SWAP1 SWAP3 SSTORE PUSH1 0x2 DUP1 SLOAD SWAP3 DUP5 AND SWAP3 SWAP1 SWAP2 AND SWAP2 SWAP1 SWAP2 OR SWAP1 SSTORE PUSH3 0x198 PUSH1 0x0 CALLER PUSH3 0x1A1 JUMP JUMPDEST POP POP POP PUSH3 0x29A JUMP JUMPDEST PUSH3 0x1AD DUP3 DUP3 PUSH3 0x1B1 JUMP JUMPDEST POP POP JUMP JUMPDEST PUSH1 0x0 DUP3 DUP2 MSTORE PUSH1 0x1 PUSH1 0x20 SWAP1 DUP2 MSTORE PUSH1 0x40 DUP1 DUP4 KECCAK256 PUSH1 0x1 PUSH1 0x1 PUSH1 0xA0 SHL SUB DUP6 AND DUP5 MSTORE SWAP1 SWAP2 MSTORE SWAP1 KECCAK256 SLOAD PUSH1 0xFF AND PUSH3 0x1AD JUMPI PUSH1 0x0 DUP3 DUP2 MSTORE PUSH1 0x1 PUSH1 0x20 DUP2 DUP2 MSTORE PUSH1 0x40 DUP1 DUP5 KECCAK256 PUSH1 0x1 PUSH1 0x1 PUSH1 0xA0 SHL SUB DUP7 AND DUP1 DUP7 MSTORE SWAP3 MSTORE DUP1 DUP5 KECCAK256 DUP1 SLOAD PUSH1 0xFF NOT AND SWAP1 SWAP4 OR SWAP1 SWAP3 SSTORE SWAP1 MLOAD CALLER SWAP3 DUP6 SWAP2 PUSH32 0x2F8788117E7EFF1D82E926EC794901D17C78024A50270940304540A733656F0D SWAP2 SWAP1 LOG4 POP POP JUMP JUMPDEST PUSH1 0x1 PUSH1 0x1 PUSH1 0xA0 SHL SUB DUP2 AND DUP2 EQ PUSH3 0x24F JUMPI PUSH1 0x0 DUP1 REVERT JUMPDEST POP JUMP JUMPDEST PUSH1 0x0 DUP1 PUSH1 0x0 PUSH1 0x60 DUP5 DUP7 SUB SLT ISZERO PUSH3 0x268 JUMPI PUSH1 0x0 DUP1 REVERT JUMPDEST DUP4 MLOAD SWAP3 POP PUSH1 0x20 DUP5 ADD MLOAD PUSH3 0x27C DUP2 PUSH3 0x239 JUMP JUMPDEST PUSH1 0x40 DUP6 ADD MLOAD SWAP1 SWAP3 POP PUSH3 0x28F DUP2 PUSH3 0x239 JUMP JUMPDEST DUP1 SWAP2 POP POP SWAP3 POP SWAP3 POP SWAP3 JUMP JUMPDEST PUSH2 0xDBF DUP1 PUSH3 0x2AA PUSH1 0x0 CODECOPY PUSH1 0x0 RETURN INVALID PUSH1 0x80 PUSH1 0x40 MSTORE PUSH1 0x4 CALLDATASIZE LT PUSH2 0xAB JUMPI PUSH1 0x0 CALLDATALOAD PUSH1 0xE0 SHR DUP1 PUSH4 0x521EB273 GT PUSH2 0x64 JUMPI DUP1 PUSH4 0x521EB273 EQ PUSH2 0x1A7 JUMPI DUP1 PUSH4 0x91D14854 EQ PUSH2 0x1D9 JUMPI DUP1 PUSH4 0xA217FDDF EQ PUSH2 0x1F9 JUMPI DUP1 PUSH4 0xD547741F EQ PUSH2 0x20E JUMPI DUP1 PUSH4 0xEC8AC4D8 EQ PUSH2 0x22E JUMPI DUP1 PUSH4 0xFC0C546A EQ PUSH2 0x23C JUMPI PUSH2 0xC0 JUMP JUMPDEST DUP1 PUSH4 0x1FFC9A7 EQ PUSH2 0xC9 JUMPI DUP1 PUSH4 0x248A9CA3 EQ PUSH2 0xFE JUMPI DUP1 PUSH4 0x2C4E722E EQ PUSH2 0x13D JUMPI DUP1 PUSH4 0x2F2FF15D EQ PUSH2 0x152 JUMPI DUP1 PUSH4 0x36568ABE EQ PUSH2 0x172 JUMPI DUP1 PUSH4 0x4042B66F EQ PUSH2 0x192 JUMPI PUSH2 0xC0 JUMP JUMPDEST CALLDATASIZE PUSH2 0xC0 JUMPI PUSH2 0xBE CALLER PUSH2 0x25A JUMP JUMPDEST PUSH2 0x25A JUMP JUMPDEST STOP JUMPDEST PUSH2 0xBE CALLER PUSH2 0x25A JUMP JUMPDEST CALLVALUE DUP1 ISZERO PUSH2 0xD5 JUMPI PUSH1 0x0 DUP1 REVERT JUMPDEST POP PUSH2 0xE9 PUSH2 0xE4 CALLDATASIZE PUSH1 0x4 PUSH2 0xB3D JUMP JUMPDEST PUSH2 0x342 JUMP JUMPDEST PUSH1 0x40 MLOAD SWAP1 ISZERO ISZERO DUP2 MSTORE PUSH1 0x20 ADD JUMPDEST PUSH1 0x40 MLOAD DUP1 SWAP2 SUB SWAP1 RETURN JUMPDEST CALLVALUE DUP1 ISZERO PUSH2 0x10A JUMPI PUSH1 0x0 DUP1 REVERT JUMPDEST POP PUSH2 0x12F PUSH2 0x119 CALLDATASIZE PUSH1 0x4 PUSH2 0xB67 JUMP JUMPDEST PUSH1 0x0 SWAP1 DUP2 MSTORE PUSH1 0x1 PUSH1 0x20 DUP2 SWAP1 MSTORE PUSH1 0x40 SWAP1 SWAP2 KECCAK256 ADD SLOAD SWAP1 JUMP JUMPDEST PUSH1 0x40 MLOAD SWAP1 DUP2 MSTORE PUSH1 0x20 ADD PUSH2 0xF5 JUMP JUMPDEST CALLVALUE DUP1 ISZERO PUSH2 0x149 JUMPI PUSH1 0x0 DUP1 REVERT JUMPDEST POP PUSH1 0x4 SLOAD PUSH2 0x12F JUMP JUMPDEST CALLVALUE DUP1 ISZERO PUSH2 0x15E JUMPI PUSH1 0x0 DUP1 REVERT JUMPDEST POP PUSH2 0xBE PUSH2 0x16D CALLDATASIZE PUSH1 0x4 PUSH2 0xB9C JUMP JUMPDEST PUSH2 0x379 JUMP JUMPDEST CALLVALUE DUP1 ISZERO PUSH2 0x17E JUMPI PUSH1 0x0 DUP1 REVERT JUMPDEST POP PUSH2 0xBE PUSH2 0x18D CALLDATASIZE PUSH1 0x4 PUSH2 0xB9C JUMP JUMPDEST PUSH2 0x3A4 JUMP JUMPDEST CALLVALUE DUP1 ISZERO PUSH2 0x19E JUMPI PUSH1 0x0 DUP1 REVERT JUMPDEST POP PUSH1 0x5 SLOAD PUSH2 0x12F JUMP JUMPDEST CALLVALUE DUP1 ISZERO PUSH2 0x1B3 JUMPI PUSH1 0x0 DUP1 REVERT JUMPDEST POP PUSH1 0x3 SLOAD PUSH1 0x1 PUSH1 0x1 PUSH1 0xA0 SHL SUB AND JUMPDEST PUSH1 0x40 MLOAD PUSH1 0x1 PUSH1 0x1 PUSH1 0xA0 SHL SUB SWAP1 SWAP2 AND DUP2 MSTORE PUSH1 0x20 ADD PUSH2 0xF5 JUMP JUMPDEST CALLVALUE DUP1 ISZERO PUSH2 0x1E5 JUMPI PUSH1 0x0 DUP1 REVERT JUMPDEST POP PUSH2 0xE9 PUSH2 0x1F4 CALLDATASIZE PUSH1 0x4 PUSH2 0xB9C JUMP JUMPDEST PUSH2 0x422 JUMP JUMPDEST CALLVALUE DUP1 ISZERO PUSH2 0x205 JUMPI PUSH1 0x0 DUP1 REVERT JUMPDEST POP PUSH2 0x12F PUSH1 0x0 DUP2 JUMP JUMPDEST CALLVALUE DUP1 ISZERO PUSH2 0x21A JUMPI PUSH1 0x0 DUP1 REVERT JUMPDEST POP PUSH2 0xBE PUSH2 0x229 CALLDATASIZE PUSH1 0x4 PUSH2 0xB9C JUMP JUMPDEST PUSH2 0x44D JUMP JUMPDEST PUSH2 0xBE PUSH2 0xB9 CALLDATASIZE PUSH1 0x4 PUSH2 0xBC8 JUMP JUMPDEST CALLVALUE DUP1 ISZERO PUSH2 0x248 JUMPI PUSH1 0x0 DUP1 REVERT JUMPDEST POP PUSH1 0x2 SLOAD PUSH1 0x1 PUSH1 0x1 PUSH1 0xA0 SHL SUB AND PUSH2 0x1C1 JUMP JUMPDEST PUSH1 0x2 PUSH1 0x0 SLOAD EQ ISZERO PUSH2 0x2B2 JUMPI PUSH1 0x40 MLOAD PUSH3 0x461BCD PUSH1 0xE5 SHL DUP2 MSTORE PUSH1 0x20 PUSH1 0x4 DUP3 ADD MSTORE PUSH1 0x1F PUSH1 0x24 DUP3 ADD MSTORE PUSH32 0x5265656E7472616E637947756172643A207265656E7472616E742063616C6C00 PUSH1 0x44 DUP3 ADD MSTORE PUSH1 0x64 ADD JUMPDEST PUSH1 0x40 MLOAD DUP1 SWAP2 SUB SWAP1 REVERT JUMPDEST PUSH1 0x2 PUSH1 0x0 SSTORE CALLVALUE PUSH2 0x2C2 DUP3 DUP3 PUSH2 0x473 JUMP JUMPDEST PUSH1 0x0 PUSH2 0x2CD DUP3 PUSH2 0x529 JUMP JUMPDEST PUSH1 0x5 SLOAD SWAP1 SWAP2 POP PUSH2 0x2DD SWAP1 DUP4 PUSH2 0x540 JUMP JUMPDEST PUSH1 0x5 SSTORE PUSH2 0x2EA DUP4 DUP3 PUSH2 0x553 JUMP JUMPDEST PUSH1 0x40 DUP1 MLOAD DUP4 DUP2 MSTORE PUSH1 0x20 DUP2 ADD DUP4 SWAP1 MSTORE PUSH1 0x1 PUSH1 0x1 PUSH1 0xA0 SHL SUB DUP6 AND SWAP2 CALLER SWAP2 PUSH32 0x6FAF93231A456E552DBC9961F58D9713EE4F2E69D15F1975B050EF0911053A7B SWAP2 ADD PUSH1 0x40 MLOAD DUP1 SWAP2 SUB SWAP1 LOG3 PUSH2 0x338 PUSH2 0x55D JUMP JUMPDEST POP POP PUSH1 0x1 PUSH1 0x0 SSTORE POP JUMP JUMPDEST PUSH1 0x0 PUSH1 0x1 PUSH1 0x1 PUSH1 0xE0 SHL SUB NOT DUP3 AND PUSH4 0x7965DB0B PUSH1 0xE0 SHL EQ DUP1 PUSH2 0x373 JUMPI POP PUSH4 0x1FFC9A7 PUSH1 0xE0 SHL PUSH1 0x1 PUSH1 0x1 PUSH1 0xE0 SHL SUB NOT DUP4 AND EQ JUMPDEST SWAP3 SWAP2 POP POP JUMP JUMPDEST PUSH1 0x0 DUP3 DUP2 MSTORE PUSH1 0x1 PUSH1 0x20 DUP2 SWAP1 MSTORE PUSH1 0x40 SWAP1 SWAP2 KECCAK256 ADD SLOAD PUSH2 0x395 DUP2 PUSH2 0x599 JUMP JUMPDEST PUSH2 0x39F DUP4 DUP4 PUSH2 0x5A3 JUMP JUMPDEST POP POP POP JUMP JUMPDEST PUSH1 0x1 PUSH1 0x1 PUSH1 0xA0 SHL SUB DUP2 AND CALLER EQ PUSH2 0x414 JUMPI PUSH1 0x40 MLOAD PUSH3 0x461BCD PUSH1 0xE5 SHL DUP2 MSTORE PUSH1 0x20 PUSH1 0x4 DUP3 ADD MSTORE PUSH1 0x2F PUSH1 0x24 DUP3 ADD MSTORE PUSH32 0x416363657373436F6E74726F6C3A2063616E206F6E6C792072656E6F756E6365 PUSH1 0x44 DUP3 ADD MSTORE PUSH15 0x103937B632B9903337B91039B2B633 PUSH1 0x89 SHL PUSH1 0x64 DUP3 ADD MSTORE PUSH1 0x84 ADD PUSH2 0x2A9 JUMP JUMPDEST PUSH2 0x41E DUP3 DUP3 PUSH2 0x60E JUMP JUMPDEST POP POP JUMP JUMPDEST PUSH1 0x0 SWAP2 DUP3 MSTORE PUSH1 0x1 PUSH1 0x20 SWAP1 DUP2 MSTORE PUSH1 0x40 DUP1 DUP5 KECCAK256 PUSH1 0x1 PUSH1 0x1 PUSH1 0xA0 SHL SUB SWAP4 SWAP1 SWAP4 AND DUP5 MSTORE SWAP2 SWAP1 MSTORE SWAP1 KECCAK256 SLOAD PUSH1 0xFF AND SWAP1 JUMP JUMPDEST PUSH1 0x0 DUP3 DUP2 MSTORE PUSH1 0x1 PUSH1 0x20 DUP2 SWAP1 MSTORE PUSH1 0x40 SWAP1 SWAP2 KECCAK256 ADD SLOAD PUSH2 0x469 DUP2 PUSH2 0x599 JUMP JUMPDEST PUSH2 0x39F DUP4 DUP4 PUSH2 0x60E JUMP JUMPDEST PUSH1 0x1 PUSH1 0x1 PUSH1 0xA0 SHL SUB DUP3 AND PUSH2 0x4DC JUMPI PUSH1 0x40 MLOAD PUSH3 0x461BCD PUSH1 0xE5 SHL DUP2 MSTORE PUSH1 0x20 PUSH1 0x4 DUP3 ADD MSTORE PUSH1 0x2A PUSH1 0x24 DUP3 ADD MSTORE PUSH32 0x43726F776473616C653A2062656E656669636961727920697320746865207A65 PUSH1 0x44 DUP3 ADD MSTORE PUSH10 0x726F2061646472657373 PUSH1 0xB0 SHL PUSH1 0x64 DUP3 ADD MSTORE PUSH1 0x84 ADD PUSH2 0x2A9 JUMP JUMPDEST DUP1 PUSH2 0x41E JUMPI PUSH1 0x40 MLOAD PUSH3 0x461BCD PUSH1 0xE5 SHL DUP2 MSTORE PUSH1 0x20 PUSH1 0x4 DUP3 ADD MSTORE PUSH1 0x19 PUSH1 0x24 DUP3 ADD MSTORE PUSH32 0x43726F776473616C653A20776569416D6F756E74206973203000000000000000 PUSH1 0x44 DUP3 ADD MSTORE PUSH1 0x64 ADD PUSH2 0x2A9 JUMP JUMPDEST PUSH1 0x0 PUSH2 0x373 PUSH1 0x4 SLOAD DUP4 PUSH2 0x675 SWAP1 SWAP2 SWAP1 PUSH4 0xFFFFFFFF AND JUMP JUMPDEST PUSH1 0x0 PUSH2 0x54C DUP3 DUP5 PUSH2 0xBF9 JUMP JUMPDEST SWAP4 SWAP3 POP POP POP JUMP JUMPDEST PUSH2 0x41E DUP3 DUP3 PUSH2 0x681 JUMP JUMPDEST PUSH1 0x3 SLOAD PUSH1 0x40 MLOAD PUSH1 0x1 PUSH1 0x1 PUSH1 0xA0 SHL SUB SWAP1 SWAP2 AND SWAP1 CALLVALUE DUP1 ISZERO PUSH2 0x8FC MUL SWAP2 PUSH1 0x0 DUP2 DUP2 DUP2 DUP6 DUP9 DUP9 CALL SWAP4 POP POP POP POP ISZERO DUP1 ISZERO PUSH2 0x596 JUMPI RETURNDATASIZE PUSH1 0x0 DUP1 RETURNDATACOPY RETURNDATASIZE PUSH1 0x0 REVERT JUMPDEST POP JUMP JUMPDEST PUSH2 0x596 DUP2 CALLER PUSH2 0x698 JUMP JUMPDEST PUSH2 0x5AD DUP3 DUP3 PUSH2 0x422 JUMP JUMPDEST PUSH2 0x41E JUMPI PUSH1 0x0 DUP3 DUP2 MSTORE PUSH1 0x1 PUSH1 0x20 DUP2 DUP2 MSTORE PUSH1 0x40 DUP1 DUP5 KECCAK256 PUSH1 0x1 PUSH1 0x1 PUSH1 0xA0 SHL SUB DUP7 AND DUP1 DUP7 MSTORE SWAP3 MSTORE DUP1 DUP5 KECCAK256 DUP1 SLOAD PUSH1 0xFF NOT AND SWAP1 SWAP4 OR SWAP1 SWAP3 SSTORE SWAP1 MLOAD CALLER SWAP3 DUP6 SWAP2 PUSH32 0x2F8788117E7EFF1D82E926EC794901D17C78024A50270940304540A733656F0D SWAP2 SWAP1 LOG4 POP POP JUMP JUMPDEST PUSH2 0x618 DUP3 DUP3 PUSH2 0x422 JUMP JUMPDEST ISZERO PUSH2 0x41E JUMPI PUSH1 0x0 DUP3 DUP2 MSTORE PUSH1 0x1 PUSH1 0x20 SWAP1 DUP2 MSTORE PUSH1 0x40 DUP1 DUP4 KECCAK256 PUSH1 0x1 PUSH1 0x1 PUSH1 0xA0 SHL SUB DUP6 AND DUP1 DUP6 MSTORE SWAP3 MSTORE DUP1 DUP4 KECCAK256 DUP1 SLOAD PUSH1 0xFF NOT AND SWAP1 SSTORE MLOAD CALLER SWAP3 DUP6 SWAP2 PUSH32 0xF6391F5C32D9C69D2A47EA670B442974B53935D1EDC7FD64EB21E047A839171B SWAP2 SWAP1 LOG4 POP POP JUMP JUMPDEST PUSH1 0x0 PUSH2 0x54C DUP3 DUP5 PUSH2 0xC11 JUMP JUMPDEST PUSH1 0x2 SLOAD PUSH2 0x41E SWAP1 PUSH1 0x1 PUSH1 0x1 PUSH1 0xA0 SHL SUB AND DUP4 DUP4 PUSH2 0x6FC JUMP JUMPDEST PUSH2 0x6A2 DUP3 DUP3 PUSH2 0x422 JUMP JUMPDEST PUSH2 0x41E JUMPI PUSH2 0x6BA DUP2 PUSH1 0x1 PUSH1 0x1 PUSH1 0xA0 SHL SUB AND PUSH1 0x14 PUSH2 0x74E JUMP JUMPDEST PUSH2 0x6C5 DUP4 PUSH1 0x20 PUSH2 0x74E JUMP JUMPDEST PUSH1 0x40 MLOAD PUSH1 0x20 ADD PUSH2 0x6D6 SWAP3 SWAP2 SWAP1 PUSH2 0xC60 JUMP JUMPDEST PUSH1 0x40 DUP1 MLOAD PUSH1 0x1F NOT DUP2 DUP5 SUB ADD DUP2 MSTORE SWAP1 DUP3 SWAP1 MSTORE PUSH3 0x461BCD PUSH1 0xE5 SHL DUP3 MSTORE PUSH2 0x2A9 SWAP2 PUSH1 0x4 ADD PUSH2 0xCD5 JUMP JUMPDEST PUSH1 0x40 DUP1 MLOAD PUSH1 0x1 PUSH1 0x1 PUSH1 0xA0 SHL SUB DUP5 AND PUSH1 0x24 DUP3 ADD MSTORE PUSH1 0x44 DUP1 DUP3 ADD DUP5 SWAP1 MSTORE DUP3 MLOAD DUP1 DUP4 SUB SWAP1 SWAP2 ADD DUP2 MSTORE PUSH1 0x64 SWAP1 SWAP2 ADD SWAP1 SWAP2 MSTORE PUSH1 0x20 DUP2 ADD DUP1 MLOAD PUSH1 0x1 PUSH1 0x1 PUSH1 0xE0 SHL SUB AND PUSH4 0xA9059CBB PUSH1 0xE0 SHL OR SWAP1 MSTORE PUSH2 0x39F SWAP1 DUP5 SWAP1 PUSH2 0x8EA JUMP JUMPDEST PUSH1 0x60 PUSH1 0x0 PUSH2 0x75D DUP4 PUSH1 0x2 PUSH2 0xC11 JUMP JUMPDEST PUSH2 0x768 SWAP1 PUSH1 0x2 PUSH2 0xBF9 JUMP JUMPDEST PUSH8 0xFFFFFFFFFFFFFFFF DUP2 GT ISZERO PUSH2 0x780 JUMPI PUSH2 0x780 PUSH2 0xD08 JUMP JUMPDEST PUSH1 0x40 MLOAD SWAP1 DUP1 DUP3 MSTORE DUP1 PUSH1 0x1F ADD PUSH1 0x1F NOT AND PUSH1 0x20 ADD DUP3 ADD PUSH1 0x40 MSTORE DUP1 ISZERO PUSH2 0x7AA JUMPI PUSH1 0x20 DUP3 ADD DUP2 DUP1 CALLDATASIZE DUP4 CALLDATACOPY ADD SWAP1 POP JUMPDEST POP SWAP1 POP PUSH1 0x3 PUSH1 0xFC SHL DUP2 PUSH1 0x0 DUP2 MLOAD DUP2 LT PUSH2 0x7C5 JUMPI PUSH2 0x7C5 PUSH2 0xD1E JUMP JUMPDEST PUSH1 0x20 ADD ADD SWAP1 PUSH1 0x1 PUSH1 0x1 PUSH1 0xF8 SHL SUB NOT AND SWAP1 DUP2 PUSH1 0x0 BYTE SWAP1 MSTORE8 POP PUSH1 0xF PUSH1 0xFB SHL DUP2 PUSH1 0x1 DUP2 MLOAD DUP2 LT PUSH2 0x7F4 JUMPI PUSH2 0x7F4 PUSH2 0xD1E JUMP JUMPDEST PUSH1 0x20 ADD ADD SWAP1 PUSH1 0x1 PUSH1 0x1 PUSH1 0xF8 SHL SUB NOT AND SWAP1 DUP2 PUSH1 0x0 BYTE SWAP1 MSTORE8 POP PUSH1 0x0 PUSH2 0x818 DUP5 PUSH1 0x2 PUSH2 0xC11 JUMP JUMPDEST PUSH2 0x823 SWAP1 PUSH1 0x1 PUSH2 0xBF9 JUMP JUMPDEST SWAP1 POP JUMPDEST PUSH1 0x1 DUP2 GT ISZERO PUSH2 0x89B JUMPI PUSH16 0x181899199A1A9B1B9C1CB0B131B232B3 PUSH1 0x81 SHL DUP6 PUSH1 0xF AND PUSH1 0x10 DUP2 LT PUSH2 0x857 JUMPI PUSH2 0x857 PUSH2 0xD1E JUMP JUMPDEST BYTE PUSH1 0xF8 SHL DUP3 DUP3 DUP2 MLOAD DUP2 LT PUSH2 0x86D JUMPI PUSH2 0x86D PUSH2 0xD1E JUMP JUMPDEST PUSH1 0x20 ADD ADD SWAP1 PUSH1 0x1 PUSH1 0x1 PUSH1 0xF8 SHL SUB NOT AND SWAP1 DUP2 PUSH1 0x0 BYTE SWAP1 MSTORE8 POP PUSH1 0x4 SWAP5 SWAP1 SWAP5 SHR SWAP4 PUSH2 0x894 DUP2 PUSH2 0xD34 JUMP JUMPDEST SWAP1 POP PUSH2 0x826 JUMP JUMPDEST POP DUP4 ISZERO PUSH2 0x54C JUMPI PUSH1 0x40 MLOAD PUSH3 0x461BCD PUSH1 0xE5 SHL DUP2 MSTORE PUSH1 0x20 PUSH1 0x4 DUP3 ADD DUP2 SWAP1 MSTORE PUSH1 0x24 DUP3 ADD MSTORE PUSH32 0x537472696E67733A20686578206C656E67746820696E73756666696369656E74 PUSH1 0x44 DUP3 ADD MSTORE PUSH1 0x64 ADD PUSH2 0x2A9 JUMP JUMPDEST PUSH1 0x0 PUSH2 0x93F DUP3 PUSH1 0x40 MLOAD DUP1 PUSH1 0x40 ADD PUSH1 0x40 MSTORE DUP1 PUSH1 0x20 DUP2 MSTORE PUSH1 0x20 ADD PUSH32 0x5361666545524332303A206C6F772D6C6576656C2063616C6C206661696C6564 DUP2 MSTORE POP DUP6 PUSH1 0x1 PUSH1 0x1 PUSH1 0xA0 SHL SUB AND PUSH2 0x9BC SWAP1 SWAP3 SWAP2 SWAP1 PUSH4 0xFFFFFFFF AND JUMP JUMPDEST DUP1 MLOAD SWAP1 SWAP2 POP ISZERO PUSH2 0x39F JUMPI DUP1 DUP1 PUSH1 0x20 ADD SWAP1 MLOAD DUP2 ADD SWAP1 PUSH2 0x95D SWAP2 SWAP1 PUSH2 0xD4B JUMP JUMPDEST PUSH2 0x39F JUMPI PUSH1 0x40 MLOAD PUSH3 0x461BCD PUSH1 0xE5 SHL DUP2 MSTORE PUSH1 0x20 PUSH1 0x4 DUP3 ADD MSTORE PUSH1 0x2A PUSH1 0x24 DUP3 ADD MSTORE PUSH32 0x5361666545524332303A204552433230206F7065726174696F6E20646964206E PUSH1 0x44 DUP3 ADD MSTORE PUSH10 0x1BDD081CDD58D8D95959 PUSH1 0xB2 SHL PUSH1 0x64 DUP3 ADD MSTORE PUSH1 0x84 ADD PUSH2 0x2A9 JUMP JUMPDEST PUSH1 0x60 PUSH2 0x9CB DUP5 DUP5 PUSH1 0x0 DUP6 PUSH2 0x9D3 JUMP JUMPDEST SWAP5 SWAP4 POP POP POP POP JUMP JUMPDEST PUSH1 0x60 DUP3 SELFBALANCE LT ISZERO PUSH2 0xA34 JUMPI PUSH1 0x40 MLOAD PUSH3 0x461BCD PUSH1 0xE5 SHL DUP2 MSTORE PUSH1 0x20 PUSH1 0x4 DUP3 ADD MSTORE PUSH1 0x26 PUSH1 0x24 DUP3 ADD MSTORE PUSH32 0x416464726573733A20696E73756666696369656E742062616C616E636520666F PUSH1 0x44 DUP3 ADD MSTORE PUSH6 0x1C8818D85B1B PUSH1 0xD2 SHL PUSH1 0x64 DUP3 ADD MSTORE PUSH1 0x84 ADD PUSH2 0x2A9 JUMP JUMPDEST PUSH1 0x1 PUSH1 0x1 PUSH1 0xA0 SHL SUB DUP6 AND EXTCODESIZE PUSH2 0xA8B JUMPI PUSH1 0x40 MLOAD PUSH3 0x461BCD PUSH1 0xE5 SHL DUP2 MSTORE PUSH1 0x20 PUSH1 0x4 DUP3 ADD MSTORE PUSH1 0x1D PUSH1 0x24 DUP3 ADD MSTORE PUSH32 0x416464726573733A2063616C6C20746F206E6F6E2D636F6E7472616374000000 PUSH1 0x44 DUP3 ADD MSTORE PUSH1 0x64 ADD PUSH2 0x2A9 JUMP JUMPDEST PUSH1 0x0 DUP1 DUP7 PUSH1 0x1 PUSH1 0x1 PUSH1 0xA0 SHL SUB AND DUP6 DUP8 PUSH1 0x40 MLOAD PUSH2 0xAA7 SWAP2 SWAP1 PUSH2 0xD6D JUMP JUMPDEST PUSH1 0x0 PUSH1 0x40 MLOAD DUP1 DUP4 SUB DUP2 DUP6 DUP8 GAS CALL SWAP3 POP POP POP RETURNDATASIZE DUP1 PUSH1 0x0 DUP2 EQ PUSH2 0xAE4 JUMPI PUSH1 0x40 MLOAD SWAP2 POP PUSH1 0x1F NOT PUSH1 0x3F RETURNDATASIZE ADD AND DUP3 ADD PUSH1 0x40 MSTORE RETURNDATASIZE DUP3 MSTORE RETURNDATASIZE PUSH1 0x0 PUSH1 0x20 DUP5 ADD RETURNDATACOPY PUSH2 0xAE9 JUMP JUMPDEST PUSH1 0x60 SWAP2 POP JUMPDEST POP SWAP2 POP SWAP2 POP PUSH2 0xAF9 DUP3 DUP3 DUP7 PUSH2 0xB04 JUMP JUMPDEST SWAP8 SWAP7 POP POP POP POP POP POP POP JUMP JUMPDEST PUSH1 0x60 DUP4 ISZERO PUSH2 0xB13 JUMPI POP DUP2 PUSH2 0x54C JUMP JUMPDEST DUP3 MLOAD ISZERO PUSH2 0xB23 JUMPI DUP3 MLOAD DUP1 DUP5 PUSH1 0x20 ADD REVERT JUMPDEST DUP2 PUSH1 0x40 MLOAD PUSH3 0x461BCD PUSH1 0xE5 SHL DUP2 MSTORE PUSH1 0x4 ADD PUSH2 0x2A9 SWAP2 SWAP1 PUSH2 0xCD5 JUMP JUMPDEST PUSH1 0x0 PUSH1 0x20 DUP3 DUP5 SUB SLT ISZERO PUSH2 0xB4F JUMPI PUSH1 0x0 DUP1 REVERT JUMPDEST DUP2 CALLDATALOAD PUSH1 0x1 PUSH1 0x1 PUSH1 0xE0 SHL SUB NOT DUP2 AND DUP2 EQ PUSH2 0x54C JUMPI PUSH1 0x0 DUP1 REVERT JUMPDEST PUSH1 0x0 PUSH1 0x20 DUP3 DUP5 SUB SLT ISZERO PUSH2 0xB79 JUMPI PUSH1 0x0 DUP1 REVERT JUMPDEST POP CALLDATALOAD SWAP2 SWAP1 POP JUMP JUMPDEST DUP1 CALLDATALOAD PUSH1 0x1 PUSH1 0x1 PUSH1 0xA0 SHL SUB DUP2 AND DUP2 EQ PUSH2 0xB97 JUMPI PUSH1 0x0 DUP1 REVERT JUMPDEST SWAP2 SWAP1 POP JUMP JUMPDEST PUSH1 0x0 DUP1 PUSH1 0x40 DUP4 DUP6 SUB SLT ISZERO PUSH2 0xBAF JUMPI PUSH1 0x0 DUP1 REVERT JUMPDEST DUP3 CALLDATALOAD SWAP2 POP PUSH2 0xBBF PUSH1 0x20 DUP5 ADD PUSH2 0xB80 JUMP JUMPDEST SWAP1 POP SWAP3 POP SWAP3 SWAP1 POP JUMP JUMPDEST PUSH1 0x0 PUSH1 0x20 DUP3 DUP5 SUB SLT ISZERO PUSH2 0xBDA JUMPI PUSH1 0x0 DUP1 REVERT JUMPDEST PUSH2 0x54C DUP3 PUSH2 0xB80 JUMP JUMPDEST PUSH4 0x4E487B71 PUSH1 0xE0 SHL PUSH1 0x0 MSTORE PUSH1 0x11 PUSH1 0x4 MSTORE PUSH1 0x24 PUSH1 0x0 REVERT JUMPDEST PUSH1 0x0 DUP3 NOT DUP3 GT ISZERO PUSH2 0xC0C JUMPI PUSH2 0xC0C PUSH2 0xBE3 JUMP JUMPDEST POP ADD SWAP1 JUMP JUMPDEST PUSH1 0x0 DUP2 PUSH1 0x0 NOT DIV DUP4 GT DUP3 ISZERO ISZERO AND ISZERO PUSH2 0xC2B JUMPI PUSH2 0xC2B PUSH2 0xBE3 JUMP JUMPDEST POP MUL SWAP1 JUMP JUMPDEST PUSH1 0x0 JUMPDEST DUP4 DUP2 LT ISZERO PUSH2 0xC4B JUMPI DUP2 DUP2 ADD MLOAD DUP4 DUP3 ADD MSTORE PUSH1 0x20 ADD PUSH2 0xC33 JUMP JUMPDEST DUP4 DUP2 GT ISZERO PUSH2 0xC5A JUMPI PUSH1 0x0 DUP5 DUP5 ADD MSTORE JUMPDEST POP POP POP POP JUMP JUMPDEST PUSH32 0x416363657373436F6E74726F6C3A206163636F756E7420000000000000000000 DUP2 MSTORE PUSH1 0x0 DUP4 MLOAD PUSH2 0xC98 DUP2 PUSH1 0x17 DUP6 ADD PUSH1 0x20 DUP9 ADD PUSH2 0xC30 JUMP JUMPDEST PUSH17 0x1034B99036B4B9B9B4B733903937B6329 PUSH1 0x7D SHL PUSH1 0x17 SWAP2 DUP5 ADD SWAP2 DUP3 ADD MSTORE DUP4 MLOAD PUSH2 0xCC9 DUP2 PUSH1 0x28 DUP5 ADD PUSH1 0x20 DUP9 ADD PUSH2 0xC30 JUMP JUMPDEST ADD PUSH1 0x28 ADD SWAP5 SWAP4 POP POP POP POP JUMP JUMPDEST PUSH1 0x20 DUP2 MSTORE PUSH1 0x0 DUP3 MLOAD DUP1 PUSH1 0x20 DUP5 ADD MSTORE PUSH2 0xCF4 DUP2 PUSH1 0x40 DUP6 ADD PUSH1 0x20 DUP8 ADD PUSH2 0xC30 JUMP JUMPDEST PUSH1 0x1F ADD PUSH1 0x1F NOT AND SWAP2 SWAP1 SWAP2 ADD PUSH1 0x40 ADD SWAP3 SWAP2 POP POP JUMP JUMPDEST PUSH4 0x4E487B71 PUSH1 0xE0 SHL PUSH1 0x0 MSTORE PUSH1 0x41 PUSH1 0x4 MSTORE PUSH1 0x24 PUSH1 0x0 REVERT JUMPDEST PUSH4 0x4E487B71 PUSH1 0xE0 SHL PUSH1 0x0 MSTORE PUSH1 0x32 PUSH1 0x4 MSTORE PUSH1 0x24 PUSH1 0x0 REVERT JUMPDEST PUSH1 0x0 DUP2 PUSH2 0xD43 JUMPI PUSH2 0xD43 PUSH2 0xBE3 JUMP JUMPDEST POP PUSH1 0x0 NOT ADD SWAP1 JUMP JUMPDEST PUSH1 0x0 PUSH1 0x20 DUP3 DUP5 SUB SLT ISZERO PUSH2 0xD5D JUMPI PUSH1 0x0 DUP1 REVERT JUMPDEST DUP2 MLOAD DUP1 ISZERO ISZERO DUP2 EQ PUSH2 0x54C JUMPI PUSH1 0x0 DUP1 REVERT JUMPDEST PUSH1 0x0 DUP3 MLOAD PUSH2 0xD7F DUP2 DUP5 PUSH1 0x20 DUP8 ADD PUSH2 0xC30 JUMP JUMPDEST SWAP2 SWAP1 SWAP2 ADD SWAP3 SWAP2 POP POP JUMP INVALID LOG2 PUSH5 0x6970667358 0x22 SLT KECCAK256 0x25 POP OR ADD DUP12 CREATE2 0xDF 0xC7 PUSH31 0x9D76E999A7BAEFA4D67839806E212CA514D3AC676C996964736F6C63430008 MULMOD STOP CALLER "
				},
				"gasEstimates": {
					"creation": {
						"codeDepositCost": "703800",
						"executionCost": "infinite",
						"totalCost": "infinite"
					},
					"external": {
						"": "infinite",
						"DEFAULT_ADMIN_ROLE()": "239",
						"buyTokens(address)": "infinite",
						"getRoleAdmin(bytes32)": "2473",
						"grantRole(bytes32,address)": "infinite",
						"hasRole(bytes32,address)": "2676",
						"rate()": "2337",
						"renounceRole(bytes32,address)": "29090",
						"revokeRole(bytes32,address)": "infinite",
						"supportsInterface(bytes4)": "427",
						"token()": "2441",
						"wallet()": "2320",
						"weiRaised()": "2403"
					},
					"internal": {
						"_deliverTokens(address,uint256)": "infinite",
						"_forwardFunds()": "infinite",
						"_getTokenAmount(uint256)": "infinite",
						"_postValidatePurchase(address,uint256)": "infinite",
						"_preValidatePurchase(address,uint256)": "infinite",
						"_processPurchase(address,uint256)": "infinite",
						"_updatePurchasingState(address,uint256)": "infinite"
					}
				},
				"methodIdentifiers": {
					"DEFAULT_ADMIN_ROLE()": "a217fddf",
					"buyTokens(address)": "ec8ac4d8",
					"getRoleAdmin(bytes32)": "248a9ca3",
					"grantRole(bytes32,address)": "2f2ff15d",
					"hasRole(bytes32,address)": "91d14854",
					"rate()": "2c4e722e",
					"renounceRole(bytes32,address)": "36568abe",
					"revokeRole(bytes32,address)": "d547741f",
					"supportsInterface(bytes4)": "01ffc9a7",
					"token()": "fc0c546a",
					"wallet()": "521eb273",
					"weiRaised()": "4042b66f"
				}
			},
			"storageLayout": {
				"storage": [
					{
						"astId": 403,
						"contract": "node_modules/@dtobi59/crowdsale/contracts/crowdsale/Crowdsale.sol:Crowdsale",
						"label": "_status",
						"offset": 0,
						"slot": "0",
						"type": "t_uint256"
					},
					{
						"astId": 24,
						"contract": "node_modules/@dtobi59/crowdsale/contracts/crowdsale/Crowdsale.sol:Crowdsale",
						"label": "_roles",
						"offset": 0,
						"slot": "1",
						"type": "t_mapping(t_bytes32,t_struct(RoleData)19_storage)"
					},
					{
						"astId": 1743,
						"contract": "node_modules/@dtobi59/crowdsale/contracts/crowdsale/Crowdsale.sol:Crowdsale",
						"label": "_token",
						"offset": 0,
						"slot": "2",
						"type": "t_contract(IERC20)510"
					},
					{
						"astId": 1745,
						"contract": "node_modules/@dtobi59/crowdsale/contracts/crowdsale/Crowdsale.sol:Crowdsale",
						"label": "_wallet",
						"offset": 0,
						"slot": "3",
						"type": "t_address_payable"
					},
					{
						"astId": 1747,
						"contract": "node_modules/@dtobi59/crowdsale/contracts/crowdsale/Crowdsale.sol:Crowdsale",
						"label": "_rate",
						"offset": 0,
						"slot": "4",
						"type": "t_uint256"
					},
					{
						"astId": 1749,
						"contract": "node_modules/@dtobi59/crowdsale/contracts/crowdsale/Crowdsale.sol:Crowdsale",
						"label": "_weiRaised",
						"offset": 0,
						"slot": "5",
						"type": "t_uint256"
					}
				],
				"types": {
					"t_address": {
						"encoding": "inplace",
						"label": "address",
						"numberOfBytes": "20"
					},
					"t_address_payable": {
						"encoding": "inplace",
						"label": "address payable",
						"numberOfBytes": "20"
					},
					"t_bool": {
						"encoding": "inplace",
						"label": "bool",
						"numberOfBytes": "1"
					},
					"t_bytes32": {
						"encoding": "inplace",
						"label": "bytes32",
						"numberOfBytes": "32"
					},
					"t_contract(IERC20)510": {
						"encoding": "inplace",
						"label": "contract IERC20",
						"numberOfBytes": "20"
					},
					"t_mapping(t_address,t_bool)": {
						"encoding": "mapping",
						"key": "t_address",
						"label": "mapping(address => bool)",
						"numberOfBytes": "32",
						"value": "t_bool"
					},
					"t_mapping(t_bytes32,t_struct(RoleData)19_storage)": {
						"encoding": "mapping",
						"key": "t_bytes32",
						"label": "mapping(bytes32 => struct AccessControl.RoleData)",
						"numberOfBytes": "32",
						"value": "t_struct(RoleData)19_storage"
					},
					"t_struct(RoleData)19_storage": {
						"encoding": "inplace",
						"label": "struct AccessControl.RoleData",
						"members": [
							{
								"astId": 16,
								"contract": "node_modules/@dtobi59/crowdsale/contracts/crowdsale/Crowdsale.sol:Crowdsale",
								"label": "members",
								"offset": 0,
								"slot": "0",
								"type": "t_mapping(t_address,t_bool)"
							},
							{
								"astId": 18,
								"contract": "node_modules/@dtobi59/crowdsale/contracts/crowdsale/Crowdsale.sol:Crowdsale",
								"label": "adminRole",
								"offset": 0,
								"slot": "1",
								"type": "t_bytes32"
							}
						],
						"numberOfBytes": "64"
					},
					"t_uint256": {
						"encoding": "inplace",
						"label": "uint256",
						"numberOfBytes": "32"
					}
				}
			},
			"userdoc": {
				"events": {
					"TokensPurchased(address,address,uint256,uint256)": {
						"notice": "Event for token purchase logging"
					}
				},
				"kind": "user",
				"methods": {},
				"version": 1
			}
		}
	}
}