{
	"contracts/Payme.sol": {
		"Payme": {
			"abi": [
				{
					"anonymous": false,
					"inputs": [
						{
							"indexed": false,
							"internalType": "uint8",
							"name": "version",
							"type": "uint8"
						}
					],
					"name": "Initialized",
					"type": "event"
				},
				{
					"anonymous": false,
					"inputs": [
						{
							"indexed": true,
							"internalType": "address",
							"name": "previousOwner",
							"type": "address"
						},
						{
							"indexed": true,
							"internalType": "address",
							"name": "newOwner",
							"type": "address"
						}
					],
					"name": "OwnershipTransferred",
					"type": "event"
				},
				{
					"inputs": [
						{
							"internalType": "address",
							"name": "_account",
							"type": "address"
						}
					],
					"name": "balanceOf",
					"outputs": [
						{
							"internalType": "uint256",
							"name": "",
							"type": "uint256"
						}
					],
					"stateMutability": "view",
					"type": "function"
				},
				{
					"inputs": [],
					"name": "getTokenAddress",
					"outputs": [
						{
							"internalType": "address",
							"name": "",
							"type": "address"
						}
					],
					"stateMutability": "view",
					"type": "function"
				},
				{
					"inputs": [
						{
							"internalType": "contract IERC20Upgradeable",
							"name": "token_",
							"type": "address"
						}
					],
					"name": "initialize",
					"outputs": [],
					"stateMutability": "nonpayable",
					"type": "function"
				},
				{
					"inputs": [],
					"name": "owner",
					"outputs": [
						{
							"internalType": "address",
							"name": "",
							"type": "address"
						}
					],
					"stateMutability": "view",
					"type": "function"
				},
				{
					"inputs": [],
					"name": "renounceOwnership",
					"outputs": [],
					"stateMutability": "nonpayable",
					"type": "function"
				},
				{
					"inputs": [
						{
							"internalType": "address",
							"name": "newOwner",
							"type": "address"
						}
					],
					"name": "transferOwnership",
					"outputs": [],
					"stateMutability": "nonpayable",
					"type": "function"
				}
			],
			"devdoc": {
				"kind": "dev",
				"methods": {
					"owner()": {
						"details": "Returns the address of the current owner."
					},
					"renounceOwnership()": {
						"details": "Leaves the contract without owner. It will not be possible to call `onlyOwner` functions anymore. Can only be called by the current owner. NOTE: Renouncing ownership will leave the contract without an owner, thereby removing any functionality that is only available to the owner."
					},
					"transferOwnership(address)": {
						"details": "Transfers ownership of the contract to a new account (`newOwner`). Can only be called by the current owner."
					}
				},
				"version": 1
			},
			"evm": {
				"assembly": "    /* \"contracts/Payme.sol\":704:1686  contract Payme is OwnableUpgradeable{... */\n  mstore(0x40, 0x80)\n  callvalue\n  dup1\n  iszero\n  tag_1\n  jumpi\n  0x00\n  dup1\n  revert\ntag_1:\n  pop\n  dataSize(sub_0)\n  dup1\n  dataOffset(sub_0)\n  0x00\n  codecopy\n  0x00\n  return\nstop\n\nsub_0: assembly {\n        /* \"contracts/Payme.sol\":704:1686  contract Payme is OwnableUpgradeable{... */\n      mstore(0x40, 0x80)\n      callvalue\n      dup1\n      iszero\n      tag_1\n      jumpi\n      0x00\n      dup1\n      revert\n    tag_1:\n      pop\n      jumpi(tag_2, lt(calldatasize, 0x04))\n      shr(0xe0, calldataload(0x00))\n      dup1\n      0x10fe9ae8\n      eq\n      tag_3\n      jumpi\n      dup1\n      0x70a08231\n      eq\n      tag_4\n      jumpi\n      dup1\n      0x715018a6\n      eq\n      tag_5\n      jumpi\n      dup1\n      0x8da5cb5b\n      eq\n      tag_6\n      jumpi\n      dup1\n      0xc4d66de8\n      eq\n      tag_7\n      jumpi\n      dup1\n      0xf2fde38b\n      eq\n      tag_8\n      jumpi\n    tag_2:\n      0x00\n      dup1\n      revert\n        /* \"contracts/Payme.sol\":1238:1332  function getTokenAddress() public view returns(address) {... */\n    tag_3:\n      tag_9\n      tag_10\n      jump\t// in\n    tag_9:\n      mload(0x40)\n      tag_11\n      swap2\n      swap1\n      tag_12\n      jump\t// in\n    tag_11:\n      mload(0x40)\n      dup1\n      swap2\n      sub\n      swap1\n      return\n        /* \"contracts/Payme.sol\":1338:1452  function balanceOf(address _account) public view returns(uint256){... */\n    tag_4:\n      tag_13\n      0x04\n      dup1\n      calldatasize\n      sub\n      dup2\n      add\n      swap1\n      tag_14\n      swap2\n      swap1\n      tag_15\n      jump\t// in\n    tag_14:\n      tag_16\n      jump\t// in\n    tag_13:\n      mload(0x40)\n      tag_17\n      swap2\n      swap1\n      tag_18\n      jump\t// in\n    tag_17:\n      mload(0x40)\n      dup1\n      swap2\n      sub\n      swap1\n      return\n        /* \"@openzeppelin/contracts-upgradeable/access/OwnableUpgradeable.sol\":2071:2172  function renounceOwnership() public virtual onlyOwner {... */\n    tag_5:\n      tag_19\n      tag_20\n      jump\t// in\n    tag_19:\n      stop\n        /* \"@openzeppelin/contracts-upgradeable/access/OwnableUpgradeable.sol\":1441:1526  function owner() public view virtual returns (address) {... */\n    tag_6:\n      tag_21\n      tag_22\n      jump\t// in\n    tag_21:\n      mload(0x40)\n      tag_23\n      swap2\n      swap1\n      tag_12\n      jump\t// in\n    tag_23:\n      mload(0x40)\n      dup1\n      swap2\n      sub\n      swap1\n      return\n        /* \"contracts/Payme.sol\":1042:1232  function initialize(IERC20Upgradeable token_) public initializer {... */\n    tag_7:\n      tag_24\n      0x04\n      dup1\n      calldatasize\n      sub\n      dup2\n      add\n      swap1\n      tag_25\n      swap2\n      swap1\n      tag_26\n      jump\t// in\n    tag_25:\n      tag_27\n      jump\t// in\n    tag_24:\n      stop\n        /* \"@openzeppelin/contracts-upgradeable/access/OwnableUpgradeable.sol\":2321:2519  function transferOwnership(address newOwner) public virtual onlyOwner {... */\n    tag_8:\n      tag_28\n      0x04\n      dup1\n      calldatasize\n      sub\n      dup2\n      add\n      swap1\n      tag_29\n      swap2\n      swap1\n      tag_15\n      jump\t// in\n    tag_29:\n      tag_30\n      jump\t// in\n    tag_28:\n      stop\n        /* \"contracts/Payme.sol\":1238:1332  function getTokenAddress() public view returns(address) {... */\n    tag_10:\n        /* \"contracts/Payme.sol\":1285:1292  address */\n      0x00\n        /* \"contracts/Payme.sol\":1318:1324  _token */\n      0x65\n      0x00\n      swap1\n      sload\n      swap1\n      0x0100\n      exp\n      swap1\n      div\n      0xffffffffffffffffffffffffffffffffffffffff\n      and\n        /* \"contracts/Payme.sol\":1303:1325  return address(_token) */\n      swap1\n      pop\n        /* \"contracts/Payme.sol\":1238:1332  function getTokenAddress() public view returns(address) {... */\n      swap1\n      jump\t// out\n        /* \"contracts/Payme.sol\":1338:1452  function balanceOf(address _account) public view returns(uint256){... */\n    tag_16:\n        /* \"contracts/Payme.sol\":1395:1402  uint256 */\n      0x00\n        /* \"contracts/Payme.sol\":1419:1425  _token */\n      0x65\n      0x00\n      swap1\n      sload\n      swap1\n      0x0100\n      exp\n      swap1\n      div\n      0xffffffffffffffffffffffffffffffffffffffff\n      and\n        /* \"contracts/Payme.sol\":1419:1435  _token.balanceOf */\n      0xffffffffffffffffffffffffffffffffffffffff\n      and\n      0x70a08231\n        /* \"contracts/Payme.sol\":1436:1444  _account */\n      dup4\n        /* \"contracts/Payme.sol\":1419:1445  _token.balanceOf(_account) */\n      mload(0x40)\n      dup3\n      0xffffffff\n      and\n      0xe0\n      shl\n      dup2\n      mstore\n      0x04\n      add\n      tag_33\n      swap2\n      swap1\n      tag_12\n      jump\t// in\n    tag_33:\n      0x20\n      mload(0x40)\n      dup1\n      dup4\n      sub\n      dup2\n      dup7\n      dup1\n      extcodesize\n      iszero\n      dup1\n      iszero\n      tag_34\n      jumpi\n      0x00\n      dup1\n      revert\n    tag_34:\n      pop\n      gas\n      staticcall\n      iszero\n      dup1\n      iszero\n      tag_36\n      jumpi\n      returndatasize\n      0x00\n      dup1\n      returndatacopy\n      revert(0x00, returndatasize)\n    tag_36:\n      pop\n      pop\n      pop\n      pop\n      mload(0x40)\n      returndatasize\n      not(0x1f)\n      0x1f\n      dup3\n      add\n      and\n      dup3\n      add\n      dup1\n      0x40\n      mstore\n      pop\n      dup2\n      add\n      swap1\n      tag_37\n      swap2\n      swap1\n      tag_38\n      jump\t// in\n    tag_37:\n        /* \"contracts/Payme.sol\":1411:1445  return  _token.balanceOf(_account) */\n      swap1\n      pop\n        /* \"contracts/Payme.sol\":1338:1452  function balanceOf(address _account) public view returns(uint256){... */\n      swap2\n      swap1\n      pop\n      jump\t// out\n        /* \"@openzeppelin/contracts-upgradeable/access/OwnableUpgradeable.sol\":2071:2172  function renounceOwnership() public virtual onlyOwner {... */\n    tag_20:\n        /* \"@openzeppelin/contracts-upgradeable/access/OwnableUpgradeable.sol\":1334:1347  _checkOwner() */\n      tag_40\n        /* \"@openzeppelin/contracts-upgradeable/access/OwnableUpgradeable.sol\":1334:1345  _checkOwner */\n      tag_41\n        /* \"@openzeppelin/contracts-upgradeable/access/OwnableUpgradeable.sol\":1334:1347  _checkOwner() */\n      jump\t// in\n    tag_40:\n        /* \"@openzeppelin/contracts-upgradeable/access/OwnableUpgradeable.sol\":2135:2165  _transferOwnership(address(0)) */\n      tag_43\n        /* \"@openzeppelin/contracts-upgradeable/access/OwnableUpgradeable.sol\":2162:2163  0 */\n      0x00\n        /* \"@openzeppelin/contracts-upgradeable/access/OwnableUpgradeable.sol\":2135:2153  _transferOwnership */\n      tag_44\n        /* \"@openzeppelin/contracts-upgradeable/access/OwnableUpgradeable.sol\":2135:2165  _transferOwnership(address(0)) */\n      jump\t// in\n    tag_43:\n        /* \"@openzeppelin/contracts-upgradeable/access/OwnableUpgradeable.sol\":2071:2172  function renounceOwnership() public virtual onlyOwner {... */\n      jump\t// out\n        /* \"@openzeppelin/contracts-upgradeable/access/OwnableUpgradeable.sol\":1441:1526  function owner() public view virtual returns (address) {... */\n    tag_22:\n        /* \"@openzeppelin/contracts-upgradeable/access/OwnableUpgradeable.sol\":1487:1494  address */\n      0x00\n        /* \"@openzeppelin/contracts-upgradeable/access/OwnableUpgradeable.sol\":1513:1519  _owner */\n      0x33\n      0x00\n      swap1\n      sload\n      swap1\n      0x0100\n      exp\n      swap1\n      div\n      0xffffffffffffffffffffffffffffffffffffffff\n      and\n        /* \"@openzeppelin/contracts-upgradeable/access/OwnableUpgradeable.sol\":1506:1519  return _owner */\n      swap1\n      pop\n        /* \"@openzeppelin/contracts-upgradeable/access/OwnableUpgradeable.sol\":1441:1526  function owner() public view virtual returns (address) {... */\n      swap1\n      jump\t// out\n        /* \"contracts/Payme.sol\":1042:1232  function initialize(IERC20Upgradeable token_) public initializer {... */\n    tag_27:\n        /* \"@openzeppelin/contracts-upgradeable/proxy/utils/Initializable.sol\":3111:3130  bool isTopLevelCall */\n      0x00\n        /* \"@openzeppelin/contracts-upgradeable/proxy/utils/Initializable.sol\":3134:3147  _initializing */\n      dup1\n      0x01\n      swap1\n      sload\n      swap1\n      0x0100\n      exp\n      swap1\n      div\n      0xff\n      and\n        /* \"@openzeppelin/contracts-upgradeable/proxy/utils/Initializable.sol\":3133:3147  !_initializing */\n      iszero\n        /* \"@openzeppelin/contracts-upgradeable/proxy/utils/Initializable.sol\":3111:3147  bool isTopLevelCall = !_initializing */\n      swap1\n      pop\n        /* \"@openzeppelin/contracts-upgradeable/proxy/utils/Initializable.sol\":3179:3193  isTopLevelCall */\n      dup1\n        /* \"@openzeppelin/contracts-upgradeable/proxy/utils/Initializable.sol\":3179:3213  isTopLevelCall && _initialized < 1 */\n      dup1\n      iszero\n      tag_47\n      jumpi\n      pop\n        /* \"@openzeppelin/contracts-upgradeable/proxy/utils/Initializable.sol\":3212:3213  1 */\n      0x01\n        /* \"@openzeppelin/contracts-upgradeable/proxy/utils/Initializable.sol\":3197:3209  _initialized */\n      0x00\n      dup1\n      sload\n      swap1\n      0x0100\n      exp\n      swap1\n      div\n      0xff\n      and\n        /* \"@openzeppelin/contracts-upgradeable/proxy/utils/Initializable.sol\":3197:3213  _initialized < 1 */\n      0xff\n      and\n      lt\n        /* \"@openzeppelin/contracts-upgradeable/proxy/utils/Initializable.sol\":3179:3213  isTopLevelCall && _initialized < 1 */\n    tag_47:\n        /* \"@openzeppelin/contracts-upgradeable/proxy/utils/Initializable.sol\":3178:3286  (isTopLevelCall && _initialized < 1) || (!AddressUpgradeable.isContract(address(this)) && _initialized == 1) */\n      dup1\n      tag_48\n      jumpi\n      pop\n        /* \"@openzeppelin/contracts-upgradeable/proxy/utils/Initializable.sol\":3220:3264  AddressUpgradeable.isContract(address(this)) */\n      tag_49\n        /* \"@openzeppelin/contracts-upgradeable/proxy/utils/Initializable.sol\":3258:3262  this */\n      address\n        /* \"@openzeppelin/contracts-upgradeable/proxy/utils/Initializable.sol\":3220:3249  AddressUpgradeable.isContract */\n      tag_50\n        /* \"@openzeppelin/contracts-upgradeable/proxy/utils/Initializable.sol\":3220:3264  AddressUpgradeable.isContract(address(this)) */\n      jump\t// in\n    tag_49:\n        /* \"@openzeppelin/contracts-upgradeable/proxy/utils/Initializable.sol\":3219:3264  !AddressUpgradeable.isContract(address(this)) */\n      iszero\n        /* \"@openzeppelin/contracts-upgradeable/proxy/utils/Initializable.sol\":3219:3285  !AddressUpgradeable.isContract(address(this)) && _initialized == 1 */\n      dup1\n      iszero\n      tag_51\n      jumpi\n      pop\n        /* \"@openzeppelin/contracts-upgradeable/proxy/utils/Initializable.sol\":3284:3285  1 */\n      0x01\n        /* \"@openzeppelin/contracts-upgradeable/proxy/utils/Initializable.sol\":3268:3280  _initialized */\n      0x00\n      dup1\n      sload\n      swap1\n      0x0100\n      exp\n      swap1\n      div\n      0xff\n      and\n        /* \"@openzeppelin/contracts-upgradeable/proxy/utils/Initializable.sol\":3268:3285  _initialized == 1 */\n      0xff\n      and\n      eq\n        /* \"@openzeppelin/contracts-upgradeable/proxy/utils/Initializable.sol\":3219:3285  !AddressUpgradeable.isContract(address(this)) && _initialized == 1 */\n    tag_51:\n        /* \"@openzeppelin/contracts-upgradeable/proxy/utils/Initializable.sol\":3178:3286  (isTopLevelCall && _initialized < 1) || (!AddressUpgradeable.isContract(address(this)) && _initialized == 1) */\n    tag_48:\n        /* \"@openzeppelin/contracts-upgradeable/proxy/utils/Initializable.sol\":3157:3358  require(... */\n      tag_52\n      jumpi\n      mload(0x40)\n      0x08c379a000000000000000000000000000000000000000000000000000000000\n      dup2\n      mstore\n      0x04\n      add\n      tag_53\n      swap1\n      tag_54\n      jump\t// in\n    tag_53:\n      mload(0x40)\n      dup1\n      swap2\n      sub\n      swap1\n      revert\n    tag_52:\n        /* \"@openzeppelin/contracts-upgradeable/proxy/utils/Initializable.sol\":3383:3384  1 */\n      0x01\n        /* \"@openzeppelin/contracts-upgradeable/proxy/utils/Initializable.sol\":3368:3380  _initialized */\n      0x00\n      dup1\n        /* \"@openzeppelin/contracts-upgradeable/proxy/utils/Initializable.sol\":3368:3384  _initialized = 1 */\n      0x0100\n      exp\n      dup2\n      sload\n      dup2\n      0xff\n      mul\n      not\n      and\n      swap1\n      dup4\n      0xff\n      and\n      mul\n      or\n      swap1\n      sstore\n      pop\n        /* \"@openzeppelin/contracts-upgradeable/proxy/utils/Initializable.sol\":3398:3412  isTopLevelCall */\n      dup1\n        /* \"@openzeppelin/contracts-upgradeable/proxy/utils/Initializable.sol\":3394:3459  if (isTopLevelCall) {... */\n      iszero\n      tag_55\n      jumpi\n        /* \"@openzeppelin/contracts-upgradeable/proxy/utils/Initializable.sol\":3444:3448  true */\n      0x01\n        /* \"@openzeppelin/contracts-upgradeable/proxy/utils/Initializable.sol\":3428:3441  _initializing */\n      0x00\n      0x01\n        /* \"@openzeppelin/contracts-upgradeable/proxy/utils/Initializable.sol\":3428:3448  _initializing = true */\n      0x0100\n      exp\n      dup2\n      sload\n      dup2\n      0xff\n      mul\n      not\n      and\n      swap1\n      dup4\n      iszero\n      iszero\n      mul\n      or\n      swap1\n      sstore\n      pop\n        /* \"@openzeppelin/contracts-upgradeable/proxy/utils/Initializable.sol\":3394:3459  if (isTopLevelCall) {... */\n    tag_55:\n        /* \"contracts/Payme.sol\":1152:1153  0 */\n      0x00\n        /* \"contracts/Payme.sol\":1125:1154  address(token_) != address(0) */\n      0xffffffffffffffffffffffffffffffffffffffff\n      and\n        /* \"contracts/Payme.sol\":1133:1139  token_ */\n      dup3\n        /* \"contracts/Payme.sol\":1125:1154  address(token_) != address(0) */\n      0xffffffffffffffffffffffffffffffffffffffff\n      and\n      eq\n      iszero\n        /* \"contracts/Payme.sol\":1117:1155  require(address(token_) != address(0)) */\n      tag_57\n      jumpi\n      0x00\n      dup1\n      revert\n    tag_57:\n        /* \"contracts/Payme.sol\":1165:1191  __Ownable_init_unchained() */\n      tag_58\n        /* \"contracts/Payme.sol\":1165:1189  __Ownable_init_unchained */\n      tag_59\n        /* \"contracts/Payme.sol\":1165:1191  __Ownable_init_unchained() */\n      jump\t// in\n    tag_58:\n        /* \"contracts/Payme.sol\":1219:1225  token_ */\n      dup2\n        /* \"contracts/Payme.sol\":1210:1216  _token */\n      0x65\n      0x00\n        /* \"contracts/Payme.sol\":1210:1225  _token = token_ */\n      0x0100\n      exp\n      dup2\n      sload\n      dup2\n      0xffffffffffffffffffffffffffffffffffffffff\n      mul\n      not\n      and\n      swap1\n      dup4\n      0xffffffffffffffffffffffffffffffffffffffff\n      and\n      mul\n      or\n      swap1\n      sstore\n      pop\n        /* \"@openzeppelin/contracts-upgradeable/proxy/utils/Initializable.sol\":3483:3497  isTopLevelCall */\n      dup1\n        /* \"@openzeppelin/contracts-upgradeable/proxy/utils/Initializable.sol\":3479:3578  if (isTopLevelCall) {... */\n      iszero\n      tag_60\n      jumpi\n        /* \"@openzeppelin/contracts-upgradeable/proxy/utils/Initializable.sol\":3529:3534  false */\n      0x00\n        /* \"@openzeppelin/contracts-upgradeable/proxy/utils/Initializable.sol\":3513:3526  _initializing */\n      dup1\n      0x01\n        /* \"@openzeppelin/contracts-upgradeable/proxy/utils/Initializable.sol\":3513:3534  _initializing = false */\n      0x0100\n      exp\n      dup2\n      sload\n      dup2\n      0xff\n      mul\n      not\n      and\n      swap1\n      dup4\n      iszero\n      iszero\n      mul\n      or\n      swap1\n      sstore\n      pop\n        /* \"@openzeppelin/contracts-upgradeable/proxy/utils/Initializable.sol\":3553:3567  Initialized(1) */\n      0x7f26b83ff96e1f2b6a682f133852f6798a09c465da95921460cefb3847402498\n        /* \"@openzeppelin/contracts-upgradeable/proxy/utils/Initializable.sol\":3565:3566  1 */\n      0x01\n        /* \"@openzeppelin/contracts-upgradeable/proxy/utils/Initializable.sol\":3553:3567  Initialized(1) */\n      mload(0x40)\n      tag_61\n      swap2\n      swap1\n      tag_62\n      jump\t// in\n    tag_61:\n      mload(0x40)\n      dup1\n      swap2\n      sub\n      swap1\n      log1\n        /* \"@openzeppelin/contracts-upgradeable/proxy/utils/Initializable.sol\":3479:3578  if (isTopLevelCall) {... */\n    tag_60:\n        /* \"@openzeppelin/contracts-upgradeable/proxy/utils/Initializable.sol\":3101:3584  {... */\n      pop\n        /* \"contracts/Payme.sol\":1042:1232  function initialize(IERC20Upgradeable token_) public initializer {... */\n      pop\n      jump\t// out\n        /* \"@openzeppelin/contracts-upgradeable/access/OwnableUpgradeable.sol\":2321:2519  function transferOwnership(address newOwner) public virtual onlyOwner {... */\n    tag_30:\n        /* \"@openzeppelin/contracts-upgradeable/access/OwnableUpgradeable.sol\":1334:1347  _checkOwner() */\n      tag_64\n        /* \"@openzeppelin/contracts-upgradeable/access/OwnableUpgradeable.sol\":1334:1345  _checkOwner */\n      tag_41\n        /* \"@openzeppelin/contracts-upgradeable/access/OwnableUpgradeable.sol\":1334:1347  _checkOwner() */\n      jump\t// in\n    tag_64:\n        /* \"@openzeppelin/contracts-upgradeable/access/OwnableUpgradeable.sol\":2429:2430  0 */\n      0x00\n        /* \"@openzeppelin/contracts-upgradeable/access/OwnableUpgradeable.sol\":2409:2431  newOwner != address(0) */\n      0xffffffffffffffffffffffffffffffffffffffff\n      and\n        /* \"@openzeppelin/contracts-upgradeable/access/OwnableUpgradeable.sol\":2409:2417  newOwner */\n      dup2\n        /* \"@openzeppelin/contracts-upgradeable/access/OwnableUpgradeable.sol\":2409:2431  newOwner != address(0) */\n      0xffffffffffffffffffffffffffffffffffffffff\n      and\n      eq\n      iszero\n        /* \"@openzeppelin/contracts-upgradeable/access/OwnableUpgradeable.sol\":2401:2474  require(newOwner != address(0), \"Ownable: new owner is the zero address\") */\n      tag_66\n      jumpi\n      mload(0x40)\n      0x08c379a000000000000000000000000000000000000000000000000000000000\n      dup2\n      mstore\n      0x04\n      add\n      tag_67\n      swap1\n      tag_68\n      jump\t// in\n    tag_67:\n      mload(0x40)\n      dup1\n      swap2\n      sub\n      swap1\n      revert\n    tag_66:\n        /* \"@openzeppelin/contracts-upgradeable/access/OwnableUpgradeable.sol\":2484:2512  _transferOwnership(newOwner) */\n      tag_69\n        /* \"@openzeppelin/contracts-upgradeable/access/OwnableUpgradeable.sol\":2503:2511  newOwner */\n      dup2\n        /* \"@openzeppelin/contracts-upgradeable/access/OwnableUpgradeable.sol\":2484:2502  _transferOwnership */\n      tag_44\n        /* \"@openzeppelin/contracts-upgradeable/access/OwnableUpgradeable.sol\":2484:2512  _transferOwnership(newOwner) */\n      jump\t// in\n    tag_69:\n        /* \"@openzeppelin/contracts-upgradeable/access/OwnableUpgradeable.sol\":2321:2519  function transferOwnership(address newOwner) public virtual onlyOwner {... */\n      pop\n      jump\t// out\n        /* \"@openzeppelin/contracts-upgradeable/access/OwnableUpgradeable.sol\":1599:1729  function _checkOwner() internal view virtual {... */\n    tag_41:\n        /* \"@openzeppelin/contracts-upgradeable/access/OwnableUpgradeable.sol\":1673:1685  _msgSender() */\n      tag_71\n        /* \"@openzeppelin/contracts-upgradeable/access/OwnableUpgradeable.sol\":1673:1683  _msgSender */\n      tag_72\n        /* \"@openzeppelin/contracts-upgradeable/access/OwnableUpgradeable.sol\":1673:1685  _msgSender() */\n      jump\t// in\n    tag_71:\n        /* \"@openzeppelin/contracts-upgradeable/access/OwnableUpgradeable.sol\":1662:1685  owner() == _msgSender() */\n      0xffffffffffffffffffffffffffffffffffffffff\n      and\n        /* \"@openzeppelin/contracts-upgradeable/access/OwnableUpgradeable.sol\":1662:1669  owner() */\n      tag_73\n        /* \"@openzeppelin/contracts-upgradeable/access/OwnableUpgradeable.sol\":1662:1667  owner */\n      tag_22\n        /* \"@openzeppelin/contracts-upgradeable/access/OwnableUpgradeable.sol\":1662:1669  owner() */\n      jump\t// in\n    tag_73:\n        /* \"@openzeppelin/contracts-upgradeable/access/OwnableUpgradeable.sol\":1662:1685  owner() == _msgSender() */\n      0xffffffffffffffffffffffffffffffffffffffff\n      and\n      eq\n        /* \"@openzeppelin/contracts-upgradeable/access/OwnableUpgradeable.sol\":1654:1722  require(owner() == _msgSender(), \"Ownable: caller is not the owner\") */\n      tag_74\n      jumpi\n      mload(0x40)\n      0x08c379a000000000000000000000000000000000000000000000000000000000\n      dup2\n      mstore\n      0x04\n      add\n      tag_75\n      swap1\n      tag_76\n      jump\t// in\n    tag_75:\n      mload(0x40)\n      dup1\n      swap2\n      sub\n      swap1\n      revert\n    tag_74:\n        /* \"@openzeppelin/contracts-upgradeable/access/OwnableUpgradeable.sol\":1599:1729  function _checkOwner() internal view virtual {... */\n      jump\t// out\n        /* \"@openzeppelin/contracts-upgradeable/access/OwnableUpgradeable.sol\":2673:2860  function _transferOwnership(address newOwner) internal virtual {... */\n    tag_44:\n        /* \"@openzeppelin/contracts-upgradeable/access/OwnableUpgradeable.sol\":2746:2762  address oldOwner */\n      0x00\n        /* \"@openzeppelin/contracts-upgradeable/access/OwnableUpgradeable.sol\":2765:2771  _owner */\n      0x33\n      0x00\n      swap1\n      sload\n      swap1\n      0x0100\n      exp\n      swap1\n      div\n      0xffffffffffffffffffffffffffffffffffffffff\n      and\n        /* \"@openzeppelin/contracts-upgradeable/access/OwnableUpgradeable.sol\":2746:2771  address oldOwner = _owner */\n      swap1\n      pop\n        /* \"@openzeppelin/contracts-upgradeable/access/OwnableUpgradeable.sol\":2790:2798  newOwner */\n      dup2\n        /* \"@openzeppelin/contracts-upgradeable/access/OwnableUpgradeable.sol\":2781:2787  _owner */\n      0x33\n      0x00\n        /* \"@openzeppelin/contracts-upgradeable/access/OwnableUpgradeable.sol\":2781:2798  _owner = newOwner */\n      0x0100\n      exp\n      dup2\n      sload\n      dup2\n      0xffffffffffffffffffffffffffffffffffffffff\n      mul\n      not\n      and\n      swap1\n      dup4\n      0xffffffffffffffffffffffffffffffffffffffff\n      and\n      mul\n      or\n      swap1\n      sstore\n      pop\n        /* \"@openzeppelin/contracts-upgradeable/access/OwnableUpgradeable.sol\":2844:2852  newOwner */\n      dup2\n        /* \"@openzeppelin/contracts-upgradeable/access/OwnableUpgradeable.sol\":2813:2853  OwnershipTransferred(oldOwner, newOwner) */\n      0xffffffffffffffffffffffffffffffffffffffff\n      and\n        /* \"@openzeppelin/contracts-upgradeable/access/OwnableUpgradeable.sol\":2834:2842  oldOwner */\n      dup2\n        /* \"@openzeppelin/contracts-upgradeable/access/OwnableUpgradeable.sol\":2813:2853  OwnershipTransferred(oldOwner, newOwner) */\n      0xffffffffffffffffffffffffffffffffffffffff\n      and\n      0x8be0079c531659141344cd1fd0a4f28419497f9722a3daafe3b4186f6b6457e0\n      mload(0x40)\n      mload(0x40)\n      dup1\n      swap2\n      sub\n      swap1\n      log3\n        /* \"@openzeppelin/contracts-upgradeable/access/OwnableUpgradeable.sol\":2736:2860  {... */\n      pop\n        /* \"@openzeppelin/contracts-upgradeable/access/OwnableUpgradeable.sol\":2673:2860  function _transferOwnership(address newOwner) internal virtual {... */\n      pop\n      jump\t// out\n        /* \"@openzeppelin/contracts-upgradeable/utils/AddressUpgradeable.sol\":1186:1506  function isContract(address account) internal view returns (bool) {... */\n    tag_50:\n        /* \"@openzeppelin/contracts-upgradeable/utils/AddressUpgradeable.sol\":1246:1250  bool */\n      0x00\n        /* \"@openzeppelin/contracts-upgradeable/utils/AddressUpgradeable.sol\":1498:1499  0 */\n      dup1\n        /* \"@openzeppelin/contracts-upgradeable/utils/AddressUpgradeable.sol\":1476:1483  account */\n      dup3\n        /* \"@openzeppelin/contracts-upgradeable/utils/AddressUpgradeable.sol\":1476:1495  account.code.length */\n      0xffffffffffffffffffffffffffffffffffffffff\n      and\n      extcodesize\n        /* \"@openzeppelin/contracts-upgradeable/utils/AddressUpgradeable.sol\":1476:1499  account.code.length > 0 */\n      gt\n        /* \"@openzeppelin/contracts-upgradeable/utils/AddressUpgradeable.sol\":1469:1499  return account.code.length > 0 */\n      swap1\n      pop\n        /* \"@openzeppelin/contracts-upgradeable/utils/AddressUpgradeable.sol\":1186:1506  function isContract(address account) internal view returns (bool) {... */\n      swap2\n      swap1\n      pop\n      jump\t// out\n        /* \"@openzeppelin/contracts-upgradeable/access/OwnableUpgradeable.sol\":1104:1215  function __Ownable_init_unchained() internal onlyInitializing {... */\n    tag_59:\n        /* \"@openzeppelin/contracts-upgradeable/proxy/utils/Initializable.sol\":4910:4923  _initializing */\n      0x00\n      0x01\n      swap1\n      sload\n      swap1\n      0x0100\n      exp\n      swap1\n      div\n      0xff\n      and\n        /* \"@openzeppelin/contracts-upgradeable/proxy/utils/Initializable.sol\":4902:4971  require(_initializing, \"Initializable: contract is not initializing\") */\n      tag_80\n      jumpi\n      mload(0x40)\n      0x08c379a000000000000000000000000000000000000000000000000000000000\n      dup2\n      mstore\n      0x04\n      add\n      tag_81\n      swap1\n      tag_82\n      jump\t// in\n    tag_81:\n      mload(0x40)\n      dup1\n      swap2\n      sub\n      swap1\n      revert\n    tag_80:\n        /* \"@openzeppelin/contracts-upgradeable/access/OwnableUpgradeable.sol\":1176:1208  _transferOwnership(_msgSender()) */\n      tag_84\n        /* \"@openzeppelin/contracts-upgradeable/access/OwnableUpgradeable.sol\":1195:1207  _msgSender() */\n      tag_85\n        /* \"@openzeppelin/contracts-upgradeable/access/OwnableUpgradeable.sol\":1195:1205  _msgSender */\n      tag_72\n        /* \"@openzeppelin/contracts-upgradeable/access/OwnableUpgradeable.sol\":1195:1207  _msgSender() */\n      jump\t// in\n    tag_85:\n        /* \"@openzeppelin/contracts-upgradeable/access/OwnableUpgradeable.sol\":1176:1194  _transferOwnership */\n      tag_44\n        /* \"@openzeppelin/contracts-upgradeable/access/OwnableUpgradeable.sol\":1176:1208  _transferOwnership(_msgSender()) */\n      jump\t// in\n    tag_84:\n        /* \"@openzeppelin/contracts-upgradeable/access/OwnableUpgradeable.sol\":1104:1215  function __Ownable_init_unchained() internal onlyInitializing {... */\n      jump\t// out\n        /* \"@openzeppelin/contracts-upgradeable/utils/ContextUpgradeable.sol\":850:946  function _msgSender() internal view virtual returns (address) {... */\n    tag_72:\n        /* \"@openzeppelin/contracts-upgradeable/utils/ContextUpgradeable.sol\":903:910  address */\n      0x00\n        /* \"@openzeppelin/contracts-upgradeable/utils/ContextUpgradeable.sol\":929:939  msg.sender */\n      caller\n        /* \"@openzeppelin/contracts-upgradeable/utils/ContextUpgradeable.sol\":922:939  return msg.sender */\n      swap1\n      pop\n        /* \"@openzeppelin/contracts-upgradeable/utils/ContextUpgradeable.sol\":850:946  function _msgSender() internal view virtual returns (address) {... */\n      swap1\n      jump\t// out\n        /* \"#utility.yul\":7:133   */\n    tag_87:\n        /* \"#utility.yul\":44:51   */\n      0x00\n        /* \"#utility.yul\":84:126   */\n      0xffffffffffffffffffffffffffffffffffffffff\n        /* \"#utility.yul\":77:82   */\n      dup3\n        /* \"#utility.yul\":73:127   */\n      and\n        /* \"#utility.yul\":62:127   */\n      swap1\n      pop\n        /* \"#utility.yul\":7:133   */\n      swap2\n      swap1\n      pop\n      jump\t// out\n        /* \"#utility.yul\":139:235   */\n    tag_88:\n        /* \"#utility.yul\":176:183   */\n      0x00\n        /* \"#utility.yul\":205:229   */\n      tag_119\n        /* \"#utility.yul\":223:228   */\n      dup3\n        /* \"#utility.yul\":205:229   */\n      tag_87\n      jump\t// in\n    tag_119:\n        /* \"#utility.yul\":194:229   */\n      swap1\n      pop\n        /* \"#utility.yul\":139:235   */\n      swap2\n      swap1\n      pop\n      jump\t// out\n        /* \"#utility.yul\":241:359   */\n    tag_89:\n        /* \"#utility.yul\":328:352   */\n      tag_121\n        /* \"#utility.yul\":346:351   */\n      dup2\n        /* \"#utility.yul\":328:352   */\n      tag_88\n      jump\t// in\n    tag_121:\n        /* \"#utility.yul\":323:326   */\n      dup3\n        /* \"#utility.yul\":316:353   */\n      mstore\n        /* \"#utility.yul\":241:359   */\n      pop\n      pop\n      jump\t// out\n        /* \"#utility.yul\":365:587   */\n    tag_12:\n        /* \"#utility.yul\":458:462   */\n      0x00\n        /* \"#utility.yul\":496:498   */\n      0x20\n        /* \"#utility.yul\":485:494   */\n      dup3\n        /* \"#utility.yul\":481:499   */\n      add\n        /* \"#utility.yul\":473:499   */\n      swap1\n      pop\n        /* \"#utility.yul\":509:580   */\n      tag_123\n        /* \"#utility.yul\":577:578   */\n      0x00\n        /* \"#utility.yul\":566:575   */\n      dup4\n        /* \"#utility.yul\":562:579   */\n      add\n        /* \"#utility.yul\":553:559   */\n      dup5\n        /* \"#utility.yul\":509:580   */\n      tag_89\n      jump\t// in\n    tag_123:\n        /* \"#utility.yul\":365:587   */\n      swap3\n      swap2\n      pop\n      pop\n      jump\t// out\n        /* \"#utility.yul\":674:791   */\n    tag_91:\n        /* \"#utility.yul\":783:784   */\n      0x00\n        /* \"#utility.yul\":780:781   */\n      dup1\n        /* \"#utility.yul\":773:785   */\n      revert\n        /* \"#utility.yul\":920:1042   */\n    tag_93:\n        /* \"#utility.yul\":993:1017   */\n      tag_128\n        /* \"#utility.yul\":1011:1016   */\n      dup2\n        /* \"#utility.yul\":993:1017   */\n      tag_88\n      jump\t// in\n    tag_128:\n        /* \"#utility.yul\":986:991   */\n      dup2\n        /* \"#utility.yul\":983:1018   */\n      eq\n        /* \"#utility.yul\":973:1036   */\n      tag_129\n      jumpi\n        /* \"#utility.yul\":1032:1033   */\n      0x00\n        /* \"#utility.yul\":1029:1030   */\n      dup1\n        /* \"#utility.yul\":1022:1034   */\n      revert\n        /* \"#utility.yul\":973:1036   */\n    tag_129:\n        /* \"#utility.yul\":920:1042   */\n      pop\n      jump\t// out\n        /* \"#utility.yul\":1048:1187   */\n    tag_94:\n        /* \"#utility.yul\":1094:1099   */\n      0x00\n        /* \"#utility.yul\":1132:1138   */\n      dup2\n        /* \"#utility.yul\":1119:1139   */\n      calldataload\n        /* \"#utility.yul\":1110:1139   */\n      swap1\n      pop\n        /* \"#utility.yul\":1148:1181   */\n      tag_131\n        /* \"#utility.yul\":1175:1180   */\n      dup2\n        /* \"#utility.yul\":1148:1181   */\n      tag_93\n      jump\t// in\n    tag_131:\n        /* \"#utility.yul\":1048:1187   */\n      swap3\n      swap2\n      pop\n      pop\n      jump\t// out\n        /* \"#utility.yul\":1193:1522   */\n    tag_15:\n        /* \"#utility.yul\":1252:1258   */\n      0x00\n        /* \"#utility.yul\":1301:1303   */\n      0x20\n        /* \"#utility.yul\":1289:1298   */\n      dup3\n        /* \"#utility.yul\":1280:1287   */\n      dup5\n        /* \"#utility.yul\":1276:1299   */\n      sub\n        /* \"#utility.yul\":1272:1304   */\n      slt\n        /* \"#utility.yul\":1269:1388   */\n      iszero\n      tag_133\n      jumpi\n        /* \"#utility.yul\":1307:1386   */\n      tag_134\n      tag_91\n      jump\t// in\n    tag_134:\n        /* \"#utility.yul\":1269:1388   */\n    tag_133:\n        /* \"#utility.yul\":1427:1428   */\n      0x00\n        /* \"#utility.yul\":1452:1505   */\n      tag_135\n        /* \"#utility.yul\":1497:1504   */\n      dup5\n        /* \"#utility.yul\":1488:1494   */\n      dup3\n        /* \"#utility.yul\":1477:1486   */\n      dup6\n        /* \"#utility.yul\":1473:1495   */\n      add\n        /* \"#utility.yul\":1452:1505   */\n      tag_94\n      jump\t// in\n    tag_135:\n        /* \"#utility.yul\":1442:1505   */\n      swap2\n      pop\n        /* \"#utility.yul\":1398:1515   */\n      pop\n        /* \"#utility.yul\":1193:1522   */\n      swap3\n      swap2\n      pop\n      pop\n      jump\t// out\n        /* \"#utility.yul\":1528:1605   */\n    tag_95:\n        /* \"#utility.yul\":1565:1572   */\n      0x00\n        /* \"#utility.yul\":1594:1599   */\n      dup2\n        /* \"#utility.yul\":1583:1599   */\n      swap1\n      pop\n        /* \"#utility.yul\":1528:1605   */\n      swap2\n      swap1\n      pop\n      jump\t// out\n        /* \"#utility.yul\":1611:1729   */\n    tag_96:\n        /* \"#utility.yul\":1698:1722   */\n      tag_138\n        /* \"#utility.yul\":1716:1721   */\n      dup2\n        /* \"#utility.yul\":1698:1722   */\n      tag_95\n      jump\t// in\n    tag_138:\n        /* \"#utility.yul\":1693:1696   */\n      dup3\n        /* \"#utility.yul\":1686:1723   */\n      mstore\n        /* \"#utility.yul\":1611:1729   */\n      pop\n      pop\n      jump\t// out\n        /* \"#utility.yul\":1735:1957   */\n    tag_18:\n        /* \"#utility.yul\":1828:1832   */\n      0x00\n        /* \"#utility.yul\":1866:1868   */\n      0x20\n        /* \"#utility.yul\":1855:1864   */\n      dup3\n        /* \"#utility.yul\":1851:1869   */\n      add\n        /* \"#utility.yul\":1843:1869   */\n      swap1\n      pop\n        /* \"#utility.yul\":1879:1950   */\n      tag_140\n        /* \"#utility.yul\":1947:1948   */\n      0x00\n        /* \"#utility.yul\":1936:1945   */\n      dup4\n        /* \"#utility.yul\":1932:1949   */\n      add\n        /* \"#utility.yul\":1923:1929   */\n      dup5\n        /* \"#utility.yul\":1879:1950   */\n      tag_96\n      jump\t// in\n    tag_140:\n        /* \"#utility.yul\":1735:1957   */\n      swap3\n      swap2\n      pop\n      pop\n      jump\t// out\n        /* \"#utility.yul\":1963:2084   */\n    tag_97:\n        /* \"#utility.yul\":2025:2032   */\n      0x00\n        /* \"#utility.yul\":2054:2078   */\n      tag_142\n        /* \"#utility.yul\":2072:2077   */\n      dup3\n        /* \"#utility.yul\":2054:2078   */\n      tag_88\n      jump\t// in\n    tag_142:\n        /* \"#utility.yul\":2043:2078   */\n      swap1\n      pop\n        /* \"#utility.yul\":1963:2084   */\n      swap2\n      swap1\n      pop\n      jump\t// out\n        /* \"#utility.yul\":2090:2262   */\n    tag_98:\n        /* \"#utility.yul\":2188:2237   */\n      tag_144\n        /* \"#utility.yul\":2231:2236   */\n      dup2\n        /* \"#utility.yul\":2188:2237   */\n      tag_97\n      jump\t// in\n    tag_144:\n        /* \"#utility.yul\":2181:2186   */\n      dup2\n        /* \"#utility.yul\":2178:2238   */\n      eq\n        /* \"#utility.yul\":2168:2256   */\n      tag_145\n      jumpi\n        /* \"#utility.yul\":2252:2253   */\n      0x00\n        /* \"#utility.yul\":2249:2250   */\n      dup1\n        /* \"#utility.yul\":2242:2254   */\n      revert\n        /* \"#utility.yul\":2168:2256   */\n    tag_145:\n        /* \"#utility.yul\":2090:2262   */\n      pop\n      jump\t// out\n        /* \"#utility.yul\":2268:2457   */\n    tag_99:\n        /* \"#utility.yul\":2339:2344   */\n      0x00\n        /* \"#utility.yul\":2377:2383   */\n      dup2\n        /* \"#utility.yul\":2364:2384   */\n      calldataload\n        /* \"#utility.yul\":2355:2384   */\n      swap1\n      pop\n        /* \"#utility.yul\":2393:2451   */\n      tag_147\n        /* \"#utility.yul\":2445:2450   */\n      dup2\n        /* \"#utility.yul\":2393:2451   */\n      tag_98\n      jump\t// in\n    tag_147:\n        /* \"#utility.yul\":2268:2457   */\n      swap3\n      swap2\n      pop\n      pop\n      jump\t// out\n        /* \"#utility.yul\":2463:2842   */\n    tag_26:\n        /* \"#utility.yul\":2547:2553   */\n      0x00\n        /* \"#utility.yul\":2596:2598   */\n      0x20\n        /* \"#utility.yul\":2584:2593   */\n      dup3\n        /* \"#utility.yul\":2575:2582   */\n      dup5\n        /* \"#utility.yul\":2571:2594   */\n      sub\n        /* \"#utility.yul\":2567:2599   */\n      slt\n        /* \"#utility.yul\":2564:2683   */\n      iszero\n      tag_149\n      jumpi\n        /* \"#utility.yul\":2602:2681   */\n      tag_150\n      tag_91\n      jump\t// in\n    tag_150:\n        /* \"#utility.yul\":2564:2683   */\n    tag_149:\n        /* \"#utility.yul\":2722:2723   */\n      0x00\n        /* \"#utility.yul\":2747:2825   */\n      tag_151\n        /* \"#utility.yul\":2817:2824   */\n      dup5\n        /* \"#utility.yul\":2808:2814   */\n      dup3\n        /* \"#utility.yul\":2797:2806   */\n      dup6\n        /* \"#utility.yul\":2793:2815   */\n      add\n        /* \"#utility.yul\":2747:2825   */\n      tag_99\n      jump\t// in\n    tag_151:\n        /* \"#utility.yul\":2737:2825   */\n      swap2\n      pop\n        /* \"#utility.yul\":2693:2835   */\n      pop\n        /* \"#utility.yul\":2463:2842   */\n      swap3\n      swap2\n      pop\n      pop\n      jump\t// out\n        /* \"#utility.yul\":2848:2970   */\n    tag_100:\n        /* \"#utility.yul\":2921:2945   */\n      tag_153\n        /* \"#utility.yul\":2939:2944   */\n      dup2\n        /* \"#utility.yul\":2921:2945   */\n      tag_95\n      jump\t// in\n    tag_153:\n        /* \"#utility.yul\":2914:2919   */\n      dup2\n        /* \"#utility.yul\":2911:2946   */\n      eq\n        /* \"#utility.yul\":2901:2964   */\n      tag_154\n      jumpi\n        /* \"#utility.yul\":2960:2961   */\n      0x00\n        /* \"#utility.yul\":2957:2958   */\n      dup1\n        /* \"#utility.yul\":2950:2962   */\n      revert\n        /* \"#utility.yul\":2901:2964   */\n    tag_154:\n        /* \"#utility.yul\":2848:2970   */\n      pop\n      jump\t// out\n        /* \"#utility.yul\":2976:3119   */\n    tag_101:\n        /* \"#utility.yul\":3033:3038   */\n      0x00\n        /* \"#utility.yul\":3064:3070   */\n      dup2\n        /* \"#utility.yul\":3058:3071   */\n      mload\n        /* \"#utility.yul\":3049:3071   */\n      swap1\n      pop\n        /* \"#utility.yul\":3080:3113   */\n      tag_156\n        /* \"#utility.yul\":3107:3112   */\n      dup2\n        /* \"#utility.yul\":3080:3113   */\n      tag_100\n      jump\t// in\n    tag_156:\n        /* \"#utility.yul\":2976:3119   */\n      swap3\n      swap2\n      pop\n      pop\n      jump\t// out\n        /* \"#utility.yul\":3125:3476   */\n    tag_38:\n        /* \"#utility.yul\":3195:3201   */\n      0x00\n        /* \"#utility.yul\":3244:3246   */\n      0x20\n        /* \"#utility.yul\":3232:3241   */\n      dup3\n        /* \"#utility.yul\":3223:3230   */\n      dup5\n        /* \"#utility.yul\":3219:3242   */\n      sub\n        /* \"#utility.yul\":3215:3247   */\n      slt\n        /* \"#utility.yul\":3212:3331   */\n      iszero\n      tag_158\n      jumpi\n        /* \"#utility.yul\":3250:3329   */\n      tag_159\n      tag_91\n      jump\t// in\n    tag_159:\n        /* \"#utility.yul\":3212:3331   */\n    tag_158:\n        /* \"#utility.yul\":3370:3371   */\n      0x00\n        /* \"#utility.yul\":3395:3459   */\n      tag_160\n        /* \"#utility.yul\":3451:3458   */\n      dup5\n        /* \"#utility.yul\":3442:3448   */\n      dup3\n        /* \"#utility.yul\":3431:3440   */\n      dup6\n        /* \"#utility.yul\":3427:3449   */\n      add\n        /* \"#utility.yul\":3395:3459   */\n      tag_101\n      jump\t// in\n    tag_160:\n        /* \"#utility.yul\":3385:3459   */\n      swap2\n      pop\n        /* \"#utility.yul\":3341:3469   */\n      pop\n        /* \"#utility.yul\":3125:3476   */\n      swap3\n      swap2\n      pop\n      pop\n      jump\t// out\n        /* \"#utility.yul\":3482:3651   */\n    tag_102:\n        /* \"#utility.yul\":3566:3577   */\n      0x00\n        /* \"#utility.yul\":3600:3606   */\n      dup3\n        /* \"#utility.yul\":3595:3598   */\n      dup3\n        /* \"#utility.yul\":3588:3607   */\n      mstore\n        /* \"#utility.yul\":3640:3644   */\n      0x20\n        /* \"#utility.yul\":3635:3638   */\n      dup3\n        /* \"#utility.yul\":3631:3645   */\n      add\n        /* \"#utility.yul\":3616:3645   */\n      swap1\n      pop\n        /* \"#utility.yul\":3482:3651   */\n      swap3\n      swap2\n      pop\n      pop\n      jump\t// out\n        /* \"#utility.yul\":3657:3890   */\n    tag_103:\n        /* \"#utility.yul\":3797:3831   */\n      0x496e697469616c697a61626c653a20636f6e747261637420697320616c726561\n        /* \"#utility.yul\":3793:3794   */\n      0x00\n        /* \"#utility.yul\":3785:3791   */\n      dup3\n        /* \"#utility.yul\":3781:3795   */\n      add\n        /* \"#utility.yul\":3774:3832   */\n      mstore\n        /* \"#utility.yul\":3866:3882   */\n      0x647920696e697469616c697a6564000000000000000000000000000000000000\n        /* \"#utility.yul\":3861:3863   */\n      0x20\n        /* \"#utility.yul\":3853:3859   */\n      dup3\n        /* \"#utility.yul\":3849:3864   */\n      add\n        /* \"#utility.yul\":3842:3883   */\n      mstore\n        /* \"#utility.yul\":3657:3890   */\n      pop\n      jump\t// out\n        /* \"#utility.yul\":3896:4262   */\n    tag_104:\n        /* \"#utility.yul\":4038:4041   */\n      0x00\n        /* \"#utility.yul\":4059:4126   */\n      tag_164\n        /* \"#utility.yul\":4123:4125   */\n      0x2e\n        /* \"#utility.yul\":4118:4121   */\n      dup4\n        /* \"#utility.yul\":4059:4126   */\n      tag_102\n      jump\t// in\n    tag_164:\n        /* \"#utility.yul\":4052:4126   */\n      swap2\n      pop\n        /* \"#utility.yul\":4135:4228   */\n      tag_165\n        /* \"#utility.yul\":4224:4227   */\n      dup3\n        /* \"#utility.yul\":4135:4228   */\n      tag_103\n      jump\t// in\n    tag_165:\n        /* \"#utility.yul\":4253:4255   */\n      0x40\n        /* \"#utility.yul\":4248:4251   */\n      dup3\n        /* \"#utility.yul\":4244:4256   */\n      add\n        /* \"#utility.yul\":4237:4256   */\n      swap1\n      pop\n        /* \"#utility.yul\":3896:4262   */\n      swap2\n      swap1\n      pop\n      jump\t// out\n        /* \"#utility.yul\":4268:4687   */\n    tag_54:\n        /* \"#utility.yul\":4434:4438   */\n      0x00\n        /* \"#utility.yul\":4472:4474   */\n      0x20\n        /* \"#utility.yul\":4461:4470   */\n      dup3\n        /* \"#utility.yul\":4457:4475   */\n      add\n        /* \"#utility.yul\":4449:4475   */\n      swap1\n      pop\n        /* \"#utility.yul\":4521:4530   */\n      dup2\n        /* \"#utility.yul\":4515:4519   */\n      dup2\n        /* \"#utility.yul\":4511:4531   */\n      sub\n        /* \"#utility.yul\":4507:4508   */\n      0x00\n        /* \"#utility.yul\":4496:4505   */\n      dup4\n        /* \"#utility.yul\":4492:4509   */\n      add\n        /* \"#utility.yul\":4485:4532   */\n      mstore\n        /* \"#utility.yul\":4549:4680   */\n      tag_167\n        /* \"#utility.yul\":4675:4679   */\n      dup2\n        /* \"#utility.yul\":4549:4680   */\n      tag_104\n      jump\t// in\n    tag_167:\n        /* \"#utility.yul\":4541:4680   */\n      swap1\n      pop\n        /* \"#utility.yul\":4268:4687   */\n      swap2\n      swap1\n      pop\n      jump\t// out\n        /* \"#utility.yul\":4693:4778   */\n    tag_105:\n        /* \"#utility.yul\":4738:4745   */\n      0x00\n        /* \"#utility.yul\":4767:4772   */\n      dup2\n        /* \"#utility.yul\":4756:4772   */\n      swap1\n      pop\n        /* \"#utility.yul\":4693:4778   */\n      swap2\n      swap1\n      pop\n      jump\t// out\n        /* \"#utility.yul\":4784:4870   */\n    tag_106:\n        /* \"#utility.yul\":4819:4826   */\n      0x00\n        /* \"#utility.yul\":4859:4863   */\n      0xff\n        /* \"#utility.yul\":4852:4857   */\n      dup3\n        /* \"#utility.yul\":4848:4864   */\n      and\n        /* \"#utility.yul\":4837:4864   */\n      swap1\n      pop\n        /* \"#utility.yul\":4784:4870   */\n      swap2\n      swap1\n      pop\n      jump\t// out\n        /* \"#utility.yul\":4876:4936   */\n    tag_107:\n        /* \"#utility.yul\":4904:4907   */\n      0x00\n        /* \"#utility.yul\":4925:4930   */\n      dup2\n        /* \"#utility.yul\":4918:4930   */\n      swap1\n      pop\n        /* \"#utility.yul\":4876:4936   */\n      swap2\n      swap1\n      pop\n      jump\t// out\n        /* \"#utility.yul\":4942:5096   */\n    tag_108:\n        /* \"#utility.yul\":4998:5007   */\n      0x00\n        /* \"#utility.yul\":5031:5090   */\n      tag_172\n        /* \"#utility.yul\":5047:5089   */\n      tag_173\n        /* \"#utility.yul\":5056:5088   */\n      tag_174\n        /* \"#utility.yul\":5082:5087   */\n      dup5\n        /* \"#utility.yul\":5056:5088   */\n      tag_105\n      jump\t// in\n    tag_174:\n        /* \"#utility.yul\":5047:5089   */\n      tag_107\n      jump\t// in\n    tag_173:\n        /* \"#utility.yul\":5031:5090   */\n      tag_106\n      jump\t// in\n    tag_172:\n        /* \"#utility.yul\":5018:5090   */\n      swap1\n      pop\n        /* \"#utility.yul\":4942:5096   */\n      swap2\n      swap1\n      pop\n      jump\t// out\n        /* \"#utility.yul\":5102:5245   */\n    tag_109:\n        /* \"#utility.yul\":5195:5238   */\n      tag_176\n        /* \"#utility.yul\":5232:5237   */\n      dup2\n        /* \"#utility.yul\":5195:5238   */\n      tag_108\n      jump\t// in\n    tag_176:\n        /* \"#utility.yul\":5190:5193   */\n      dup3\n        /* \"#utility.yul\":5183:5239   */\n      mstore\n        /* \"#utility.yul\":5102:5245   */\n      pop\n      pop\n      jump\t// out\n        /* \"#utility.yul\":5251:5485   */\n    tag_62:\n        /* \"#utility.yul\":5350:5354   */\n      0x00\n        /* \"#utility.yul\":5388:5390   */\n      0x20\n        /* \"#utility.yul\":5377:5386   */\n      dup3\n        /* \"#utility.yul\":5373:5391   */\n      add\n        /* \"#utility.yul\":5365:5391   */\n      swap1\n      pop\n        /* \"#utility.yul\":5401:5478   */\n      tag_178\n        /* \"#utility.yul\":5475:5476   */\n      0x00\n        /* \"#utility.yul\":5464:5473   */\n      dup4\n        /* \"#utility.yul\":5460:5477   */\n      add\n        /* \"#utility.yul\":5451:5457   */\n      dup5\n        /* \"#utility.yul\":5401:5478   */\n      tag_109\n      jump\t// in\n    tag_178:\n        /* \"#utility.yul\":5251:5485   */\n      swap3\n      swap2\n      pop\n      pop\n      jump\t// out\n        /* \"#utility.yul\":5491:5716   */\n    tag_110:\n        /* \"#utility.yul\":5631:5665   */\n      0x4f776e61626c653a206e6577206f776e657220697320746865207a65726f2061\n        /* \"#utility.yul\":5627:5628   */\n      0x00\n        /* \"#utility.yul\":5619:5625   */\n      dup3\n        /* \"#utility.yul\":5615:5629   */\n      add\n        /* \"#utility.yul\":5608:5666   */\n      mstore\n        /* \"#utility.yul\":5700:5708   */\n      0x6464726573730000000000000000000000000000000000000000000000000000\n        /* \"#utility.yul\":5695:5697   */\n      0x20\n        /* \"#utility.yul\":5687:5693   */\n      dup3\n        /* \"#utility.yul\":5683:5698   */\n      add\n        /* \"#utility.yul\":5676:5709   */\n      mstore\n        /* \"#utility.yul\":5491:5716   */\n      pop\n      jump\t// out\n        /* \"#utility.yul\":5722:6088   */\n    tag_111:\n        /* \"#utility.yul\":5864:5867   */\n      0x00\n        /* \"#utility.yul\":5885:5952   */\n      tag_181\n        /* \"#utility.yul\":5949:5951   */\n      0x26\n        /* \"#utility.yul\":5944:5947   */\n      dup4\n        /* \"#utility.yul\":5885:5952   */\n      tag_102\n      jump\t// in\n    tag_181:\n        /* \"#utility.yul\":5878:5952   */\n      swap2\n      pop\n        /* \"#utility.yul\":5961:6054   */\n      tag_182\n        /* \"#utility.yul\":6050:6053   */\n      dup3\n        /* \"#utility.yul\":5961:6054   */\n      tag_110\n      jump\t// in\n    tag_182:\n        /* \"#utility.yul\":6079:6081   */\n      0x40\n        /* \"#utility.yul\":6074:6077   */\n      dup3\n        /* \"#utility.yul\":6070:6082   */\n      add\n        /* \"#utility.yul\":6063:6082   */\n      swap1\n      pop\n        /* \"#utility.yul\":5722:6088   */\n      swap2\n      swap1\n      pop\n      jump\t// out\n        /* \"#utility.yul\":6094:6513   */\n    tag_68:\n        /* \"#utility.yul\":6260:6264   */\n      0x00\n        /* \"#utility.yul\":6298:6300   */\n      0x20\n        /* \"#utility.yul\":6287:6296   */\n      dup3\n        /* \"#utility.yul\":6283:6301   */\n      add\n        /* \"#utility.yul\":6275:6301   */\n      swap1\n      pop\n        /* \"#utility.yul\":6347:6356   */\n      dup2\n        /* \"#utility.yul\":6341:6345   */\n      dup2\n        /* \"#utility.yul\":6337:6357   */\n      sub\n        /* \"#utility.yul\":6333:6334   */\n      0x00\n        /* \"#utility.yul\":6322:6331   */\n      dup4\n        /* \"#utility.yul\":6318:6335   */\n      add\n        /* \"#utility.yul\":6311:6358   */\n      mstore\n        /* \"#utility.yul\":6375:6506   */\n      tag_184\n        /* \"#utility.yul\":6501:6505   */\n      dup2\n        /* \"#utility.yul\":6375:6506   */\n      tag_111\n      jump\t// in\n    tag_184:\n        /* \"#utility.yul\":6367:6506   */\n      swap1\n      pop\n        /* \"#utility.yul\":6094:6513   */\n      swap2\n      swap1\n      pop\n      jump\t// out\n        /* \"#utility.yul\":6519:6701   */\n    tag_112:\n        /* \"#utility.yul\":6659:6693   */\n      0x4f776e61626c653a2063616c6c6572206973206e6f7420746865206f776e6572\n        /* \"#utility.yul\":6655:6656   */\n      0x00\n        /* \"#utility.yul\":6647:6653   */\n      dup3\n        /* \"#utility.yul\":6643:6657   */\n      add\n        /* \"#utility.yul\":6636:6694   */\n      mstore\n        /* \"#utility.yul\":6519:6701   */\n      pop\n      jump\t// out\n        /* \"#utility.yul\":6707:7073   */\n    tag_113:\n        /* \"#utility.yul\":6849:6852   */\n      0x00\n        /* \"#utility.yul\":6870:6937   */\n      tag_187\n        /* \"#utility.yul\":6934:6936   */\n      0x20\n        /* \"#utility.yul\":6929:6932   */\n      dup4\n        /* \"#utility.yul\":6870:6937   */\n      tag_102\n      jump\t// in\n    tag_187:\n        /* \"#utility.yul\":6863:6937   */\n      swap2\n      pop\n        /* \"#utility.yul\":6946:7039   */\n      tag_188\n        /* \"#utility.yul\":7035:7038   */\n      dup3\n        /* \"#utility.yul\":6946:7039   */\n      tag_112\n      jump\t// in\n    tag_188:\n        /* \"#utility.yul\":7064:7066   */\n      0x20\n        /* \"#utility.yul\":7059:7062   */\n      dup3\n        /* \"#utility.yul\":7055:7067   */\n      add\n        /* \"#utility.yul\":7048:7067   */\n      swap1\n      pop\n        /* \"#utility.yul\":6707:7073   */\n      swap2\n      swap1\n      pop\n      jump\t// out\n        /* \"#utility.yul\":7079:7498   */\n    tag_76:\n        /* \"#utility.yul\":7245:7249   */\n      0x00\n        /* \"#utility.yul\":7283:7285   */\n      0x20\n        /* \"#utility.yul\":7272:7281   */\n      dup3\n        /* \"#utility.yul\":7268:7286   */\n      add\n        /* \"#utility.yul\":7260:7286   */\n      swap1\n      pop\n        /* \"#utility.yul\":7332:7341   */\n      dup2\n        /* \"#utility.yul\":7326:7330   */\n      dup2\n        /* \"#utility.yul\":7322:7342   */\n      sub\n        /* \"#utility.yul\":7318:7319   */\n      0x00\n        /* \"#utility.yul\":7307:7316   */\n      dup4\n        /* \"#utility.yul\":7303:7320   */\n      add\n        /* \"#utility.yul\":7296:7343   */\n      mstore\n        /* \"#utility.yul\":7360:7491   */\n      tag_190\n        /* \"#utility.yul\":7486:7490   */\n      dup2\n        /* \"#utility.yul\":7360:7491   */\n      tag_113\n      jump\t// in\n    tag_190:\n        /* \"#utility.yul\":7352:7491   */\n      swap1\n      pop\n        /* \"#utility.yul\":7079:7498   */\n      swap2\n      swap1\n      pop\n      jump\t// out\n        /* \"#utility.yul\":7504:7734   */\n    tag_114:\n        /* \"#utility.yul\":7644:7678   */\n      0x496e697469616c697a61626c653a20636f6e7472616374206973206e6f742069\n        /* \"#utility.yul\":7640:7641   */\n      0x00\n        /* \"#utility.yul\":7632:7638   */\n      dup3\n        /* \"#utility.yul\":7628:7642   */\n      add\n        /* \"#utility.yul\":7621:7679   */\n      mstore\n        /* \"#utility.yul\":7713:7726   */\n      0x6e697469616c697a696e67000000000000000000000000000000000000000000\n        /* \"#utility.yul\":7708:7710   */\n      0x20\n        /* \"#utility.yul\":7700:7706   */\n      dup3\n        /* \"#utility.yul\":7696:7711   */\n      add\n        /* \"#utility.yul\":7689:7727   */\n      mstore\n        /* \"#utility.yul\":7504:7734   */\n      pop\n      jump\t// out\n        /* \"#utility.yul\":7740:8106   */\n    tag_115:\n        /* \"#utility.yul\":7882:7885   */\n      0x00\n        /* \"#utility.yul\":7903:7970   */\n      tag_193\n        /* \"#utility.yul\":7967:7969   */\n      0x2b\n        /* \"#utility.yul\":7962:7965   */\n      dup4\n        /* \"#utility.yul\":7903:7970   */\n      tag_102\n      jump\t// in\n    tag_193:\n        /* \"#utility.yul\":7896:7970   */\n      swap2\n      pop\n        /* \"#utility.yul\":7979:8072   */\n      tag_194\n        /* \"#utility.yul\":8068:8071   */\n      dup3\n        /* \"#utility.yul\":7979:8072   */\n      tag_114\n      jump\t// in\n    tag_194:\n        /* \"#utility.yul\":8097:8099   */\n      0x40\n        /* \"#utility.yul\":8092:8095   */\n      dup3\n        /* \"#utility.yul\":8088:8100   */\n      add\n        /* \"#utility.yul\":8081:8100   */\n      swap1\n      pop\n        /* \"#utility.yul\":7740:8106   */\n      swap2\n      swap1\n      pop\n      jump\t// out\n        /* \"#utility.yul\":8112:8531   */\n    tag_82:\n        /* \"#utility.yul\":8278:8282   */\n      0x00\n        /* \"#utility.yul\":8316:8318   */\n      0x20\n        /* \"#utility.yul\":8305:8314   */\n      dup3\n        /* \"#utility.yul\":8301:8319   */\n      add\n        /* \"#utility.yul\":8293:8319   */\n      swap1\n      pop\n        /* \"#utility.yul\":8365:8374   */\n      dup2\n        /* \"#utility.yul\":8359:8363   */\n      dup2\n        /* \"#utility.yul\":8355:8375   */\n      sub\n        /* \"#utility.yul\":8351:8352   */\n      0x00\n        /* \"#utility.yul\":8340:8349   */\n      dup4\n        /* \"#utility.yul\":8336:8353   */\n      add\n        /* \"#utility.yul\":8329:8376   */\n      mstore\n        /* \"#utility.yul\":8393:8524   */\n      tag_196\n        /* \"#utility.yul\":8519:8523   */\n      dup2\n        /* \"#utility.yul\":8393:8524   */\n      tag_115\n      jump\t// in\n    tag_196:\n        /* \"#utility.yul\":8385:8524   */\n      swap1\n      pop\n        /* \"#utility.yul\":8112:8531   */\n      swap2\n      swap1\n      pop\n      jump\t// out\n\n    auxdata: 0xa26469706673582212203b4c6bb3226e6b6abb73c16ee75c49b9218ca2e405d0a3549a2cf3dfa141a80e64736f6c63430008090033\n}\n",
				"bytecode": {
					"linkReferences": {},
					"object": "608060405234801561001057600080fd5b50610ac7806100206000396000f3fe608060405234801561001057600080fd5b50600436106100625760003560e01c806310fe9ae81461006757806370a0823114610085578063715018a6146100b55780638da5cb5b146100bf578063c4d66de8146100dd578063f2fde38b146100f9575b600080fd5b61006f610115565b60405161007c9190610680565b60405180910390f35b61009f600480360381019061009a91906106cc565b61013f565b6040516100ac9190610712565b60405180910390f35b6100bd6101f3565b005b6100c7610207565b6040516100d49190610680565b60405180910390f35b6100f760048036038101906100f2919061076b565b610231565b005b610113600480360381019061010e91906106cc565b6103eb565b005b6000606560009054906101000a900473ffffffffffffffffffffffffffffffffffffffff16905090565b6000606560009054906101000a900473ffffffffffffffffffffffffffffffffffffffff1673ffffffffffffffffffffffffffffffffffffffff166370a08231836040518263ffffffff1660e01b815260040161019c9190610680565b60206040518083038186803b1580156101b457600080fd5b505afa1580156101c8573d6000803e3d6000fd5b505050506040513d601f19601f820116820180604052508101906101ec91906107c4565b9050919050565b6101fb61046f565b61020560006104ed565b565b6000603360009054906101000a900473ffffffffffffffffffffffffffffffffffffffff16905090565b60008060019054906101000a900460ff161590508080156102625750600160008054906101000a900460ff1660ff16105b8061028f5750610271306105b3565b15801561028e5750600160008054906101000a900460ff1660ff16145b5b6102ce576040517f08c379a00000000000000000000000000000000000000000000000000000000081526004016102c590610874565b60405180910390fd5b60016000806101000a81548160ff021916908360ff160217905550801561030b576001600060016101000a81548160ff0219169083151502179055505b600073ffffffffffffffffffffffffffffffffffffffff168273ffffffffffffffffffffffffffffffffffffffff16141561034557600080fd5b61034d6105d6565b81606560006101000a81548173ffffffffffffffffffffffffffffffffffffffff021916908373ffffffffffffffffffffffffffffffffffffffff16021790555080156103e75760008060016101000a81548160ff0219169083151502179055507f7f26b83ff96e1f2b6a682f133852f6798a09c465da95921460cefb384740249860016040516103de91906108e6565b60405180910390a15b5050565b6103f361046f565b600073ffffffffffffffffffffffffffffffffffffffff168173ffffffffffffffffffffffffffffffffffffffff161415610463576040517f08c379a000000000000000000000000000000000000000000000000000000000815260040161045a90610973565b60405180910390fd5b61046c816104ed565b50565b610477610637565b73ffffffffffffffffffffffffffffffffffffffff16610495610207565b73ffffffffffffffffffffffffffffffffffffffff16146104eb576040517f08c379a00000000000000000000000000000000000000000000000000000000081526004016104e2906109df565b60405180910390fd5b565b6000603360009054906101000a900473ffffffffffffffffffffffffffffffffffffffff16905081603360006101000a81548173ffffffffffffffffffffffffffffffffffffffff021916908373ffffffffffffffffffffffffffffffffffffffff1602179055508173ffffffffffffffffffffffffffffffffffffffff168173ffffffffffffffffffffffffffffffffffffffff167f8be0079c531659141344cd1fd0a4f28419497f9722a3daafe3b4186f6b6457e060405160405180910390a35050565b6000808273ffffffffffffffffffffffffffffffffffffffff163b119050919050565b600060019054906101000a900460ff16610625576040517f08c379a000000000000000000000000000000000000000000000000000000000815260040161061c90610a71565b60405180910390fd5b610635610630610637565b6104ed565b565b600033905090565b600073ffffffffffffffffffffffffffffffffffffffff82169050919050565b600061066a8261063f565b9050919050565b61067a8161065f565b82525050565b60006020820190506106956000830184610671565b92915050565b600080fd5b6106a98161065f565b81146106b457600080fd5b50565b6000813590506106c6816106a0565b92915050565b6000602082840312156106e2576106e161069b565b5b60006106f0848285016106b7565b91505092915050565b6000819050919050565b61070c816106f9565b82525050565b60006020820190506107276000830184610703565b92915050565b60006107388261065f565b9050919050565b6107488161072d565b811461075357600080fd5b50565b6000813590506107658161073f565b92915050565b6000602082840312156107815761078061069b565b5b600061078f84828501610756565b91505092915050565b6107a1816106f9565b81146107ac57600080fd5b50565b6000815190506107be81610798565b92915050565b6000602082840312156107da576107d961069b565b5b60006107e8848285016107af565b91505092915050565b600082825260208201905092915050565b7f496e697469616c697a61626c653a20636f6e747261637420697320616c72656160008201527f647920696e697469616c697a6564000000000000000000000000000000000000602082015250565b600061085e602e836107f1565b915061086982610802565b604082019050919050565b6000602082019050818103600083015261088d81610851565b9050919050565b6000819050919050565b600060ff82169050919050565b6000819050919050565b60006108d06108cb6108c684610894565b6108ab565b61089e565b9050919050565b6108e0816108b5565b82525050565b60006020820190506108fb60008301846108d7565b92915050565b7f4f776e61626c653a206e6577206f776e657220697320746865207a65726f206160008201527f6464726573730000000000000000000000000000000000000000000000000000602082015250565b600061095d6026836107f1565b915061096882610901565b604082019050919050565b6000602082019050818103600083015261098c81610950565b9050919050565b7f4f776e61626c653a2063616c6c6572206973206e6f7420746865206f776e6572600082015250565b60006109c96020836107f1565b91506109d482610993565b602082019050919050565b600060208201905081810360008301526109f8816109bc565b9050919050565b7f496e697469616c697a61626c653a20636f6e7472616374206973206e6f74206960008201527f6e697469616c697a696e67000000000000000000000000000000000000000000602082015250565b6000610a5b602b836107f1565b9150610a66826109ff565b604082019050919050565b60006020820190508181036000830152610a8a81610a4e565b905091905056fea26469706673582212203b4c6bb3226e6b6abb73c16ee75c49b9218ca2e405d0a3549a2cf3dfa141a80e64736f6c63430008090033",
					"opcodes": "PUSH1 0x80 PUSH1 0x40 MSTORE CALLVALUE DUP1 ISZERO PUSH2 0x10 JUMPI PUSH1 0x0 DUP1 REVERT JUMPDEST POP PUSH2 0xAC7 DUP1 PUSH2 0x20 PUSH1 0x0 CODECOPY PUSH1 0x0 RETURN INVALID PUSH1 0x80 PUSH1 0x40 MSTORE CALLVALUE DUP1 ISZERO PUSH2 0x10 JUMPI PUSH1 0x0 DUP1 REVERT JUMPDEST POP PUSH1 0x4 CALLDATASIZE LT PUSH2 0x62 JUMPI PUSH1 0x0 CALLDATALOAD PUSH1 0xE0 SHR DUP1 PUSH4 0x10FE9AE8 EQ PUSH2 0x67 JUMPI DUP1 PUSH4 0x70A08231 EQ PUSH2 0x85 JUMPI DUP1 PUSH4 0x715018A6 EQ PUSH2 0xB5 JUMPI DUP1 PUSH4 0x8DA5CB5B EQ PUSH2 0xBF JUMPI DUP1 PUSH4 0xC4D66DE8 EQ PUSH2 0xDD JUMPI DUP1 PUSH4 0xF2FDE38B EQ PUSH2 0xF9 JUMPI JUMPDEST PUSH1 0x0 DUP1 REVERT JUMPDEST PUSH2 0x6F PUSH2 0x115 JUMP JUMPDEST PUSH1 0x40 MLOAD PUSH2 0x7C SWAP2 SWAP1 PUSH2 0x680 JUMP JUMPDEST PUSH1 0x40 MLOAD DUP1 SWAP2 SUB SWAP1 RETURN JUMPDEST PUSH2 0x9F PUSH1 0x4 DUP1 CALLDATASIZE SUB DUP2 ADD SWAP1 PUSH2 0x9A SWAP2 SWAP1 PUSH2 0x6CC JUMP JUMPDEST PUSH2 0x13F JUMP JUMPDEST PUSH1 0x40 MLOAD PUSH2 0xAC SWAP2 SWAP1 PUSH2 0x712 JUMP JUMPDEST PUSH1 0x40 MLOAD DUP1 SWAP2 SUB SWAP1 RETURN JUMPDEST PUSH2 0xBD PUSH2 0x1F3 JUMP JUMPDEST STOP JUMPDEST PUSH2 0xC7 PUSH2 0x207 JUMP JUMPDEST PUSH1 0x40 MLOAD PUSH2 0xD4 SWAP2 SWAP1 PUSH2 0x680 JUMP JUMPDEST PUSH1 0x40 MLOAD DUP1 SWAP2 SUB SWAP1 RETURN JUMPDEST PUSH2 0xF7 PUSH1 0x4 DUP1 CALLDATASIZE SUB DUP2 ADD SWAP1 PUSH2 0xF2 SWAP2 SWAP1 PUSH2 0x76B JUMP JUMPDEST PUSH2 0x231 JUMP JUMPDEST STOP JUMPDEST PUSH2 0x113 PUSH1 0x4 DUP1 CALLDATASIZE SUB DUP2 ADD SWAP1 PUSH2 0x10E SWAP2 SWAP1 PUSH2 0x6CC JUMP JUMPDEST PUSH2 0x3EB JUMP JUMPDEST STOP JUMPDEST PUSH1 0x0 PUSH1 0x65 PUSH1 0x0 SWAP1 SLOAD SWAP1 PUSH2 0x100 EXP SWAP1 DIV PUSH20 0xFFFFFFFFFFFFFFFFFFFFFFFFFFFFFFFFFFFFFFFF AND SWAP1 POP SWAP1 JUMP JUMPDEST PUSH1 0x0 PUSH1 0x65 PUSH1 0x0 SWAP1 SLOAD SWAP1 PUSH2 0x100 EXP SWAP1 DIV PUSH20 0xFFFFFFFFFFFFFFFFFFFFFFFFFFFFFFFFFFFFFFFF AND PUSH20 0xFFFFFFFFFFFFFFFFFFFFFFFFFFFFFFFFFFFFFFFF AND PUSH4 0x70A08231 DUP4 PUSH1 0x40 MLOAD DUP3 PUSH4 0xFFFFFFFF AND PUSH1 0xE0 SHL DUP2 MSTORE PUSH1 0x4 ADD PUSH2 0x19C SWAP2 SWAP1 PUSH2 0x680 JUMP JUMPDEST PUSH1 0x20 PUSH1 0x40 MLOAD DUP1 DUP4 SUB DUP2 DUP7 DUP1 EXTCODESIZE ISZERO DUP1 ISZERO PUSH2 0x1B4 JUMPI PUSH1 0x0 DUP1 REVERT JUMPDEST POP GAS STATICCALL ISZERO DUP1 ISZERO PUSH2 0x1C8 JUMPI RETURNDATASIZE PUSH1 0x0 DUP1 RETURNDATACOPY RETURNDATASIZE PUSH1 0x0 REVERT JUMPDEST POP POP POP POP PUSH1 0x40 MLOAD RETURNDATASIZE PUSH1 0x1F NOT PUSH1 0x1F DUP3 ADD AND DUP3 ADD DUP1 PUSH1 0x40 MSTORE POP DUP2 ADD SWAP1 PUSH2 0x1EC SWAP2 SWAP1 PUSH2 0x7C4 JUMP JUMPDEST SWAP1 POP SWAP2 SWAP1 POP JUMP JUMPDEST PUSH2 0x1FB PUSH2 0x46F JUMP JUMPDEST PUSH2 0x205 PUSH1 0x0 PUSH2 0x4ED JUMP JUMPDEST JUMP JUMPDEST PUSH1 0x0 PUSH1 0x33 PUSH1 0x0 SWAP1 SLOAD SWAP1 PUSH2 0x100 EXP SWAP1 DIV PUSH20 0xFFFFFFFFFFFFFFFFFFFFFFFFFFFFFFFFFFFFFFFF AND SWAP1 POP SWAP1 JUMP JUMPDEST PUSH1 0x0 DUP1 PUSH1 0x1 SWAP1 SLOAD SWAP1 PUSH2 0x100 EXP SWAP1 DIV PUSH1 0xFF AND ISZERO SWAP1 POP DUP1 DUP1 ISZERO PUSH2 0x262 JUMPI POP PUSH1 0x1 PUSH1 0x0 DUP1 SLOAD SWAP1 PUSH2 0x100 EXP SWAP1 DIV PUSH1 0xFF AND PUSH1 0xFF AND LT JUMPDEST DUP1 PUSH2 0x28F JUMPI POP PUSH2 0x271 ADDRESS PUSH2 0x5B3 JUMP JUMPDEST ISZERO DUP1 ISZERO PUSH2 0x28E JUMPI POP PUSH1 0x1 PUSH1 0x0 DUP1 SLOAD SWAP1 PUSH2 0x100 EXP SWAP1 DIV PUSH1 0xFF AND PUSH1 0xFF AND EQ JUMPDEST JUMPDEST PUSH2 0x2CE JUMPI PUSH1 0x40 MLOAD PUSH32 0x8C379A000000000000000000000000000000000000000000000000000000000 DUP2 MSTORE PUSH1 0x4 ADD PUSH2 0x2C5 SWAP1 PUSH2 0x874 JUMP JUMPDEST PUSH1 0x40 MLOAD DUP1 SWAP2 SUB SWAP1 REVERT JUMPDEST PUSH1 0x1 PUSH1 0x0 DUP1 PUSH2 0x100 EXP DUP2 SLOAD DUP2 PUSH1 0xFF MUL NOT AND SWAP1 DUP4 PUSH1 0xFF AND MUL OR SWAP1 SSTORE POP DUP1 ISZERO PUSH2 0x30B JUMPI PUSH1 0x1 PUSH1 0x0 PUSH1 0x1 PUSH2 0x100 EXP DUP2 SLOAD DUP2 PUSH1 0xFF MUL NOT AND SWAP1 DUP4 ISZERO ISZERO MUL OR SWAP1 SSTORE POP JUMPDEST PUSH1 0x0 PUSH20 0xFFFFFFFFFFFFFFFFFFFFFFFFFFFFFFFFFFFFFFFF AND DUP3 PUSH20 0xFFFFFFFFFFFFFFFFFFFFFFFFFFFFFFFFFFFFFFFF AND EQ ISZERO PUSH2 0x345 JUMPI PUSH1 0x0 DUP1 REVERT JUMPDEST PUSH2 0x34D PUSH2 0x5D6 JUMP JUMPDEST DUP2 PUSH1 0x65 PUSH1 0x0 PUSH2 0x100 EXP DUP2 SLOAD DUP2 PUSH20 0xFFFFFFFFFFFFFFFFFFFFFFFFFFFFFFFFFFFFFFFF MUL NOT AND SWAP1 DUP4 PUSH20 0xFFFFFFFFFFFFFFFFFFFFFFFFFFFFFFFFFFFFFFFF AND MUL OR SWAP1 SSTORE POP DUP1 ISZERO PUSH2 0x3E7 JUMPI PUSH1 0x0 DUP1 PUSH1 0x1 PUSH2 0x100 EXP DUP2 SLOAD DUP2 PUSH1 0xFF MUL NOT AND SWAP1 DUP4 ISZERO ISZERO MUL OR SWAP1 SSTORE POP PUSH32 0x7F26B83FF96E1F2B6A682F133852F6798A09C465DA95921460CEFB3847402498 PUSH1 0x1 PUSH1 0x40 MLOAD PUSH2 0x3DE SWAP2 SWAP1 PUSH2 0x8E6 JUMP JUMPDEST PUSH1 0x40 MLOAD DUP1 SWAP2 SUB SWAP1 LOG1 JUMPDEST POP POP JUMP JUMPDEST PUSH2 0x3F3 PUSH2 0x46F JUMP JUMPDEST PUSH1 0x0 PUSH20 0xFFFFFFFFFFFFFFFFFFFFFFFFFFFFFFFFFFFFFFFF AND DUP2 PUSH20 0xFFFFFFFFFFFFFFFFFFFFFFFFFFFFFFFFFFFFFFFF AND EQ ISZERO PUSH2 0x463 JUMPI PUSH1 0x40 MLOAD PUSH32 0x8C379A000000000000000000000000000000000000000000000000000000000 DUP2 MSTORE PUSH1 0x4 ADD PUSH2 0x45A SWAP1 PUSH2 0x973 JUMP JUMPDEST PUSH1 0x40 MLOAD DUP1 SWAP2 SUB SWAP1 REVERT JUMPDEST PUSH2 0x46C DUP2 PUSH2 0x4ED JUMP JUMPDEST POP JUMP JUMPDEST PUSH2 0x477 PUSH2 0x637 JUMP JUMPDEST PUSH20 0xFFFFFFFFFFFFFFFFFFFFFFFFFFFFFFFFFFFFFFFF AND PUSH2 0x495 PUSH2 0x207 JUMP JUMPDEST PUSH20 0xFFFFFFFFFFFFFFFFFFFFFFFFFFFFFFFFFFFFFFFF AND EQ PUSH2 0x4EB JUMPI PUSH1 0x40 MLOAD PUSH32 0x8C379A000000000000000000000000000000000000000000000000000000000 DUP2 MSTORE PUSH1 0x4 ADD PUSH2 0x4E2 SWAP1 PUSH2 0x9DF JUMP JUMPDEST PUSH1 0x40 MLOAD DUP1 SWAP2 SUB SWAP1 REVERT JUMPDEST JUMP JUMPDEST PUSH1 0x0 PUSH1 0x33 PUSH1 0x0 SWAP1 SLOAD SWAP1 PUSH2 0x100 EXP SWAP1 DIV PUSH20 0xFFFFFFFFFFFFFFFFFFFFFFFFFFFFFFFFFFFFFFFF AND SWAP1 POP DUP2 PUSH1 0x33 PUSH1 0x0 PUSH2 0x100 EXP DUP2 SLOAD DUP2 PUSH20 0xFFFFFFFFFFFFFFFFFFFFFFFFFFFFFFFFFFFFFFFF MUL NOT AND SWAP1 DUP4 PUSH20 0xFFFFFFFFFFFFFFFFFFFFFFFFFFFFFFFFFFFFFFFF AND MUL OR SWAP1 SSTORE POP DUP2 PUSH20 0xFFFFFFFFFFFFFFFFFFFFFFFFFFFFFFFFFFFFFFFF AND DUP2 PUSH20 0xFFFFFFFFFFFFFFFFFFFFFFFFFFFFFFFFFFFFFFFF AND PUSH32 0x8BE0079C531659141344CD1FD0A4F28419497F9722A3DAAFE3B4186F6B6457E0 PUSH1 0x40 MLOAD PUSH1 0x40 MLOAD DUP1 SWAP2 SUB SWAP1 LOG3 POP POP JUMP JUMPDEST PUSH1 0x0 DUP1 DUP3 PUSH20 0xFFFFFFFFFFFFFFFFFFFFFFFFFFFFFFFFFFFFFFFF AND EXTCODESIZE GT SWAP1 POP SWAP2 SWAP1 POP JUMP JUMPDEST PUSH1 0x0 PUSH1 0x1 SWAP1 SLOAD SWAP1 PUSH2 0x100 EXP SWAP1 DIV PUSH1 0xFF AND PUSH2 0x625 JUMPI PUSH1 0x40 MLOAD PUSH32 0x8C379A000000000000000000000000000000000000000000000000000000000 DUP2 MSTORE PUSH1 0x4 ADD PUSH2 0x61C SWAP1 PUSH2 0xA71 JUMP JUMPDEST PUSH1 0x40 MLOAD DUP1 SWAP2 SUB SWAP1 REVERT JUMPDEST PUSH2 0x635 PUSH2 0x630 PUSH2 0x637 JUMP JUMPDEST PUSH2 0x4ED JUMP JUMPDEST JUMP JUMPDEST PUSH1 0x0 CALLER SWAP1 POP SWAP1 JUMP JUMPDEST PUSH1 0x0 PUSH20 0xFFFFFFFFFFFFFFFFFFFFFFFFFFFFFFFFFFFFFFFF DUP3 AND SWAP1 POP SWAP2 SWAP1 POP JUMP JUMPDEST PUSH1 0x0 PUSH2 0x66A DUP3 PUSH2 0x63F JUMP JUMPDEST SWAP1 POP SWAP2 SWAP1 POP JUMP JUMPDEST PUSH2 0x67A DUP2 PUSH2 0x65F JUMP JUMPDEST DUP3 MSTORE POP POP JUMP JUMPDEST PUSH1 0x0 PUSH1 0x20 DUP3 ADD SWAP1 POP PUSH2 0x695 PUSH1 0x0 DUP4 ADD DUP5 PUSH2 0x671 JUMP JUMPDEST SWAP3 SWAP2 POP POP JUMP JUMPDEST PUSH1 0x0 DUP1 REVERT JUMPDEST PUSH2 0x6A9 DUP2 PUSH2 0x65F JUMP JUMPDEST DUP2 EQ PUSH2 0x6B4 JUMPI PUSH1 0x0 DUP1 REVERT JUMPDEST POP JUMP JUMPDEST PUSH1 0x0 DUP2 CALLDATALOAD SWAP1 POP PUSH2 0x6C6 DUP2 PUSH2 0x6A0 JUMP JUMPDEST SWAP3 SWAP2 POP POP JUMP JUMPDEST PUSH1 0x0 PUSH1 0x20 DUP3 DUP5 SUB SLT ISZERO PUSH2 0x6E2 JUMPI PUSH2 0x6E1 PUSH2 0x69B JUMP JUMPDEST JUMPDEST PUSH1 0x0 PUSH2 0x6F0 DUP5 DUP3 DUP6 ADD PUSH2 0x6B7 JUMP JUMPDEST SWAP2 POP POP SWAP3 SWAP2 POP POP JUMP JUMPDEST PUSH1 0x0 DUP2 SWAP1 POP SWAP2 SWAP1 POP JUMP JUMPDEST PUSH2 0x70C DUP2 PUSH2 0x6F9 JUMP JUMPDEST DUP3 MSTORE POP POP JUMP JUMPDEST PUSH1 0x0 PUSH1 0x20 DUP3 ADD SWAP1 POP PUSH2 0x727 PUSH1 0x0 DUP4 ADD DUP5 PUSH2 0x703 JUMP JUMPDEST SWAP3 SWAP2 POP POP JUMP JUMPDEST PUSH1 0x0 PUSH2 0x738 DUP3 PUSH2 0x65F JUMP JUMPDEST SWAP1 POP SWAP2 SWAP1 POP JUMP JUMPDEST PUSH2 0x748 DUP2 PUSH2 0x72D JUMP JUMPDEST DUP2 EQ PUSH2 0x753 JUMPI PUSH1 0x0 DUP1 REVERT JUMPDEST POP JUMP JUMPDEST PUSH1 0x0 DUP2 CALLDATALOAD SWAP1 POP PUSH2 0x765 DUP2 PUSH2 0x73F JUMP JUMPDEST SWAP3 SWAP2 POP POP JUMP JUMPDEST PUSH1 0x0 PUSH1 0x20 DUP3 DUP5 SUB SLT ISZERO PUSH2 0x781 JUMPI PUSH2 0x780 PUSH2 0x69B JUMP JUMPDEST JUMPDEST PUSH1 0x0 PUSH2 0x78F DUP5 DUP3 DUP6 ADD PUSH2 0x756 JUMP JUMPDEST SWAP2 POP POP SWAP3 SWAP2 POP POP JUMP JUMPDEST PUSH2 0x7A1 DUP2 PUSH2 0x6F9 JUMP JUMPDEST DUP2 EQ PUSH2 0x7AC JUMPI PUSH1 0x0 DUP1 REVERT JUMPDEST POP JUMP JUMPDEST PUSH1 0x0 DUP2 MLOAD SWAP1 POP PUSH2 0x7BE DUP2 PUSH2 0x798 JUMP JUMPDEST SWAP3 SWAP2 POP POP JUMP JUMPDEST PUSH1 0x0 PUSH1 0x20 DUP3 DUP5 SUB SLT ISZERO PUSH2 0x7DA JUMPI PUSH2 0x7D9 PUSH2 0x69B JUMP JUMPDEST JUMPDEST PUSH1 0x0 PUSH2 0x7E8 DUP5 DUP3 DUP6 ADD PUSH2 0x7AF JUMP JUMPDEST SWAP2 POP POP SWAP3 SWAP2 POP POP JUMP JUMPDEST PUSH1 0x0 DUP3 DUP3 MSTORE PUSH1 0x20 DUP3 ADD SWAP1 POP SWAP3 SWAP2 POP POP JUMP JUMPDEST PUSH32 0x496E697469616C697A61626C653A20636F6E747261637420697320616C726561 PUSH1 0x0 DUP3 ADD MSTORE PUSH32 0x647920696E697469616C697A6564000000000000000000000000000000000000 PUSH1 0x20 DUP3 ADD MSTORE POP JUMP JUMPDEST PUSH1 0x0 PUSH2 0x85E PUSH1 0x2E DUP4 PUSH2 0x7F1 JUMP JUMPDEST SWAP2 POP PUSH2 0x869 DUP3 PUSH2 0x802 JUMP JUMPDEST PUSH1 0x40 DUP3 ADD SWAP1 POP SWAP2 SWAP1 POP JUMP JUMPDEST PUSH1 0x0 PUSH1 0x20 DUP3 ADD SWAP1 POP DUP2 DUP2 SUB PUSH1 0x0 DUP4 ADD MSTORE PUSH2 0x88D DUP2 PUSH2 0x851 JUMP JUMPDEST SWAP1 POP SWAP2 SWAP1 POP JUMP JUMPDEST PUSH1 0x0 DUP2 SWAP1 POP SWAP2 SWAP1 POP JUMP JUMPDEST PUSH1 0x0 PUSH1 0xFF DUP3 AND SWAP1 POP SWAP2 SWAP1 POP JUMP JUMPDEST PUSH1 0x0 DUP2 SWAP1 POP SWAP2 SWAP1 POP JUMP JUMPDEST PUSH1 0x0 PUSH2 0x8D0 PUSH2 0x8CB PUSH2 0x8C6 DUP5 PUSH2 0x894 JUMP JUMPDEST PUSH2 0x8AB JUMP JUMPDEST PUSH2 0x89E JUMP JUMPDEST SWAP1 POP SWAP2 SWAP1 POP JUMP JUMPDEST PUSH2 0x8E0 DUP2 PUSH2 0x8B5 JUMP JUMPDEST DUP3 MSTORE POP POP JUMP JUMPDEST PUSH1 0x0 PUSH1 0x20 DUP3 ADD SWAP1 POP PUSH2 0x8FB PUSH1 0x0 DUP4 ADD DUP5 PUSH2 0x8D7 JUMP JUMPDEST SWAP3 SWAP2 POP POP JUMP JUMPDEST PUSH32 0x4F776E61626C653A206E6577206F776E657220697320746865207A65726F2061 PUSH1 0x0 DUP3 ADD MSTORE PUSH32 0x6464726573730000000000000000000000000000000000000000000000000000 PUSH1 0x20 DUP3 ADD MSTORE POP JUMP JUMPDEST PUSH1 0x0 PUSH2 0x95D PUSH1 0x26 DUP4 PUSH2 0x7F1 JUMP JUMPDEST SWAP2 POP PUSH2 0x968 DUP3 PUSH2 0x901 JUMP JUMPDEST PUSH1 0x40 DUP3 ADD SWAP1 POP SWAP2 SWAP1 POP JUMP JUMPDEST PUSH1 0x0 PUSH1 0x20 DUP3 ADD SWAP1 POP DUP2 DUP2 SUB PUSH1 0x0 DUP4 ADD MSTORE PUSH2 0x98C DUP2 PUSH2 0x950 JUMP JUMPDEST SWAP1 POP SWAP2 SWAP1 POP JUMP JUMPDEST PUSH32 0x4F776E61626C653A2063616C6C6572206973206E6F7420746865206F776E6572 PUSH1 0x0 DUP3 ADD MSTORE POP JUMP JUMPDEST PUSH1 0x0 PUSH2 0x9C9 PUSH1 0x20 DUP4 PUSH2 0x7F1 JUMP JUMPDEST SWAP2 POP PUSH2 0x9D4 DUP3 PUSH2 0x993 JUMP JUMPDEST PUSH1 0x20 DUP3 ADD SWAP1 POP SWAP2 SWAP1 POP JUMP JUMPDEST PUSH1 0x0 PUSH1 0x20 DUP3 ADD SWAP1 POP DUP2 DUP2 SUB PUSH1 0x0 DUP4 ADD MSTORE PUSH2 0x9F8 DUP2 PUSH2 0x9BC JUMP JUMPDEST SWAP1 POP SWAP2 SWAP1 POP JUMP JUMPDEST PUSH32 0x496E697469616C697A61626C653A20636F6E7472616374206973206E6F742069 PUSH1 0x0 DUP3 ADD MSTORE PUSH32 0x6E697469616C697A696E67000000000000000000000000000000000000000000 PUSH1 0x20 DUP3 ADD MSTORE POP JUMP JUMPDEST PUSH1 0x0 PUSH2 0xA5B PUSH1 0x2B DUP4 PUSH2 0x7F1 JUMP JUMPDEST SWAP2 POP PUSH2 0xA66 DUP3 PUSH2 0x9FF JUMP JUMPDEST PUSH1 0x40 DUP3 ADD SWAP1 POP SWAP2 SWAP1 POP JUMP JUMPDEST PUSH1 0x0 PUSH1 0x20 DUP3 ADD SWAP1 POP DUP2 DUP2 SUB PUSH1 0x0 DUP4 ADD MSTORE PUSH2 0xA8A DUP2 PUSH2 0xA4E JUMP JUMPDEST SWAP1 POP SWAP2 SWAP1 POP JUMP INVALID LOG2 PUSH5 0x6970667358 0x22 SLT KECCAK256 EXTCODESIZE 0x4C PUSH12 0xB3226E6B6ABB73C16EE75C49 0xB9 0x21 DUP13 LOG2 0xE4 SDIV 0xD0 LOG3 SLOAD SWAP11 0x2C RETURN 0xDF LOG1 COINBASE 0xA8 0xE PUSH5 0x736F6C6343 STOP ADDMOD MULMOD STOP CALLER "
				},
				"gasEstimates": {
					"creation": {
						"codeDepositCost": "551800",
						"executionCost": "587",
						"totalCost": "552387"
					},
					"external": {
						"balanceOf(address)": "infinite",
						"getTokenAddress()": "2500",
						"initialize(address)": "138625",
						"owner()": "2566",
						"renounceOwnership()": "30420",
						"transferOwnership(address)": "30835"
					}
				},
				"methodIdentifiers": {
					"balanceOf(address)": "70a08231",
					"getTokenAddress()": "10fe9ae8",
					"initialize(address)": "c4d66de8",
					"owner()": "8da5cb5b",
					"renounceOwnership()": "715018a6",
					"transferOwnership(address)": "f2fde38b"
				}
			},
			"storageLayout": {
				"storage": [
					{
						"astId": 138,
						"contract": "contracts/Payme.sol:Payme",
						"label": "_initialized",
						"offset": 0,
						"slot": "0",
						"type": "t_uint8"
					},
					{
						"astId": 141,
						"contract": "contracts/Payme.sol:Payme",
						"label": "_initializing",
						"offset": 1,
						"slot": "0",
						"type": "t_bool"
					},
					{
						"astId": 1020,
						"contract": "contracts/Payme.sol:Payme",
						"label": "__gap",
						"offset": 0,
						"slot": "1",
						"type": "t_array(t_uint256)50_storage"
					},
					{
						"astId": 10,
						"contract": "contracts/Payme.sol:Payme",
						"label": "_owner",
						"offset": 0,
						"slot": "51",
						"type": "t_address"
					},
					{
						"astId": 130,
						"contract": "contracts/Payme.sol:Payme",
						"label": "__gap",
						"offset": 0,
						"slot": "52",
						"type": "t_array(t_uint256)49_storage"
					},
					{
						"astId": 1868,
						"contract": "contracts/Payme.sol:Payme",
						"label": "_token",
						"offset": 0,
						"slot": "101",
						"type": "t_contract(IERC20Upgradeable)419"
					}
				],
				"types": {
					"t_address": {
						"encoding": "inplace",
						"label": "address",
						"numberOfBytes": "20"
					},
					"t_array(t_uint256)49_storage": {
						"base": "t_uint256",
						"encoding": "inplace",
						"label": "uint256[49]",
						"numberOfBytes": "1568"
					},
					"t_array(t_uint256)50_storage": {
						"base": "t_uint256",
						"encoding": "inplace",
						"label": "uint256[50]",
						"numberOfBytes": "1600"
					},
					"t_bool": {
						"encoding": "inplace",
						"label": "bool",
						"numberOfBytes": "1"
					},
					"t_contract(IERC20Upgradeable)419": {
						"encoding": "inplace",
						"label": "contract IERC20Upgradeable",
						"numberOfBytes": "20"
					},
					"t_uint256": {
						"encoding": "inplace",
						"label": "uint256",
						"numberOfBytes": "32"
					},
					"t_uint8": {
						"encoding": "inplace",
						"label": "uint8",
						"numberOfBytes": "1"
					}
				}
			},
			"userdoc": {
				"kind": "user",
				"methods": {},
				"version": 1
			}
		}
	}
}