{
	"data": {
		"bytecode": {
			"linkReferences": {},
			"object": "60806040523480156200001157600080fd5b506040516200611038038062006110833981810160405281019062000037919062000b87565b8585888c8c8c6001600081905550600083116200008b576040517f08c379a0000000000000000000000000000000000000000000000000000000008152600401620000829062000cf5565b60405180910390fd5b600073ffffffffffffffffffffffffffffffffffffffff168273ffffffffffffffffffffffffffffffffffffffff1603620000fd576040517f08c379a0000000000000000000000000000000000000000000000000000000008152600401620000f49062000d8d565b60405180910390fd5b600073ffffffffffffffffffffffffffffffffffffffff168173ffffffffffffffffffffffffffffffffffffffff16036200016f576040517f08c379a0000000000000000000000000000000000000000000000000000000008152600401620001669062000e25565b60405180910390fd5b8260048190555081600360006101000a81548173ffffffffffffffffffffffffffffffffffffffff021916908373ffffffffffffffffffffffffffffffffffffffff16021790555080600260006101000a81548173ffffffffffffffffffffffffffffffffffffffff021916908373ffffffffffffffffffffffffffffffffffffffff1602179055506200020d6000801b336200079e60201b60201c565b5050506000600660006101000a81548160ff0219169083151502179055506200024b6200023f620007b460201b60201c565b620007bc60201b60201c565b6000811162000291576040517f08c379a0000000000000000000000000000000000000000000000000000000008152600401620002889062000e97565b60405180910390fd5b806007819055505042821015620002df576040517f08c379a0000000000000000000000000000000000000000000000000000000008152600401620002d69062000f2f565b60405180910390fd5b81811162000324576040517f08c379a00000000000000000000000000000000000000000000000000000000081526004016200031b9062000fc7565b60405180910390fd5b816008819055508060098190555050506000600a60006101000a81548160ff0219169083151502179055506000620003616200088260201b60201c565b9050600073ffffffffffffffffffffffffffffffffffffffff168c73ffffffffffffffffffffffffffffffffffffffff1603620003d5576040517f08c379a0000000000000000000000000000000000000000000000000000000008152600401620003cc9062001039565b60405180910390fd5b600088036200041b576040517f08c379a00000000000000000000000000000000000000000000000000000000081526004016200041290620010ab565b60405180910390fd5b8087101562000461576040517f08c379a0000000000000000000000000000000000000000000000000000000008152600401620004589062001143565b60405180910390fd5b868611620004a6576040517f08c379a00000000000000000000000000000000000000000000000000000000081526004016200049d90620011db565b60405180910390fd5b62f099c0851015620004ef576040517f08c379a0000000000000000000000000000000000000000000000000000000008152600401620004e69062001273565b60405180910390fd5b6000841162000535576040517f08c379a00000000000000000000000000000000000000000000000000000000081526004016200052c906200130b565b60405180910390fd5b8383116200057a576040517f08c379a00000000000000000000000000000000000000000000000000000000081526004016200057190620013a3565b60405180910390fd5b8b600b60006101000a81548173ffffffffffffffffffffffffffffffffffffffff021916908373ffffffffffffffffffffffffffffffffffffffff1602179055506000600c8190555084600d8190555083600e8190555082600f8190555081600a60016101000a81548173ffffffffffffffffffffffffffffffffffffffff021916908373ffffffffffffffffffffffffffffffffffffffff16021790555060006200062b6200088a60201b60201c565b905060008173ffffffffffffffffffffffffffffffffffffffff166318160ddd6040518163ffffffff1660e01b8152600401602060405180830381865afa1580156200067b573d6000803e3d6000fd5b505050506040513d601f19601f82011682018060405250810190620006a19190620013c5565b90506000620006da6064620006c6600a85620008b460201b62001c281790919060201c565b620008cc60201b62001c3e1790919060201c565b90506000620007136064620006ff601486620008b460201b62001c281790919060201c565b620008cc60201b62001c3e1790919060201c565b905060006200074c606462000738600587620008b460201b62001c281790919060201c565b620008cc60201b62001c3e1790919060201c565b905062000781826200076d8386620008e460201b62001c541790919060201c565b620008e460201b62001c541790919060201c565b601081905550505050505050505050505050505050505062001513565b620007b08282620008fc60201b60201c565b5050565b600033905090565b6000600660019054906101000a900473ffffffffffffffffffffffffffffffffffffffff16905081600660016101000a81548173ffffffffffffffffffffffffffffffffffffffff021916908373ffffffffffffffffffffffffffffffffffffffff1602179055508173ffffffffffffffffffffffffffffffffffffffff168173ffffffffffffffffffffffffffffffffffffffff167f8be0079c531659141344cd1fd0a4f28419497f9722a3daafe3b4186f6b6457e060405160405180910390a35050565b600042905090565b6000600260009054906101000a900473ffffffffffffffffffffffffffffffffffffffff16905090565b60008183620008c4919062001426565b905092915050565b60008183620008dc9190620014a0565b905092915050565b60008183620008f49190620014d8565b905092915050565b6200090e8282620009ed60201b60201c565b620009e957600180600084815260200190815260200160002060000160008373ffffffffffffffffffffffffffffffffffffffff1673ffffffffffffffffffffffffffffffffffffffff16815260200190815260200160002060006101000a81548160ff0219169083151502179055506200098e620007b460201b60201c565b73ffffffffffffffffffffffffffffffffffffffff168173ffffffffffffffffffffffffffffffffffffffff16837f2f8788117e7eff1d82e926ec794901d17c78024a50270940304540a733656f0d60405160405180910390a45b5050565b60006001600084815260200190815260200160002060000160008373ffffffffffffffffffffffffffffffffffffffff1673ffffffffffffffffffffffffffffffffffffffff16815260200190815260200160002060009054906101000a900460ff16905092915050565b600080fd5b600073ffffffffffffffffffffffffffffffffffffffff82169050919050565b600062000a8a8262000a5d565b9050919050565b600062000a9e8262000a7d565b9050919050565b62000ab08162000a91565b811462000abc57600080fd5b50565b60008151905062000ad08162000aa5565b92915050565b6000819050919050565b62000aeb8162000ad6565b811462000af757600080fd5b50565b60008151905062000b0b8162000ae0565b92915050565b600062000b1e8262000a5d565b9050919050565b62000b308162000b11565b811462000b3c57600080fd5b50565b60008151905062000b508162000b25565b92915050565b62000b618162000a7d565b811462000b6d57600080fd5b50565b60008151905062000b818162000b56565b92915050565b60008060008060008060008060008060006101608c8e03121562000bb05762000baf62000a58565b5b600062000bc08e828f0162000abf565b9b5050602062000bd38e828f0162000afa565b9a5050604062000be68e828f0162000b3f565b995050606062000bf98e828f0162000abf565b985050608062000c0c8e828f0162000afa565b97505060a062000c1f8e828f0162000afa565b96505060c062000c328e828f0162000afa565b95505060e062000c458e828f0162000afa565b94505061010062000c598e828f0162000afa565b93505061012062000c6d8e828f0162000afa565b92505061014062000c818e828f0162000b70565b9150509295989b509295989b9093969950565b600082825260208201905092915050565b7f43726f776473616c653a20726174652069732030000000000000000000000000600082015250565b600062000cdd60148362000c94565b915062000cea8262000ca5565b602082019050919050565b6000602082019050818103600083015262000d108162000cce565b9050919050565b7f43726f776473616c653a2077616c6c657420697320746865207a65726f20616460008201527f6472657373000000000000000000000000000000000000000000000000000000602082015250565b600062000d7560258362000c94565b915062000d828262000d17565b604082019050919050565b6000602082019050818103600083015262000da88162000d66565b9050919050565b7f43726f776473616c653a20746f6b656e20697320746865207a65726f2061646460008201527f7265737300000000000000000000000000000000000000000000000000000000602082015250565b600062000e0d60248362000c94565b915062000e1a8262000daf565b604082019050919050565b6000602082019050818103600083015262000e408162000dfe565b9050919050565b7f43617070656443726f776473616c653a20636170206973203000000000000000600082015250565b600062000e7f60198362000c94565b915062000e8c8262000e47565b602082019050919050565b6000602082019050818103600083015262000eb28162000e70565b9050919050565b7f54696d656443726f776473616c653a206f70656e696e672074696d652069732060008201527f6265666f72652063757272656e742074696d6500000000000000000000000000602082015250565b600062000f1760338362000c94565b915062000f248262000eb9565b604082019050919050565b6000602082019050818103600083015262000f4a8162000f08565b9050919050565b7f54696d656443726f776473616c653a206f70656e696e672074696d652069732060008201527f6e6f74206265666f726520636c6f73696e672074696d65000000000000000000602082015250565b600062000faf60378362000c94565b915062000fbc8262000f51565b604082019050919050565b6000602082019050818103600083015262000fe28162000fa0565b9050919050565b7f56616c6964204255534420726571756972656400000000000000000000000000600082015250565b60006200102160138362000c94565b91506200102e8262000fe9565b602082019050919050565b60006020820190508181036000830152620010548162001012565b9050919050565b7f436170206d7573742062652067726561746572207468616e205a65726f000000600082015250565b600062001093601d8362000c94565b9150620010a0826200105b565b602082019050919050565b60006020820190508181036000830152620010c68162001084565b9050919050565b7f6f70656e696e672074696d65206973206265666f72652063757272656e74207460008201527f696d650000000000000000000000000000000000000000000000000000000000602082015250565b60006200112b60238362000c94565b91506200113882620010cd565b604082019050919050565b600060208201905081810360008301526200115e816200111c565b9050919050565b7f6f70656e696e672074696d65206973206e6f74206265666f726520636c6f736960008201527f6e672074696d6500000000000000000000000000000000000000000000000000602082015250565b6000620011c360278362000c94565b9150620011d08262001165565b604082019050919050565b60006020820190508181036000830152620011f681620011b4565b9050919050565b7f4475726174696f6e206d7573742062652067726561746572207468616e20366d60008201527f6f6e746873000000000000000000000000000000000000000000000000000000602082015250565b60006200125b60258362000c94565b91506200126882620011fd565b604082019050919050565b600060208201905081810360008301526200128e816200124c565b9050919050565b7f4d696e696d756d2053616c6573206d757374206265206772656174657220746860008201527f616e205a65726f00000000000000000000000000000000000000000000000000602082015250565b6000620012f360278362000c94565b9150620013008262001295565b604082019050919050565b600060208201905081810360008301526200132681620012e4565b9050919050565b7f4d6178696d756d2053616c6573206d757374206265206772656174657220746860008201527f616e204d696e696d756d2053616c657300000000000000000000000000000000602082015250565b60006200138b60308362000c94565b915062001398826200132d565b604082019050919050565b60006020820190508181036000830152620013be816200137c565b9050919050565b600060208284031215620013de57620013dd62000a58565b5b6000620013ee8482850162000afa565b91505092915050565b7f4e487b7100000000000000000000000000000000000000000000000000000000600052601160045260246000fd5b6000620014338262000ad6565b9150620014408362000ad6565b9250828202620014508162000ad6565b915082820484148315176200146a5762001469620013f7565b5b5092915050565b7f4e487b7100000000000000000000000000000000000000000000000000000000600052601260045260246000fd5b6000620014ad8262000ad6565b9150620014ba8362000ad6565b925082620014cd57620014cc62001471565b5b828204905092915050565b6000620014e58262000ad6565b9150620014f28362000ad6565b92508282019050808211156200150d576200150c620013f7565b5b92915050565b614bed80620015236000396000f3fe60806040526004361061028c5760003560e01c8063715018a61161015a578063b5af1b2f116100c1578063e994e4751161007a578063e994e4751461098a578063ec8ac4d8146109a1578063f0e5a18c146109bd578063f2d58790146109e8578063f2fde38b14610a13578063fc0c546a14610a3c576102a3565b8063b5af1b2f1461088c578063b7a8807c146108b7578063c10d6f57146108e2578063c77c73871461090b578063d547741f14610936578063e5a2be8e1461095f576102a3565b80638da5cb5b116101135780638da5cb5b1461078757806391d14854146107b257806393fc645a146107ef57806395e7a6a31461081a578063a217fddf14610836578063b3f05b9714610861576102a3565b8063715018a6146106b157806374991569146106c8578063762e9376146106f1578063804b60a31461071c5780638456bd2e146107475780638456cb5914610770576102a3565b80633f4ba83a116101fe5780634b6753bc116101b75780634b6753bc146105d75780634bb278f3146106025780634f93594514610619578063521eb273146106445780635c975abb1461066f57806369a751251461069a576102a3565b80633f4ba83a146104be5780633feb5f2b146104d55780634042b66f1461051457806347535d7b1461053f5780634a8cc5b71461056a5780634b20ab1a146105ac576102a3565b80631e6a610d116102505780631e6a610d1461039c578063248a9ca3146103d95780632c4e722e146104165780632f2ff15d14610441578063355274ea1461046a57806336568abe14610495576102a3565b806301ffc9a7146102b55780630fb5a6b4146102f257806310154bad1461031d57806313d033c0146103465780631515bc2b14610371576102a3565b366102a3576102a161029c610a67565b610a6f565b005b6102b36102ae610a67565b610a6f565b005b3480156102c157600080fd5b506102dc60048036038101906102d791906130dc565b610af9565b6040516102e99190613124565b60405180910390f35b3480156102fe57600080fd5b50610307610b73565b6040516103149190613158565b60405180910390f35b34801561032957600080fd5b50610344600480360381019061033f91906131d1565b610b79565b005b34801561035257600080fd5b5061035b610bdf565b6040516103689190613158565b60405180910390f35b34801561037d57600080fd5b50610386610be5565b6040516103939190613124565b60405180910390f35b3480156103a857600080fd5b506103c360048036038101906103be91906131d1565b610bf1565b6040516103d09190613158565b60405180910390f35b3480156103e557600080fd5b5061040060048036038101906103fb9190613234565b610c09565b60405161040d9190613270565b60405180910390f35b34801561042257600080fd5b5061042b610c29565b6040516104389190613158565b60405180910390f35b34801561044d57600080fd5b506104686004803603810190610463919061328b565b610c33565b005b34801561047657600080fd5b5061047f610c54565b60405161048c9190613158565b60405180910390f35b3480156104a157600080fd5b506104bc60048036038101906104b7919061328b565b610c5e565b005b3480156104ca57600080fd5b506104d3610ce1565b005b3480156104e157600080fd5b506104fc60048036038101906104f791906132f7565b610cfb565b60405161050b93929190613333565b60405180910390f35b34801561052057600080fd5b50610529610d62565b6040516105369190613158565b60405180910390f35b34801561054b57600080fd5b50610554610d6c565b6040516105619190613124565b60405180910390f35b34801561057657600080fd5b50610591600480360381019061058c91906132f7565b610d87565b6040516105a3969594939291906133fa565b60405180910390f35b3480156105b857600080fd5b506105c1610e88565b6040516105ce9190613158565b60405180910390f35b3480156105e357600080fd5b506105ec610e8d565b6040516105f99190613158565b60405180910390f35b34801561060e57600080fd5b50610617610e97565b005b34801561062557600080fd5b5061062e610ea9565b60405161063b9190613124565b60405180910390f35b34801561065057600080fd5b50610659610ebd565b6040516106669190613483565b60405180910390f35b34801561067b57600080fd5b50610684610ee7565b6040516106919190613124565b60405180910390f35b3480156106a657600080fd5b506106af610efe565b005b3480156106bd57600080fd5b506106c66111a0565b005b3480156106d457600080fd5b506106ef60048036038101906106ea91906134dc565b6111b4565b005b3480156106fd57600080fd5b5061070661126f565b6040516107139190613158565b60405180910390f35b34801561072857600080fd5b50610731611275565b60405161073e9190613158565b60405180910390f35b34801561075357600080fd5b5061076e60048036038101906107699190613547565b61127b565b005b34801561077c57600080fd5b50610785611336565b005b34801561079357600080fd5b5061079c611350565b6040516107a99190613574565b60405180910390f35b3480156107be57600080fd5b506107d960048036038101906107d4919061328b565b61137a565b6040516107e69190613124565b60405180910390f35b3480156107fb57600080fd5b506108046113e5565b6040516108119190613158565b60405180910390f35b610834600480360381019061082f919061358f565b6113ea565b005b34801561084257600080fd5b5061084b6116ac565b6040516108589190613270565b60405180910390f35b34801561086d57600080fd5b506108766116b3565b6040516108839190613124565b60405180910390f35b34801561089857600080fd5b506108a16116ca565b6040516108ae919061362e565b60405180910390f35b3480156108c357600080fd5b506108cc6116f0565b6040516108d99190613158565b60405180910390f35b3480156108ee57600080fd5b506109096004803603810190610904919061377e565b6116fa565b005b34801561091757600080fd5b506109206118c9565b60405161092d9190613574565b60405180910390f35b34801561094257600080fd5b5061095d6004803603810190610958919061328b565b6118ef565b005b34801561096b57600080fd5b50610974611910565b6040516109819190613158565b60405180910390f35b34801561099657600080fd5b5061099f611915565b005b6109bb60048036038101906109b691906131d1565b610a6f565b005b3480156109c957600080fd5b506109d2611b6f565b6040516109df9190613158565b60405180910390f35b3480156109f457600080fd5b506109fd611b75565b604051610a0a9190613158565b60405180910390f35b348015610a1f57600080fd5b50610a3a6004803603810190610a3591906131d1565b611b7b565b005b348015610a4857600080fd5b50610a51611bfe565b604051610a5e919061362e565b60405180910390f35b600033905090565b600260005403610ab4576040517f08c379a0000000000000000000000000000000000000000000000000000000008152600401610aab90613861565b60405180910390fd5b6002600081905550806040517ffa5cd00f000000000000000000000000000000000000000000000000000000008152600401610af09190613574565b60405180910390fd5b60007f7965db0b000000000000000000000000000000000000000000000000000000007bffffffffffffffffffffffffffffffffffffffffffffffffffffffff1916827bffffffffffffffffffffffffffffffffffffffffffffffffffffffff19161480610b6c5750610b6b82611c6a565b5b9050919050565b600d5481565b610ba57ff5ddd805fa96b7c3d4f3ea55114f966ab9aad1de73aff48d008717b66678bb3660001b610c09565b610bae81611cd4565b610bdb7ff5ddd805fa96b7c3d4f3ea55114f966ab9aad1de73aff48d008717b66678bb3660001b83610c33565b5050565b600c5481565b60006009544211905090565b60136020528060005260406000206000915090505481565b600060016000838152602001908152602001600020600101549050919050565b6000600454905090565b610c3c82610c09565b610c4581611cd4565b610c4f8383611ce8565b505050565b6000600754905090565b610c66610a67565b73ffffffffffffffffffffffffffffffffffffffff168173ffffffffffffffffffffffffffffffffffffffff1614610cd3576040517f08c379a0000000000000000000000000000000000000000000000000000000008152600401610cca906138f3565b60405180910390fd5b610cdd8282611dc8565b5050565b610ce9611eaa565b610cf1611f28565b610cf9611f71565b565b60118181548110610d0b57600080fd5b90600052602060002090600302016000915090508060000160009054906101000a900473ffffffffffffffffffffffffffffffffffffffff16908060010154908060020160009054906101000a900460ff16905083565b6000600554905090565b60006008544210158015610d8257506009544211155b905090565b60128181548110610d9757600080fd5b9060005260206000209060060201600091509050806000018054610dba90613942565b80601f0160208091040260200160405190810160405280929190818152602001828054610de690613942565b8015610e335780601f10610e0857610100808354040283529160200191610e33565b820191906000526020600020905b815481529060010190602001808311610e1657829003601f168201915b5050505050908060010160009054906101000a900473ffffffffffffffffffffffffffffffffffffffff16908060020154908060030154908060040154908060050160009054906101000a900460ff16905086565b600581565b6000600954905090565b610e9f611eaa565b610ea7611fd4565b565b6000600754610eb6610d62565b1015905090565b6000600360009054906101000a900473ffffffffffffffffffffffffffffffffffffffff16905090565b6000600660009054906101000a900460ff16905090565b610f06610be5565b610f45576040517f08c379a0000000000000000000000000000000000000000000000000000000008152600401610f3c906139bf565b60405180910390fd5b6000600a60019054906101000a900473ffffffffffffffffffffffffffffffffffffffff16905060005b60128054905081101561119c57600060128281548110610f9257610f916139df565b5b90600052602060002090600602016040518060c0016040529081600082018054610fbb90613942565b80601f0160208091040260200160405190810160405280929190818152602001828054610fe790613942565b80156110345780601f1061100957610100808354040283529160200191611034565b820191906000526020600020905b81548152906001019060200180831161101757829003601f168201915b505050505081526020016001820160009054906101000a900473ffffffffffffffffffffffffffffffffffffffff1673ffffffffffffffffffffffffffffffffffffffff1673ffffffffffffffffffffffffffffffffffffffff1681526020016002820154815260200160038201548152602001600482015481526020016005820160009054906101000a900460ff16151515158152505090508060a00151156110de5750611189565b60006110e86120bc565b90508373ffffffffffffffffffffffffffffffffffffffff16637df8df9283602001518385608001518660600151600180896040015160006040518963ffffffff1660e01b8152600401611143989796959493929190613a49565b600060405180830381600087803b15801561115d57600080fd5b505af1158015611171573d6000803e3d6000fd5b5050505060018260a001901515908115158152505050505b808061119490613af6565b915050610f6f565b5050565b6111a8611eaa565b6111b260006120c4565b565b6111bc611eaa565b600073ffffffffffffffffffffffffffffffffffffffff168173ffffffffffffffffffffffffffffffffffffffff160361122b576040517f08c379a000000000000000000000000000000000000000000000000000000000815260040161122290613b8a565b60405180910390fd5b80600a60016101000a81548173ffffffffffffffffffffffffffffffffffffffff021916908373ffffffffffffffffffffffffffffffffffffffff16021790555050565b600f5481565b60105481565b611283611eaa565b600073ffffffffffffffffffffffffffffffffffffffff168173ffffffffffffffffffffffffffffffffffffffff16036112f2576040517f08c379a00000000000000000000000000000000000000000000000000000000081526004016112e990613bf6565b60405180910390fd5b80600b60006101000a81548173ffffffffffffffffffffffffffffffffffffffff021916908373ffffffffffffffffffffffffffffffffffffffff16021790555050565b61133e611eaa565b61134661218a565b61134e6121d4565b565b6000600660019054906101000a900473ffffffffffffffffffffffffffffffffffffffff16905090565b60006001600084815260200190815260200160002060000160008373ffffffffffffffffffffffffffffffffffffffff1673ffffffffffffffffffffffffffffffffffffffff16815260200190815260200160002060009054906101000a900460ff16905092915050565b601481565b60026000540361142f576040517f08c379a000000000000000000000000000000000000000000000000000000000815260040161142690613861565b60405180910390fd5b6002600081905550600073ffffffffffffffffffffffffffffffffffffffff168273ffffffffffffffffffffffffffffffffffffffff16036114a6576040517f08c379a000000000000000000000000000000000000000000000000000000000815260040161149d90613c88565b60405180910390fd5b600081116114e9576040517f08c379a00000000000000000000000000000000000000000000000000000000081526004016114e090613d1a565b60405180910390fd5b60008190506114f88382612237565b60006115038261245f565b9050600061150f611bfe565b9050600061151b610d62565b9050600061153482601054611c5490919063ffffffff16565b90506115498482611c5490919063ffffffff16565b8373ffffffffffffffffffffffffffffffffffffffff166370a08231306040518263ffffffff1660e01b81526004016115829190613574565b602060405180830381865afa15801561159f573d6000803e3d6000fd5b505050506040513d601f19601f820116820180604052508101906115c39190613d4f565b101561160657836040517f63adbdb80000000000000000000000000000000000000000000000000000000081526004016115fd9190613158565b60405180910390fd5b611610878561247d565b8673ffffffffffffffffffffffffffffffffffffffff1661162f610a67565b73ffffffffffffffffffffffffffffffffffffffff167f6faf93231a456e552dbc9961f58d9713ee4f2e69d15f1975b050ef0911053a7b8787604051611676929190613d7c565b60405180910390a3611688878661248b565b6116918561252e565b61169b8786612587565b505050505060016000819055505050565b6000801b81565b6000600a60009054906101000a900460ff16905090565b600b60009054906101000a900473ffffffffffffffffffffffffffffffffffffffff1681565b6000600854905090565b611702611eaa565b60105461171a84601454611c5490919063ffffffff16565b1161175a576040517f08c379a000000000000000000000000000000000000000000000000000000000815260040161175190613df1565b60405180910390fd5b60126040518060c001604052808781526020018673ffffffffffffffffffffffffffffffffffffffff16815260200185815260200184815260200183815260200160001515815250908060018154018082558091505060019003906000526020600020906006020160009091909190915060008201518160000190816117e09190613fb3565b5060208201518160010160006101000a81548173ffffffffffffffffffffffffffffffffffffffff021916908373ffffffffffffffffffffffffffffffffffffffff16021790555060408201518160020155606082015181600301556080820151816004015560a08201518160050160006101000a81548160ff021916908315150217905550505061187d83601454611c5490919063ffffffff16565b6014819055507f403986fc4a9edd42ca1fc943cfc247dfb0d81207bf5b32c14580ae484ddc4ee885858585856040516118ba959493929190614085565b60405180910390a15050505050565b600a60019054906101000a900473ffffffffffffffffffffffffffffffffffffffff1681565b6118f882610c09565b61190181611cd4565b61190b8383611dc8565b505050565b600a81565b61191d610be5565b61195c576040517f08c379a00000000000000000000000000000000000000000000000000000000081526004016119539061412b565b60405180910390fd5b6000600a60019054906101000a900473ffffffffffffffffffffffffffffffffffffffff16905060005b601180549050811015611b6b576000601182815481106119a9576119a86139df565b5b90600052602060002090600302016040518060600160405290816000820160009054906101000a900473ffffffffffffffffffffffffffffffffffffffff1673ffffffffffffffffffffffffffffffffffffffff1673ffffffffffffffffffffffffffffffffffffffff168152602001600182015481526020016002820160009054906101000a900460ff1615151515815250509050806040015115611a4f5750611b58565b8273ffffffffffffffffffffffffffffffffffffffff16637df8df9282600001518573ffffffffffffffffffffffffffffffffffffffff166394a3fada6040518163ffffffff1660e01b8152600401602060405180830381865afa158015611abb573d6000803e3d6000fd5b505050506040513d601f19601f82011682018060405250810190611adf9190613d4f565b600c54600d5460016000886020015160016040518963ffffffff1660e01b8152600401611b13989796959493929190613a49565b600060405180830381600087803b158015611b2d57600080fd5b505af1158015611b41573d6000803e3d6000fd5b505050506001816040019015159081151581525050505b8080611b6390613af6565b915050611986565b5050565b60145481565b600e5481565b611b83611eaa565b600073ffffffffffffffffffffffffffffffffffffffff168173ffffffffffffffffffffffffffffffffffffffff1603611bf2576040517f08c379a0000000000000000000000000000000000000000000000000000000008152600401611be9906141bd565b60405180910390fd5b611bfb816120c4565b50565b6000600260009054906101000a900473ffffffffffffffffffffffffffffffffffffffff16905090565b60008183611c3691906141dd565b905092915050565b60008183611c4c919061424e565b905092915050565b60008183611c62919061427f565b905092915050565b60007f01ffc9a7000000000000000000000000000000000000000000000000000000007bffffffffffffffffffffffffffffffffffffffffffffffffffffffff1916827bffffffffffffffffffffffffffffffffffffffffffffffffffffffff1916149050919050565b611ce581611ce0610a67565b61258b565b50565b611cf2828261137a565b611dc457600180600084815260200190815260200160002060000160008373ffffffffffffffffffffffffffffffffffffffff1673ffffffffffffffffffffffffffffffffffffffff16815260200190815260200160002060006101000a81548160ff021916908315150217905550611d69610a67565b73ffffffffffffffffffffffffffffffffffffffff168173ffffffffffffffffffffffffffffffffffffffff16837f2f8788117e7eff1d82e926ec794901d17c78024a50270940304540a733656f0d60405160405180910390a45b5050565b611dd2828261137a565b15611ea65760006001600084815260200190815260200160002060000160008373ffffffffffffffffffffffffffffffffffffffff1673ffffffffffffffffffffffffffffffffffffffff16815260200190815260200160002060006101000a81548160ff021916908315150217905550611e4b610a67565b73ffffffffffffffffffffffffffffffffffffffff168173ffffffffffffffffffffffffffffffffffffffff16837ff6391f5c32d9c69d2a47ea670b442974b53935d1edc7fd64eb21e047a839171b60405160405180910390a45b5050565b611eb2610a67565b73ffffffffffffffffffffffffffffffffffffffff16611ed0611350565b73ffffffffffffffffffffffffffffffffffffffff1614611f26576040517f08c379a0000000000000000000000000000000000000000000000000000000008152600401611f1d906142ff565b60405180910390fd5b565b611f30610ee7565b611f6f576040517f08c379a0000000000000000000000000000000000000000000000000000000008152600401611f669061436b565b60405180910390fd5b565b611f79611f28565b6000600660006101000a81548160ff0219169083151502179055507f5db9ee0a495bf2e6ff9c91a7834c1ba4fdd244a5e8aa4e537bd38aeae4b073aa611fbd610a67565b604051611fca9190613574565b60405180910390a1565b600a60009054906101000a900460ff1615612024576040517f08c379a000000000000000000000000000000000000000000000000000000000815260040161201b906143fd565b60405180910390fd5b61202c610be5565b61206b576040517f08c379a00000000000000000000000000000000000000000000000000000000081526004016120629061412b565b60405180910390fd5b6001600a60006101000a81548160ff02191690831515021790555061208e612628565b7f9270cc390c096600a1c17c44345a1ba689fafd99d97487b10cfccf86cf73183660405160405180910390a1565b600042905090565b6000600660019054906101000a900473ffffffffffffffffffffffffffffffffffffffff16905081600660016101000a81548173ffffffffffffffffffffffffffffffffffffffff021916908373ffffffffffffffffffffffffffffffffffffffff1602179055508173ffffffffffffffffffffffffffffffffffffffff168173ffffffffffffffffffffffffffffffffffffffff167f8be0079c531659141344cd1fd0a4f28419497f9722a3daafe3b4186f6b6457e060405160405180910390a35050565b612192610ee7565b156121d2576040517f08c379a00000000000000000000000000000000000000000000000000000000081526004016121c990614469565b60405180910390fd5b565b6121dc61218a565b6001600660006101000a81548160ff0219169083151502179055507f62e78cea01bee320cd4e420270b5ea74000d11b0c9f74754ebdbfc544b05a258612220610a67565b60405161222d9190613574565b60405180910390a1565b6000600b60009054906101000a900473ffffffffffffffffffffffffffffffffffffffff1673ffffffffffffffffffffffffffffffffffffffff166370a08231336040518263ffffffff1660e01b81526004016122949190613574565b602060405180830381865afa1580156122b1573d6000803e3d6000fd5b505050506040513d601f19601f820116820180604052508101906122d59190613d4f565b90508082111561231e5780826040517fcf479181000000000000000000000000000000000000000000000000000000008152600401612315929190613d7c565b60405180910390fd5b600e5482101561236557816040517f539aefc400000000000000000000000000000000000000000000000000000000815260040161235c9190613158565b60405180910390fd5b600f546123ba83601360008773ffffffffffffffffffffffffffffffffffffffff1673ffffffffffffffffffffffffffffffffffffffff16815260200190815260200160002054611c5490919063ffffffff16565b111561245057612414601360008573ffffffffffffffffffffffffffffffffffffffff1673ffffffffffffffffffffffffffffffffffffffff16815260200190815260200160002054600f5461279990919063ffffffff16565b6040517f98c1d8ab0000000000000000000000000000000000000000000000000000000081526004016124479190613158565b60405180910390fd5b61245a83836127af565b505050565b600061247660045483611c2890919063ffffffff16565b9050919050565b61248782826127c5565b5050565b612495828261289b565b6124e781601360008573ffffffffffffffffffffffffffffffffffffffff1673ffffffffffffffffffffffffffffffffffffffff16815260200190815260200160002054611c5490919063ffffffff16565b601360008473ffffffffffffffffffffffffffffffffffffffff1673ffffffffffffffffffffffffffffffffffffffff168152602001908152602001600020819055505050565b6125843361253a610ebd565b83600b60009054906101000a900473ffffffffffffffffffffffffffffffffffffffff1673ffffffffffffffffffffffffffffffffffffffff166128b5909392919063ffffffff16565b50565b5050565b612595828261137a565b612624576125ba8173ffffffffffffffffffffffffffffffffffffffff16601461293e565b6125c88360001c602061293e565b6040516020016125d992919061455d565b6040516020818303038152906040526040517f08c379a000000000000000000000000000000000000000000000000000000000815260040161261b9190614597565b60405180910390fd5b5050565b6000612632611bfe565b9050600061263e610d62565b9050600061264a610c29565b905060008373ffffffffffffffffffffffffffffffffffffffff166318160ddd6040518163ffffffff1660e01b8152600401602060405180830381865afa158015612699573d6000803e3d6000fd5b505050506040513d601f19601f820116820180604052508101906126bd9190613d4f565b905060006126d48385611c2890919063ffffffff16565b905060006126ed82601054611c5490919063ffffffff16565b90508281111561273457806040517f9446517d00000000000000000000000000000000000000000000000000000000815260040161272b9190613158565b60405180910390fd5b612781600a60019054906101000a900473ffffffffffffffffffffffffffffffffffffffff16828873ffffffffffffffffffffffffffffffffffffffff16612b7a9092919063ffffffff16565b612789611915565b612791612c00565b505050505050565b600081836127a791906145b9565b905092915050565b6127b761218a565b6127c18282612c02565b5050565b601160405180606001604052808473ffffffffffffffffffffffffffffffffffffffff16815260200183815260200160001515815250908060018154018082558091505060019003906000526020600020906003020160009091909190915060008201518160000160006101000a81548173ffffffffffffffffffffffffffffffffffffffff021916908373ffffffffffffffffffffffffffffffffffffffff1602179055506020820151816001015560408201518160020160006101000a81548160ff02191690831515021790555050505050565b6128b081600554611c5490919063ffffffff16565b505050565b612938846323b872dd60e01b8585856040516024016128d6939291906145ed565b604051602081830303815290604052907bffffffffffffffffffffffffffffffffffffffffffffffffffffffff19166020820180517bffffffffffffffffffffffffffffffffffffffffffffffffffffffff8381831617835250505050612c7c565b50505050565b60606000600283600261295191906141dd565b61295b919061427f565b67ffffffffffffffff81111561297457612973613653565b5b6040519080825280601f01601f1916602001820160405280156129a65781602001600182028036833780820191505090505b5090507f3000000000000000000000000000000000000000000000000000000000000000816000815181106129de576129dd6139df565b5b60200101907effffffffffffffffffffffffffffffffffffffffffffffffffffffffffffff1916908160001a9053507f780000000000000000000000000000000000000000000000000000000000000081600181518110612a4257612a416139df565b5b60200101907effffffffffffffffffffffffffffffffffffffffffffffffffffffffffffff1916908160001a90535060006001846002612a8291906141dd565b612a8c919061427f565b90505b6001811115612b2c577f3031323334353637383961626364656600000000000000000000000000000000600f861660108110612ace57612acd6139df565b5b1a60f81b828281518110612ae557612ae46139df565b5b60200101907effffffffffffffffffffffffffffffffffffffffffffffffffffffffffffff1916908160001a905350600485901c945080612b2590614624565b9050612a8f565b5060008414612b70576040517f08c379a0000000000000000000000000000000000000000000000000000000008152600401612b6790614699565b60405180910390fd5b8091505092915050565b612bfb8363a9059cbb60e01b8484604051602401612b999291906146b9565b604051602081830303815290604052907bffffffffffffffffffffffffffffffffffffffffffffffffffffffff19166020820180517bffffffffffffffffffffffffffffffffffffffffffffffffffffffff8381831617835250505050612c7c565b505050565b565b612c2f7ff5ddd805fa96b7c3d4f3ea55114f966ab9aad1de73aff48d008717b66678bb3660001b8361137a565b612c6e576040517f08c379a0000000000000000000000000000000000000000000000000000000008152600401612c659061477a565b60405180910390fd5b612c788282612d43565b5050565b6000612cde826040518060400160405280602081526020017f5361666545524332303a206c6f772d6c6576656c2063616c6c206661696c65648152508573ffffffffffffffffffffffffffffffffffffffff16612d989092919063ffffffff16565b9050600081511115612d3e5780806020019051810190612cfe91906147c6565b612d3d576040517f08c379a0000000000000000000000000000000000000000000000000000000008152600401612d3490614865565b60405180910390fd5b5b505050565b612d4b610d6c565b612d8a576040517f08c379a0000000000000000000000000000000000000000000000000000000008152600401612d81906148d1565b60405180910390fd5b612d948282612db0565b5050565b6060612da78484600085612e1c565b90509392505050565b612dba8282612f30565b600754612dd782612dc9610d62565b611c5490919063ffffffff16565b1115612e18576040517f08c379a0000000000000000000000000000000000000000000000000000000008152600401612e0f9061493d565b60405180910390fd5b5050565b606082471015612e61576040517f08c379a0000000000000000000000000000000000000000000000000000000008152600401612e58906149cf565b60405180910390fd5b612e6a85612fe6565b612ea9576040517f08c379a0000000000000000000000000000000000000000000000000000000008152600401612ea090614a3b565b60405180910390fd5b6000808673ffffffffffffffffffffffffffffffffffffffff168587604051612ed29190614aa2565b60006040518083038185875af1925050503d8060008114612f0f576040519150601f19603f3d011682016040523d82523d6000602084013e612f14565b606091505b5091509150612f24828286613009565b92505050949350505050565b600073ffffffffffffffffffffffffffffffffffffffff168273ffffffffffffffffffffffffffffffffffffffff1603612f9f576040517f08c379a0000000000000000000000000000000000000000000000000000000008152600401612f9690614b2b565b60405180910390fd5b60008103612fe2576040517f08c379a0000000000000000000000000000000000000000000000000000000008152600401612fd990614b97565b60405180910390fd5b5050565b6000808273ffffffffffffffffffffffffffffffffffffffff163b119050919050565b6060831561301957829050613069565b60008351111561302c5782518084602001fd5b816040517f08c379a00000000000000000000000000000000000000000000000000000000081526004016130609190614597565b60405180910390fd5b9392505050565b6000604051905090565b600080fd5b600080fd5b60007fffffffff0000000000000000000000000000000000000000000000000000000082169050919050565b6130b981613084565b81146130c457600080fd5b50565b6000813590506130d6816130b0565b92915050565b6000602082840312156130f2576130f161307a565b5b6000613100848285016130c7565b91505092915050565b60008115159050919050565b61311e81613109565b82525050565b60006020820190506131396000830184613115565b92915050565b6000819050919050565b6131528161313f565b82525050565b600060208201905061316d6000830184613149565b92915050565b600073ffffffffffffffffffffffffffffffffffffffff82169050919050565b600061319e82613173565b9050919050565b6131ae81613193565b81146131b957600080fd5b50565b6000813590506131cb816131a5565b92915050565b6000602082840312156131e7576131e661307a565b5b60006131f5848285016131bc565b91505092915050565b6000819050919050565b613211816131fe565b811461321c57600080fd5b50565b60008135905061322e81613208565b92915050565b60006020828403121561324a5761324961307a565b5b60006132588482850161321f565b91505092915050565b61326a816131fe565b82525050565b60006020820190506132856000830184613261565b92915050565b600080604083850312156132a2576132a161307a565b5b60006132b08582860161321f565b92505060206132c1858286016131bc565b9150509250929050565b6132d48161313f565b81146132df57600080fd5b50565b6000813590506132f1816132cb565b92915050565b60006020828403121561330d5761330c61307a565b5b600061331b848285016132e2565b91505092915050565b61332d81613193565b82525050565b60006060820190506133486000830186613324565b6133556020830185613149565b6133626040830184613115565b949350505050565b600081519050919050565b600082825260208201905092915050565b60005b838110156133a4578082015181840152602081019050613389565b60008484015250505050565b6000601f19601f8301169050919050565b60006133cc8261336a565b6133d68185613375565b93506133e6818560208601613386565b6133ef816133b0565b840191505092915050565b600060c082019050818103600083015261341481896133c1565b90506134236020830188613324565b6134306040830187613149565b61343d6060830186613149565b61344a6080830185613149565b61345760a0830184613115565b979650505050505050565b600061346d82613173565b9050919050565b61347d81613462565b82525050565b60006020820190506134986000830184613474565b92915050565b60006134a982613193565b9050919050565b6134b98161349e565b81146134c457600080fd5b50565b6000813590506134d6816134b0565b92915050565b6000602082840312156134f2576134f161307a565b5b6000613500848285016134c7565b91505092915050565b600061351482613193565b9050919050565b61352481613509565b811461352f57600080fd5b50565b6000813590506135418161351b565b92915050565b60006020828403121561355d5761355c61307a565b5b600061356b84828501613532565b91505092915050565b60006020820190506135896000830184613324565b92915050565b600080604083850312156135a6576135a561307a565b5b60006135b4858286016131bc565b92505060206135c5858286016132e2565b9150509250929050565b6000819050919050565b60006135f46135ef6135ea84613173565b6135cf565b613173565b9050919050565b6000613606826135d9565b9050919050565b6000613618826135fb565b9050919050565b6136288161360d565b82525050565b6000602082019050613643600083018461361f565b92915050565b600080fd5b600080fd5b7f4e487b7100000000000000000000000000000000000000000000000000000000600052604160045260246000fd5b61368b826133b0565b810181811067ffffffffffffffff821117156136aa576136a9613653565b5b80604052505050565b60006136bd613070565b90506136c98282613682565b919050565b600067ffffffffffffffff8211156136e9576136e8613653565b5b6136f2826133b0565b9050602081019050919050565b82818337600083830152505050565b600061372161371c846136ce565b6136b3565b90508281526020810184848401111561373d5761373c61364e565b5b6137488482856136ff565b509392505050565b600082601f83011261376557613764613649565b5b813561377584826020860161370e565b91505092915050565b600080600080600060a0868803121561379a5761379961307a565b5b600086013567ffffffffffffffff8111156137b8576137b761307f565b5b6137c488828901613750565b95505060206137d5888289016131bc565b94505060406137e6888289016132e2565b93505060606137f7888289016132e2565b9250506080613808888289016132e2565b9150509295509295909350565b7f5265656e7472616e637947756172643a207265656e7472616e742063616c6c00600082015250565b600061384b601f83613375565b915061385682613815565b602082019050919050565b6000602082019050818103600083015261387a8161383e565b9050919050565b7f416363657373436f6e74726f6c3a2063616e206f6e6c792072656e6f756e636560008201527f20726f6c657320666f722073656c660000000000000000000000000000000000602082015250565b60006138dd602f83613375565b91506138e882613881565b604082019050919050565b6000602082019050818103600083015261390c816138d0565b9050919050565b7f4e487b7100000000000000000000000000000000000000000000000000000000600052602260045260246000fd5b6000600282049050600182168061395a57607f821691505b60208210810361396d5761396c613913565b5b50919050565b7f46696e616c697a61626c6543726f776473616c653a204e6f7420436c6f736564600082015250565b60006139a9602083613375565b91506139b482613973565b602082019050919050565b600060208201905081810360008301526139d88161399c565b9050919050565b7f4e487b7100000000000000000000000000000000000000000000000000000000600052603260045260246000fd5b6000819050919050565b6000613a33613a2e613a2984613a0e565b6135cf565b61313f565b9050919050565b613a4381613a18565b82525050565b600061010082019050613a5f600083018b613324565b613a6c602083018a613149565b613a796040830189613149565b613a866060830188613149565b613a936080830187613a3a565b613aa060a0830186613115565b613aad60c0830185613149565b613aba60e0830184613115565b9998505050505050505050565b7f4e487b7100000000000000000000000000000000000000000000000000000000600052601160045260246000fd5b6000613b018261313f565b91507fffffffffffffffffffffffffffffffffffffffffffffffffffffffffffffffff8203613b3357613b32613ac7565b5b600182019050919050565b7f56616c69642056657374696e6720636f6e747261637420726571756972656400600082015250565b6000613b74601f83613375565b9150613b7f82613b3e565b602082019050919050565b60006020820190508181036000830152613ba381613b67565b9050919050565b7f56616c696420546f6b656e204164647265737320526571756972656400000000600082015250565b6000613be0601c83613375565b9150613beb82613baa565b602082019050919050565b60006020820190508181036000830152613c0f81613bd3565b9050919050565b7f56616c69642042656e656669636961727920616464726573732069732072657160008201527f7569726564000000000000000000000000000000000000000000000000000000602082015250565b6000613c72602583613375565b9150613c7d82613c16565b604082019050919050565b60006020820190508181036000830152613ca181613c65565b9050919050565b7f416d6f756e74206d7573742062652067726561746572207468616e207a65726f60008201527f2830290000000000000000000000000000000000000000000000000000000000602082015250565b6000613d04602383613375565b9150613d0f82613ca8565b604082019050919050565b60006020820190508181036000830152613d3381613cf7565b9050919050565b600081519050613d49816132cb565b92915050565b600060208284031215613d6557613d6461307a565b5b6000613d7384828501613d3a565b91505092915050565b6000604082019050613d916000830185613149565b613d9e6020830184613149565b9392505050565b7f4275696c64657220416d6f756e74206578636565647320736861726573000000600082015250565b6000613ddb601d83613375565b9150613de682613da5565b602082019050919050565b60006020820190508181036000830152613e0a81613dce565b9050919050565b60008190508160005260206000209050919050565b60006020601f8301049050919050565b600082821b905092915050565b600060088302613e737fffffffffffffffffffffffffffffffffffffffffffffffffffffffffffffffff82613e36565b613e7d8683613e36565b95508019841693508086168417925050509392505050565b6000613eb0613eab613ea68461313f565b6135cf565b61313f565b9050919050565b6000819050919050565b613eca83613e95565b613ede613ed682613eb7565b848454613e43565b825550505050565b600090565b613ef3613ee6565b613efe818484613ec1565b505050565b5b81811015613f2257613f17600082613eeb565b600181019050613f04565b5050565b601f821115613f6757613f3881613e11565b613f4184613e26565b81016020851015613f50578190505b613f64613f5c85613e26565b830182613f03565b50505b505050565b600082821c905092915050565b6000613f8a60001984600802613f6c565b1980831691505092915050565b6000613fa38383613f79565b9150826002028217905092915050565b613fbc8261336a565b67ffffffffffffffff811115613fd557613fd4613653565b5b613fdf8254613942565b613fea828285613f26565b600060209050601f83116001811461401d576000841561400b578287015190505b6140158582613f97565b86555061407d565b601f19841661402b86613e11565b60005b828110156140535784890151825560018201915060208501945060208101905061402e565b86831015614070578489015161406c601f891682613f79565b8355505b6001600288020188555050505b505050505050565b600060a082019050818103600083015261409f81886133c1565b90506140ae6020830187613324565b6140bb6040830186613149565b6140c86060830185613149565b6140d56080830184613149565b9695505050505050565b7f46696e616c697a61626c6543726f776473616c653a206e6f7420636c6f736564600082015250565b6000614115602083613375565b9150614120826140df565b602082019050919050565b6000602082019050818103600083015261414481614108565b9050919050565b7f4f776e61626c653a206e6577206f776e657220697320746865207a65726f206160008201527f6464726573730000000000000000000000000000000000000000000000000000602082015250565b60006141a7602683613375565b91506141b28261414b565b604082019050919050565b600060208201905081810360008301526141d68161419a565b9050919050565b60006141e88261313f565b91506141f38361313f565b92508282026142018161313f565b9150828204841483151761421857614217613ac7565b5b5092915050565b7f4e487b7100000000000000000000000000000000000000000000000000000000600052601260045260246000fd5b60006142598261313f565b91506142648361313f565b9250826142745761427361421f565b5b828204905092915050565b600061428a8261313f565b91506142958361313f565b92508282019050808211156142ad576142ac613ac7565b5b92915050565b7f4f776e61626c653a2063616c6c6572206973206e6f7420746865206f776e6572600082015250565b60006142e9602083613375565b91506142f4826142b3565b602082019050919050565b60006020820190508181036000830152614318816142dc565b9050919050565b7f5061757361626c653a206e6f7420706175736564000000000000000000000000600082015250565b6000614355601483613375565b91506143608261431f565b602082019050919050565b6000602082019050818103600083015261438481614348565b9050919050565b7f46696e616c697a61626c6543726f776473616c653a20616c726561647920666960008201527f6e616c697a656400000000000000000000000000000000000000000000000000602082015250565b60006143e7602783613375565b91506143f28261438b565b604082019050919050565b60006020820190508181036000830152614416816143da565b9050919050565b7f5061757361626c653a2070617573656400000000000000000000000000000000600082015250565b6000614453601083613375565b915061445e8261441d565b602082019050919050565b6000602082019050818103600083015261448281614446565b9050919050565b600081905092915050565b7f416363657373436f6e74726f6c3a206163636f756e7420000000000000000000600082015250565b60006144ca601783614489565b91506144d582614494565b601782019050919050565b60006144eb8261336a565b6144f58185614489565b9350614505818560208601613386565b80840191505092915050565b7f206973206d697373696e6720726f6c6520000000000000000000000000000000600082015250565b6000614547601183614489565b915061455282614511565b601182019050919050565b6000614568826144bd565b915061457482856144e0565b915061457f8261453a565b915061458b82846144e0565b91508190509392505050565b600060208201905081810360008301526145b181846133c1565b905092915050565b60006145c48261313f565b91506145cf8361313f565b92508282039050818111156145e7576145e6613ac7565b5b92915050565b60006060820190506146026000830186613324565b61460f6020830185613324565b61461c6040830184613149565b949350505050565b600061462f8261313f565b91506000820361464257614641613ac7565b5b600182039050919050565b7f537472696e67733a20686578206c656e67746820696e73756666696369656e74600082015250565b6000614683602083613375565b915061468e8261464d565b602082019050919050565b600060208201905081810360008301526146b281614676565b9050919050565b60006040820190506146ce6000830185613324565b6146db6020830184613149565b9392505050565b7f57686974656c69737443726f776473616c653a2062656e65666963696172792060008201527f646f65736e27742068617665207468652057686974656c697374656420726f6c60208201527f6500000000000000000000000000000000000000000000000000000000000000604082015250565b6000614764604183613375565b915061476f826146e2565b606082019050919050565b6000602082019050818103600083015261479381614757565b9050919050565b6147a381613109565b81146147ae57600080fd5b50565b6000815190506147c08161479a565b92915050565b6000602082840312156147dc576147db61307a565b5b60006147ea848285016147b1565b91505092915050565b7f5361666545524332303a204552433230206f7065726174696f6e20646964206e60008201527f6f74207375636365656400000000000000000000000000000000000000000000602082015250565b600061484f602a83613375565b915061485a826147f3565b604082019050919050565b6000602082019050818103600083015261487e81614842565b9050919050565b7f54696d656443726f776473616c653a206e6f74206f70656e0000000000000000600082015250565b60006148bb601883613375565b91506148c682614885565b602082019050919050565b600060208201905081810360008301526148ea816148ae565b9050919050565b7f43617070656443726f776473616c653a20636170206578636565646564000000600082015250565b6000614927601d83613375565b9150614932826148f1565b602082019050919050565b600060208201905081810360008301526149568161491a565b9050919050565b7f416464726573733a20696e73756666696369656e742062616c616e636520666f60008201527f722063616c6c0000000000000000000000000000000000000000000000000000602082015250565b60006149b9602683613375565b91506149c48261495d565b604082019050919050565b600060208201905081810360008301526149e8816149ac565b9050919050565b7f416464726573733a2063616c6c20746f206e6f6e2d636f6e7472616374000000600082015250565b6000614a25601d83613375565b9150614a30826149ef565b602082019050919050565b60006020820190508181036000830152614a5481614a18565b9050919050565b600081519050919050565b600081905092915050565b6000614a7c82614a5b565b614a868185614a66565b9350614a96818560208601613386565b80840191505092915050565b6000614aae8284614a71565b915081905092915050565b7f43726f776473616c653a2062656e656669636961727920697320746865207a6560008201527f726f206164647265737300000000000000000000000000000000000000000000602082015250565b6000614b15602a83613375565b9150614b2082614ab9565b604082019050919050565b60006020820190508181036000830152614b4481614b08565b9050919050565b7f43726f776473616c653a20776569416d6f756e74206973203000000000000000600082015250565b6000614b81601983613375565b9150614b8c82614b4b565b602082019050919050565b60006020820190508181036000830152614bb081614b74565b905091905056fea26469706673582212208089f8ab0de7f367966d82d25af61c897a60954dc193073e34a6d6fdd804d45c64736f6c63430008120033",
			"opcodes": "PUSH1 0x80 PUSH1 0x40 MSTORE CALLVALUE DUP1 ISZERO PUSH3 0x11 JUMPI PUSH1 0x0 DUP1 REVERT JUMPDEST POP PUSH1 0x40 MLOAD PUSH3 0x6110 CODESIZE SUB DUP1 PUSH3 0x6110 DUP4 CODECOPY DUP2 DUP2 ADD PUSH1 0x40 MSTORE DUP2 ADD SWAP1 PUSH3 0x37 SWAP2 SWAP1 PUSH3 0xB87 JUMP JUMPDEST DUP6 DUP6 DUP9 DUP13 DUP13 DUP13 PUSH1 0x1 PUSH1 0x0 DUP2 SWAP1 SSTORE POP PUSH1 0x0 DUP4 GT PUSH3 0x8B JUMPI PUSH1 0x40 MLOAD PUSH32 0x8C379A000000000000000000000000000000000000000000000000000000000 DUP2 MSTORE PUSH1 0x4 ADD PUSH3 0x82 SWAP1 PUSH3 0xCF5 JUMP JUMPDEST PUSH1 0x40 MLOAD DUP1 SWAP2 SUB SWAP1 REVERT JUMPDEST PUSH1 0x0 PUSH20 0xFFFFFFFFFFFFFFFFFFFFFFFFFFFFFFFFFFFFFFFF AND DUP3 PUSH20 0xFFFFFFFFFFFFFFFFFFFFFFFFFFFFFFFFFFFFFFFF AND SUB PUSH3 0xFD JUMPI PUSH1 0x40 MLOAD PUSH32 0x8C379A000000000000000000000000000000000000000000000000000000000 DUP2 MSTORE PUSH1 0x4 ADD PUSH3 0xF4 SWAP1 PUSH3 0xD8D JUMP JUMPDEST PUSH1 0x40 MLOAD DUP1 SWAP2 SUB SWAP1 REVERT JUMPDEST PUSH1 0x0 PUSH20 0xFFFFFFFFFFFFFFFFFFFFFFFFFFFFFFFFFFFFFFFF AND DUP2 PUSH20 0xFFFFFFFFFFFFFFFFFFFFFFFFFFFFFFFFFFFFFFFF AND SUB PUSH3 0x16F JUMPI PUSH1 0x40 MLOAD PUSH32 0x8C379A000000000000000000000000000000000000000000000000000000000 DUP2 MSTORE PUSH1 0x4 ADD PUSH3 0x166 SWAP1 PUSH3 0xE25 JUMP JUMPDEST PUSH1 0x40 MLOAD DUP1 SWAP2 SUB SWAP1 REVERT JUMPDEST DUP3 PUSH1 0x4 DUP2 SWAP1 SSTORE POP DUP2 PUSH1 0x3 PUSH1 0x0 PUSH2 0x100 EXP DUP2 SLOAD DUP2 PUSH20 0xFFFFFFFFFFFFFFFFFFFFFFFFFFFFFFFFFFFFFFFF MUL NOT AND SWAP1 DUP4 PUSH20 0xFFFFFFFFFFFFFFFFFFFFFFFFFFFFFFFFFFFFFFFF AND MUL OR SWAP1 SSTORE POP DUP1 PUSH1 0x2 PUSH1 0x0 PUSH2 0x100 EXP DUP2 SLOAD DUP2 PUSH20 0xFFFFFFFFFFFFFFFFFFFFFFFFFFFFFFFFFFFFFFFF MUL NOT AND SWAP1 DUP4 PUSH20 0xFFFFFFFFFFFFFFFFFFFFFFFFFFFFFFFFFFFFFFFF AND MUL OR SWAP1 SSTORE POP PUSH3 0x20D PUSH1 0x0 DUP1 SHL CALLER PUSH3 0x79E PUSH1 0x20 SHL PUSH1 0x20 SHR JUMP JUMPDEST POP POP POP PUSH1 0x0 PUSH1 0x6 PUSH1 0x0 PUSH2 0x100 EXP DUP2 SLOAD DUP2 PUSH1 0xFF MUL NOT AND SWAP1 DUP4 ISZERO ISZERO MUL OR SWAP1 SSTORE POP PUSH3 0x24B PUSH3 0x23F PUSH3 0x7B4 PUSH1 0x20 SHL PUSH1 0x20 SHR JUMP JUMPDEST PUSH3 0x7BC PUSH1 0x20 SHL PUSH1 0x20 SHR JUMP JUMPDEST PUSH1 0x0 DUP2 GT PUSH3 0x291 JUMPI PUSH1 0x40 MLOAD PUSH32 0x8C379A000000000000000000000000000000000000000000000000000000000 DUP2 MSTORE PUSH1 0x4 ADD PUSH3 0x288 SWAP1 PUSH3 0xE97 JUMP JUMPDEST PUSH1 0x40 MLOAD DUP1 SWAP2 SUB SWAP1 REVERT JUMPDEST DUP1 PUSH1 0x7 DUP2 SWAP1 SSTORE POP POP TIMESTAMP DUP3 LT ISZERO PUSH3 0x2DF JUMPI PUSH1 0x40 MLOAD PUSH32 0x8C379A000000000000000000000000000000000000000000000000000000000 DUP2 MSTORE PUSH1 0x4 ADD PUSH3 0x2D6 SWAP1 PUSH3 0xF2F JUMP JUMPDEST PUSH1 0x40 MLOAD DUP1 SWAP2 SUB SWAP1 REVERT JUMPDEST DUP2 DUP2 GT PUSH3 0x324 JUMPI PUSH1 0x40 MLOAD PUSH32 0x8C379A000000000000000000000000000000000000000000000000000000000 DUP2 MSTORE PUSH1 0x4 ADD PUSH3 0x31B SWAP1 PUSH3 0xFC7 JUMP JUMPDEST PUSH1 0x40 MLOAD DUP1 SWAP2 SUB SWAP1 REVERT JUMPDEST DUP2 PUSH1 0x8 DUP2 SWAP1 SSTORE POP DUP1 PUSH1 0x9 DUP2 SWAP1 SSTORE POP POP POP PUSH1 0x0 PUSH1 0xA PUSH1 0x0 PUSH2 0x100 EXP DUP2 SLOAD DUP2 PUSH1 0xFF MUL NOT AND SWAP1 DUP4 ISZERO ISZERO MUL OR SWAP1 SSTORE POP PUSH1 0x0 PUSH3 0x361 PUSH3 0x882 PUSH1 0x20 SHL PUSH1 0x20 SHR JUMP JUMPDEST SWAP1 POP PUSH1 0x0 PUSH20 0xFFFFFFFFFFFFFFFFFFFFFFFFFFFFFFFFFFFFFFFF AND DUP13 PUSH20 0xFFFFFFFFFFFFFFFFFFFFFFFFFFFFFFFFFFFFFFFF AND SUB PUSH3 0x3D5 JUMPI PUSH1 0x40 MLOAD PUSH32 0x8C379A000000000000000000000000000000000000000000000000000000000 DUP2 MSTORE PUSH1 0x4 ADD PUSH3 0x3CC SWAP1 PUSH3 0x1039 JUMP JUMPDEST PUSH1 0x40 MLOAD DUP1 SWAP2 SUB SWAP1 REVERT JUMPDEST PUSH1 0x0 DUP9 SUB PUSH3 0x41B JUMPI PUSH1 0x40 MLOAD PUSH32 0x8C379A000000000000000000000000000000000000000000000000000000000 DUP2 MSTORE PUSH1 0x4 ADD PUSH3 0x412 SWAP1 PUSH3 0x10AB JUMP JUMPDEST PUSH1 0x40 MLOAD DUP1 SWAP2 SUB SWAP1 REVERT JUMPDEST DUP1 DUP8 LT ISZERO PUSH3 0x461 JUMPI PUSH1 0x40 MLOAD PUSH32 0x8C379A000000000000000000000000000000000000000000000000000000000 DUP2 MSTORE PUSH1 0x4 ADD PUSH3 0x458 SWAP1 PUSH3 0x1143 JUMP JUMPDEST PUSH1 0x40 MLOAD DUP1 SWAP2 SUB SWAP1 REVERT JUMPDEST DUP7 DUP7 GT PUSH3 0x4A6 JUMPI PUSH1 0x40 MLOAD PUSH32 0x8C379A000000000000000000000000000000000000000000000000000000000 DUP2 MSTORE PUSH1 0x4 ADD PUSH3 0x49D SWAP1 PUSH3 0x11DB JUMP JUMPDEST PUSH1 0x40 MLOAD DUP1 SWAP2 SUB SWAP1 REVERT JUMPDEST PUSH3 0xF099C0 DUP6 LT ISZERO PUSH3 0x4EF JUMPI PUSH1 0x40 MLOAD PUSH32 0x8C379A000000000000000000000000000000000000000000000000000000000 DUP2 MSTORE PUSH1 0x4 ADD PUSH3 0x4E6 SWAP1 PUSH3 0x1273 JUMP JUMPDEST PUSH1 0x40 MLOAD DUP1 SWAP2 SUB SWAP1 REVERT JUMPDEST PUSH1 0x0 DUP5 GT PUSH3 0x535 JUMPI PUSH1 0x40 MLOAD PUSH32 0x8C379A000000000000000000000000000000000000000000000000000000000 DUP2 MSTORE PUSH1 0x4 ADD PUSH3 0x52C SWAP1 PUSH3 0x130B JUMP JUMPDEST PUSH1 0x40 MLOAD DUP1 SWAP2 SUB SWAP1 REVERT JUMPDEST DUP4 DUP4 GT PUSH3 0x57A JUMPI PUSH1 0x40 MLOAD PUSH32 0x8C379A000000000000000000000000000000000000000000000000000000000 DUP2 MSTORE PUSH1 0x4 ADD PUSH3 0x571 SWAP1 PUSH3 0x13A3 JUMP JUMPDEST PUSH1 0x40 MLOAD DUP1 SWAP2 SUB SWAP1 REVERT JUMPDEST DUP12 PUSH1 0xB PUSH1 0x0 PUSH2 0x100 EXP DUP2 SLOAD DUP2 PUSH20 0xFFFFFFFFFFFFFFFFFFFFFFFFFFFFFFFFFFFFFFFF MUL NOT AND SWAP1 DUP4 PUSH20 0xFFFFFFFFFFFFFFFFFFFFFFFFFFFFFFFFFFFFFFFF AND MUL OR SWAP1 SSTORE POP PUSH1 0x0 PUSH1 0xC DUP2 SWAP1 SSTORE POP DUP5 PUSH1 0xD DUP2 SWAP1 SSTORE POP DUP4 PUSH1 0xE DUP2 SWAP1 SSTORE POP DUP3 PUSH1 0xF DUP2 SWAP1 SSTORE POP DUP2 PUSH1 0xA PUSH1 0x1 PUSH2 0x100 EXP DUP2 SLOAD DUP2 PUSH20 0xFFFFFFFFFFFFFFFFFFFFFFFFFFFFFFFFFFFFFFFF MUL NOT AND SWAP1 DUP4 PUSH20 0xFFFFFFFFFFFFFFFFFFFFFFFFFFFFFFFFFFFFFFFF AND MUL OR SWAP1 SSTORE POP PUSH1 0x0 PUSH3 0x62B PUSH3 0x88A PUSH1 0x20 SHL PUSH1 0x20 SHR JUMP JUMPDEST SWAP1 POP PUSH1 0x0 DUP2 PUSH20 0xFFFFFFFFFFFFFFFFFFFFFFFFFFFFFFFFFFFFFFFF AND PUSH4 0x18160DDD PUSH1 0x40 MLOAD DUP2 PUSH4 0xFFFFFFFF AND PUSH1 0xE0 SHL DUP2 MSTORE PUSH1 0x4 ADD PUSH1 0x20 PUSH1 0x40 MLOAD DUP1 DUP4 SUB DUP2 DUP7 GAS STATICCALL ISZERO DUP1 ISZERO PUSH3 0x67B JUMPI RETURNDATASIZE PUSH1 0x0 DUP1 RETURNDATACOPY RETURNDATASIZE PUSH1 0x0 REVERT JUMPDEST POP POP POP POP PUSH1 0x40 MLOAD RETURNDATASIZE PUSH1 0x1F NOT PUSH1 0x1F DUP3 ADD AND DUP3 ADD DUP1 PUSH1 0x40 MSTORE POP DUP2 ADD SWAP1 PUSH3 0x6A1 SWAP2 SWAP1 PUSH3 0x13C5 JUMP JUMPDEST SWAP1 POP PUSH1 0x0 PUSH3 0x6DA PUSH1 0x64 PUSH3 0x6C6 PUSH1 0xA DUP6 PUSH3 0x8B4 PUSH1 0x20 SHL PUSH3 0x1C28 OR SWAP1 SWAP2 SWAP1 PUSH1 0x20 SHR JUMP JUMPDEST PUSH3 0x8CC PUSH1 0x20 SHL PUSH3 0x1C3E OR SWAP1 SWAP2 SWAP1 PUSH1 0x20 SHR JUMP JUMPDEST SWAP1 POP PUSH1 0x0 PUSH3 0x713 PUSH1 0x64 PUSH3 0x6FF PUSH1 0x14 DUP7 PUSH3 0x8B4 PUSH1 0x20 SHL PUSH3 0x1C28 OR SWAP1 SWAP2 SWAP1 PUSH1 0x20 SHR JUMP JUMPDEST PUSH3 0x8CC PUSH1 0x20 SHL PUSH3 0x1C3E OR SWAP1 SWAP2 SWAP1 PUSH1 0x20 SHR JUMP JUMPDEST SWAP1 POP PUSH1 0x0 PUSH3 0x74C PUSH1 0x64 PUSH3 0x738 PUSH1 0x5 DUP8 PUSH3 0x8B4 PUSH1 0x20 SHL PUSH3 0x1C28 OR SWAP1 SWAP2 SWAP1 PUSH1 0x20 SHR JUMP JUMPDEST PUSH3 0x8CC PUSH1 0x20 SHL PUSH3 0x1C3E OR SWAP1 SWAP2 SWAP1 PUSH1 0x20 SHR JUMP JUMPDEST SWAP1 POP PUSH3 0x781 DUP3 PUSH3 0x76D DUP4 DUP7 PUSH3 0x8E4 PUSH1 0x20 SHL PUSH3 0x1C54 OR SWAP1 SWAP2 SWAP1 PUSH1 0x20 SHR JUMP JUMPDEST PUSH3 0x8E4 PUSH1 0x20 SHL PUSH3 0x1C54 OR SWAP1 SWAP2 SWAP1 PUSH1 0x20 SHR JUMP JUMPDEST PUSH1 0x10 DUP2 SWAP1 SSTORE POP POP POP POP POP POP POP POP POP POP POP POP POP POP POP POP POP POP PUSH3 0x1513 JUMP JUMPDEST PUSH3 0x7B0 DUP3 DUP3 PUSH3 0x8FC PUSH1 0x20 SHL PUSH1 0x20 SHR JUMP JUMPDEST POP POP JUMP JUMPDEST PUSH1 0x0 CALLER SWAP1 POP SWAP1 JUMP JUMPDEST PUSH1 0x0 PUSH1 0x6 PUSH1 0x1 SWAP1 SLOAD SWAP1 PUSH2 0x100 EXP SWAP1 DIV PUSH20 0xFFFFFFFFFFFFFFFFFFFFFFFFFFFFFFFFFFFFFFFF AND SWAP1 POP DUP2 PUSH1 0x6 PUSH1 0x1 PUSH2 0x100 EXP DUP2 SLOAD DUP2 PUSH20 0xFFFFFFFFFFFFFFFFFFFFFFFFFFFFFFFFFFFFFFFF MUL NOT AND SWAP1 DUP4 PUSH20 0xFFFFFFFFFFFFFFFFFFFFFFFFFFFFFFFFFFFFFFFF AND MUL OR SWAP1 SSTORE POP DUP2 PUSH20 0xFFFFFFFFFFFFFFFFFFFFFFFFFFFFFFFFFFFFFFFF AND DUP2 PUSH20 0xFFFFFFFFFFFFFFFFFFFFFFFFFFFFFFFFFFFFFFFF AND PUSH32 0x8BE0079C531659141344CD1FD0A4F28419497F9722A3DAAFE3B4186F6B6457E0 PUSH1 0x40 MLOAD PUSH1 0x40 MLOAD DUP1 SWAP2 SUB SWAP1 LOG3 POP POP JUMP JUMPDEST PUSH1 0x0 TIMESTAMP SWAP1 POP SWAP1 JUMP JUMPDEST PUSH1 0x0 PUSH1 0x2 PUSH1 0x0 SWAP1 SLOAD SWAP1 PUSH2 0x100 EXP SWAP1 DIV PUSH20 0xFFFFFFFFFFFFFFFFFFFFFFFFFFFFFFFFFFFFFFFF AND SWAP1 POP SWAP1 JUMP JUMPDEST PUSH1 0x0 DUP2 DUP4 PUSH3 0x8C4 SWAP2 SWAP1 PUSH3 0x1426 JUMP JUMPDEST SWAP1 POP SWAP3 SWAP2 POP POP JUMP JUMPDEST PUSH1 0x0 DUP2 DUP4 PUSH3 0x8DC SWAP2 SWAP1 PUSH3 0x14A0 JUMP JUMPDEST SWAP1 POP SWAP3 SWAP2 POP POP JUMP JUMPDEST PUSH1 0x0 DUP2 DUP4 PUSH3 0x8F4 SWAP2 SWAP1 PUSH3 0x14D8 JUMP JUMPDEST SWAP1 POP SWAP3 SWAP2 POP POP JUMP JUMPDEST PUSH3 0x90E DUP3 DUP3 PUSH3 0x9ED PUSH1 0x20 SHL PUSH1 0x20 SHR JUMP JUMPDEST PUSH3 0x9E9 JUMPI PUSH1 0x1 DUP1 PUSH1 0x0 DUP5 DUP2 MSTORE PUSH1 0x20 ADD SWAP1 DUP2 MSTORE PUSH1 0x20 ADD PUSH1 0x0 KECCAK256 PUSH1 0x0 ADD PUSH1 0x0 DUP4 PUSH20 0xFFFFFFFFFFFFFFFFFFFFFFFFFFFFFFFFFFFFFFFF AND PUSH20 0xFFFFFFFFFFFFFFFFFFFFFFFFFFFFFFFFFFFFFFFF AND DUP2 MSTORE PUSH1 0x20 ADD SWAP1 DUP2 MSTORE PUSH1 0x20 ADD PUSH1 0x0 KECCAK256 PUSH1 0x0 PUSH2 0x100 EXP DUP2 SLOAD DUP2 PUSH1 0xFF MUL NOT AND SWAP1 DUP4 ISZERO ISZERO MUL OR SWAP1 SSTORE POP PUSH3 0x98E PUSH3 0x7B4 PUSH1 0x20 SHL PUSH1 0x20 SHR JUMP JUMPDEST PUSH20 0xFFFFFFFFFFFFFFFFFFFFFFFFFFFFFFFFFFFFFFFF AND DUP2 PUSH20 0xFFFFFFFFFFFFFFFFFFFFFFFFFFFFFFFFFFFFFFFF AND DUP4 PUSH32 0x2F8788117E7EFF1D82E926EC794901D17C78024A50270940304540A733656F0D PUSH1 0x40 MLOAD PUSH1 0x40 MLOAD DUP1 SWAP2 SUB SWAP1 LOG4 JUMPDEST POP POP JUMP JUMPDEST PUSH1 0x0 PUSH1 0x1 PUSH1 0x0 DUP5 DUP2 MSTORE PUSH1 0x20 ADD SWAP1 DUP2 MSTORE PUSH1 0x20 ADD PUSH1 0x0 KECCAK256 PUSH1 0x0 ADD PUSH1 0x0 DUP4 PUSH20 0xFFFFFFFFFFFFFFFFFFFFFFFFFFFFFFFFFFFFFFFF AND PUSH20 0xFFFFFFFFFFFFFFFFFFFFFFFFFFFFFFFFFFFFFFFF AND DUP2 MSTORE PUSH1 0x20 ADD SWAP1 DUP2 MSTORE PUSH1 0x20 ADD PUSH1 0x0 KECCAK256 PUSH1 0x0 SWAP1 SLOAD SWAP1 PUSH2 0x100 EXP SWAP1 DIV PUSH1 0xFF AND SWAP1 POP SWAP3 SWAP2 POP POP JUMP JUMPDEST PUSH1 0x0 DUP1 REVERT JUMPDEST PUSH1 0x0 PUSH20 0xFFFFFFFFFFFFFFFFFFFFFFFFFFFFFFFFFFFFFFFF DUP3 AND SWAP1 POP SWAP2 SWAP1 POP JUMP JUMPDEST PUSH1 0x0 PUSH3 0xA8A DUP3 PUSH3 0xA5D JUMP JUMPDEST SWAP1 POP SWAP2 SWAP1 POP JUMP JUMPDEST PUSH1 0x0 PUSH3 0xA9E DUP3 PUSH3 0xA7D JUMP JUMPDEST SWAP1 POP SWAP2 SWAP1 POP JUMP JUMPDEST PUSH3 0xAB0 DUP2 PUSH3 0xA91 JUMP JUMPDEST DUP2 EQ PUSH3 0xABC JUMPI PUSH1 0x0 DUP1 REVERT JUMPDEST POP JUMP JUMPDEST PUSH1 0x0 DUP2 MLOAD SWAP1 POP PUSH3 0xAD0 DUP2 PUSH3 0xAA5 JUMP JUMPDEST SWAP3 SWAP2 POP POP JUMP JUMPDEST PUSH1 0x0 DUP2 SWAP1 POP SWAP2 SWAP1 POP JUMP JUMPDEST PUSH3 0xAEB DUP2 PUSH3 0xAD6 JUMP JUMPDEST DUP2 EQ PUSH3 0xAF7 JUMPI PUSH1 0x0 DUP1 REVERT JUMPDEST POP JUMP JUMPDEST PUSH1 0x0 DUP2 MLOAD SWAP1 POP PUSH3 0xB0B DUP2 PUSH3 0xAE0 JUMP JUMPDEST SWAP3 SWAP2 POP POP JUMP JUMPDEST PUSH1 0x0 PUSH3 0xB1E DUP3 PUSH3 0xA5D JUMP JUMPDEST SWAP1 POP SWAP2 SWAP1 POP JUMP JUMPDEST PUSH3 0xB30 DUP2 PUSH3 0xB11 JUMP JUMPDEST DUP2 EQ PUSH3 0xB3C JUMPI PUSH1 0x0 DUP1 REVERT JUMPDEST POP JUMP JUMPDEST PUSH1 0x0 DUP2 MLOAD SWAP1 POP PUSH3 0xB50 DUP2 PUSH3 0xB25 JUMP JUMPDEST SWAP3 SWAP2 POP POP JUMP JUMPDEST PUSH3 0xB61 DUP2 PUSH3 0xA7D JUMP JUMPDEST DUP2 EQ PUSH3 0xB6D JUMPI PUSH1 0x0 DUP1 REVERT JUMPDEST POP JUMP JUMPDEST PUSH1 0x0 DUP2 MLOAD SWAP1 POP PUSH3 0xB81 DUP2 PUSH3 0xB56 JUMP JUMPDEST SWAP3 SWAP2 POP POP JUMP JUMPDEST PUSH1 0x0 DUP1 PUSH1 0x0 DUP1 PUSH1 0x0 DUP1 PUSH1 0x0 DUP1 PUSH1 0x0 DUP1 PUSH1 0x0 PUSH2 0x160 DUP13 DUP15 SUB SLT ISZERO PUSH3 0xBB0 JUMPI PUSH3 0xBAF PUSH3 0xA58 JUMP JUMPDEST JUMPDEST PUSH1 0x0 PUSH3 0xBC0 DUP15 DUP3 DUP16 ADD PUSH3 0xABF JUMP JUMPDEST SWAP12 POP POP PUSH1 0x20 PUSH3 0xBD3 DUP15 DUP3 DUP16 ADD PUSH3 0xAFA JUMP JUMPDEST SWAP11 POP POP PUSH1 0x40 PUSH3 0xBE6 DUP15 DUP3 DUP16 ADD PUSH3 0xB3F JUMP JUMPDEST SWAP10 POP POP PUSH1 0x60 PUSH3 0xBF9 DUP15 DUP3 DUP16 ADD PUSH3 0xABF JUMP JUMPDEST SWAP9 POP POP PUSH1 0x80 PUSH3 0xC0C DUP15 DUP3 DUP16 ADD PUSH3 0xAFA JUMP JUMPDEST SWAP8 POP POP PUSH1 0xA0 PUSH3 0xC1F DUP15 DUP3 DUP16 ADD PUSH3 0xAFA JUMP JUMPDEST SWAP7 POP POP PUSH1 0xC0 PUSH3 0xC32 DUP15 DUP3 DUP16 ADD PUSH3 0xAFA JUMP JUMPDEST SWAP6 POP POP PUSH1 0xE0 PUSH3 0xC45 DUP15 DUP3 DUP16 ADD PUSH3 0xAFA JUMP JUMPDEST SWAP5 POP POP PUSH2 0x100 PUSH3 0xC59 DUP15 DUP3 DUP16 ADD PUSH3 0xAFA JUMP JUMPDEST SWAP4 POP POP PUSH2 0x120 PUSH3 0xC6D DUP15 DUP3 DUP16 ADD PUSH3 0xAFA JUMP JUMPDEST SWAP3 POP POP PUSH2 0x140 PUSH3 0xC81 DUP15 DUP3 DUP16 ADD PUSH3 0xB70 JUMP JUMPDEST SWAP2 POP POP SWAP3 SWAP6 SWAP9 SWAP12 POP SWAP3 SWAP6 SWAP9 SWAP12 SWAP1 SWAP4 SWAP7 SWAP10 POP JUMP JUMPDEST PUSH1 0x0 DUP3 DUP3 MSTORE PUSH1 0x20 DUP3 ADD SWAP1 POP SWAP3 SWAP2 POP POP JUMP JUMPDEST PUSH32 0x43726F776473616C653A20726174652069732030000000000000000000000000 PUSH1 0x0 DUP3 ADD MSTORE POP JUMP JUMPDEST PUSH1 0x0 PUSH3 0xCDD PUSH1 0x14 DUP4 PUSH3 0xC94 JUMP JUMPDEST SWAP2 POP PUSH3 0xCEA DUP3 PUSH3 0xCA5 JUMP JUMPDEST PUSH1 0x20 DUP3 ADD SWAP1 POP SWAP2 SWAP1 POP JUMP JUMPDEST PUSH1 0x0 PUSH1 0x20 DUP3 ADD SWAP1 POP DUP2 DUP2 SUB PUSH1 0x0 DUP4 ADD MSTORE PUSH3 0xD10 DUP2 PUSH3 0xCCE JUMP JUMPDEST SWAP1 POP SWAP2 SWAP1 POP JUMP JUMPDEST PUSH32 0x43726F776473616C653A2077616C6C657420697320746865207A65726F206164 PUSH1 0x0 DUP3 ADD MSTORE PUSH32 0x6472657373000000000000000000000000000000000000000000000000000000 PUSH1 0x20 DUP3 ADD MSTORE POP JUMP JUMPDEST PUSH1 0x0 PUSH3 0xD75 PUSH1 0x25 DUP4 PUSH3 0xC94 JUMP JUMPDEST SWAP2 POP PUSH3 0xD82 DUP3 PUSH3 0xD17 JUMP JUMPDEST PUSH1 0x40 DUP3 ADD SWAP1 POP SWAP2 SWAP1 POP JUMP JUMPDEST PUSH1 0x0 PUSH1 0x20 DUP3 ADD SWAP1 POP DUP2 DUP2 SUB PUSH1 0x0 DUP4 ADD MSTORE PUSH3 0xDA8 DUP2 PUSH3 0xD66 JUMP JUMPDEST SWAP1 POP SWAP2 SWAP1 POP JUMP JUMPDEST PUSH32 0x43726F776473616C653A20746F6B656E20697320746865207A65726F20616464 PUSH1 0x0 DUP3 ADD MSTORE PUSH32 0x7265737300000000000000000000000000000000000000000000000000000000 PUSH1 0x20 DUP3 ADD MSTORE POP JUMP JUMPDEST PUSH1 0x0 PUSH3 0xE0D PUSH1 0x24 DUP4 PUSH3 0xC94 JUMP JUMPDEST SWAP2 POP PUSH3 0xE1A DUP3 PUSH3 0xDAF JUMP JUMPDEST PUSH1 0x40 DUP3 ADD SWAP1 POP SWAP2 SWAP1 POP JUMP JUMPDEST PUSH1 0x0 PUSH1 0x20 DUP3 ADD SWAP1 POP DUP2 DUP2 SUB PUSH1 0x0 DUP4 ADD MSTORE PUSH3 0xE40 DUP2 PUSH3 0xDFE JUMP JUMPDEST SWAP1 POP SWAP2 SWAP1 POP JUMP JUMPDEST PUSH32 0x43617070656443726F776473616C653A20636170206973203000000000000000 PUSH1 0x0 DUP3 ADD MSTORE POP JUMP JUMPDEST PUSH1 0x0 PUSH3 0xE7F PUSH1 0x19 DUP4 PUSH3 0xC94 JUMP JUMPDEST SWAP2 POP PUSH3 0xE8C DUP3 PUSH3 0xE47 JUMP JUMPDEST PUSH1 0x20 DUP3 ADD SWAP1 POP SWAP2 SWAP1 POP JUMP JUMPDEST PUSH1 0x0 PUSH1 0x20 DUP3 ADD SWAP1 POP DUP2 DUP2 SUB PUSH1 0x0 DUP4 ADD MSTORE PUSH3 0xEB2 DUP2 PUSH3 0xE70 JUMP JUMPDEST SWAP1 POP SWAP2 SWAP1 POP JUMP JUMPDEST PUSH32 0x54696D656443726F776473616C653A206F70656E696E672074696D6520697320 PUSH1 0x0 DUP3 ADD MSTORE PUSH32 0x6265666F72652063757272656E742074696D6500000000000000000000000000 PUSH1 0x20 DUP3 ADD MSTORE POP JUMP JUMPDEST PUSH1 0x0 PUSH3 0xF17 PUSH1 0x33 DUP4 PUSH3 0xC94 JUMP JUMPDEST SWAP2 POP PUSH3 0xF24 DUP3 PUSH3 0xEB9 JUMP JUMPDEST PUSH1 0x40 DUP3 ADD SWAP1 POP SWAP2 SWAP1 POP JUMP JUMPDEST PUSH1 0x0 PUSH1 0x20 DUP3 ADD SWAP1 POP DUP2 DUP2 SUB PUSH1 0x0 DUP4 ADD MSTORE PUSH3 0xF4A DUP2 PUSH3 0xF08 JUMP JUMPDEST SWAP1 POP SWAP2 SWAP1 POP JUMP JUMPDEST PUSH32 0x54696D656443726F776473616C653A206F70656E696E672074696D6520697320 PUSH1 0x0 DUP3 ADD MSTORE PUSH32 0x6E6F74206265666F726520636C6F73696E672074696D65000000000000000000 PUSH1 0x20 DUP3 ADD MSTORE POP JUMP JUMPDEST PUSH1 0x0 PUSH3 0xFAF PUSH1 0x37 DUP4 PUSH3 0xC94 JUMP JUMPDEST SWAP2 POP PUSH3 0xFBC DUP3 PUSH3 0xF51 JUMP JUMPDEST PUSH1 0x40 DUP3 ADD SWAP1 POP SWAP2 SWAP1 POP JUMP JUMPDEST PUSH1 0x0 PUSH1 0x20 DUP3 ADD SWAP1 POP DUP2 DUP2 SUB PUSH1 0x0 DUP4 ADD MSTORE PUSH3 0xFE2 DUP2 PUSH3 0xFA0 JUMP JUMPDEST SWAP1 POP SWAP2 SWAP1 POP JUMP JUMPDEST PUSH32 0x56616C6964204255534420726571756972656400000000000000000000000000 PUSH1 0x0 DUP3 ADD MSTORE POP JUMP JUMPDEST PUSH1 0x0 PUSH3 0x1021 PUSH1 0x13 DUP4 PUSH3 0xC94 JUMP JUMPDEST SWAP2 POP PUSH3 0x102E DUP3 PUSH3 0xFE9 JUMP JUMPDEST PUSH1 0x20 DUP3 ADD SWAP1 POP SWAP2 SWAP1 POP JUMP JUMPDEST PUSH1 0x0 PUSH1 0x20 DUP3 ADD SWAP1 POP DUP2 DUP2 SUB PUSH1 0x0 DUP4 ADD MSTORE PUSH3 0x1054 DUP2 PUSH3 0x1012 JUMP JUMPDEST SWAP1 POP SWAP2 SWAP1 POP JUMP JUMPDEST PUSH32 0x436170206D7573742062652067726561746572207468616E205A65726F000000 PUSH1 0x0 DUP3 ADD MSTORE POP JUMP JUMPDEST PUSH1 0x0 PUSH3 0x1093 PUSH1 0x1D DUP4 PUSH3 0xC94 JUMP JUMPDEST SWAP2 POP PUSH3 0x10A0 DUP3 PUSH3 0x105B JUMP JUMPDEST PUSH1 0x20 DUP3 ADD SWAP1 POP SWAP2 SWAP1 POP JUMP JUMPDEST PUSH1 0x0 PUSH1 0x20 DUP3 ADD SWAP1 POP DUP2 DUP2 SUB PUSH1 0x0 DUP4 ADD MSTORE PUSH3 0x10C6 DUP2 PUSH3 0x1084 JUMP JUMPDEST SWAP1 POP SWAP2 SWAP1 POP JUMP JUMPDEST PUSH32 0x6F70656E696E672074696D65206973206265666F72652063757272656E742074 PUSH1 0x0 DUP3 ADD MSTORE PUSH32 0x696D650000000000000000000000000000000000000000000000000000000000 PUSH1 0x20 DUP3 ADD MSTORE POP JUMP JUMPDEST PUSH1 0x0 PUSH3 0x112B PUSH1 0x23 DUP4 PUSH3 0xC94 JUMP JUMPDEST SWAP2 POP PUSH3 0x1138 DUP3 PUSH3 0x10CD JUMP JUMPDEST PUSH1 0x40 DUP3 ADD SWAP1 POP SWAP2 SWAP1 POP JUMP JUMPDEST PUSH1 0x0 PUSH1 0x20 DUP3 ADD SWAP1 POP DUP2 DUP2 SUB PUSH1 0x0 DUP4 ADD MSTORE PUSH3 0x115E DUP2 PUSH3 0x111C JUMP JUMPDEST SWAP1 POP SWAP2 SWAP1 POP JUMP JUMPDEST PUSH32 0x6F70656E696E672074696D65206973206E6F74206265666F726520636C6F7369 PUSH1 0x0 DUP3 ADD MSTORE PUSH32 0x6E672074696D6500000000000000000000000000000000000000000000000000 PUSH1 0x20 DUP3 ADD MSTORE POP JUMP JUMPDEST PUSH1 0x0 PUSH3 0x11C3 PUSH1 0x27 DUP4 PUSH3 0xC94 JUMP JUMPDEST SWAP2 POP PUSH3 0x11D0 DUP3 PUSH3 0x1165 JUMP JUMPDEST PUSH1 0x40 DUP3 ADD SWAP1 POP SWAP2 SWAP1 POP JUMP JUMPDEST PUSH1 0x0 PUSH1 0x20 DUP3 ADD SWAP1 POP DUP2 DUP2 SUB PUSH1 0x0 DUP4 ADD MSTORE PUSH3 0x11F6 DUP2 PUSH3 0x11B4 JUMP JUMPDEST SWAP1 POP SWAP2 SWAP1 POP JUMP JUMPDEST PUSH32 0x4475726174696F6E206D7573742062652067726561746572207468616E20366D PUSH1 0x0 DUP3 ADD MSTORE PUSH32 0x6F6E746873000000000000000000000000000000000000000000000000000000 PUSH1 0x20 DUP3 ADD MSTORE POP JUMP JUMPDEST PUSH1 0x0 PUSH3 0x125B PUSH1 0x25 DUP4 PUSH3 0xC94 JUMP JUMPDEST SWAP2 POP PUSH3 0x1268 DUP3 PUSH3 0x11FD JUMP JUMPDEST PUSH1 0x40 DUP3 ADD SWAP1 POP SWAP2 SWAP1 POP JUMP JUMPDEST PUSH1 0x0 PUSH1 0x20 DUP3 ADD SWAP1 POP DUP2 DUP2 SUB PUSH1 0x0 DUP4 ADD MSTORE PUSH3 0x128E DUP2 PUSH3 0x124C JUMP JUMPDEST SWAP1 POP SWAP2 SWAP1 POP JUMP JUMPDEST PUSH32 0x4D696E696D756D2053616C6573206D7573742062652067726561746572207468 PUSH1 0x0 DUP3 ADD MSTORE PUSH32 0x616E205A65726F00000000000000000000000000000000000000000000000000 PUSH1 0x20 DUP3 ADD MSTORE POP JUMP JUMPDEST PUSH1 0x0 PUSH3 0x12F3 PUSH1 0x27 DUP4 PUSH3 0xC94 JUMP JUMPDEST SWAP2 POP PUSH3 0x1300 DUP3 PUSH3 0x1295 JUMP JUMPDEST PUSH1 0x40 DUP3 ADD SWAP1 POP SWAP2 SWAP1 POP JUMP JUMPDEST PUSH1 0x0 PUSH1 0x20 DUP3 ADD SWAP1 POP DUP2 DUP2 SUB PUSH1 0x0 DUP4 ADD MSTORE PUSH3 0x1326 DUP2 PUSH3 0x12E4 JUMP JUMPDEST SWAP1 POP SWAP2 SWAP1 POP JUMP JUMPDEST PUSH32 0x4D6178696D756D2053616C6573206D7573742062652067726561746572207468 PUSH1 0x0 DUP3 ADD MSTORE PUSH32 0x616E204D696E696D756D2053616C657300000000000000000000000000000000 PUSH1 0x20 DUP3 ADD MSTORE POP JUMP JUMPDEST PUSH1 0x0 PUSH3 0x138B PUSH1 0x30 DUP4 PUSH3 0xC94 JUMP JUMPDEST SWAP2 POP PUSH3 0x1398 DUP3 PUSH3 0x132D JUMP JUMPDEST PUSH1 0x40 DUP3 ADD SWAP1 POP SWAP2 SWAP1 POP JUMP JUMPDEST PUSH1 0x0 PUSH1 0x20 DUP3 ADD SWAP1 POP DUP2 DUP2 SUB PUSH1 0x0 DUP4 ADD MSTORE PUSH3 0x13BE DUP2 PUSH3 0x137C JUMP JUMPDEST SWAP1 POP SWAP2 SWAP1 POP JUMP JUMPDEST PUSH1 0x0 PUSH1 0x20 DUP3 DUP5 SUB SLT ISZERO PUSH3 0x13DE JUMPI PUSH3 0x13DD PUSH3 0xA58 JUMP JUMPDEST JUMPDEST PUSH1 0x0 PUSH3 0x13EE DUP5 DUP3 DUP6 ADD PUSH3 0xAFA JUMP JUMPDEST SWAP2 POP POP SWAP3 SWAP2 POP POP JUMP JUMPDEST PUSH32 0x4E487B7100000000000000000000000000000000000000000000000000000000 PUSH1 0x0 MSTORE PUSH1 0x11 PUSH1 0x4 MSTORE PUSH1 0x24 PUSH1 0x0 REVERT JUMPDEST PUSH1 0x0 PUSH3 0x1433 DUP3 PUSH3 0xAD6 JUMP JUMPDEST SWAP2 POP PUSH3 0x1440 DUP4 PUSH3 0xAD6 JUMP JUMPDEST SWAP3 POP DUP3 DUP3 MUL PUSH3 0x1450 DUP2 PUSH3 0xAD6 JUMP JUMPDEST SWAP2 POP DUP3 DUP3 DIV DUP5 EQ DUP4 ISZERO OR PUSH3 0x146A JUMPI PUSH3 0x1469 PUSH3 0x13F7 JUMP JUMPDEST JUMPDEST POP SWAP3 SWAP2 POP POP JUMP JUMPDEST PUSH32 0x4E487B7100000000000000000000000000000000000000000000000000000000 PUSH1 0x0 MSTORE PUSH1 0x12 PUSH1 0x4 MSTORE PUSH1 0x24 PUSH1 0x0 REVERT JUMPDEST PUSH1 0x0 PUSH3 0x14AD DUP3 PUSH3 0xAD6 JUMP JUMPDEST SWAP2 POP PUSH3 0x14BA DUP4 PUSH3 0xAD6 JUMP JUMPDEST SWAP3 POP DUP3 PUSH3 0x14CD JUMPI PUSH3 0x14CC PUSH3 0x1471 JUMP JUMPDEST JUMPDEST DUP3 DUP3 DIV SWAP1 POP SWAP3 SWAP2 POP POP JUMP JUMPDEST PUSH1 0x0 PUSH3 0x14E5 DUP3 PUSH3 0xAD6 JUMP JUMPDEST SWAP2 POP PUSH3 0x14F2 DUP4 PUSH3 0xAD6 JUMP JUMPDEST SWAP3 POP DUP3 DUP3 ADD SWAP1 POP DUP1 DUP3 GT ISZERO PUSH3 0x150D JUMPI PUSH3 0x150C PUSH3 0x13F7 JUMP JUMPDEST JUMPDEST SWAP3 SWAP2 POP POP JUMP JUMPDEST PUSH2 0x4BED DUP1 PUSH3 0x1523 PUSH1 0x0 CODECOPY PUSH1 0x0 RETURN INVALID PUSH1 0x80 PUSH1 0x40 MSTORE PUSH1 0x4 CALLDATASIZE LT PUSH2 0x28C JUMPI PUSH1 0x0 CALLDATALOAD PUSH1 0xE0 SHR DUP1 PUSH4 0x715018A6 GT PUSH2 0x15A JUMPI DUP1 PUSH4 0xB5AF1B2F GT PUSH2 0xC1 JUMPI DUP1 PUSH4 0xE994E475 GT PUSH2 0x7A JUMPI DUP1 PUSH4 0xE994E475 EQ PUSH2 0x98A JUMPI DUP1 PUSH4 0xEC8AC4D8 EQ PUSH2 0x9A1 JUMPI DUP1 PUSH4 0xF0E5A18C EQ PUSH2 0x9BD JUMPI DUP1 PUSH4 0xF2D58790 EQ PUSH2 0x9E8 JUMPI DUP1 PUSH4 0xF2FDE38B EQ PUSH2 0xA13 JUMPI DUP1 PUSH4 0xFC0C546A EQ PUSH2 0xA3C JUMPI PUSH2 0x2A3 JUMP JUMPDEST DUP1 PUSH4 0xB5AF1B2F EQ PUSH2 0x88C JUMPI DUP1 PUSH4 0xB7A8807C EQ PUSH2 0x8B7 JUMPI DUP1 PUSH4 0xC10D6F57 EQ PUSH2 0x8E2 JUMPI DUP1 PUSH4 0xC77C7387 EQ PUSH2 0x90B JUMPI DUP1 PUSH4 0xD547741F EQ PUSH2 0x936 JUMPI DUP1 PUSH4 0xE5A2BE8E EQ PUSH2 0x95F JUMPI PUSH2 0x2A3 JUMP JUMPDEST DUP1 PUSH4 0x8DA5CB5B GT PUSH2 0x113 JUMPI DUP1 PUSH4 0x8DA5CB5B EQ PUSH2 0x787 JUMPI DUP1 PUSH4 0x91D14854 EQ PUSH2 0x7B2 JUMPI DUP1 PUSH4 0x93FC645A EQ PUSH2 0x7EF JUMPI DUP1 PUSH4 0x95E7A6A3 EQ PUSH2 0x81A JUMPI DUP1 PUSH4 0xA217FDDF EQ PUSH2 0x836 JUMPI DUP1 PUSH4 0xB3F05B97 EQ PUSH2 0x861 JUMPI PUSH2 0x2A3 JUMP JUMPDEST DUP1 PUSH4 0x715018A6 EQ PUSH2 0x6B1 JUMPI DUP1 PUSH4 0x74991569 EQ PUSH2 0x6C8 JUMPI DUP1 PUSH4 0x762E9376 EQ PUSH2 0x6F1 JUMPI DUP1 PUSH4 0x804B60A3 EQ PUSH2 0x71C JUMPI DUP1 PUSH4 0x8456BD2E EQ PUSH2 0x747 JUMPI DUP1 PUSH4 0x8456CB59 EQ PUSH2 0x770 JUMPI PUSH2 0x2A3 JUMP JUMPDEST DUP1 PUSH4 0x3F4BA83A GT PUSH2 0x1FE JUMPI DUP1 PUSH4 0x4B6753BC GT PUSH2 0x1B7 JUMPI DUP1 PUSH4 0x4B6753BC EQ PUSH2 0x5D7 JUMPI DUP1 PUSH4 0x4BB278F3 EQ PUSH2 0x602 JUMPI DUP1 PUSH4 0x4F935945 EQ PUSH2 0x619 JUMPI DUP1 PUSH4 0x521EB273 EQ PUSH2 0x644 JUMPI DUP1 PUSH4 0x5C975ABB EQ PUSH2 0x66F JUMPI DUP1 PUSH4 0x69A75125 EQ PUSH2 0x69A JUMPI PUSH2 0x2A3 JUMP JUMPDEST DUP1 PUSH4 0x3F4BA83A EQ PUSH2 0x4BE JUMPI DUP1 PUSH4 0x3FEB5F2B EQ PUSH2 0x4D5 JUMPI DUP1 PUSH4 0x4042B66F EQ PUSH2 0x514 JUMPI DUP1 PUSH4 0x47535D7B EQ PUSH2 0x53F JUMPI DUP1 PUSH4 0x4A8CC5B7 EQ PUSH2 0x56A JUMPI DUP1 PUSH4 0x4B20AB1A EQ PUSH2 0x5AC JUMPI PUSH2 0x2A3 JUMP JUMPDEST DUP1 PUSH4 0x1E6A610D GT PUSH2 0x250 JUMPI DUP1 PUSH4 0x1E6A610D EQ PUSH2 0x39C JUMPI DUP1 PUSH4 0x248A9CA3 EQ PUSH2 0x3D9 JUMPI DUP1 PUSH4 0x2C4E722E EQ PUSH2 0x416 JUMPI DUP1 PUSH4 0x2F2FF15D EQ PUSH2 0x441 JUMPI DUP1 PUSH4 0x355274EA EQ PUSH2 0x46A JUMPI DUP1 PUSH4 0x36568ABE EQ PUSH2 0x495 JUMPI PUSH2 0x2A3 JUMP JUMPDEST DUP1 PUSH4 0x1FFC9A7 EQ PUSH2 0x2B5 JUMPI DUP1 PUSH4 0xFB5A6B4 EQ PUSH2 0x2F2 JUMPI DUP1 PUSH4 0x10154BAD EQ PUSH2 0x31D JUMPI DUP1 PUSH4 0x13D033C0 EQ PUSH2 0x346 JUMPI DUP1 PUSH4 0x1515BC2B EQ PUSH2 0x371 JUMPI PUSH2 0x2A3 JUMP JUMPDEST CALLDATASIZE PUSH2 0x2A3 JUMPI PUSH2 0x2A1 PUSH2 0x29C PUSH2 0xA67 JUMP JUMPDEST PUSH2 0xA6F JUMP JUMPDEST STOP JUMPDEST PUSH2 0x2B3 PUSH2 0x2AE PUSH2 0xA67 JUMP JUMPDEST PUSH2 0xA6F JUMP JUMPDEST STOP JUMPDEST CALLVALUE DUP1 ISZERO PUSH2 0x2C1 JUMPI PUSH1 0x0 DUP1 REVERT JUMPDEST POP PUSH2 0x2DC PUSH1 0x4 DUP1 CALLDATASIZE SUB DUP2 ADD SWAP1 PUSH2 0x2D7 SWAP2 SWAP1 PUSH2 0x30DC JUMP JUMPDEST PUSH2 0xAF9 JUMP JUMPDEST PUSH1 0x40 MLOAD PUSH2 0x2E9 SWAP2 SWAP1 PUSH2 0x3124 JUMP JUMPDEST PUSH1 0x40 MLOAD DUP1 SWAP2 SUB SWAP1 RETURN JUMPDEST CALLVALUE DUP1 ISZERO PUSH2 0x2FE JUMPI PUSH1 0x0 DUP1 REVERT JUMPDEST POP PUSH2 0x307 PUSH2 0xB73 JUMP JUMPDEST PUSH1 0x40 MLOAD PUSH2 0x314 SWAP2 SWAP1 PUSH2 0x3158 JUMP JUMPDEST PUSH1 0x40 MLOAD DUP1 SWAP2 SUB SWAP1 RETURN JUMPDEST CALLVALUE DUP1 ISZERO PUSH2 0x329 JUMPI PUSH1 0x0 DUP1 REVERT JUMPDEST POP PUSH2 0x344 PUSH1 0x4 DUP1 CALLDATASIZE SUB DUP2 ADD SWAP1 PUSH2 0x33F SWAP2 SWAP1 PUSH2 0x31D1 JUMP JUMPDEST PUSH2 0xB79 JUMP JUMPDEST STOP JUMPDEST CALLVALUE DUP1 ISZERO PUSH2 0x352 JUMPI PUSH1 0x0 DUP1 REVERT JUMPDEST POP PUSH2 0x35B PUSH2 0xBDF JUMP JUMPDEST PUSH1 0x40 MLOAD PUSH2 0x368 SWAP2 SWAP1 PUSH2 0x3158 JUMP JUMPDEST PUSH1 0x40 MLOAD DUP1 SWAP2 SUB SWAP1 RETURN JUMPDEST CALLVALUE DUP1 ISZERO PUSH2 0x37D JUMPI PUSH1 0x0 DUP1 REVERT JUMPDEST POP PUSH2 0x386 PUSH2 0xBE5 JUMP JUMPDEST PUSH1 0x40 MLOAD PUSH2 0x393 SWAP2 SWAP1 PUSH2 0x3124 JUMP JUMPDEST PUSH1 0x40 MLOAD DUP1 SWAP2 SUB SWAP1 RETURN JUMPDEST CALLVALUE DUP1 ISZERO PUSH2 0x3A8 JUMPI PUSH1 0x0 DUP1 REVERT JUMPDEST POP PUSH2 0x3C3 PUSH1 0x4 DUP1 CALLDATASIZE SUB DUP2 ADD SWAP1 PUSH2 0x3BE SWAP2 SWAP1 PUSH2 0x31D1 JUMP JUMPDEST PUSH2 0xBF1 JUMP JUMPDEST PUSH1 0x40 MLOAD PUSH2 0x3D0 SWAP2 SWAP1 PUSH2 0x3158 JUMP JUMPDEST PUSH1 0x40 MLOAD DUP1 SWAP2 SUB SWAP1 RETURN JUMPDEST CALLVALUE DUP1 ISZERO PUSH2 0x3E5 JUMPI PUSH1 0x0 DUP1 REVERT JUMPDEST POP PUSH2 0x400 PUSH1 0x4 DUP1 CALLDATASIZE SUB DUP2 ADD SWAP1 PUSH2 0x3FB SWAP2 SWAP1 PUSH2 0x3234 JUMP JUMPDEST PUSH2 0xC09 JUMP JUMPDEST PUSH1 0x40 MLOAD PUSH2 0x40D SWAP2 SWAP1 PUSH2 0x3270 JUMP JUMPDEST PUSH1 0x40 MLOAD DUP1 SWAP2 SUB SWAP1 RETURN JUMPDEST CALLVALUE DUP1 ISZERO PUSH2 0x422 JUMPI PUSH1 0x0 DUP1 REVERT JUMPDEST POP PUSH2 0x42B PUSH2 0xC29 JUMP JUMPDEST PUSH1 0x40 MLOAD PUSH2 0x438 SWAP2 SWAP1 PUSH2 0x3158 JUMP JUMPDEST PUSH1 0x40 MLOAD DUP1 SWAP2 SUB SWAP1 RETURN JUMPDEST CALLVALUE DUP1 ISZERO PUSH2 0x44D JUMPI PUSH1 0x0 DUP1 REVERT JUMPDEST POP PUSH2 0x468 PUSH1 0x4 DUP1 CALLDATASIZE SUB DUP2 ADD SWAP1 PUSH2 0x463 SWAP2 SWAP1 PUSH2 0x328B JUMP JUMPDEST PUSH2 0xC33 JUMP JUMPDEST STOP JUMPDEST CALLVALUE DUP1 ISZERO PUSH2 0x476 JUMPI PUSH1 0x0 DUP1 REVERT JUMPDEST POP PUSH2 0x47F PUSH2 0xC54 JUMP JUMPDEST PUSH1 0x40 MLOAD PUSH2 0x48C SWAP2 SWAP1 PUSH2 0x3158 JUMP JUMPDEST PUSH1 0x40 MLOAD DUP1 SWAP2 SUB SWAP1 RETURN JUMPDEST CALLVALUE DUP1 ISZERO PUSH2 0x4A1 JUMPI PUSH1 0x0 DUP1 REVERT JUMPDEST POP PUSH2 0x4BC PUSH1 0x4 DUP1 CALLDATASIZE SUB DUP2 ADD SWAP1 PUSH2 0x4B7 SWAP2 SWAP1 PUSH2 0x328B JUMP JUMPDEST PUSH2 0xC5E JUMP JUMPDEST STOP JUMPDEST CALLVALUE DUP1 ISZERO PUSH2 0x4CA JUMPI PUSH1 0x0 DUP1 REVERT JUMPDEST POP PUSH2 0x4D3 PUSH2 0xCE1 JUMP JUMPDEST STOP JUMPDEST CALLVALUE DUP1 ISZERO PUSH2 0x4E1 JUMPI PUSH1 0x0 DUP1 REVERT JUMPDEST POP PUSH2 0x4FC PUSH1 0x4 DUP1 CALLDATASIZE SUB DUP2 ADD SWAP1 PUSH2 0x4F7 SWAP2 SWAP1 PUSH2 0x32F7 JUMP JUMPDEST PUSH2 0xCFB JUMP JUMPDEST PUSH1 0x40 MLOAD PUSH2 0x50B SWAP4 SWAP3 SWAP2 SWAP1 PUSH2 0x3333 JUMP JUMPDEST PUSH1 0x40 MLOAD DUP1 SWAP2 SUB SWAP1 RETURN JUMPDEST CALLVALUE DUP1 ISZERO PUSH2 0x520 JUMPI PUSH1 0x0 DUP1 REVERT JUMPDEST POP PUSH2 0x529 PUSH2 0xD62 JUMP JUMPDEST PUSH1 0x40 MLOAD PUSH2 0x536 SWAP2 SWAP1 PUSH2 0x3158 JUMP JUMPDEST PUSH1 0x40 MLOAD DUP1 SWAP2 SUB SWAP1 RETURN JUMPDEST CALLVALUE DUP1 ISZERO PUSH2 0x54B JUMPI PUSH1 0x0 DUP1 REVERT JUMPDEST POP PUSH2 0x554 PUSH2 0xD6C JUMP JUMPDEST PUSH1 0x40 MLOAD PUSH2 0x561 SWAP2 SWAP1 PUSH2 0x3124 JUMP JUMPDEST PUSH1 0x40 MLOAD DUP1 SWAP2 SUB SWAP1 RETURN JUMPDEST CALLVALUE DUP1 ISZERO PUSH2 0x576 JUMPI PUSH1 0x0 DUP1 REVERT JUMPDEST POP PUSH2 0x591 PUSH1 0x4 DUP1 CALLDATASIZE SUB DUP2 ADD SWAP1 PUSH2 0x58C SWAP2 SWAP1 PUSH2 0x32F7 JUMP JUMPDEST PUSH2 0xD87 JUMP JUMPDEST PUSH1 0x40 MLOAD PUSH2 0x5A3 SWAP7 SWAP6 SWAP5 SWAP4 SWAP3 SWAP2 SWAP1 PUSH2 0x33FA JUMP JUMPDEST PUSH1 0x40 MLOAD DUP1 SWAP2 SUB SWAP1 RETURN JUMPDEST CALLVALUE DUP1 ISZERO PUSH2 0x5B8 JUMPI PUSH1 0x0 DUP1 REVERT JUMPDEST POP PUSH2 0x5C1 PUSH2 0xE88 JUMP JUMPDEST PUSH1 0x40 MLOAD PUSH2 0x5CE SWAP2 SWAP1 PUSH2 0x3158 JUMP JUMPDEST PUSH1 0x40 MLOAD DUP1 SWAP2 SUB SWAP1 RETURN JUMPDEST CALLVALUE DUP1 ISZERO PUSH2 0x5E3 JUMPI PUSH1 0x0 DUP1 REVERT JUMPDEST POP PUSH2 0x5EC PUSH2 0xE8D JUMP JUMPDEST PUSH1 0x40 MLOAD PUSH2 0x5F9 SWAP2 SWAP1 PUSH2 0x3158 JUMP JUMPDEST PUSH1 0x40 MLOAD DUP1 SWAP2 SUB SWAP1 RETURN JUMPDEST CALLVALUE DUP1 ISZERO PUSH2 0x60E JUMPI PUSH1 0x0 DUP1 REVERT JUMPDEST POP PUSH2 0x617 PUSH2 0xE97 JUMP JUMPDEST STOP JUMPDEST CALLVALUE DUP1 ISZERO PUSH2 0x625 JUMPI PUSH1 0x0 DUP1 REVERT JUMPDEST POP PUSH2 0x62E PUSH2 0xEA9 JUMP JUMPDEST PUSH1 0x40 MLOAD PUSH2 0x63B SWAP2 SWAP1 PUSH2 0x3124 JUMP JUMPDEST PUSH1 0x40 MLOAD DUP1 SWAP2 SUB SWAP1 RETURN JUMPDEST CALLVALUE DUP1 ISZERO PUSH2 0x650 JUMPI PUSH1 0x0 DUP1 REVERT JUMPDEST POP PUSH2 0x659 PUSH2 0xEBD JUMP JUMPDEST PUSH1 0x40 MLOAD PUSH2 0x666 SWAP2 SWAP1 PUSH2 0x3483 JUMP JUMPDEST PUSH1 0x40 MLOAD DUP1 SWAP2 SUB SWAP1 RETURN JUMPDEST CALLVALUE DUP1 ISZERO PUSH2 0x67B JUMPI PUSH1 0x0 DUP1 REVERT JUMPDEST POP PUSH2 0x684 PUSH2 0xEE7 JUMP JUMPDEST PUSH1 0x40 MLOAD PUSH2 0x691 SWAP2 SWAP1 PUSH2 0x3124 JUMP JUMPDEST PUSH1 0x40 MLOAD DUP1 SWAP2 SUB SWAP1 RETURN JUMPDEST CALLVALUE DUP1 ISZERO PUSH2 0x6A6 JUMPI PUSH1 0x0 DUP1 REVERT JUMPDEST POP PUSH2 0x6AF PUSH2 0xEFE JUMP JUMPDEST STOP JUMPDEST CALLVALUE DUP1 ISZERO PUSH2 0x6BD JUMPI PUSH1 0x0 DUP1 REVERT JUMPDEST POP PUSH2 0x6C6 PUSH2 0x11A0 JUMP JUMPDEST STOP JUMPDEST CALLVALUE DUP1 ISZERO PUSH2 0x6D4 JUMPI PUSH1 0x0 DUP1 REVERT JUMPDEST POP PUSH2 0x6EF PUSH1 0x4 DUP1 CALLDATASIZE SUB DUP2 ADD SWAP1 PUSH2 0x6EA SWAP2 SWAP1 PUSH2 0x34DC JUMP JUMPDEST PUSH2 0x11B4 JUMP JUMPDEST STOP JUMPDEST CALLVALUE DUP1 ISZERO PUSH2 0x6FD JUMPI PUSH1 0x0 DUP1 REVERT JUMPDEST POP PUSH2 0x706 PUSH2 0x126F JUMP JUMPDEST PUSH1 0x40 MLOAD PUSH2 0x713 SWAP2 SWAP1 PUSH2 0x3158 JUMP JUMPDEST PUSH1 0x40 MLOAD DUP1 SWAP2 SUB SWAP1 RETURN JUMPDEST CALLVALUE DUP1 ISZERO PUSH2 0x728 JUMPI PUSH1 0x0 DUP1 REVERT JUMPDEST POP PUSH2 0x731 PUSH2 0x1275 JUMP JUMPDEST PUSH1 0x40 MLOAD PUSH2 0x73E SWAP2 SWAP1 PUSH2 0x3158 JUMP JUMPDEST PUSH1 0x40 MLOAD DUP1 SWAP2 SUB SWAP1 RETURN JUMPDEST CALLVALUE DUP1 ISZERO PUSH2 0x753 JUMPI PUSH1 0x0 DUP1 REVERT JUMPDEST POP PUSH2 0x76E PUSH1 0x4 DUP1 CALLDATASIZE SUB DUP2 ADD SWAP1 PUSH2 0x769 SWAP2 SWAP1 PUSH2 0x3547 JUMP JUMPDEST PUSH2 0x127B JUMP JUMPDEST STOP JUMPDEST CALLVALUE DUP1 ISZERO PUSH2 0x77C JUMPI PUSH1 0x0 DUP1 REVERT JUMPDEST POP PUSH2 0x785 PUSH2 0x1336 JUMP JUMPDEST STOP JUMPDEST CALLVALUE DUP1 ISZERO PUSH2 0x793 JUMPI PUSH1 0x0 DUP1 REVERT JUMPDEST POP PUSH2 0x79C PUSH2 0x1350 JUMP JUMPDEST PUSH1 0x40 MLOAD PUSH2 0x7A9 SWAP2 SWAP1 PUSH2 0x3574 JUMP JUMPDEST PUSH1 0x40 MLOAD DUP1 SWAP2 SUB SWAP1 RETURN JUMPDEST CALLVALUE DUP1 ISZERO PUSH2 0x7BE JUMPI PUSH1 0x0 DUP1 REVERT JUMPDEST POP PUSH2 0x7D9 PUSH1 0x4 DUP1 CALLDATASIZE SUB DUP2 ADD SWAP1 PUSH2 0x7D4 SWAP2 SWAP1 PUSH2 0x328B JUMP JUMPDEST PUSH2 0x137A JUMP JUMPDEST PUSH1 0x40 MLOAD PUSH2 0x7E6 SWAP2 SWAP1 PUSH2 0x3124 JUMP JUMPDEST PUSH1 0x40 MLOAD DUP1 SWAP2 SUB SWAP1 RETURN JUMPDEST CALLVALUE DUP1 ISZERO PUSH2 0x7FB JUMPI PUSH1 0x0 DUP1 REVERT JUMPDEST POP PUSH2 0x804 PUSH2 0x13E5 JUMP JUMPDEST PUSH1 0x40 MLOAD PUSH2 0x811 SWAP2 SWAP1 PUSH2 0x3158 JUMP JUMPDEST PUSH1 0x40 MLOAD DUP1 SWAP2 SUB SWAP1 RETURN JUMPDEST PUSH2 0x834 PUSH1 0x4 DUP1 CALLDATASIZE SUB DUP2 ADD SWAP1 PUSH2 0x82F SWAP2 SWAP1 PUSH2 0x358F JUMP JUMPDEST PUSH2 0x13EA JUMP JUMPDEST STOP JUMPDEST CALLVALUE DUP1 ISZERO PUSH2 0x842 JUMPI PUSH1 0x0 DUP1 REVERT JUMPDEST POP PUSH2 0x84B PUSH2 0x16AC JUMP JUMPDEST PUSH1 0x40 MLOAD PUSH2 0x858 SWAP2 SWAP1 PUSH2 0x3270 JUMP JUMPDEST PUSH1 0x40 MLOAD DUP1 SWAP2 SUB SWAP1 RETURN JUMPDEST CALLVALUE DUP1 ISZERO PUSH2 0x86D JUMPI PUSH1 0x0 DUP1 REVERT JUMPDEST POP PUSH2 0x876 PUSH2 0x16B3 JUMP JUMPDEST PUSH1 0x40 MLOAD PUSH2 0x883 SWAP2 SWAP1 PUSH2 0x3124 JUMP JUMPDEST PUSH1 0x40 MLOAD DUP1 SWAP2 SUB SWAP1 RETURN JUMPDEST CALLVALUE DUP1 ISZERO PUSH2 0x898 JUMPI PUSH1 0x0 DUP1 REVERT JUMPDEST POP PUSH2 0x8A1 PUSH2 0x16CA JUMP JUMPDEST PUSH1 0x40 MLOAD PUSH2 0x8AE SWAP2 SWAP1 PUSH2 0x362E JUMP JUMPDEST PUSH1 0x40 MLOAD DUP1 SWAP2 SUB SWAP1 RETURN JUMPDEST CALLVALUE DUP1 ISZERO PUSH2 0x8C3 JUMPI PUSH1 0x0 DUP1 REVERT JUMPDEST POP PUSH2 0x8CC PUSH2 0x16F0 JUMP JUMPDEST PUSH1 0x40 MLOAD PUSH2 0x8D9 SWAP2 SWAP1 PUSH2 0x3158 JUMP JUMPDEST PUSH1 0x40 MLOAD DUP1 SWAP2 SUB SWAP1 RETURN JUMPDEST CALLVALUE DUP1 ISZERO PUSH2 0x8EE JUMPI PUSH1 0x0 DUP1 REVERT JUMPDEST POP PUSH2 0x909 PUSH1 0x4 DUP1 CALLDATASIZE SUB DUP2 ADD SWAP1 PUSH2 0x904 SWAP2 SWAP1 PUSH2 0x377E JUMP JUMPDEST PUSH2 0x16FA JUMP JUMPDEST STOP JUMPDEST CALLVALUE DUP1 ISZERO PUSH2 0x917 JUMPI PUSH1 0x0 DUP1 REVERT JUMPDEST POP PUSH2 0x920 PUSH2 0x18C9 JUMP JUMPDEST PUSH1 0x40 MLOAD PUSH2 0x92D SWAP2 SWAP1 PUSH2 0x3574 JUMP JUMPDEST PUSH1 0x40 MLOAD DUP1 SWAP2 SUB SWAP1 RETURN JUMPDEST CALLVALUE DUP1 ISZERO PUSH2 0x942 JUMPI PUSH1 0x0 DUP1 REVERT JUMPDEST POP PUSH2 0x95D PUSH1 0x4 DUP1 CALLDATASIZE SUB DUP2 ADD SWAP1 PUSH2 0x958 SWAP2 SWAP1 PUSH2 0x328B JUMP JUMPDEST PUSH2 0x18EF JUMP JUMPDEST STOP JUMPDEST CALLVALUE DUP1 ISZERO PUSH2 0x96B JUMPI PUSH1 0x0 DUP1 REVERT JUMPDEST POP PUSH2 0x974 PUSH2 0x1910 JUMP JUMPDEST PUSH1 0x40 MLOAD PUSH2 0x981 SWAP2 SWAP1 PUSH2 0x3158 JUMP JUMPDEST PUSH1 0x40 MLOAD DUP1 SWAP2 SUB SWAP1 RETURN JUMPDEST CALLVALUE DUP1 ISZERO PUSH2 0x996 JUMPI PUSH1 0x0 DUP1 REVERT JUMPDEST POP PUSH2 0x99F PUSH2 0x1915 JUMP JUMPDEST STOP JUMPDEST PUSH2 0x9BB PUSH1 0x4 DUP1 CALLDATASIZE SUB DUP2 ADD SWAP1 PUSH2 0x9B6 SWAP2 SWAP1 PUSH2 0x31D1 JUMP JUMPDEST PUSH2 0xA6F JUMP JUMPDEST STOP JUMPDEST CALLVALUE DUP1 ISZERO PUSH2 0x9C9 JUMPI PUSH1 0x0 DUP1 REVERT JUMPDEST POP PUSH2 0x9D2 PUSH2 0x1B6F JUMP JUMPDEST PUSH1 0x40 MLOAD PUSH2 0x9DF SWAP2 SWAP1 PUSH2 0x3158 JUMP JUMPDEST PUSH1 0x40 MLOAD DUP1 SWAP2 SUB SWAP1 RETURN JUMPDEST CALLVALUE DUP1 ISZERO PUSH2 0x9F4 JUMPI PUSH1 0x0 DUP1 REVERT JUMPDEST POP PUSH2 0x9FD PUSH2 0x1B75 JUMP JUMPDEST PUSH1 0x40 MLOAD PUSH2 0xA0A SWAP2 SWAP1 PUSH2 0x3158 JUMP JUMPDEST PUSH1 0x40 MLOAD DUP1 SWAP2 SUB SWAP1 RETURN JUMPDEST CALLVALUE DUP1 ISZERO PUSH2 0xA1F JUMPI PUSH1 0x0 DUP1 REVERT JUMPDEST POP PUSH2 0xA3A PUSH1 0x4 DUP1 CALLDATASIZE SUB DUP2 ADD SWAP1 PUSH2 0xA35 SWAP2 SWAP1 PUSH2 0x31D1 JUMP JUMPDEST PUSH2 0x1B7B JUMP JUMPDEST STOP JUMPDEST CALLVALUE DUP1 ISZERO PUSH2 0xA48 JUMPI PUSH1 0x0 DUP1 REVERT JUMPDEST POP PUSH2 0xA51 PUSH2 0x1BFE JUMP JUMPDEST PUSH1 0x40 MLOAD PUSH2 0xA5E SWAP2 SWAP1 PUSH2 0x362E JUMP JUMPDEST PUSH1 0x40 MLOAD DUP1 SWAP2 SUB SWAP1 RETURN JUMPDEST PUSH1 0x0 CALLER SWAP1 POP SWAP1 JUMP JUMPDEST PUSH1 0x2 PUSH1 0x0 SLOAD SUB PUSH2 0xAB4 JUMPI PUSH1 0x40 MLOAD PUSH32 0x8C379A000000000000000000000000000000000000000000000000000000000 DUP2 MSTORE PUSH1 0x4 ADD PUSH2 0xAAB SWAP1 PUSH2 0x3861 JUMP JUMPDEST PUSH1 0x40 MLOAD DUP1 SWAP2 SUB SWAP1 REVERT JUMPDEST PUSH1 0x2 PUSH1 0x0 DUP2 SWAP1 SSTORE POP DUP1 PUSH1 0x40 MLOAD PUSH32 0xFA5CD00F00000000000000000000000000000000000000000000000000000000 DUP2 MSTORE PUSH1 0x4 ADD PUSH2 0xAF0 SWAP2 SWAP1 PUSH2 0x3574 JUMP JUMPDEST PUSH1 0x40 MLOAD DUP1 SWAP2 SUB SWAP1 REVERT JUMPDEST PUSH1 0x0 PUSH32 0x7965DB0B00000000000000000000000000000000000000000000000000000000 PUSH28 0xFFFFFFFFFFFFFFFFFFFFFFFFFFFFFFFFFFFFFFFFFFFFFFFFFFFFFFFF NOT AND DUP3 PUSH28 0xFFFFFFFFFFFFFFFFFFFFFFFFFFFFFFFFFFFFFFFFFFFFFFFFFFFFFFFF NOT AND EQ DUP1 PUSH2 0xB6C JUMPI POP PUSH2 0xB6B DUP3 PUSH2 0x1C6A JUMP JUMPDEST JUMPDEST SWAP1 POP SWAP2 SWAP1 POP JUMP JUMPDEST PUSH1 0xD SLOAD DUP2 JUMP JUMPDEST PUSH2 0xBA5 PUSH32 0xF5DDD805FA96B7C3D4F3EA55114F966AB9AAD1DE73AFF48D008717B66678BB36 PUSH1 0x0 SHL PUSH2 0xC09 JUMP JUMPDEST PUSH2 0xBAE DUP2 PUSH2 0x1CD4 JUMP JUMPDEST PUSH2 0xBDB PUSH32 0xF5DDD805FA96B7C3D4F3EA55114F966AB9AAD1DE73AFF48D008717B66678BB36 PUSH1 0x0 SHL DUP4 PUSH2 0xC33 JUMP JUMPDEST POP POP JUMP JUMPDEST PUSH1 0xC SLOAD DUP2 JUMP JUMPDEST PUSH1 0x0 PUSH1 0x9 SLOAD TIMESTAMP GT SWAP1 POP SWAP1 JUMP JUMPDEST PUSH1 0x13 PUSH1 0x20 MSTORE DUP1 PUSH1 0x0 MSTORE PUSH1 0x40 PUSH1 0x0 KECCAK256 PUSH1 0x0 SWAP2 POP SWAP1 POP SLOAD DUP2 JUMP JUMPDEST PUSH1 0x0 PUSH1 0x1 PUSH1 0x0 DUP4 DUP2 MSTORE PUSH1 0x20 ADD SWAP1 DUP2 MSTORE PUSH1 0x20 ADD PUSH1 0x0 KECCAK256 PUSH1 0x1 ADD SLOAD SWAP1 POP SWAP2 SWAP1 POP JUMP JUMPDEST PUSH1 0x0 PUSH1 0x4 SLOAD SWAP1 POP SWAP1 JUMP JUMPDEST PUSH2 0xC3C DUP3 PUSH2 0xC09 JUMP JUMPDEST PUSH2 0xC45 DUP2 PUSH2 0x1CD4 JUMP JUMPDEST PUSH2 0xC4F DUP4 DUP4 PUSH2 0x1CE8 JUMP JUMPDEST POP POP POP JUMP JUMPDEST PUSH1 0x0 PUSH1 0x7 SLOAD SWAP1 POP SWAP1 JUMP JUMPDEST PUSH2 0xC66 PUSH2 0xA67 JUMP JUMPDEST PUSH20 0xFFFFFFFFFFFFFFFFFFFFFFFFFFFFFFFFFFFFFFFF AND DUP2 PUSH20 0xFFFFFFFFFFFFFFFFFFFFFFFFFFFFFFFFFFFFFFFF AND EQ PUSH2 0xCD3 JUMPI PUSH1 0x40 MLOAD PUSH32 0x8C379A000000000000000000000000000000000000000000000000000000000 DUP2 MSTORE PUSH1 0x4 ADD PUSH2 0xCCA SWAP1 PUSH2 0x38F3 JUMP JUMPDEST PUSH1 0x40 MLOAD DUP1 SWAP2 SUB SWAP1 REVERT JUMPDEST PUSH2 0xCDD DUP3 DUP3 PUSH2 0x1DC8 JUMP JUMPDEST POP POP JUMP JUMPDEST PUSH2 0xCE9 PUSH2 0x1EAA JUMP JUMPDEST PUSH2 0xCF1 PUSH2 0x1F28 JUMP JUMPDEST PUSH2 0xCF9 PUSH2 0x1F71 JUMP JUMPDEST JUMP JUMPDEST PUSH1 0x11 DUP2 DUP2 SLOAD DUP2 LT PUSH2 0xD0B JUMPI PUSH1 0x0 DUP1 REVERT JUMPDEST SWAP1 PUSH1 0x0 MSTORE PUSH1 0x20 PUSH1 0x0 KECCAK256 SWAP1 PUSH1 0x3 MUL ADD PUSH1 0x0 SWAP2 POP SWAP1 POP DUP1 PUSH1 0x0 ADD PUSH1 0x0 SWAP1 SLOAD SWAP1 PUSH2 0x100 EXP SWAP1 DIV PUSH20 0xFFFFFFFFFFFFFFFFFFFFFFFFFFFFFFFFFFFFFFFF AND SWAP1 DUP1 PUSH1 0x1 ADD SLOAD SWAP1 DUP1 PUSH1 0x2 ADD PUSH1 0x0 SWAP1 SLOAD SWAP1 PUSH2 0x100 EXP SWAP1 DIV PUSH1 0xFF AND SWAP1 POP DUP4 JUMP JUMPDEST PUSH1 0x0 PUSH1 0x5 SLOAD SWAP1 POP SWAP1 JUMP JUMPDEST PUSH1 0x0 PUSH1 0x8 SLOAD TIMESTAMP LT ISZERO DUP1 ISZERO PUSH2 0xD82 JUMPI POP PUSH1 0x9 SLOAD TIMESTAMP GT ISZERO JUMPDEST SWAP1 POP SWAP1 JUMP JUMPDEST PUSH1 0x12 DUP2 DUP2 SLOAD DUP2 LT PUSH2 0xD97 JUMPI PUSH1 0x0 DUP1 REVERT JUMPDEST SWAP1 PUSH1 0x0 MSTORE PUSH1 0x20 PUSH1 0x0 KECCAK256 SWAP1 PUSH1 0x6 MUL ADD PUSH1 0x0 SWAP2 POP SWAP1 POP DUP1 PUSH1 0x0 ADD DUP1 SLOAD PUSH2 0xDBA SWAP1 PUSH2 0x3942 JUMP JUMPDEST DUP1 PUSH1 0x1F ADD PUSH1 0x20 DUP1 SWAP2 DIV MUL PUSH1 0x20 ADD PUSH1 0x40 MLOAD SWAP1 DUP2 ADD PUSH1 0x40 MSTORE DUP1 SWAP3 SWAP2 SWAP1 DUP2 DUP2 MSTORE PUSH1 0x20 ADD DUP3 DUP1 SLOAD PUSH2 0xDE6 SWAP1 PUSH2 0x3942 JUMP JUMPDEST DUP1 ISZERO PUSH2 0xE33 JUMPI DUP1 PUSH1 0x1F LT PUSH2 0xE08 JUMPI PUSH2 0x100 DUP1 DUP4 SLOAD DIV MUL DUP4 MSTORE SWAP2 PUSH1 0x20 ADD SWAP2 PUSH2 0xE33 JUMP JUMPDEST DUP3 ADD SWAP2 SWAP1 PUSH1 0x0 MSTORE PUSH1 0x20 PUSH1 0x0 KECCAK256 SWAP1 JUMPDEST DUP2 SLOAD DUP2 MSTORE SWAP1 PUSH1 0x1 ADD SWAP1 PUSH1 0x20 ADD DUP1 DUP4 GT PUSH2 0xE16 JUMPI DUP3 SWAP1 SUB PUSH1 0x1F AND DUP3 ADD SWAP2 JUMPDEST POP POP POP POP POP SWAP1 DUP1 PUSH1 0x1 ADD PUSH1 0x0 SWAP1 SLOAD SWAP1 PUSH2 0x100 EXP SWAP1 DIV PUSH20 0xFFFFFFFFFFFFFFFFFFFFFFFFFFFFFFFFFFFFFFFF AND SWAP1 DUP1 PUSH1 0x2 ADD SLOAD SWAP1 DUP1 PUSH1 0x3 ADD SLOAD SWAP1 DUP1 PUSH1 0x4 ADD SLOAD SWAP1 DUP1 PUSH1 0x5 ADD PUSH1 0x0 SWAP1 SLOAD SWAP1 PUSH2 0x100 EXP SWAP1 DIV PUSH1 0xFF AND SWAP1 POP DUP7 JUMP JUMPDEST PUSH1 0x5 DUP2 JUMP JUMPDEST PUSH1 0x0 PUSH1 0x9 SLOAD SWAP1 POP SWAP1 JUMP JUMPDEST PUSH2 0xE9F PUSH2 0x1EAA JUMP JUMPDEST PUSH2 0xEA7 PUSH2 0x1FD4 JUMP JUMPDEST JUMP JUMPDEST PUSH1 0x0 PUSH1 0x7 SLOAD PUSH2 0xEB6 PUSH2 0xD62 JUMP JUMPDEST LT ISZERO SWAP1 POP SWAP1 JUMP JUMPDEST PUSH1 0x0 PUSH1 0x3 PUSH1 0x0 SWAP1 SLOAD SWAP1 PUSH2 0x100 EXP SWAP1 DIV PUSH20 0xFFFFFFFFFFFFFFFFFFFFFFFFFFFFFFFFFFFFFFFF AND SWAP1 POP SWAP1 JUMP JUMPDEST PUSH1 0x0 PUSH1 0x6 PUSH1 0x0 SWAP1 SLOAD SWAP1 PUSH2 0x100 EXP SWAP1 DIV PUSH1 0xFF AND SWAP1 POP SWAP1 JUMP JUMPDEST PUSH2 0xF06 PUSH2 0xBE5 JUMP JUMPDEST PUSH2 0xF45 JUMPI PUSH1 0x40 MLOAD PUSH32 0x8C379A000000000000000000000000000000000000000000000000000000000 DUP2 MSTORE PUSH1 0x4 ADD PUSH2 0xF3C SWAP1 PUSH2 0x39BF JUMP JUMPDEST PUSH1 0x40 MLOAD DUP1 SWAP2 SUB SWAP1 REVERT JUMPDEST PUSH1 0x0 PUSH1 0xA PUSH1 0x1 SWAP1 SLOAD SWAP1 PUSH2 0x100 EXP SWAP1 DIV PUSH20 0xFFFFFFFFFFFFFFFFFFFFFFFFFFFFFFFFFFFFFFFF AND SWAP1 POP PUSH1 0x0 JUMPDEST PUSH1 0x12 DUP1 SLOAD SWAP1 POP DUP2 LT ISZERO PUSH2 0x119C JUMPI PUSH1 0x0 PUSH1 0x12 DUP3 DUP2 SLOAD DUP2 LT PUSH2 0xF92 JUMPI PUSH2 0xF91 PUSH2 0x39DF JUMP JUMPDEST JUMPDEST SWAP1 PUSH1 0x0 MSTORE PUSH1 0x20 PUSH1 0x0 KECCAK256 SWAP1 PUSH1 0x6 MUL ADD PUSH1 0x40 MLOAD DUP1 PUSH1 0xC0 ADD PUSH1 0x40 MSTORE SWAP1 DUP2 PUSH1 0x0 DUP3 ADD DUP1 SLOAD PUSH2 0xFBB SWAP1 PUSH2 0x3942 JUMP JUMPDEST DUP1 PUSH1 0x1F ADD PUSH1 0x20 DUP1 SWAP2 DIV MUL PUSH1 0x20 ADD PUSH1 0x40 MLOAD SWAP1 DUP2 ADD PUSH1 0x40 MSTORE DUP1 SWAP3 SWAP2 SWAP1 DUP2 DUP2 MSTORE PUSH1 0x20 ADD DUP3 DUP1 SLOAD PUSH2 0xFE7 SWAP1 PUSH2 0x3942 JUMP JUMPDEST DUP1 ISZERO PUSH2 0x1034 JUMPI DUP1 PUSH1 0x1F LT PUSH2 0x1009 JUMPI PUSH2 0x100 DUP1 DUP4 SLOAD DIV MUL DUP4 MSTORE SWAP2 PUSH1 0x20 ADD SWAP2 PUSH2 0x1034 JUMP JUMPDEST DUP3 ADD SWAP2 SWAP1 PUSH1 0x0 MSTORE PUSH1 0x20 PUSH1 0x0 KECCAK256 SWAP1 JUMPDEST DUP2 SLOAD DUP2 MSTORE SWAP1 PUSH1 0x1 ADD SWAP1 PUSH1 0x20 ADD DUP1 DUP4 GT PUSH2 0x1017 JUMPI DUP3 SWAP1 SUB PUSH1 0x1F AND DUP3 ADD SWAP2 JUMPDEST POP POP POP POP POP DUP2 MSTORE PUSH1 0x20 ADD PUSH1 0x1 DUP3 ADD PUSH1 0x0 SWAP1 SLOAD SWAP1 PUSH2 0x100 EXP SWAP1 DIV PUSH20 0xFFFFFFFFFFFFFFFFFFFFFFFFFFFFFFFFFFFFFFFF AND PUSH20 0xFFFFFFFFFFFFFFFFFFFFFFFFFFFFFFFFFFFFFFFF AND PUSH20 0xFFFFFFFFFFFFFFFFFFFFFFFFFFFFFFFFFFFFFFFF AND DUP2 MSTORE PUSH1 0x20 ADD PUSH1 0x2 DUP3 ADD SLOAD DUP2 MSTORE PUSH1 0x20 ADD PUSH1 0x3 DUP3 ADD SLOAD DUP2 MSTORE PUSH1 0x20 ADD PUSH1 0x4 DUP3 ADD SLOAD DUP2 MSTORE PUSH1 0x20 ADD PUSH1 0x5 DUP3 ADD PUSH1 0x0 SWAP1 SLOAD SWAP1 PUSH2 0x100 EXP SWAP1 DIV PUSH1 0xFF AND ISZERO ISZERO ISZERO ISZERO DUP2 MSTORE POP POP SWAP1 POP DUP1 PUSH1 0xA0 ADD MLOAD ISZERO PUSH2 0x10DE JUMPI POP PUSH2 0x1189 JUMP JUMPDEST PUSH1 0x0 PUSH2 0x10E8 PUSH2 0x20BC JUMP JUMPDEST SWAP1 POP DUP4 PUSH20 0xFFFFFFFFFFFFFFFFFFFFFFFFFFFFFFFFFFFFFFFF AND PUSH4 0x7DF8DF92 DUP4 PUSH1 0x20 ADD MLOAD DUP4 DUP6 PUSH1 0x80 ADD MLOAD DUP7 PUSH1 0x60 ADD MLOAD PUSH1 0x1 DUP1 DUP10 PUSH1 0x40 ADD MLOAD PUSH1 0x0 PUSH1 0x40 MLOAD DUP10 PUSH4 0xFFFFFFFF AND PUSH1 0xE0 SHL DUP2 MSTORE PUSH1 0x4 ADD PUSH2 0x1143 SWAP9 SWAP8 SWAP7 SWAP6 SWAP5 SWAP4 SWAP3 SWAP2 SWAP1 PUSH2 0x3A49 JUMP JUMPDEST PUSH1 0x0 PUSH1 0x40 MLOAD DUP1 DUP4 SUB DUP2 PUSH1 0x0 DUP8 DUP1 EXTCODESIZE ISZERO DUP1 ISZERO PUSH2 0x115D JUMPI PUSH1 0x0 DUP1 REVERT JUMPDEST POP GAS CALL ISZERO DUP1 ISZERO PUSH2 0x1171 JUMPI RETURNDATASIZE PUSH1 0x0 DUP1 RETURNDATACOPY RETURNDATASIZE PUSH1 0x0 REVERT JUMPDEST POP POP POP POP PUSH1 0x1 DUP3 PUSH1 0xA0 ADD SWAP1 ISZERO ISZERO SWAP1 DUP2 ISZERO ISZERO DUP2 MSTORE POP POP POP POP JUMPDEST DUP1 DUP1 PUSH2 0x1194 SWAP1 PUSH2 0x3AF6 JUMP JUMPDEST SWAP2 POP POP PUSH2 0xF6F JUMP JUMPDEST POP POP JUMP JUMPDEST PUSH2 0x11A8 PUSH2 0x1EAA JUMP JUMPDEST PUSH2 0x11B2 PUSH1 0x0 PUSH2 0x20C4 JUMP JUMPDEST JUMP JUMPDEST PUSH2 0x11BC PUSH2 0x1EAA JUMP JUMPDEST PUSH1 0x0 PUSH20 0xFFFFFFFFFFFFFFFFFFFFFFFFFFFFFFFFFFFFFFFF AND DUP2 PUSH20 0xFFFFFFFFFFFFFFFFFFFFFFFFFFFFFFFFFFFFFFFF AND SUB PUSH2 0x122B JUMPI PUSH1 0x40 MLOAD PUSH32 0x8C379A000000000000000000000000000000000000000000000000000000000 DUP2 MSTORE PUSH1 0x4 ADD PUSH2 0x1222 SWAP1 PUSH2 0x3B8A JUMP JUMPDEST PUSH1 0x40 MLOAD DUP1 SWAP2 SUB SWAP1 REVERT JUMPDEST DUP1 PUSH1 0xA PUSH1 0x1 PUSH2 0x100 EXP DUP2 SLOAD DUP2 PUSH20 0xFFFFFFFFFFFFFFFFFFFFFFFFFFFFFFFFFFFFFFFF MUL NOT AND SWAP1 DUP4 PUSH20 0xFFFFFFFFFFFFFFFFFFFFFFFFFFFFFFFFFFFFFFFF AND MUL OR SWAP1 SSTORE POP POP JUMP JUMPDEST PUSH1 0xF SLOAD DUP2 JUMP JUMPDEST PUSH1 0x10 SLOAD DUP2 JUMP JUMPDEST PUSH2 0x1283 PUSH2 0x1EAA JUMP JUMPDEST PUSH1 0x0 PUSH20 0xFFFFFFFFFFFFFFFFFFFFFFFFFFFFFFFFFFFFFFFF AND DUP2 PUSH20 0xFFFFFFFFFFFFFFFFFFFFFFFFFFFFFFFFFFFFFFFF AND SUB PUSH2 0x12F2 JUMPI PUSH1 0x40 MLOAD PUSH32 0x8C379A000000000000000000000000000000000000000000000000000000000 DUP2 MSTORE PUSH1 0x4 ADD PUSH2 0x12E9 SWAP1 PUSH2 0x3BF6 JUMP JUMPDEST PUSH1 0x40 MLOAD DUP1 SWAP2 SUB SWAP1 REVERT JUMPDEST DUP1 PUSH1 0xB PUSH1 0x0 PUSH2 0x100 EXP DUP2 SLOAD DUP2 PUSH20 0xFFFFFFFFFFFFFFFFFFFFFFFFFFFFFFFFFFFFFFFF MUL NOT AND SWAP1 DUP4 PUSH20 0xFFFFFFFFFFFFFFFFFFFFFFFFFFFFFFFFFFFFFFFF AND MUL OR SWAP1 SSTORE POP POP JUMP JUMPDEST PUSH2 0x133E PUSH2 0x1EAA JUMP JUMPDEST PUSH2 0x1346 PUSH2 0x218A JUMP JUMPDEST PUSH2 0x134E PUSH2 0x21D4 JUMP JUMPDEST JUMP JUMPDEST PUSH1 0x0 PUSH1 0x6 PUSH1 0x1 SWAP1 SLOAD SWAP1 PUSH2 0x100 EXP SWAP1 DIV PUSH20 0xFFFFFFFFFFFFFFFFFFFFFFFFFFFFFFFFFFFFFFFF AND SWAP1 POP SWAP1 JUMP JUMPDEST PUSH1 0x0 PUSH1 0x1 PUSH1 0x0 DUP5 DUP2 MSTORE PUSH1 0x20 ADD SWAP1 DUP2 MSTORE PUSH1 0x20 ADD PUSH1 0x0 KECCAK256 PUSH1 0x0 ADD PUSH1 0x0 DUP4 PUSH20 0xFFFFFFFFFFFFFFFFFFFFFFFFFFFFFFFFFFFFFFFF AND PUSH20 0xFFFFFFFFFFFFFFFFFFFFFFFFFFFFFFFFFFFFFFFF AND DUP2 MSTORE PUSH1 0x20 ADD SWAP1 DUP2 MSTORE PUSH1 0x20 ADD PUSH1 0x0 KECCAK256 PUSH1 0x0 SWAP1 SLOAD SWAP1 PUSH2 0x100 EXP SWAP1 DIV PUSH1 0xFF AND SWAP1 POP SWAP3 SWAP2 POP POP JUMP JUMPDEST PUSH1 0x14 DUP2 JUMP JUMPDEST PUSH1 0x2 PUSH1 0x0 SLOAD SUB PUSH2 0x142F JUMPI PUSH1 0x40 MLOAD PUSH32 0x8C379A000000000000000000000000000000000000000000000000000000000 DUP2 MSTORE PUSH1 0x4 ADD PUSH2 0x1426 SWAP1 PUSH2 0x3861 JUMP JUMPDEST PUSH1 0x40 MLOAD DUP1 SWAP2 SUB SWAP1 REVERT JUMPDEST PUSH1 0x2 PUSH1 0x0 DUP2 SWAP1 SSTORE POP PUSH1 0x0 PUSH20 0xFFFFFFFFFFFFFFFFFFFFFFFFFFFFFFFFFFFFFFFF AND DUP3 PUSH20 0xFFFFFFFFFFFFFFFFFFFFFFFFFFFFFFFFFFFFFFFF AND SUB PUSH2 0x14A6 JUMPI PUSH1 0x40 MLOAD PUSH32 0x8C379A000000000000000000000000000000000000000000000000000000000 DUP2 MSTORE PUSH1 0x4 ADD PUSH2 0x149D SWAP1 PUSH2 0x3C88 JUMP JUMPDEST PUSH1 0x40 MLOAD DUP1 SWAP2 SUB SWAP1 REVERT JUMPDEST PUSH1 0x0 DUP2 GT PUSH2 0x14E9 JUMPI PUSH1 0x40 MLOAD PUSH32 0x8C379A000000000000000000000000000000000000000000000000000000000 DUP2 MSTORE PUSH1 0x4 ADD PUSH2 0x14E0 SWAP1 PUSH2 0x3D1A JUMP JUMPDEST PUSH1 0x40 MLOAD DUP1 SWAP2 SUB SWAP1 REVERT JUMPDEST PUSH1 0x0 DUP2 SWAP1 POP PUSH2 0x14F8 DUP4 DUP3 PUSH2 0x2237 JUMP JUMPDEST PUSH1 0x0 PUSH2 0x1503 DUP3 PUSH2 0x245F JUMP JUMPDEST SWAP1 POP PUSH1 0x0 PUSH2 0x150F PUSH2 0x1BFE JUMP JUMPDEST SWAP1 POP PUSH1 0x0 PUSH2 0x151B PUSH2 0xD62 JUMP JUMPDEST SWAP1 POP PUSH1 0x0 PUSH2 0x1534 DUP3 PUSH1 0x10 SLOAD PUSH2 0x1C54 SWAP1 SWAP2 SWAP1 PUSH4 0xFFFFFFFF AND JUMP JUMPDEST SWAP1 POP PUSH2 0x1549 DUP5 DUP3 PUSH2 0x1C54 SWAP1 SWAP2 SWAP1 PUSH4 0xFFFFFFFF AND JUMP JUMPDEST DUP4 PUSH20 0xFFFFFFFFFFFFFFFFFFFFFFFFFFFFFFFFFFFFFFFF AND PUSH4 0x70A08231 ADDRESS PUSH1 0x40 MLOAD DUP3 PUSH4 0xFFFFFFFF AND PUSH1 0xE0 SHL DUP2 MSTORE PUSH1 0x4 ADD PUSH2 0x1582 SWAP2 SWAP1 PUSH2 0x3574 JUMP JUMPDEST PUSH1 0x20 PUSH1 0x40 MLOAD DUP1 DUP4 SUB DUP2 DUP7 GAS STATICCALL ISZERO DUP1 ISZERO PUSH2 0x159F JUMPI RETURNDATASIZE PUSH1 0x0 DUP1 RETURNDATACOPY RETURNDATASIZE PUSH1 0x0 REVERT JUMPDEST POP POP POP POP PUSH1 0x40 MLOAD RETURNDATASIZE PUSH1 0x1F NOT PUSH1 0x1F DUP3 ADD AND DUP3 ADD DUP1 PUSH1 0x40 MSTORE POP DUP2 ADD SWAP1 PUSH2 0x15C3 SWAP2 SWAP1 PUSH2 0x3D4F JUMP JUMPDEST LT ISZERO PUSH2 0x1606 JUMPI DUP4 PUSH1 0x40 MLOAD PUSH32 0x63ADBDB800000000000000000000000000000000000000000000000000000000 DUP2 MSTORE PUSH1 0x4 ADD PUSH2 0x15FD SWAP2 SWAP1 PUSH2 0x3158 JUMP JUMPDEST PUSH1 0x40 MLOAD DUP1 SWAP2 SUB SWAP1 REVERT JUMPDEST PUSH2 0x1610 DUP8 DUP6 PUSH2 0x247D JUMP JUMPDEST DUP7 PUSH20 0xFFFFFFFFFFFFFFFFFFFFFFFFFFFFFFFFFFFFFFFF AND PUSH2 0x162F PUSH2 0xA67 JUMP JUMPDEST PUSH20 0xFFFFFFFFFFFFFFFFFFFFFFFFFFFFFFFFFFFFFFFF AND PUSH32 0x6FAF93231A456E552DBC9961F58D9713EE4F2E69D15F1975B050EF0911053A7B DUP8 DUP8 PUSH1 0x40 MLOAD PUSH2 0x1676 SWAP3 SWAP2 SWAP1 PUSH2 0x3D7C JUMP JUMPDEST PUSH1 0x40 MLOAD DUP1 SWAP2 SUB SWAP1 LOG3 PUSH2 0x1688 DUP8 DUP7 PUSH2 0x248B JUMP JUMPDEST PUSH2 0x1691 DUP6 PUSH2 0x252E JUMP JUMPDEST PUSH2 0x169B DUP8 DUP7 PUSH2 0x2587 JUMP JUMPDEST POP POP POP POP POP PUSH1 0x1 PUSH1 0x0 DUP2 SWAP1 SSTORE POP POP POP JUMP JUMPDEST PUSH1 0x0 DUP1 SHL DUP2 JUMP JUMPDEST PUSH1 0x0 PUSH1 0xA PUSH1 0x0 SWAP1 SLOAD SWAP1 PUSH2 0x100 EXP SWAP1 DIV PUSH1 0xFF AND SWAP1 POP SWAP1 JUMP JUMPDEST PUSH1 0xB PUSH1 0x0 SWAP1 SLOAD SWAP1 PUSH2 0x100 EXP SWAP1 DIV PUSH20 0xFFFFFFFFFFFFFFFFFFFFFFFFFFFFFFFFFFFFFFFF AND DUP2 JUMP JUMPDEST PUSH1 0x0 PUSH1 0x8 SLOAD SWAP1 POP SWAP1 JUMP JUMPDEST PUSH2 0x1702 PUSH2 0x1EAA JUMP JUMPDEST PUSH1 0x10 SLOAD PUSH2 0x171A DUP5 PUSH1 0x14 SLOAD PUSH2 0x1C54 SWAP1 SWAP2 SWAP1 PUSH4 0xFFFFFFFF AND JUMP JUMPDEST GT PUSH2 0x175A JUMPI PUSH1 0x40 MLOAD PUSH32 0x8C379A000000000000000000000000000000000000000000000000000000000 DUP2 MSTORE PUSH1 0x4 ADD PUSH2 0x1751 SWAP1 PUSH2 0x3DF1 JUMP JUMPDEST PUSH1 0x40 MLOAD DUP1 SWAP2 SUB SWAP1 REVERT JUMPDEST PUSH1 0x12 PUSH1 0x40 MLOAD DUP1 PUSH1 0xC0 ADD PUSH1 0x40 MSTORE DUP1 DUP8 DUP2 MSTORE PUSH1 0x20 ADD DUP7 PUSH20 0xFFFFFFFFFFFFFFFFFFFFFFFFFFFFFFFFFFFFFFFF AND DUP2 MSTORE PUSH1 0x20 ADD DUP6 DUP2 MSTORE PUSH1 0x20 ADD DUP5 DUP2 MSTORE PUSH1 0x20 ADD DUP4 DUP2 MSTORE PUSH1 0x20 ADD PUSH1 0x0 ISZERO ISZERO DUP2 MSTORE POP SWAP1 DUP1 PUSH1 0x1 DUP2 SLOAD ADD DUP1 DUP3 SSTORE DUP1 SWAP2 POP POP PUSH1 0x1 SWAP1 SUB SWAP1 PUSH1 0x0 MSTORE PUSH1 0x20 PUSH1 0x0 KECCAK256 SWAP1 PUSH1 0x6 MUL ADD PUSH1 0x0 SWAP1 SWAP2 SWAP1 SWAP2 SWAP1 SWAP2 POP PUSH1 0x0 DUP3 ADD MLOAD DUP2 PUSH1 0x0 ADD SWAP1 DUP2 PUSH2 0x17E0 SWAP2 SWAP1 PUSH2 0x3FB3 JUMP JUMPDEST POP PUSH1 0x20 DUP3 ADD MLOAD DUP2 PUSH1 0x1 ADD PUSH1 0x0 PUSH2 0x100 EXP DUP2 SLOAD DUP2 PUSH20 0xFFFFFFFFFFFFFFFFFFFFFFFFFFFFFFFFFFFFFFFF MUL NOT AND SWAP1 DUP4 PUSH20 0xFFFFFFFFFFFFFFFFFFFFFFFFFFFFFFFFFFFFFFFF AND MUL OR SWAP1 SSTORE POP PUSH1 0x40 DUP3 ADD MLOAD DUP2 PUSH1 0x2 ADD SSTORE PUSH1 0x60 DUP3 ADD MLOAD DUP2 PUSH1 0x3 ADD SSTORE PUSH1 0x80 DUP3 ADD MLOAD DUP2 PUSH1 0x4 ADD SSTORE PUSH1 0xA0 DUP3 ADD MLOAD DUP2 PUSH1 0x5 ADD PUSH1 0x0 PUSH2 0x100 EXP DUP2 SLOAD DUP2 PUSH1 0xFF MUL NOT AND SWAP1 DUP4 ISZERO ISZERO MUL OR SWAP1 SSTORE POP POP POP PUSH2 0x187D DUP4 PUSH1 0x14 SLOAD PUSH2 0x1C54 SWAP1 SWAP2 SWAP1 PUSH4 0xFFFFFFFF AND JUMP JUMPDEST PUSH1 0x14 DUP2 SWAP1 SSTORE POP PUSH32 0x403986FC4A9EDD42CA1FC943CFC247DFB0D81207BF5B32C14580AE484DDC4EE8 DUP6 DUP6 DUP6 DUP6 DUP6 PUSH1 0x40 MLOAD PUSH2 0x18BA SWAP6 SWAP5 SWAP4 SWAP3 SWAP2 SWAP1 PUSH2 0x4085 JUMP JUMPDEST PUSH1 0x40 MLOAD DUP1 SWAP2 SUB SWAP1 LOG1 POP POP POP POP POP JUMP JUMPDEST PUSH1 0xA PUSH1 0x1 SWAP1 SLOAD SWAP1 PUSH2 0x100 EXP SWAP1 DIV PUSH20 0xFFFFFFFFFFFFFFFFFFFFFFFFFFFFFFFFFFFFFFFF AND DUP2 JUMP JUMPDEST PUSH2 0x18F8 DUP3 PUSH2 0xC09 JUMP JUMPDEST PUSH2 0x1901 DUP2 PUSH2 0x1CD4 JUMP JUMPDEST PUSH2 0x190B DUP4 DUP4 PUSH2 0x1DC8 JUMP JUMPDEST POP POP POP JUMP JUMPDEST PUSH1 0xA DUP2 JUMP JUMPDEST PUSH2 0x191D PUSH2 0xBE5 JUMP JUMPDEST PUSH2 0x195C JUMPI PUSH1 0x40 MLOAD PUSH32 0x8C379A000000000000000000000000000000000000000000000000000000000 DUP2 MSTORE PUSH1 0x4 ADD PUSH2 0x1953 SWAP1 PUSH2 0x412B JUMP JUMPDEST PUSH1 0x40 MLOAD DUP1 SWAP2 SUB SWAP1 REVERT JUMPDEST PUSH1 0x0 PUSH1 0xA PUSH1 0x1 SWAP1 SLOAD SWAP1 PUSH2 0x100 EXP SWAP1 DIV PUSH20 0xFFFFFFFFFFFFFFFFFFFFFFFFFFFFFFFFFFFFFFFF AND SWAP1 POP PUSH1 0x0 JUMPDEST PUSH1 0x11 DUP1 SLOAD SWAP1 POP DUP2 LT ISZERO PUSH2 0x1B6B JUMPI PUSH1 0x0 PUSH1 0x11 DUP3 DUP2 SLOAD DUP2 LT PUSH2 0x19A9 JUMPI PUSH2 0x19A8 PUSH2 0x39DF JUMP JUMPDEST JUMPDEST SWAP1 PUSH1 0x0 MSTORE PUSH1 0x20 PUSH1 0x0 KECCAK256 SWAP1 PUSH1 0x3 MUL ADD PUSH1 0x40 MLOAD DUP1 PUSH1 0x60 ADD PUSH1 0x40 MSTORE SWAP1 DUP2 PUSH1 0x0 DUP3 ADD PUSH1 0x0 SWAP1 SLOAD SWAP1 PUSH2 0x100 EXP SWAP1 DIV PUSH20 0xFFFFFFFFFFFFFFFFFFFFFFFFFFFFFFFFFFFFFFFF AND PUSH20 0xFFFFFFFFFFFFFFFFFFFFFFFFFFFFFFFFFFFFFFFF AND PUSH20 0xFFFFFFFFFFFFFFFFFFFFFFFFFFFFFFFFFFFFFFFF AND DUP2 MSTORE PUSH1 0x20 ADD PUSH1 0x1 DUP3 ADD SLOAD DUP2 MSTORE PUSH1 0x20 ADD PUSH1 0x2 DUP3 ADD PUSH1 0x0 SWAP1 SLOAD SWAP1 PUSH2 0x100 EXP SWAP1 DIV PUSH1 0xFF AND ISZERO ISZERO ISZERO ISZERO DUP2 MSTORE POP POP SWAP1 POP DUP1 PUSH1 0x40 ADD MLOAD ISZERO PUSH2 0x1A4F JUMPI POP PUSH2 0x1B58 JUMP JUMPDEST DUP3 PUSH20 0xFFFFFFFFFFFFFFFFFFFFFFFFFFFFFFFFFFFFFFFF AND PUSH4 0x7DF8DF92 DUP3 PUSH1 0x0 ADD MLOAD DUP6 PUSH20 0xFFFFFFFFFFFFFFFFFFFFFFFFFFFFFFFFFFFFFFFF AND PUSH4 0x94A3FADA PUSH1 0x40 MLOAD DUP2 PUSH4 0xFFFFFFFF AND PUSH1 0xE0 SHL DUP2 MSTORE PUSH1 0x4 ADD PUSH1 0x20 PUSH1 0x40 MLOAD DUP1 DUP4 SUB DUP2 DUP7 GAS STATICCALL ISZERO DUP1 ISZERO PUSH2 0x1ABB JUMPI RETURNDATASIZE PUSH1 0x0 DUP1 RETURNDATACOPY RETURNDATASIZE PUSH1 0x0 REVERT JUMPDEST POP POP POP POP PUSH1 0x40 MLOAD RETURNDATASIZE PUSH1 0x1F NOT PUSH1 0x1F DUP3 ADD AND DUP3 ADD DUP1 PUSH1 0x40 MSTORE POP DUP2 ADD SWAP1 PUSH2 0x1ADF SWAP2 SWAP1 PUSH2 0x3D4F JUMP JUMPDEST PUSH1 0xC SLOAD PUSH1 0xD SLOAD PUSH1 0x1 PUSH1 0x0 DUP9 PUSH1 0x20 ADD MLOAD PUSH1 0x1 PUSH1 0x40 MLOAD DUP10 PUSH4 0xFFFFFFFF AND PUSH1 0xE0 SHL DUP2 MSTORE PUSH1 0x4 ADD PUSH2 0x1B13 SWAP9 SWAP8 SWAP7 SWAP6 SWAP5 SWAP4 SWAP3 SWAP2 SWAP1 PUSH2 0x3A49 JUMP JUMPDEST PUSH1 0x0 PUSH1 0x40 MLOAD DUP1 DUP4 SUB DUP2 PUSH1 0x0 DUP8 DUP1 EXTCODESIZE ISZERO DUP1 ISZERO PUSH2 0x1B2D JUMPI PUSH1 0x0 DUP1 REVERT JUMPDEST POP GAS CALL ISZERO DUP1 ISZERO PUSH2 0x1B41 JUMPI RETURNDATASIZE PUSH1 0x0 DUP1 RETURNDATACOPY RETURNDATASIZE PUSH1 0x0 REVERT JUMPDEST POP POP POP POP PUSH1 0x1 DUP2 PUSH1 0x40 ADD SWAP1 ISZERO ISZERO SWAP1 DUP2 ISZERO ISZERO DUP2 MSTORE POP POP POP JUMPDEST DUP1 DUP1 PUSH2 0x1B63 SWAP1 PUSH2 0x3AF6 JUMP JUMPDEST SWAP2 POP POP PUSH2 0x1986 JUMP JUMPDEST POP POP JUMP JUMPDEST PUSH1 0x14 SLOAD DUP2 JUMP JUMPDEST PUSH1 0xE SLOAD DUP2 JUMP JUMPDEST PUSH2 0x1B83 PUSH2 0x1EAA JUMP JUMPDEST PUSH1 0x0 PUSH20 0xFFFFFFFFFFFFFFFFFFFFFFFFFFFFFFFFFFFFFFFF AND DUP2 PUSH20 0xFFFFFFFFFFFFFFFFFFFFFFFFFFFFFFFFFFFFFFFF AND SUB PUSH2 0x1BF2 JUMPI PUSH1 0x40 MLOAD PUSH32 0x8C379A000000000000000000000000000000000000000000000000000000000 DUP2 MSTORE PUSH1 0x4 ADD PUSH2 0x1BE9 SWAP1 PUSH2 0x41BD JUMP JUMPDEST PUSH1 0x40 MLOAD DUP1 SWAP2 SUB SWAP1 REVERT JUMPDEST PUSH2 0x1BFB DUP2 PUSH2 0x20C4 JUMP JUMPDEST POP JUMP JUMPDEST PUSH1 0x0 PUSH1 0x2 PUSH1 0x0 SWAP1 SLOAD SWAP1 PUSH2 0x100 EXP SWAP1 DIV PUSH20 0xFFFFFFFFFFFFFFFFFFFFFFFFFFFFFFFFFFFFFFFF AND SWAP1 POP SWAP1 JUMP JUMPDEST PUSH1 0x0 DUP2 DUP4 PUSH2 0x1C36 SWAP2 SWAP1 PUSH2 0x41DD JUMP JUMPDEST SWAP1 POP SWAP3 SWAP2 POP POP JUMP JUMPDEST PUSH1 0x0 DUP2 DUP4 PUSH2 0x1C4C SWAP2 SWAP1 PUSH2 0x424E JUMP JUMPDEST SWAP1 POP SWAP3 SWAP2 POP POP JUMP JUMPDEST PUSH1 0x0 DUP2 DUP4 PUSH2 0x1C62 SWAP2 SWAP1 PUSH2 0x427F JUMP JUMPDEST SWAP1 POP SWAP3 SWAP2 POP POP JUMP JUMPDEST PUSH1 0x0 PUSH32 0x1FFC9A700000000000000000000000000000000000000000000000000000000 PUSH28 0xFFFFFFFFFFFFFFFFFFFFFFFFFFFFFFFFFFFFFFFFFFFFFFFFFFFFFFFF NOT AND DUP3 PUSH28 0xFFFFFFFFFFFFFFFFFFFFFFFFFFFFFFFFFFFFFFFFFFFFFFFFFFFFFFFF NOT AND EQ SWAP1 POP SWAP2 SWAP1 POP JUMP JUMPDEST PUSH2 0x1CE5 DUP2 PUSH2 0x1CE0 PUSH2 0xA67 JUMP JUMPDEST PUSH2 0x258B JUMP JUMPDEST POP JUMP JUMPDEST PUSH2 0x1CF2 DUP3 DUP3 PUSH2 0x137A JUMP JUMPDEST PUSH2 0x1DC4 JUMPI PUSH1 0x1 DUP1 PUSH1 0x0 DUP5 DUP2 MSTORE PUSH1 0x20 ADD SWAP1 DUP2 MSTORE PUSH1 0x20 ADD PUSH1 0x0 KECCAK256 PUSH1 0x0 ADD PUSH1 0x0 DUP4 PUSH20 0xFFFFFFFFFFFFFFFFFFFFFFFFFFFFFFFFFFFFFFFF AND PUSH20 0xFFFFFFFFFFFFFFFFFFFFFFFFFFFFFFFFFFFFFFFF AND DUP2 MSTORE PUSH1 0x20 ADD SWAP1 DUP2 MSTORE PUSH1 0x20 ADD PUSH1 0x0 KECCAK256 PUSH1 0x0 PUSH2 0x100 EXP DUP2 SLOAD DUP2 PUSH1 0xFF MUL NOT AND SWAP1 DUP4 ISZERO ISZERO MUL OR SWAP1 SSTORE POP PUSH2 0x1D69 PUSH2 0xA67 JUMP JUMPDEST PUSH20 0xFFFFFFFFFFFFFFFFFFFFFFFFFFFFFFFFFFFFFFFF AND DUP2 PUSH20 0xFFFFFFFFFFFFFFFFFFFFFFFFFFFFFFFFFFFFFFFF AND DUP4 PUSH32 0x2F8788117E7EFF1D82E926EC794901D17C78024A50270940304540A733656F0D PUSH1 0x40 MLOAD PUSH1 0x40 MLOAD DUP1 SWAP2 SUB SWAP1 LOG4 JUMPDEST POP POP JUMP JUMPDEST PUSH2 0x1DD2 DUP3 DUP3 PUSH2 0x137A JUMP JUMPDEST ISZERO PUSH2 0x1EA6 JUMPI PUSH1 0x0 PUSH1 0x1 PUSH1 0x0 DUP5 DUP2 MSTORE PUSH1 0x20 ADD SWAP1 DUP2 MSTORE PUSH1 0x20 ADD PUSH1 0x0 KECCAK256 PUSH1 0x0 ADD PUSH1 0x0 DUP4 PUSH20 0xFFFFFFFFFFFFFFFFFFFFFFFFFFFFFFFFFFFFFFFF AND PUSH20 0xFFFFFFFFFFFFFFFFFFFFFFFFFFFFFFFFFFFFFFFF AND DUP2 MSTORE PUSH1 0x20 ADD SWAP1 DUP2 MSTORE PUSH1 0x20 ADD PUSH1 0x0 KECCAK256 PUSH1 0x0 PUSH2 0x100 EXP DUP2 SLOAD DUP2 PUSH1 0xFF MUL NOT AND SWAP1 DUP4 ISZERO ISZERO MUL OR SWAP1 SSTORE POP PUSH2 0x1E4B PUSH2 0xA67 JUMP JUMPDEST PUSH20 0xFFFFFFFFFFFFFFFFFFFFFFFFFFFFFFFFFFFFFFFF AND DUP2 PUSH20 0xFFFFFFFFFFFFFFFFFFFFFFFFFFFFFFFFFFFFFFFF AND DUP4 PUSH32 0xF6391F5C32D9C69D2A47EA670B442974B53935D1EDC7FD64EB21E047A839171B PUSH1 0x40 MLOAD PUSH1 0x40 MLOAD DUP1 SWAP2 SUB SWAP1 LOG4 JUMPDEST POP POP JUMP JUMPDEST PUSH2 0x1EB2 PUSH2 0xA67 JUMP JUMPDEST PUSH20 0xFFFFFFFFFFFFFFFFFFFFFFFFFFFFFFFFFFFFFFFF AND PUSH2 0x1ED0 PUSH2 0x1350 JUMP JUMPDEST PUSH20 0xFFFFFFFFFFFFFFFFFFFFFFFFFFFFFFFFFFFFFFFF AND EQ PUSH2 0x1F26 JUMPI PUSH1 0x40 MLOAD PUSH32 0x8C379A000000000000000000000000000000000000000000000000000000000 DUP2 MSTORE PUSH1 0x4 ADD PUSH2 0x1F1D SWAP1 PUSH2 0x42FF JUMP JUMPDEST PUSH1 0x40 MLOAD DUP1 SWAP2 SUB SWAP1 REVERT JUMPDEST JUMP JUMPDEST PUSH2 0x1F30 PUSH2 0xEE7 JUMP JUMPDEST PUSH2 0x1F6F JUMPI PUSH1 0x40 MLOAD PUSH32 0x8C379A000000000000000000000000000000000000000000000000000000000 DUP2 MSTORE PUSH1 0x4 ADD PUSH2 0x1F66 SWAP1 PUSH2 0x436B JUMP JUMPDEST PUSH1 0x40 MLOAD DUP1 SWAP2 SUB SWAP1 REVERT JUMPDEST JUMP JUMPDEST PUSH2 0x1F79 PUSH2 0x1F28 JUMP JUMPDEST PUSH1 0x0 PUSH1 0x6 PUSH1 0x0 PUSH2 0x100 EXP DUP2 SLOAD DUP2 PUSH1 0xFF MUL NOT AND SWAP1 DUP4 ISZERO ISZERO MUL OR SWAP1 SSTORE POP PUSH32 0x5DB9EE0A495BF2E6FF9C91A7834C1BA4FDD244A5E8AA4E537BD38AEAE4B073AA PUSH2 0x1FBD PUSH2 0xA67 JUMP JUMPDEST PUSH1 0x40 MLOAD PUSH2 0x1FCA SWAP2 SWAP1 PUSH2 0x3574 JUMP JUMPDEST PUSH1 0x40 MLOAD DUP1 SWAP2 SUB SWAP1 LOG1 JUMP JUMPDEST PUSH1 0xA PUSH1 0x0 SWAP1 SLOAD SWAP1 PUSH2 0x100 EXP SWAP1 DIV PUSH1 0xFF AND ISZERO PUSH2 0x2024 JUMPI PUSH1 0x40 MLOAD PUSH32 0x8C379A000000000000000000000000000000000000000000000000000000000 DUP2 MSTORE PUSH1 0x4 ADD PUSH2 0x201B SWAP1 PUSH2 0x43FD JUMP JUMPDEST PUSH1 0x40 MLOAD DUP1 SWAP2 SUB SWAP1 REVERT JUMPDEST PUSH2 0x202C PUSH2 0xBE5 JUMP JUMPDEST PUSH2 0x206B JUMPI PUSH1 0x40 MLOAD PUSH32 0x8C379A000000000000000000000000000000000000000000000000000000000 DUP2 MSTORE PUSH1 0x4 ADD PUSH2 0x2062 SWAP1 PUSH2 0x412B JUMP JUMPDEST PUSH1 0x40 MLOAD DUP1 SWAP2 SUB SWAP1 REVERT JUMPDEST PUSH1 0x1 PUSH1 0xA PUSH1 0x0 PUSH2 0x100 EXP DUP2 SLOAD DUP2 PUSH1 0xFF MUL NOT AND SWAP1 DUP4 ISZERO ISZERO MUL OR SWAP1 SSTORE POP PUSH2 0x208E PUSH2 0x2628 JUMP JUMPDEST PUSH32 0x9270CC390C096600A1C17C44345A1BA689FAFD99D97487B10CFCCF86CF731836 PUSH1 0x40 MLOAD PUSH1 0x40 MLOAD DUP1 SWAP2 SUB SWAP1 LOG1 JUMP JUMPDEST PUSH1 0x0 TIMESTAMP SWAP1 POP SWAP1 JUMP JUMPDEST PUSH1 0x0 PUSH1 0x6 PUSH1 0x1 SWAP1 SLOAD SWAP1 PUSH2 0x100 EXP SWAP1 DIV PUSH20 0xFFFFFFFFFFFFFFFFFFFFFFFFFFFFFFFFFFFFFFFF AND SWAP1 POP DUP2 PUSH1 0x6 PUSH1 0x1 PUSH2 0x100 EXP DUP2 SLOAD DUP2 PUSH20 0xFFFFFFFFFFFFFFFFFFFFFFFFFFFFFFFFFFFFFFFF MUL NOT AND SWAP1 DUP4 PUSH20 0xFFFFFFFFFFFFFFFFFFFFFFFFFFFFFFFFFFFFFFFF AND MUL OR SWAP1 SSTORE POP DUP2 PUSH20 0xFFFFFFFFFFFFFFFFFFFFFFFFFFFFFFFFFFFFFFFF AND DUP2 PUSH20 0xFFFFFFFFFFFFFFFFFFFFFFFFFFFFFFFFFFFFFFFF AND PUSH32 0x8BE0079C531659141344CD1FD0A4F28419497F9722A3DAAFE3B4186F6B6457E0 PUSH1 0x40 MLOAD PUSH1 0x40 MLOAD DUP1 SWAP2 SUB SWAP1 LOG3 POP POP JUMP JUMPDEST PUSH2 0x2192 PUSH2 0xEE7 JUMP JUMPDEST ISZERO PUSH2 0x21D2 JUMPI PUSH1 0x40 MLOAD PUSH32 0x8C379A000000000000000000000000000000000000000000000000000000000 DUP2 MSTORE PUSH1 0x4 ADD PUSH2 0x21C9 SWAP1 PUSH2 0x4469 JUMP JUMPDEST PUSH1 0x40 MLOAD DUP1 SWAP2 SUB SWAP1 REVERT JUMPDEST JUMP JUMPDEST PUSH2 0x21DC PUSH2 0x218A JUMP JUMPDEST PUSH1 0x1 PUSH1 0x6 PUSH1 0x0 PUSH2 0x100 EXP DUP2 SLOAD DUP2 PUSH1 0xFF MUL NOT AND SWAP1 DUP4 ISZERO ISZERO MUL OR SWAP1 SSTORE POP PUSH32 0x62E78CEA01BEE320CD4E420270B5EA74000D11B0C9F74754EBDBFC544B05A258 PUSH2 0x2220 PUSH2 0xA67 JUMP JUMPDEST PUSH1 0x40 MLOAD PUSH2 0x222D SWAP2 SWAP1 PUSH2 0x3574 JUMP JUMPDEST PUSH1 0x40 MLOAD DUP1 SWAP2 SUB SWAP1 LOG1 JUMP JUMPDEST PUSH1 0x0 PUSH1 0xB PUSH1 0x0 SWAP1 SLOAD SWAP1 PUSH2 0x100 EXP SWAP1 DIV PUSH20 0xFFFFFFFFFFFFFFFFFFFFFFFFFFFFFFFFFFFFFFFF AND PUSH20 0xFFFFFFFFFFFFFFFFFFFFFFFFFFFFFFFFFFFFFFFF AND PUSH4 0x70A08231 CALLER PUSH1 0x40 MLOAD DUP3 PUSH4 0xFFFFFFFF AND PUSH1 0xE0 SHL DUP2 MSTORE PUSH1 0x4 ADD PUSH2 0x2294 SWAP2 SWAP1 PUSH2 0x3574 JUMP JUMPDEST PUSH1 0x20 PUSH1 0x40 MLOAD DUP1 DUP4 SUB DUP2 DUP7 GAS STATICCALL ISZERO DUP1 ISZERO PUSH2 0x22B1 JUMPI RETURNDATASIZE PUSH1 0x0 DUP1 RETURNDATACOPY RETURNDATASIZE PUSH1 0x0 REVERT JUMPDEST POP POP POP POP PUSH1 0x40 MLOAD RETURNDATASIZE PUSH1 0x1F NOT PUSH1 0x1F DUP3 ADD AND DUP3 ADD DUP1 PUSH1 0x40 MSTORE POP DUP2 ADD SWAP1 PUSH2 0x22D5 SWAP2 SWAP1 PUSH2 0x3D4F JUMP JUMPDEST SWAP1 POP DUP1 DUP3 GT ISZERO PUSH2 0x231E JUMPI DUP1 DUP3 PUSH1 0x40 MLOAD PUSH32 0xCF47918100000000000000000000000000000000000000000000000000000000 DUP2 MSTORE PUSH1 0x4 ADD PUSH2 0x2315 SWAP3 SWAP2 SWAP1 PUSH2 0x3D7C JUMP JUMPDEST PUSH1 0x40 MLOAD DUP1 SWAP2 SUB SWAP1 REVERT JUMPDEST PUSH1 0xE SLOAD DUP3 LT ISZERO PUSH2 0x2365 JUMPI DUP2 PUSH1 0x40 MLOAD PUSH32 0x539AEFC400000000000000000000000000000000000000000000000000000000 DUP2 MSTORE PUSH1 0x4 ADD PUSH2 0x235C SWAP2 SWAP1 PUSH2 0x3158 JUMP JUMPDEST PUSH1 0x40 MLOAD DUP1 SWAP2 SUB SWAP1 REVERT JUMPDEST PUSH1 0xF SLOAD PUSH2 0x23BA DUP4 PUSH1 0x13 PUSH1 0x0 DUP8 PUSH20 0xFFFFFFFFFFFFFFFFFFFFFFFFFFFFFFFFFFFFFFFF AND PUSH20 0xFFFFFFFFFFFFFFFFFFFFFFFFFFFFFFFFFFFFFFFF AND DUP2 MSTORE PUSH1 0x20 ADD SWAP1 DUP2 MSTORE PUSH1 0x20 ADD PUSH1 0x0 KECCAK256 SLOAD PUSH2 0x1C54 SWAP1 SWAP2 SWAP1 PUSH4 0xFFFFFFFF AND JUMP JUMPDEST GT ISZERO PUSH2 0x2450 JUMPI PUSH2 0x2414 PUSH1 0x13 PUSH1 0x0 DUP6 PUSH20 0xFFFFFFFFFFFFFFFFFFFFFFFFFFFFFFFFFFFFFFFF AND PUSH20 0xFFFFFFFFFFFFFFFFFFFFFFFFFFFFFFFFFFFFFFFF AND DUP2 MSTORE PUSH1 0x20 ADD SWAP1 DUP2 MSTORE PUSH1 0x20 ADD PUSH1 0x0 KECCAK256 SLOAD PUSH1 0xF SLOAD PUSH2 0x2799 SWAP1 SWAP2 SWAP1 PUSH4 0xFFFFFFFF AND JUMP JUMPDEST PUSH1 0x40 MLOAD PUSH32 0x98C1D8AB00000000000000000000000000000000000000000000000000000000 DUP2 MSTORE PUSH1 0x4 ADD PUSH2 0x2447 SWAP2 SWAP1 PUSH2 0x3158 JUMP JUMPDEST PUSH1 0x40 MLOAD DUP1 SWAP2 SUB SWAP1 REVERT JUMPDEST PUSH2 0x245A DUP4 DUP4 PUSH2 0x27AF JUMP JUMPDEST POP POP POP JUMP JUMPDEST PUSH1 0x0 PUSH2 0x2476 PUSH1 0x4 SLOAD DUP4 PUSH2 0x1C28 SWAP1 SWAP2 SWAP1 PUSH4 0xFFFFFFFF AND JUMP JUMPDEST SWAP1 POP SWAP2 SWAP1 POP JUMP JUMPDEST PUSH2 0x2487 DUP3 DUP3 PUSH2 0x27C5 JUMP JUMPDEST POP POP JUMP JUMPDEST PUSH2 0x2495 DUP3 DUP3 PUSH2 0x289B JUMP JUMPDEST PUSH2 0x24E7 DUP2 PUSH1 0x13 PUSH1 0x0 DUP6 PUSH20 0xFFFFFFFFFFFFFFFFFFFFFFFFFFFFFFFFFFFFFFFF AND PUSH20 0xFFFFFFFFFFFFFFFFFFFFFFFFFFFFFFFFFFFFFFFF AND DUP2 MSTORE PUSH1 0x20 ADD SWAP1 DUP2 MSTORE PUSH1 0x20 ADD PUSH1 0x0 KECCAK256 SLOAD PUSH2 0x1C54 SWAP1 SWAP2 SWAP1 PUSH4 0xFFFFFFFF AND JUMP JUMPDEST PUSH1 0x13 PUSH1 0x0 DUP5 PUSH20 0xFFFFFFFFFFFFFFFFFFFFFFFFFFFFFFFFFFFFFFFF AND PUSH20 0xFFFFFFFFFFFFFFFFFFFFFFFFFFFFFFFFFFFFFFFF AND DUP2 MSTORE PUSH1 0x20 ADD SWAP1 DUP2 MSTORE PUSH1 0x20 ADD PUSH1 0x0 KECCAK256 DUP2 SWAP1 SSTORE POP POP POP JUMP JUMPDEST PUSH2 0x2584 CALLER PUSH2 0x253A PUSH2 0xEBD JUMP JUMPDEST DUP4 PUSH1 0xB PUSH1 0x0 SWAP1 SLOAD SWAP1 PUSH2 0x100 EXP SWAP1 DIV PUSH20 0xFFFFFFFFFFFFFFFFFFFFFFFFFFFFFFFFFFFFFFFF AND PUSH20 0xFFFFFFFFFFFFFFFFFFFFFFFFFFFFFFFFFFFFFFFF AND PUSH2 0x28B5 SWAP1 SWAP4 SWAP3 SWAP2 SWAP1 PUSH4 0xFFFFFFFF AND JUMP JUMPDEST POP JUMP JUMPDEST POP POP JUMP JUMPDEST PUSH2 0x2595 DUP3 DUP3 PUSH2 0x137A JUMP JUMPDEST PUSH2 0x2624 JUMPI PUSH2 0x25BA DUP2 PUSH20 0xFFFFFFFFFFFFFFFFFFFFFFFFFFFFFFFFFFFFFFFF AND PUSH1 0x14 PUSH2 0x293E JUMP JUMPDEST PUSH2 0x25C8 DUP4 PUSH1 0x0 SHR PUSH1 0x20 PUSH2 0x293E JUMP JUMPDEST PUSH1 0x40 MLOAD PUSH1 0x20 ADD PUSH2 0x25D9 SWAP3 SWAP2 SWAP1 PUSH2 0x455D JUMP JUMPDEST PUSH1 0x40 MLOAD PUSH1 0x20 DUP2 DUP4 SUB SUB DUP2 MSTORE SWAP1 PUSH1 0x40 MSTORE PUSH1 0x40 MLOAD PUSH32 0x8C379A000000000000000000000000000000000000000000000000000000000 DUP2 MSTORE PUSH1 0x4 ADD PUSH2 0x261B SWAP2 SWAP1 PUSH2 0x4597 JUMP JUMPDEST PUSH1 0x40 MLOAD DUP1 SWAP2 SUB SWAP1 REVERT JUMPDEST POP POP JUMP JUMPDEST PUSH1 0x0 PUSH2 0x2632 PUSH2 0x1BFE JUMP JUMPDEST SWAP1 POP PUSH1 0x0 PUSH2 0x263E PUSH2 0xD62 JUMP JUMPDEST SWAP1 POP PUSH1 0x0 PUSH2 0x264A PUSH2 0xC29 JUMP JUMPDEST SWAP1 POP PUSH1 0x0 DUP4 PUSH20 0xFFFFFFFFFFFFFFFFFFFFFFFFFFFFFFFFFFFFFFFF AND PUSH4 0x18160DDD PUSH1 0x40 MLOAD DUP2 PUSH4 0xFFFFFFFF AND PUSH1 0xE0 SHL DUP2 MSTORE PUSH1 0x4 ADD PUSH1 0x20 PUSH1 0x40 MLOAD DUP1 DUP4 SUB DUP2 DUP7 GAS STATICCALL ISZERO DUP1 ISZERO PUSH2 0x2699 JUMPI RETURNDATASIZE PUSH1 0x0 DUP1 RETURNDATACOPY RETURNDATASIZE PUSH1 0x0 REVERT JUMPDEST POP POP POP POP PUSH1 0x40 MLOAD RETURNDATASIZE PUSH1 0x1F NOT PUSH1 0x1F DUP3 ADD AND DUP3 ADD DUP1 PUSH1 0x40 MSTORE POP DUP2 ADD SWAP1 PUSH2 0x26BD SWAP2 SWAP1 PUSH2 0x3D4F JUMP JUMPDEST SWAP1 POP PUSH1 0x0 PUSH2 0x26D4 DUP4 DUP6 PUSH2 0x1C28 SWAP1 SWAP2 SWAP1 PUSH4 0xFFFFFFFF AND JUMP JUMPDEST SWAP1 POP PUSH1 0x0 PUSH2 0x26ED DUP3 PUSH1 0x10 SLOAD PUSH2 0x1C54 SWAP1 SWAP2 SWAP1 PUSH4 0xFFFFFFFF AND JUMP JUMPDEST SWAP1 POP DUP3 DUP2 GT ISZERO PUSH2 0x2734 JUMPI DUP1 PUSH1 0x40 MLOAD PUSH32 0x9446517D00000000000000000000000000000000000000000000000000000000 DUP2 MSTORE PUSH1 0x4 ADD PUSH2 0x272B SWAP2 SWAP1 PUSH2 0x3158 JUMP JUMPDEST PUSH1 0x40 MLOAD DUP1 SWAP2 SUB SWAP1 REVERT JUMPDEST PUSH2 0x2781 PUSH1 0xA PUSH1 0x1 SWAP1 SLOAD SWAP1 PUSH2 0x100 EXP SWAP1 DIV PUSH20 0xFFFFFFFFFFFFFFFFFFFFFFFFFFFFFFFFFFFFFFFF AND DUP3 DUP9 PUSH20 0xFFFFFFFFFFFFFFFFFFFFFFFFFFFFFFFFFFFFFFFF AND PUSH2 0x2B7A SWAP1 SWAP3 SWAP2 SWAP1 PUSH4 0xFFFFFFFF AND JUMP JUMPDEST PUSH2 0x2789 PUSH2 0x1915 JUMP JUMPDEST PUSH2 0x2791 PUSH2 0x2C00 JUMP JUMPDEST POP POP POP POP POP POP JUMP JUMPDEST PUSH1 0x0 DUP2 DUP4 PUSH2 0x27A7 SWAP2 SWAP1 PUSH2 0x45B9 JUMP JUMPDEST SWAP1 POP SWAP3 SWAP2 POP POP JUMP JUMPDEST PUSH2 0x27B7 PUSH2 0x218A JUMP JUMPDEST PUSH2 0x27C1 DUP3 DUP3 PUSH2 0x2C02 JUMP JUMPDEST POP POP JUMP JUMPDEST PUSH1 0x11 PUSH1 0x40 MLOAD DUP1 PUSH1 0x60 ADD PUSH1 0x40 MSTORE DUP1 DUP5 PUSH20 0xFFFFFFFFFFFFFFFFFFFFFFFFFFFFFFFFFFFFFFFF AND DUP2 MSTORE PUSH1 0x20 ADD DUP4 DUP2 MSTORE PUSH1 0x20 ADD PUSH1 0x0 ISZERO ISZERO DUP2 MSTORE POP SWAP1 DUP1 PUSH1 0x1 DUP2 SLOAD ADD DUP1 DUP3 SSTORE DUP1 SWAP2 POP POP PUSH1 0x1 SWAP1 SUB SWAP1 PUSH1 0x0 MSTORE PUSH1 0x20 PUSH1 0x0 KECCAK256 SWAP1 PUSH1 0x3 MUL ADD PUSH1 0x0 SWAP1 SWAP2 SWAP1 SWAP2 SWAP1 SWAP2 POP PUSH1 0x0 DUP3 ADD MLOAD DUP2 PUSH1 0x0 ADD PUSH1 0x0 PUSH2 0x100 EXP DUP2 SLOAD DUP2 PUSH20 0xFFFFFFFFFFFFFFFFFFFFFFFFFFFFFFFFFFFFFFFF MUL NOT AND SWAP1 DUP4 PUSH20 0xFFFFFFFFFFFFFFFFFFFFFFFFFFFFFFFFFFFFFFFF AND MUL OR SWAP1 SSTORE POP PUSH1 0x20 DUP3 ADD MLOAD DUP2 PUSH1 0x1 ADD SSTORE PUSH1 0x40 DUP3 ADD MLOAD DUP2 PUSH1 0x2 ADD PUSH1 0x0 PUSH2 0x100 EXP DUP2 SLOAD DUP2 PUSH1 0xFF MUL NOT AND SWAP1 DUP4 ISZERO ISZERO MUL OR SWAP1 SSTORE POP POP POP POP POP JUMP JUMPDEST PUSH2 0x28B0 DUP2 PUSH1 0x5 SLOAD PUSH2 0x1C54 SWAP1 SWAP2 SWAP1 PUSH4 0xFFFFFFFF AND JUMP JUMPDEST POP POP POP JUMP JUMPDEST PUSH2 0x2938 DUP5 PUSH4 0x23B872DD PUSH1 0xE0 SHL DUP6 DUP6 DUP6 PUSH1 0x40 MLOAD PUSH1 0x24 ADD PUSH2 0x28D6 SWAP4 SWAP3 SWAP2 SWAP1 PUSH2 0x45ED JUMP JUMPDEST PUSH1 0x40 MLOAD PUSH1 0x20 DUP2 DUP4 SUB SUB DUP2 MSTORE SWAP1 PUSH1 0x40 MSTORE SWAP1 PUSH28 0xFFFFFFFFFFFFFFFFFFFFFFFFFFFFFFFFFFFFFFFFFFFFFFFFFFFFFFFF NOT AND PUSH1 0x20 DUP3 ADD DUP1 MLOAD PUSH28 0xFFFFFFFFFFFFFFFFFFFFFFFFFFFFFFFFFFFFFFFFFFFFFFFFFFFFFFFF DUP4 DUP2 DUP4 AND OR DUP4 MSTORE POP POP POP POP PUSH2 0x2C7C JUMP JUMPDEST POP POP POP POP JUMP JUMPDEST PUSH1 0x60 PUSH1 0x0 PUSH1 0x2 DUP4 PUSH1 0x2 PUSH2 0x2951 SWAP2 SWAP1 PUSH2 0x41DD JUMP JUMPDEST PUSH2 0x295B SWAP2 SWAP1 PUSH2 0x427F JUMP JUMPDEST PUSH8 0xFFFFFFFFFFFFFFFF DUP2 GT ISZERO PUSH2 0x2974 JUMPI PUSH2 0x2973 PUSH2 0x3653 JUMP JUMPDEST JUMPDEST PUSH1 0x40 MLOAD SWAP1 DUP1 DUP3 MSTORE DUP1 PUSH1 0x1F ADD PUSH1 0x1F NOT AND PUSH1 0x20 ADD DUP3 ADD PUSH1 0x40 MSTORE DUP1 ISZERO PUSH2 0x29A6 JUMPI DUP2 PUSH1 0x20 ADD PUSH1 0x1 DUP3 MUL DUP1 CALLDATASIZE DUP4 CALLDATACOPY DUP1 DUP3 ADD SWAP2 POP POP SWAP1 POP JUMPDEST POP SWAP1 POP PUSH32 0x3000000000000000000000000000000000000000000000000000000000000000 DUP2 PUSH1 0x0 DUP2 MLOAD DUP2 LT PUSH2 0x29DE JUMPI PUSH2 0x29DD PUSH2 0x39DF JUMP JUMPDEST JUMPDEST PUSH1 0x20 ADD ADD SWAP1 PUSH31 0xFFFFFFFFFFFFFFFFFFFFFFFFFFFFFFFFFFFFFFFFFFFFFFFFFFFFFFFFFFFFFF NOT AND SWAP1 DUP2 PUSH1 0x0 BYTE SWAP1 MSTORE8 POP PUSH32 0x7800000000000000000000000000000000000000000000000000000000000000 DUP2 PUSH1 0x1 DUP2 MLOAD DUP2 LT PUSH2 0x2A42 JUMPI PUSH2 0x2A41 PUSH2 0x39DF JUMP JUMPDEST JUMPDEST PUSH1 0x20 ADD ADD SWAP1 PUSH31 0xFFFFFFFFFFFFFFFFFFFFFFFFFFFFFFFFFFFFFFFFFFFFFFFFFFFFFFFFFFFFFF NOT AND SWAP1 DUP2 PUSH1 0x0 BYTE SWAP1 MSTORE8 POP PUSH1 0x0 PUSH1 0x1 DUP5 PUSH1 0x2 PUSH2 0x2A82 SWAP2 SWAP1 PUSH2 0x41DD JUMP JUMPDEST PUSH2 0x2A8C SWAP2 SWAP1 PUSH2 0x427F JUMP JUMPDEST SWAP1 POP JUMPDEST PUSH1 0x1 DUP2 GT ISZERO PUSH2 0x2B2C JUMPI PUSH32 0x3031323334353637383961626364656600000000000000000000000000000000 PUSH1 0xF DUP7 AND PUSH1 0x10 DUP2 LT PUSH2 0x2ACE JUMPI PUSH2 0x2ACD PUSH2 0x39DF JUMP JUMPDEST JUMPDEST BYTE PUSH1 0xF8 SHL DUP3 DUP3 DUP2 MLOAD DUP2 LT PUSH2 0x2AE5 JUMPI PUSH2 0x2AE4 PUSH2 0x39DF JUMP JUMPDEST JUMPDEST PUSH1 0x20 ADD ADD SWAP1 PUSH31 0xFFFFFFFFFFFFFFFFFFFFFFFFFFFFFFFFFFFFFFFFFFFFFFFFFFFFFFFFFFFFFF NOT AND SWAP1 DUP2 PUSH1 0x0 BYTE SWAP1 MSTORE8 POP PUSH1 0x4 DUP6 SWAP1 SHR SWAP5 POP DUP1 PUSH2 0x2B25 SWAP1 PUSH2 0x4624 JUMP JUMPDEST SWAP1 POP PUSH2 0x2A8F JUMP JUMPDEST POP PUSH1 0x0 DUP5 EQ PUSH2 0x2B70 JUMPI PUSH1 0x40 MLOAD PUSH32 0x8C379A000000000000000000000000000000000000000000000000000000000 DUP2 MSTORE PUSH1 0x4 ADD PUSH2 0x2B67 SWAP1 PUSH2 0x4699 JUMP JUMPDEST PUSH1 0x40 MLOAD DUP1 SWAP2 SUB SWAP1 REVERT JUMPDEST DUP1 SWAP2 POP POP SWAP3 SWAP2 POP POP JUMP JUMPDEST PUSH2 0x2BFB DUP4 PUSH4 0xA9059CBB PUSH1 0xE0 SHL DUP5 DUP5 PUSH1 0x40 MLOAD PUSH1 0x24 ADD PUSH2 0x2B99 SWAP3 SWAP2 SWAP1 PUSH2 0x46B9 JUMP JUMPDEST PUSH1 0x40 MLOAD PUSH1 0x20 DUP2 DUP4 SUB SUB DUP2 MSTORE SWAP1 PUSH1 0x40 MSTORE SWAP1 PUSH28 0xFFFFFFFFFFFFFFFFFFFFFFFFFFFFFFFFFFFFFFFFFFFFFFFFFFFFFFFF NOT AND PUSH1 0x20 DUP3 ADD DUP1 MLOAD PUSH28 0xFFFFFFFFFFFFFFFFFFFFFFFFFFFFFFFFFFFFFFFFFFFFFFFFFFFFFFFF DUP4 DUP2 DUP4 AND OR DUP4 MSTORE POP POP POP POP PUSH2 0x2C7C JUMP JUMPDEST POP POP POP JUMP JUMPDEST JUMP JUMPDEST PUSH2 0x2C2F PUSH32 0xF5DDD805FA96B7C3D4F3EA55114F966AB9AAD1DE73AFF48D008717B66678BB36 PUSH1 0x0 SHL DUP4 PUSH2 0x137A JUMP JUMPDEST PUSH2 0x2C6E JUMPI PUSH1 0x40 MLOAD PUSH32 0x8C379A000000000000000000000000000000000000000000000000000000000 DUP2 MSTORE PUSH1 0x4 ADD PUSH2 0x2C65 SWAP1 PUSH2 0x477A JUMP JUMPDEST PUSH1 0x40 MLOAD DUP1 SWAP2 SUB SWAP1 REVERT JUMPDEST PUSH2 0x2C78 DUP3 DUP3 PUSH2 0x2D43 JUMP JUMPDEST POP POP JUMP JUMPDEST PUSH1 0x0 PUSH2 0x2CDE DUP3 PUSH1 0x40 MLOAD DUP1 PUSH1 0x40 ADD PUSH1 0x40 MSTORE DUP1 PUSH1 0x20 DUP2 MSTORE PUSH1 0x20 ADD PUSH32 0x5361666545524332303A206C6F772D6C6576656C2063616C6C206661696C6564 DUP2 MSTORE POP DUP6 PUSH20 0xFFFFFFFFFFFFFFFFFFFFFFFFFFFFFFFFFFFFFFFF AND PUSH2 0x2D98 SWAP1 SWAP3 SWAP2 SWAP1 PUSH4 0xFFFFFFFF AND JUMP JUMPDEST SWAP1 POP PUSH1 0x0 DUP2 MLOAD GT ISZERO PUSH2 0x2D3E JUMPI DUP1 DUP1 PUSH1 0x20 ADD SWAP1 MLOAD DUP2 ADD SWAP1 PUSH2 0x2CFE SWAP2 SWAP1 PUSH2 0x47C6 JUMP JUMPDEST PUSH2 0x2D3D JUMPI PUSH1 0x40 MLOAD PUSH32 0x8C379A000000000000000000000000000000000000000000000000000000000 DUP2 MSTORE PUSH1 0x4 ADD PUSH2 0x2D34 SWAP1 PUSH2 0x4865 JUMP JUMPDEST PUSH1 0x40 MLOAD DUP1 SWAP2 SUB SWAP1 REVERT JUMPDEST JUMPDEST POP POP POP JUMP JUMPDEST PUSH2 0x2D4B PUSH2 0xD6C JUMP JUMPDEST PUSH2 0x2D8A JUMPI PUSH1 0x40 MLOAD PUSH32 0x8C379A000000000000000000000000000000000000000000000000000000000 DUP2 MSTORE PUSH1 0x4 ADD PUSH2 0x2D81 SWAP1 PUSH2 0x48D1 JUMP JUMPDEST PUSH1 0x40 MLOAD DUP1 SWAP2 SUB SWAP1 REVERT JUMPDEST PUSH2 0x2D94 DUP3 DUP3 PUSH2 0x2DB0 JUMP JUMPDEST POP POP JUMP JUMPDEST PUSH1 0x60 PUSH2 0x2DA7 DUP5 DUP5 PUSH1 0x0 DUP6 PUSH2 0x2E1C JUMP JUMPDEST SWAP1 POP SWAP4 SWAP3 POP POP POP JUMP JUMPDEST PUSH2 0x2DBA DUP3 DUP3 PUSH2 0x2F30 JUMP JUMPDEST PUSH1 0x7 SLOAD PUSH2 0x2DD7 DUP3 PUSH2 0x2DC9 PUSH2 0xD62 JUMP JUMPDEST PUSH2 0x1C54 SWAP1 SWAP2 SWAP1 PUSH4 0xFFFFFFFF AND JUMP JUMPDEST GT ISZERO PUSH2 0x2E18 JUMPI PUSH1 0x40 MLOAD PUSH32 0x8C379A000000000000000000000000000000000000000000000000000000000 DUP2 MSTORE PUSH1 0x4 ADD PUSH2 0x2E0F SWAP1 PUSH2 0x493D JUMP JUMPDEST PUSH1 0x40 MLOAD DUP1 SWAP2 SUB SWAP1 REVERT JUMPDEST POP POP JUMP JUMPDEST PUSH1 0x60 DUP3 SELFBALANCE LT ISZERO PUSH2 0x2E61 JUMPI PUSH1 0x40 MLOAD PUSH32 0x8C379A000000000000000000000000000000000000000000000000000000000 DUP2 MSTORE PUSH1 0x4 ADD PUSH2 0x2E58 SWAP1 PUSH2 0x49CF JUMP JUMPDEST PUSH1 0x40 MLOAD DUP1 SWAP2 SUB SWAP1 REVERT JUMPDEST PUSH2 0x2E6A DUP6 PUSH2 0x2FE6 JUMP JUMPDEST PUSH2 0x2EA9 JUMPI PUSH1 0x40 MLOAD PUSH32 0x8C379A000000000000000000000000000000000000000000000000000000000 DUP2 MSTORE PUSH1 0x4 ADD PUSH2 0x2EA0 SWAP1 PUSH2 0x4A3B JUMP JUMPDEST PUSH1 0x40 MLOAD DUP1 SWAP2 SUB SWAP1 REVERT JUMPDEST PUSH1 0x0 DUP1 DUP7 PUSH20 0xFFFFFFFFFFFFFFFFFFFFFFFFFFFFFFFFFFFFFFFF AND DUP6 DUP8 PUSH1 0x40 MLOAD PUSH2 0x2ED2 SWAP2 SWAP1 PUSH2 0x4AA2 JUMP JUMPDEST PUSH1 0x0 PUSH1 0x40 MLOAD DUP1 DUP4 SUB DUP2 DUP6 DUP8 GAS CALL SWAP3 POP POP POP RETURNDATASIZE DUP1 PUSH1 0x0 DUP2 EQ PUSH2 0x2F0F JUMPI PUSH1 0x40 MLOAD SWAP2 POP PUSH1 0x1F NOT PUSH1 0x3F RETURNDATASIZE ADD AND DUP3 ADD PUSH1 0x40 MSTORE RETURNDATASIZE DUP3 MSTORE RETURNDATASIZE PUSH1 0x0 PUSH1 0x20 DUP5 ADD RETURNDATACOPY PUSH2 0x2F14 JUMP JUMPDEST PUSH1 0x60 SWAP2 POP JUMPDEST POP SWAP2 POP SWAP2 POP PUSH2 0x2F24 DUP3 DUP3 DUP7 PUSH2 0x3009 JUMP JUMPDEST SWAP3 POP POP POP SWAP5 SWAP4 POP POP POP POP JUMP JUMPDEST PUSH1 0x0 PUSH20 0xFFFFFFFFFFFFFFFFFFFFFFFFFFFFFFFFFFFFFFFF AND DUP3 PUSH20 0xFFFFFFFFFFFFFFFFFFFFFFFFFFFFFFFFFFFFFFFF AND SUB PUSH2 0x2F9F JUMPI PUSH1 0x40 MLOAD PUSH32 0x8C379A000000000000000000000000000000000000000000000000000000000 DUP2 MSTORE PUSH1 0x4 ADD PUSH2 0x2F96 SWAP1 PUSH2 0x4B2B JUMP JUMPDEST PUSH1 0x40 MLOAD DUP1 SWAP2 SUB SWAP1 REVERT JUMPDEST PUSH1 0x0 DUP2 SUB PUSH2 0x2FE2 JUMPI PUSH1 0x40 MLOAD PUSH32 0x8C379A000000000000000000000000000000000000000000000000000000000 DUP2 MSTORE PUSH1 0x4 ADD PUSH2 0x2FD9 SWAP1 PUSH2 0x4B97 JUMP JUMPDEST PUSH1 0x40 MLOAD DUP1 SWAP2 SUB SWAP1 REVERT JUMPDEST POP POP JUMP JUMPDEST PUSH1 0x0 DUP1 DUP3 PUSH20 0xFFFFFFFFFFFFFFFFFFFFFFFFFFFFFFFFFFFFFFFF AND EXTCODESIZE GT SWAP1 POP SWAP2 SWAP1 POP JUMP JUMPDEST PUSH1 0x60 DUP4 ISZERO PUSH2 0x3019 JUMPI DUP3 SWAP1 POP PUSH2 0x3069 JUMP JUMPDEST PUSH1 0x0 DUP4 MLOAD GT ISZERO PUSH2 0x302C JUMPI DUP3 MLOAD DUP1 DUP5 PUSH1 0x20 ADD REVERT JUMPDEST DUP2 PUSH1 0x40 MLOAD PUSH32 0x8C379A000000000000000000000000000000000000000000000000000000000 DUP2 MSTORE PUSH1 0x4 ADD PUSH2 0x3060 SWAP2 SWAP1 PUSH2 0x4597 JUMP JUMPDEST PUSH1 0x40 MLOAD DUP1 SWAP2 SUB SWAP1 REVERT JUMPDEST SWAP4 SWAP3 POP POP POP JUMP JUMPDEST PUSH1 0x0 PUSH1 0x40 MLOAD SWAP1 POP SWAP1 JUMP JUMPDEST PUSH1 0x0 DUP1 REVERT JUMPDEST PUSH1 0x0 DUP1 REVERT JUMPDEST PUSH1 0x0 PUSH32 0xFFFFFFFF00000000000000000000000000000000000000000000000000000000 DUP3 AND SWAP1 POP SWAP2 SWAP1 POP JUMP JUMPDEST PUSH2 0x30B9 DUP2 PUSH2 0x3084 JUMP JUMPDEST DUP2 EQ PUSH2 0x30C4 JUMPI PUSH1 0x0 DUP1 REVERT JUMPDEST POP JUMP JUMPDEST PUSH1 0x0 DUP2 CALLDATALOAD SWAP1 POP PUSH2 0x30D6 DUP2 PUSH2 0x30B0 JUMP JUMPDEST SWAP3 SWAP2 POP POP JUMP JUMPDEST PUSH1 0x0 PUSH1 0x20 DUP3 DUP5 SUB SLT ISZERO PUSH2 0x30F2 JUMPI PUSH2 0x30F1 PUSH2 0x307A JUMP JUMPDEST JUMPDEST PUSH1 0x0 PUSH2 0x3100 DUP5 DUP3 DUP6 ADD PUSH2 0x30C7 JUMP JUMPDEST SWAP2 POP POP SWAP3 SWAP2 POP POP JUMP JUMPDEST PUSH1 0x0 DUP2 ISZERO ISZERO SWAP1 POP SWAP2 SWAP1 POP JUMP JUMPDEST PUSH2 0x311E DUP2 PUSH2 0x3109 JUMP JUMPDEST DUP3 MSTORE POP POP JUMP JUMPDEST PUSH1 0x0 PUSH1 0x20 DUP3 ADD SWAP1 POP PUSH2 0x3139 PUSH1 0x0 DUP4 ADD DUP5 PUSH2 0x3115 JUMP JUMPDEST SWAP3 SWAP2 POP POP JUMP JUMPDEST PUSH1 0x0 DUP2 SWAP1 POP SWAP2 SWAP1 POP JUMP JUMPDEST PUSH2 0x3152 DUP2 PUSH2 0x313F JUMP JUMPDEST DUP3 MSTORE POP POP JUMP JUMPDEST PUSH1 0x0 PUSH1 0x20 DUP3 ADD SWAP1 POP PUSH2 0x316D PUSH1 0x0 DUP4 ADD DUP5 PUSH2 0x3149 JUMP JUMPDEST SWAP3 SWAP2 POP POP JUMP JUMPDEST PUSH1 0x0 PUSH20 0xFFFFFFFFFFFFFFFFFFFFFFFFFFFFFFFFFFFFFFFF DUP3 AND SWAP1 POP SWAP2 SWAP1 POP JUMP JUMPDEST PUSH1 0x0 PUSH2 0x319E DUP3 PUSH2 0x3173 JUMP JUMPDEST SWAP1 POP SWAP2 SWAP1 POP JUMP JUMPDEST PUSH2 0x31AE DUP2 PUSH2 0x3193 JUMP JUMPDEST DUP2 EQ PUSH2 0x31B9 JUMPI PUSH1 0x0 DUP1 REVERT JUMPDEST POP JUMP JUMPDEST PUSH1 0x0 DUP2 CALLDATALOAD SWAP1 POP PUSH2 0x31CB DUP2 PUSH2 0x31A5 JUMP JUMPDEST SWAP3 SWAP2 POP POP JUMP JUMPDEST PUSH1 0x0 PUSH1 0x20 DUP3 DUP5 SUB SLT ISZERO PUSH2 0x31E7 JUMPI PUSH2 0x31E6 PUSH2 0x307A JUMP JUMPDEST JUMPDEST PUSH1 0x0 PUSH2 0x31F5 DUP5 DUP3 DUP6 ADD PUSH2 0x31BC JUMP JUMPDEST SWAP2 POP POP SWAP3 SWAP2 POP POP JUMP JUMPDEST PUSH1 0x0 DUP2 SWAP1 POP SWAP2 SWAP1 POP JUMP JUMPDEST PUSH2 0x3211 DUP2 PUSH2 0x31FE JUMP JUMPDEST DUP2 EQ PUSH2 0x321C JUMPI PUSH1 0x0 DUP1 REVERT JUMPDEST POP JUMP JUMPDEST PUSH1 0x0 DUP2 CALLDATALOAD SWAP1 POP PUSH2 0x322E DUP2 PUSH2 0x3208 JUMP JUMPDEST SWAP3 SWAP2 POP POP JUMP JUMPDEST PUSH1 0x0 PUSH1 0x20 DUP3 DUP5 SUB SLT ISZERO PUSH2 0x324A JUMPI PUSH2 0x3249 PUSH2 0x307A JUMP JUMPDEST JUMPDEST PUSH1 0x0 PUSH2 0x3258 DUP5 DUP3 DUP6 ADD PUSH2 0x321F JUMP JUMPDEST SWAP2 POP POP SWAP3 SWAP2 POP POP JUMP JUMPDEST PUSH2 0x326A DUP2 PUSH2 0x31FE JUMP JUMPDEST DUP3 MSTORE POP POP JUMP JUMPDEST PUSH1 0x0 PUSH1 0x20 DUP3 ADD SWAP1 POP PUSH2 0x3285 PUSH1 0x0 DUP4 ADD DUP5 PUSH2 0x3261 JUMP JUMPDEST SWAP3 SWAP2 POP POP JUMP JUMPDEST PUSH1 0x0 DUP1 PUSH1 0x40 DUP4 DUP6 SUB SLT ISZERO PUSH2 0x32A2 JUMPI PUSH2 0x32A1 PUSH2 0x307A JUMP JUMPDEST JUMPDEST PUSH1 0x0 PUSH2 0x32B0 DUP6 DUP3 DUP7 ADD PUSH2 0x321F JUMP JUMPDEST SWAP3 POP POP PUSH1 0x20 PUSH2 0x32C1 DUP6 DUP3 DUP7 ADD PUSH2 0x31BC JUMP JUMPDEST SWAP2 POP POP SWAP3 POP SWAP3 SWAP1 POP JUMP JUMPDEST PUSH2 0x32D4 DUP2 PUSH2 0x313F JUMP JUMPDEST DUP2 EQ PUSH2 0x32DF JUMPI PUSH1 0x0 DUP1 REVERT JUMPDEST POP JUMP JUMPDEST PUSH1 0x0 DUP2 CALLDATALOAD SWAP1 POP PUSH2 0x32F1 DUP2 PUSH2 0x32CB JUMP JUMPDEST SWAP3 SWAP2 POP POP JUMP JUMPDEST PUSH1 0x0 PUSH1 0x20 DUP3 DUP5 SUB SLT ISZERO PUSH2 0x330D JUMPI PUSH2 0x330C PUSH2 0x307A JUMP JUMPDEST JUMPDEST PUSH1 0x0 PUSH2 0x331B DUP5 DUP3 DUP6 ADD PUSH2 0x32E2 JUMP JUMPDEST SWAP2 POP POP SWAP3 SWAP2 POP POP JUMP JUMPDEST PUSH2 0x332D DUP2 PUSH2 0x3193 JUMP JUMPDEST DUP3 MSTORE POP POP JUMP JUMPDEST PUSH1 0x0 PUSH1 0x60 DUP3 ADD SWAP1 POP PUSH2 0x3348 PUSH1 0x0 DUP4 ADD DUP7 PUSH2 0x3324 JUMP JUMPDEST PUSH2 0x3355 PUSH1 0x20 DUP4 ADD DUP6 PUSH2 0x3149 JUMP JUMPDEST PUSH2 0x3362 PUSH1 0x40 DUP4 ADD DUP5 PUSH2 0x3115 JUMP JUMPDEST SWAP5 SWAP4 POP POP POP POP JUMP JUMPDEST PUSH1 0x0 DUP2 MLOAD SWAP1 POP SWAP2 SWAP1 POP JUMP JUMPDEST PUSH1 0x0 DUP3 DUP3 MSTORE PUSH1 0x20 DUP3 ADD SWAP1 POP SWAP3 SWAP2 POP POP JUMP JUMPDEST PUSH1 0x0 JUMPDEST DUP4 DUP2 LT ISZERO PUSH2 0x33A4 JUMPI DUP1 DUP3 ADD MLOAD DUP2 DUP5 ADD MSTORE PUSH1 0x20 DUP2 ADD SWAP1 POP PUSH2 0x3389 JUMP JUMPDEST PUSH1 0x0 DUP5 DUP5 ADD MSTORE POP POP POP POP JUMP JUMPDEST PUSH1 0x0 PUSH1 0x1F NOT PUSH1 0x1F DUP4 ADD AND SWAP1 POP SWAP2 SWAP1 POP JUMP JUMPDEST PUSH1 0x0 PUSH2 0x33CC DUP3 PUSH2 0x336A JUMP JUMPDEST PUSH2 0x33D6 DUP2 DUP6 PUSH2 0x3375 JUMP JUMPDEST SWAP4 POP PUSH2 0x33E6 DUP2 DUP6 PUSH1 0x20 DUP7 ADD PUSH2 0x3386 JUMP JUMPDEST PUSH2 0x33EF DUP2 PUSH2 0x33B0 JUMP JUMPDEST DUP5 ADD SWAP2 POP POP SWAP3 SWAP2 POP POP JUMP JUMPDEST PUSH1 0x0 PUSH1 0xC0 DUP3 ADD SWAP1 POP DUP2 DUP2 SUB PUSH1 0x0 DUP4 ADD MSTORE PUSH2 0x3414 DUP2 DUP10 PUSH2 0x33C1 JUMP JUMPDEST SWAP1 POP PUSH2 0x3423 PUSH1 0x20 DUP4 ADD DUP9 PUSH2 0x3324 JUMP JUMPDEST PUSH2 0x3430 PUSH1 0x40 DUP4 ADD DUP8 PUSH2 0x3149 JUMP JUMPDEST PUSH2 0x343D PUSH1 0x60 DUP4 ADD DUP7 PUSH2 0x3149 JUMP JUMPDEST PUSH2 0x344A PUSH1 0x80 DUP4 ADD DUP6 PUSH2 0x3149 JUMP JUMPDEST PUSH2 0x3457 PUSH1 0xA0 DUP4 ADD DUP5 PUSH2 0x3115 JUMP JUMPDEST SWAP8 SWAP7 POP POP POP POP POP POP POP JUMP JUMPDEST PUSH1 0x0 PUSH2 0x346D DUP3 PUSH2 0x3173 JUMP JUMPDEST SWAP1 POP SWAP2 SWAP1 POP JUMP JUMPDEST PUSH2 0x347D DUP2 PUSH2 0x3462 JUMP JUMPDEST DUP3 MSTORE POP POP JUMP JUMPDEST PUSH1 0x0 PUSH1 0x20 DUP3 ADD SWAP1 POP PUSH2 0x3498 PUSH1 0x0 DUP4 ADD DUP5 PUSH2 0x3474 JUMP JUMPDEST SWAP3 SWAP2 POP POP JUMP JUMPDEST PUSH1 0x0 PUSH2 0x34A9 DUP3 PUSH2 0x3193 JUMP JUMPDEST SWAP1 POP SWAP2 SWAP1 POP JUMP JUMPDEST PUSH2 0x34B9 DUP2 PUSH2 0x349E JUMP JUMPDEST DUP2 EQ PUSH2 0x34C4 JUMPI PUSH1 0x0 DUP1 REVERT JUMPDEST POP JUMP JUMPDEST PUSH1 0x0 DUP2 CALLDATALOAD SWAP1 POP PUSH2 0x34D6 DUP2 PUSH2 0x34B0 JUMP JUMPDEST SWAP3 SWAP2 POP POP JUMP JUMPDEST PUSH1 0x0 PUSH1 0x20 DUP3 DUP5 SUB SLT ISZERO PUSH2 0x34F2 JUMPI PUSH2 0x34F1 PUSH2 0x307A JUMP JUMPDEST JUMPDEST PUSH1 0x0 PUSH2 0x3500 DUP5 DUP3 DUP6 ADD PUSH2 0x34C7 JUMP JUMPDEST SWAP2 POP POP SWAP3 SWAP2 POP POP JUMP JUMPDEST PUSH1 0x0 PUSH2 0x3514 DUP3 PUSH2 0x3193 JUMP JUMPDEST SWAP1 POP SWAP2 SWAP1 POP JUMP JUMPDEST PUSH2 0x3524 DUP2 PUSH2 0x3509 JUMP JUMPDEST DUP2 EQ PUSH2 0x352F JUMPI PUSH1 0x0 DUP1 REVERT JUMPDEST POP JUMP JUMPDEST PUSH1 0x0 DUP2 CALLDATALOAD SWAP1 POP PUSH2 0x3541 DUP2 PUSH2 0x351B JUMP JUMPDEST SWAP3 SWAP2 POP POP JUMP JUMPDEST PUSH1 0x0 PUSH1 0x20 DUP3 DUP5 SUB SLT ISZERO PUSH2 0x355D JUMPI PUSH2 0x355C PUSH2 0x307A JUMP JUMPDEST JUMPDEST PUSH1 0x0 PUSH2 0x356B DUP5 DUP3 DUP6 ADD PUSH2 0x3532 JUMP JUMPDEST SWAP2 POP POP SWAP3 SWAP2 POP POP JUMP JUMPDEST PUSH1 0x0 PUSH1 0x20 DUP3 ADD SWAP1 POP PUSH2 0x3589 PUSH1 0x0 DUP4 ADD DUP5 PUSH2 0x3324 JUMP JUMPDEST SWAP3 SWAP2 POP POP JUMP JUMPDEST PUSH1 0x0 DUP1 PUSH1 0x40 DUP4 DUP6 SUB SLT ISZERO PUSH2 0x35A6 JUMPI PUSH2 0x35A5 PUSH2 0x307A JUMP JUMPDEST JUMPDEST PUSH1 0x0 PUSH2 0x35B4 DUP6 DUP3 DUP7 ADD PUSH2 0x31BC JUMP JUMPDEST SWAP3 POP POP PUSH1 0x20 PUSH2 0x35C5 DUP6 DUP3 DUP7 ADD PUSH2 0x32E2 JUMP JUMPDEST SWAP2 POP POP SWAP3 POP SWAP3 SWAP1 POP JUMP JUMPDEST PUSH1 0x0 DUP2 SWAP1 POP SWAP2 SWAP1 POP JUMP JUMPDEST PUSH1 0x0 PUSH2 0x35F4 PUSH2 0x35EF PUSH2 0x35EA DUP5 PUSH2 0x3173 JUMP JUMPDEST PUSH2 0x35CF JUMP JUMPDEST PUSH2 0x3173 JUMP JUMPDEST SWAP1 POP SWAP2 SWAP1 POP JUMP JUMPDEST PUSH1 0x0 PUSH2 0x3606 DUP3 PUSH2 0x35D9 JUMP JUMPDEST SWAP1 POP SWAP2 SWAP1 POP JUMP JUMPDEST PUSH1 0x0 PUSH2 0x3618 DUP3 PUSH2 0x35FB JUMP JUMPDEST SWAP1 POP SWAP2 SWAP1 POP JUMP JUMPDEST PUSH2 0x3628 DUP2 PUSH2 0x360D JUMP JUMPDEST DUP3 MSTORE POP POP JUMP JUMPDEST PUSH1 0x0 PUSH1 0x20 DUP3 ADD SWAP1 POP PUSH2 0x3643 PUSH1 0x0 DUP4 ADD DUP5 PUSH2 0x361F JUMP JUMPDEST SWAP3 SWAP2 POP POP JUMP JUMPDEST PUSH1 0x0 DUP1 REVERT JUMPDEST PUSH1 0x0 DUP1 REVERT JUMPDEST PUSH32 0x4E487B7100000000000000000000000000000000000000000000000000000000 PUSH1 0x0 MSTORE PUSH1 0x41 PUSH1 0x4 MSTORE PUSH1 0x24 PUSH1 0x0 REVERT JUMPDEST PUSH2 0x368B DUP3 PUSH2 0x33B0 JUMP JUMPDEST DUP2 ADD DUP2 DUP2 LT PUSH8 0xFFFFFFFFFFFFFFFF DUP3 GT OR ISZERO PUSH2 0x36AA JUMPI PUSH2 0x36A9 PUSH2 0x3653 JUMP JUMPDEST JUMPDEST DUP1 PUSH1 0x40 MSTORE POP POP POP JUMP JUMPDEST PUSH1 0x0 PUSH2 0x36BD PUSH2 0x3070 JUMP JUMPDEST SWAP1 POP PUSH2 0x36C9 DUP3 DUP3 PUSH2 0x3682 JUMP JUMPDEST SWAP2 SWAP1 POP JUMP JUMPDEST PUSH1 0x0 PUSH8 0xFFFFFFFFFFFFFFFF DUP3 GT ISZERO PUSH2 0x36E9 JUMPI PUSH2 0x36E8 PUSH2 0x3653 JUMP JUMPDEST JUMPDEST PUSH2 0x36F2 DUP3 PUSH2 0x33B0 JUMP JUMPDEST SWAP1 POP PUSH1 0x20 DUP2 ADD SWAP1 POP SWAP2 SWAP1 POP JUMP JUMPDEST DUP3 DUP2 DUP4 CALLDATACOPY PUSH1 0x0 DUP4 DUP4 ADD MSTORE POP POP POP JUMP JUMPDEST PUSH1 0x0 PUSH2 0x3721 PUSH2 0x371C DUP5 PUSH2 0x36CE JUMP JUMPDEST PUSH2 0x36B3 JUMP JUMPDEST SWAP1 POP DUP3 DUP2 MSTORE PUSH1 0x20 DUP2 ADD DUP5 DUP5 DUP5 ADD GT ISZERO PUSH2 0x373D JUMPI PUSH2 0x373C PUSH2 0x364E JUMP JUMPDEST JUMPDEST PUSH2 0x3748 DUP5 DUP3 DUP6 PUSH2 0x36FF JUMP JUMPDEST POP SWAP4 SWAP3 POP POP POP JUMP JUMPDEST PUSH1 0x0 DUP3 PUSH1 0x1F DUP4 ADD SLT PUSH2 0x3765 JUMPI PUSH2 0x3764 PUSH2 0x3649 JUMP JUMPDEST JUMPDEST DUP2 CALLDATALOAD PUSH2 0x3775 DUP5 DUP3 PUSH1 0x20 DUP7 ADD PUSH2 0x370E JUMP JUMPDEST SWAP2 POP POP SWAP3 SWAP2 POP POP JUMP JUMPDEST PUSH1 0x0 DUP1 PUSH1 0x0 DUP1 PUSH1 0x0 PUSH1 0xA0 DUP7 DUP9 SUB SLT ISZERO PUSH2 0x379A JUMPI PUSH2 0x3799 PUSH2 0x307A JUMP JUMPDEST JUMPDEST PUSH1 0x0 DUP7 ADD CALLDATALOAD PUSH8 0xFFFFFFFFFFFFFFFF DUP2 GT ISZERO PUSH2 0x37B8 JUMPI PUSH2 0x37B7 PUSH2 0x307F JUMP JUMPDEST JUMPDEST PUSH2 0x37C4 DUP9 DUP3 DUP10 ADD PUSH2 0x3750 JUMP JUMPDEST SWAP6 POP POP PUSH1 0x20 PUSH2 0x37D5 DUP9 DUP3 DUP10 ADD PUSH2 0x31BC JUMP JUMPDEST SWAP5 POP POP PUSH1 0x40 PUSH2 0x37E6 DUP9 DUP3 DUP10 ADD PUSH2 0x32E2 JUMP JUMPDEST SWAP4 POP POP PUSH1 0x60 PUSH2 0x37F7 DUP9 DUP3 DUP10 ADD PUSH2 0x32E2 JUMP JUMPDEST SWAP3 POP POP PUSH1 0x80 PUSH2 0x3808 DUP9 DUP3 DUP10 ADD PUSH2 0x32E2 JUMP JUMPDEST SWAP2 POP POP SWAP3 SWAP6 POP SWAP3 SWAP6 SWAP1 SWAP4 POP JUMP JUMPDEST PUSH32 0x5265656E7472616E637947756172643A207265656E7472616E742063616C6C00 PUSH1 0x0 DUP3 ADD MSTORE POP JUMP JUMPDEST PUSH1 0x0 PUSH2 0x384B PUSH1 0x1F DUP4 PUSH2 0x3375 JUMP JUMPDEST SWAP2 POP PUSH2 0x3856 DUP3 PUSH2 0x3815 JUMP JUMPDEST PUSH1 0x20 DUP3 ADD SWAP1 POP SWAP2 SWAP1 POP JUMP JUMPDEST PUSH1 0x0 PUSH1 0x20 DUP3 ADD SWAP1 POP DUP2 DUP2 SUB PUSH1 0x0 DUP4 ADD MSTORE PUSH2 0x387A DUP2 PUSH2 0x383E JUMP JUMPDEST SWAP1 POP SWAP2 SWAP1 POP JUMP JUMPDEST PUSH32 0x416363657373436F6E74726F6C3A2063616E206F6E6C792072656E6F756E6365 PUSH1 0x0 DUP3 ADD MSTORE PUSH32 0x20726F6C657320666F722073656C660000000000000000000000000000000000 PUSH1 0x20 DUP3 ADD MSTORE POP JUMP JUMPDEST PUSH1 0x0 PUSH2 0x38DD PUSH1 0x2F DUP4 PUSH2 0x3375 JUMP JUMPDEST SWAP2 POP PUSH2 0x38E8 DUP3 PUSH2 0x3881 JUMP JUMPDEST PUSH1 0x40 DUP3 ADD SWAP1 POP SWAP2 SWAP1 POP JUMP JUMPDEST PUSH1 0x0 PUSH1 0x20 DUP3 ADD SWAP1 POP DUP2 DUP2 SUB PUSH1 0x0 DUP4 ADD MSTORE PUSH2 0x390C DUP2 PUSH2 0x38D0 JUMP JUMPDEST SWAP1 POP SWAP2 SWAP1 POP JUMP JUMPDEST PUSH32 0x4E487B7100000000000000000000000000000000000000000000000000000000 PUSH1 0x0 MSTORE PUSH1 0x22 PUSH1 0x4 MSTORE PUSH1 0x24 PUSH1 0x0 REVERT JUMPDEST PUSH1 0x0 PUSH1 0x2 DUP3 DIV SWAP1 POP PUSH1 0x1 DUP3 AND DUP1 PUSH2 0x395A JUMPI PUSH1 0x7F DUP3 AND SWAP2 POP JUMPDEST PUSH1 0x20 DUP3 LT DUP2 SUB PUSH2 0x396D JUMPI PUSH2 0x396C PUSH2 0x3913 JUMP JUMPDEST JUMPDEST POP SWAP2 SWAP1 POP JUMP JUMPDEST PUSH32 0x46696E616C697A61626C6543726F776473616C653A204E6F7420436C6F736564 PUSH1 0x0 DUP3 ADD MSTORE POP JUMP JUMPDEST PUSH1 0x0 PUSH2 0x39A9 PUSH1 0x20 DUP4 PUSH2 0x3375 JUMP JUMPDEST SWAP2 POP PUSH2 0x39B4 DUP3 PUSH2 0x3973 JUMP JUMPDEST PUSH1 0x20 DUP3 ADD SWAP1 POP SWAP2 SWAP1 POP JUMP JUMPDEST PUSH1 0x0 PUSH1 0x20 DUP3 ADD SWAP1 POP DUP2 DUP2 SUB PUSH1 0x0 DUP4 ADD MSTORE PUSH2 0x39D8 DUP2 PUSH2 0x399C JUMP JUMPDEST SWAP1 POP SWAP2 SWAP1 POP JUMP JUMPDEST PUSH32 0x4E487B7100000000000000000000000000000000000000000000000000000000 PUSH1 0x0 MSTORE PUSH1 0x32 PUSH1 0x4 MSTORE PUSH1 0x24 PUSH1 0x0 REVERT JUMPDEST PUSH1 0x0 DUP2 SWAP1 POP SWAP2 SWAP1 POP JUMP JUMPDEST PUSH1 0x0 PUSH2 0x3A33 PUSH2 0x3A2E PUSH2 0x3A29 DUP5 PUSH2 0x3A0E JUMP JUMPDEST PUSH2 0x35CF JUMP JUMPDEST PUSH2 0x313F JUMP JUMPDEST SWAP1 POP SWAP2 SWAP1 POP JUMP JUMPDEST PUSH2 0x3A43 DUP2 PUSH2 0x3A18 JUMP JUMPDEST DUP3 MSTORE POP POP JUMP JUMPDEST PUSH1 0x0 PUSH2 0x100 DUP3 ADD SWAP1 POP PUSH2 0x3A5F PUSH1 0x0 DUP4 ADD DUP12 PUSH2 0x3324 JUMP JUMPDEST PUSH2 0x3A6C PUSH1 0x20 DUP4 ADD DUP11 PUSH2 0x3149 JUMP JUMPDEST PUSH2 0x3A79 PUSH1 0x40 DUP4 ADD DUP10 PUSH2 0x3149 JUMP JUMPDEST PUSH2 0x3A86 PUSH1 0x60 DUP4 ADD DUP9 PUSH2 0x3149 JUMP JUMPDEST PUSH2 0x3A93 PUSH1 0x80 DUP4 ADD DUP8 PUSH2 0x3A3A JUMP JUMPDEST PUSH2 0x3AA0 PUSH1 0xA0 DUP4 ADD DUP7 PUSH2 0x3115 JUMP JUMPDEST PUSH2 0x3AAD PUSH1 0xC0 DUP4 ADD DUP6 PUSH2 0x3149 JUMP JUMPDEST PUSH2 0x3ABA PUSH1 0xE0 DUP4 ADD DUP5 PUSH2 0x3115 JUMP JUMPDEST SWAP10 SWAP9 POP POP POP POP POP POP POP POP POP JUMP JUMPDEST PUSH32 0x4E487B7100000000000000000000000000000000000000000000000000000000 PUSH1 0x0 MSTORE PUSH1 0x11 PUSH1 0x4 MSTORE PUSH1 0x24 PUSH1 0x0 REVERT JUMPDEST PUSH1 0x0 PUSH2 0x3B01 DUP3 PUSH2 0x313F JUMP JUMPDEST SWAP2 POP PUSH32 0xFFFFFFFFFFFFFFFFFFFFFFFFFFFFFFFFFFFFFFFFFFFFFFFFFFFFFFFFFFFFFFFF DUP3 SUB PUSH2 0x3B33 JUMPI PUSH2 0x3B32 PUSH2 0x3AC7 JUMP JUMPDEST JUMPDEST PUSH1 0x1 DUP3 ADD SWAP1 POP SWAP2 SWAP1 POP JUMP JUMPDEST PUSH32 0x56616C69642056657374696E6720636F6E747261637420726571756972656400 PUSH1 0x0 DUP3 ADD MSTORE POP JUMP JUMPDEST PUSH1 0x0 PUSH2 0x3B74 PUSH1 0x1F DUP4 PUSH2 0x3375 JUMP JUMPDEST SWAP2 POP PUSH2 0x3B7F DUP3 PUSH2 0x3B3E JUMP JUMPDEST PUSH1 0x20 DUP3 ADD SWAP1 POP SWAP2 SWAP1 POP JUMP JUMPDEST PUSH1 0x0 PUSH1 0x20 DUP3 ADD SWAP1 POP DUP2 DUP2 SUB PUSH1 0x0 DUP4 ADD MSTORE PUSH2 0x3BA3 DUP2 PUSH2 0x3B67 JUMP JUMPDEST SWAP1 POP SWAP2 SWAP1 POP JUMP JUMPDEST PUSH32 0x56616C696420546F6B656E204164647265737320526571756972656400000000 PUSH1 0x0 DUP3 ADD MSTORE POP JUMP JUMPDEST PUSH1 0x0 PUSH2 0x3BE0 PUSH1 0x1C DUP4 PUSH2 0x3375 JUMP JUMPDEST SWAP2 POP PUSH2 0x3BEB DUP3 PUSH2 0x3BAA JUMP JUMPDEST PUSH1 0x20 DUP3 ADD SWAP1 POP SWAP2 SWAP1 POP JUMP JUMPDEST PUSH1 0x0 PUSH1 0x20 DUP3 ADD SWAP1 POP DUP2 DUP2 SUB PUSH1 0x0 DUP4 ADD MSTORE PUSH2 0x3C0F DUP2 PUSH2 0x3BD3 JUMP JUMPDEST SWAP1 POP SWAP2 SWAP1 POP JUMP JUMPDEST PUSH32 0x56616C69642042656E6566696369617279206164647265737320697320726571 PUSH1 0x0 DUP3 ADD MSTORE PUSH32 0x7569726564000000000000000000000000000000000000000000000000000000 PUSH1 0x20 DUP3 ADD MSTORE POP JUMP JUMPDEST PUSH1 0x0 PUSH2 0x3C72 PUSH1 0x25 DUP4 PUSH2 0x3375 JUMP JUMPDEST SWAP2 POP PUSH2 0x3C7D DUP3 PUSH2 0x3C16 JUMP JUMPDEST PUSH1 0x40 DUP3 ADD SWAP1 POP SWAP2 SWAP1 POP JUMP JUMPDEST PUSH1 0x0 PUSH1 0x20 DUP3 ADD SWAP1 POP DUP2 DUP2 SUB PUSH1 0x0 DUP4 ADD MSTORE PUSH2 0x3CA1 DUP2 PUSH2 0x3C65 JUMP JUMPDEST SWAP1 POP SWAP2 SWAP1 POP JUMP JUMPDEST PUSH32 0x416D6F756E74206D7573742062652067726561746572207468616E207A65726F PUSH1 0x0 DUP3 ADD MSTORE PUSH32 0x2830290000000000000000000000000000000000000000000000000000000000 PUSH1 0x20 DUP3 ADD MSTORE POP JUMP JUMPDEST PUSH1 0x0 PUSH2 0x3D04 PUSH1 0x23 DUP4 PUSH2 0x3375 JUMP JUMPDEST SWAP2 POP PUSH2 0x3D0F DUP3 PUSH2 0x3CA8 JUMP JUMPDEST PUSH1 0x40 DUP3 ADD SWAP1 POP SWAP2 SWAP1 POP JUMP JUMPDEST PUSH1 0x0 PUSH1 0x20 DUP3 ADD SWAP1 POP DUP2 DUP2 SUB PUSH1 0x0 DUP4 ADD MSTORE PUSH2 0x3D33 DUP2 PUSH2 0x3CF7 JUMP JUMPDEST SWAP1 POP SWAP2 SWAP1 POP JUMP JUMPDEST PUSH1 0x0 DUP2 MLOAD SWAP1 POP PUSH2 0x3D49 DUP2 PUSH2 0x32CB JUMP JUMPDEST SWAP3 SWAP2 POP POP JUMP JUMPDEST PUSH1 0x0 PUSH1 0x20 DUP3 DUP5 SUB SLT ISZERO PUSH2 0x3D65 JUMPI PUSH2 0x3D64 PUSH2 0x307A JUMP JUMPDEST JUMPDEST PUSH1 0x0 PUSH2 0x3D73 DUP5 DUP3 DUP6 ADD PUSH2 0x3D3A JUMP JUMPDEST SWAP2 POP POP SWAP3 SWAP2 POP POP JUMP JUMPDEST PUSH1 0x0 PUSH1 0x40 DUP3 ADD SWAP1 POP PUSH2 0x3D91 PUSH1 0x0 DUP4 ADD DUP6 PUSH2 0x3149 JUMP JUMPDEST PUSH2 0x3D9E PUSH1 0x20 DUP4 ADD DUP5 PUSH2 0x3149 JUMP JUMPDEST SWAP4 SWAP3 POP POP POP JUMP JUMPDEST PUSH32 0x4275696C64657220416D6F756E74206578636565647320736861726573000000 PUSH1 0x0 DUP3 ADD MSTORE POP JUMP JUMPDEST PUSH1 0x0 PUSH2 0x3DDB PUSH1 0x1D DUP4 PUSH2 0x3375 JUMP JUMPDEST SWAP2 POP PUSH2 0x3DE6 DUP3 PUSH2 0x3DA5 JUMP JUMPDEST PUSH1 0x20 DUP3 ADD SWAP1 POP SWAP2 SWAP1 POP JUMP JUMPDEST PUSH1 0x0 PUSH1 0x20 DUP3 ADD SWAP1 POP DUP2 DUP2 SUB PUSH1 0x0 DUP4 ADD MSTORE PUSH2 0x3E0A DUP2 PUSH2 0x3DCE JUMP JUMPDEST SWAP1 POP SWAP2 SWAP1 POP JUMP JUMPDEST PUSH1 0x0 DUP2 SWAP1 POP DUP2 PUSH1 0x0 MSTORE PUSH1 0x20 PUSH1 0x0 KECCAK256 SWAP1 POP SWAP2 SWAP1 POP JUMP JUMPDEST PUSH1 0x0 PUSH1 0x20 PUSH1 0x1F DUP4 ADD DIV SWAP1 POP SWAP2 SWAP1 POP JUMP JUMPDEST PUSH1 0x0 DUP3 DUP3 SHL SWAP1 POP SWAP3 SWAP2 POP POP JUMP JUMPDEST PUSH1 0x0 PUSH1 0x8 DUP4 MUL PUSH2 0x3E73 PUSH32 0xFFFFFFFFFFFFFFFFFFFFFFFFFFFFFFFFFFFFFFFFFFFFFFFFFFFFFFFFFFFFFFFF DUP3 PUSH2 0x3E36 JUMP JUMPDEST PUSH2 0x3E7D DUP7 DUP4 PUSH2 0x3E36 JUMP JUMPDEST SWAP6 POP DUP1 NOT DUP5 AND SWAP4 POP DUP1 DUP7 AND DUP5 OR SWAP3 POP POP POP SWAP4 SWAP3 POP POP POP JUMP JUMPDEST PUSH1 0x0 PUSH2 0x3EB0 PUSH2 0x3EAB PUSH2 0x3EA6 DUP5 PUSH2 0x313F JUMP JUMPDEST PUSH2 0x35CF JUMP JUMPDEST PUSH2 0x313F JUMP JUMPDEST SWAP1 POP SWAP2 SWAP1 POP JUMP JUMPDEST PUSH1 0x0 DUP2 SWAP1 POP SWAP2 SWAP1 POP JUMP JUMPDEST PUSH2 0x3ECA DUP4 PUSH2 0x3E95 JUMP JUMPDEST PUSH2 0x3EDE PUSH2 0x3ED6 DUP3 PUSH2 0x3EB7 JUMP JUMPDEST DUP5 DUP5 SLOAD PUSH2 0x3E43 JUMP JUMPDEST DUP3 SSTORE POP POP POP POP JUMP JUMPDEST PUSH1 0x0 SWAP1 JUMP JUMPDEST PUSH2 0x3EF3 PUSH2 0x3EE6 JUMP JUMPDEST PUSH2 0x3EFE DUP2 DUP5 DUP5 PUSH2 0x3EC1 JUMP JUMPDEST POP POP POP JUMP JUMPDEST JUMPDEST DUP2 DUP2 LT ISZERO PUSH2 0x3F22 JUMPI PUSH2 0x3F17 PUSH1 0x0 DUP3 PUSH2 0x3EEB JUMP JUMPDEST PUSH1 0x1 DUP2 ADD SWAP1 POP PUSH2 0x3F04 JUMP JUMPDEST POP POP JUMP JUMPDEST PUSH1 0x1F DUP3 GT ISZERO PUSH2 0x3F67 JUMPI PUSH2 0x3F38 DUP2 PUSH2 0x3E11 JUMP JUMPDEST PUSH2 0x3F41 DUP5 PUSH2 0x3E26 JUMP JUMPDEST DUP2 ADD PUSH1 0x20 DUP6 LT ISZERO PUSH2 0x3F50 JUMPI DUP2 SWAP1 POP JUMPDEST PUSH2 0x3F64 PUSH2 0x3F5C DUP6 PUSH2 0x3E26 JUMP JUMPDEST DUP4 ADD DUP3 PUSH2 0x3F03 JUMP JUMPDEST POP POP JUMPDEST POP POP POP JUMP JUMPDEST PUSH1 0x0 DUP3 DUP3 SHR SWAP1 POP SWAP3 SWAP2 POP POP JUMP JUMPDEST PUSH1 0x0 PUSH2 0x3F8A PUSH1 0x0 NOT DUP5 PUSH1 0x8 MUL PUSH2 0x3F6C JUMP JUMPDEST NOT DUP1 DUP4 AND SWAP2 POP POP SWAP3 SWAP2 POP POP JUMP JUMPDEST PUSH1 0x0 PUSH2 0x3FA3 DUP4 DUP4 PUSH2 0x3F79 JUMP JUMPDEST SWAP2 POP DUP3 PUSH1 0x2 MUL DUP3 OR SWAP1 POP SWAP3 SWAP2 POP POP JUMP JUMPDEST PUSH2 0x3FBC DUP3 PUSH2 0x336A JUMP JUMPDEST PUSH8 0xFFFFFFFFFFFFFFFF DUP2 GT ISZERO PUSH2 0x3FD5 JUMPI PUSH2 0x3FD4 PUSH2 0x3653 JUMP JUMPDEST JUMPDEST PUSH2 0x3FDF DUP3 SLOAD PUSH2 0x3942 JUMP JUMPDEST PUSH2 0x3FEA DUP3 DUP3 DUP6 PUSH2 0x3F26 JUMP JUMPDEST PUSH1 0x0 PUSH1 0x20 SWAP1 POP PUSH1 0x1F DUP4 GT PUSH1 0x1 DUP2 EQ PUSH2 0x401D JUMPI PUSH1 0x0 DUP5 ISZERO PUSH2 0x400B JUMPI DUP3 DUP8 ADD MLOAD SWAP1 POP JUMPDEST PUSH2 0x4015 DUP6 DUP3 PUSH2 0x3F97 JUMP JUMPDEST DUP7 SSTORE POP PUSH2 0x407D JUMP JUMPDEST PUSH1 0x1F NOT DUP5 AND PUSH2 0x402B DUP7 PUSH2 0x3E11 JUMP JUMPDEST PUSH1 0x0 JUMPDEST DUP3 DUP2 LT ISZERO PUSH2 0x4053 JUMPI DUP5 DUP10 ADD MLOAD DUP3 SSTORE PUSH1 0x1 DUP3 ADD SWAP2 POP PUSH1 0x20 DUP6 ADD SWAP5 POP PUSH1 0x20 DUP2 ADD SWAP1 POP PUSH2 0x402E JUMP JUMPDEST DUP7 DUP4 LT ISZERO PUSH2 0x4070 JUMPI DUP5 DUP10 ADD MLOAD PUSH2 0x406C PUSH1 0x1F DUP10 AND DUP3 PUSH2 0x3F79 JUMP JUMPDEST DUP4 SSTORE POP JUMPDEST PUSH1 0x1 PUSH1 0x2 DUP9 MUL ADD DUP9 SSTORE POP POP POP JUMPDEST POP POP POP POP POP POP JUMP JUMPDEST PUSH1 0x0 PUSH1 0xA0 DUP3 ADD SWAP1 POP DUP2 DUP2 SUB PUSH1 0x0 DUP4 ADD MSTORE PUSH2 0x409F DUP2 DUP9 PUSH2 0x33C1 JUMP JUMPDEST SWAP1 POP PUSH2 0x40AE PUSH1 0x20 DUP4 ADD DUP8 PUSH2 0x3324 JUMP JUMPDEST PUSH2 0x40BB PUSH1 0x40 DUP4 ADD DUP7 PUSH2 0x3149 JUMP JUMPDEST PUSH2 0x40C8 PUSH1 0x60 DUP4 ADD DUP6 PUSH2 0x3149 JUMP JUMPDEST PUSH2 0x40D5 PUSH1 0x80 DUP4 ADD DUP5 PUSH2 0x3149 JUMP JUMPDEST SWAP7 SWAP6 POP POP POP POP POP POP JUMP JUMPDEST PUSH32 0x46696E616C697A61626C6543726F776473616C653A206E6F7420636C6F736564 PUSH1 0x0 DUP3 ADD MSTORE POP JUMP JUMPDEST PUSH1 0x0 PUSH2 0x4115 PUSH1 0x20 DUP4 PUSH2 0x3375 JUMP JUMPDEST SWAP2 POP PUSH2 0x4120 DUP3 PUSH2 0x40DF JUMP JUMPDEST PUSH1 0x20 DUP3 ADD SWAP1 POP SWAP2 SWAP1 POP JUMP JUMPDEST PUSH1 0x0 PUSH1 0x20 DUP3 ADD SWAP1 POP DUP2 DUP2 SUB PUSH1 0x0 DUP4 ADD MSTORE PUSH2 0x4144 DUP2 PUSH2 0x4108 JUMP JUMPDEST SWAP1 POP SWAP2 SWAP1 POP JUMP JUMPDEST PUSH32 0x4F776E61626C653A206E6577206F776E657220697320746865207A65726F2061 PUSH1 0x0 DUP3 ADD MSTORE PUSH32 0x6464726573730000000000000000000000000000000000000000000000000000 PUSH1 0x20 DUP3 ADD MSTORE POP JUMP JUMPDEST PUSH1 0x0 PUSH2 0x41A7 PUSH1 0x26 DUP4 PUSH2 0x3375 JUMP JUMPDEST SWAP2 POP PUSH2 0x41B2 DUP3 PUSH2 0x414B JUMP JUMPDEST PUSH1 0x40 DUP3 ADD SWAP1 POP SWAP2 SWAP1 POP JUMP JUMPDEST PUSH1 0x0 PUSH1 0x20 DUP3 ADD SWAP1 POP DUP2 DUP2 SUB PUSH1 0x0 DUP4 ADD MSTORE PUSH2 0x41D6 DUP2 PUSH2 0x419A JUMP JUMPDEST SWAP1 POP SWAP2 SWAP1 POP JUMP JUMPDEST PUSH1 0x0 PUSH2 0x41E8 DUP3 PUSH2 0x313F JUMP JUMPDEST SWAP2 POP PUSH2 0x41F3 DUP4 PUSH2 0x313F JUMP JUMPDEST SWAP3 POP DUP3 DUP3 MUL PUSH2 0x4201 DUP2 PUSH2 0x313F JUMP JUMPDEST SWAP2 POP DUP3 DUP3 DIV DUP5 EQ DUP4 ISZERO OR PUSH2 0x4218 JUMPI PUSH2 0x4217 PUSH2 0x3AC7 JUMP JUMPDEST JUMPDEST POP SWAP3 SWAP2 POP POP JUMP JUMPDEST PUSH32 0x4E487B7100000000000000000000000000000000000000000000000000000000 PUSH1 0x0 MSTORE PUSH1 0x12 PUSH1 0x4 MSTORE PUSH1 0x24 PUSH1 0x0 REVERT JUMPDEST PUSH1 0x0 PUSH2 0x4259 DUP3 PUSH2 0x313F JUMP JUMPDEST SWAP2 POP PUSH2 0x4264 DUP4 PUSH2 0x313F JUMP JUMPDEST SWAP3 POP DUP3 PUSH2 0x4274 JUMPI PUSH2 0x4273 PUSH2 0x421F JUMP JUMPDEST JUMPDEST DUP3 DUP3 DIV SWAP1 POP SWAP3 SWAP2 POP POP JUMP JUMPDEST PUSH1 0x0 PUSH2 0x428A DUP3 PUSH2 0x313F JUMP JUMPDEST SWAP2 POP PUSH2 0x4295 DUP4 PUSH2 0x313F JUMP JUMPDEST SWAP3 POP DUP3 DUP3 ADD SWAP1 POP DUP1 DUP3 GT ISZERO PUSH2 0x42AD JUMPI PUSH2 0x42AC PUSH2 0x3AC7 JUMP JUMPDEST JUMPDEST SWAP3 SWAP2 POP POP JUMP JUMPDEST PUSH32 0x4F776E61626C653A2063616C6C6572206973206E6F7420746865206F776E6572 PUSH1 0x0 DUP3 ADD MSTORE POP JUMP JUMPDEST PUSH1 0x0 PUSH2 0x42E9 PUSH1 0x20 DUP4 PUSH2 0x3375 JUMP JUMPDEST SWAP2 POP PUSH2 0x42F4 DUP3 PUSH2 0x42B3 JUMP JUMPDEST PUSH1 0x20 DUP3 ADD SWAP1 POP SWAP2 SWAP1 POP JUMP JUMPDEST PUSH1 0x0 PUSH1 0x20 DUP3 ADD SWAP1 POP DUP2 DUP2 SUB PUSH1 0x0 DUP4 ADD MSTORE PUSH2 0x4318 DUP2 PUSH2 0x42DC JUMP JUMPDEST SWAP1 POP SWAP2 SWAP1 POP JUMP JUMPDEST PUSH32 0x5061757361626C653A206E6F7420706175736564000000000000000000000000 PUSH1 0x0 DUP3 ADD MSTORE POP JUMP JUMPDEST PUSH1 0x0 PUSH2 0x4355 PUSH1 0x14 DUP4 PUSH2 0x3375 JUMP JUMPDEST SWAP2 POP PUSH2 0x4360 DUP3 PUSH2 0x431F JUMP JUMPDEST PUSH1 0x20 DUP3 ADD SWAP1 POP SWAP2 SWAP1 POP JUMP JUMPDEST PUSH1 0x0 PUSH1 0x20 DUP3 ADD SWAP1 POP DUP2 DUP2 SUB PUSH1 0x0 DUP4 ADD MSTORE PUSH2 0x4384 DUP2 PUSH2 0x4348 JUMP JUMPDEST SWAP1 POP SWAP2 SWAP1 POP JUMP JUMPDEST PUSH32 0x46696E616C697A61626C6543726F776473616C653A20616C7265616479206669 PUSH1 0x0 DUP3 ADD MSTORE PUSH32 0x6E616C697A656400000000000000000000000000000000000000000000000000 PUSH1 0x20 DUP3 ADD MSTORE POP JUMP JUMPDEST PUSH1 0x0 PUSH2 0x43E7 PUSH1 0x27 DUP4 PUSH2 0x3375 JUMP JUMPDEST SWAP2 POP PUSH2 0x43F2 DUP3 PUSH2 0x438B JUMP JUMPDEST PUSH1 0x40 DUP3 ADD SWAP1 POP SWAP2 SWAP1 POP JUMP JUMPDEST PUSH1 0x0 PUSH1 0x20 DUP3 ADD SWAP1 POP DUP2 DUP2 SUB PUSH1 0x0 DUP4 ADD MSTORE PUSH2 0x4416 DUP2 PUSH2 0x43DA JUMP JUMPDEST SWAP1 POP SWAP2 SWAP1 POP JUMP JUMPDEST PUSH32 0x5061757361626C653A2070617573656400000000000000000000000000000000 PUSH1 0x0 DUP3 ADD MSTORE POP JUMP JUMPDEST PUSH1 0x0 PUSH2 0x4453 PUSH1 0x10 DUP4 PUSH2 0x3375 JUMP JUMPDEST SWAP2 POP PUSH2 0x445E DUP3 PUSH2 0x441D JUMP JUMPDEST PUSH1 0x20 DUP3 ADD SWAP1 POP SWAP2 SWAP1 POP JUMP JUMPDEST PUSH1 0x0 PUSH1 0x20 DUP3 ADD SWAP1 POP DUP2 DUP2 SUB PUSH1 0x0 DUP4 ADD MSTORE PUSH2 0x4482 DUP2 PUSH2 0x4446 JUMP JUMPDEST SWAP1 POP SWAP2 SWAP1 POP JUMP JUMPDEST PUSH1 0x0 DUP2 SWAP1 POP SWAP3 SWAP2 POP POP JUMP JUMPDEST PUSH32 0x416363657373436F6E74726F6C3A206163636F756E7420000000000000000000 PUSH1 0x0 DUP3 ADD MSTORE POP JUMP JUMPDEST PUSH1 0x0 PUSH2 0x44CA PUSH1 0x17 DUP4 PUSH2 0x4489 JUMP JUMPDEST SWAP2 POP PUSH2 0x44D5 DUP3 PUSH2 0x4494 JUMP JUMPDEST PUSH1 0x17 DUP3 ADD SWAP1 POP SWAP2 SWAP1 POP JUMP JUMPDEST PUSH1 0x0 PUSH2 0x44EB DUP3 PUSH2 0x336A JUMP JUMPDEST PUSH2 0x44F5 DUP2 DUP6 PUSH2 0x4489 JUMP JUMPDEST SWAP4 POP PUSH2 0x4505 DUP2 DUP6 PUSH1 0x20 DUP7 ADD PUSH2 0x3386 JUMP JUMPDEST DUP1 DUP5 ADD SWAP2 POP POP SWAP3 SWAP2 POP POP JUMP JUMPDEST PUSH32 0x206973206D697373696E6720726F6C6520000000000000000000000000000000 PUSH1 0x0 DUP3 ADD MSTORE POP JUMP JUMPDEST PUSH1 0x0 PUSH2 0x4547 PUSH1 0x11 DUP4 PUSH2 0x4489 JUMP JUMPDEST SWAP2 POP PUSH2 0x4552 DUP3 PUSH2 0x4511 JUMP JUMPDEST PUSH1 0x11 DUP3 ADD SWAP1 POP SWAP2 SWAP1 POP JUMP JUMPDEST PUSH1 0x0 PUSH2 0x4568 DUP3 PUSH2 0x44BD JUMP JUMPDEST SWAP2 POP PUSH2 0x4574 DUP3 DUP6 PUSH2 0x44E0 JUMP JUMPDEST SWAP2 POP PUSH2 0x457F DUP3 PUSH2 0x453A JUMP JUMPDEST SWAP2 POP PUSH2 0x458B DUP3 DUP5 PUSH2 0x44E0 JUMP JUMPDEST SWAP2 POP DUP2 SWAP1 POP SWAP4 SWAP3 POP POP POP JUMP JUMPDEST PUSH1 0x0 PUSH1 0x20 DUP3 ADD SWAP1 POP DUP2 DUP2 SUB PUSH1 0x0 DUP4 ADD MSTORE PUSH2 0x45B1 DUP2 DUP5 PUSH2 0x33C1 JUMP JUMPDEST SWAP1 POP SWAP3 SWAP2 POP POP JUMP JUMPDEST PUSH1 0x0 PUSH2 0x45C4 DUP3 PUSH2 0x313F JUMP JUMPDEST SWAP2 POP PUSH2 0x45CF DUP4 PUSH2 0x313F JUMP JUMPDEST SWAP3 POP DUP3 DUP3 SUB SWAP1 POP DUP2 DUP2 GT ISZERO PUSH2 0x45E7 JUMPI PUSH2 0x45E6 PUSH2 0x3AC7 JUMP JUMPDEST JUMPDEST SWAP3 SWAP2 POP POP JUMP JUMPDEST PUSH1 0x0 PUSH1 0x60 DUP3 ADD SWAP1 POP PUSH2 0x4602 PUSH1 0x0 DUP4 ADD DUP7 PUSH2 0x3324 JUMP JUMPDEST PUSH2 0x460F PUSH1 0x20 DUP4 ADD DUP6 PUSH2 0x3324 JUMP JUMPDEST PUSH2 0x461C PUSH1 0x40 DUP4 ADD DUP5 PUSH2 0x3149 JUMP JUMPDEST SWAP5 SWAP4 POP POP POP POP JUMP JUMPDEST PUSH1 0x0 PUSH2 0x462F DUP3 PUSH2 0x313F JUMP JUMPDEST SWAP2 POP PUSH1 0x0 DUP3 SUB PUSH2 0x4642 JUMPI PUSH2 0x4641 PUSH2 0x3AC7 JUMP JUMPDEST JUMPDEST PUSH1 0x1 DUP3 SUB SWAP1 POP SWAP2 SWAP1 POP JUMP JUMPDEST PUSH32 0x537472696E67733A20686578206C656E67746820696E73756666696369656E74 PUSH1 0x0 DUP3 ADD MSTORE POP JUMP JUMPDEST PUSH1 0x0 PUSH2 0x4683 PUSH1 0x20 DUP4 PUSH2 0x3375 JUMP JUMPDEST SWAP2 POP PUSH2 0x468E DUP3 PUSH2 0x464D JUMP JUMPDEST PUSH1 0x20 DUP3 ADD SWAP1 POP SWAP2 SWAP1 POP JUMP JUMPDEST PUSH1 0x0 PUSH1 0x20 DUP3 ADD SWAP1 POP DUP2 DUP2 SUB PUSH1 0x0 DUP4 ADD MSTORE PUSH2 0x46B2 DUP2 PUSH2 0x4676 JUMP JUMPDEST SWAP1 POP SWAP2 SWAP1 POP JUMP JUMPDEST PUSH1 0x0 PUSH1 0x40 DUP3 ADD SWAP1 POP PUSH2 0x46CE PUSH1 0x0 DUP4 ADD DUP6 PUSH2 0x3324 JUMP JUMPDEST PUSH2 0x46DB PUSH1 0x20 DUP4 ADD DUP5 PUSH2 0x3149 JUMP JUMPDEST SWAP4 SWAP3 POP POP POP JUMP JUMPDEST PUSH32 0x57686974656C69737443726F776473616C653A2062656E656669636961727920 PUSH1 0x0 DUP3 ADD MSTORE PUSH32 0x646F65736E27742068617665207468652057686974656C697374656420726F6C PUSH1 0x20 DUP3 ADD MSTORE PUSH32 0x6500000000000000000000000000000000000000000000000000000000000000 PUSH1 0x40 DUP3 ADD MSTORE POP JUMP JUMPDEST PUSH1 0x0 PUSH2 0x4764 PUSH1 0x41 DUP4 PUSH2 0x3375 JUMP JUMPDEST SWAP2 POP PUSH2 0x476F DUP3 PUSH2 0x46E2 JUMP JUMPDEST PUSH1 0x60 DUP3 ADD SWAP1 POP SWAP2 SWAP1 POP JUMP JUMPDEST PUSH1 0x0 PUSH1 0x20 DUP3 ADD SWAP1 POP DUP2 DUP2 SUB PUSH1 0x0 DUP4 ADD MSTORE PUSH2 0x4793 DUP2 PUSH2 0x4757 JUMP JUMPDEST SWAP1 POP SWAP2 SWAP1 POP JUMP JUMPDEST PUSH2 0x47A3 DUP2 PUSH2 0x3109 JUMP JUMPDEST DUP2 EQ PUSH2 0x47AE JUMPI PUSH1 0x0 DUP1 REVERT JUMPDEST POP JUMP JUMPDEST PUSH1 0x0 DUP2 MLOAD SWAP1 POP PUSH2 0x47C0 DUP2 PUSH2 0x479A JUMP JUMPDEST SWAP3 SWAP2 POP POP JUMP JUMPDEST PUSH1 0x0 PUSH1 0x20 DUP3 DUP5 SUB SLT ISZERO PUSH2 0x47DC JUMPI PUSH2 0x47DB PUSH2 0x307A JUMP JUMPDEST JUMPDEST PUSH1 0x0 PUSH2 0x47EA DUP5 DUP3 DUP6 ADD PUSH2 0x47B1 JUMP JUMPDEST SWAP2 POP POP SWAP3 SWAP2 POP POP JUMP JUMPDEST PUSH32 0x5361666545524332303A204552433230206F7065726174696F6E20646964206E PUSH1 0x0 DUP3 ADD MSTORE PUSH32 0x6F74207375636365656400000000000000000000000000000000000000000000 PUSH1 0x20 DUP3 ADD MSTORE POP JUMP JUMPDEST PUSH1 0x0 PUSH2 0x484F PUSH1 0x2A DUP4 PUSH2 0x3375 JUMP JUMPDEST SWAP2 POP PUSH2 0x485A DUP3 PUSH2 0x47F3 JUMP JUMPDEST PUSH1 0x40 DUP3 ADD SWAP1 POP SWAP2 SWAP1 POP JUMP JUMPDEST PUSH1 0x0 PUSH1 0x20 DUP3 ADD SWAP1 POP DUP2 DUP2 SUB PUSH1 0x0 DUP4 ADD MSTORE PUSH2 0x487E DUP2 PUSH2 0x4842 JUMP JUMPDEST SWAP1 POP SWAP2 SWAP1 POP JUMP JUMPDEST PUSH32 0x54696D656443726F776473616C653A206E6F74206F70656E0000000000000000 PUSH1 0x0 DUP3 ADD MSTORE POP JUMP JUMPDEST PUSH1 0x0 PUSH2 0x48BB PUSH1 0x18 DUP4 PUSH2 0x3375 JUMP JUMPDEST SWAP2 POP PUSH2 0x48C6 DUP3 PUSH2 0x4885 JUMP JUMPDEST PUSH1 0x20 DUP3 ADD SWAP1 POP SWAP2 SWAP1 POP JUMP JUMPDEST PUSH1 0x0 PUSH1 0x20 DUP3 ADD SWAP1 POP DUP2 DUP2 SUB PUSH1 0x0 DUP4 ADD MSTORE PUSH2 0x48EA DUP2 PUSH2 0x48AE JUMP JUMPDEST SWAP1 POP SWAP2 SWAP1 POP JUMP JUMPDEST PUSH32 0x43617070656443726F776473616C653A20636170206578636565646564000000 PUSH1 0x0 DUP3 ADD MSTORE POP JUMP JUMPDEST PUSH1 0x0 PUSH2 0x4927 PUSH1 0x1D DUP4 PUSH2 0x3375 JUMP JUMPDEST SWAP2 POP PUSH2 0x4932 DUP3 PUSH2 0x48F1 JUMP JUMPDEST PUSH1 0x20 DUP3 ADD SWAP1 POP SWAP2 SWAP1 POP JUMP JUMPDEST PUSH1 0x0 PUSH1 0x20 DUP3 ADD SWAP1 POP DUP2 DUP2 SUB PUSH1 0x0 DUP4 ADD MSTORE PUSH2 0x4956 DUP2 PUSH2 0x491A JUMP JUMPDEST SWAP1 POP SWAP2 SWAP1 POP JUMP JUMPDEST PUSH32 0x416464726573733A20696E73756666696369656E742062616C616E636520666F PUSH1 0x0 DUP3 ADD MSTORE PUSH32 0x722063616C6C0000000000000000000000000000000000000000000000000000 PUSH1 0x20 DUP3 ADD MSTORE POP JUMP JUMPDEST PUSH1 0x0 PUSH2 0x49B9 PUSH1 0x26 DUP4 PUSH2 0x3375 JUMP JUMPDEST SWAP2 POP PUSH2 0x49C4 DUP3 PUSH2 0x495D JUMP JUMPDEST PUSH1 0x40 DUP3 ADD SWAP1 POP SWAP2 SWAP1 POP JUMP JUMPDEST PUSH1 0x0 PUSH1 0x20 DUP3 ADD SWAP1 POP DUP2 DUP2 SUB PUSH1 0x0 DUP4 ADD MSTORE PUSH2 0x49E8 DUP2 PUSH2 0x49AC JUMP JUMPDEST SWAP1 POP SWAP2 SWAP1 POP JUMP JUMPDEST PUSH32 0x416464726573733A2063616C6C20746F206E6F6E2D636F6E7472616374000000 PUSH1 0x0 DUP3 ADD MSTORE POP JUMP JUMPDEST PUSH1 0x0 PUSH2 0x4A25 PUSH1 0x1D DUP4 PUSH2 0x3375 JUMP JUMPDEST SWAP2 POP PUSH2 0x4A30 DUP3 PUSH2 0x49EF JUMP JUMPDEST PUSH1 0x20 DUP3 ADD SWAP1 POP SWAP2 SWAP1 POP JUMP JUMPDEST PUSH1 0x0 PUSH1 0x20 DUP3 ADD SWAP1 POP DUP2 DUP2 SUB PUSH1 0x0 DUP4 ADD MSTORE PUSH2 0x4A54 DUP2 PUSH2 0x4A18 JUMP JUMPDEST SWAP1 POP SWAP2 SWAP1 POP JUMP JUMPDEST PUSH1 0x0 DUP2 MLOAD SWAP1 POP SWAP2 SWAP1 POP JUMP JUMPDEST PUSH1 0x0 DUP2 SWAP1 POP SWAP3 SWAP2 POP POP JUMP JUMPDEST PUSH1 0x0 PUSH2 0x4A7C DUP3 PUSH2 0x4A5B JUMP JUMPDEST PUSH2 0x4A86 DUP2 DUP6 PUSH2 0x4A66 JUMP JUMPDEST SWAP4 POP PUSH2 0x4A96 DUP2 DUP6 PUSH1 0x20 DUP7 ADD PUSH2 0x3386 JUMP JUMPDEST DUP1 DUP5 ADD SWAP2 POP POP SWAP3 SWAP2 POP POP JUMP JUMPDEST PUSH1 0x0 PUSH2 0x4AAE DUP3 DUP5 PUSH2 0x4A71 JUMP JUMPDEST SWAP2 POP DUP2 SWAP1 POP SWAP3 SWAP2 POP POP JUMP JUMPDEST PUSH32 0x43726F776473616C653A2062656E656669636961727920697320746865207A65 PUSH1 0x0 DUP3 ADD MSTORE PUSH32 0x726F206164647265737300000000000000000000000000000000000000000000 PUSH1 0x20 DUP3 ADD MSTORE POP JUMP JUMPDEST PUSH1 0x0 PUSH2 0x4B15 PUSH1 0x2A DUP4 PUSH2 0x3375 JUMP JUMPDEST SWAP2 POP PUSH2 0x4B20 DUP3 PUSH2 0x4AB9 JUMP JUMPDEST PUSH1 0x40 DUP3 ADD SWAP1 POP SWAP2 SWAP1 POP JUMP JUMPDEST PUSH1 0x0 PUSH1 0x20 DUP3 ADD SWAP1 POP DUP2 DUP2 SUB PUSH1 0x0 DUP4 ADD MSTORE PUSH2 0x4B44 DUP2 PUSH2 0x4B08 JUMP JUMPDEST SWAP1 POP SWAP2 SWAP1 POP JUMP JUMPDEST PUSH32 0x43726F776473616C653A20776569416D6F756E74206973203000000000000000 PUSH1 0x0 DUP3 ADD MSTORE POP JUMP JUMPDEST PUSH1 0x0 PUSH2 0x4B81 PUSH1 0x19 DUP4 PUSH2 0x3375 JUMP JUMPDEST SWAP2 POP PUSH2 0x4B8C DUP3 PUSH2 0x4B4B JUMP JUMPDEST PUSH1 0x20 DUP3 ADD SWAP1 POP SWAP2 SWAP1 POP JUMP JUMPDEST PUSH1 0x0 PUSH1 0x20 DUP3 ADD SWAP1 POP DUP2 DUP2 SUB PUSH1 0x0 DUP4 ADD MSTORE PUSH2 0x4BB0 DUP2 PUSH2 0x4B74 JUMP JUMPDEST SWAP1 POP SWAP2 SWAP1 POP JUMP INVALID LOG2 PUSH5 0x6970667358 0x22 SLT KECCAK256 DUP1 DUP10 0xF8 0xAB 0xD 0xE7 RETURN PUSH8 0x966D82D25AF61C89 PUSH27 0x60954DC193073E34A6D6FDD804D45C64736F6C6343000812003300 "
		},
		"gasEstimates": {
			"creation": {
				"codeDepositCost": "3887400",
				"executionCost": "infinite",
				"totalCost": "infinite"
			},
			"external": {
				"": "24780",
				"BUSINESS_DEVELOPERS_PERCENTAGE()": "418",
				"DEFAULT_ADMIN_ROLE()": "468",
				"PROJECT_TEAM_PERCENTAGE()": "484",
				"TECHINCAL_DEVELOPERS_PERCENTAGE()": "485",
				"_contributions(address)": "2860",
				"addWhitelisted(address)": "infinite",
				"bUSDT()": "infinite",
				"builderTotalAmount()": "2517",
				"builders(uint256)": "infinite",
				"buyTokens(address)": "infinite",
				"buyTokensInBUSD(address,uint256)": "infinite",
				"cap()": "2571",
				"capReached()": "4676",
				"cliff()": "2542",
				"closingTime()": "2482",
				"createBuilder(string,address,uint256,uint256,uint256)": "infinite",
				"createBuilders()": "infinite",
				"createInvestors()": "infinite",
				"duration()": "2498",
				"finalize()": "infinite",
				"finalized()": "2634",
				"getRoleAdmin(bytes32)": "infinite",
				"grantRole(bytes32,address)": "infinite",
				"hasClosed()": "2583",
				"hasRole(bytes32,address)": "3207",
				"investors(uint256)": "infinite",
				"isOpen()": "4696",
				"maximumSale()": "2519",
				"minimumSale()": "2539",
				"openingTime()": "2504",
				"owner()": "2617",
				"pause()": "infinite",
				"paused()": "2612",
				"rate()": "2527",
				"renounceOwnership()": "30594",
				"renounceRole(bytes32,address)": "infinite",
				"revokeRole(bytes32,address)": "infinite",
				"setPurchaseToken(address)": "27248",
				"setVestingContract(address)": "27232",
				"supportsInterface(bytes4)": "774",
				"token()": "infinite",
				"totalTeamShare()": "2541",
				"transferOwnership(address)": "31026",
				"unpause()": "infinite",
				"vestingAddress()": "2675",
				"wallet()": "2633",
				"weiRaised()": "2527"
			},
			"internal": {
				"_finalization()": "infinite",
				"_forwardFunds(uint256)": "infinite",
				"_preValidatePurchase(address,uint256)": "infinite",
				"_processPurchase(address,uint256)": "infinite",
				"_updatePurchasingState(address,uint256)": "infinite",
				"createInvestor(address,uint256)": "infinite",
				"getCurrentTime()": "22"
			}
		},
		"methodIdentifiers": {
			"BUSINESS_DEVELOPERS_PERCENTAGE()": "93fc645a",
			"DEFAULT_ADMIN_ROLE()": "a217fddf",
			"PROJECT_TEAM_PERCENTAGE()": "e5a2be8e",
			"TECHINCAL_DEVELOPERS_PERCENTAGE()": "4b20ab1a",
			"_contributions(address)": "1e6a610d",
			"addWhitelisted(address)": "10154bad",
			"bUSDT()": "b5af1b2f",
			"builderTotalAmount()": "f0e5a18c",
			"builders(uint256)": "4a8cc5b7",
			"buyTokens(address)": "ec8ac4d8",
			"buyTokensInBUSD(address,uint256)": "95e7a6a3",
			"cap()": "355274ea",
			"capReached()": "4f935945",
			"cliff()": "13d033c0",
			"closingTime()": "4b6753bc",
			"createBuilder(string,address,uint256,uint256,uint256)": "c10d6f57",
			"createBuilders()": "69a75125",
			"createInvestors()": "e994e475",
			"duration()": "0fb5a6b4",
			"finalize()": "4bb278f3",
			"finalized()": "b3f05b97",
			"getRoleAdmin(bytes32)": "248a9ca3",
			"grantRole(bytes32,address)": "2f2ff15d",
			"hasClosed()": "1515bc2b",
			"hasRole(bytes32,address)": "91d14854",
			"investors(uint256)": "3feb5f2b",
			"isOpen()": "47535d7b",
			"maximumSale()": "762e9376",
			"minimumSale()": "f2d58790",
			"openingTime()": "b7a8807c",
			"owner()": "8da5cb5b",
			"pause()": "8456cb59",
			"paused()": "5c975abb",
			"rate()": "2c4e722e",
			"renounceOwnership()": "715018a6",
			"renounceRole(bytes32,address)": "36568abe",
			"revokeRole(bytes32,address)": "d547741f",
			"setPurchaseToken(address)": "8456bd2e",
			"setVestingContract(address)": "74991569",
			"supportsInterface(bytes4)": "01ffc9a7",
			"token()": "fc0c546a",
			"totalTeamShare()": "804b60a3",
			"transferOwnership(address)": "f2fde38b",
			"unpause()": "3f4ba83a",
			"vestingAddress()": "c77c7387",
			"wallet()": "521eb273",
			"weiRaised()": "4042b66f"
		}
	},
	"abi": [
		{
			"inputs": [
				{
					"internalType": "contract IERC20",
					"name": "iBUSDT",
					"type": "address"
				},
				{
					"internalType": "uint256",
					"name": "iRate",
					"type": "uint256"
				},
				{
					"internalType": "address payable",
					"name": "iWallet",
					"type": "address"
				},
				{
					"internalType": "contract IERC20",
					"name": "iToken",
					"type": "address"
				},
				{
					"internalType": "uint256",
					"name": "iCap",
					"type": "uint256"
				},
				{
					"internalType": "uint256",
					"name": "iOpeningTime",
					"type": "uint256"
				},
				{
					"internalType": "uint256",
					"name": "iClosingTime",
					"type": "uint256"
				},
				{
					"internalType": "uint256",
					"name": "iDuration",
					"type": "uint256"
				},
				{
					"internalType": "uint256",
					"name": "iMinimumAmount",
					"type": "uint256"
				},
				{
					"internalType": "uint256",
					"name": "iMaximumAmount",
					"type": "uint256"
				},
				{
					"internalType": "address",
					"name": "iVestingAddress",
					"type": "address"
				}
			],
			"stateMutability": "nonpayable",
			"type": "constructor"
		},
		{
			"inputs": [
				{
					"internalType": "uint256",
					"name": "",
					"type": "uint256"
				}
			],
			"name": "IndividuallyMaximumCappedCrowdsale",
			"type": "error"
		},
		{
			"inputs": [
				{
					"internalType": "uint256",
					"name": "",
					"type": "uint256"
				}
			],
			"name": "IndividuallyMinimumCappedCrowdsale",
			"type": "error"
		},
		{
			"inputs": [
				{
					"internalType": "uint256",
					"name": "balance",
					"type": "uint256"
				},
				{
					"internalType": "uint256",
					"name": "expected",
					"type": "uint256"
				}
			],
			"name": "InsufficientBalance",
			"type": "error"
		},
		{
			"inputs": [
				{
					"internalType": "uint256",
					"name": "",
					"type": "uint256"
				}
			],
			"name": "InsufficientTokenForSales",
			"type": "error"
		},
		{
			"inputs": [
				{
					"internalType": "address",
					"name": "",
					"type": "address"
				}
			],
			"name": "NotAllowed",
			"type": "error"
		},
		{
			"inputs": [
				{
					"internalType": "uint256",
					"name": "",
					"type": "uint256"
				}
			],
			"name": "TotalExceedTotalSupply",
			"type": "error"
		},
		{
			"anonymous": false,
			"inputs": [],
			"name": "CrowdsaleFinalized",
			"type": "event"
		},
		{
			"anonymous": false,
			"inputs": [
				{
					"indexed": false,
					"internalType": "string",
					"name": "name",
					"type": "string"
				},
				{
					"indexed": false,
					"internalType": "address",
					"name": "builder",
					"type": "address"
				},
				{
					"indexed": false,
					"internalType": "uint256",
					"name": "amount",
					"type": "uint256"
				},
				{
					"indexed": false,
					"internalType": "uint256",
					"name": "duration",
					"type": "uint256"
				},
				{
					"indexed": false,
					"internalType": "uint256",
					"name": "cliff",
					"type": "uint256"
				}
			],
			"name": "NewBuilderCreated",
			"type": "event"
		},
		{
			"anonymous": false,
			"inputs": [
				{
					"indexed": true,
					"internalType": "address",
					"name": "previousOwner",
					"type": "address"
				},
				{
					"indexed": true,
					"internalType": "address",
					"name": "newOwner",
					"type": "address"
				}
			],
			"name": "OwnershipTransferred",
			"type": "event"
		},
		{
			"anonymous": false,
			"inputs": [
				{
					"indexed": false,
					"internalType": "address",
					"name": "account",
					"type": "address"
				}
			],
			"name": "Paused",
			"type": "event"
		},
		{
			"anonymous": false,
			"inputs": [
				{
					"indexed": true,
					"internalType": "bytes32",
					"name": "role",
					"type": "bytes32"
				},
				{
					"indexed": true,
					"internalType": "bytes32",
					"name": "previousAdminRole",
					"type": "bytes32"
				},
				{
					"indexed": true,
					"internalType": "bytes32",
					"name": "newAdminRole",
					"type": "bytes32"
				}
			],
			"name": "RoleAdminChanged",
			"type": "event"
		},
		{
			"anonymous": false,
			"inputs": [
				{
					"indexed": true,
					"internalType": "bytes32",
					"name": "role",
					"type": "bytes32"
				},
				{
					"indexed": true,
					"internalType": "address",
					"name": "account",
					"type": "address"
				},
				{
					"indexed": true,
					"internalType": "address",
					"name": "sender",
					"type": "address"
				}
			],
			"name": "RoleGranted",
			"type": "event"
		},
		{
			"anonymous": false,
			"inputs": [
				{
					"indexed": true,
					"internalType": "bytes32",
					"name": "role",
					"type": "bytes32"
				},
				{
					"indexed": true,
					"internalType": "address",
					"name": "account",
					"type": "address"
				},
				{
					"indexed": true,
					"internalType": "address",
					"name": "sender",
					"type": "address"
				}
			],
			"name": "RoleRevoked",
			"type": "event"
		},
		{
			"anonymous": false,
			"inputs": [
				{
					"indexed": false,
					"internalType": "uint256",
					"name": "prevClosingTime",
					"type": "uint256"
				},
				{
					"indexed": false,
					"internalType": "uint256",
					"name": "newClosingTime",
					"type": "uint256"
				}
			],
			"name": "TimedCrowdsaleExtended",
			"type": "event"
		},
		{
			"anonymous": false,
			"inputs": [
				{
					"indexed": true,
					"internalType": "address",
					"name": "purchaser",
					"type": "address"
				},
				{
					"indexed": true,
					"internalType": "address",
					"name": "beneficiary",
					"type": "address"
				},
				{
					"indexed": false,
					"internalType": "uint256",
					"name": "value",
					"type": "uint256"
				},
				{
					"indexed": false,
					"internalType": "uint256",
					"name": "amount",
					"type": "uint256"
				}
			],
			"name": "TokensPurchased",
			"type": "event"
		},
		{
			"anonymous": false,
			"inputs": [
				{
					"indexed": false,
					"internalType": "address",
					"name": "account",
					"type": "address"
				}
			],
			"name": "Unpaused",
			"type": "event"
		},
		{
			"stateMutability": "payable",
			"type": "fallback"
		},
		{
			"inputs": [],
			"name": "BUSINESS_DEVELOPERS_PERCENTAGE",
			"outputs": [
				{
					"internalType": "uint256",
					"name": "",
					"type": "uint256"
				}
			],
			"stateMutability": "view",
			"type": "function"
		},
		{
			"inputs": [],
			"name": "DEFAULT_ADMIN_ROLE",
			"outputs": [
				{
					"internalType": "bytes32",
					"name": "",
					"type": "bytes32"
				}
			],
			"stateMutability": "view",
			"type": "function"
		},
		{
			"inputs": [],
			"name": "PROJECT_TEAM_PERCENTAGE",
			"outputs": [
				{
					"internalType": "uint256",
					"name": "",
					"type": "uint256"
				}
			],
			"stateMutability": "view",
			"type": "function"
		},
		{
			"inputs": [],
			"name": "TECHINCAL_DEVELOPERS_PERCENTAGE",
			"outputs": [
				{
					"internalType": "uint256",
					"name": "",
					"type": "uint256"
				}
			],
			"stateMutability": "view",
			"type": "function"
		},
		{
			"inputs": [
				{
					"internalType": "address",
					"name": "",
					"type": "address"
				}
			],
			"name": "_contributions",
			"outputs": [
				{
					"internalType": "uint256",
					"name": "",
					"type": "uint256"
				}
			],
			"stateMutability": "view",
			"type": "function"
		},
		{
			"inputs": [
				{
					"internalType": "address",
					"name": "account",
					"type": "address"
				}
			],
			"name": "addWhitelisted",
			"outputs": [],
			"stateMutability": "nonpayable",
			"type": "function"
		},
		{
			"inputs": [],
			"name": "bUSDT",
			"outputs": [
				{
					"internalType": "contract IERC20",
					"name": "",
					"type": "address"
				}
			],
			"stateMutability": "view",
			"type": "function"
		},
		{
			"inputs": [],
			"name": "builderTotalAmount",
			"outputs": [
				{
					"internalType": "uint256",
					"name": "",
					"type": "uint256"
				}
			],
			"stateMutability": "view",
			"type": "function"
		},
		{
			"inputs": [
				{
					"internalType": "uint256",
					"name": "",
					"type": "uint256"
				}
			],
			"name": "builders",
			"outputs": [
				{
					"internalType": "string",
					"name": "name",
					"type": "string"
				},
				{
					"internalType": "address",
					"name": "builder",
					"type": "address"
				},
				{
					"internalType": "uint256",
					"name": "amount",
					"type": "uint256"
				},
				{
					"internalType": "uint256",
					"name": "duration",
					"type": "uint256"
				},
				{
					"internalType": "uint256",
					"name": "cliff",
					"type": "uint256"
				},
				{
					"internalType": "bool",
					"name": "created",
					"type": "bool"
				}
			],
			"stateMutability": "view",
			"type": "function"
		},
		{
			"inputs": [
				{
					"internalType": "address",
					"name": "beneficiary",
					"type": "address"
				}
			],
			"name": "buyTokens",
			"outputs": [],
			"stateMutability": "payable",
			"type": "function"
		},
		{
			"inputs": [
				{
					"internalType": "address",
					"name": "beneficiary",
					"type": "address"
				},
				{
					"internalType": "uint256",
					"name": "amount",
					"type": "uint256"
				}
			],
			"name": "buyTokensInBUSD",
			"outputs": [],
			"stateMutability": "payable",
			"type": "function"
		},
		{
			"inputs": [],
			"name": "cap",
			"outputs": [
				{
					"internalType": "uint256",
					"name": "",
					"type": "uint256"
				}
			],
			"stateMutability": "view",
			"type": "function"
		},
		{
			"inputs": [],
			"name": "capReached",
			"outputs": [
				{
					"internalType": "bool",
					"name": "",
					"type": "bool"
				}
			],
			"stateMutability": "view",
			"type": "function"
		},
		{
			"inputs": [],
			"name": "cliff",
			"outputs": [
				{
					"internalType": "uint256",
					"name": "",
					"type": "uint256"
				}
			],
			"stateMutability": "view",
			"type": "function"
		},
		{
			"inputs": [],
			"name": "closingTime",
			"outputs": [
				{
					"internalType": "uint256",
					"name": "",
					"type": "uint256"
				}
			],
			"stateMutability": "view",
			"type": "function"
		},
		{
			"inputs": [
				{
					"internalType": "string",
					"name": "iName",
					"type": "string"
				},
				{
					"internalType": "address",
					"name": "iBuilder",
					"type": "address"
				},
				{
					"internalType": "uint256",
					"name": "iAmount",
					"type": "uint256"
				},
				{
					"internalType": "uint256",
					"name": "iDuration",
					"type": "uint256"
				},
				{
					"internalType": "uint256",
					"name": "iCliff",
					"type": "uint256"
				}
			],
			"name": "createBuilder",
			"outputs": [],
			"stateMutability": "nonpayable",
			"type": "function"
		},
		{
			"inputs": [],
			"name": "createBuilders",
			"outputs": [],
			"stateMutability": "nonpayable",
			"type": "function"
		},
		{
			"inputs": [],
			"name": "createInvestors",
			"outputs": [],
			"stateMutability": "nonpayable",
			"type": "function"
		},
		{
			"inputs": [],
			"name": "duration",
			"outputs": [
				{
					"internalType": "uint256",
					"name": "",
					"type": "uint256"
				}
			],
			"stateMutability": "view",
			"type": "function"
		},
		{
			"inputs": [],
			"name": "finalize",
			"outputs": [],
			"stateMutability": "nonpayable",
			"type": "function"
		},
		{
			"inputs": [],
			"name": "finalized",
			"outputs": [
				{
					"internalType": "bool",
					"name": "",
					"type": "bool"
				}
			],
			"stateMutability": "view",
			"type": "function"
		},
		{
			"inputs": [
				{
					"internalType": "bytes32",
					"name": "role",
					"type": "bytes32"
				}
			],
			"name": "getRoleAdmin",
			"outputs": [
				{
					"internalType": "bytes32",
					"name": "",
					"type": "bytes32"
				}
			],
			"stateMutability": "view",
			"type": "function"
		},
		{
			"inputs": [
				{
					"internalType": "bytes32",
					"name": "role",
					"type": "bytes32"
				},
				{
					"internalType": "address",
					"name": "account",
					"type": "address"
				}
			],
			"name": "grantRole",
			"outputs": [],
			"stateMutability": "nonpayable",
			"type": "function"
		},
		{
			"inputs": [],
			"name": "hasClosed",
			"outputs": [
				{
					"internalType": "bool",
					"name": "",
					"type": "bool"
				}
			],
			"stateMutability": "view",
			"type": "function"
		},
		{
			"inputs": [
				{
					"internalType": "bytes32",
					"name": "role",
					"type": "bytes32"
				},
				{
					"internalType": "address",
					"name": "account",
					"type": "address"
				}
			],
			"name": "hasRole",
			"outputs": [
				{
					"internalType": "bool",
					"name": "",
					"type": "bool"
				}
			],
			"stateMutability": "view",
			"type": "function"
		},
		{
			"inputs": [
				{
					"internalType": "uint256",
					"name": "",
					"type": "uint256"
				}
			],
			"name": "investors",
			"outputs": [
				{
					"internalType": "address",
					"name": "investor",
					"type": "address"
				},
				{
					"internalType": "uint256",
					"name": "investment",
					"type": "uint256"
				},
				{
					"internalType": "bool",
					"name": "created",
					"type": "bool"
				}
			],
			"stateMutability": "view",
			"type": "function"
		},
		{
			"inputs": [],
			"name": "isOpen",
			"outputs": [
				{
					"internalType": "bool",
					"name": "",
					"type": "bool"
				}
			],
			"stateMutability": "view",
			"type": "function"
		},
		{
			"inputs": [],
			"name": "maximumSale",
			"outputs": [
				{
					"internalType": "uint256",
					"name": "",
					"type": "uint256"
				}
			],
			"stateMutability": "view",
			"type": "function"
		},
		{
			"inputs": [],
			"name": "minimumSale",
			"outputs": [
				{
					"internalType": "uint256",
					"name": "",
					"type": "uint256"
				}
			],
			"stateMutability": "view",
			"type": "function"
		},
		{
			"inputs": [],
			"name": "openingTime",
			"outputs": [
				{
					"internalType": "uint256",
					"name": "",
					"type": "uint256"
				}
			],
			"stateMutability": "view",
			"type": "function"
		},
		{
			"inputs": [],
			"name": "owner",
			"outputs": [
				{
					"internalType": "address",
					"name": "",
					"type": "address"
				}
			],
			"stateMutability": "view",
			"type": "function"
		},
		{
			"inputs": [],
			"name": "pause",
			"outputs": [],
			"stateMutability": "nonpayable",
			"type": "function"
		},
		{
			"inputs": [],
			"name": "paused",
			"outputs": [
				{
					"internalType": "bool",
					"name": "",
					"type": "bool"
				}
			],
			"stateMutability": "view",
			"type": "function"
		},
		{
			"inputs": [],
			"name": "rate",
			"outputs": [
				{
					"internalType": "uint256",
					"name": "",
					"type": "uint256"
				}
			],
			"stateMutability": "view",
			"type": "function"
		},
		{
			"inputs": [],
			"name": "renounceOwnership",
			"outputs": [],
			"stateMutability": "nonpayable",
			"type": "function"
		},
		{
			"inputs": [
				{
					"internalType": "bytes32",
					"name": "role",
					"type": "bytes32"
				},
				{
					"internalType": "address",
					"name": "account",
					"type": "address"
				}
			],
			"name": "renounceRole",
			"outputs": [],
			"stateMutability": "nonpayable",
			"type": "function"
		},
		{
			"inputs": [
				{
					"internalType": "bytes32",
					"name": "role",
					"type": "bytes32"
				},
				{
					"internalType": "address",
					"name": "account",
					"type": "address"
				}
			],
			"name": "revokeRole",
			"outputs": [],
			"stateMutability": "nonpayable",
			"type": "function"
		},
		{
			"inputs": [
				{
					"internalType": "contract IERC20",
					"name": "iToken",
					"type": "address"
				}
			],
			"name": "setPurchaseToken",
			"outputs": [],
			"stateMutability": "nonpayable",
			"type": "function"
		},
		{
			"inputs": [
				{
					"internalType": "contract PaymeTokenVesting",
					"name": "iVestingAddress",
					"type": "address"
				}
			],
			"name": "setVestingContract",
			"outputs": [],
			"stateMutability": "nonpayable",
			"type": "function"
		},
		{
			"inputs": [
				{
					"internalType": "bytes4",
					"name": "interfaceId",
					"type": "bytes4"
				}
			],
			"name": "supportsInterface",
			"outputs": [
				{
					"internalType": "bool",
					"name": "",
					"type": "bool"
				}
			],
			"stateMutability": "view",
			"type": "function"
		},
		{
			"inputs": [],
			"name": "token",
			"outputs": [
				{
					"internalType": "contract IERC20",
					"name": "",
					"type": "address"
				}
			],
			"stateMutability": "view",
			"type": "function"
		},
		{
			"inputs": [],
			"name": "totalTeamShare",
			"outputs": [
				{
					"internalType": "uint256",
					"name": "",
					"type": "uint256"
				}
			],
			"stateMutability": "view",
			"type": "function"
		},
		{
			"inputs": [
				{
					"internalType": "address",
					"name": "newOwner",
					"type": "address"
				}
			],
			"name": "transferOwnership",
			"outputs": [],
			"stateMutability": "nonpayable",
			"type": "function"
		},
		{
			"inputs": [],
			"name": "unpause",
			"outputs": [],
			"stateMutability": "nonpayable",
			"type": "function"
		},
		{
			"inputs": [],
			"name": "vestingAddress",
			"outputs": [
				{
					"internalType": "address",
					"name": "",
					"type": "address"
				}
			],
			"stateMutability": "view",
			"type": "function"
		},
		{
			"inputs": [],
			"name": "wallet",
			"outputs": [
				{
					"internalType": "address payable",
					"name": "",
					"type": "address"
				}
			],
			"stateMutability": "view",
			"type": "function"
		},
		{
			"inputs": [],
			"name": "weiRaised",
			"outputs": [
				{
					"internalType": "uint256",
					"name": "",
					"type": "uint256"
				}
			],
			"stateMutability": "view",
			"type": "function"
		},
		{
			"stateMutability": "payable",
			"type": "receive"
		}
	]
}