{
  "_format": "hh-sol-artifact-1",
  "contractName": "Payme",
  "sourceName": "contracts/Payme.sol",
  "abi": [
    {
      "anonymous": false,
      "inputs": [
        {
          "indexed": false,
          "internalType": "uint8",
          "name": "version",
          "type": "uint8"
        }
      ],
      "name": "Initialized",
      "type": "event"
    },
    {
      "anonymous": false,
      "inputs": [
        {
          "indexed": true,
          "internalType": "address",
          "name": "previousOwner",
          "type": "address"
        },
        {
          "indexed": true,
          "internalType": "address",
          "name": "newOwner",
          "type": "address"
        }
      ],
      "name": "OwnershipTransferred",
      "type": "event"
    },
    {
      "inputs": [
        {
          "internalType": "address",
          "name": "_account",
          "type": "address"
        }
      ],
      "name": "balanceOf",
      "outputs": [
        {
          "internalType": "uint256",
          "name": "",
          "type": "uint256"
        }
      ],
      "stateMutability": "view",
      "type": "function"
    },
    {
      "inputs": [],
      "name": "getTokenAddress",
      "outputs": [
        {
          "internalType": "address",
          "name": "",
          "type": "address"
        }
      ],
      "stateMutability": "view",
      "type": "function"
    },
    {
      "inputs": [
        {
          "internalType": "contract IERC20Upgradeable",
          "name": "token_",
          "type": "address"
        }
      ],
      "name": "initialize",
      "outputs": [],
      "stateMutability": "nonpayable",
      "type": "function"
    },
    {
      "inputs": [],
      "name": "owner",
      "outputs": [
        {
          "internalType": "address",
          "name": "",
          "type": "address"
        }
      ],
      "stateMutability": "view",
      "type": "function"
    },
    {
      "inputs": [],
      "name": "renounceOwnership",
      "outputs": [],
      "stateMutability": "nonpayable",
      "type": "function"
    },
    {
      "inputs": [
        {
          "internalType": "address",
          "name": "newOwner",
          "type": "address"
        }
      ],
      "name": "transferOwnership",
      "outputs": [],
      "stateMutability": "nonpayable",
      "type": "function"
    }
  ],
  "bytecode": "0x608060405234801561001057600080fd5b506104f1806100206000396000f3fe608060405234801561001057600080fd5b50600436106100625760003560e01c806310fe9ae81461006757806370a0823114610091578063715018a6146100b25780638da5cb5b146100bc578063c4d66de8146100cd578063f2fde38b146100e0575b600080fd5b6065546001600160a01b03165b6040516001600160a01b0390911681526020015b60405180910390f35b6100a461009f36600461047e565b6100f3565b604051908152602001610088565b6100ba610177565b005b6033546001600160a01b0316610074565b6100ba6100db36600461047e565b61018b565b6100ba6100ee36600461047e565b6102d0565b6065546040516370a0823160e01b81526001600160a01b03838116600483015260009216906370a082319060240160206040518083038186803b15801561013957600080fd5b505afa15801561014d573d6000803e3d6000fd5b505050506040513d601f19601f8201168201806040525081019061017191906104a2565b92915050565b61017f610349565b61018960006103a3565b565b600054610100900460ff16158080156101ab5750600054600160ff909116105b806101c55750303b1580156101c5575060005460ff166001145b61022d5760405162461bcd60e51b815260206004820152602e60248201527f496e697469616c697a61626c653a20636f6e747261637420697320616c72656160448201526d191e481a5b9a5d1a585b1a5e995960921b60648201526084015b60405180910390fd5b6000805460ff191660011790558015610250576000805461ff0019166101001790555b6001600160a01b03821661026357600080fd5b61026b6103f5565b606580546001600160a01b0319166001600160a01b03841617905580156102cc576000805461ff0019169055604051600181527f7f26b83ff96e1f2b6a682f133852f6798a09c465da95921460cefb38474024989060200160405180910390a15b5050565b6102d8610349565b6001600160a01b03811661033d5760405162461bcd60e51b815260206004820152602660248201527f4f776e61626c653a206e6577206f776e657220697320746865207a65726f206160448201526564647265737360d01b6064820152608401610224565b610346816103a3565b50565b6033546001600160a01b031633146101895760405162461bcd60e51b815260206004820181905260248201527f4f776e61626c653a2063616c6c6572206973206e6f7420746865206f776e65726044820152606401610224565b603380546001600160a01b038381166001600160a01b0319831681179093556040519116919082907f8be0079c531659141344cd1fd0a4f28419497f9722a3daafe3b4186f6b6457e090600090a35050565b600054610100900460ff166104605760405162461bcd60e51b815260206004820152602b60248201527f496e697469616c697a61626c653a20636f6e7472616374206973206e6f74206960448201526a6e697469616c697a696e6760a81b6064820152608401610224565b610189336103a3565b6001600160a01b038116811461034657600080fd5b60006020828403121561049057600080fd5b813561049b81610469565b9392505050565b6000602082840312156104b457600080fd5b505191905056fea264697066735822122079cde9c6874c6f9d2f0db6e4043e6f6d018c27da53364b6cf9cf029aa95bb92f64736f6c63430008090033",
  "linkReferences": {},
  "deployedLinkReferences": {}
}