{
  "_format": "hh-sol-artifact-1",
  "contractName": "Crowdsale",
  "sourceName": "contracts/crowdsale/Crowdsale.sol",
  "abi": [
    {
      "inputs": [
        {
          "internalType": "uint256",
          "name": "rate_",
          "type": "uint256"
        },
        {
          "internalType": "address payable",
          "name": "wallet_",
          "type": "address"
        },
        {
          "internalType": "contract IERC20",
          "name": "token_",
          "type": "address"
        }
      ],
      "stateMutability": "nonpayable",
      "type": "constructor"
    },
    {
      "anonymous": false,
      "inputs": [
        {
          "indexed": true,
          "internalType": "bytes32",
          "name": "role",
          "type": "bytes32"
        },
        {
          "indexed": true,
          "internalType": "bytes32",
          "name": "previousAdminRole",
          "type": "bytes32"
        },
        {
          "indexed": true,
          "internalType": "bytes32",
          "name": "newAdminRole",
          "type": "bytes32"
        }
      ],
      "name": "RoleAdminChanged",
      "type": "event"
    },
    {
      "anonymous": false,
      "inputs": [
        {
          "indexed": true,
          "internalType": "bytes32",
          "name": "role",
          "type": "bytes32"
        },
        {
          "indexed": true,
          "internalType": "address",
          "name": "account",
          "type": "address"
        },
        {
          "indexed": true,
          "internalType": "address",
          "name": "sender",
          "type": "address"
        }
      ],
      "name": "RoleGranted",
      "type": "event"
    },
    {
      "anonymous": false,
      "inputs": [
        {
          "indexed": true,
          "internalType": "bytes32",
          "name": "role",
          "type": "bytes32"
        },
        {
          "indexed": true,
          "internalType": "address",
          "name": "account",
          "type": "address"
        },
        {
          "indexed": true,
          "internalType": "address",
          "name": "sender",
          "type": "address"
        }
      ],
      "name": "RoleRevoked",
      "type": "event"
    },
    {
      "anonymous": false,
      "inputs": [
        {
          "indexed": true,
          "internalType": "address",
          "name": "purchaser",
          "type": "address"
        },
        {
          "indexed": true,
          "internalType": "address",
          "name": "beneficiary",
          "type": "address"
        },
        {
          "indexed": false,
          "internalType": "uint256",
          "name": "value",
          "type": "uint256"
        },
        {
          "indexed": false,
          "internalType": "uint256",
          "name": "amount",
          "type": "uint256"
        }
      ],
      "name": "TokensPurchased",
      "type": "event"
    },
    {
      "stateMutability": "payable",
      "type": "fallback"
    },
    {
      "inputs": [],
      "name": "DEFAULT_ADMIN_ROLE",
      "outputs": [
        {
          "internalType": "bytes32",
          "name": "",
          "type": "bytes32"
        }
      ],
      "stateMutability": "view",
      "type": "function"
    },
    {
      "inputs": [
        {
          "internalType": "address",
          "name": "beneficiary",
          "type": "address"
        }
      ],
      "name": "buyTokens",
      "outputs": [],
      "stateMutability": "payable",
      "type": "function"
    },
    {
      "inputs": [
        {
          "internalType": "bytes32",
          "name": "role",
          "type": "bytes32"
        }
      ],
      "name": "getRoleAdmin",
      "outputs": [
        {
          "internalType": "bytes32",
          "name": "",
          "type": "bytes32"
        }
      ],
      "stateMutability": "view",
      "type": "function"
    },
    {
      "inputs": [
        {
          "internalType": "bytes32",
          "name": "role",
          "type": "bytes32"
        },
        {
          "internalType": "address",
          "name": "account",
          "type": "address"
        }
      ],
      "name": "grantRole",
      "outputs": [],
      "stateMutability": "nonpayable",
      "type": "function"
    },
    {
      "inputs": [
        {
          "internalType": "bytes32",
          "name": "role",
          "type": "bytes32"
        },
        {
          "internalType": "address",
          "name": "account",
          "type": "address"
        }
      ],
      "name": "hasRole",
      "outputs": [
        {
          "internalType": "bool",
          "name": "",
          "type": "bool"
        }
      ],
      "stateMutability": "view",
      "type": "function"
    },
    {
      "inputs": [],
      "name": "rate",
      "outputs": [
        {
          "internalType": "uint256",
          "name": "",
          "type": "uint256"
        }
      ],
      "stateMutability": "view",
      "type": "function"
    },
    {
      "inputs": [
        {
          "internalType": "bytes32",
          "name": "role",
          "type": "bytes32"
        },
        {
          "internalType": "address",
          "name": "account",
          "type": "address"
        }
      ],
      "name": "renounceRole",
      "outputs": [],
      "stateMutability": "nonpayable",
      "type": "function"
    },
    {
      "inputs": [
        {
          "internalType": "bytes32",
          "name": "role",
          "type": "bytes32"
        },
        {
          "internalType": "address",
          "name": "account",
          "type": "address"
        }
      ],
      "name": "revokeRole",
      "outputs": [],
      "stateMutability": "nonpayable",
      "type": "function"
    },
    {
      "inputs": [
        {
          "internalType": "bytes4",
          "name": "interfaceId",
          "type": "bytes4"
        }
      ],
      "name": "supportsInterface",
      "outputs": [
        {
          "internalType": "bool",
          "name": "",
          "type": "bool"
        }
      ],
      "stateMutability": "view",
      "type": "function"
    },
    {
      "inputs": [],
      "name": "token",
      "outputs": [
        {
          "internalType": "contract IERC20",
          "name": "",
          "type": "address"
        }
      ],
      "stateMutability": "view",
      "type": "function"
    },
    {
      "inputs": [],
      "name": "wallet",
      "outputs": [
        {
          "internalType": "address payable",
          "name": "",
          "type": "address"
        }
      ],
      "stateMutability": "view",
      "type": "function"
    },
    {
      "inputs": [],
      "name": "weiRaised",
      "outputs": [
        {
          "internalType": "uint256",
          "name": "",
          "type": "uint256"
        }
      ],
      "stateMutability": "view",
      "type": "function"
    },
    {
      "stateMutability": "payable",
      "type": "receive"
    }
  ],
  "bytecode": "0x60806040523480156200001157600080fd5b506040516200106f3803806200106f833981016040819052620000349162000252565b6001600055826200008c5760405162461bcd60e51b815260206004820152601460248201527f43726f776473616c653a2072617465206973203000000000000000000000000060448201526064015b60405180910390fd5b6001600160a01b038216620000f25760405162461bcd60e51b815260206004820152602560248201527f43726f776473616c653a2077616c6c657420697320746865207a65726f206164604482015264647265737360d81b606482015260840162000083565b6001600160a01b038116620001565760405162461bcd60e51b8152602060048201526024808201527f43726f776473616c653a20746f6b656e20697320746865207a65726f206164646044820152637265737360e01b606482015260840162000083565b6004839055600380546001600160a01b038085166001600160a01b031992831617909255600280549284169290911691909117905562000198600033620001a1565b5050506200029a565b620001ad8282620001b1565b5050565b60008281526001602090815260408083206001600160a01b038516845290915290205460ff16620001ad5760008281526001602081815260408084206001600160a01b0386168086529252808420805460ff19169093179092559051339285917f2f8788117e7eff1d82e926ec794901d17c78024a50270940304540a733656f0d9190a45050565b6001600160a01b03811681146200024f57600080fd5b50565b6000806000606084860312156200026857600080fd5b8351925060208401516200027c8162000239565b60408501519092506200028f8162000239565b809150509250925092565b610dc580620002aa6000396000f3fe6080604052600436106100ab5760003560e01c8063521eb27311610064578063521eb273146101a757806391d14854146101d9578063a217fddf146101f9578063d547741f1461020e578063ec8ac4d81461022e578063fc0c546a1461023c576100c0565b806301ffc9a7146100c9578063248a9ca3146100fe5780632c4e722e1461013d5780632f2ff15d1461015257806336568abe146101725780634042b66f14610192576100c0565b366100c0576100be3361025a565b61025a565b005b6100be3361025a565b3480156100d557600080fd5b506100e96100e4366004610b43565b61033b565b60405190151581526020015b60405180910390f35b34801561010a57600080fd5b5061012f610119366004610b6d565b6000908152600160208190526040909120015490565b6040519081526020016100f5565b34801561014957600080fd5b5060045461012f565b34801561015e57600080fd5b506100be61016d366004610ba2565b610372565b34801561017e57600080fd5b506100be61018d366004610ba2565b61039d565b34801561019e57600080fd5b5060055461012f565b3480156101b357600080fd5b506003546001600160a01b03165b6040516001600160a01b0390911681526020016100f5565b3480156101e557600080fd5b506100e96101f4366004610ba2565b61041b565b34801561020557600080fd5b5061012f600081565b34801561021a57600080fd5b506100be610229366004610ba2565b610446565b6100be6100b9366004610bce565b34801561024857600080fd5b506002546001600160a01b03166101c1565b600260005414156102b25760405162461bcd60e51b815260206004820152601f60248201527f5265656e7472616e637947756172643a207265656e7472616e742063616c6c0060448201526064015b60405180910390fd5b6002600055346102c2828261046c565b60006102cd82610522565b90506102d98382610539565b60408051838152602081018390526001600160a01b0385169133917f6faf93231a456e552dbc9961f58d9713ee4f2e69d15f1975b050ef0911053a7b910160405180910390a36103298383610543565b610331610550565b5050600160005550565b60006001600160e01b03198216637965db0b60e01b148061036c57506301ffc9a760e01b6001600160e01b03198316145b92915050565b6000828152600160208190526040909120015461038e8161058c565b6103988383610596565b505050565b6001600160a01b038116331461040d5760405162461bcd60e51b815260206004820152602f60248201527f416363657373436f6e74726f6c3a2063616e206f6e6c792072656e6f756e636560448201526e103937b632b9903337b91039b2b63360891b60648201526084016102a9565b6104178282610601565b5050565b60009182526001602090815260408084206001600160a01b0393909316845291905290205460ff1690565b600082815260016020819052604090912001546104628161058c565b6103988383610601565b6001600160a01b0382166104d55760405162461bcd60e51b815260206004820152602a60248201527f43726f776473616c653a2062656e656669636961727920697320746865207a65604482015269726f206164647265737360b01b60648201526084016102a9565b806104175760405162461bcd60e51b815260206004820152601960248201527f43726f776473616c653a20776569416d6f756e7420697320300000000000000060448201526064016102a9565b600061036c6004548361066890919063ffffffff16565b610417828261067b565b6005546103989082610692565b6003546040516001600160a01b03909116903480156108fc02916000818181858888f19350505050158015610589573d6000803e3d6000fd5b50565b610589813361069e565b6105a0828261041b565b6104175760008281526001602081815260408084206001600160a01b0386168086529252808420805460ff19169093179092559051339285917f2f8788117e7eff1d82e926ec794901d17c78024a50270940304540a733656f0d9190a45050565b61060b828261041b565b156104175760008281526001602090815260408083206001600160a01b0385168085529252808320805460ff1916905551339285917ff6391f5c32d9c69d2a47ea670b442974b53935d1edc7fd64eb21e047a839171b9190a45050565b60006106748284610bff565b9392505050565b600254610417906001600160a01b03168383610702565b60006106748284610c1e565b6106a8828261041b565b610417576106c0816001600160a01b03166014610754565b6106cb836020610754565b6040516020016106dc929190610c66565b60408051601f198184030181529082905262461bcd60e51b82526102a991600401610cdb565b604080516001600160a01b038416602482015260448082018490528251808303909101815260649091019091526020810180516001600160e01b031663a9059cbb60e01b1790526103989084906108f0565b60606000610763836002610bff565b61076e906002610c1e565b67ffffffffffffffff81111561078657610786610d0e565b6040519080825280601f01601f1916602001820160405280156107b0576020820181803683370190505b509050600360fc1b816000815181106107cb576107cb610d24565b60200101906001600160f81b031916908160001a905350600f60fb1b816001815181106107fa576107fa610d24565b60200101906001600160f81b031916908160001a905350600061081e846002610bff565b610829906001610c1e565b90505b60018111156108a1576f181899199a1a9b1b9c1cb0b131b232b360811b85600f166010811061085d5761085d610d24565b1a60f81b82828151811061087357610873610d24565b60200101906001600160f81b031916908160001a90535060049490941c9361089a81610d3a565b905061082c565b5083156106745760405162461bcd60e51b815260206004820181905260248201527f537472696e67733a20686578206c656e67746820696e73756666696369656e7460448201526064016102a9565b6000610945826040518060400160405280602081526020017f5361666545524332303a206c6f772d6c6576656c2063616c6c206661696c6564815250856001600160a01b03166109c29092919063ffffffff16565b80519091501561039857808060200190518101906109639190610d51565b6103985760405162461bcd60e51b815260206004820152602a60248201527f5361666545524332303a204552433230206f7065726174696f6e20646964206e6044820152691bdd081cdd58d8d9595960b21b60648201526084016102a9565b60606109d184846000856109d9565b949350505050565b606082471015610a3a5760405162461bcd60e51b815260206004820152602660248201527f416464726573733a20696e73756666696369656e742062616c616e636520666f6044820152651c8818d85b1b60d21b60648201526084016102a9565b6001600160a01b0385163b610a915760405162461bcd60e51b815260206004820152601d60248201527f416464726573733a2063616c6c20746f206e6f6e2d636f6e747261637400000060448201526064016102a9565b600080866001600160a01b03168587604051610aad9190610d73565b60006040518083038185875af1925050503d8060008114610aea576040519150601f19603f3d011682016040523d82523d6000602084013e610aef565b606091505b5091509150610aff828286610b0a565b979650505050505050565b60608315610b19575081610674565b825115610b295782518084602001fd5b8160405162461bcd60e51b81526004016102a99190610cdb565b600060208284031215610b5557600080fd5b81356001600160e01b03198116811461067457600080fd5b600060208284031215610b7f57600080fd5b5035919050565b80356001600160a01b0381168114610b9d57600080fd5b919050565b60008060408385031215610bb557600080fd5b82359150610bc560208401610b86565b90509250929050565b600060208284031215610be057600080fd5b61067482610b86565b634e487b7160e01b600052601160045260246000fd5b6000816000190483118215151615610c1957610c19610be9565b500290565b60008219821115610c3157610c31610be9565b500190565b60005b83811015610c51578181015183820152602001610c39565b83811115610c60576000848401525b50505050565b7f416363657373436f6e74726f6c3a206163636f756e7420000000000000000000815260008351610c9e816017850160208801610c36565b7001034b99036b4b9b9b4b733903937b6329607d1b6017918401918201528351610ccf816028840160208801610c36565b01602801949350505050565b6020815260008251806020840152610cfa816040850160208701610c36565b601f01601f19169190910160400192915050565b634e487b7160e01b600052604160045260246000fd5b634e487b7160e01b600052603260045260246000fd5b600081610d4957610d49610be9565b506000190190565b600060208284031215610d6357600080fd5b8151801515811461067457600080fd5b60008251610d85818460208701610c36565b919091019291505056fea2646970667358221220c51d5b80f8bce94fe5dc8d020dbbaf9fdf7cf7ccc043f41206615ea2279d12c264736f6c63430008090033",
  "linkReferences": {},
  "deployedLinkReferences": {}
}