{
  "_format": "hh-sol-artifact-1",
  "contractName": "MockCrowdsale",
  "sourceName": "contracts/mocks/MockCrowdsale.sol",
  "abi": [
    {
      "inputs": [
        {
          "internalType": "contract IERC20",
          "name": "_BUSDT",
          "type": "address"
        },
        {
          "internalType": "uint256",
          "name": "rate",
          "type": "uint256"
        },
        {
          "internalType": "address payable",
          "name": "wallet",
          "type": "address"
        },
        {
          "internalType": "contract IERC20",
          "name": "_token",
          "type": "address"
        },
        {
          "internalType": "uint256",
          "name": "_cap",
          "type": "uint256"
        },
        {
          "internalType": "uint256",
          "name": "_openingTime",
          "type": "uint256"
        },
        {
          "internalType": "uint256",
          "name": "_closingTime",
          "type": "uint256"
        },
        {
          "internalType": "uint256",
          "name": "_duration",
          "type": "uint256"
        },
        {
          "internalType": "uint256",
          "name": "_min",
          "type": "uint256"
        },
        {
          "internalType": "uint256",
          "name": "_max",
          "type": "uint256"
        },
        {
          "internalType": "address",
          "name": "_vestingAddress",
          "type": "address"
        }
      ],
      "stateMutability": "nonpayable",
      "type": "constructor"
    },
    {
      "inputs": [
        {
          "internalType": "uint256",
          "name": "",
          "type": "uint256"
        }
      ],
      "name": "IndividuallyMaximumCappedCrowdsale",
      "type": "error"
    },
    {
      "inputs": [
        {
          "internalType": "uint256",
          "name": "",
          "type": "uint256"
        }
      ],
      "name": "IndividuallyMinimumCappedCrowdsale",
      "type": "error"
    },
    {
      "inputs": [
        {
          "internalType": "uint256",
          "name": "balance",
          "type": "uint256"
        },
        {
          "internalType": "uint256",
          "name": "expected",
          "type": "uint256"
        }
      ],
      "name": "InsufficientBalance",
      "type": "error"
    },
    {
      "inputs": [
        {
          "internalType": "uint256",
          "name": "",
          "type": "uint256"
        }
      ],
      "name": "InsufficientTokenForSales",
      "type": "error"
    },
    {
      "inputs": [
        {
          "internalType": "address",
          "name": "",
          "type": "address"
        }
      ],
      "name": "NotAllowed",
      "type": "error"
    },
    {
      "inputs": [
        {
          "internalType": "uint256",
          "name": "",
          "type": "uint256"
        }
      ],
      "name": "TotalExceedTotalSupply",
      "type": "error"
    },
    {
      "anonymous": false,
      "inputs": [],
      "name": "CrowdsaleFinalized",
      "type": "event"
    },
    {
      "anonymous": false,
      "inputs": [
        {
          "indexed": false,
          "internalType": "string",
          "name": "name",
          "type": "string"
        },
        {
          "indexed": false,
          "internalType": "address",
          "name": "builder",
          "type": "address"
        },
        {
          "indexed": false,
          "internalType": "uint256",
          "name": "amount",
          "type": "uint256"
        },
        {
          "indexed": false,
          "internalType": "uint256",
          "name": "duration",
          "type": "uint256"
        },
        {
          "indexed": false,
          "internalType": "uint256",
          "name": "cliff",
          "type": "uint256"
        }
      ],
      "name": "NewBuilderCreated",
      "type": "event"
    },
    {
      "anonymous": false,
      "inputs": [
        {
          "indexed": true,
          "internalType": "address",
          "name": "previousOwner",
          "type": "address"
        },
        {
          "indexed": true,
          "internalType": "address",
          "name": "newOwner",
          "type": "address"
        }
      ],
      "name": "OwnershipTransferred",
      "type": "event"
    },
    {
      "anonymous": false,
      "inputs": [
        {
          "indexed": false,
          "internalType": "address",
          "name": "account",
          "type": "address"
        }
      ],
      "name": "Paused",
      "type": "event"
    },
    {
      "anonymous": false,
      "inputs": [
        {
          "indexed": true,
          "internalType": "bytes32",
          "name": "role",
          "type": "bytes32"
        },
        {
          "indexed": true,
          "internalType": "bytes32",
          "name": "previousAdminRole",
          "type": "bytes32"
        },
        {
          "indexed": true,
          "internalType": "bytes32",
          "name": "newAdminRole",
          "type": "bytes32"
        }
      ],
      "name": "RoleAdminChanged",
      "type": "event"
    },
    {
      "anonymous": false,
      "inputs": [
        {
          "indexed": true,
          "internalType": "bytes32",
          "name": "role",
          "type": "bytes32"
        },
        {
          "indexed": true,
          "internalType": "address",
          "name": "account",
          "type": "address"
        },
        {
          "indexed": true,
          "internalType": "address",
          "name": "sender",
          "type": "address"
        }
      ],
      "name": "RoleGranted",
      "type": "event"
    },
    {
      "anonymous": false,
      "inputs": [
        {
          "indexed": true,
          "internalType": "bytes32",
          "name": "role",
          "type": "bytes32"
        },
        {
          "indexed": true,
          "internalType": "address",
          "name": "account",
          "type": "address"
        },
        {
          "indexed": true,
          "internalType": "address",
          "name": "sender",
          "type": "address"
        }
      ],
      "name": "RoleRevoked",
      "type": "event"
    },
    {
      "anonymous": false,
      "inputs": [
        {
          "indexed": false,
          "internalType": "uint256",
          "name": "prevClosingTime",
          "type": "uint256"
        },
        {
          "indexed": false,
          "internalType": "uint256",
          "name": "newClosingTime",
          "type": "uint256"
        }
      ],
      "name": "TimedCrowdsaleExtended",
      "type": "event"
    },
    {
      "anonymous": false,
      "inputs": [
        {
          "indexed": true,
          "internalType": "address",
          "name": "purchaser",
          "type": "address"
        },
        {
          "indexed": true,
          "internalType": "address",
          "name": "beneficiary",
          "type": "address"
        },
        {
          "indexed": false,
          "internalType": "uint256",
          "name": "value",
          "type": "uint256"
        },
        {
          "indexed": false,
          "internalType": "uint256",
          "name": "amount",
          "type": "uint256"
        }
      ],
      "name": "TokensPurchased",
      "type": "event"
    },
    {
      "anonymous": false,
      "inputs": [
        {
          "indexed": false,
          "internalType": "address",
          "name": "account",
          "type": "address"
        }
      ],
      "name": "Unpaused",
      "type": "event"
    },
    {
      "stateMutability": "payable",
      "type": "fallback"
    },
    {
      "inputs": [],
      "name": "BUSINESS_DEVELOPERS_PERCENTAGE",
      "outputs": [
        {
          "internalType": "uint256",
          "name": "",
          "type": "uint256"
        }
      ],
      "stateMutability": "view",
      "type": "function"
    },
    {
      "inputs": [],
      "name": "DEFAULT_ADMIN_ROLE",
      "outputs": [
        {
          "internalType": "bytes32",
          "name": "",
          "type": "bytes32"
        }
      ],
      "stateMutability": "view",
      "type": "function"
    },
    {
      "inputs": [],
      "name": "PROJECT_TEAM_PERCENTAGE",
      "outputs": [
        {
          "internalType": "uint256",
          "name": "",
          "type": "uint256"
        }
      ],
      "stateMutability": "view",
      "type": "function"
    },
    {
      "inputs": [],
      "name": "TECHINCAL_DEVELOPERS_PERCENTAGE",
      "outputs": [
        {
          "internalType": "uint256",
          "name": "",
          "type": "uint256"
        }
      ],
      "stateMutability": "view",
      "type": "function"
    },
    {
      "inputs": [
        {
          "internalType": "address",
          "name": "",
          "type": "address"
        }
      ],
      "name": "_contributions",
      "outputs": [
        {
          "internalType": "uint256",
          "name": "",
          "type": "uint256"
        }
      ],
      "stateMutability": "view",
      "type": "function"
    },
    {
      "inputs": [
        {
          "internalType": "address",
          "name": "account",
          "type": "address"
        }
      ],
      "name": "addWhitelisted",
      "outputs": [],
      "stateMutability": "nonpayable",
      "type": "function"
    },
    {
      "inputs": [],
      "name": "bUSDT",
      "outputs": [
        {
          "internalType": "contract IERC20",
          "name": "",
          "type": "address"
        }
      ],
      "stateMutability": "view",
      "type": "function"
    },
    {
      "inputs": [],
      "name": "builderTotalAmount",
      "outputs": [
        {
          "internalType": "uint256",
          "name": "",
          "type": "uint256"
        }
      ],
      "stateMutability": "view",
      "type": "function"
    },
    {
      "inputs": [
        {
          "internalType": "uint256",
          "name": "",
          "type": "uint256"
        }
      ],
      "name": "builders",
      "outputs": [
        {
          "internalType": "string",
          "name": "name",
          "type": "string"
        },
        {
          "internalType": "address",
          "name": "builder",
          "type": "address"
        },
        {
          "internalType": "uint256",
          "name": "amount",
          "type": "uint256"
        },
        {
          "internalType": "uint256",
          "name": "duration",
          "type": "uint256"
        },
        {
          "internalType": "uint256",
          "name": "cliff",
          "type": "uint256"
        },
        {
          "internalType": "bool",
          "name": "created",
          "type": "bool"
        }
      ],
      "stateMutability": "view",
      "type": "function"
    },
    {
      "inputs": [
        {
          "internalType": "address",
          "name": "beneficiary",
          "type": "address"
        }
      ],
      "name": "buyTokens",
      "outputs": [],
      "stateMutability": "payable",
      "type": "function"
    },
    {
      "inputs": [
        {
          "internalType": "address",
          "name": "beneficiary",
          "type": "address"
        },
        {
          "internalType": "uint256",
          "name": "amount",
          "type": "uint256"
        }
      ],
      "name": "buyTokensInBUSD",
      "outputs": [],
      "stateMutability": "payable",
      "type": "function"
    },
    {
      "inputs": [],
      "name": "cap",
      "outputs": [
        {
          "internalType": "uint256",
          "name": "",
          "type": "uint256"
        }
      ],
      "stateMutability": "view",
      "type": "function"
    },
    {
      "inputs": [],
      "name": "capReached",
      "outputs": [
        {
          "internalType": "bool",
          "name": "",
          "type": "bool"
        }
      ],
      "stateMutability": "view",
      "type": "function"
    },
    {
      "inputs": [],
      "name": "cliff",
      "outputs": [
        {
          "internalType": "uint256",
          "name": "",
          "type": "uint256"
        }
      ],
      "stateMutability": "view",
      "type": "function"
    },
    {
      "inputs": [],
      "name": "closingTime",
      "outputs": [
        {
          "internalType": "uint256",
          "name": "",
          "type": "uint256"
        }
      ],
      "stateMutability": "view",
      "type": "function"
    },
    {
      "inputs": [
        {
          "internalType": "string",
          "name": "iName",
          "type": "string"
        },
        {
          "internalType": "address",
          "name": "iBuilder",
          "type": "address"
        },
        {
          "internalType": "uint256",
          "name": "iAmount",
          "type": "uint256"
        },
        {
          "internalType": "uint256",
          "name": "iDuration",
          "type": "uint256"
        },
        {
          "internalType": "uint256",
          "name": "iCliff",
          "type": "uint256"
        }
      ],
      "name": "createBuilder",
      "outputs": [],
      "stateMutability": "nonpayable",
      "type": "function"
    },
    {
      "inputs": [],
      "name": "createBuilders",
      "outputs": [],
      "stateMutability": "nonpayable",
      "type": "function"
    },
    {
      "inputs": [],
      "name": "createInvestors",
      "outputs": [],
      "stateMutability": "nonpayable",
      "type": "function"
    },
    {
      "inputs": [],
      "name": "duration",
      "outputs": [
        {
          "internalType": "uint256",
          "name": "",
          "type": "uint256"
        }
      ],
      "stateMutability": "view",
      "type": "function"
    },
    {
      "inputs": [],
      "name": "finalize",
      "outputs": [],
      "stateMutability": "nonpayable",
      "type": "function"
    },
    {
      "inputs": [],
      "name": "finalized",
      "outputs": [
        {
          "internalType": "bool",
          "name": "",
          "type": "bool"
        }
      ],
      "stateMutability": "view",
      "type": "function"
    },
    {
      "inputs": [
        {
          "internalType": "bytes32",
          "name": "role",
          "type": "bytes32"
        }
      ],
      "name": "getRoleAdmin",
      "outputs": [
        {
          "internalType": "bytes32",
          "name": "",
          "type": "bytes32"
        }
      ],
      "stateMutability": "view",
      "type": "function"
    },
    {
      "inputs": [
        {
          "internalType": "bytes32",
          "name": "role",
          "type": "bytes32"
        },
        {
          "internalType": "address",
          "name": "account",
          "type": "address"
        }
      ],
      "name": "grantRole",
      "outputs": [],
      "stateMutability": "nonpayable",
      "type": "function"
    },
    {
      "inputs": [],
      "name": "hasClosed",
      "outputs": [
        {
          "internalType": "bool",
          "name": "",
          "type": "bool"
        }
      ],
      "stateMutability": "view",
      "type": "function"
    },
    {
      "inputs": [
        {
          "internalType": "bytes32",
          "name": "role",
          "type": "bytes32"
        },
        {
          "internalType": "address",
          "name": "account",
          "type": "address"
        }
      ],
      "name": "hasRole",
      "outputs": [
        {
          "internalType": "bool",
          "name": "",
          "type": "bool"
        }
      ],
      "stateMutability": "view",
      "type": "function"
    },
    {
      "inputs": [
        {
          "internalType": "uint256",
          "name": "",
          "type": "uint256"
        }
      ],
      "name": "investors",
      "outputs": [
        {
          "internalType": "address",
          "name": "investor",
          "type": "address"
        },
        {
          "internalType": "uint256",
          "name": "investment",
          "type": "uint256"
        },
        {
          "internalType": "bool",
          "name": "created",
          "type": "bool"
        }
      ],
      "stateMutability": "view",
      "type": "function"
    },
    {
      "inputs": [],
      "name": "isOpen",
      "outputs": [
        {
          "internalType": "bool",
          "name": "",
          "type": "bool"
        }
      ],
      "stateMutability": "view",
      "type": "function"
    },
    {
      "inputs": [],
      "name": "maximumSale",
      "outputs": [
        {
          "internalType": "uint256",
          "name": "",
          "type": "uint256"
        }
      ],
      "stateMutability": "view",
      "type": "function"
    },
    {
      "inputs": [],
      "name": "minimumSale",
      "outputs": [
        {
          "internalType": "uint256",
          "name": "",
          "type": "uint256"
        }
      ],
      "stateMutability": "view",
      "type": "function"
    },
    {
      "inputs": [],
      "name": "openingTime",
      "outputs": [
        {
          "internalType": "uint256",
          "name": "",
          "type": "uint256"
        }
      ],
      "stateMutability": "view",
      "type": "function"
    },
    {
      "inputs": [],
      "name": "owner",
      "outputs": [
        {
          "internalType": "address",
          "name": "",
          "type": "address"
        }
      ],
      "stateMutability": "view",
      "type": "function"
    },
    {
      "inputs": [],
      "name": "pause",
      "outputs": [],
      "stateMutability": "nonpayable",
      "type": "function"
    },
    {
      "inputs": [],
      "name": "paused",
      "outputs": [
        {
          "internalType": "bool",
          "name": "",
          "type": "bool"
        }
      ],
      "stateMutability": "view",
      "type": "function"
    },
    {
      "inputs": [],
      "name": "rate",
      "outputs": [
        {
          "internalType": "uint256",
          "name": "",
          "type": "uint256"
        }
      ],
      "stateMutability": "view",
      "type": "function"
    },
    {
      "inputs": [],
      "name": "renounceOwnership",
      "outputs": [],
      "stateMutability": "nonpayable",
      "type": "function"
    },
    {
      "inputs": [
        {
          "internalType": "bytes32",
          "name": "role",
          "type": "bytes32"
        },
        {
          "internalType": "address",
          "name": "account",
          "type": "address"
        }
      ],
      "name": "renounceRole",
      "outputs": [],
      "stateMutability": "nonpayable",
      "type": "function"
    },
    {
      "inputs": [
        {
          "internalType": "bytes32",
          "name": "role",
          "type": "bytes32"
        },
        {
          "internalType": "address",
          "name": "account",
          "type": "address"
        }
      ],
      "name": "revokeRole",
      "outputs": [],
      "stateMutability": "nonpayable",
      "type": "function"
    },
    {
      "inputs": [
        {
          "internalType": "uint256",
          "name": "_time",
          "type": "uint256"
        }
      ],
      "name": "setCurrentTime",
      "outputs": [],
      "stateMutability": "nonpayable",
      "type": "function"
    },
    {
      "inputs": [
        {
          "internalType": "contract IERC20",
          "name": "iToken",
          "type": "address"
        }
      ],
      "name": "setPurchaseToken",
      "outputs": [],
      "stateMutability": "nonpayable",
      "type": "function"
    },
    {
      "inputs": [
        {
          "internalType": "contract PaymeTokenVesting",
          "name": "iVestingAddress",
          "type": "address"
        }
      ],
      "name": "setVestingContract",
      "outputs": [],
      "stateMutability": "nonpayable",
      "type": "function"
    },
    {
      "inputs": [
        {
          "internalType": "bytes4",
          "name": "interfaceId",
          "type": "bytes4"
        }
      ],
      "name": "supportsInterface",
      "outputs": [
        {
          "internalType": "bool",
          "name": "",
          "type": "bool"
        }
      ],
      "stateMutability": "view",
      "type": "function"
    },
    {
      "inputs": [],
      "name": "token",
      "outputs": [
        {
          "internalType": "contract IERC20",
          "name": "",
          "type": "address"
        }
      ],
      "stateMutability": "view",
      "type": "function"
    },
    {
      "inputs": [],
      "name": "totalTeamShare",
      "outputs": [
        {
          "internalType": "uint256",
          "name": "",
          "type": "uint256"
        }
      ],
      "stateMutability": "view",
      "type": "function"
    },
    {
      "inputs": [
        {
          "internalType": "address",
          "name": "newOwner",
          "type": "address"
        }
      ],
      "name": "transferOwnership",
      "outputs": [],
      "stateMutability": "nonpayable",
      "type": "function"
    },
    {
      "inputs": [],
      "name": "unpause",
      "outputs": [],
      "stateMutability": "nonpayable",
      "type": "function"
    },
    {
      "inputs": [],
      "name": "vestingAddress",
      "outputs": [
        {
          "internalType": "address",
          "name": "",
          "type": "address"
        }
      ],
      "stateMutability": "view",
      "type": "function"
    },
    {
      "inputs": [],
      "name": "wallet",
      "outputs": [
        {
          "internalType": "address payable",
          "name": "",
          "type": "address"
        }
      ],
      "stateMutability": "view",
      "type": "function"
    },
    {
      "inputs": [],
      "name": "weiRaised",
      "outputs": [
        {
          "internalType": "uint256",
          "name": "",
          "type": "uint256"
        }
      ],
      "stateMutability": "view",
      "type": "function"
    },
    {
      "stateMutability": "payable",
      "type": "receive"
    }
  ],
  "bytecode": "0x608060405260006015553480156200001657600080fd5b50604051620033a1380380620033a1833981016040819052620000399162000888565b60016000558a8a8a8a8a8a8a8a8a8a8a8585888c8c8c82620000a25760405162461bcd60e51b815260206004820152601460248201527f43726f776473616c653a2072617465206973203000000000000000000000000060448201526064015b60405180910390fd5b6001600160a01b038216620001085760405162461bcd60e51b815260206004820152602560248201527f43726f776473616c653a2077616c6c657420697320746865207a65726f206164604482015264647265737360d81b606482015260840162000099565b6001600160a01b0381166200016c5760405162461bcd60e51b8152602060048201526024808201527f43726f776473616c653a20746f6b656e20697320746865207a65726f206164646044820152637265737360e01b606482015260840162000099565b6004839055600380546001600160a01b038085166001600160a01b0319928316179092556002805492841692909116919091179055620001ae6000336200074c565b50506006805460ff1916905550620001c6336200075c565b60008111620002185760405162461bcd60e51b815260206004820152601960248201527f43617070656443726f776473616c653a20636170206973203000000000000000604482015260640162000099565b60075542821015620002825760405162461bcd60e51b815260206004820152603360248201526000805160206200338183398151915260448201527f6265666f72652063757272656e742074696d6500000000000000000000000000606482015260840162000099565b818111620002e85760405162461bcd60e51b815260206004820152603760248201526000805160206200338183398151915260448201527f6e6f74206265666f726520636c6f73696e672074696d65000000000000000000606482015260840162000099565b600891909155600955600a805460ff1916905560006200030760155490565b90506001600160a01b038c16620003615760405162461bcd60e51b815260206004820152601360248201527f56616c6964204255534420726571756972656400000000000000000000000000604482015260640162000099565b87620003b05760405162461bcd60e51b815260206004820152601d60248201527f436170206d7573742062652067726561746572207468616e205a65726f000000604482015260640162000099565b808710156200040e5760405162461bcd60e51b815260206004820152602360248201527f6f70656e696e672074696d65206973206265666f72652063757272656e742074604482015262696d6560e81b606482015260840162000099565b8686116200046f5760405162461bcd60e51b815260206004820152602760248201527f6f70656e696e672074696d65206973206e6f74206265666f726520636c6f73696044820152666e672074696d6560c81b606482015260840162000099565b62f099c0851015620004d25760405162461bcd60e51b815260206004820152602560248201527f4475726174696f6e206d7573742062652067726561746572207468616e20366d6044820152646f6e74687360d81b606482015260840162000099565b60008411620005345760405162461bcd60e51b815260206004820152602760248201527f4d696e696d756d2053616c6573206d7573742062652067726561746572207468604482015266616e205a65726f60c81b606482015260840162000099565b8383116200059e5760405162461bcd60e51b815260206004820152603060248201527f4d6178696d756d2053616c6573206d757374206265206772656174657220746860448201526f616e204d696e696d756d2053616c657360801b606482015260840162000099565b600b80546001600160a01b0319166001600160a01b038e8116919091179091556000600c819055600d879055600e869055600f859055600a8054610100600160a81b0319166101008685160217905560025490911690506000816001600160a01b03166318160ddd6040518163ffffffff1660e01b815260040160206040518083038186803b1580156200063157600080fd5b505afa15801562000646573d6000803e3d6000fd5b505050506040513d601f19601f820116820180604052508101906200066c91906200093a565b90506000620006a5606462000691600a85620007b660201b620016221790919060201c565b620007cb60201b620016351790919060201c565b90506000620006ca606462000691601486620007b660201b620016221790919060201c565b90506000620006ef606462000691600587620007b660201b620016221790919060201c565b90506200072482620007108386620007d960201b620016411790919060201c565b620007d960201b620016411790919060201c565b60108190555050505050505050505050505050505050505050505050505050505050620009ca565b620007588282620007e7565b5050565b600680546001600160a01b03838116610100818102610100600160a81b031985161790945560405193909204169182907f8be0079c531659141344cd1fd0a4f28419497f9722a3daafe3b4186f6b6457e090600090a35050565b6000620007c482846200096a565b9392505050565b6000620007c482846200098c565b6000620007c48284620009af565b60008281526001602090815260408083206001600160a01b038516845290915290205460ff16620007585760008281526001602081815260408084206001600160a01b0386168086529252808420805460ff19169093179092559051339285917f2f8788117e7eff1d82e926ec794901d17c78024a50270940304540a733656f0d9190a45050565b6001600160a01b03811681146200088557600080fd5b50565b60008060008060008060008060008060006101608c8e031215620008ab57600080fd5b8b51620008b8816200086f565b60208d015160408e0151919c509a50620008d2816200086f565b60608d0151909950620008e5816200086f565b8098505060808c0151965060a08c0151955060c08c0151945060e08c015193506101008c015192506101208c015191506101408c015162000926816200086f565b809150509295989b509295989b9093969950565b6000602082840312156200094d57600080fd5b5051919050565b634e487b7160e01b600052601160045260246000fd5b600081600019048311821515161562000987576200098762000954565b500290565b600082620009aa57634e487b7160e01b600052601260045260246000fd5b500490565b60008219821115620009c557620009c562000954565b500190565b6129a780620009da6000396000f3fe6080604052600436106102975760003560e01c8063715018a61161015a578063b5af1b2f116100c1578063e994e4751161007a578063e994e4751461078b578063ec8ac4d8146107a0578063f0e5a18c146107ae578063f2d58790146107c4578063f2fde38b146107da578063fc0c546a146107fa576102ac565b8063b5af1b2f146106dc578063b7a8807c146106fc578063c10d6f5714610711578063c77c738714610731578063d547741f14610756578063e5a2be8e14610776576102ac565b80638da5cb5b116101135780638da5cb5b1461064457806391d148541461066757806393fc645a1461068757806395e7a6a31461069c578063a217fddf146106af578063b3f05b97146106c4576102ac565b8063715018a6146105ae57806374991569146105c3578063762e9376146105e3578063804b60a3146105f95780638456bd2e1461060f5780638456cb591461062f576102ac565b80633f4ba83a116101fe5780634b6753bc116101b75780634b6753bc146105105780634bb278f3146105255780634f9359451461053a578063521eb2731461054f5780635c975abb1461058157806369a7512514610599576102ac565b80633f4ba83a146104435780633feb5f2b146104585780634042b66f1461049f57806347535d7b146104b45780634a8cc5b7146104c95780634b20ab1a146104fb576102ac565b806322f8e5661161025057806322f8e56614610388578063248a9ca3146103a85780632c4e722e146103d95780632f2ff15d146103ee578063355274ea1461040e57806336568abe14610423576102ac565b806301ffc9a7146102b55780630fb5a6b4146102ea57806310154bad1461030e57806313d033c01461032e5780631515bc2b146103445780631e6a610d1461035b576102ac565b366102ac576102aa33610818565b610818565b005b6102aa33610818565b3480156102c157600080fd5b506102d56102d03660046124d2565b610899565b60405190151581526020015b60405180910390f35b3480156102f657600080fd5b50610300600d5481565b6040519081526020016102e1565b34801561031a57600080fd5b506102aa610329366004612521565b6108d0565b34801561033a57600080fd5b50610300600c5481565b34801561035057600080fd5b5060095442116102d5565b34801561036757600080fd5b50610300610376366004612521565b60136020526000908152604090205481565b34801561039457600080fd5b506102aa6103a336600461253e565b601555565b3480156103b457600080fd5b506103006103c336600461253e565b6000908152600160208190526040909120015490565b3480156103e557600080fd5b50600454610300565b3480156103fa57600080fd5b506102aa610409366004612557565b610952565b34801561041a57600080fd5b50600754610300565b34801561042f57600080fd5b506102aa61043e366004612557565b61097d565b34801561044f57600080fd5b506102aa6109f7565b34801561046457600080fd5b5061047861047336600461253e565b610a11565b604080516001600160a01b03909416845260208401929092521515908201526060016102e1565b3480156104ab57600080fd5b50600554610300565b3480156104c057600080fd5b506102d5610a51565b3480156104d557600080fd5b506104e96104e436600461253e565b610a6c565b6040516102e1969594939291906125df565b34801561050757600080fd5b50610300600581565b34801561051c57600080fd5b50600954610300565b34801561053157600080fd5b506102aa610b4e565b34801561054657600080fd5b506102d5610b5e565b34801561055b57600080fd5b506003546001600160a01b03165b6040516001600160a01b0390911681526020016102e1565b34801561058d57600080fd5b5060065460ff166102d5565b3480156105a557600080fd5b506102aa610b73565b3480156105ba57600080fd5b506102aa610d9e565b3480156105cf57600080fd5b506102aa6105de366004612521565b610db0565b3480156105ef57600080fd5b50610300600f5481565b34801561060557600080fd5b5061030060105481565b34801561061b57600080fd5b506102aa61062a366004612521565b610e36565b34801561063b57600080fd5b506102aa610eb6565b34801561065057600080fd5b5060065461010090046001600160a01b0316610569565b34801561067357600080fd5b506102d5610682366004612557565b610ece565b34801561069357600080fd5b50610300601481565b6102aa6106aa366004612626565b610ef9565b3480156106bb57600080fd5b50610300600081565b3480156106d057600080fd5b50600a5460ff166102d5565b3480156106e857600080fd5b50600b54610569906001600160a01b031681565b34801561070857600080fd5b50600854610300565b34801561071d57600080fd5b506102aa61072c366004612668565b611242565b34801561073d57600080fd5b50600a546105699061010090046001600160a01b031681565b34801561076257600080fd5b506102aa610771366004612557565b6113a1565b34801561078257600080fd5b50610300600a81565b34801561079757600080fd5b506102aa6113c7565b6102aa6102a5366004612521565b3480156107ba57600080fd5b5061030060145481565b3480156107d057600080fd5b50610300600e5481565b3480156107e657600080fd5b506102aa6107f5366004612521565b6115a9565b34801561080657600080fd5b506002546001600160a01b0316610569565b600260005414156108705760405162461bcd60e51b815260206004820152601f60248201527f5265656e7472616e637947756172643a207265656e7472616e742063616c6c0060448201526064015b60405180910390fd5b600260005560405163fa5cd00f60e01b81526001600160a01b0382166004820152602401610867565b60006001600160e01b03198216637965db0b60e01b14806108ca57506301ffc9a760e01b6001600160e01b03198316145b92915050565b7ff5ddd805fa96b7c3d4f3ea55114f966ab9aad1de73aff48d008717b66678bb3660005260016020527f306af4f9eb55d9b14ffdc8b547a07f1a27f9250a93efb5a15310de49ac427dbd546109248161164d565b61094e7ff5ddd805fa96b7c3d4f3ea55114f966ab9aad1de73aff48d008717b66678bb3683610952565b5050565b6000828152600160208190526040909120015461096e8161164d565b6109788383611657565b505050565b6001600160a01b03811633146109ed5760405162461bcd60e51b815260206004820152602f60248201527f416363657373436f6e74726f6c3a2063616e206f6e6c792072656e6f756e636560448201526e103937b632b9903337b91039b2b63360891b6064820152608401610867565b61094e82826116c2565b6109ff611729565b610a07611789565b610a0f6117d2565b565b60118181548110610a2157600080fd5b60009182526020909120600390910201805460018201546002909201546001600160a01b03909116925060ff1683565b60006008544210158015610a6757506009544211155b905090565b60128181548110610a7c57600080fd5b9060005260206000209060060201600091509050806000018054610a9f90612744565b80601f0160208091040260200160405190810160405280929190818152602001828054610acb90612744565b8015610b185780601f10610aed57610100808354040283529160200191610b18565b820191906000526020600020905b815481529060010190602001808311610afb57829003601f168201915b505050600184015460028501546003860154600487015460059097015495966001600160a01b0390931695919450925060ff1686565b610b56611729565b610a0f611824565b6000600754610b6c60055490565b1015905090565b6009544211610bc45760405162461bcd60e51b815260206004820181905260248201527f46696e616c697a61626c6543726f776473616c653a204e6f7420436c6f7365646044820152606401610867565b600a5461010090046001600160a01b031660005b60125481101561094e57600060128281548110610bf757610bf761277f565b90600052602060002090600602016040518060c0016040529081600082018054610c2090612744565b80601f0160208091040260200160405190810160405280929190818152602001828054610c4c90612744565b8015610c995780601f10610c6e57610100808354040283529160200191610c99565b820191906000526020600020905b815481529060010190602001808311610c7c57829003601f168201915b505050918352505060018201546001600160a01b0316602082015260028201546040820152600382015460608201526004820154608082015260059091015460ff16151560a09182015281015190915015610cf45750610d8c565b6000610cff60155490565b9050836001600160a01b0316637df8df9283602001518385608001518660600151600180896040015160006040518963ffffffff1660e01b8152600401610d4d989796959493929190612795565b600060405180830381600087803b158015610d6757600080fd5b505af1158015610d7b573d6000803e3d6000fd5b5050600160a0909401939093525050505b80610d96816127f0565b915050610bd8565b610da6611729565b610a0f6000611918565b610db8611729565b6001600160a01b038116610e0e5760405162461bcd60e51b815260206004820152601f60248201527f56616c69642056657374696e6720636f6e7472616374207265717569726564006044820152606401610867565b600a80546001600160a01b0390921661010002610100600160a81b0319909216919091179055565b610e3e611729565b6001600160a01b038116610e945760405162461bcd60e51b815260206004820152601c60248201527f56616c696420546f6b656e2041646472657373205265717569726564000000006044820152606401610867565b600b80546001600160a01b0319166001600160a01b0392909216919091179055565b610ebe611729565b610ec6611972565b610a0f6119b8565b60009182526001602090815260408084206001600160a01b0393909316845291905290205460ff1690565b60026000541415610f4c5760405162461bcd60e51b815260206004820152601f60248201527f5265656e7472616e637947756172643a207265656e7472616e742063616c6c006044820152606401610867565b60026000556001600160a01b038216610fb55760405162461bcd60e51b815260206004820152602560248201527f56616c69642042656e65666963696172792061646472657373206973207265716044820152641d5a5c995960da1b6064820152608401610867565b600081116110115760405162461bcd60e51b815260206004820152602360248201527f416d6f756e74206d7573742062652067726561746572207468616e207a65726f60448201526228302960e81b6064820152608401610867565b8061101c83826119f5565b600061102782611b3b565b9050600061103d6002546001600160a01b031690565b9050600061104a60055490565b905060006110638260105461164190919063ffffffff16565b905061106f8185611641565b6040516370a0823160e01b81523060048201526001600160a01b038516906370a082319060240160206040518083038186803b1580156110ae57600080fd5b505afa1580156110c2573d6000803e3d6000fd5b505050506040513d601f19601f820116820180604052508101906110e6919061280b565b101561110857604051630c75b7b760e31b815260048101859052602401610867565b6111db8785604080516060810182526001600160a01b03808516825260208201848152600093830184815260118054600181018255955292517f31ecc21a745e3968a04e9570e4425bc18fa8019c68028196b546d1669c200c68600390950294850180546001600160a01b0319169190931617909155517f31ecc21a745e3968a04e9570e4425bc18fa8019c68028196b546d1669c200c69830155517f31ecc21a745e3968a04e9570e4425bc18fa8019c68028196b546d1669c200c6a909101805460ff19169115159190911790555050565b60408051868152602081018690526001600160a01b0389169133917f6faf93231a456e552dbc9961f58d9713ee4f2e69d15f1975b050ef0911053a7b910160405180910390a361122b8786611b52565b61123485611b9f565b505060016000555050505050565b61124a611729565b60105460145461125a9085611641565b116112a75760405162461bcd60e51b815260206004820152601d60248201527f4275696c64657220416d6f756e742065786365656473207368617265730000006044820152606401610867565b6040805160c0810182528681526001600160a01b0386166020808301919091529181018590526060810184905260808101839052600060a0820181905260128054600181018255915281518051929360069092027fbb8a6a4669ba250d26cd7a459eca9d215f8307e33aebe50379bc5a3617ec3444019261132b9284920190612439565b5060208201516001820180546001600160a01b0319166001600160a01b0390921691909117905560408201516002820155606082015160038201556080820151600482015560a0909101516005909101805460ff19169115159190911790556014546113979084611641565b6014555050505050565b600082815260016020819052604090912001546113bd8161164d565b61097883836116c2565b60095442116114185760405162461bcd60e51b815260206004820181905260248201527f46696e616c697a61626c6543726f776473616c653a206e6f7420636c6f7365646044820152606401610867565b600a5461010090046001600160a01b031660005b60115481101561094e5760006011828154811061144b5761144b61277f565b600091825260209182902060408051606081018252600390930290910180546001600160a01b0316835260018101549383019390935260029092015460ff161580159282019290925291506114a05750611597565b826001600160a01b0316637df8df928260000151856001600160a01b03166394a3fada6040518163ffffffff1660e01b815260040160206040518083038186803b1580156114ed57600080fd5b505afa158015611501573d6000803e3d6000fd5b505050506040513d601f19601f82011682018060405250810190611525919061280b565b600c54600d5460016000886020015160016040518963ffffffff1660e01b8152600401611559989796959493929190612795565b600060405180830381600087803b15801561157357600080fd5b505af1158015611587573d6000803e3d6000fd5b5050600160409093019290925250505b806115a1816127f0565b91505061142c565b6115b1611729565b6001600160a01b0381166116165760405162461bcd60e51b815260206004820152602660248201527f4f776e61626c653a206e6577206f776e657220697320746865207a65726f206160448201526564647265737360d01b6064820152608401610867565b61161f81611918565b50565b600061162e8284612824565b9392505050565b600061162e8284612843565b600061162e8284612865565b61161f8133611bc9565b6116618282610ece565b61094e5760008281526001602081815260408084206001600160a01b0386168086529252808420805460ff19169093179092559051339285917f2f8788117e7eff1d82e926ec794901d17c78024a50270940304540a733656f0d9190a45050565b6116cc8282610ece565b1561094e5760008281526001602090815260408083206001600160a01b0385168085529252808320805460ff1916905551339285917ff6391f5c32d9c69d2a47ea670b442974b53935d1edc7fd64eb21e047a839171b9190a45050565b6006546001600160a01b03610100909104163314610a0f5760405162461bcd60e51b815260206004820181905260248201527f4f776e61626c653a2063616c6c6572206973206e6f7420746865206f776e65726044820152606401610867565b60065460ff16610a0f5760405162461bcd60e51b815260206004820152601460248201527314185d5cd8589b194e881b9bdd081c185d5cd95960621b6044820152606401610867565b6117da611789565b6006805460ff191690557f5db9ee0a495bf2e6ff9c91a7834c1ba4fdd244a5e8aa4e537bd38aeae4b073aa335b6040516001600160a01b03909116815260200160405180910390a1565b600a5460ff16156118875760405162461bcd60e51b815260206004820152602760248201527f46696e616c697a61626c6543726f776473616c653a20616c72656164792066696044820152661b985b1a5e995960ca1b6064820152608401610867565b60095442116118d85760405162461bcd60e51b815260206004820181905260248201527f46696e616c697a61626c6543726f776473616c653a206e6f7420636c6f7365646044820152606401610867565b600a805460ff191660011790556118ed611c2d565b6040517f9270cc390c096600a1c17c44345a1ba689fafd99d97487b10cfccf86cf73183690600090a1565b600680546001600160a01b03838116610100818102610100600160a81b031985161790945560405193909204169182907f8be0079c531659141344cd1fd0a4f28419497f9722a3daafe3b4186f6b6457e090600090a35050565b60065460ff1615610a0f5760405162461bcd60e51b815260206004820152601060248201526f14185d5cd8589b194e881c185d5cd95960821b6044820152606401610867565b6119c0611972565b6006805460ff191660011790557f62e78cea01bee320cd4e420270b5ea74000d11b0c9f74754ebdbfc544b05a2586118073390565b600b546040516370a0823160e01b81523360048201526000916001600160a01b0316906370a082319060240160206040518083038186803b158015611a3957600080fd5b505afa158015611a4d573d6000803e3d6000fd5b505050506040513d601f19601f82011682018060405250810190611a71919061280b565b905080821115611a9e5760405163cf47918160e01b81526004810182905260248101839052604401610867565b600e54821015611ac4576040516314e6bbf160e21b815260048101839052602401610867565b600f546001600160a01b038416600090815260136020526040902054611aea9084611641565b1115611b31576001600160a01b038316600090815260136020526040902054600f54611b1591611d4c565b6040516398c1d8ab60e01b815260040161086791815260200190565b6109788383611d58565b60006108ca6004548361162290919063ffffffff16565b611b5c8282611d6a565b6001600160a01b038216600090815260136020526040902054611b7f9082611641565b6001600160a01b0390921660009081526013602052604090209190915550565b61161f33611bb56003546001600160a01b031690565b600b546001600160a01b0316919084611d77565b611bd38282610ece565b61094e57611beb816001600160a01b03166014611de8565b611bf6836020611de8565b604051602001611c0792919061287d565b60408051601f198184030181529082905262461bcd60e51b8252610867916004016128f2565b6000611c416002546001600160a01b031690565b90506000611c4e60055490565b90506000611c5b60045490565b90506000836001600160a01b03166318160ddd6040518163ffffffff1660e01b815260040160206040518083038186803b158015611c9857600080fd5b505afa158015611cac573d6000803e3d6000fd5b505050506040513d601f19601f82011682018060405250810190611cd0919061280b565b90506000611cde8484611622565b90506000611cf78260105461164190919063ffffffff16565b905082811115611d1d57604051639446517d60e01b815260048101829052602401610867565b600a54611d3c906001600160a01b038881169161010090041683611f84565b611d446113c7565b505050505050565b600061162e8284612905565b611d60611972565b61094e8282611fb4565b6005546109789082611641565b6040516001600160a01b0380851660248301528316604482015260648101829052611de29085906323b872dd60e01b906084015b60408051601f198184030181529190526020810180516001600160e01b03166001600160e01b031990931692909217909152612064565b50505050565b60606000611df7836002612824565b611e02906002612865565b67ffffffffffffffff811115611e1a57611e1a612652565b6040519080825280601f01601f191660200182016040528015611e44576020820181803683370190505b509050600360fc1b81600081518110611e5f57611e5f61277f565b60200101906001600160f81b031916908160001a905350600f60fb1b81600181518110611e8e57611e8e61277f565b60200101906001600160f81b031916908160001a9053506000611eb2846002612824565b611ebd906001612865565b90505b6001811115611f35576f181899199a1a9b1b9c1cb0b131b232b360811b85600f1660108110611ef157611ef161277f565b1a60f81b828281518110611f0757611f0761277f565b60200101906001600160f81b031916908160001a90535060049490941c93611f2e8161291c565b9050611ec0565b50831561162e5760405162461bcd60e51b815260206004820181905260248201527f537472696e67733a20686578206c656e67746820696e73756666696369656e746044820152606401610867565b6040516001600160a01b03831660248201526044810182905261097890849063a9059cbb60e01b90606401611dab565b611fde7ff5ddd805fa96b7c3d4f3ea55114f966ab9aad1de73aff48d008717b66678bb3683610ece565b61205a5760405162461bcd60e51b815260206004820152604160248201527f57686974656c69737443726f776473616c653a2062656e65666963696172792060448201527f646f65736e27742068617665207468652057686974656c697374656420726f6c6064820152606560f81b608482015260a401610867565b61094e8282612136565b60006120b9826040518060400160405280602081526020017f5361666545524332303a206c6f772d6c6576656c2063616c6c206661696c6564815250856001600160a01b03166121949092919063ffffffff16565b80519091501561097857808060200190518101906120d79190612933565b6109785760405162461bcd60e51b815260206004820152602a60248201527f5361666545524332303a204552433230206f7065726174696f6e20646964206e6044820152691bdd081cdd58d8d9595960b21b6064820152608401610867565b61213e610a51565b61218a5760405162461bcd60e51b815260206004820152601860248201527f54696d656443726f776473616c653a206e6f74206f70656e00000000000000006044820152606401610867565b61094e82826121ab565b60606121a38484600085612219565b949350505050565b6121b5828261234a565b6007546121cb826121c560055490565b90611641565b111561094e5760405162461bcd60e51b815260206004820152601d60248201527f43617070656443726f776473616c653a206361702065786365656465640000006044820152606401610867565b60608247101561227a5760405162461bcd60e51b815260206004820152602660248201527f416464726573733a20696e73756666696369656e742062616c616e636520666f6044820152651c8818d85b1b60d21b6064820152608401610867565b6001600160a01b0385163b6122d15760405162461bcd60e51b815260206004820152601d60248201527f416464726573733a2063616c6c20746f206e6f6e2d636f6e74726163740000006044820152606401610867565b600080866001600160a01b031685876040516122ed9190612955565b60006040518083038185875af1925050503d806000811461232a576040519150601f19603f3d011682016040523d82523d6000602084013e61232f565b606091505b509150915061233f828286612400565b979650505050505050565b6001600160a01b0382166123b35760405162461bcd60e51b815260206004820152602a60248201527f43726f776473616c653a2062656e656669636961727920697320746865207a65604482015269726f206164647265737360b01b6064820152608401610867565b8061094e5760405162461bcd60e51b815260206004820152601960248201527f43726f776473616c653a20776569416d6f756e742069732030000000000000006044820152606401610867565b6060831561240f57508161162e565b82511561241f5782518084602001fd5b8160405162461bcd60e51b815260040161086791906128f2565b82805461244590612744565b90600052602060002090601f01602090048101928261246757600085556124ad565b82601f1061248057805160ff19168380011785556124ad565b828001600101855582156124ad579182015b828111156124ad578251825591602001919060010190612492565b506124b99291506124bd565b5090565b5b808211156124b957600081556001016124be565b6000602082840312156124e457600080fd5b81356001600160e01b03198116811461162e57600080fd5b6001600160a01b038116811461161f57600080fd5b803561251c816124fc565b919050565b60006020828403121561253357600080fd5b813561162e816124fc565b60006020828403121561255057600080fd5b5035919050565b6000806040838503121561256a57600080fd5b82359150602083013561257c816124fc565b809150509250929050565b60005b838110156125a257818101518382015260200161258a565b83811115611de25750506000910152565b600081518084526125cb816020860160208601612587565b601f01601f19169290920160200192915050565b60c0815260006125f260c08301896125b3565b6001600160a01b0397909716602083015250604081019490945260608401929092526080830152151560a090910152919050565b6000806040838503121561263957600080fd5b8235612644816124fc565b946020939093013593505050565b634e487b7160e01b600052604160045260246000fd5b600080600080600060a0868803121561268057600080fd5b853567ffffffffffffffff8082111561269857600080fd5b818801915088601f8301126126ac57600080fd5b8135818111156126be576126be612652565b604051601f8201601f19908116603f011681019083821181831017156126e6576126e6612652565b816040528281528b60208487010111156126ff57600080fd5b82602086016020830137600060208483010152809950505050505061272660208701612511565b94979496505050506040830135926060810135926080909101359150565b600181811c9082168061275857607f821691505b6020821081141561277957634e487b7160e01b600052602260045260246000fd5b50919050565b634e487b7160e01b600052603260045260246000fd5b6001600160a01b039890981688526020880196909652604087019490945260608601929092526080850152151560a084015260c0830152151560e08201526101000190565b634e487b7160e01b600052601160045260246000fd5b6000600019821415612804576128046127da565b5060010190565b60006020828403121561281d57600080fd5b5051919050565b600081600019048311821515161561283e5761283e6127da565b500290565b60008261286057634e487b7160e01b600052601260045260246000fd5b500490565b60008219821115612878576128786127da565b500190565b7f416363657373436f6e74726f6c3a206163636f756e74200000000000000000008152600083516128b5816017850160208801612587565b7001034b99036b4b9b9b4b733903937b6329607d1b60179184019182015283516128e6816028840160208801612587565b01602801949350505050565b60208152600061162e60208301846125b3565b600082821015612917576129176127da565b500390565b60008161292b5761292b6127da565b506000190190565b60006020828403121561294557600080fd5b8151801515811461162e57600080fd5b60008251612967818460208701612587565b919091019291505056fea2646970667358221220b4f3dfe76d729160324f1860e8af533d23aaca49604b8a81eec9a27fda90b09964736f6c6343000809003354696d656443726f776473616c653a206f70656e696e672074696d6520697320",
  "linkReferences": {},
  "deployedLinkReferences": {}
}